{
  "_format": "hh-sol-artifact-1",
  "contractName": "ERC777MockUpgradeable",
  "sourceName": "contracts/src/OpenZeppelin/upgradeable/mocks/ERC777MockUpgradeable.sol",
  "abi": [
    {
      "anonymous": false,
      "inputs": [
        {
          "indexed": true,
          "internalType": "address",
          "name": "owner",
          "type": "address"
        },
        {
          "indexed": true,
          "internalType": "address",
          "name": "spender",
          "type": "address"
        },
        {
          "indexed": false,
          "internalType": "uint256",
          "name": "value",
          "type": "uint256"
        }
      ],
      "name": "Approval",
      "type": "event"
    },
    {
      "anonymous": false,
      "inputs": [
        {
          "indexed": true,
          "internalType": "address",
          "name": "operator",
          "type": "address"
        },
        {
          "indexed": true,
          "internalType": "address",
          "name": "tokenHolder",
          "type": "address"
        }
      ],
      "name": "AuthorizedOperator",
      "type": "event"
    },
    {
      "anonymous": false,
      "inputs": [],
      "name": "BeforeTokenTransfer",
      "type": "event"
    },
    {
      "anonymous": false,
      "inputs": [
        {
          "indexed": true,
          "internalType": "address",
          "name": "operator",
          "type": "address"
        },
        {
          "indexed": true,
          "internalType": "address",
          "name": "from",
          "type": "address"
        },
        {
          "indexed": false,
          "internalType": "uint256",
          "name": "amount",
          "type": "uint256"
        },
        {
          "indexed": false,
          "internalType": "bytes",
          "name": "data",
          "type": "bytes"
        },
        {
          "indexed": false,
          "internalType": "bytes",
          "name": "operatorData",
          "type": "bytes"
        }
      ],
      "name": "Burned",
      "type": "event"
    },
    {
      "anonymous": false,
      "inputs": [
        {
          "indexed": true,
          "internalType": "address",
          "name": "operator",
          "type": "address"
        },
        {
          "indexed": true,
          "internalType": "address",
          "name": "to",
          "type": "address"
        },
        {
          "indexed": false,
          "internalType": "uint256",
          "name": "amount",
          "type": "uint256"
        },
        {
          "indexed": false,
          "internalType": "bytes",
          "name": "data",
          "type": "bytes"
        },
        {
          "indexed": false,
          "internalType": "bytes",
          "name": "operatorData",
          "type": "bytes"
        }
      ],
      "name": "Minted",
      "type": "event"
    },
    {
      "anonymous": false,
      "inputs": [
        {
          "indexed": true,
          "internalType": "address",
          "name": "operator",
          "type": "address"
        },
        {
          "indexed": true,
          "internalType": "address",
          "name": "tokenHolder",
          "type": "address"
        }
      ],
      "name": "RevokedOperator",
      "type": "event"
    },
    {
      "anonymous": false,
      "inputs": [
        {
          "indexed": true,
          "internalType": "address",
          "name": "operator",
          "type": "address"
        },
        {
          "indexed": true,
          "internalType": "address",
          "name": "from",
          "type": "address"
        },
        {
          "indexed": true,
          "internalType": "address",
          "name": "to",
          "type": "address"
        },
        {
          "indexed": false,
          "internalType": "uint256",
          "name": "amount",
          "type": "uint256"
        },
        {
          "indexed": false,
          "internalType": "bytes",
          "name": "data",
          "type": "bytes"
        },
        {
          "indexed": false,
          "internalType": "bytes",
          "name": "operatorData",
          "type": "bytes"
        }
      ],
      "name": "Sent",
      "type": "event"
    },
    {
      "anonymous": false,
      "inputs": [
        {
          "indexed": true,
          "internalType": "address",
          "name": "from",
          "type": "address"
        },
        {
          "indexed": true,
          "internalType": "address",
          "name": "to",
          "type": "address"
        },
        {
          "indexed": false,
          "internalType": "uint256",
          "name": "value",
          "type": "uint256"
        }
      ],
      "name": "Transfer",
      "type": "event"
    },
    {
      "inputs": [
        {
          "internalType": "address",
          "name": "holder",
          "type": "address"
        },
        {
          "internalType": "address",
          "name": "spender",
          "type": "address"
        }
      ],
      "name": "allowance",
      "outputs": [
        {
          "internalType": "uint256",
          "name": "",
          "type": "uint256"
        }
      ],
      "stateMutability": "view",
      "type": "function"
    },
    {
      "inputs": [
        {
          "internalType": "address",
          "name": "spender",
          "type": "address"
        },
        {
          "internalType": "uint256",
          "name": "value",
          "type": "uint256"
        }
      ],
      "name": "approve",
      "outputs": [
        {
          "internalType": "bool",
          "name": "",
          "type": "bool"
        }
      ],
      "stateMutability": "nonpayable",
      "type": "function"
    },
    {
      "inputs": [
        {
          "internalType": "address",
          "name": "holder",
          "type": "address"
        },
        {
          "internalType": "address",
          "name": "spender",
          "type": "address"
        },
        {
          "internalType": "uint256",
          "name": "value",
          "type": "uint256"
        }
      ],
      "name": "approveInternal",
      "outputs": [],
      "stateMutability": "nonpayable",
      "type": "function"
    },
    {
      "inputs": [
        {
          "internalType": "address",
          "name": "operator",
          "type": "address"
        }
      ],
      "name": "authorizeOperator",
      "outputs": [],
      "stateMutability": "nonpayable",
      "type": "function"
    },
    {
      "inputs": [
        {
          "internalType": "address",
          "name": "tokenHolder",
          "type": "address"
        }
      ],
      "name": "balanceOf",
      "outputs": [
        {
          "internalType": "uint256",
          "name": "",
          "type": "uint256"
        }
      ],
      "stateMutability": "view",
      "type": "function"
    },
    {
      "inputs": [
        {
          "internalType": "uint256",
          "name": "amount",
          "type": "uint256"
        },
        {
          "internalType": "bytes",
          "name": "data",
          "type": "bytes"
        }
      ],
      "name": "burn",
      "outputs": [],
      "stateMutability": "nonpayable",
      "type": "function"
    },
    {
      "inputs": [],
      "name": "decimals",
      "outputs": [
        {
          "internalType": "uint8",
          "name": "",
          "type": "uint8"
        }
      ],
      "stateMutability": "pure",
      "type": "function"
    },
    {
      "inputs": [],
      "name": "defaultOperators",
      "outputs": [
        {
          "internalType": "address[]",
          "name": "",
          "type": "address[]"
        }
      ],
      "stateMutability": "view",
      "type": "function"
    },
    {
      "inputs": [],
      "name": "granularity",
      "outputs": [
        {
          "internalType": "uint256",
          "name": "",
          "type": "uint256"
        }
      ],
      "stateMutability": "view",
      "type": "function"
    },
    {
      "inputs": [
        {
          "internalType": "address",
          "name": "operator",
          "type": "address"
        },
        {
          "internalType": "address",
          "name": "tokenHolder",
          "type": "address"
        }
      ],
      "name": "isOperatorFor",
      "outputs": [
        {
          "internalType": "bool",
          "name": "",
          "type": "bool"
        }
      ],
      "stateMutability": "view",
      "type": "function"
    },
    {
      "inputs": [
        {
          "internalType": "address",
          "name": "to",
          "type": "address"
        },
        {
          "internalType": "uint256",
          "name": "amount",
          "type": "uint256"
        },
        {
          "internalType": "bytes",
          "name": "userData",
          "type": "bytes"
        },
        {
          "internalType": "bytes",
          "name": "operatorData",
          "type": "bytes"
        }
      ],
      "name": "mintInternal",
      "outputs": [],
      "stateMutability": "nonpayable",
      "type": "function"
    },
    {
      "inputs": [
        {
          "internalType": "address",
          "name": "to",
          "type": "address"
        },
        {
          "internalType": "uint256",
          "name": "amount",
          "type": "uint256"
        },
        {
          "internalType": "bytes",
          "name": "userData",
          "type": "bytes"
        },
        {
          "internalType": "bytes",
          "name": "operatorData",
          "type": "bytes"
        },
        {
          "internalType": "bool",
          "name": "requireReceptionAck",
          "type": "bool"
        }
      ],
      "name": "mintInternalExtended",
      "outputs": [],
      "stateMutability": "nonpayable",
      "type": "function"
    },
    {
      "inputs": [],
      "name": "name",
      "outputs": [
        {
          "internalType": "string",
          "name": "",
          "type": "string"
        }
      ],
      "stateMutability": "view",
      "type": "function"
    },
    {
      "inputs": [
        {
          "internalType": "address",
          "name": "account",
          "type": "address"
        },
        {
          "internalType": "uint256",
          "name": "amount",
          "type": "uint256"
        },
        {
          "internalType": "bytes",
          "name": "data",
          "type": "bytes"
        },
        {
          "internalType": "bytes",
          "name": "operatorData",
          "type": "bytes"
        }
      ],
      "name": "operatorBurn",
      "outputs": [],
      "stateMutability": "nonpayable",
      "type": "function"
    },
    {
      "inputs": [
        {
          "internalType": "address",
          "name": "sender",
          "type": "address"
        },
        {
          "internalType": "address",
          "name": "recipient",
          "type": "address"
        },
        {
          "internalType": "uint256",
          "name": "amount",
          "type": "uint256"
        },
        {
          "internalType": "bytes",
          "name": "data",
          "type": "bytes"
        },
        {
          "internalType": "bytes",
          "name": "operatorData",
          "type": "bytes"
        }
      ],
      "name": "operatorSend",
      "outputs": [],
      "stateMutability": "nonpayable",
      "type": "function"
    },
    {
      "inputs": [
        {
          "internalType": "address",
          "name": "operator",
          "type": "address"
        }
      ],
      "name": "revokeOperator",
      "outputs": [],
      "stateMutability": "nonpayable",
      "type": "function"
    },
    {
      "inputs": [
        {
          "internalType": "address",
          "name": "recipient",
          "type": "address"
        },
        {
          "internalType": "uint256",
          "name": "amount",
          "type": "uint256"
        },
        {
          "internalType": "bytes",
          "name": "data",
          "type": "bytes"
        }
      ],
      "name": "send",
      "outputs": [],
      "stateMutability": "nonpayable",
      "type": "function"
    },
    {
      "inputs": [],
      "name": "symbol",
      "outputs": [
        {
          "internalType": "string",
          "name": "",
          "type": "string"
        }
      ],
      "stateMutability": "view",
      "type": "function"
    },
    {
      "inputs": [],
      "name": "totalSupply",
      "outputs": [
        {
          "internalType": "uint256",
          "name": "",
          "type": "uint256"
        }
      ],
      "stateMutability": "view",
      "type": "function"
    },
    {
      "inputs": [
        {
          "internalType": "address",
          "name": "recipient",
          "type": "address"
        },
        {
          "internalType": "uint256",
          "name": "amount",
          "type": "uint256"
        }
      ],
      "name": "transfer",
      "outputs": [
        {
          "internalType": "bool",
          "name": "",
          "type": "bool"
        }
      ],
      "stateMutability": "nonpayable",
      "type": "function"
    },
    {
      "inputs": [
        {
          "internalType": "address",
          "name": "holder",
          "type": "address"
        },
        {
          "internalType": "address",
          "name": "recipient",
          "type": "address"
        },
        {
          "internalType": "uint256",
          "name": "amount",
          "type": "uint256"
        }
      ],
      "name": "transferFrom",
      "outputs": [
        {
          "internalType": "bool",
          "name": "",
          "type": "bool"
        }
      ],
      "stateMutability": "nonpayable",
      "type": "function"
    }
  ],
  "bytecode": "0x608060405234801561001057600080fd5b506131e5806100206000396000f3fe608060405234801561001057600080fd5b50600436106101375760003560e01c8063959b8c3f116100b8578063cfbfab0b1161007c578063cfbfab0b1461033c578063d95b637114610358578063dd62ed3e14610388578063fad8b32a146103b8578063fc673c4f146103d4578063fe9d9303146103f057610137565b8063959b8c3f1461029a57806395d89b41146102b65780639bd9bbc6146102d4578063a9059cbb146102f0578063b1f0b5be1461032057610137565b8063313ce567116100ff578063313ce567146101f6578063556f0dc71461021457806356189cb41461023257806362ad1b831461024e57806370a082311461026a57610137565b806306e485381461013c57806306fdde031461015a578063095ea7b31461017857806318160ddd146101a857806323b872dd146101c6575b600080fd5b61014461040c565b6040516101519190612742565b60405180910390f35b61016261049a565b60405161016f919061277f565b60405180910390f35b610192600480360381019061018d919061212a565b61052c565b60405161019f9190612764565b60405180910390f35b6101b061054f565b6040516101bd9190612981565b60405180910390f35b6101e060048036038101906101db9190612034565b610559565b6040516101ed9190612764565b60405180910390f35b6101fe6107b3565b60405161020b91906129e1565b60405180910390f35b61021c6107bc565b6040516102299190612981565b60405180910390f35b61024c60048036038101906102479190612034565b6107c5565b005b61026860048036038101906102639190612083565b6107d5565b005b610284600480360381019061027f9190611fa6565b61083b565b6040516102919190612981565b60405180910390f35b6102b460048036038101906102af9190611fa6565b610884565b005b6102be610ae5565b6040516102cb919061277f565b60405180910390f35b6102ee60048036038101906102e99190612166565b610b77565b005b61030a6004803603810190610305919061212a565b610ba1565b6040516103179190612764565b60405180910390f35b61033a600480360381019061033591906121cd565b610caf565b005b61035660048036038101906103519190612260565b610cc1565b005b610372600480360381019061036d9190611ff8565b610cd5565b60405161037f9190612764565b60405180910390f35b6103a2600480360381019061039d9190611ff8565b610e86565b6040516103af9190612981565b60405180910390f35b6103d260048036038101906103cd9190611fa6565b610f0d565b005b6103ee60048036038101906103e991906121cd565b61116e565b005b61040a60048036038101906104059190612307565b6111d0565b005b6060603780548060200260200160405190810160405280929190818152602001828054801561049057602002820191906000526020600020905b8160009054906101000a900473ffffffffffffffffffffffffffffffffffffffff1673ffffffffffffffffffffffffffffffffffffffff1681526020019060010190808311610446575b5050505050905090565b6060603580546104a990612bee565b80601f01602080910402602001604051908101604052809291908181526020018280546104d590612bee565b80156105225780601f106104f757610100808354040283529160200191610522565b820191906000526020600020905b81548152906001019060200180831161050557829003601f168201915b5050505050905090565b6000806105376111f6565b90506105448185856111fe565b600191505092915050565b6000603454905090565b60008073ffffffffffffffffffffffffffffffffffffffff168373ffffffffffffffffffffffffffffffffffffffff1614156105ca576040517f08c379a00000000000000000000000000000000000000000000000000000000081526004016105c1906128a1565b60405180910390fd5b600073ffffffffffffffffffffffffffffffffffffffff168473ffffffffffffffffffffffffffffffffffffffff16141561063a576040517f08c379a000000000000000000000000000000000000000000000000000000000815260040161063190612901565b60405180910390fd5b60006106446111f6565b90506106728186868660405180602001604052806000815250604051806020016040528060008152506113c9565b61069e81868686604051806020016040528060008152506040518060200160405280600081525061153f565b6000603b60008773ffffffffffffffffffffffffffffffffffffffff1673ffffffffffffffffffffffffffffffffffffffff16815260200190815260200160002060008373ffffffffffffffffffffffffffffffffffffffff1673ffffffffffffffffffffffffffffffffffffffff16815260200190815260200160002054905083811015610762576040517f08c379a0000000000000000000000000000000000000000000000000000000008152600401610759906128e1565b60405180910390fd5b610778868386846107739190612b19565b6111fe565b6107a6828787876040518060200160405280600081525060405180602001604052806000815250600061175c565b6001925050509392505050565b60006012905090565b60006001905090565b6107d08383836111fe565b505050565b6107e66107e06111f6565b86610cd5565b610825576040517f08c379a000000000000000000000000000000000000000000000000000000000815260040161081c906128c1565b60405180910390fd5b6108348585858585600161193d565b5050505050565b6000603360008373ffffffffffffffffffffffffffffffffffffffff1673ffffffffffffffffffffffffffffffffffffffff168152602001908152602001600020549050919050565b8073ffffffffffffffffffffffffffffffffffffffff166108a36111f6565b73ffffffffffffffffffffffffffffffffffffffff1614156108fa576040517f08c379a00000000000000000000000000000000000000000000000000000000081526004016108f190612821565b60405180910390fd5b603860008273ffffffffffffffffffffffffffffffffffffffff1673ffffffffffffffffffffffffffffffffffffffff16815260200190815260200160002060009054906101000a900460ff16156109e457603a60006109586111f6565b73ffffffffffffffffffffffffffffffffffffffff1673ffffffffffffffffffffffffffffffffffffffff16815260200190815260200160002060008273ffffffffffffffffffffffffffffffffffffffff1673ffffffffffffffffffffffffffffffffffffffff16815260200190815260200160002060006101000a81549060ff0219169055610a81565b6001603960006109f26111f6565b73ffffffffffffffffffffffffffffffffffffffff1673ffffffffffffffffffffffffffffffffffffffff16815260200190815260200160002060008373ffffffffffffffffffffffffffffffffffffffff1673ffffffffffffffffffffffffffffffffffffffff16815260200190815260200160002060006101000a81548160ff0219169083151502179055505b610a896111f6565b73ffffffffffffffffffffffffffffffffffffffff168173ffffffffffffffffffffffffffffffffffffffff167ff4caeb2d6ca8932a215a353d0703c326ec2d81fc68170f320eb2ab49e9df61f960405160405180910390a350565b606060368054610af490612bee565b80601f0160208091040260200160405190810160405280929190818152602001828054610b2090612bee565b8015610b6d5780601f10610b4257610100808354040283529160200191610b6d565b820191906000526020600020905b815481529060010190602001808311610b5057829003601f168201915b5050505050905090565b610b9c610b826111f6565b84848460405180602001604052806000815250600161193d565b505050565b60008073ffffffffffffffffffffffffffffffffffffffff168373ffffffffffffffffffffffffffffffffffffffff161415610c12576040517f08c379a0000000000000000000000000000000000000000000000000000000008152600401610c09906128a1565b60405180910390fd5b6000610c1c6111f6565b9050610c4a8182868660405180602001604052806000815250604051806020016040528060008152506113c9565b610c7681828686604051806020016040528060008152506040518060200160405280600081525061153f565b610ca4818286866040518060200160405280600081525060405180602001604052806000815250600061175c565b600191505092915050565b610cbb84848484611a5d565b50505050565b610cce8585858585611a71565b5050505050565b60008173ffffffffffffffffffffffffffffffffffffffff168373ffffffffffffffffffffffffffffffffffffffff161480610ded5750603860008473ffffffffffffffffffffffffffffffffffffffff1673ffffffffffffffffffffffffffffffffffffffff16815260200190815260200160002060009054906101000a900460ff168015610dec5750603a60008373ffffffffffffffffffffffffffffffffffffffff1673ffffffffffffffffffffffffffffffffffffffff16815260200190815260200160002060008473ffffffffffffffffffffffffffffffffffffffff1673ffffffffffffffffffffffffffffffffffffffff16815260200190815260200160002060009054906101000a900460ff16155b5b80610e7e5750603960008373ffffffffffffffffffffffffffffffffffffffff1673ffffffffffffffffffffffffffffffffffffffff16815260200190815260200160002060008473ffffffffffffffffffffffffffffffffffffffff1673ffffffffffffffffffffffffffffffffffffffff16815260200190815260200160002060009054906101000a900460ff165b905092915050565b6000603b60008473ffffffffffffffffffffffffffffffffffffffff1673ffffffffffffffffffffffffffffffffffffffff16815260200190815260200160002060008373ffffffffffffffffffffffffffffffffffffffff1673ffffffffffffffffffffffffffffffffffffffff16815260200190815260200160002054905092915050565b610f156111f6565b73ffffffffffffffffffffffffffffffffffffffff168173ffffffffffffffffffffffffffffffffffffffff161415610f83576040517f08c379a0000000000000000000000000000000000000000000000000000000008152600401610f7a90612841565b60405180910390fd5b603860008273ffffffffffffffffffffffffffffffffffffffff1673ffffffffffffffffffffffffffffffffffffffff16815260200190815260200160002060009054906101000a900460ff1615611076576001603a6000610fe36111f6565b73ffffffffffffffffffffffffffffffffffffffff1673ffffffffffffffffffffffffffffffffffffffff16815260200190815260200160002060008373ffffffffffffffffffffffffffffffffffffffff1673ffffffffffffffffffffffffffffffffffffffff16815260200190815260200160002060006101000a81548160ff02191690831515021790555061110a565b603960006110826111f6565b73ffffffffffffffffffffffffffffffffffffffff1673ffffffffffffffffffffffffffffffffffffffff16815260200190815260200160002060008273ffffffffffffffffffffffffffffffffffffffff1673ffffffffffffffffffffffffffffffffffffffff16815260200190815260200160002060006101000a81549060ff02191690555b6111126111f6565b73ffffffffffffffffffffffffffffffffffffffff168173ffffffffffffffffffffffffffffffffffffffff167f50546e66e5f44d728365dc3908c63bc5cfeeab470722c1677e3073a6ac294aa160405160405180910390a350565b61117f6111796111f6565b85610cd5565b6111be576040517f08c379a00000000000000000000000000000000000000000000000000000000081526004016111b5906128c1565b60405180910390fd5b6111ca84848484611c50565b50505050565b6111f26111db6111f6565b838360405180602001604052806000815250611c50565b5050565b600033905090565b600073ffffffffffffffffffffffffffffffffffffffff168373ffffffffffffffffffffffffffffffffffffffff16141561126e576040517f08c379a0000000000000000000000000000000000000000000000000000000008152600401611265906127a1565b60405180910390fd5b600073ffffffffffffffffffffffffffffffffffffffff168273ffffffffffffffffffffffffffffffffffffffff1614156112de576040517f08c379a00000000000000000000000000000000000000000000000000000000081526004016112d590612961565b60405180910390fd5b80603b60008573ffffffffffffffffffffffffffffffffffffffff1673ffffffffffffffffffffffffffffffffffffffff16815260200190815260200160002060008473ffffffffffffffffffffffffffffffffffffffff1673ffffffffffffffffffffffffffffffffffffffff168152602001908152602001600020819055508173ffffffffffffffffffffffffffffffffffffffff168373ffffffffffffffffffffffffffffffffffffffff167f8c5be1e5ebec7d5bd14f71427d1e84f3dd0314c0f7b2291e5b200ac8c7c3b925836040516113bc9190612981565b60405180910390a3505050565b6000731820a4b7618bde71dce8cdc73aab6c95905fad2473ffffffffffffffffffffffffffffffffffffffff1663aabbb8ca877f29ddb589b1fb5fc7cf394961c1adf5f8c6454761adf795e67fe149f658abe8956040518363ffffffff1660e01b815260040161143a929190612719565b60206040518083038186803b15801561145257600080fd5b505afa158015611466573d6000803e3d6000fd5b505050506040513d601f19601f8201168201806040525081019061148a9190611fcf565b9050600073ffffffffffffffffffffffffffffffffffffffff168173ffffffffffffffffffffffffffffffffffffffff1614611536578073ffffffffffffffffffffffffffffffffffffffff166375ab97828888888888886040518763ffffffff1660e01b8152600401611503969594939291906126aa565b600060405180830381600087803b15801561151d57600080fd5b505af1158015611531573d6000803e3d6000fd5b505050505b50505050505050565b61154b86868686611ea5565b6000603360008773ffffffffffffffffffffffffffffffffffffffff1673ffffffffffffffffffffffffffffffffffffffff168152602001908152602001600020549050838110156115d2576040517f08c379a00000000000000000000000000000000000000000000000000000000081526004016115c9906127e1565b60405180910390fd5b838103603360008873ffffffffffffffffffffffffffffffffffffffff1673ffffffffffffffffffffffffffffffffffffffff1681526020019081526020016000208190555083603360008773ffffffffffffffffffffffffffffffffffffffff1673ffffffffffffffffffffffffffffffffffffffff16815260200190815260200160002060008282546116679190612ac3565b925050819055508473ffffffffffffffffffffffffffffffffffffffff168673ffffffffffffffffffffffffffffffffffffffff168873ffffffffffffffffffffffffffffffffffffffff167f06b541ddaa720db2b10a4d0cdac39b8d360425fc073085fac19bc826146779878787876040516116e69392919061299c565b60405180910390a48473ffffffffffffffffffffffffffffffffffffffff168673ffffffffffffffffffffffffffffffffffffffff167fddf252ad1be2c89b69c2b068fc378daa952ba7f163c4a11628f55a4df523b3ef8660405161174b9190612981565b60405180910390a350505050505050565b6000731820a4b7618bde71dce8cdc73aab6c95905fad2473ffffffffffffffffffffffffffffffffffffffff1663aabbb8ca877fb281fc8c12954d22544db45de3159a39272895b169a852b314f9cc762e44c53b6040518363ffffffff1660e01b81526004016117cd929190612719565b60206040518083038186803b1580156117e557600080fd5b505afa1580156117f9573d6000803e3d6000fd5b505050506040513d601f19601f8201168201806040525081019061181d9190611fcf565b9050600073ffffffffffffffffffffffffffffffffffffffff168173ffffffffffffffffffffffffffffffffffffffff16146118cc578073ffffffffffffffffffffffffffffffffffffffff166223de298989898989896040518763ffffffff1660e01b8152600401611895969594939291906126aa565b600060405180830381600087803b1580156118af57600080fd5b505af11580156118c3573d6000803e3d6000fd5b50505050611933565b8115611932576118f18673ffffffffffffffffffffffffffffffffffffffff16611ed7565b15611931576040517f08c379a000000000000000000000000000000000000000000000000000000000815260040161192890612881565b60405180910390fd5b5b5b5050505050505050565b600073ffffffffffffffffffffffffffffffffffffffff168673ffffffffffffffffffffffffffffffffffffffff1614156119ad576040517f08c379a00000000000000000000000000000000000000000000000000000000081526004016119a4906127c1565b60405180910390fd5b600073ffffffffffffffffffffffffffffffffffffffff168573ffffffffffffffffffffffffffffffffffffffff161415611a1d576040517f08c379a0000000000000000000000000000000000000000000000000000000008152600401611a1490612941565b60405180910390fd5b6000611a276111f6565b9050611a378188888888886113c9565b611a4581888888888861153f565b611a548188888888888861175c565b50505050505050565b611a6b848484846001611a71565b50505050565b600073ffffffffffffffffffffffffffffffffffffffff168573ffffffffffffffffffffffffffffffffffffffff161415611ae1576040517f08c379a0000000000000000000000000000000000000000000000000000000008152600401611ad890612861565b60405180910390fd5b6000611aeb6111f6565b9050611afa8160008888611ea5565b8460346000828254611b0c9190612ac3565b9250508190555084603360008873ffffffffffffffffffffffffffffffffffffffff1673ffffffffffffffffffffffffffffffffffffffff1681526020019081526020016000206000828254611b629190612ac3565b92505081905550611b79816000888888888861175c565b8573ffffffffffffffffffffffffffffffffffffffff168173ffffffffffffffffffffffffffffffffffffffff167f2fe5be0146f74c5bce36c0b80911af6c7d86ff27e89d5cfa61fc681327954e5d878787604051611bda9392919061299c565b60405180910390a38573ffffffffffffffffffffffffffffffffffffffff16600073ffffffffffffffffffffffffffffffffffffffff167fddf252ad1be2c89b69c2b068fc378daa952ba7f163c4a11628f55a4df523b3ef87604051611c409190612981565b60405180910390a3505050505050565b600073ffffffffffffffffffffffffffffffffffffffff168473ffffffffffffffffffffffffffffffffffffffff161415611cc0576040517f08c379a0000000000000000000000000000000000000000000000000000000008152600401611cb790612801565b60405180910390fd5b6000611cca6111f6565b9050611cdb818660008787876113c9565b611ce88186600087611ea5565b6000603360008773ffffffffffffffffffffffffffffffffffffffff1673ffffffffffffffffffffffffffffffffffffffff16815260200190815260200160002054905084811015611d6f576040517f08c379a0000000000000000000000000000000000000000000000000000000008152600401611d6690612921565b60405180910390fd5b848103603360008873ffffffffffffffffffffffffffffffffffffffff1673ffffffffffffffffffffffffffffffffffffffff168152602001908152602001600020819055508460346000828254611dc79190612b19565b925050819055508573ffffffffffffffffffffffffffffffffffffffff168273ffffffffffffffffffffffffffffffffffffffff167fa78a9be3a7b862d26933ad85fb11d80ef66b8f972d7cbba06621d583943a4098878787604051611e2f9392919061299c565b60405180910390a3600073ffffffffffffffffffffffffffffffffffffffff168673ffffffffffffffffffffffffffffffffffffffff167fddf252ad1be2c89b69c2b068fc378daa952ba7f163c4a11628f55a4df523b3ef87604051611e959190612981565b60405180910390a3505050505050565b7f52316ab8e8b0687ce803e403dfe429541bccd4f6c4683ec65d254d382f15a26560405160405180910390a150505050565b600080823b905060008111915050919050565b6000611efd611ef884612a21565b6129fc565b905082815260208101848484011115611f1557600080fd5b611f20848285612bac565b509392505050565b600081359050611f378161316a565b92915050565b600081519050611f4c8161316a565b92915050565b600081359050611f6181613181565b92915050565b600082601f830112611f7857600080fd5b8135611f88848260208601611eea565b91505092915050565b600081359050611fa081613198565b92915050565b600060208284031215611fb857600080fd5b6000611fc684828501611f28565b91505092915050565b600060208284031215611fe157600080fd5b6000611fef84828501611f3d565b91505092915050565b6000806040838503121561200b57600080fd5b600061201985828601611f28565b925050602061202a85828601611f28565b9150509250929050565b60008060006060848603121561204957600080fd5b600061205786828701611f28565b935050602061206886828701611f28565b925050604061207986828701611f91565b9150509250925092565b600080600080600060a0868803121561209b57600080fd5b60006120a988828901611f28565b95505060206120ba88828901611f28565b94505060406120cb88828901611f91565b935050606086013567ffffffffffffffff8111156120e857600080fd5b6120f488828901611f67565b925050608086013567ffffffffffffffff81111561211157600080fd5b61211d88828901611f67565b9150509295509295909350565b6000806040838503121561213d57600080fd5b600061214b85828601611f28565b925050602061215c85828601611f91565b9150509250929050565b60008060006060848603121561217b57600080fd5b600061218986828701611f28565b935050602061219a86828701611f91565b925050604084013567ffffffffffffffff8111156121b757600080fd5b6121c386828701611f67565b9150509250925092565b600080600080608085870312156121e357600080fd5b60006121f187828801611f28565b945050602061220287828801611f91565b935050604085013567ffffffffffffffff81111561221f57600080fd5b61222b87828801611f67565b925050606085013567ffffffffffffffff81111561224857600080fd5b61225487828801611f67565b91505092959194509250565b600080600080600060a0868803121561227857600080fd5b600061228688828901611f28565b955050602061229788828901611f91565b945050604086013567ffffffffffffffff8111156122b457600080fd5b6122c088828901611f67565b935050606086013567ffffffffffffffff8111156122dd57600080fd5b6122e988828901611f67565b92505060806122fa88828901611f52565b9150509295509295909350565b6000806040838503121561231a57600080fd5b600061232885828601611f91565b925050602083013567ffffffffffffffff81111561234557600080fd5b61235185828601611f67565b9150509250929050565b60006123678383612373565b60208301905092915050565b61237c81612b4d565b82525050565b61238b81612b4d565b82525050565b600061239c82612a62565b6123a68185612a90565b93506123b183612a52565b8060005b838110156123e25781516123c9888261235b565b97506123d483612a83565b9250506001810190506123b5565b5085935050505092915050565b6123f881612b5f565b82525050565b61240781612b6b565b82525050565b600061241882612a6d565b6124228185612aa1565b9350612432818560208601612bbb565b61243b81612cde565b840191505092915050565b600061245182612a78565b61245b8185612ab2565b935061246b818560208601612bbb565b61247481612cde565b840191505092915050565b600061248c602583612ab2565b915061249782612cef565b604082019050919050565b60006124af602283612ab2565b91506124ba82612d3e565b604082019050919050565b60006124d2602783612ab2565b91506124dd82612d8d565b604082019050919050565b60006124f5602283612ab2565b915061250082612ddc565b604082019050919050565b6000612518602483612ab2565b915061252382612e2b565b604082019050919050565b600061253b602183612ab2565b915061254682612e7a565b604082019050919050565b600061255e602083612ab2565b915061256982612ec9565b602082019050919050565b6000612581604d83612ab2565b915061258c82612ef2565b606082019050919050565b60006125a4602483612ab2565b91506125af82612f67565b604082019050919050565b60006125c7602c83612ab2565b91506125d282612fb6565b604082019050919050565b60006125ea602983612ab2565b91506125f582613005565b604082019050919050565b600061260d602683612ab2565b915061261882613054565b604082019050919050565b6000612630602383612ab2565b915061263b826130a3565b604082019050919050565b6000612653602083612ab2565b915061265e826130f2565b602082019050919050565b6000612676602383612ab2565b91506126818261311b565b604082019050919050565b61269581612b95565b82525050565b6126a481612b9f565b82525050565b600060c0820190506126bf6000830189612382565b6126cc6020830188612382565b6126d96040830187612382565b6126e6606083018661268c565b81810360808301526126f8818561240d565b905081810360a083015261270c818461240d565b9050979650505050505050565b600060408201905061272e6000830185612382565b61273b60208301846123fe565b9392505050565b6000602082019050818103600083015261275c8184612391565b905092915050565b600060208201905061277960008301846123ef565b92915050565b600060208201905081810360008301526127998184612446565b905092915050565b600060208201905081810360008301526127ba8161247f565b9050919050565b600060208201905081810360008301526127da816124a2565b9050919050565b600060208201905081810360008301526127fa816124c5565b9050919050565b6000602082019050818103600083015261281a816124e8565b9050919050565b6000602082019050818103600083015261283a8161250b565b9050919050565b6000602082019050818103600083015261285a8161252e565b9050919050565b6000602082019050818103600083015261287a81612551565b9050919050565b6000602082019050818103600083015261289a81612574565b9050919050565b600060208201905081810360008301526128ba81612597565b9050919050565b600060208201905081810360008301526128da816125ba565b9050919050565b600060208201905081810360008301526128fa816125dd565b9050919050565b6000602082019050818103600083015261291a81612600565b9050919050565b6000602082019050818103600083015261293a81612623565b9050919050565b6000602082019050818103600083015261295a81612646565b9050919050565b6000602082019050818103600083015261297a81612669565b9050919050565b6000602082019050612996600083018461268c565b92915050565b60006060820190506129b1600083018661268c565b81810360208301526129c3818561240d565b905081810360408301526129d7818461240d565b9050949350505050565b60006020820190506129f6600083018461269b565b92915050565b6000612a06612a17565b9050612a128282612c20565b919050565b6000604051905090565b600067ffffffffffffffff821115612a3c57612a3b612caf565b5b612a4582612cde565b9050602081019050919050565b6000819050602082019050919050565b600081519050919050565b600081519050919050565b600081519050919050565b6000602082019050919050565b600082825260208201905092915050565b600082825260208201905092915050565b600082825260208201905092915050565b6000612ace82612b95565b9150612ad983612b95565b9250827fffffffffffffffffffffffffffffffffffffffffffffffffffffffffffffffff03821115612b0e57612b0d612c51565b5b828201905092915050565b6000612b2482612b95565b9150612b2f83612b95565b925082821015612b4257612b41612c51565b5b828203905092915050565b6000612b5882612b75565b9050919050565b60008115159050919050565b6000819050919050565b600073ffffffffffffffffffffffffffffffffffffffff82169050919050565b6000819050919050565b600060ff82169050919050565b82818337600083830152505050565b60005b83811015612bd9578082015181840152602081019050612bbe565b83811115612be8576000848401525b50505050565b60006002820490506001821680612c0657607f821691505b60208210811415612c1a57612c19612c80565b5b50919050565b612c2982612cde565b810181811067ffffffffffffffff82111715612c4857612c47612caf565b5b80604052505050565b7f4e487b7100000000000000000000000000000000000000000000000000000000600052601160045260246000fd5b7f4e487b7100000000000000000000000000000000000000000000000000000000600052602260045260246000fd5b7f4e487b7100000000000000000000000000000000000000000000000000000000600052604160045260246000fd5b6000601f19601f8301169050919050565b7f4552433737373a20617070726f76652066726f6d20746865207a65726f20616460008201527f6472657373000000000000000000000000000000000000000000000000000000602082015250565b7f4552433737373a2073656e642066726f6d20746865207a65726f20616464726560008201527f7373000000000000000000000000000000000000000000000000000000000000602082015250565b7f4552433737373a207472616e7366657220616d6f756e7420657863656564732060008201527f62616c616e636500000000000000000000000000000000000000000000000000602082015250565b7f4552433737373a206275726e2066726f6d20746865207a65726f20616464726560008201527f7373000000000000000000000000000000000000000000000000000000000000602082015250565b7f4552433737373a20617574686f72697a696e672073656c66206173206f70657260008201527f61746f7200000000000000000000000000000000000000000000000000000000602082015250565b7f4552433737373a207265766f6b696e672073656c66206173206f70657261746f60008201527f7200000000000000000000000000000000000000000000000000000000000000602082015250565b7f4552433737373a206d696e7420746f20746865207a65726f2061646472657373600082015250565b7f4552433737373a20746f6b656e20726563697069656e7420636f6e747261637460008201527f20686173206e6f20696d706c656d656e74657220666f7220455243373737546f60208201527f6b656e73526563697069656e7400000000000000000000000000000000000000604082015250565b7f4552433737373a207472616e7366657220746f20746865207a65726f2061646460008201527f7265737300000000000000000000000000000000000000000000000000000000602082015250565b7f4552433737373a2063616c6c6572206973206e6f7420616e206f70657261746f60008201527f7220666f7220686f6c6465720000000000000000000000000000000000000000602082015250565b7f4552433737373a207472616e7366657220616d6f756e7420657863656564732060008201527f616c6c6f77616e63650000000000000000000000000000000000000000000000602082015250565b7f4552433737373a207472616e736665722066726f6d20746865207a65726f206160008201527f6464726573730000000000000000000000000000000000000000000000000000602082015250565b7f4552433737373a206275726e20616d6f756e7420657863656564732062616c6160008201527f6e63650000000000000000000000000000000000000000000000000000000000602082015250565b7f4552433737373a2073656e6420746f20746865207a65726f2061646472657373600082015250565b7f4552433737373a20617070726f766520746f20746865207a65726f206164647260008201527f6573730000000000000000000000000000000000000000000000000000000000602082015250565b61317381612b4d565b811461317e57600080fd5b50565b61318a81612b5f565b811461319557600080fd5b50565b6131a181612b95565b81146131ac57600080fd5b5056fea26469706673582212201657bb4788f76c24af244965b4f792b691012b33df06dba62d954e4dd780096364736f6c63430008040033",
  "linkReferences": {},
  "deployedLinkReferences": {}
}