{
  "_format": "hh-sol-artifact-1",
  "contractName": "InitializableMock",
  "sourceName": "contracts/src/OpenZeppelin/mocks/InitializableMock.sol",
  "abi": [
    {
      "inputs": [],
      "name": "fail",
      "outputs": [],
      "stateMutability": "pure",
      "type": "function"
    },
    {
      "inputs": [],
      "name": "initialize",
      "outputs": [],
      "stateMutability": "nonpayable",
      "type": "function"
    },
    {
      "inputs": [],
      "name": "initializeNested",
      "outputs": [],
      "stateMutability": "nonpayable",
      "type": "function"
    },
    {
      "inputs": [
        {
          "internalType": "uint256",
          "name": "_x",
          "type": "uint256"
        }
      ],
      "name": "initializeWithX",
      "outputs": [],
      "stateMutability": "payable",
      "type": "function"
    },
    {
      "inputs": [],
      "name": "initializerRan",
      "outputs": [
        {
          "internalType": "bool",
          "name": "",
          "type": "bool"
        }
      ],
      "stateMutability": "view",
      "type": "function"
    },
    {
      "inputs": [
        {
          "internalType": "uint256",
          "name": "_x",
          "type": "uint256"
        }
      ],
      "name": "nonInitializable",
      "outputs": [],
      "stateMutability": "payable",
      "type": "function"
    },
    {
      "inputs": [],
      "name": "x",
      "outputs": [
        {
          "internalType": "uint256",
          "name": "",
          "type": "uint256"
        }
      ],
      "stateMutability": "view",
      "type": "function"
    }
  ],
  "bytecode": "0x608060405234801561001057600080fd5b506106b8806100206000396000f3fe60806040526004361061006f5760003560e01c8063a9cc47181161004e578063a9cc4718146100d2578063c3b8ef2a146100e9578063cb3a528d14610114578063e955c9ec1461012b5761006f565b806218eaa8146100745780630c55699c146100905780638129fc1c146100bb575b600080fd5b61008e600480360381019061008991906104c9565b610147565b005b34801561009c57600080fd5b506100a5610237565b6040516100b291906105b1565b60405180910390f35b3480156100c757600080fd5b506100d061023d565b005b3480156100de57600080fd5b506100e7610340565b005b3480156100f557600080fd5b506100fe610383565b60405161010b9190610556565b60405180910390f35b34801561012057600080fd5b50610129610396565b005b610145600480360381019061014091906104c9565b610486565b005b600060019054906101000a900460ff16806101665750610165610490565b5b8061017c575060008054906101000a900460ff16155b6101bb576040517f08c379a00000000000000000000000000000000000000000000000000000000081526004016101b290610591565b60405180910390fd5b60008060019054906101000a900460ff16159050801561020b576001600060016101000a81548160ff02191690831515021790555060016000806101000a81548160ff0219169083151502179055505b8160018190555080156102335760008060016101000a81548160ff0219169083151502179055505b5050565b60015481565b600060019054906101000a900460ff168061025c575061025b610490565b5b80610272575060008054906101000a900460ff16155b6102b1576040517f08c379a00000000000000000000000000000000000000000000000000000000081526004016102a890610591565b60405180910390fd5b60008060019054906101000a900460ff161590508015610301576001600060016101000a81548160ff02191690831515021790555060016000806101000a81548160ff0219169083151502179055505b6001600060026101000a81548160ff021916908315150217905550801561033d5760008060016101000a81548160ff0219169083151502179055505b50565b6000610381576040517f08c379a000000000000000000000000000000000000000000000000000000000815260040161037890610571565b60405180910390fd5b565b600060029054906101000a900460ff1681565b600060019054906101000a900460ff16806103b557506103b4610490565b5b806103cb575060008054906101000a900460ff16155b61040a576040517f08c379a000000000000000000000000000000000000000000000000000000000815260040161040190610591565b60405180910390fd5b60008060019054906101000a900460ff16159050801561045a576001600060016101000a81548160ff02191690831515021790555060016000806101000a81548160ff0219169083151502179055505b61046261023d565b80156104835760008060016101000a81548160ff0219169083151502179055505b50565b8060018190555050565b600061049b306104a1565b15905090565b600080823b905060008111915050919050565b6000813590506104c38161066b565b92915050565b6000602082840312156104db57600080fd5b60006104e9848285016104b4565b91505092915050565b6104fb816105dd565b82525050565b600061050e6020836105cc565b9150610519826105f3565b602082019050919050565b6000610531602e836105cc565b915061053c8261061c565b604082019050919050565b610550816105e9565b82525050565b600060208201905061056b60008301846104f2565b92915050565b6000602082019050818103600083015261058a81610501565b9050919050565b600060208201905081810360008301526105aa81610524565b9050919050565b60006020820190506105c66000830184610547565b92915050565b600082825260208201905092915050565b60008115159050919050565b6000819050919050565b7f496e697469616c697a61626c654d6f636b20666f72636564206661696c757265600082015250565b7f496e697469616c697a61626c653a20636f6e747261637420697320616c72656160008201527f647920696e697469616c697a6564000000000000000000000000000000000000602082015250565b610674816105e9565b811461067f57600080fd5b5056fea264697066735822122066184fbb4b95c8ba45b61c89fe48872a0ae67e0b666f861bd85799fa4a6a9cfa64736f6c63430008040033",
  "linkReferences": {},
  "deployedLinkReferences": {}
}