{
  "_format": "hh-sol-artifact-1",
  "contractName": "MigratableMockV3",
  "sourceName": "contracts/src/OpenZeppelin/mocks/SingleInheritanceInitializableMocks.sol",
  "abi": [
    {
      "inputs": [
        {
          "internalType": "uint256",
          "name": "value",
          "type": "uint256"
        }
      ],
      "name": "initialize",
      "outputs": [],
      "stateMutability": "payable",
      "type": "function"
    },
    {
      "inputs": [
        {
          "internalType": "uint256",
          "name": "value",
          "type": "uint256"
        },
        {
          "internalType": "uint256",
          "name": "anotherValue",
          "type": "uint256"
        }
      ],
      "name": "migrate",
      "outputs": [],
      "stateMutability": "payable",
      "type": "function"
    },
    {
      "inputs": [],
      "name": "migrate",
      "outputs": [],
      "stateMutability": "payable",
      "type": "function"
    },
    {
      "inputs": [],
      "name": "x",
      "outputs": [
        {
          "internalType": "uint256",
          "name": "",
          "type": "uint256"
        }
      ],
      "stateMutability": "view",
      "type": "function"
    },
    {
      "inputs": [],
      "name": "y",
      "outputs": [
        {
          "internalType": "uint256",
          "name": "",
          "type": "uint256"
        }
      ],
      "stateMutability": "view",
      "type": "function"
    }
  ],
  "bytecode": "0x608060405234801561001057600080fd5b5061043b806100206000396000f3fe60806040526004361061004a5760003560e01c80630c55699c1461004f5780633e54bacb1461007a5780638fd3ab8014610096578063a56dfe4a146100a0578063fe4b84df146100cb575b600080fd5b34801561005b57600080fd5b506100646100e7565b6040516100719190610369565b60405180910390f35b610094600480360381019061008f91906102db565b6100ed565b005b61009e610134565b005b3480156100ac57600080fd5b506100b5610183565b6040516100c29190610369565b60405180910390f35b6100e560048036038101906100e091906102b2565b610189565b005b60015481565b600260009054906101000a900460ff161561010757600080fd5b81600181905550806003819055506001600260006101000a81548160ff0219169083151502179055505050565b600460009054906101000a900460ff161561014e57600080fd5b60006001549050600354600181905550806003819055506001600460006101000a81548160ff02191690831515021790555050565b60035481565b600060019054906101000a900460ff16806101a857506101a7610279565b5b806101be575060008054906101000a900460ff16155b6101fd576040517f08c379a00000000000000000000000000000000000000000000000000000000081526004016101f490610349565b60405180910390fd5b60008060019054906101000a900460ff16159050801561024d576001600060016101000a81548160ff02191690831515021790555060016000806101000a81548160ff0219169083151502179055505b8160018190555080156102755760008060016101000a81548160ff0219169083151502179055505b5050565b60006102843061028a565b15905090565b600080823b905060008111915050919050565b6000813590506102ac816103ee565b92915050565b6000602082840312156102c457600080fd5b60006102d28482850161029d565b91505092915050565b600080604083850312156102ee57600080fd5b60006102fc8582860161029d565b925050602061030d8582860161029d565b9150509250929050565b6000610324602e83610384565b915061032f8261039f565b604082019050919050565b61034381610395565b82525050565b6000602082019050818103600083015261036281610317565b9050919050565b600060208201905061037e600083018461033a565b92915050565b600082825260208201905092915050565b6000819050919050565b7f496e697469616c697a61626c653a20636f6e747261637420697320616c72656160008201527f647920696e697469616c697a6564000000000000000000000000000000000000602082015250565b6103f781610395565b811461040257600080fd5b5056fea26469706673582212201e32116853ef585eef7516c930a5bd2aeadea74d5b44b7a09417a62d8a2ed5d764736f6c63430008040033",
  "linkReferences": {},
  "deployedLinkReferences": {}
}