{
  "_format": "hh-sol-artifact-1",
  "contractName": "AccessControlMockUpgradeable",
  "sourceName": "contracts/src/OpenZeppelin/upgradeable/mocks/AccessControlMockUpgradeable.sol",
  "abi": [
    {
      "anonymous": false,
      "inputs": [
        {
          "indexed": true,
          "internalType": "bytes32",
          "name": "role",
          "type": "bytes32"
        },
        {
          "indexed": true,
          "internalType": "bytes32",
          "name": "previousAdminRole",
          "type": "bytes32"
        },
        {
          "indexed": true,
          "internalType": "bytes32",
          "name": "newAdminRole",
          "type": "bytes32"
        }
      ],
      "name": "RoleAdminChanged",
      "type": "event"
    },
    {
      "anonymous": false,
      "inputs": [
        {
          "indexed": true,
          "internalType": "bytes32",
          "name": "role",
          "type": "bytes32"
        },
        {
          "indexed": true,
          "internalType": "address",
          "name": "account",
          "type": "address"
        },
        {
          "indexed": true,
          "internalType": "address",
          "name": "sender",
          "type": "address"
        }
      ],
      "name": "RoleGranted",
      "type": "event"
    },
    {
      "anonymous": false,
      "inputs": [
        {
          "indexed": true,
          "internalType": "bytes32",
          "name": "role",
          "type": "bytes32"
        },
        {
          "indexed": true,
          "internalType": "address",
          "name": "account",
          "type": "address"
        },
        {
          "indexed": true,
          "internalType": "address",
          "name": "sender",
          "type": "address"
        }
      ],
      "name": "RoleRevoked",
      "type": "event"
    },
    {
      "inputs": [],
      "name": "DEFAULT_ADMIN_ROLE",
      "outputs": [
        {
          "internalType": "bytes32",
          "name": "",
          "type": "bytes32"
        }
      ],
      "stateMutability": "view",
      "type": "function"
    },
    {
      "inputs": [
        {
          "internalType": "bytes32",
          "name": "role",
          "type": "bytes32"
        }
      ],
      "name": "getRoleAdmin",
      "outputs": [
        {
          "internalType": "bytes32",
          "name": "",
          "type": "bytes32"
        }
      ],
      "stateMutability": "view",
      "type": "function"
    },
    {
      "inputs": [
        {
          "internalType": "bytes32",
          "name": "role",
          "type": "bytes32"
        },
        {
          "internalType": "address",
          "name": "account",
          "type": "address"
        }
      ],
      "name": "grantRole",
      "outputs": [],
      "stateMutability": "nonpayable",
      "type": "function"
    },
    {
      "inputs": [
        {
          "internalType": "bytes32",
          "name": "role",
          "type": "bytes32"
        },
        {
          "internalType": "address",
          "name": "account",
          "type": "address"
        }
      ],
      "name": "hasRole",
      "outputs": [
        {
          "internalType": "bool",
          "name": "",
          "type": "bool"
        }
      ],
      "stateMutability": "view",
      "type": "function"
    },
    {
      "inputs": [
        {
          "internalType": "bytes32",
          "name": "role",
          "type": "bytes32"
        },
        {
          "internalType": "address",
          "name": "account",
          "type": "address"
        }
      ],
      "name": "renounceRole",
      "outputs": [],
      "stateMutability": "nonpayable",
      "type": "function"
    },
    {
      "inputs": [
        {
          "internalType": "bytes32",
          "name": "role",
          "type": "bytes32"
        },
        {
          "internalType": "address",
          "name": "account",
          "type": "address"
        }
      ],
      "name": "revokeRole",
      "outputs": [],
      "stateMutability": "nonpayable",
      "type": "function"
    },
    {
      "inputs": [
        {
          "internalType": "bytes32",
          "name": "roleId",
          "type": "bytes32"
        }
      ],
      "name": "senderProtected",
      "outputs": [],
      "stateMutability": "nonpayable",
      "type": "function"
    },
    {
      "inputs": [
        {
          "internalType": "bytes32",
          "name": "roleId",
          "type": "bytes32"
        },
        {
          "internalType": "bytes32",
          "name": "adminRoleId",
          "type": "bytes32"
        }
      ],
      "name": "setRoleAdmin",
      "outputs": [],
      "stateMutability": "nonpayable",
      "type": "function"
    },
    {
      "inputs": [
        {
          "internalType": "bytes4",
          "name": "interfaceId",
          "type": "bytes4"
        }
      ],
      "name": "supportsInterface",
      "outputs": [
        {
          "internalType": "bool",
          "name": "",
          "type": "bool"
        }
      ],
      "stateMutability": "view",
      "type": "function"
    }
  ],
  "bytecode": "0x608060405234801561001057600080fd5b50611025806100206000396000f3fe608060405234801561001057600080fd5b50600436106100935760003560e01c806336568abe1161006657806336568abe146101305780634b9304a41461014c57806391d1485414610168578063a217fddf14610198578063d547741f146101b657610093565b806301ffc9a7146100985780631e4e0091146100c8578063248a9ca3146100e45780632f2ff15d14610114575b600080fd5b6100b260048036038101906100ad9190610adf565b6101d2565b6040516100bf9190610c56565b60405180910390f35b6100e260048036038101906100dd9190610aa3565b61024c565b005b6100fe60048036038101906100f99190610a3e565b61025a565b60405161010b9190610c71565b60405180910390f35b61012e60048036038101906101299190610a67565b61027a565b005b61014a60048036038101906101459190610a67565b6102a3565b005b61016660048036038101906101619190610a3e565b610326565b005b610182600480360381019061017d9190610a67565b61033c565b60405161018f9190610c56565b60405180910390f35b6101a06103a7565b6040516101ad9190610c71565b60405180910390f35b6101d060048036038101906101cb9190610a67565b6103ae565b005b60007f7965db0b000000000000000000000000000000000000000000000000000000007bffffffffffffffffffffffffffffffffffffffffffffffffffffffff1916827bffffffffffffffffffffffffffffffffffffffffffffffffffffffff191614806102455750610244826103d7565b5b9050919050565b6102568282610441565b5050565b600060656000838152602001908152602001600020600101549050919050565b6102838261025a565b6102948161028f61049d565b6104a5565b61029e8383610542565b505050565b6102ab61049d565b73ffffffffffffffffffffffffffffffffffffffff168173ffffffffffffffffffffffffffffffffffffffff1614610318576040517f08c379a000000000000000000000000000000000000000000000000000000000815260040161030f90610cce565b60405180910390fd5b6103228282610623565b5050565b806103388161033361049d565b6104a5565b5050565b60006065600084815260200190815260200160002060000160008373ffffffffffffffffffffffffffffffffffffffff1673ffffffffffffffffffffffffffffffffffffffff16815260200190815260200160002060009054906101000a900460ff16905092915050565b6000801b81565b6103b78261025a565b6103c8816103c361049d565b6104a5565b6103d28383610623565b505050565b60007f01ffc9a7000000000000000000000000000000000000000000000000000000007bffffffffffffffffffffffffffffffffffffffffffffffffffffffff1916827bffffffffffffffffffffffffffffffffffffffffffffffffffffffff1916149050919050565b600061044c8361025a565b90508160656000858152602001908152602001600020600101819055508181847fbd79b86ffe0ab8e8776151514217cd7cacd52c909f66475c3af44e129f0b00ff60405160405180910390a4505050565b600033905090565b6104af828261033c565b61053e576104d48173ffffffffffffffffffffffffffffffffffffffff166014610705565b6104e28360001c6020610705565b6040516020016104f3929190610c1c565b6040516020818303038152906040526040517f08c379a00000000000000000000000000000000000000000000000000000000081526004016105359190610c8c565b60405180910390fd5b5050565b61054c828261033c565b61061f5760016065600084815260200190815260200160002060000160008373ffffffffffffffffffffffffffffffffffffffff1673ffffffffffffffffffffffffffffffffffffffff16815260200190815260200160002060006101000a81548160ff0219169083151502179055506105c461049d565b73ffffffffffffffffffffffffffffffffffffffff168173ffffffffffffffffffffffffffffffffffffffff16837f2f8788117e7eff1d82e926ec794901d17c78024a50270940304540a733656f0d60405160405180910390a45b5050565b61062d828261033c565b156107015760006065600084815260200190815260200160002060000160008373ffffffffffffffffffffffffffffffffffffffff1673ffffffffffffffffffffffffffffffffffffffff16815260200190815260200160002060006101000a81548160ff0219169083151502179055506106a661049d565b73ffffffffffffffffffffffffffffffffffffffff168173ffffffffffffffffffffffffffffffffffffffff16837ff6391f5c32d9c69d2a47ea670b442974b53935d1edc7fd64eb21e047a839171b60405160405180910390a45b5050565b6060600060028360026107189190610d6b565b6107229190610d15565b67ffffffffffffffff811115610761577f4e487b7100000000000000000000000000000000000000000000000000000000600052604160045260246000fd5b6040519080825280601f01601f1916602001820160405280156107935781602001600182028036833780820191505090505b5090507f3000000000000000000000000000000000000000000000000000000000000000816000815181106107f1577f4e487b7100000000000000000000000000000000000000000000000000000000600052603260045260246000fd5b60200101907effffffffffffffffffffffffffffffffffffffffffffffffffffffffffffff1916908160001a9053507f78000000000000000000000000000000000000000000000000000000000000008160018151811061087b577f4e487b7100000000000000000000000000000000000000000000000000000000600052603260045260246000fd5b60200101907effffffffffffffffffffffffffffffffffffffffffffffffffffffffffffff1916908160001a905350600060018460026108bb9190610d6b565b6108c59190610d15565b90505b60018111156109b1577f3031323334353637383961626364656600000000000000000000000000000000600f86166010811061092d577f4e487b7100000000000000000000000000000000000000000000000000000000600052603260045260246000fd5b1a60f81b82828151811061096a577f4e487b7100000000000000000000000000000000000000000000000000000000600052603260045260246000fd5b60200101907effffffffffffffffffffffffffffffffffffffffffffffffffffffffffffff1916908160001a905350600485901c9450806109aa90610e76565b90506108c8565b50600084146109f5576040517f08c379a00000000000000000000000000000000000000000000000000000000081526004016109ec90610cae565b60405180910390fd5b8091505092915050565b600081359050610a0e81610faa565b92915050565b600081359050610a2381610fc1565b92915050565b600081359050610a3881610fd8565b92915050565b600060208284031215610a5057600080fd5b6000610a5e84828501610a14565b91505092915050565b60008060408385031215610a7a57600080fd5b6000610a8885828601610a14565b9250506020610a99858286016109ff565b9150509250929050565b60008060408385031215610ab657600080fd5b6000610ac485828601610a14565b9250506020610ad585828601610a14565b9150509250929050565b600060208284031215610af157600080fd5b6000610aff84828501610a29565b91505092915050565b610b1181610dd7565b82525050565b610b2081610de3565b82525050565b6000610b3182610cee565b610b3b8185610cf9565b9350610b4b818560208601610e43565b610b5481610ecf565b840191505092915050565b6000610b6a82610cee565b610b748185610d0a565b9350610b84818560208601610e43565b80840191505092915050565b6000610b9d602083610cf9565b9150610ba882610ee0565b602082019050919050565b6000610bc0601783610d0a565b9150610bcb82610f09565b601782019050919050565b6000610be3601183610d0a565b9150610bee82610f32565b601182019050919050565b6000610c06602f83610cf9565b9150610c1182610f5b565b604082019050919050565b6000610c2782610bb3565b9150610c338285610b5f565b9150610c3e82610bd6565b9150610c4a8284610b5f565b91508190509392505050565b6000602082019050610c6b6000830184610b08565b92915050565b6000602082019050610c866000830184610b17565b92915050565b60006020820190508181036000830152610ca68184610b26565b905092915050565b60006020820190508181036000830152610cc781610b90565b9050919050565b60006020820190508181036000830152610ce781610bf9565b9050919050565b600081519050919050565b600082825260208201905092915050565b600081905092915050565b6000610d2082610e39565b9150610d2b83610e39565b9250827fffffffffffffffffffffffffffffffffffffffffffffffffffffffffffffffff03821115610d6057610d5f610ea0565b5b828201905092915050565b6000610d7682610e39565b9150610d8183610e39565b9250817fffffffffffffffffffffffffffffffffffffffffffffffffffffffffffffffff0483118215151615610dba57610db9610ea0565b5b828202905092915050565b6000610dd082610e19565b9050919050565b60008115159050919050565b6000819050919050565b60007fffffffff0000000000000000000000000000000000000000000000000000000082169050919050565b600073ffffffffffffffffffffffffffffffffffffffff82169050919050565b6000819050919050565b60005b83811015610e61578082015181840152602081019050610e46565b83811115610e70576000848401525b50505050565b6000610e8182610e39565b91506000821415610e9557610e94610ea0565b5b600182039050919050565b7f4e487b7100000000000000000000000000000000000000000000000000000000600052601160045260246000fd5b6000601f19601f8301169050919050565b7f537472696e67733a20686578206c656e67746820696e73756666696369656e74600082015250565b7f416363657373436f6e74726f6c3a206163636f756e7420000000000000000000600082015250565b7f206973206d697373696e6720726f6c6520000000000000000000000000000000600082015250565b7f416363657373436f6e74726f6c3a2063616e206f6e6c792072656e6f756e636560008201527f20726f6c657320666f722073656c660000000000000000000000000000000000602082015250565b610fb381610dc5565b8114610fbe57600080fd5b50565b610fca81610de3565b8114610fd557600080fd5b50565b610fe181610ded565b8114610fec57600080fd5b5056fea2646970667358221220ec9adb0836a9e5bb17bcfea1eff86d7ef6fd5238d0313f48a6d309450f0c248164736f6c63430008040033",
  "linkReferences": {},
  "deployedLinkReferences": {}
}