{
  "_format": "hh-sol-artifact-1",
  "contractName": "TestERC721",
  "sourceName": "contracts/src/test/TestERC721.sol",
  "abi": [
    {
      "inputs": [],
      "stateMutability": "nonpayable",
      "type": "constructor"
    },
    {
      "anonymous": false,
      "inputs": [
        {
          "indexed": true,
          "internalType": "address",
          "name": "owner",
          "type": "address"
        },
        {
          "indexed": true,
          "internalType": "address",
          "name": "approved",
          "type": "address"
        },
        {
          "indexed": true,
          "internalType": "uint256",
          "name": "tokenId",
          "type": "uint256"
        }
      ],
      "name": "Approval",
      "type": "event"
    },
    {
      "anonymous": false,
      "inputs": [
        {
          "indexed": true,
          "internalType": "address",
          "name": "owner",
          "type": "address"
        },
        {
          "indexed": true,
          "internalType": "address",
          "name": "operator",
          "type": "address"
        },
        {
          "indexed": false,
          "internalType": "bool",
          "name": "approved",
          "type": "bool"
        }
      ],
      "name": "ApprovalForAll",
      "type": "event"
    },
    {
      "anonymous": false,
      "inputs": [
        {
          "indexed": true,
          "internalType": "address",
          "name": "from",
          "type": "address"
        },
        {
          "indexed": true,
          "internalType": "address",
          "name": "to",
          "type": "address"
        },
        {
          "indexed": true,
          "internalType": "uint256",
          "name": "tokenId",
          "type": "uint256"
        }
      ],
      "name": "Transfer",
      "type": "event"
    },
    {
      "inputs": [
        {
          "internalType": "address",
          "name": "to",
          "type": "address"
        },
        {
          "internalType": "uint256",
          "name": "tokenId",
          "type": "uint256"
        }
      ],
      "name": "approve",
      "outputs": [],
      "stateMutability": "nonpayable",
      "type": "function"
    },
    {
      "inputs": [
        {
          "internalType": "address",
          "name": "owner",
          "type": "address"
        }
      ],
      "name": "balanceOf",
      "outputs": [
        {
          "internalType": "uint256",
          "name": "",
          "type": "uint256"
        }
      ],
      "stateMutability": "view",
      "type": "function"
    },
    {
      "inputs": [],
      "name": "baseURI",
      "outputs": [
        {
          "internalType": "string",
          "name": "",
          "type": "string"
        }
      ],
      "stateMutability": "view",
      "type": "function"
    },
    {
      "inputs": [
        {
          "internalType": "uint256",
          "name": "tokenId",
          "type": "uint256"
        }
      ],
      "name": "getApproved",
      "outputs": [
        {
          "internalType": "address",
          "name": "",
          "type": "address"
        }
      ],
      "stateMutability": "view",
      "type": "function"
    },
    {
      "inputs": [
        {
          "internalType": "address",
          "name": "owner",
          "type": "address"
        },
        {
          "internalType": "address",
          "name": "operator",
          "type": "address"
        }
      ],
      "name": "isApprovedForAll",
      "outputs": [
        {
          "internalType": "bool",
          "name": "",
          "type": "bool"
        }
      ],
      "stateMutability": "view",
      "type": "function"
    },
    {
      "inputs": [
        {
          "internalType": "address",
          "name": "_to",
          "type": "address"
        },
        {
          "internalType": "uint256",
          "name": "_id",
          "type": "uint256"
        }
      ],
      "name": "mint",
      "outputs": [],
      "stateMutability": "nonpayable",
      "type": "function"
    },
    {
      "inputs": [],
      "name": "name",
      "outputs": [
        {
          "internalType": "string",
          "name": "",
          "type": "string"
        }
      ],
      "stateMutability": "view",
      "type": "function"
    },
    {
      "inputs": [
        {
          "internalType": "uint256",
          "name": "tokenId",
          "type": "uint256"
        }
      ],
      "name": "ownerOf",
      "outputs": [
        {
          "internalType": "address",
          "name": "",
          "type": "address"
        }
      ],
      "stateMutability": "view",
      "type": "function"
    },
    {
      "inputs": [
        {
          "internalType": "address",
          "name": "from",
          "type": "address"
        },
        {
          "internalType": "address",
          "name": "to",
          "type": "address"
        },
        {
          "internalType": "uint256",
          "name": "tokenId",
          "type": "uint256"
        }
      ],
      "name": "safeTransferFrom",
      "outputs": [],
      "stateMutability": "nonpayable",
      "type": "function"
    },
    {
      "inputs": [
        {
          "internalType": "address",
          "name": "from",
          "type": "address"
        },
        {
          "internalType": "address",
          "name": "to",
          "type": "address"
        },
        {
          "internalType": "uint256",
          "name": "tokenId",
          "type": "uint256"
        },
        {
          "internalType": "bytes",
          "name": "_data",
          "type": "bytes"
        }
      ],
      "name": "safeTransferFrom",
      "outputs": [],
      "stateMutability": "nonpayable",
      "type": "function"
    },
    {
      "inputs": [
        {
          "internalType": "address",
          "name": "operator",
          "type": "address"
        },
        {
          "internalType": "bool",
          "name": "approved",
          "type": "bool"
        }
      ],
      "name": "setApprovalForAll",
      "outputs": [],
      "stateMutability": "nonpayable",
      "type": "function"
    },
    {
      "inputs": [
        {
          "internalType": "bytes4",
          "name": "interfaceId",
          "type": "bytes4"
        }
      ],
      "name": "supportsInterface",
      "outputs": [
        {
          "internalType": "bool",
          "name": "",
          "type": "bool"
        }
      ],
      "stateMutability": "view",
      "type": "function"
    },
    {
      "inputs": [],
      "name": "symbol",
      "outputs": [
        {
          "internalType": "string",
          "name": "",
          "type": "string"
        }
      ],
      "stateMutability": "view",
      "type": "function"
    },
    {
      "inputs": [
        {
          "internalType": "uint256",
          "name": "index",
          "type": "uint256"
        }
      ],
      "name": "tokenByIndex",
      "outputs": [
        {
          "internalType": "uint256",
          "name": "",
          "type": "uint256"
        }
      ],
      "stateMutability": "view",
      "type": "function"
    },
    {
      "inputs": [
        {
          "internalType": "address",
          "name": "owner",
          "type": "address"
        },
        {
          "internalType": "uint256",
          "name": "index",
          "type": "uint256"
        }
      ],
      "name": "tokenOfOwnerByIndex",
      "outputs": [
        {
          "internalType": "uint256",
          "name": "",
          "type": "uint256"
        }
      ],
      "stateMutability": "view",
      "type": "function"
    },
    {
      "inputs": [
        {
          "internalType": "uint256",
          "name": "tokenId",
          "type": "uint256"
        }
      ],
      "name": "tokenURI",
      "outputs": [
        {
          "internalType": "string",
          "name": "",
          "type": "string"
        }
      ],
      "stateMutability": "view",
      "type": "function"
    },
    {
      "inputs": [],
      "name": "totalSupply",
      "outputs": [
        {
          "internalType": "uint256",
          "name": "",
          "type": "uint256"
        }
      ],
      "stateMutability": "view",
      "type": "function"
    },
    {
      "inputs": [
        {
          "internalType": "address",
          "name": "from",
          "type": "address"
        },
        {
          "internalType": "address",
          "name": "to",
          "type": "address"
        },
        {
          "internalType": "uint256",
          "name": "tokenId",
          "type": "uint256"
        }
      ],
      "name": "transferFrom",
      "outputs": [],
      "stateMutability": "nonpayable",
      "type": "function"
    }
  ],
  "bytecode": "0x60806040523480156200001157600080fd5b506040518060400160405280600881526020017f546573744e616d650000000000000000000000000000000000000000000000008152506040518060400160405280600481526020017f5445535400000000000000000000000000000000000000000000000000000000815250620000af7f01ffc9a7000000000000000000000000000000000000000000000000000000006200017c60201b60201c565b8160069080519060200190620000c792919062000254565b508060079080519060200190620000e092919062000254565b50620001127f80ac58cd000000000000000000000000000000000000000000000000000000006200017c60201b60201c565b620001437f5b5e139f000000000000000000000000000000000000000000000000000000006200017c60201b60201c565b620001747f780e9d63000000000000000000000000000000000000000000000000000000006200017c60201b60201c565b5050620003ec565b63ffffffff60e01b817bffffffffffffffffffffffffffffffffffffffffffffffffffffffff19161415620001e8576040517f08c379a0000000000000000000000000000000000000000000000000000000008152600401620001df906200032b565b60405180910390fd5b6001600080837bffffffffffffffffffffffffffffffffffffffffffffffffffffffff19167bffffffffffffffffffffffffffffffffffffffffffffffffffffffff1916815260200190815260200160002060006101000a81548160ff02191690831515021790555050565b82805462000262906200035e565b90600052602060002090601f016020900481019282620002865760008555620002d2565b82601f10620002a157805160ff1916838001178555620002d2565b82800160010185558215620002d2579182015b82811115620002d1578251825591602001919060010190620002b4565b5b509050620002e19190620002e5565b5090565b5b8082111562000300576000816000905550600101620002e6565b5090565b600062000313601c836200034d565b91506200032082620003c3565b602082019050919050565b60006020820190508181036000830152620003468162000304565b9050919050565b600082825260208201905092915050565b600060028204905060018216806200037757607f821691505b602082108114156200038e576200038d62000394565b5b50919050565b7f4e487b7100000000000000000000000000000000000000000000000000000000600052602260045260246000fd5b7f4552433136353a20696e76616c696420696e7465726661636520696400000000600082015250565b612e5380620003fc6000396000f3fe608060405234801561001057600080fd5b50600436106101165760003560e01c80634f6ccce7116100a257806395d89b411161007157806395d89b4114610305578063a22cb46514610323578063b88d4fde1461033f578063c87b56dd1461035b578063e985e9c51461038b57610116565b80634f6ccce7146102575780636352211e146102875780636c0360eb146102b757806370a08231146102d557610116565b806318160ddd116100e957806318160ddd146101b557806323b872dd146101d35780632f745c59146101ef57806340c10f191461021f57806342842e0e1461023b57610116565b806301ffc9a71461011b57806306fdde031461014b578063081812fc14610169578063095ea7b314610199575b600080fd5b61013560048036038101906101309190611f9a565b6103bb565b604051610142919061237d565b60405180910390f35b610153610422565b6040516101609190612398565b60405180910390f35b610183600480360381019061017e9190611fec565b6104b4565b6040516101909190612316565b60405180910390f35b6101b360048036038101906101ae9190611f5e565b610539565b005b6101bd610651565b6040516101ca919061259a565b60405180910390f35b6101ed60048036038101906101e89190611e58565b610662565b005b61020960048036038101906102049190611f5e565b6106c2565b604051610216919061259a565b60405180910390f35b61023960048036038101906102349190611f5e565b61071d565b005b61025560048036038101906102509190611e58565b61072b565b005b610271600480360381019061026c9190611fec565b61074b565b60405161027e919061259a565b60405180910390f35b6102a1600480360381019061029c9190611fec565b61076e565b6040516102ae9190612316565b60405180910390f35b6102bf6107a5565b6040516102cc9190612398565b60405180910390f35b6102ef60048036038101906102ea9190611df3565b610837565b6040516102fc919061259a565b60405180910390f35b61030d6108f6565b60405161031a9190612398565b60405180910390f35b61033d60048036038101906103389190611f22565b610988565b005b61035960048036038101906103549190611ea7565b610b09565b005b61037560048036038101906103709190611fec565b610b6b565b6040516103829190612398565b60405180910390f35b6103a560048036038101906103a09190611e1c565b610cde565b6040516103b2919061237d565b60405180910390f35b6000806000837bffffffffffffffffffffffffffffffffffffffffffffffffffffffff19167bffffffffffffffffffffffffffffffffffffffffffffffffffffffff1916815260200190815260200160002060009054906101000a900460ff169050919050565b606060068054610431906127bf565b80601f016020809104026020016040519081016040528092919081815260200182805461045d906127bf565b80156104aa5780601f1061047f576101008083540402835291602001916104aa565b820191906000526020600020905b81548152906001019060200180831161048d57829003601f168201915b5050505050905090565b60006104bf82610d72565b6104fe576040517f08c379a00000000000000000000000000000000000000000000000000000000081526004016104f5906124fa565b60405180910390fd5b6004600083815260200190815260200160002060009054906101000a900473ffffffffffffffffffffffffffffffffffffffff169050919050565b60006105448261076e565b90508073ffffffffffffffffffffffffffffffffffffffff168373ffffffffffffffffffffffffffffffffffffffff1614156105b5576040517f08c379a00000000000000000000000000000000000000000000000000000000081526004016105ac9061255a565b60405180910390fd5b8073ffffffffffffffffffffffffffffffffffffffff166105d4610d8f565b73ffffffffffffffffffffffffffffffffffffffff1614806106035750610602816105fd610d8f565b610cde565b5b610642576040517f08c379a00000000000000000000000000000000000000000000000000000000081526004016106399061247a565b60405180910390fd5b61064c8383610d97565b505050565b600061065d6002610e50565b905090565b61067361066d610d8f565b82610e65565b6106b2576040517f08c379a00000000000000000000000000000000000000000000000000000000081526004016106a99061257a565b60405180910390fd5b6106bd838383610f43565b505050565b600061071582600160008673ffffffffffffffffffffffffffffffffffffffff1673ffffffffffffffffffffffffffffffffffffffff16815260200190815260200160002061115a90919063ffffffff16565b905092915050565b6107278282611174565b5050565b61074683838360405180602001604052806000815250610b09565b505050565b60008061076283600261130290919063ffffffff16565b50905080915050919050565b600061079e82604051806060016040528060298152602001612df560299139600261132e9092919063ffffffff16565b9050919050565b6060600980546107b4906127bf565b80601f01602080910402602001604051908101604052809291908181526020018280546107e0906127bf565b801561082d5780601f106108025761010080835404028352916020019161082d565b820191906000526020600020905b81548152906001019060200180831161081057829003601f168201915b5050505050905090565b60008073ffffffffffffffffffffffffffffffffffffffff168273ffffffffffffffffffffffffffffffffffffffff1614156108a8576040517f08c379a000000000000000000000000000000000000000000000000000000000815260040161089f9061249a565b60405180910390fd5b6108ef600160008473ffffffffffffffffffffffffffffffffffffffff1673ffffffffffffffffffffffffffffffffffffffff16815260200190815260200160002061134d565b9050919050565b606060078054610905906127bf565b80601f0160208091040260200160405190810160405280929190818152602001828054610931906127bf565b801561097e5780601f106109535761010080835404028352916020019161097e565b820191906000526020600020905b81548152906001019060200180831161096157829003601f168201915b5050505050905090565b610990610d8f565b73ffffffffffffffffffffffffffffffffffffffff168273ffffffffffffffffffffffffffffffffffffffff1614156109fe576040517f08c379a00000000000000000000000000000000000000000000000000000000081526004016109f59061243a565b60405180910390fd5b8060056000610a0b610d8f565b73ffffffffffffffffffffffffffffffffffffffff1673ffffffffffffffffffffffffffffffffffffffff16815260200190815260200160002060008473ffffffffffffffffffffffffffffffffffffffff1673ffffffffffffffffffffffffffffffffffffffff16815260200190815260200160002060006101000a81548160ff0219169083151502179055508173ffffffffffffffffffffffffffffffffffffffff16610ab8610d8f565b73ffffffffffffffffffffffffffffffffffffffff167f17307eab39ab6107e8899845ad3d59bd9653f200f220920489ca2b5937696c3183604051610afd919061237d565b60405180910390a35050565b610b1a610b14610d8f565b83610e65565b610b59576040517f08c379a0000000000000000000000000000000000000000000000000000000008152600401610b509061257a565b60405180910390fd5b610b6584848484611362565b50505050565b6060610b7682610d72565b610bb5576040517f08c379a0000000000000000000000000000000000000000000000000000000008152600401610bac9061253a565b60405180910390fd5b6000600860008481526020019081526020016000208054610bd5906127bf565b80601f0160208091040260200160405190810160405280929190818152602001828054610c01906127bf565b8015610c4e5780601f10610c2357610100808354040283529160200191610c4e565b820191906000526020600020905b815481529060010190602001808311610c3157829003601f168201915b505050505090506000610c5f6107a5565b9050600081511415610c75578192505050610cd9565b600082511115610caa578082604051602001610c929291906122f2565b60405160208183030381529060405292505050610cd9565b80610cb4856113be565b604051602001610cc59291906122f2565b604051602081830303815290604052925050505b919050565b6000600560008473ffffffffffffffffffffffffffffffffffffffff1673ffffffffffffffffffffffffffffffffffffffff16815260200190815260200160002060008373ffffffffffffffffffffffffffffffffffffffff1673ffffffffffffffffffffffffffffffffffffffff16815260200190815260200160002060009054906101000a900460ff16905092915050565b6000610d8882600261156b90919063ffffffff16565b9050919050565b600033905090565b816004600083815260200190815260200160002060006101000a81548173ffffffffffffffffffffffffffffffffffffffff021916908373ffffffffffffffffffffffffffffffffffffffff160217905550808273ffffffffffffffffffffffffffffffffffffffff16610e0a8361076e565b73ffffffffffffffffffffffffffffffffffffffff167f8c5be1e5ebec7d5bd14f71427d1e84f3dd0314c0f7b2291e5b200ac8c7c3b92560405160405180910390a45050565b6000610e5e82600001611585565b9050919050565b6000610e7082610d72565b610eaf576040517f08c379a0000000000000000000000000000000000000000000000000000000008152600401610ea69061245a565b60405180910390fd5b6000610eba8361076e565b90508073ffffffffffffffffffffffffffffffffffffffff168473ffffffffffffffffffffffffffffffffffffffff161480610f2957508373ffffffffffffffffffffffffffffffffffffffff16610f11846104b4565b73ffffffffffffffffffffffffffffffffffffffff16145b80610f3a5750610f398185610cde565b5b91505092915050565b8273ffffffffffffffffffffffffffffffffffffffff16610f638261076e565b73ffffffffffffffffffffffffffffffffffffffff1614610fb9576040517f08c379a0000000000000000000000000000000000000000000000000000000008152600401610fb09061251a565b60405180910390fd5b600073ffffffffffffffffffffffffffffffffffffffff168273ffffffffffffffffffffffffffffffffffffffff161415611029576040517f08c379a00000000000000000000000000000000000000000000000000000000081526004016110209061241a565b60405180910390fd5b611034838383611596565b61103f600082610d97565b61109081600160008673ffffffffffffffffffffffffffffffffffffffff1673ffffffffffffffffffffffffffffffffffffffff16815260200190815260200160002061159b90919063ffffffff16565b506110e281600160008573ffffffffffffffffffffffffffffffffffffffff1673ffffffffffffffffffffffffffffffffffffffff1681526020019081526020016000206115b590919063ffffffff16565b506110f9818360026115cf9092919063ffffffff16565b50808273ffffffffffffffffffffffffffffffffffffffff168473ffffffffffffffffffffffffffffffffffffffff167fddf252ad1be2c89b69c2b068fc378daa952ba7f163c4a11628f55a4df523b3ef60405160405180910390a4505050565b60006111698360000183611604565b60001c905092915050565b600073ffffffffffffffffffffffffffffffffffffffff168273ffffffffffffffffffffffffffffffffffffffff1614156111e4576040517f08c379a00000000000000000000000000000000000000000000000000000000081526004016111db906124da565b60405180910390fd5b6111ed81610d72565b1561122d576040517f08c379a0000000000000000000000000000000000000000000000000000000008152600401611224906123fa565b60405180910390fd5b61123960008383611596565b61128a81600160008573ffffffffffffffffffffffffffffffffffffffff1673ffffffffffffffffffffffffffffffffffffffff1681526020019081526020016000206115b590919063ffffffff16565b506112a1818360026115cf9092919063ffffffff16565b50808273ffffffffffffffffffffffffffffffffffffffff16600073ffffffffffffffffffffffffffffffffffffffff167fddf252ad1be2c89b69c2b068fc378daa952ba7f163c4a11628f55a4df523b3ef60405160405180910390a45050565b600080600080611315866000018661169e565b915091508160001c8160001c9350935050509250929050565b6000611341846000018460001b8461174e565b60001c90509392505050565b600061135b82600001611815565b9050919050565b61136d848484610f43565b61137984848484611826565b6113b8576040517f08c379a00000000000000000000000000000000000000000000000000000000081526004016113af906123da565b60405180910390fd5b50505050565b60606000821415611406576040518060400160405280600181526020017f30000000000000000000000000000000000000000000000000000000000000008152509050611566565b600082905060005b6000821461143857808061142190612822565b915050600a8261143191906126a4565b915061140e565b60008167ffffffffffffffff81111561147a577f4e487b7100000000000000000000000000000000000000000000000000000000600052604160045260246000fd5b6040519080825280601f01601f1916602001820160405280156114ac5781602001600182028036833780820191505090505b5090505b6000851461155f576001826114c591906126d5565b9150600a856114d4919061286b565b60306114e0919061264e565b60f81b81838151811061151c577f4e487b7100000000000000000000000000000000000000000000000000000000600052603260045260246000fd5b60200101907effffffffffffffffffffffffffffffffffffffffffffffffffffffffffffff1916908160001a905350600a8561155891906126a4565b94506114b0565b8093505050505b919050565b600061157d836000018360001b6119bd565b905092915050565b600081600001805490509050919050565b505050565b60006115ad836000018360001b6119e0565b905092915050565b60006115c7836000018360001b611b6a565b905092915050565b60006115fb846000018460001b8473ffffffffffffffffffffffffffffffffffffffff1660001b611bda565b90509392505050565b60008183600001805490501161164f576040517f08c379a0000000000000000000000000000000000000000000000000000000008152600401611646906123ba565b60405180910390fd5b82600001828154811061168b577f4e487b7100000000000000000000000000000000000000000000000000000000600052603260045260246000fd5b9060005260206000200154905092915050565b600080828460000180549050116116ea576040517f08c379a00000000000000000000000000000000000000000000000000000000081526004016116e1906124ba565b60405180910390fd5b6000846000018481548110611728577f4e487b7100000000000000000000000000000000000000000000000000000000600052603260045260246000fd5b906000526020600020906002020190508060000154816001015492509250509250929050565b600080846001016000858152602001908152602001600020549050600081141583906117b0576040517f08c379a00000000000000000000000000000000000000000000000000000000081526004016117a79190612398565b60405180910390fd5b50846000016001826117c291906126d5565b815481106117f9577f4e487b7100000000000000000000000000000000000000000000000000000000600052603260045260246000fd5b9060005260206000209060020201600101549150509392505050565b600081600001805490509050919050565b60006118478473ffffffffffffffffffffffffffffffffffffffff16611cec565b156119b0578373ffffffffffffffffffffffffffffffffffffffff1663150b7a02611870610d8f565b8786866040518563ffffffff1660e01b81526004016118929493929190612331565b602060405180830381600087803b1580156118ac57600080fd5b505af19250505080156118dd57506040513d601f19601f820116820180604052508101906118da9190611fc3565b60015b611960573d806000811461190d576040519150601f19603f3d011682016040523d82523d6000602084013e611912565b606091505b50600081511415611958576040517f08c379a000000000000000000000000000000000000000000000000000000000815260040161194f906123da565b60405180910390fd5b805181602001fd5b63150b7a0260e01b7bffffffffffffffffffffffffffffffffffffffffffffffffffffffff1916817bffffffffffffffffffffffffffffffffffffffffffffffffffffffff1916149150506119b5565b600190505b949350505050565b600080836001016000848152602001908152602001600020541415905092915050565b60008083600101600084815260200190815260200160002054905060008114611b5e576000600182611a1291906126d5565b9050600060018660000180549050611a2a91906126d5565b90506000866000018281548110611a6a577f4e487b7100000000000000000000000000000000000000000000000000000000600052603260045260246000fd5b9060005260206000200154905080876000018481548110611ab4577f4e487b7100000000000000000000000000000000000000000000000000000000600052603260045260246000fd5b9060005260206000200181905550600183611acf919061264e565b8760010160008381526020019081526020016000208190555086600001805480611b22577f4e487b7100000000000000000000000000000000000000000000000000000000600052603160045260246000fd5b60019003818190600052602060002001600090559055866001016000878152602001908152602001600020600090556001945050505050611b64565b60009150505b92915050565b6000611b768383611cff565b611bcf578260000182908060018154018082558091505060019003906000526020600020016000909190919091505582600001805490508360010160008481526020019081526020016000208190555060019050611bd4565b600090505b92915050565b6000808460010160008581526020019081526020016000205490506000811415611c8157846000016040518060400160405280868152602001858152509080600181540180825580915050600190039060005260206000209060020201600090919091909150600082015181600001556020820151816001015550508460000180549050856001016000868152602001908152602001600020819055506001915050611ce5565b8285600001600183611c9391906126d5565b81548110611cca577f4e487b7100000000000000000000000000000000000000000000000000000000600052603260045260246000fd5b90600052602060002090600202016001018190555060009150505b9392505050565b600080823b905060008111915050919050565b600080836001016000848152602001908152602001600020541415905092915050565b6000611d35611d30846125da565b6125b5565b905082815260208101848484011115611d4d57600080fd5b611d5884828561277d565b509392505050565b600081359050611d6f81612d98565b92915050565b600081359050611d8481612daf565b92915050565b600081359050611d9981612dc6565b92915050565b600081519050611dae81612dc6565b92915050565b600082601f830112611dc557600080fd5b8135611dd5848260208601611d22565b91505092915050565b600081359050611ded81612ddd565b92915050565b600060208284031215611e0557600080fd5b6000611e1384828501611d60565b91505092915050565b60008060408385031215611e2f57600080fd5b6000611e3d85828601611d60565b9250506020611e4e85828601611d60565b9150509250929050565b600080600060608486031215611e6d57600080fd5b6000611e7b86828701611d60565b9350506020611e8c86828701611d60565b9250506040611e9d86828701611dde565b9150509250925092565b60008060008060808587031215611ebd57600080fd5b6000611ecb87828801611d60565b9450506020611edc87828801611d60565b9350506040611eed87828801611dde565b925050606085013567ffffffffffffffff811115611f0a57600080fd5b611f1687828801611db4565b91505092959194509250565b60008060408385031215611f3557600080fd5b6000611f4385828601611d60565b9250506020611f5485828601611d75565b9150509250929050565b60008060408385031215611f7157600080fd5b6000611f7f85828601611d60565b9250506020611f9085828601611dde565b9150509250929050565b600060208284031215611fac57600080fd5b6000611fba84828501611d8a565b91505092915050565b600060208284031215611fd557600080fd5b6000611fe384828501611d9f565b91505092915050565b600060208284031215611ffe57600080fd5b600061200c84828501611dde565b91505092915050565b61201e81612709565b82525050565b61202d8161271b565b82525050565b600061203e8261260b565b6120488185612621565b935061205881856020860161278c565b61206181612958565b840191505092915050565b600061207782612616565b6120818185612632565b935061209181856020860161278c565b61209a81612958565b840191505092915050565b60006120b082612616565b6120ba8185612643565b93506120ca81856020860161278c565b80840191505092915050565b60006120e3602283612632565b91506120ee82612969565b604082019050919050565b6000612106603283612632565b9150612111826129b8565b604082019050919050565b6000612129601c83612632565b915061213482612a07565b602082019050919050565b600061214c602483612632565b915061215782612a30565b604082019050919050565b600061216f601983612632565b915061217a82612a7f565b602082019050919050565b6000612192602c83612632565b915061219d82612aa8565b604082019050919050565b60006121b5603883612632565b91506121c082612af7565b604082019050919050565b60006121d8602a83612632565b91506121e382612b46565b604082019050919050565b60006121fb602283612632565b915061220682612b95565b604082019050919050565b600061221e602083612632565b915061222982612be4565b602082019050919050565b6000612241602c83612632565b915061224c82612c0d565b604082019050919050565b6000612264602983612632565b915061226f82612c5c565b604082019050919050565b6000612287602f83612632565b915061229282612cab565b604082019050919050565b60006122aa602183612632565b91506122b582612cfa565b604082019050919050565b60006122cd603183612632565b91506122d882612d49565b604082019050919050565b6122ec81612773565b82525050565b60006122fe82856120a5565b915061230a82846120a5565b91508190509392505050565b600060208201905061232b6000830184612015565b92915050565b60006080820190506123466000830187612015565b6123536020830186612015565b61236060408301856122e3565b81810360608301526123728184612033565b905095945050505050565b60006020820190506123926000830184612024565b92915050565b600060208201905081810360008301526123b2818461206c565b905092915050565b600060208201905081810360008301526123d3816120d6565b9050919050565b600060208201905081810360008301526123f3816120f9565b9050919050565b600060208201905081810360008301526124138161211c565b9050919050565b600060208201905081810360008301526124338161213f565b9050919050565b6000602082019050818103600083015261245381612162565b9050919050565b6000602082019050818103600083015261247381612185565b9050919050565b60006020820190508181036000830152612493816121a8565b9050919050565b600060208201905081810360008301526124b3816121cb565b9050919050565b600060208201905081810360008301526124d3816121ee565b9050919050565b600060208201905081810360008301526124f381612211565b9050919050565b6000602082019050818103600083015261251381612234565b9050919050565b6000602082019050818103600083015261253381612257565b9050919050565b600060208201905081810360008301526125538161227a565b9050919050565b600060208201905081810360008301526125738161229d565b9050919050565b60006020820190508181036000830152612593816122c0565b9050919050565b60006020820190506125af60008301846122e3565b92915050565b60006125bf6125d0565b90506125cb82826127f1565b919050565b6000604051905090565b600067ffffffffffffffff8211156125f5576125f4612929565b5b6125fe82612958565b9050602081019050919050565b600081519050919050565b600081519050919050565b600082825260208201905092915050565b600082825260208201905092915050565b600081905092915050565b600061265982612773565b915061266483612773565b9250827fffffffffffffffffffffffffffffffffffffffffffffffffffffffffffffffff038211156126995761269861289c565b5b828201905092915050565b60006126af82612773565b91506126ba83612773565b9250826126ca576126c96128cb565b5b828204905092915050565b60006126e082612773565b91506126eb83612773565b9250828210156126fe576126fd61289c565b5b828203905092915050565b600061271482612753565b9050919050565b60008115159050919050565b60007fffffffff0000000000000000000000000000000000000000000000000000000082169050919050565b600073ffffffffffffffffffffffffffffffffffffffff82169050919050565b6000819050919050565b82818337600083830152505050565b60005b838110156127aa57808201518184015260208101905061278f565b838111156127b9576000848401525b50505050565b600060028204905060018216806127d757607f821691505b602082108114156127eb576127ea6128fa565b5b50919050565b6127fa82612958565b810181811067ffffffffffffffff8211171561281957612818612929565b5b80604052505050565b600061282d82612773565b91507fffffffffffffffffffffffffffffffffffffffffffffffffffffffffffffffff8214156128605761285f61289c565b5b600182019050919050565b600061287682612773565b915061288183612773565b925082612891576128906128cb565b5b828206905092915050565b7f4e487b7100000000000000000000000000000000000000000000000000000000600052601160045260246000fd5b7f4e487b7100000000000000000000000000000000000000000000000000000000600052601260045260246000fd5b7f4e487b7100000000000000000000000000000000000000000000000000000000600052602260045260246000fd5b7f4e487b7100000000000000000000000000000000000000000000000000000000600052604160045260246000fd5b6000601f19601f8301169050919050565b7f456e756d657261626c655365743a20696e646578206f7574206f6620626f756e60008201527f6473000000000000000000000000000000000000000000000000000000000000602082015250565b7f4552433732313a207472616e7366657220746f206e6f6e20455243373231526560008201527f63656976657220696d706c656d656e7465720000000000000000000000000000602082015250565b7f4552433732313a20746f6b656e20616c7265616479206d696e74656400000000600082015250565b7f4552433732313a207472616e7366657220746f20746865207a65726f2061646460008201527f7265737300000000000000000000000000000000000000000000000000000000602082015250565b7f4552433732313a20617070726f766520746f2063616c6c657200000000000000600082015250565b7f4552433732313a206f70657261746f7220717565727920666f72206e6f6e657860008201527f697374656e7420746f6b656e0000000000000000000000000000000000000000602082015250565b7f4552433732313a20617070726f76652063616c6c6572206973206e6f74206f7760008201527f6e6572206e6f7220617070726f76656420666f7220616c6c0000000000000000602082015250565b7f4552433732313a2062616c616e636520717565727920666f7220746865207a6560008201527f726f206164647265737300000000000000000000000000000000000000000000602082015250565b7f456e756d657261626c654d61703a20696e646578206f7574206f6620626f756e60008201527f6473000000000000000000000000000000000000000000000000000000000000602082015250565b7f4552433732313a206d696e7420746f20746865207a65726f2061646472657373600082015250565b7f4552433732313a20617070726f76656420717565727920666f72206e6f6e657860008201527f697374656e7420746f6b656e0000000000000000000000000000000000000000602082015250565b7f4552433732313a207472616e73666572206f6620746f6b656e2074686174206960008201527f73206e6f74206f776e0000000000000000000000000000000000000000000000602082015250565b7f4552433732314d657461646174613a2055524920717565727920666f72206e6f60008201527f6e6578697374656e7420746f6b656e0000000000000000000000000000000000602082015250565b7f4552433732313a20617070726f76616c20746f2063757272656e74206f776e6560008201527f7200000000000000000000000000000000000000000000000000000000000000602082015250565b7f4552433732313a207472616e736665722063616c6c6572206973206e6f74206f60008201527f776e6572206e6f7220617070726f766564000000000000000000000000000000602082015250565b612da181612709565b8114612dac57600080fd5b50565b612db88161271b565b8114612dc357600080fd5b50565b612dcf81612727565b8114612dda57600080fd5b50565b612de681612773565b8114612df157600080fd5b5056fe4552433732313a206f776e657220717565727920666f72206e6f6e6578697374656e7420746f6b656ea264697066735822122055f3babdb45ed06574eaf35b1847dcfdb8c93b39974bff2b2fd7b1bde1db782364736f6c63430008040033",
  "linkReferences": {},
  "deployedLinkReferences": {}
}