{
  "_format": "hh-sol-artifact-1",
  "contractName": "ERC20ReturnTrueMockUpgradeable",
  "sourceName": "contracts/src/OpenZeppelin/upgradeable/mocks/SafeERC20HelperUpgradeable.sol",
  "abi": [
    {
      "inputs": [
        {
          "internalType": "address",
          "name": "owner",
          "type": "address"
        },
        {
          "internalType": "address",
          "name": "",
          "type": "address"
        }
      ],
      "name": "allowance",
      "outputs": [
        {
          "internalType": "uint256",
          "name": "",
          "type": "uint256"
        }
      ],
      "stateMutability": "view",
      "type": "function"
    },
    {
      "inputs": [
        {
          "internalType": "address",
          "name": "",
          "type": "address"
        },
        {
          "internalType": "uint256",
          "name": "",
          "type": "uint256"
        }
      ],
      "name": "approve",
      "outputs": [
        {
          "internalType": "bool",
          "name": "",
          "type": "bool"
        }
      ],
      "stateMutability": "nonpayable",
      "type": "function"
    },
    {
      "inputs": [
        {
          "internalType": "uint256",
          "name": "allowance_",
          "type": "uint256"
        }
      ],
      "name": "setAllowance",
      "outputs": [],
      "stateMutability": "nonpayable",
      "type": "function"
    },
    {
      "inputs": [
        {
          "internalType": "address",
          "name": "",
          "type": "address"
        },
        {
          "internalType": "uint256",
          "name": "",
          "type": "uint256"
        }
      ],
      "name": "transfer",
      "outputs": [
        {
          "internalType": "bool",
          "name": "",
          "type": "bool"
        }
      ],
      "stateMutability": "nonpayable",
      "type": "function"
    },
    {
      "inputs": [
        {
          "internalType": "address",
          "name": "",
          "type": "address"
        },
        {
          "internalType": "address",
          "name": "",
          "type": "address"
        },
        {
          "internalType": "uint256",
          "name": "",
          "type": "uint256"
        }
      ],
      "name": "transferFrom",
      "outputs": [
        {
          "internalType": "bool",
          "name": "",
          "type": "bool"
        }
      ],
      "stateMutability": "nonpayable",
      "type": "function"
    }
  ],
  "bytecode": "0x608060405234801561001057600080fd5b5061042c806100206000396000f3fe608060405234801561001057600080fd5b50600436106100575760003560e01c8063095ea7b31461005c57806323b872dd1461008c5780633ba93f26146100bc578063a9059cbb146100d8578063dd62ed3e14610108575b600080fd5b610076600480360381019061007191906102c7565b610138565b604051610083919061034a565b60405180910390f35b6100a660048036038101906100a19190610278565b61014b565b6040516100b3919061034a565b60405180910390f35b6100d660048036038101906100d19190610303565b61015f565b005b6100f260048036038101906100ed91906102c7565b6101ad565b6040516100ff919061034a565b60405180910390f35b610122600480360381019061011d919061023c565b6101c0565b60405161012f9190610365565b60405180910390f35b6000806034819055506001905092915050565b600080603481905550600190509392505050565b806033600061016c61020a565b73ffffffffffffffffffffffffffffffffffffffff1673ffffffffffffffffffffffffffffffffffffffff1681526020019081526020016000208190555050565b6000806034819055506001905092915050565b6000603360008473ffffffffffffffffffffffffffffffffffffffff1673ffffffffffffffffffffffffffffffffffffffff16815260200190815260200160002054905092915050565b600033905090565b600081359050610221816103c8565b92915050565b600081359050610236816103df565b92915050565b6000806040838503121561024f57600080fd5b600061025d85828601610212565b925050602061026e85828601610212565b9150509250929050565b60008060006060848603121561028d57600080fd5b600061029b86828701610212565b93505060206102ac86828701610212565b92505060406102bd86828701610227565b9150509250925092565b600080604083850312156102da57600080fd5b60006102e885828601610212565b92505060206102f985828601610227565b9150509250929050565b60006020828403121561031557600080fd5b600061032384828501610227565b91505092915050565b61033581610392565b82525050565b610344816103be565b82525050565b600060208201905061035f600083018461032c565b92915050565b600060208201905061037a600083018461033b565b92915050565b600061038b8261039e565b9050919050565b60008115159050919050565b600073ffffffffffffffffffffffffffffffffffffffff82169050919050565b6000819050919050565b6103d181610380565b81146103dc57600080fd5b50565b6103e8816103be565b81146103f357600080fd5b5056fea26469706673582212203755b595a6092e80f25875e92daf8c43778865593136d542497f6f1b0cccc6bd64736f6c63430008040033",
  "linkReferences": {},
  "deployedLinkReferences": {}
}