{
  "_format": "hh-sol-artifact-1",
  "contractName": "FNFT",
  "sourceName": "contracts/src/FNFT.sol",
  "abi": [
    {
      "inputs": [
        {
          "internalType": "string",
          "name": "name_",
          "type": "string"
        },
        {
          "internalType": "string",
          "name": "symbol_",
          "type": "string"
        }
      ],
      "stateMutability": "nonpayable",
      "type": "constructor"
    },
    {
      "anonymous": false,
      "inputs": [
        {
          "indexed": true,
          "internalType": "address",
          "name": "owner",
          "type": "address"
        },
        {
          "indexed": true,
          "internalType": "address",
          "name": "approved",
          "type": "address"
        },
        {
          "indexed": true,
          "internalType": "uint256",
          "name": "tokenId",
          "type": "uint256"
        }
      ],
      "name": "Approval",
      "type": "event"
    },
    {
      "anonymous": false,
      "inputs": [
        {
          "indexed": true,
          "internalType": "address",
          "name": "owner",
          "type": "address"
        },
        {
          "indexed": true,
          "internalType": "address",
          "name": "operator",
          "type": "address"
        },
        {
          "indexed": false,
          "internalType": "bool",
          "name": "approved",
          "type": "bool"
        }
      ],
      "name": "ApprovalForAll",
      "type": "event"
    },
    {
      "anonymous": false,
      "inputs": [
        {
          "indexed": true,
          "internalType": "address",
          "name": "from",
          "type": "address"
        },
        {
          "indexed": true,
          "internalType": "address",
          "name": "to",
          "type": "address"
        },
        {
          "indexed": true,
          "internalType": "uint256",
          "name": "tokenId",
          "type": "uint256"
        }
      ],
      "name": "Transfer",
      "type": "event"
    },
    {
      "inputs": [
        {
          "internalType": "address",
          "name": "to",
          "type": "address"
        },
        {
          "internalType": "uint256",
          "name": "tokenId",
          "type": "uint256"
        }
      ],
      "name": "approve",
      "outputs": [],
      "stateMutability": "nonpayable",
      "type": "function"
    },
    {
      "inputs": [
        {
          "internalType": "address",
          "name": "owner",
          "type": "address"
        }
      ],
      "name": "balanceOf",
      "outputs": [
        {
          "internalType": "uint256",
          "name": "",
          "type": "uint256"
        }
      ],
      "stateMutability": "view",
      "type": "function"
    },
    {
      "inputs": [],
      "name": "baseURI",
      "outputs": [
        {
          "internalType": "string",
          "name": "",
          "type": "string"
        }
      ],
      "stateMutability": "view",
      "type": "function"
    },
    {
      "inputs": [
        {
          "internalType": "address",
          "name": "from",
          "type": "address"
        }
      ],
      "name": "burn",
      "outputs": [],
      "stateMutability": "nonpayable",
      "type": "function"
    },
    {
      "inputs": [
        {
          "internalType": "uint256",
          "name": "tokenId",
          "type": "uint256"
        }
      ],
      "name": "getApproved",
      "outputs": [
        {
          "internalType": "address",
          "name": "",
          "type": "address"
        }
      ],
      "stateMutability": "view",
      "type": "function"
    },
    {
      "inputs": [
        {
          "internalType": "address",
          "name": "owner",
          "type": "address"
        },
        {
          "internalType": "address",
          "name": "operator",
          "type": "address"
        }
      ],
      "name": "isApprovedForAll",
      "outputs": [
        {
          "internalType": "bool",
          "name": "",
          "type": "bool"
        }
      ],
      "stateMutability": "view",
      "type": "function"
    },
    {
      "inputs": [
        {
          "internalType": "address",
          "name": "to",
          "type": "address"
        }
      ],
      "name": "mint",
      "outputs": [],
      "stateMutability": "nonpayable",
      "type": "function"
    },
    {
      "inputs": [],
      "name": "name",
      "outputs": [
        {
          "internalType": "string",
          "name": "",
          "type": "string"
        }
      ],
      "stateMutability": "view",
      "type": "function"
    },
    {
      "inputs": [
        {
          "internalType": "uint256",
          "name": "tokenId",
          "type": "uint256"
        }
      ],
      "name": "ownerOf",
      "outputs": [
        {
          "internalType": "address",
          "name": "",
          "type": "address"
        }
      ],
      "stateMutability": "view",
      "type": "function"
    },
    {
      "inputs": [
        {
          "internalType": "address",
          "name": "from",
          "type": "address"
        },
        {
          "internalType": "address",
          "name": "to",
          "type": "address"
        },
        {
          "internalType": "uint256",
          "name": "tokenId",
          "type": "uint256"
        }
      ],
      "name": "safeTransferFrom",
      "outputs": [],
      "stateMutability": "nonpayable",
      "type": "function"
    },
    {
      "inputs": [
        {
          "internalType": "address",
          "name": "from",
          "type": "address"
        },
        {
          "internalType": "address",
          "name": "to",
          "type": "address"
        },
        {
          "internalType": "uint256",
          "name": "tokenId",
          "type": "uint256"
        },
        {
          "internalType": "bytes",
          "name": "_data",
          "type": "bytes"
        }
      ],
      "name": "safeTransferFrom",
      "outputs": [],
      "stateMutability": "nonpayable",
      "type": "function"
    },
    {
      "inputs": [
        {
          "internalType": "address",
          "name": "operator",
          "type": "address"
        },
        {
          "internalType": "bool",
          "name": "approved",
          "type": "bool"
        }
      ],
      "name": "setApprovalForAll",
      "outputs": [],
      "stateMutability": "nonpayable",
      "type": "function"
    },
    {
      "inputs": [
        {
          "internalType": "bytes4",
          "name": "interfaceId",
          "type": "bytes4"
        }
      ],
      "name": "supportsInterface",
      "outputs": [
        {
          "internalType": "bool",
          "name": "",
          "type": "bool"
        }
      ],
      "stateMutability": "view",
      "type": "function"
    },
    {
      "inputs": [],
      "name": "symbol",
      "outputs": [
        {
          "internalType": "string",
          "name": "",
          "type": "string"
        }
      ],
      "stateMutability": "view",
      "type": "function"
    },
    {
      "inputs": [
        {
          "internalType": "uint256",
          "name": "tokenId",
          "type": "uint256"
        }
      ],
      "name": "tokenURI",
      "outputs": [
        {
          "internalType": "string",
          "name": "",
          "type": "string"
        }
      ],
      "stateMutability": "view",
      "type": "function"
    },
    {
      "inputs": [
        {
          "internalType": "address",
          "name": "from",
          "type": "address"
        },
        {
          "internalType": "address",
          "name": "to",
          "type": "address"
        },
        {
          "internalType": "uint256",
          "name": "tokenId",
          "type": "uint256"
        }
      ],
      "name": "transferFrom",
      "outputs": [],
      "stateMutability": "nonpayable",
      "type": "function"
    },
    {
      "inputs": [],
      "name": "vault",
      "outputs": [
        {
          "internalType": "address",
          "name": "",
          "type": "address"
        }
      ],
      "stateMutability": "view",
      "type": "function"
    }
  ],
  "bytecode": "0x60a06040526040518060400160405280601b81526020017f68747470733a2f2f7572692e6672616374696f6e616c2e6172742f0000000000815250600790805190602001906200005192919062000261565b503480156200005f57600080fd5b5060405162001d1738038062001d17833981810160405281019062000085919062000383565b620000b67f01ffc9a7000000000000000000000000000000000000000000000000000000006200018960201b60201c565b8160049080519060200190620000ce92919062000261565b508060059080519060200190620000e792919062000261565b503373ffffffffffffffffffffffffffffffffffffffff1660808173ffffffffffffffffffffffffffffffffffffffff1660601b81525050620001507f80ac58cd000000000000000000000000000000000000000000000000000000006200018960201b60201c565b620001817f5b5e139f000000000000000000000000000000000000000000000000000000006200018960201b60201c565b5050620005e9565b63ffffffff60e01b817bffffffffffffffffffffffffffffffffffffffffffffffffffffffff19161415620001f5576040517f08c379a0000000000000000000000000000000000000000000000000000000008152600401620001ec906200041d565b60405180910390fd5b6001600080837bffffffffffffffffffffffffffffffffffffffffffffffffffffffff19167bffffffffffffffffffffffffffffffffffffffffffffffffffffffff1916815260200190815260200160002060006101000a81548160ff02191690831515021790555050565b8280546200026f90620004e5565b90600052602060002090601f016020900481019282620002935760008555620002df565b82601f10620002ae57805160ff1916838001178555620002df565b82800160010185558215620002df579182015b82811115620002de578251825591602001919060010190620002c1565b5b509050620002ee9190620002f2565b5090565b5b808211156200030d576000816000905550600101620002f3565b5090565b600062000328620003228462000468565b6200043f565b9050828152602081018484840111156200034157600080fd5b6200034e848285620004af565b509392505050565b600082601f8301126200036857600080fd5b81516200037a84826020860162000311565b91505092915050565b600080604083850312156200039757600080fd5b600083015167ffffffffffffffff811115620003b257600080fd5b620003c08582860162000356565b925050602083015167ffffffffffffffff811115620003de57600080fd5b620003ec8582860162000356565b9150509250929050565b600062000405601c836200049e565b91506200041282620005c0565b602082019050919050565b600060208201905081810360008301526200043881620003f6565b9050919050565b60006200044b6200045e565b90506200045982826200051b565b919050565b6000604051905090565b600067ffffffffffffffff82111562000486576200048562000580565b5b6200049182620005af565b9050602081019050919050565b600082825260208201905092915050565b60005b83811015620004cf578082015181840152602081019050620004b2565b83811115620004df576000848401525b50505050565b60006002820490506001821680620004fe57607f821691505b6020821081141562000515576200051462000551565b5b50919050565b6200052682620005af565b810181811067ffffffffffffffff8211171562000548576200054762000580565b5b80604052505050565b7f4e487b7100000000000000000000000000000000000000000000000000000000600052602260045260246000fd5b7f4e487b7100000000000000000000000000000000000000000000000000000000600052604160045260246000fd5b6000601f19601f8301169050919050565b7f4552433136353a20696e76616c696420696e7465726661636520696400000000600082015250565b60805160601c61170162000616600039600081816104eb015281816106c8015261096301526117016000f3fe608060405234801561001057600080fd5b506004361061010b5760003560e01c80636c0360eb116100a2578063a22cb46511610071578063a22cb465146102b6578063b88d4fde146102d2578063c87b56dd146102ee578063e985e9c51461031e578063fbfa77cf1461034e5761010b565b80636c0360eb1461022e57806370a082311461024c57806389afcb441461027c57806395d89b41146102985761010b565b806323b872dd116100de57806323b872dd146101aa57806342842e0e146101c65780636352211e146101e25780636a627842146102125761010b565b806301ffc9a71461011057806306fdde0314610140578063081812fc1461015e578063095ea7b31461018e575b600080fd5b61012a60048036038101906101259190611033565b61036c565b60405161013791906111a1565b60405180910390f35b6101486103d3565b60405161015591906111bc565b60405180910390f35b6101786004803603810190610173919061105c565b610461565b6040516101859190611186565b60405180910390f35b6101a860048036038101906101a39190610ff7565b610468565b005b6101c460048036038101906101bf9190610ef1565b61047e565b005b6101e060048036038101906101db9190610ef1565b610495565b005b6101fc60048036038101906101f7919061105c565b6104ac565b6040516102099190611186565b60405180910390f35b61022c60048036038101906102279190610e8c565b6104e9565b005b610236610568565b60405161024391906111bc565b60405180910390f35b61026660048036038101906102619190610e8c565b6105fa565b604051610273919061121e565b60405180910390f35b61029660048036038101906102919190610e8c565b6106c6565b005b6102a061072a565b6040516102ad91906111bc565b60405180910390f35b6102d060048036038101906102cb9190610fbb565b6107b8565b005b6102ec60048036038101906102e79190610f40565b6107ce565b005b6103086004803603810190610303919061105c565b6107e6565b60405161031591906111bc565b60405180910390f35b61033860048036038101906103339190610eb5565b610959565b60405161034591906111a1565b60405180910390f35b610356610961565b6040516103639190611186565b60405180910390f35b6000806000837bffffffffffffffffffffffffffffffffffffffffffffffffffffffff19167bffffffffffffffffffffffffffffffffffffffffffffffffffffffff1916815260200190815260200160002060009054906101000a900460ff169050919050565b600480546103e090611427565b80601f016020809104026020016040519081016040528092919081815260200182805461040c90611427565b80156104595780601f1061042e57610100808354040283529160200191610459565b820191906000526020600020905b81548152906001019060200180831161043c57829003601f168201915b505050505081565b6000919050565b60001515600115151461047a57600080fd5b5050565b60001515600115151461049057600080fd5b505050565b6000151560011515146104a757600080fd5b505050565b60006003600083815260200190815260200160002060009054906101000a900473ffffffffffffffffffffffffffffffffffffffff169050919050565b7f000000000000000000000000000000000000000000000000000000000000000073ffffffffffffffffffffffffffffffffffffffff163373ffffffffffffffffffffffffffffffffffffffff161461054157600080fd5b600160008154809291906105549061148a565b919050555061056581600154610985565b50565b60606007805461057790611427565b80601f01602080910402602001604051908101604052809291908181526020018280546105a390611427565b80156105f05780601f106105c5576101008083540402835291602001916105f0565b820191906000526020600020905b8154815290600101906020018083116105d357829003601f168201915b5050505050905090565b60008073ffffffffffffffffffffffffffffffffffffffff168273ffffffffffffffffffffffffffffffffffffffff16141561066b576040517f08c379a0000000000000000000000000000000000000000000000000000000008152600401610662906111de565b60405180910390fd5b6000600260008473ffffffffffffffffffffffffffffffffffffffff1673ffffffffffffffffffffffffffffffffffffffff16815260200190815260200160002054146106b95760016106bc565b60005b60ff169050919050565b7f000000000000000000000000000000000000000000000000000000000000000073ffffffffffffffffffffffffffffffffffffffff163373ffffffffffffffffffffffffffffffffffffffff161461071e57600080fd5b61072781610a7b565b50565b6005805461073790611427565b80601f016020809104026020016040519081016040528092919081815260200182805461076390611427565b80156107b05780601f10610785576101008083540402835291602001916107b0565b820191906000526020600020905b81548152906001019060200180831161079357829003601f168201915b505050505081565b6000151560011515146107ca57600080fd5b5050565b6000151560011515146107e057600080fd5b50505050565b60606107f182610bb7565b610830576040517f08c379a0000000000000000000000000000000000000000000000000000000008152600401610827906111fe565b60405180910390fd5b600060066000848152602001908152602001600020805461085090611427565b80601f016020809104026020016040519081016040528092919081815260200182805461087c90611427565b80156108c95780601f1061089e576101008083540402835291602001916108c9565b820191906000526020600020905b8154815290600101906020018083116108ac57829003601f168201915b5050505050905060006108da610568565b90506000815114156108f0578192505050610954565b60008251111561092557808260405160200161090d929190611162565b60405160208183030381529060405292505050610954565b8061092f85610c23565b604051602001610940929190611162565b604051602081830303815290604052925050505b919050565b600092915050565b7f000000000000000000000000000000000000000000000000000000000000000081565b80600260008473ffffffffffffffffffffffffffffffffffffffff1673ffffffffffffffffffffffffffffffffffffffff16815260200190815260200160002081905550816003600083815260200190815260200160002060006101000a81548173ffffffffffffffffffffffffffffffffffffffff021916908373ffffffffffffffffffffffffffffffffffffffff160217905550808273ffffffffffffffffffffffffffffffffffffffff16600073ffffffffffffffffffffffffffffffffffffffff167fddf252ad1be2c89b69c2b068fc378daa952ba7f163c4a11628f55a4df523b3ef60405160405180910390a45050565b6000600260008373ffffffffffffffffffffffffffffffffffffffff1673ffffffffffffffffffffffffffffffffffffffff1681526020019081526020016000205490506000600260008473ffffffffffffffffffffffffffffffffffffffff1673ffffffffffffffffffffffffffffffffffffffff1681526020019081526020016000208190555060006003600083815260200190815260200160002060006101000a81548173ffffffffffffffffffffffffffffffffffffffff021916908373ffffffffffffffffffffffffffffffffffffffff16021790555080600073ffffffffffffffffffffffffffffffffffffffff168373ffffffffffffffffffffffffffffffffffffffff167fddf252ad1be2c89b69c2b068fc378daa952ba7f163c4a11628f55a4df523b3ef60405160405180910390a45050565b60008073ffffffffffffffffffffffffffffffffffffffff166003600084815260200190815260200160002060009054906101000a900473ffffffffffffffffffffffffffffffffffffffff1673ffffffffffffffffffffffffffffffffffffffff1614159050919050565b60606000821415610c6b576040518060400160405280600181526020017f30000000000000000000000000000000000000000000000000000000000000008152509050610dcb565b600082905060005b60008214610c9d578080610c869061148a565b915050600a82610c96919061130c565b9150610c73565b60008167ffffffffffffffff811115610cdf577f4e487b7100000000000000000000000000000000000000000000000000000000600052604160045260246000fd5b6040519080825280601f01601f191660200182016040528015610d115781602001600182028036833780820191505090505b5090505b60008514610dc457600182610d2a919061133d565b9150600a85610d3991906114d3565b6030610d4591906112b6565b60f81b818381518110610d81577f4e487b7100000000000000000000000000000000000000000000000000000000600052603260045260246000fd5b60200101907effffffffffffffffffffffffffffffffffffffffffffffffffffffffffffff1916908160001a905350600a85610dbd919061130c565b9450610d15565b8093505050505b919050565b6000610de3610dde8461125e565b611239565b905082815260208101848484011115610dfb57600080fd5b610e068482856113e5565b509392505050565b600081359050610e1d8161166f565b92915050565b600081359050610e3281611686565b92915050565b600081359050610e478161169d565b92915050565b600082601f830112610e5e57600080fd5b8135610e6e848260208601610dd0565b91505092915050565b600081359050610e86816116b4565b92915050565b600060208284031215610e9e57600080fd5b6000610eac84828501610e0e565b91505092915050565b60008060408385031215610ec857600080fd5b6000610ed685828601610e0e565b9250506020610ee785828601610e0e565b9150509250929050565b600080600060608486031215610f0657600080fd5b6000610f1486828701610e0e565b9350506020610f2586828701610e0e565b9250506040610f3686828701610e77565b9150509250925092565b60008060008060808587031215610f5657600080fd5b6000610f6487828801610e0e565b9450506020610f7587828801610e0e565b9350506040610f8687828801610e77565b925050606085013567ffffffffffffffff811115610fa357600080fd5b610faf87828801610e4d565b91505092959194509250565b60008060408385031215610fce57600080fd5b6000610fdc85828601610e0e565b9250506020610fed85828601610e23565b9150509250929050565b6000806040838503121561100a57600080fd5b600061101885828601610e0e565b925050602061102985828601610e77565b9150509250929050565b60006020828403121561104557600080fd5b600061105384828501610e38565b91505092915050565b60006020828403121561106e57600080fd5b600061107c84828501610e77565b91505092915050565b61108e81611371565b82525050565b61109d81611383565b82525050565b60006110ae8261128f565b6110b8818561129a565b93506110c88185602086016113f4565b6110d1816115c0565b840191505092915050565b60006110e78261128f565b6110f181856112ab565b93506111018185602086016113f4565b80840191505092915050565b600061111a602a8361129a565b9150611125826115d1565b604082019050919050565b600061113d602f8361129a565b915061114882611620565b604082019050919050565b61115c816113db565b82525050565b600061116e82856110dc565b915061117a82846110dc565b91508190509392505050565b600060208201905061119b6000830184611085565b92915050565b60006020820190506111b66000830184611094565b92915050565b600060208201905081810360008301526111d681846110a3565b905092915050565b600060208201905081810360008301526111f78161110d565b9050919050565b6000602082019050818103600083015261121781611130565b9050919050565b60006020820190506112336000830184611153565b92915050565b6000611243611254565b905061124f8282611459565b919050565b6000604051905090565b600067ffffffffffffffff82111561127957611278611591565b5b611282826115c0565b9050602081019050919050565b600081519050919050565b600082825260208201905092915050565b600081905092915050565b60006112c1826113db565b91506112cc836113db565b9250827fffffffffffffffffffffffffffffffffffffffffffffffffffffffffffffffff0382111561130157611300611504565b5b828201905092915050565b6000611317826113db565b9150611322836113db565b92508261133257611331611533565b5b828204905092915050565b6000611348826113db565b9150611353836113db565b92508282101561136657611365611504565b5b828203905092915050565b600061137c826113bb565b9050919050565b60008115159050919050565b60007fffffffff0000000000000000000000000000000000000000000000000000000082169050919050565b600073ffffffffffffffffffffffffffffffffffffffff82169050919050565b6000819050919050565b82818337600083830152505050565b60005b838110156114125780820151818401526020810190506113f7565b83811115611421576000848401525b50505050565b6000600282049050600182168061143f57607f821691505b6020821081141561145357611452611562565b5b50919050565b611462826115c0565b810181811067ffffffffffffffff8211171561148157611480611591565b5b80604052505050565b6000611495826113db565b91507fffffffffffffffffffffffffffffffffffffffffffffffffffffffffffffffff8214156114c8576114c7611504565b5b600182019050919050565b60006114de826113db565b91506114e9836113db565b9250826114f9576114f8611533565b5b828206905092915050565b7f4e487b7100000000000000000000000000000000000000000000000000000000600052601160045260246000fd5b7f4e487b7100000000000000000000000000000000000000000000000000000000600052601260045260246000fd5b7f4e487b7100000000000000000000000000000000000000000000000000000000600052602260045260246000fd5b7f4e487b7100000000000000000000000000000000000000000000000000000000600052604160045260246000fd5b6000601f19601f8301169050919050565b7f4552433732313a2062616c616e636520717565727920666f7220746865207a6560008201527f726f206164647265737300000000000000000000000000000000000000000000602082015250565b7f4552433732314d657461646174613a2055524920717565727920666f72206e6f60008201527f6e6578697374656e7420746f6b656e0000000000000000000000000000000000602082015250565b61167881611371565b811461168357600080fd5b50565b61168f81611383565b811461169a57600080fd5b50565b6116a68161138f565b81146116b157600080fd5b50565b6116bd816113db565b81146116c857600080fd5b5056fea2646970667358221220780930102f95a68cb58120fc3b1d062c9ff92d10a61d5b55b652ebc35df5cd9164736f6c63430008040033",
  "linkReferences": {},
  "deployedLinkReferences": {}
}