{
  "_format": "hh-sol-artifact-1",
  "contractName": "ERC721PresetMinterPauserAutoId",
  "sourceName": "contracts/src/OpenZeppelin/presets/ERC721PresetMinterPauserAutoId.sol",
  "abi": [
    {
      "inputs": [
        {
          "internalType": "string",
          "name": "name",
          "type": "string"
        },
        {
          "internalType": "string",
          "name": "symbol",
          "type": "string"
        },
        {
          "internalType": "string",
          "name": "baseURI",
          "type": "string"
        }
      ],
      "stateMutability": "nonpayable",
      "type": "constructor"
    },
    {
      "anonymous": false,
      "inputs": [
        {
          "indexed": true,
          "internalType": "address",
          "name": "owner",
          "type": "address"
        },
        {
          "indexed": true,
          "internalType": "address",
          "name": "approved",
          "type": "address"
        },
        {
          "indexed": true,
          "internalType": "uint256",
          "name": "tokenId",
          "type": "uint256"
        }
      ],
      "name": "Approval",
      "type": "event"
    },
    {
      "anonymous": false,
      "inputs": [
        {
          "indexed": true,
          "internalType": "address",
          "name": "owner",
          "type": "address"
        },
        {
          "indexed": true,
          "internalType": "address",
          "name": "operator",
          "type": "address"
        },
        {
          "indexed": false,
          "internalType": "bool",
          "name": "approved",
          "type": "bool"
        }
      ],
      "name": "ApprovalForAll",
      "type": "event"
    },
    {
      "anonymous": false,
      "inputs": [
        {
          "indexed": false,
          "internalType": "address",
          "name": "account",
          "type": "address"
        }
      ],
      "name": "Paused",
      "type": "event"
    },
    {
      "anonymous": false,
      "inputs": [
        {
          "indexed": true,
          "internalType": "bytes32",
          "name": "role",
          "type": "bytes32"
        },
        {
          "indexed": true,
          "internalType": "bytes32",
          "name": "previousAdminRole",
          "type": "bytes32"
        },
        {
          "indexed": true,
          "internalType": "bytes32",
          "name": "newAdminRole",
          "type": "bytes32"
        }
      ],
      "name": "RoleAdminChanged",
      "type": "event"
    },
    {
      "anonymous": false,
      "inputs": [
        {
          "indexed": true,
          "internalType": "bytes32",
          "name": "role",
          "type": "bytes32"
        },
        {
          "indexed": true,
          "internalType": "address",
          "name": "account",
          "type": "address"
        },
        {
          "indexed": true,
          "internalType": "address",
          "name": "sender",
          "type": "address"
        }
      ],
      "name": "RoleGranted",
      "type": "event"
    },
    {
      "anonymous": false,
      "inputs": [
        {
          "indexed": true,
          "internalType": "bytes32",
          "name": "role",
          "type": "bytes32"
        },
        {
          "indexed": true,
          "internalType": "address",
          "name": "account",
          "type": "address"
        },
        {
          "indexed": true,
          "internalType": "address",
          "name": "sender",
          "type": "address"
        }
      ],
      "name": "RoleRevoked",
      "type": "event"
    },
    {
      "anonymous": false,
      "inputs": [
        {
          "indexed": true,
          "internalType": "address",
          "name": "from",
          "type": "address"
        },
        {
          "indexed": true,
          "internalType": "address",
          "name": "to",
          "type": "address"
        },
        {
          "indexed": true,
          "internalType": "uint256",
          "name": "tokenId",
          "type": "uint256"
        }
      ],
      "name": "Transfer",
      "type": "event"
    },
    {
      "anonymous": false,
      "inputs": [
        {
          "indexed": false,
          "internalType": "address",
          "name": "account",
          "type": "address"
        }
      ],
      "name": "Unpaused",
      "type": "event"
    },
    {
      "inputs": [],
      "name": "DEFAULT_ADMIN_ROLE",
      "outputs": [
        {
          "internalType": "bytes32",
          "name": "",
          "type": "bytes32"
        }
      ],
      "stateMutability": "view",
      "type": "function"
    },
    {
      "inputs": [],
      "name": "MINTER_ROLE",
      "outputs": [
        {
          "internalType": "bytes32",
          "name": "",
          "type": "bytes32"
        }
      ],
      "stateMutability": "view",
      "type": "function"
    },
    {
      "inputs": [],
      "name": "PAUSER_ROLE",
      "outputs": [
        {
          "internalType": "bytes32",
          "name": "",
          "type": "bytes32"
        }
      ],
      "stateMutability": "view",
      "type": "function"
    },
    {
      "inputs": [
        {
          "internalType": "address",
          "name": "to",
          "type": "address"
        },
        {
          "internalType": "uint256",
          "name": "tokenId",
          "type": "uint256"
        }
      ],
      "name": "approve",
      "outputs": [],
      "stateMutability": "nonpayable",
      "type": "function"
    },
    {
      "inputs": [
        {
          "internalType": "address",
          "name": "owner",
          "type": "address"
        }
      ],
      "name": "balanceOf",
      "outputs": [
        {
          "internalType": "uint256",
          "name": "",
          "type": "uint256"
        }
      ],
      "stateMutability": "view",
      "type": "function"
    },
    {
      "inputs": [],
      "name": "baseURI",
      "outputs": [
        {
          "internalType": "string",
          "name": "",
          "type": "string"
        }
      ],
      "stateMutability": "view",
      "type": "function"
    },
    {
      "inputs": [
        {
          "internalType": "uint256",
          "name": "tokenId",
          "type": "uint256"
        }
      ],
      "name": "burn",
      "outputs": [],
      "stateMutability": "nonpayable",
      "type": "function"
    },
    {
      "inputs": [
        {
          "internalType": "uint256",
          "name": "tokenId",
          "type": "uint256"
        }
      ],
      "name": "getApproved",
      "outputs": [
        {
          "internalType": "address",
          "name": "",
          "type": "address"
        }
      ],
      "stateMutability": "view",
      "type": "function"
    },
    {
      "inputs": [
        {
          "internalType": "bytes32",
          "name": "role",
          "type": "bytes32"
        }
      ],
      "name": "getRoleAdmin",
      "outputs": [
        {
          "internalType": "bytes32",
          "name": "",
          "type": "bytes32"
        }
      ],
      "stateMutability": "view",
      "type": "function"
    },
    {
      "inputs": [
        {
          "internalType": "bytes32",
          "name": "role",
          "type": "bytes32"
        },
        {
          "internalType": "uint256",
          "name": "index",
          "type": "uint256"
        }
      ],
      "name": "getRoleMember",
      "outputs": [
        {
          "internalType": "address",
          "name": "",
          "type": "address"
        }
      ],
      "stateMutability": "view",
      "type": "function"
    },
    {
      "inputs": [
        {
          "internalType": "bytes32",
          "name": "role",
          "type": "bytes32"
        }
      ],
      "name": "getRoleMemberCount",
      "outputs": [
        {
          "internalType": "uint256",
          "name": "",
          "type": "uint256"
        }
      ],
      "stateMutability": "view",
      "type": "function"
    },
    {
      "inputs": [
        {
          "internalType": "bytes32",
          "name": "role",
          "type": "bytes32"
        },
        {
          "internalType": "address",
          "name": "account",
          "type": "address"
        }
      ],
      "name": "grantRole",
      "outputs": [],
      "stateMutability": "nonpayable",
      "type": "function"
    },
    {
      "inputs": [
        {
          "internalType": "bytes32",
          "name": "role",
          "type": "bytes32"
        },
        {
          "internalType": "address",
          "name": "account",
          "type": "address"
        }
      ],
      "name": "hasRole",
      "outputs": [
        {
          "internalType": "bool",
          "name": "",
          "type": "bool"
        }
      ],
      "stateMutability": "view",
      "type": "function"
    },
    {
      "inputs": [
        {
          "internalType": "address",
          "name": "owner",
          "type": "address"
        },
        {
          "internalType": "address",
          "name": "operator",
          "type": "address"
        }
      ],
      "name": "isApprovedForAll",
      "outputs": [
        {
          "internalType": "bool",
          "name": "",
          "type": "bool"
        }
      ],
      "stateMutability": "view",
      "type": "function"
    },
    {
      "inputs": [
        {
          "internalType": "address",
          "name": "to",
          "type": "address"
        }
      ],
      "name": "mint",
      "outputs": [],
      "stateMutability": "nonpayable",
      "type": "function"
    },
    {
      "inputs": [],
      "name": "name",
      "outputs": [
        {
          "internalType": "string",
          "name": "",
          "type": "string"
        }
      ],
      "stateMutability": "view",
      "type": "function"
    },
    {
      "inputs": [
        {
          "internalType": "uint256",
          "name": "tokenId",
          "type": "uint256"
        }
      ],
      "name": "ownerOf",
      "outputs": [
        {
          "internalType": "address",
          "name": "",
          "type": "address"
        }
      ],
      "stateMutability": "view",
      "type": "function"
    },
    {
      "inputs": [],
      "name": "pause",
      "outputs": [],
      "stateMutability": "nonpayable",
      "type": "function"
    },
    {
      "inputs": [],
      "name": "paused",
      "outputs": [
        {
          "internalType": "bool",
          "name": "",
          "type": "bool"
        }
      ],
      "stateMutability": "view",
      "type": "function"
    },
    {
      "inputs": [
        {
          "internalType": "bytes32",
          "name": "role",
          "type": "bytes32"
        },
        {
          "internalType": "address",
          "name": "account",
          "type": "address"
        }
      ],
      "name": "renounceRole",
      "outputs": [],
      "stateMutability": "nonpayable",
      "type": "function"
    },
    {
      "inputs": [
        {
          "internalType": "bytes32",
          "name": "role",
          "type": "bytes32"
        },
        {
          "internalType": "address",
          "name": "account",
          "type": "address"
        }
      ],
      "name": "revokeRole",
      "outputs": [],
      "stateMutability": "nonpayable",
      "type": "function"
    },
    {
      "inputs": [
        {
          "internalType": "address",
          "name": "from",
          "type": "address"
        },
        {
          "internalType": "address",
          "name": "to",
          "type": "address"
        },
        {
          "internalType": "uint256",
          "name": "tokenId",
          "type": "uint256"
        }
      ],
      "name": "safeTransferFrom",
      "outputs": [],
      "stateMutability": "nonpayable",
      "type": "function"
    },
    {
      "inputs": [
        {
          "internalType": "address",
          "name": "from",
          "type": "address"
        },
        {
          "internalType": "address",
          "name": "to",
          "type": "address"
        },
        {
          "internalType": "uint256",
          "name": "tokenId",
          "type": "uint256"
        },
        {
          "internalType": "bytes",
          "name": "_data",
          "type": "bytes"
        }
      ],
      "name": "safeTransferFrom",
      "outputs": [],
      "stateMutability": "nonpayable",
      "type": "function"
    },
    {
      "inputs": [
        {
          "internalType": "address",
          "name": "operator",
          "type": "address"
        },
        {
          "internalType": "bool",
          "name": "approved",
          "type": "bool"
        }
      ],
      "name": "setApprovalForAll",
      "outputs": [],
      "stateMutability": "nonpayable",
      "type": "function"
    },
    {
      "inputs": [
        {
          "internalType": "bytes4",
          "name": "interfaceId",
          "type": "bytes4"
        }
      ],
      "name": "supportsInterface",
      "outputs": [
        {
          "internalType": "bool",
          "name": "",
          "type": "bool"
        }
      ],
      "stateMutability": "view",
      "type": "function"
    },
    {
      "inputs": [],
      "name": "symbol",
      "outputs": [
        {
          "internalType": "string",
          "name": "",
          "type": "string"
        }
      ],
      "stateMutability": "view",
      "type": "function"
    },
    {
      "inputs": [
        {
          "internalType": "uint256",
          "name": "index",
          "type": "uint256"
        }
      ],
      "name": "tokenByIndex",
      "outputs": [
        {
          "internalType": "uint256",
          "name": "",
          "type": "uint256"
        }
      ],
      "stateMutability": "view",
      "type": "function"
    },
    {
      "inputs": [
        {
          "internalType": "address",
          "name": "owner",
          "type": "address"
        },
        {
          "internalType": "uint256",
          "name": "index",
          "type": "uint256"
        }
      ],
      "name": "tokenOfOwnerByIndex",
      "outputs": [
        {
          "internalType": "uint256",
          "name": "",
          "type": "uint256"
        }
      ],
      "stateMutability": "view",
      "type": "function"
    },
    {
      "inputs": [
        {
          "internalType": "uint256",
          "name": "tokenId",
          "type": "uint256"
        }
      ],
      "name": "tokenURI",
      "outputs": [
        {
          "internalType": "string",
          "name": "",
          "type": "string"
        }
      ],
      "stateMutability": "view",
      "type": "function"
    },
    {
      "inputs": [],
      "name": "totalSupply",
      "outputs": [
        {
          "internalType": "uint256",
          "name": "",
          "type": "uint256"
        }
      ],
      "stateMutability": "view",
      "type": "function"
    },
    {
      "inputs": [
        {
          "internalType": "address",
          "name": "from",
          "type": "address"
        },
        {
          "internalType": "address",
          "name": "to",
          "type": "address"
        },
        {
          "internalType": "uint256",
          "name": "tokenId",
          "type": "uint256"
        }
      ],
      "name": "transferFrom",
      "outputs": [],
      "stateMutability": "nonpayable",
      "type": "function"
    },
    {
      "inputs": [],
      "name": "unpause",
      "outputs": [],
      "stateMutability": "nonpayable",
      "type": "function"
    }
  ],
  "bytecode": "0x60806040523480156200001157600080fd5b5060405162004b1138038062004b118339818101604052810190620000379190620005b8565b82826200006a7f01ffc9a7000000000000000000000000000000000000000000000000000000006200020c60201b60201c565b81600790805190602001906200008292919062000496565b5080600890805190602001906200009b92919062000496565b50620000cd7f80ac58cd000000000000000000000000000000000000000000000000000000006200020c60201b60201c565b620000fe7f5b5e139f000000000000000000000000000000000000000000000000000000006200020c60201b60201c565b6200012f7f780e9d63000000000000000000000000000000000000000000000000000000006200020c60201b60201c565b50506000600b60006101000a81548160ff021916908315150217905550620001706000801b62000164620002e460201b60201c565b620002ec60201b60201c565b620001b17f9f2df0fed2c77648de5860a4cc508cd0818c85b8b8a1ab4ceeef8d981c8956a6620001a5620002e460201b60201c565b620002ec60201b60201c565b620001f27f65d7a28e3265b37a6474929f336521b332c1681b933f6cb9f3376673440d862a620001e6620002e460201b60201c565b620002ec60201b60201c565b62000203816200030260201b60201c565b5050506200084c565b63ffffffff60e01b817bffffffffffffffffffffffffffffffffffffffffffffffffffffffff1916141562000278576040517f08c379a00000000000000000000000000000000000000000000000000000000081526004016200026f9062000680565b60405180910390fd5b6001806000837bffffffffffffffffffffffffffffffffffffffffffffffffffffffff19167bffffffffffffffffffffffffffffffffffffffffffffffffffffffff1916815260200190815260200160002060006101000a81548160ff02191690831515021790555050565b600033905090565b620002fe82826200031e60201b60201c565b5050565b80600a90805190602001906200031a92919062000496565b5050565b6200034c81600080858152602001908152602001600020600001620003c160201b620014511790919060201c565b15620003bd5762000362620002e460201b60201c565b73ffffffffffffffffffffffffffffffffffffffff168173ffffffffffffffffffffffffffffffffffffffff16837f2f8788117e7eff1d82e926ec794901d17c78024a50270940304540a733656f0d60405160405180910390a45b5050565b6000620003f1836000018373ffffffffffffffffffffffffffffffffffffffff1660001b620003f960201b60201c565b905092915050565b60006200040d83836200047360201b60201c565b620004685782600001829080600181540180825580915050600190039060005260206000200160009091909190915055826000018054905083600101600084815260200190815260200160002081905550600190506200046d565b600090505b92915050565b600080836001016000848152602001908152602001600020541415905092915050565b828054620004a49062000748565b90600052602060002090601f016020900481019282620004c8576000855562000514565b82601f10620004e357805160ff191683800117855562000514565b8280016001018555821562000514579182015b8281111562000513578251825591602001919060010190620004f6565b5b50905062000523919062000527565b5090565b5b808211156200054257600081600090555060010162000528565b5090565b60006200055d6200055784620006cb565b620006a2565b9050828152602081018484840111156200057657600080fd5b6200058384828562000712565b509392505050565b600082601f8301126200059d57600080fd5b8151620005af84826020860162000546565b91505092915050565b600080600060608486031215620005ce57600080fd5b600084015167ffffffffffffffff811115620005e957600080fd5b620005f7868287016200058b565b935050602084015167ffffffffffffffff8111156200061557600080fd5b62000623868287016200058b565b925050604084015167ffffffffffffffff8111156200064157600080fd5b6200064f868287016200058b565b9150509250925092565b600062000668601c8362000701565b9150620006758262000823565b602082019050919050565b600060208201905081810360008301526200069b8162000659565b9050919050565b6000620006ae620006c1565b9050620006bc82826200077e565b919050565b6000604051905090565b600067ffffffffffffffff821115620006e957620006e8620007e3565b5b620006f48262000812565b9050602081019050919050565b600082825260208201905092915050565b60005b838110156200073257808201518184015260208101905062000715565b8381111562000742576000848401525b50505050565b600060028204905060018216806200076157607f821691505b60208210811415620007785762000777620007b4565b5b50919050565b620007898262000812565b810181811067ffffffffffffffff82111715620007ab57620007aa620007e3565b5b80604052505050565b7f4e487b7100000000000000000000000000000000000000000000000000000000600052602260045260246000fd5b7f4e487b7100000000000000000000000000000000000000000000000000000000600052604160045260246000fd5b6000601f19601f8301169050919050565b7f4552433136353a20696e76616c696420696e7465726661636520696400000000600082015250565b6142b5806200085c6000396000f3fe608060405234801561001057600080fd5b50600436106101f05760003560e01c80636a6278421161010f578063a22cb465116100a2578063d539139311610071578063d5391393146105c9578063d547741f146105e7578063e63ab1e914610603578063e985e9c514610621576101f0565b8063a22cb46514610531578063b88d4fde1461054d578063c87b56dd14610569578063ca15c87314610599576101f0565b80639010d07c116100de5780639010d07c1461049557806391d14854146104c557806395d89b41146104f5578063a217fddf14610513576101f0565b80636a627842146104215780636c0360eb1461043d57806370a082311461045b5780638456cb591461048b576101f0565b80632f745c591161018757806342966c681161015657806342966c68146103875780634f6ccce7146103a35780635c975abb146103d35780636352211e146103f1576101f0565b80632f745c591461031557806336568abe146103455780633f4ba83a1461036157806342842e0e1461036b576101f0565b806318160ddd116101c357806318160ddd1461028f57806323b872dd146102ad578063248a9ca3146102c95780632f2ff15d146102f9576101f0565b806301ffc9a7146101f557806306fdde0314610225578063081812fc14610243578063095ea7b314610273575b600080fd5b61020f600480360381019061020a9190612e49565b610651565b60405161021c9190613399565b60405180910390f35b61022d6106b9565b60405161023a91906133cf565b60405180910390f35b61025d60048036038101906102589190612e9b565b61074b565b60405161026a9190613332565b60405180910390f35b61028d60048036038101906102889190612d6c565b6107d0565b005b6102976108e8565b6040516102a49190613711565b60405180910390f35b6102c760048036038101906102c29190612c66565b6108f9565b005b6102e360048036038101906102de9190612da8565b610959565b6040516102f091906133b4565b60405180910390f35b610313600480360381019061030e9190612dd1565b610978565b005b61032f600480360381019061032a9190612d6c565b6109eb565b60405161033c9190613711565b60405180910390f35b61035f600480360381019061035a9190612dd1565b610a46565b005b610369610ac9565b005b61038560048036038101906103809190612c66565b610b43565b005b6103a1600480360381019061039c9190612e9b565b610b63565b005b6103bd60048036038101906103b89190612e9b565b610bbf565b6040516103ca9190613711565b60405180910390f35b6103db610be2565b6040516103e89190613399565b60405180910390f35b61040b60048036038101906104069190612e9b565b610bf9565b6040516104189190613332565b60405180910390f35b61043b60048036038101906104369190612c01565b610c30565b005b610445610cc0565b60405161045291906133cf565b60405180910390f35b61047560048036038101906104709190612c01565b610d52565b6040516104829190613711565b60405180910390f35b610493610e11565b005b6104af60048036038101906104aa9190612e0d565b610e8b565b6040516104bc9190613332565b60405180910390f35b6104df60048036038101906104da9190612dd1565b610ebc565b6040516104ec9190613399565b60405180910390f35b6104fd610eed565b60405161050a91906133cf565b60405180910390f35b61051b610f7f565b60405161052891906133b4565b60405180910390f35b61054b60048036038101906105469190612d30565b610f86565b005b61056760048036038101906105629190612cb5565b611107565b005b610583600480360381019061057e9190612e9b565b611169565b60405161059091906133cf565b60405180910390f35b6105b360048036038101906105ae9190612da8565b6112dc565b6040516105c09190613711565b60405180910390f35b6105d1611302565b6040516105de91906133b4565b60405180910390f35b61060160048036038101906105fc9190612dd1565b611326565b005b61060b611399565b60405161061891906133b4565b60405180910390f35b61063b60048036038101906106369190612c2a565b6113bd565b6040516106489190613399565b60405180910390f35b600060016000837bffffffffffffffffffffffffffffffffffffffffffffffffffffffff19167bffffffffffffffffffffffffffffffffffffffffffffffffffffffff1916815260200190815260200160002060009054906101000a900460ff169050919050565b6060600780546106c890613940565b80601f01602080910402602001604051908101604052809291908181526020018280546106f490613940565b80156107415780601f1061071657610100808354040283529160200191610741565b820191906000526020600020905b81548152906001019060200180831161072457829003601f168201915b5050505050905090565b600061075682611481565b610795576040517f08c379a000000000000000000000000000000000000000000000000000000000815260040161078c906135f1565b60405180910390fd5b6005600083815260200190815260200160002060009054906101000a900473ffffffffffffffffffffffffffffffffffffffff169050919050565b60006107db82610bf9565b90508073ffffffffffffffffffffffffffffffffffffffff168373ffffffffffffffffffffffffffffffffffffffff16141561084c576040517f08c379a000000000000000000000000000000000000000000000000000000000815260040161084390613651565b60405180910390fd5b8073ffffffffffffffffffffffffffffffffffffffff1661086b61149e565b73ffffffffffffffffffffffffffffffffffffffff16148061089a57506108998161089461149e565b6113bd565b5b6108d9576040517f08c379a00000000000000000000000000000000000000000000000000000000081526004016108d090613571565b60405180910390fd5b6108e383836114a6565b505050565b60006108f4600361155f565b905090565b61090a61090461149e565b82611574565b610949576040517f08c379a000000000000000000000000000000000000000000000000000000000815260040161094090613671565b60405180910390fd5b610954838383611652565b505050565b6000806000838152602001908152602001600020600201549050919050565b61099e6000808481526020019081526020016000206002015461099961149e565b610ebc565b6109dd576040517f08c379a00000000000000000000000000000000000000000000000000000000081526004016109d490613431565b60405180910390fd5b6109e78282611869565b5050565b6000610a3e82600260008673ffffffffffffffffffffffffffffffffffffffff1673ffffffffffffffffffffffffffffffffffffffff1681526020019081526020016000206118fc90919063ffffffff16565b905092915050565b610a4e61149e565b73ffffffffffffffffffffffffffffffffffffffff168173ffffffffffffffffffffffffffffffffffffffff1614610abb576040517f08c379a0000000000000000000000000000000000000000000000000000000008152600401610ab2906136f1565b60405180910390fd5b610ac58282611916565b5050565b610afa7f65d7a28e3265b37a6474929f336521b332c1681b933f6cb9f3376673440d862a610af561149e565b610ebc565b610b39576040517f08c379a0000000000000000000000000000000000000000000000000000000008152600401610b30906136d1565b60405180910390fd5b610b416119a9565b565b610b5e83838360405180602001604052806000815250611107565b505050565b610b74610b6e61149e565b82611574565b610bb3576040517f08c379a0000000000000000000000000000000000000000000000000000000008152600401610baa906136b1565b60405180910390fd5b610bbc81611a4b565b50565b600080610bd6836003611b7d90919063ffffffff16565b50905080915050919050565b6000600b60009054906101000a900460ff16905090565b6000610c2982604051806060016040528060298152602001614257602991396003611ba99092919063ffffffff16565b9050919050565b610c617f9f2df0fed2c77648de5860a4cc508cd0818c85b8b8a1ab4ceeef8d981c8956a6610c5c61149e565b610ebc565b610ca0576040517f08c379a0000000000000000000000000000000000000000000000000000000008152600401610c9790613691565b60405180910390fd5b610cb381610cae600c611bc8565b611bd6565b610cbd600c611d64565b50565b6060600a8054610ccf90613940565b80601f0160208091040260200160405190810160405280929190818152602001828054610cfb90613940565b8015610d485780601f10610d1d57610100808354040283529160200191610d48565b820191906000526020600020905b815481529060010190602001808311610d2b57829003601f168201915b5050505050905090565b60008073ffffffffffffffffffffffffffffffffffffffff168273ffffffffffffffffffffffffffffffffffffffff161415610dc3576040517f08c379a0000000000000000000000000000000000000000000000000000000008152600401610dba90613591565b60405180910390fd5b610e0a600260008473ffffffffffffffffffffffffffffffffffffffff1673ffffffffffffffffffffffffffffffffffffffff168152602001908152602001600020611d7a565b9050919050565b610e427f65d7a28e3265b37a6474929f336521b332c1681b933f6cb9f3376673440d862a610e3d61149e565b610ebc565b610e81576040517f08c379a0000000000000000000000000000000000000000000000000000000008152600401610e78906134b1565b60405180910390fd5b610e89611d8f565b565b6000610eb482600080868152602001908152602001600020600001611e3290919063ffffffff16565b905092915050565b6000610ee582600080868152602001908152602001600020600001611e4c90919063ffffffff16565b905092915050565b606060088054610efc90613940565b80601f0160208091040260200160405190810160405280929190818152602001828054610f2890613940565b8015610f755780601f10610f4a57610100808354040283529160200191610f75565b820191906000526020600020905b815481529060010190602001808311610f5857829003601f168201915b5050505050905090565b6000801b81565b610f8e61149e565b73ffffffffffffffffffffffffffffffffffffffff168273ffffffffffffffffffffffffffffffffffffffff161415610ffc576040517f08c379a0000000000000000000000000000000000000000000000000000000008152600401610ff3906134f1565b60405180910390fd5b806006600061100961149e565b73ffffffffffffffffffffffffffffffffffffffff1673ffffffffffffffffffffffffffffffffffffffff16815260200190815260200160002060008473ffffffffffffffffffffffffffffffffffffffff1673ffffffffffffffffffffffffffffffffffffffff16815260200190815260200160002060006101000a81548160ff0219169083151502179055508173ffffffffffffffffffffffffffffffffffffffff166110b661149e565b73ffffffffffffffffffffffffffffffffffffffff167f17307eab39ab6107e8899845ad3d59bd9653f200f220920489ca2b5937696c31836040516110fb9190613399565b60405180910390a35050565b61111861111261149e565b83611574565b611157576040517f08c379a000000000000000000000000000000000000000000000000000000000815260040161114e90613671565b60405180910390fd5b61116384848484611e7c565b50505050565b606061117482611481565b6111b3576040517f08c379a00000000000000000000000000000000000000000000000000000000081526004016111aa90613631565b60405180910390fd5b60006009600084815260200190815260200160002080546111d390613940565b80601f01602080910402602001604051908101604052809291908181526020018280546111ff90613940565b801561124c5780601f106112215761010080835404028352916020019161124c565b820191906000526020600020905b81548152906001019060200180831161122f57829003601f168201915b50505050509050600061125d610cc0565b90506000815114156112735781925050506112d7565b6000825111156112a857808260405160200161129092919061330e565b604051602081830303815290604052925050506112d7565b806112b285611ed8565b6040516020016112c392919061330e565b604051602081830303815290604052925050505b919050565b60006112fb600080848152602001908152602001600020600001612085565b9050919050565b7f9f2df0fed2c77648de5860a4cc508cd0818c85b8b8a1ab4ceeef8d981c8956a681565b61134c6000808481526020019081526020016000206002015461134761149e565b610ebc565b61138b576040517f08c379a000000000000000000000000000000000000000000000000000000000815260040161138290613531565b60405180910390fd5b6113958282611916565b5050565b7f65d7a28e3265b37a6474929f336521b332c1681b933f6cb9f3376673440d862a81565b6000600660008473ffffffffffffffffffffffffffffffffffffffff1673ffffffffffffffffffffffffffffffffffffffff16815260200190815260200160002060008373ffffffffffffffffffffffffffffffffffffffff1673ffffffffffffffffffffffffffffffffffffffff16815260200190815260200160002060009054906101000a900460ff16905092915050565b6000611479836000018373ffffffffffffffffffffffffffffffffffffffff1660001b61209a565b905092915050565b600061149782600361210a90919063ffffffff16565b9050919050565b600033905090565b816005600083815260200190815260200160002060006101000a81548173ffffffffffffffffffffffffffffffffffffffff021916908373ffffffffffffffffffffffffffffffffffffffff160217905550808273ffffffffffffffffffffffffffffffffffffffff1661151983610bf9565b73ffffffffffffffffffffffffffffffffffffffff167f8c5be1e5ebec7d5bd14f71427d1e84f3dd0314c0f7b2291e5b200ac8c7c3b92560405160405180910390a45050565b600061156d82600001612124565b9050919050565b600061157f82611481565b6115be576040517f08c379a00000000000000000000000000000000000000000000000000000000081526004016115b590613511565b60405180910390fd5b60006115c983610bf9565b90508073ffffffffffffffffffffffffffffffffffffffff168473ffffffffffffffffffffffffffffffffffffffff16148061163857508373ffffffffffffffffffffffffffffffffffffffff166116208461074b565b73ffffffffffffffffffffffffffffffffffffffff16145b80611649575061164881856113bd565b5b91505092915050565b8273ffffffffffffffffffffffffffffffffffffffff1661167282610bf9565b73ffffffffffffffffffffffffffffffffffffffff16146116c8576040517f08c379a00000000000000000000000000000000000000000000000000000000081526004016116bf90613611565b60405180910390fd5b600073ffffffffffffffffffffffffffffffffffffffff168273ffffffffffffffffffffffffffffffffffffffff161415611738576040517f08c379a000000000000000000000000000000000000000000000000000000000815260040161172f906134d1565b60405180910390fd5b611743838383612135565b61174e6000826114a6565b61179f81600260008673ffffffffffffffffffffffffffffffffffffffff1673ffffffffffffffffffffffffffffffffffffffff16815260200190815260200160002061214590919063ffffffff16565b506117f181600260008573ffffffffffffffffffffffffffffffffffffffff1673ffffffffffffffffffffffffffffffffffffffff16815260200190815260200160002061215f90919063ffffffff16565b50611808818360036121799092919063ffffffff16565b50808273ffffffffffffffffffffffffffffffffffffffff168473ffffffffffffffffffffffffffffffffffffffff167fddf252ad1be2c89b69c2b068fc378daa952ba7f163c4a11628f55a4df523b3ef60405160405180910390a4505050565b6118908160008085815260200190815260200160002060000161145190919063ffffffff16565b156118f85761189d61149e565b73ffffffffffffffffffffffffffffffffffffffff168173ffffffffffffffffffffffffffffffffffffffff16837f2f8788117e7eff1d82e926ec794901d17c78024a50270940304540a733656f0d60405160405180910390a45b5050565b600061190b83600001836121ae565b60001c905092915050565b61193d8160008085815260200190815260200160002060000161224890919063ffffffff16565b156119a55761194a61149e565b73ffffffffffffffffffffffffffffffffffffffff168173ffffffffffffffffffffffffffffffffffffffff16837ff6391f5c32d9c69d2a47ea670b442974b53935d1edc7fd64eb21e047a839171b60405160405180910390a45b5050565b6119b1610be2565b6119f0576040517f08c379a00000000000000000000000000000000000000000000000000000000081526004016119e790613451565b60405180910390fd5b6000600b60006101000a81548160ff0219169083151502179055507f5db9ee0a495bf2e6ff9c91a7834c1ba4fdd244a5e8aa4e537bd38aeae4b073aa611a3461149e565b604051611a419190613332565b60405180910390a1565b6000611a5682610bf9565b9050611a6481600084612135565b611a6f6000836114a6565b6000600960008481526020019081526020016000208054611a8f90613940565b905014611ab657600960008381526020019081526020016000206000611ab59190612abe565b5b611b0782600260008473ffffffffffffffffffffffffffffffffffffffff1673ffffffffffffffffffffffffffffffffffffffff16815260200190815260200160002061214590919063ffffffff16565b50611b1c82600361227890919063ffffffff16565b5081600073ffffffffffffffffffffffffffffffffffffffff168273ffffffffffffffffffffffffffffffffffffffff167fddf252ad1be2c89b69c2b068fc378daa952ba7f163c4a11628f55a4df523b3ef60405160405180910390a45050565b600080600080611b908660000186612292565b915091508160001c8160001c9350935050509250929050565b6000611bbc846000018460001b84612342565b60001c90509392505050565b600081600001549050919050565b600073ffffffffffffffffffffffffffffffffffffffff168273ffffffffffffffffffffffffffffffffffffffff161415611c46576040517f08c379a0000000000000000000000000000000000000000000000000000000008152600401611c3d906135d1565b60405180910390fd5b611c4f81611481565b15611c8f576040517f08c379a0000000000000000000000000000000000000000000000000000000008152600401611c8690613491565b60405180910390fd5b611c9b60008383612135565b611cec81600260008573ffffffffffffffffffffffffffffffffffffffff1673ffffffffffffffffffffffffffffffffffffffff16815260200190815260200160002061215f90919063ffffffff16565b50611d03818360036121799092919063ffffffff16565b50808273ffffffffffffffffffffffffffffffffffffffff16600073ffffffffffffffffffffffffffffffffffffffff167fddf252ad1be2c89b69c2b068fc378daa952ba7f163c4a11628f55a4df523b3ef60405160405180910390a45050565b6001816000016000828254019250508190555050565b6000611d8882600001612409565b9050919050565b611d97610be2565b15611dd7576040517f08c379a0000000000000000000000000000000000000000000000000000000008152600401611dce90613551565b60405180910390fd5b6001600b60006101000a81548160ff0219169083151502179055507f62e78cea01bee320cd4e420270b5ea74000d11b0c9f74754ebdbfc544b05a258611e1b61149e565b604051611e289190613332565b60405180910390a1565b6000611e4183600001836121ae565b60001c905092915050565b6000611e74836000018373ffffffffffffffffffffffffffffffffffffffff1660001b61241a565b905092915050565b611e87848484611652565b611e938484848461243d565b611ed2576040517f08c379a0000000000000000000000000000000000000000000000000000000008152600401611ec990613471565b60405180910390fd5b50505050565b60606000821415611f20576040518060400160405280600181526020017f30000000000000000000000000000000000000000000000000000000000000008152509050612080565b600082905060005b60008214611f52578080611f3b906139a3565b915050600a82611f4b919061381b565b9150611f28565b60008167ffffffffffffffff811115611f94577f4e487b7100000000000000000000000000000000000000000000000000000000600052604160045260246000fd5b6040519080825280601f01601f191660200182016040528015611fc65781602001600182028036833780820191505090505b5090505b6000851461207957600182611fdf919061384c565b9150600a85611fee91906139ec565b6030611ffa91906137c5565b60f81b818381518110612036577f4e487b7100000000000000000000000000000000000000000000000000000000600052603260045260246000fd5b60200101907effffffffffffffffffffffffffffffffffffffffffffffffffffffffffffff1916908160001a905350600a85612072919061381b565b9450611fca565b8093505050505b919050565b600061209382600001612409565b9050919050565b60006120a6838361241a565b6120ff578260000182908060018154018082558091505060019003906000526020600020016000909190919091505582600001805490508360010160008481526020019081526020016000208190555060019050612104565b600090505b92915050565b600061211c836000018360001b6125d4565b905092915050565b600081600001805490509050919050565b6121408383836125f7565b505050565b6000612157836000018360001b61264f565b905092915050565b6000612171836000018360001b61209a565b905092915050565b60006121a5846000018460001b8473ffffffffffffffffffffffffffffffffffffffff1660001b6127d9565b90509392505050565b6000818360000180549050116121f9576040517f08c379a00000000000000000000000000000000000000000000000000000000081526004016121f0906133f1565b60405180910390fd5b826000018281548110612235577f4e487b7100000000000000000000000000000000000000000000000000000000600052603260045260246000fd5b9060005260206000200154905092915050565b6000612270836000018373ffffffffffffffffffffffffffffffffffffffff1660001b61264f565b905092915050565b600061228a836000018360001b6128eb565b905092915050565b600080828460000180549050116122de576040517f08c379a00000000000000000000000000000000000000000000000000000000081526004016122d5906135b1565b60405180910390fd5b600084600001848154811061231c577f4e487b7100000000000000000000000000000000000000000000000000000000600052603260045260246000fd5b906000526020600020906002020190508060000154816001015492509250509250929050565b600080846001016000858152602001908152602001600020549050600081141583906123a4576040517f08c379a000000000000000000000000000000000000000000000000000000000815260040161239b91906133cf565b60405180910390fd5b50846000016001826123b6919061384c565b815481106123ed577f4e487b7100000000000000000000000000000000000000000000000000000000600052603260045260246000fd5b9060005260206000209060020201600101549150509392505050565b600081600001805490509050919050565b600080836001016000848152602001908152602001600020541415905092915050565b600061245e8473ffffffffffffffffffffffffffffffffffffffff16612aa6565b156125c7578373ffffffffffffffffffffffffffffffffffffffff1663150b7a0261248761149e565b8786866040518563ffffffff1660e01b81526004016124a9949392919061334d565b602060405180830381600087803b1580156124c357600080fd5b505af19250505080156124f457506040513d601f19601f820116820180604052508101906124f19190612e72565b60015b612577573d8060008114612524576040519150601f19603f3d011682016040523d82523d6000602084013e612529565b606091505b5060008151141561256f576040517f08c379a000000000000000000000000000000000000000000000000000000000815260040161256690613471565b60405180910390fd5b805181602001fd5b63150b7a0260e01b7bffffffffffffffffffffffffffffffffffffffffffffffffffffffff1916817bffffffffffffffffffffffffffffffffffffffffffffffffffffffff1916149150506125cc565b600190505b949350505050565b600080836001016000848152602001908152602001600020541415905092915050565b612602838383612ab9565b61260a610be2565b1561264a576040517f08c379a000000000000000000000000000000000000000000000000000000000815260040161264190613411565b60405180910390fd5b505050565b600080836001016000848152602001908152602001600020549050600081146127cd576000600182612681919061384c565b9050600060018660000180549050612699919061384c565b905060008660000182815481106126d9577f4e487b7100000000000000000000000000000000000000000000000000000000600052603260045260246000fd5b9060005260206000200154905080876000018481548110612723577f4e487b7100000000000000000000000000000000000000000000000000000000600052603260045260246000fd5b906000526020600020018190555060018361273e91906137c5565b8760010160008381526020019081526020016000208190555086600001805480612791577f4e487b7100000000000000000000000000000000000000000000000000000000600052603160045260246000fd5b600190038181906000526020600020016000905590558660010160008781526020019081526020016000206000905560019450505050506127d3565b60009150505b92915050565b6000808460010160008581526020019081526020016000205490506000811415612880578460000160405180604001604052808681526020018581525090806001815401808255809150506001900390600052602060002090600202016000909190919091506000820151816000015560208201518160010155505084600001805490508560010160008681526020019081526020016000208190555060019150506128e4565b8285600001600183612892919061384c565b815481106128c9577f4e487b7100000000000000000000000000000000000000000000000000000000600052603260045260246000fd5b90600052602060002090600202016001018190555060009150505b9392505050565b60008083600101600084815260200190815260200160002054905060008114612a9a57600060018261291d919061384c565b9050600060018660000180549050612935919061384c565b90506000866000018281548110612975577f4e487b7100000000000000000000000000000000000000000000000000000000600052603260045260246000fd5b90600052602060002090600202019050808760000184815481106129c2577f4e487b7100000000000000000000000000000000000000000000000000000000600052603260045260246000fd5b906000526020600020906002020160008201548160000155600182015481600101559050506001836129f491906137c5565b876001016000836000015481526020019081526020016000208190555086600001805480612a4b577f4e487b7100000000000000000000000000000000000000000000000000000000600052603160045260246000fd5b6001900381819060005260206000209060020201600080820160009055600182016000905550509055866001016000878152602001908152602001600020600090556001945050505050612aa0565b60009150505b92915050565b600080823b905060008111915050919050565b505050565b508054612aca90613940565b6000825580601f10612adc5750612afb565b601f016020900490600052602060002090810190612afa9190612afe565b5b50565b5b80821115612b17576000816000905550600101612aff565b5090565b6000612b2e612b2984613751565b61372c565b905082815260208101848484011115612b4657600080fd5b612b518482856138fe565b509392505050565b600081359050612b68816141e3565b92915050565b600081359050612b7d816141fa565b92915050565b600081359050612b9281614211565b92915050565b600081359050612ba781614228565b92915050565b600081519050612bbc81614228565b92915050565b600082601f830112612bd357600080fd5b8135612be3848260208601612b1b565b91505092915050565b600081359050612bfb8161423f565b92915050565b600060208284031215612c1357600080fd5b6000612c2184828501612b59565b91505092915050565b60008060408385031215612c3d57600080fd5b6000612c4b85828601612b59565b9250506020612c5c85828601612b59565b9150509250929050565b600080600060608486031215612c7b57600080fd5b6000612c8986828701612b59565b9350506020612c9a86828701612b59565b9250506040612cab86828701612bec565b9150509250925092565b60008060008060808587031215612ccb57600080fd5b6000612cd987828801612b59565b9450506020612cea87828801612b59565b9350506040612cfb87828801612bec565b925050606085013567ffffffffffffffff811115612d1857600080fd5b612d2487828801612bc2565b91505092959194509250565b60008060408385031215612d4357600080fd5b6000612d5185828601612b59565b9250506020612d6285828601612b6e565b9150509250929050565b60008060408385031215612d7f57600080fd5b6000612d8d85828601612b59565b9250506020612d9e85828601612bec565b9150509250929050565b600060208284031215612dba57600080fd5b6000612dc884828501612b83565b91505092915050565b60008060408385031215612de457600080fd5b6000612df285828601612b83565b9250506020612e0385828601612b59565b9150509250929050565b60008060408385031215612e2057600080fd5b6000612e2e85828601612b83565b9250506020612e3f85828601612bec565b9150509250929050565b600060208284031215612e5b57600080fd5b6000612e6984828501612b98565b91505092915050565b600060208284031215612e8457600080fd5b6000612e9284828501612bad565b91505092915050565b600060208284031215612ead57600080fd5b6000612ebb84828501612bec565b91505092915050565b612ecd81613880565b82525050565b612edc81613892565b82525050565b612eeb8161389e565b82525050565b6000612efc82613782565b612f068185613798565b9350612f1681856020860161390d565b612f1f81613ad9565b840191505092915050565b6000612f358261378d565b612f3f81856137a9565b9350612f4f81856020860161390d565b612f5881613ad9565b840191505092915050565b6000612f6e8261378d565b612f7881856137ba565b9350612f8881856020860161390d565b80840191505092915050565b6000612fa16022836137a9565b9150612fac82613aea565b604082019050919050565b6000612fc4602b836137a9565b9150612fcf82613b39565b604082019050919050565b6000612fe7602f836137a9565b9150612ff282613b88565b604082019050919050565b600061300a6014836137a9565b915061301582613bd7565b602082019050919050565b600061302d6032836137a9565b915061303882613c00565b604082019050919050565b6000613050601c836137a9565b915061305b82613c4f565b602082019050919050565b6000613073603e836137a9565b915061307e82613c78565b604082019050919050565b60006130966024836137a9565b91506130a182613cc7565b604082019050919050565b60006130b96019836137a9565b91506130c482613d16565b602082019050919050565b60006130dc602c836137a9565b91506130e782613d3f565b604082019050919050565b60006130ff6030836137a9565b915061310a82613d8e565b604082019050919050565b60006131226010836137a9565b915061312d82613ddd565b602082019050919050565b60006131456038836137a9565b915061315082613e06565b604082019050919050565b6000613168602a836137a9565b915061317382613e55565b604082019050919050565b600061318b6022836137a9565b915061319682613ea4565b604082019050919050565b60006131ae6020836137a9565b91506131b982613ef3565b602082019050919050565b60006131d1602c836137a9565b91506131dc82613f1c565b604082019050919050565b60006131f46029836137a9565b91506131ff82613f6b565b604082019050919050565b6000613217602f836137a9565b915061322282613fba565b604082019050919050565b600061323a6021836137a9565b915061324582614009565b604082019050919050565b600061325d6031836137a9565b915061326882614058565b604082019050919050565b6000613280603d836137a9565b915061328b826140a7565b604082019050919050565b60006132a36030836137a9565b91506132ae826140f6565b604082019050919050565b60006132c66040836137a9565b91506132d182614145565b604082019050919050565b60006132e9602f836137a9565b91506132f482614194565b604082019050919050565b613308816138f4565b82525050565b600061331a8285612f63565b91506133268284612f63565b91508190509392505050565b60006020820190506133476000830184612ec4565b92915050565b60006080820190506133626000830187612ec4565b61336f6020830186612ec4565b61337c60408301856132ff565b818103606083015261338e8184612ef1565b905095945050505050565b60006020820190506133ae6000830184612ed3565b92915050565b60006020820190506133c96000830184612ee2565b92915050565b600060208201905081810360008301526133e98184612f2a565b905092915050565b6000602082019050818103600083015261340a81612f94565b9050919050565b6000602082019050818103600083015261342a81612fb7565b9050919050565b6000602082019050818103600083015261344a81612fda565b9050919050565b6000602082019050818103600083015261346a81612ffd565b9050919050565b6000602082019050818103600083015261348a81613020565b9050919050565b600060208201905081810360008301526134aa81613043565b9050919050565b600060208201905081810360008301526134ca81613066565b9050919050565b600060208201905081810360008301526134ea81613089565b9050919050565b6000602082019050818103600083015261350a816130ac565b9050919050565b6000602082019050818103600083015261352a816130cf565b9050919050565b6000602082019050818103600083015261354a816130f2565b9050919050565b6000602082019050818103600083015261356a81613115565b9050919050565b6000602082019050818103600083015261358a81613138565b9050919050565b600060208201905081810360008301526135aa8161315b565b9050919050565b600060208201905081810360008301526135ca8161317e565b9050919050565b600060208201905081810360008301526135ea816131a1565b9050919050565b6000602082019050818103600083015261360a816131c4565b9050919050565b6000602082019050818103600083015261362a816131e7565b9050919050565b6000602082019050818103600083015261364a8161320a565b9050919050565b6000602082019050818103600083015261366a8161322d565b9050919050565b6000602082019050818103600083015261368a81613250565b9050919050565b600060208201905081810360008301526136aa81613273565b9050919050565b600060208201905081810360008301526136ca81613296565b9050919050565b600060208201905081810360008301526136ea816132b9565b9050919050565b6000602082019050818103600083015261370a816132dc565b9050919050565b600060208201905061372660008301846132ff565b92915050565b6000613736613747565b90506137428282613972565b919050565b6000604051905090565b600067ffffffffffffffff82111561376c5761376b613aaa565b5b61377582613ad9565b9050602081019050919050565b600081519050919050565b600081519050919050565b600082825260208201905092915050565b600082825260208201905092915050565b600081905092915050565b60006137d0826138f4565b91506137db836138f4565b9250827fffffffffffffffffffffffffffffffffffffffffffffffffffffffffffffffff038211156138105761380f613a1d565b5b828201905092915050565b6000613826826138f4565b9150613831836138f4565b92508261384157613840613a4c565b5b828204905092915050565b6000613857826138f4565b9150613862836138f4565b92508282101561387557613874613a1d565b5b828203905092915050565b600061388b826138d4565b9050919050565b60008115159050919050565b6000819050919050565b60007fffffffff0000000000000000000000000000000000000000000000000000000082169050919050565b600073ffffffffffffffffffffffffffffffffffffffff82169050919050565b6000819050919050565b82818337600083830152505050565b60005b8381101561392b578082015181840152602081019050613910565b8381111561393a576000848401525b50505050565b6000600282049050600182168061395857607f821691505b6020821081141561396c5761396b613a7b565b5b50919050565b61397b82613ad9565b810181811067ffffffffffffffff8211171561399a57613999613aaa565b5b80604052505050565b60006139ae826138f4565b91507fffffffffffffffffffffffffffffffffffffffffffffffffffffffffffffffff8214156139e1576139e0613a1d565b5b600182019050919050565b60006139f7826138f4565b9150613a02836138f4565b925082613a1257613a11613a4c565b5b828206905092915050565b7f4e487b7100000000000000000000000000000000000000000000000000000000600052601160045260246000fd5b7f4e487b7100000000000000000000000000000000000000000000000000000000600052601260045260246000fd5b7f4e487b7100000000000000000000000000000000000000000000000000000000600052602260045260246000fd5b7f4e487b7100000000000000000000000000000000000000000000000000000000600052604160045260246000fd5b6000601f19601f8301169050919050565b7f456e756d657261626c655365743a20696e646578206f7574206f6620626f756e60008201527f6473000000000000000000000000000000000000000000000000000000000000602082015250565b7f4552433732315061757361626c653a20746f6b656e207472616e73666572207760008201527f68696c6520706175736564000000000000000000000000000000000000000000602082015250565b7f416363657373436f6e74726f6c3a2073656e646572206d75737420626520616e60008201527f2061646d696e20746f206772616e740000000000000000000000000000000000602082015250565b7f5061757361626c653a206e6f7420706175736564000000000000000000000000600082015250565b7f4552433732313a207472616e7366657220746f206e6f6e20455243373231526560008201527f63656976657220696d706c656d656e7465720000000000000000000000000000602082015250565b7f4552433732313a20746f6b656e20616c7265616479206d696e74656400000000600082015250565b7f4552433732315072657365744d696e7465725061757365724175746f49643a2060008201527f6d75737420686176652070617573657220726f6c6520746f2070617573650000602082015250565b7f4552433732313a207472616e7366657220746f20746865207a65726f2061646460008201527f7265737300000000000000000000000000000000000000000000000000000000602082015250565b7f4552433732313a20617070726f766520746f2063616c6c657200000000000000600082015250565b7f4552433732313a206f70657261746f7220717565727920666f72206e6f6e657860008201527f697374656e7420746f6b656e0000000000000000000000000000000000000000602082015250565b7f416363657373436f6e74726f6c3a2073656e646572206d75737420626520616e60008201527f2061646d696e20746f207265766f6b6500000000000000000000000000000000602082015250565b7f5061757361626c653a2070617573656400000000000000000000000000000000600082015250565b7f4552433732313a20617070726f76652063616c6c6572206973206e6f74206f7760008201527f6e6572206e6f7220617070726f76656420666f7220616c6c0000000000000000602082015250565b7f4552433732313a2062616c616e636520717565727920666f7220746865207a6560008201527f726f206164647265737300000000000000000000000000000000000000000000602082015250565b7f456e756d657261626c654d61703a20696e646578206f7574206f6620626f756e60008201527f6473000000000000000000000000000000000000000000000000000000000000602082015250565b7f4552433732313a206d696e7420746f20746865207a65726f2061646472657373600082015250565b7f4552433732313a20617070726f76656420717565727920666f72206e6f6e657860008201527f697374656e7420746f6b656e0000000000000000000000000000000000000000602082015250565b7f4552433732313a207472616e73666572206f6620746f6b656e2074686174206960008201527f73206e6f74206f776e0000000000000000000000000000000000000000000000602082015250565b7f4552433732314d657461646174613a2055524920717565727920666f72206e6f60008201527f6e6578697374656e7420746f6b656e0000000000000000000000000000000000602082015250565b7f4552433732313a20617070726f76616c20746f2063757272656e74206f776e6560008201527f7200000000000000000000000000000000000000000000000000000000000000602082015250565b7f4552433732313a207472616e736665722063616c6c6572206973206e6f74206f60008201527f776e6572206e6f7220617070726f766564000000000000000000000000000000602082015250565b7f4552433732315072657365744d696e7465725061757365724175746f49643a2060008201527f6d7573742068617665206d696e74657220726f6c6520746f206d696e74000000602082015250565b7f4552433732314275726e61626c653a2063616c6c6572206973206e6f74206f7760008201527f6e6572206e6f7220617070726f76656400000000000000000000000000000000602082015250565b7f4552433732315072657365744d696e7465725061757365724175746f49643a2060008201527f6d75737420686176652070617573657220726f6c6520746f20756e7061757365602082015250565b7f416363657373436f6e74726f6c3a2063616e206f6e6c792072656e6f756e636560008201527f20726f6c657320666f722073656c660000000000000000000000000000000000602082015250565b6141ec81613880565b81146141f757600080fd5b50565b61420381613892565b811461420e57600080fd5b50565b61421a8161389e565b811461422557600080fd5b50565b614231816138a8565b811461423c57600080fd5b50565b614248816138f4565b811461425357600080fd5b5056fe4552433732313a206f776e657220717565727920666f72206e6f6e6578697374656e7420746f6b656ea2646970667358221220897d87e9ab809ed01e82d5b5612c7779862fc3d0c09d1dc80d8e280f56fb400764736f6c63430008040033",
  "linkReferences": {},
  "deployedLinkReferences": {}
}