{
  "_format": "hh-sol-artifact-1",
  "contractName": "EtherReceiverMockUpgradeable",
  "sourceName": "contracts/src/OpenZeppelin/upgradeable/mocks/EtherReceiverMockUpgradeable.sol",
  "abi": [
    {
      "inputs": [
        {
          "internalType": "bool",
          "name": "acceptEther",
          "type": "bool"
        }
      ],
      "name": "setAcceptEther",
      "outputs": [],
      "stateMutability": "nonpayable",
      "type": "function"
    },
    {
      "stateMutability": "payable",
      "type": "receive"
    }
  ],
  "bytecode": "0x608060405234801561001057600080fd5b50610112806100206000396000f3fe608060405260043610601f5760003560e01c80634fea120c14604257603d565b36603d57600060029054906101000a900460ff16603b57600080fd5b005b600080fd5b348015604d57600080fd5b5060646004803603810190606091906096565b6066565b005b80600060026101000a81548160ff02191690831515021790555050565b60008135905060908160c8565b92915050565b60006020828403121560a757600080fd5b600060b3848285016083565b91505092915050565b60008115159050919050565b60cf8160bc565b811460d957600080fd5b5056fea2646970667358221220765be51a8d279e5c2c3632c749d52cbb3d6aedbb1de205aa9b368b11b7cb7b2464736f6c63430008040033",
  "linkReferences": {},
  "deployedLinkReferences": {}
}