{
  "_format": "hh-sol-artifact-1",
  "contractName": "UUPSUpgradeableMockUpgradeable",
  "sourceName": "contracts/src/OpenZeppelin/upgradeable/mocks/UUPS/TestInProdUpgradeable.sol",
  "abi": [
    {
      "anonymous": false,
      "inputs": [
        {
          "indexed": false,
          "internalType": "address",
          "name": "previousAdmin",
          "type": "address"
        },
        {
          "indexed": false,
          "internalType": "address",
          "name": "newAdmin",
          "type": "address"
        }
      ],
      "name": "AdminChanged",
      "type": "event"
    },
    {
      "anonymous": false,
      "inputs": [
        {
          "indexed": true,
          "internalType": "address",
          "name": "beacon",
          "type": "address"
        }
      ],
      "name": "BeaconUpgraded",
      "type": "event"
    },
    {
      "anonymous": false,
      "inputs": [
        {
          "indexed": true,
          "internalType": "address",
          "name": "implementation",
          "type": "address"
        }
      ],
      "name": "Upgraded",
      "type": "event"
    },
    {
      "inputs": [],
      "name": "current",
      "outputs": [
        {
          "internalType": "uint256",
          "name": "",
          "type": "uint256"
        }
      ],
      "stateMutability": "view",
      "type": "function"
    },
    {
      "inputs": [],
      "name": "decrement",
      "outputs": [],
      "stateMutability": "nonpayable",
      "type": "function"
    },
    {
      "inputs": [],
      "name": "increment",
      "outputs": [],
      "stateMutability": "nonpayable",
      "type": "function"
    },
    {
      "inputs": [],
      "name": "reset",
      "outputs": [],
      "stateMutability": "nonpayable",
      "type": "function"
    },
    {
      "inputs": [
        {
          "internalType": "address",
          "name": "newImplementation",
          "type": "address"
        }
      ],
      "name": "upgradeTo",
      "outputs": [],
      "stateMutability": "nonpayable",
      "type": "function"
    },
    {
      "inputs": [
        {
          "internalType": "address",
          "name": "newImplementation",
          "type": "address"
        },
        {
          "internalType": "bytes",
          "name": "data",
          "type": "bytes"
        }
      ],
      "name": "upgradeToAndCall",
      "outputs": [],
      "stateMutability": "payable",
      "type": "function"
    }
  ],
  "bytecode": "0x608060405234801561001057600080fd5b50610cb4806100206000396000f3fe6080604052600436106100555760003560e01c80632baeceb71461005a5780633659cfe6146100715780634f1ef2861461009a5780639fa6a6e3146100b6578063d09de08a146100e1578063d826f88f146100f8575b600080fd5b34801561006657600080fd5b5061006f61010f565b005b34801561007d57600080fd5b5061009860048036038101906100939190610733565b61011b565b005b6100b460048036038101906100af919061075c565b610142565b005b3480156100c257600080fd5b506100cb61015b565b6040516100d89190610998565b60405180910390f35b3480156100ed57600080fd5b506100f661016c565b005b34801561010457600080fd5b5061010d610178565b005b6101196001610184565b565b610124816101e0565b61013f816040518060200160405280600081525060006101e3565b50565b61014b826101e0565b610157828260016101e3565b5050565b600061016760016103b4565b905090565b61017660016103c2565b565b61018260016103d8565b565b600081600001549050600081116101d0576040517f08c379a00000000000000000000000000000000000000000000000000000000081526004016101c790610918565b60405180910390fd5b6001810382600001819055505050565b50565b60006101ed6103e5565b90506101f88461043c565b6000835111806102055750815b156102165761021484846104f5565b505b60006102447f4910fdfa16fed3260ed0e7147f7cc6da11a60208b5b9406d12a635614ffd914360001b6105d9565b90508060000160009054906101000a900460ff166103ad5760018160000160006101000a81548160ff021916908315150217905550610310858360405160240161028e91906108db565b6040516020818303038152906040527f3659cfe6000000000000000000000000000000000000000000000000000000007bffffffffffffffffffffffffffffffffffffffffffffffffffffffff19166020820180517bffffffffffffffffffffffffffffffffffffffffffffffffffffffff83818316178352505050506104f5565b5060008160000160006101000a81548160ff0219169083151502179055506103366103e5565b73ffffffffffffffffffffffffffffffffffffffff168273ffffffffffffffffffffffffffffffffffffffff16146103a3576040517f08c379a000000000000000000000000000000000000000000000000000000000815260040161039a90610938565b60405180910390fd5b6103ac856105e3565b5b5050505050565b600081600001549050919050565b6001816000016000828254019250508190555050565b6000816000018190555050565b60006104137f360894a13ba1a3210667c828492db98dca3e2076cc3735a920a3ca505d382bbc60001b610632565b60000160009054906101000a900473ffffffffffffffffffffffffffffffffffffffff16905090565b6104458161063c565b610484576040517f08c379a000000000000000000000000000000000000000000000000000000000815260040161047b90610958565b60405180910390fd5b806104b17f360894a13ba1a3210667c828492db98dca3e2076cc3735a920a3ca505d382bbc60001b610632565b60000160006101000a81548173ffffffffffffffffffffffffffffffffffffffff021916908373ffffffffffffffffffffffffffffffffffffffff16021790555050565b60606105008361063c565b61053f576040517f08c379a000000000000000000000000000000000000000000000000000000000815260040161053690610978565b60405180910390fd5b6000808473ffffffffffffffffffffffffffffffffffffffff168460405161056791906108c4565b600060405180830381855af49150503d80600081146105a2576040519150601f19603f3d011682016040523d82523d6000602084013e6105a7565b606091505b50915091506105cf8282604051806060016040528060278152602001610c586027913961064f565b9250505092915050565b6000819050919050565b6105ec8161043c565b8073ffffffffffffffffffffffffffffffffffffffff167fbc7cd75a20ee27fd9adebab32041f755214dbc6bffa90cc0225b39da2e5c2d3b60405160405180910390a250565b6000819050919050565b600080823b905060008111915050919050565b6060831561065f578290506106af565b6000835111156106725782518084602001fd5b816040517f08c379a00000000000000000000000000000000000000000000000000000000081526004016106a691906108f6565b60405180910390fd5b9392505050565b60006106c96106c4846109d8565b6109b3565b9050828152602081018484840111156106e157600080fd5b6106ec848285610a77565b509392505050565b60008135905061070381610c40565b92915050565b600082601f83011261071a57600080fd5b813561072a8482602086016106b6565b91505092915050565b60006020828403121561074557600080fd5b6000610753848285016106f4565b91505092915050565b6000806040838503121561076f57600080fd5b600061077d858286016106f4565b925050602083013567ffffffffffffffff81111561079a57600080fd5b6107a685828601610709565b9150509250929050565b6107b981610a3b565b82525050565b60006107ca82610a09565b6107d48185610a1f565b93506107e4818560208601610a86565b80840191505092915050565b60006107fb82610a14565b6108058185610a2a565b9350610815818560208601610a86565b61081e81610b19565b840191505092915050565b6000610836601b83610a2a565b915061084182610b2a565b602082019050919050565b6000610859602f83610a2a565b915061086482610b53565b604082019050919050565b600061087c602d83610a2a565b915061088782610ba2565b604082019050919050565b600061089f602683610a2a565b91506108aa82610bf1565b604082019050919050565b6108be81610a6d565b82525050565b60006108d082846107bf565b915081905092915050565b60006020820190506108f060008301846107b0565b92915050565b6000602082019050818103600083015261091081846107f0565b905092915050565b6000602082019050818103600083015261093181610829565b9050919050565b600060208201905081810360008301526109518161084c565b9050919050565b600060208201905081810360008301526109718161086f565b9050919050565b6000602082019050818103600083015261099181610892565b9050919050565b60006020820190506109ad60008301846108b5565b92915050565b60006109bd6109ce565b90506109c98282610ab9565b919050565b6000604051905090565b600067ffffffffffffffff8211156109f3576109f2610aea565b5b6109fc82610b19565b9050602081019050919050565b600081519050919050565b600081519050919050565b600081905092915050565b600082825260208201905092915050565b6000610a4682610a4d565b9050919050565b600073ffffffffffffffffffffffffffffffffffffffff82169050919050565b6000819050919050565b82818337600083830152505050565b60005b83811015610aa4578082015181840152602081019050610a89565b83811115610ab3576000848401525b50505050565b610ac282610b19565b810181811067ffffffffffffffff82111715610ae157610ae0610aea565b5b80604052505050565b7f4e487b7100000000000000000000000000000000000000000000000000000000600052604160045260246000fd5b6000601f19601f8301169050919050565b7f436f756e7465723a2064656372656d656e74206f766572666c6f770000000000600082015250565b7f45524331393637557067726164653a207570677261646520627265616b73206660008201527f7572746865722075706772616465730000000000000000000000000000000000602082015250565b7f455243313936373a206e657720696d706c656d656e746174696f6e206973206e60008201527f6f74206120636f6e747261637400000000000000000000000000000000000000602082015250565b7f416464726573733a2064656c65676174652063616c6c20746f206e6f6e2d636f60008201527f6e74726163740000000000000000000000000000000000000000000000000000602082015250565b610c4981610a3b565b8114610c5457600080fd5b5056fe416464726573733a206c6f772d6c6576656c2064656c65676174652063616c6c206661696c6564a2646970667358221220a98a2ebd316cf34db49dd757b07af9a71a7bf776059847c4e4189b7bd9df651064736f6c63430008040033",
  "linkReferences": {},
  "deployedLinkReferences": {}
}