{
  "_format": "hh-sol-artifact-1",
  "contractName": "AddressImplUpgradeable",
  "sourceName": "contracts/src/OpenZeppelin/upgradeable/mocks/AddressImplUpgradeable.sol",
  "abi": [
    {
      "anonymous": false,
      "inputs": [
        {
          "indexed": false,
          "internalType": "string",
          "name": "data",
          "type": "string"
        }
      ],
      "name": "CallReturnValue",
      "type": "event"
    },
    {
      "inputs": [
        {
          "internalType": "address",
          "name": "target",
          "type": "address"
        },
        {
          "internalType": "bytes",
          "name": "data",
          "type": "bytes"
        }
      ],
      "name": "functionCall",
      "outputs": [],
      "stateMutability": "nonpayable",
      "type": "function"
    },
    {
      "inputs": [
        {
          "internalType": "address",
          "name": "target",
          "type": "address"
        },
        {
          "internalType": "bytes",
          "name": "data",
          "type": "bytes"
        },
        {
          "internalType": "uint256",
          "name": "value",
          "type": "uint256"
        }
      ],
      "name": "functionCallWithValue",
      "outputs": [],
      "stateMutability": "payable",
      "type": "function"
    },
    {
      "inputs": [
        {
          "internalType": "address",
          "name": "target",
          "type": "address"
        },
        {
          "internalType": "bytes",
          "name": "data",
          "type": "bytes"
        }
      ],
      "name": "functionStaticCall",
      "outputs": [],
      "stateMutability": "nonpayable",
      "type": "function"
    },
    {
      "inputs": [
        {
          "internalType": "address",
          "name": "account",
          "type": "address"
        }
      ],
      "name": "isContract",
      "outputs": [
        {
          "internalType": "bool",
          "name": "",
          "type": "bool"
        }
      ],
      "stateMutability": "view",
      "type": "function"
    },
    {
      "inputs": [
        {
          "internalType": "address payable",
          "name": "receiver",
          "type": "address"
        },
        {
          "internalType": "uint256",
          "name": "amount",
          "type": "uint256"
        }
      ],
      "name": "sendValue",
      "outputs": [],
      "stateMutability": "nonpayable",
      "type": "function"
    },
    {
      "inputs": [],
      "name": "sharedAnswer",
      "outputs": [
        {
          "internalType": "string",
          "name": "",
          "type": "string"
        }
      ],
      "stateMutability": "view",
      "type": "function"
    },
    {
      "stateMutability": "payable",
      "type": "receive"
    }
  ],
  "bytecode": "0x608060405234801561001057600080fd5b506110a8806100206000396000f3fe6080604052600436106100595760003560e01c8063162790551461006557806324a084df146100a25780632a011594146100cb578063a0b5ffb0146100e7578063c21d36f314610110578063fc40cf731461013957610060565b3661006057005b600080fd5b34801561007157600080fd5b5061008c600480360381019061008791906108f8565b610164565b6040516100999190610bd9565b60405180910390f35b3480156100ae57600080fd5b506100c960048036038101906100c49190610921565b610176565b005b6100e560048036038101906100e091906109b5565b610184565b005b3480156100f357600080fd5b5061010e6004803603810190610109919061095d565b610228565b005b34801561011c57600080fd5b506101376004803603810190610132919061095d565b6102ca565b005b34801561014557600080fd5b5061014e61036c565b60405161015b9190610bf4565b60405180910390f35b600061016f826103fa565b9050919050565b610180828261040d565b5050565b60006101d58585858080601f016020809104026020016040519081016040528093929190818152602001838380828437600081840152601f19601f8201169050808301925050505050505084610501565b90507fe518073da644d0626295bee74d5d5c51447a33857c62913bb30f35e2fba3db7c8180602001905181019061020c9190610a21565b6040516102199190610bf4565b60405180910390a15050505050565b60006102788484848080601f016020809104026020016040519081016040528093929190818152602001838380828437600081840152601f19601f82011690508083019250505050505050610530565b90507fe518073da644d0626295bee74d5d5c51447a33857c62913bb30f35e2fba3db7c818060200190518101906102af9190610a21565b6040516102bc9190610bf4565b60405180910390a150505050565b600061031a8484848080601f016020809104026020016040519081016040528093929190818152602001838380828437600081840152601f19601f8201169050808301925050505050505061057a565b90507fe518073da644d0626295bee74d5d5c51447a33857c62913bb30f35e2fba3db7c818060200190518101906103519190610a21565b60405161035e9190610bf4565b60405180910390a150505050565b6001805461037990610dcb565b80601f01602080910402602001604051908101604052809291908181526020018280546103a590610dcb565b80156103f25780601f106103c7576101008083540402835291602001916103f2565b820191906000526020600020905b8154815290600101906020018083116103d557829003601f168201915b505050505081565b600080823b905060008111915050919050565b80471015610450576040517f08c379a000000000000000000000000000000000000000000000000000000000815260040161044790610c36565b60405180910390fd5b60008273ffffffffffffffffffffffffffffffffffffffff168260405161047690610bc4565b60006040518083038185875af1925050503d80600081146104b3576040519150601f19603f3d011682016040523d82523d6000602084013e6104b8565b606091505b50509050806104fc576040517f08c379a00000000000000000000000000000000000000000000000000000000081526004016104f390610c16565b60405180910390fd5b505050565b6060610527848484604051806060016040528060298152602001611025602991396105a7565b90509392505050565b606061057283836040518060400160405280601e81526020017f416464726573733a206c6f772d6c6576656c2063616c6c206661696c656400008152506106bb565b905092915050565b606061059f838360405180606001604052806025815260200161104e602591396106d3565b905092915050565b6060824710156105ec576040517f08c379a00000000000000000000000000000000000000000000000000000000081526004016105e390610c56565b60405180910390fd5b6105f5856103fa565b610634576040517f08c379a000000000000000000000000000000000000000000000000000000000815260040161062b90610c96565b60405180910390fd5b6000808673ffffffffffffffffffffffffffffffffffffffff16858760405161065d9190610bad565b60006040518083038185875af1925050503d806000811461069a576040519150601f19603f3d011682016040523d82523d6000602084013e61069f565b606091505b50915091506106af8282866107a0565b92505050949350505050565b60606106ca84846000856105a7565b90509392505050565b60606106de846103fa565b61071d576040517f08c379a000000000000000000000000000000000000000000000000000000000815260040161071490610c76565b60405180910390fd5b6000808573ffffffffffffffffffffffffffffffffffffffff16856040516107459190610bad565b600060405180830381855afa9150503d8060008114610780576040519150601f19603f3d011682016040523d82523d6000602084013e610785565b606091505b50915091506107958282866107a0565b925050509392505050565b606083156107b057829050610800565b6000835111156107c35782518084602001fd5b816040517f08c379a00000000000000000000000000000000000000000000000000000000081526004016107f79190610bf4565b60405180910390fd5b9392505050565b600061081a61081584610cdb565b610cb6565b90508281526020810184848401111561083257600080fd5b61083d848285610d98565b509392505050565b60008135905061085481610fdf565b92915050565b60008135905061086981610ff6565b92915050565b60008083601f84011261088157600080fd5b8235905067ffffffffffffffff81111561089a57600080fd5b6020830191508360018202830111156108b257600080fd5b9250929050565b600082601f8301126108ca57600080fd5b81516108da848260208601610807565b91505092915050565b6000813590506108f28161100d565b92915050565b60006020828403121561090a57600080fd5b600061091884828501610845565b91505092915050565b6000806040838503121561093457600080fd5b60006109428582860161085a565b9250506020610953858286016108e3565b9150509250929050565b60008060006040848603121561097257600080fd5b600061098086828701610845565b935050602084013567ffffffffffffffff81111561099d57600080fd5b6109a98682870161086f565b92509250509250925092565b600080600080606085870312156109cb57600080fd5b60006109d987828801610845565b945050602085013567ffffffffffffffff8111156109f657600080fd5b610a028782880161086f565b93509350506040610a15878288016108e3565b91505092959194509250565b600060208284031215610a3357600080fd5b600082015167ffffffffffffffff811115610a4d57600080fd5b610a59848285016108b9565b91505092915050565b610a6b81610d62565b82525050565b6000610a7c82610d0c565b610a868185610d22565b9350610a96818560208601610d98565b80840191505092915050565b6000610aad82610d17565b610ab78185610d2d565b9350610ac7818560208601610d98565b610ad081610e8c565b840191505092915050565b6000610ae8603a83610d2d565b9150610af382610e9d565b604082019050919050565b6000610b0b601d83610d2d565b9150610b1682610eec565b602082019050919050565b6000610b2e602683610d2d565b9150610b3982610f15565b604082019050919050565b6000610b51600083610d22565b9150610b5c82610f64565b600082019050919050565b6000610b74602483610d2d565b9150610b7f82610f67565b604082019050919050565b6000610b97601d83610d2d565b9150610ba282610fb6565b602082019050919050565b6000610bb98284610a71565b915081905092915050565b6000610bcf82610b44565b9150819050919050565b6000602082019050610bee6000830184610a62565b92915050565b60006020820190508181036000830152610c0e8184610aa2565b905092915050565b60006020820190508181036000830152610c2f81610adb565b9050919050565b60006020820190508181036000830152610c4f81610afe565b9050919050565b60006020820190508181036000830152610c6f81610b21565b9050919050565b60006020820190508181036000830152610c8f81610b67565b9050919050565b60006020820190508181036000830152610caf81610b8a565b9050919050565b6000610cc0610cd1565b9050610ccc8282610dfd565b919050565b6000604051905090565b600067ffffffffffffffff821115610cf657610cf5610e5d565b5b610cff82610e8c565b9050602081019050919050565b600081519050919050565b600081519050919050565b600081905092915050565b600082825260208201905092915050565b6000610d4982610d6e565b9050919050565b6000610d5b82610d6e565b9050919050565b60008115159050919050565b600073ffffffffffffffffffffffffffffffffffffffff82169050919050565b6000819050919050565b60005b83811015610db6578082015181840152602081019050610d9b565b83811115610dc5576000848401525b50505050565b60006002820490506001821680610de357607f821691505b60208210811415610df757610df6610e2e565b5b50919050565b610e0682610e8c565b810181811067ffffffffffffffff82111715610e2557610e24610e5d565b5b80604052505050565b7f4e487b7100000000000000000000000000000000000000000000000000000000600052602260045260246000fd5b7f4e487b7100000000000000000000000000000000000000000000000000000000600052604160045260246000fd5b6000601f19601f8301169050919050565b7f416464726573733a20756e61626c6520746f2073656e642076616c75652c207260008201527f6563697069656e74206d61792068617665207265766572746564000000000000602082015250565b7f416464726573733a20696e73756666696369656e742062616c616e6365000000600082015250565b7f416464726573733a20696e73756666696369656e742062616c616e636520666f60008201527f722063616c6c0000000000000000000000000000000000000000000000000000602082015250565b50565b7f416464726573733a207374617469632063616c6c20746f206e6f6e2d636f6e7460008201527f7261637400000000000000000000000000000000000000000000000000000000602082015250565b7f416464726573733a2063616c6c20746f206e6f6e2d636f6e7472616374000000600082015250565b610fe881610d3e565b8114610ff357600080fd5b50565b610fff81610d50565b811461100a57600080fd5b50565b61101681610d8e565b811461102157600080fd5b5056fe416464726573733a206c6f772d6c6576656c2063616c6c20776974682076616c7565206661696c6564416464726573733a206c6f772d6c6576656c207374617469632063616c6c206661696c6564a264697066735822122086d6d3e17f92f43f49367f73f6adcf1d6cded44cd79d31fe5dcad6947b37390a64736f6c63430008040033",
  "linkReferences": {},
  "deployedLinkReferences": {}
}