{
  "_format": "hh-sol-artifact-1",
  "contractName": "ERC777PresetFixedSupplyUpgradeable",
  "sourceName": "contracts/src/OpenZeppelin/upgradeable/token/ERC777/presets/ERC777PresetFixedSupplyUpgradeable.sol",
  "abi": [
    {
      "anonymous": false,
      "inputs": [
        {
          "indexed": true,
          "internalType": "address",
          "name": "owner",
          "type": "address"
        },
        {
          "indexed": true,
          "internalType": "address",
          "name": "spender",
          "type": "address"
        },
        {
          "indexed": false,
          "internalType": "uint256",
          "name": "value",
          "type": "uint256"
        }
      ],
      "name": "Approval",
      "type": "event"
    },
    {
      "anonymous": false,
      "inputs": [
        {
          "indexed": true,
          "internalType": "address",
          "name": "operator",
          "type": "address"
        },
        {
          "indexed": true,
          "internalType": "address",
          "name": "tokenHolder",
          "type": "address"
        }
      ],
      "name": "AuthorizedOperator",
      "type": "event"
    },
    {
      "anonymous": false,
      "inputs": [
        {
          "indexed": true,
          "internalType": "address",
          "name": "operator",
          "type": "address"
        },
        {
          "indexed": true,
          "internalType": "address",
          "name": "from",
          "type": "address"
        },
        {
          "indexed": false,
          "internalType": "uint256",
          "name": "amount",
          "type": "uint256"
        },
        {
          "indexed": false,
          "internalType": "bytes",
          "name": "data",
          "type": "bytes"
        },
        {
          "indexed": false,
          "internalType": "bytes",
          "name": "operatorData",
          "type": "bytes"
        }
      ],
      "name": "Burned",
      "type": "event"
    },
    {
      "anonymous": false,
      "inputs": [
        {
          "indexed": true,
          "internalType": "address",
          "name": "operator",
          "type": "address"
        },
        {
          "indexed": true,
          "internalType": "address",
          "name": "to",
          "type": "address"
        },
        {
          "indexed": false,
          "internalType": "uint256",
          "name": "amount",
          "type": "uint256"
        },
        {
          "indexed": false,
          "internalType": "bytes",
          "name": "data",
          "type": "bytes"
        },
        {
          "indexed": false,
          "internalType": "bytes",
          "name": "operatorData",
          "type": "bytes"
        }
      ],
      "name": "Minted",
      "type": "event"
    },
    {
      "anonymous": false,
      "inputs": [
        {
          "indexed": true,
          "internalType": "address",
          "name": "operator",
          "type": "address"
        },
        {
          "indexed": true,
          "internalType": "address",
          "name": "tokenHolder",
          "type": "address"
        }
      ],
      "name": "RevokedOperator",
      "type": "event"
    },
    {
      "anonymous": false,
      "inputs": [
        {
          "indexed": true,
          "internalType": "address",
          "name": "operator",
          "type": "address"
        },
        {
          "indexed": true,
          "internalType": "address",
          "name": "from",
          "type": "address"
        },
        {
          "indexed": true,
          "internalType": "address",
          "name": "to",
          "type": "address"
        },
        {
          "indexed": false,
          "internalType": "uint256",
          "name": "amount",
          "type": "uint256"
        },
        {
          "indexed": false,
          "internalType": "bytes",
          "name": "data",
          "type": "bytes"
        },
        {
          "indexed": false,
          "internalType": "bytes",
          "name": "operatorData",
          "type": "bytes"
        }
      ],
      "name": "Sent",
      "type": "event"
    },
    {
      "anonymous": false,
      "inputs": [
        {
          "indexed": true,
          "internalType": "address",
          "name": "from",
          "type": "address"
        },
        {
          "indexed": true,
          "internalType": "address",
          "name": "to",
          "type": "address"
        },
        {
          "indexed": false,
          "internalType": "uint256",
          "name": "value",
          "type": "uint256"
        }
      ],
      "name": "Transfer",
      "type": "event"
    },
    {
      "inputs": [
        {
          "internalType": "address",
          "name": "holder",
          "type": "address"
        },
        {
          "internalType": "address",
          "name": "spender",
          "type": "address"
        }
      ],
      "name": "allowance",
      "outputs": [
        {
          "internalType": "uint256",
          "name": "",
          "type": "uint256"
        }
      ],
      "stateMutability": "view",
      "type": "function"
    },
    {
      "inputs": [
        {
          "internalType": "address",
          "name": "spender",
          "type": "address"
        },
        {
          "internalType": "uint256",
          "name": "value",
          "type": "uint256"
        }
      ],
      "name": "approve",
      "outputs": [
        {
          "internalType": "bool",
          "name": "",
          "type": "bool"
        }
      ],
      "stateMutability": "nonpayable",
      "type": "function"
    },
    {
      "inputs": [
        {
          "internalType": "address",
          "name": "operator",
          "type": "address"
        }
      ],
      "name": "authorizeOperator",
      "outputs": [],
      "stateMutability": "nonpayable",
      "type": "function"
    },
    {
      "inputs": [
        {
          "internalType": "address",
          "name": "tokenHolder",
          "type": "address"
        }
      ],
      "name": "balanceOf",
      "outputs": [
        {
          "internalType": "uint256",
          "name": "",
          "type": "uint256"
        }
      ],
      "stateMutability": "view",
      "type": "function"
    },
    {
      "inputs": [
        {
          "internalType": "uint256",
          "name": "amount",
          "type": "uint256"
        },
        {
          "internalType": "bytes",
          "name": "data",
          "type": "bytes"
        }
      ],
      "name": "burn",
      "outputs": [],
      "stateMutability": "nonpayable",
      "type": "function"
    },
    {
      "inputs": [],
      "name": "decimals",
      "outputs": [
        {
          "internalType": "uint8",
          "name": "",
          "type": "uint8"
        }
      ],
      "stateMutability": "pure",
      "type": "function"
    },
    {
      "inputs": [],
      "name": "defaultOperators",
      "outputs": [
        {
          "internalType": "address[]",
          "name": "",
          "type": "address[]"
        }
      ],
      "stateMutability": "view",
      "type": "function"
    },
    {
      "inputs": [],
      "name": "granularity",
      "outputs": [
        {
          "internalType": "uint256",
          "name": "",
          "type": "uint256"
        }
      ],
      "stateMutability": "view",
      "type": "function"
    },
    {
      "inputs": [
        {
          "internalType": "string",
          "name": "name",
          "type": "string"
        },
        {
          "internalType": "string",
          "name": "symbol",
          "type": "string"
        },
        {
          "internalType": "address[]",
          "name": "defaultOperators",
          "type": "address[]"
        },
        {
          "internalType": "uint256",
          "name": "initialSupply",
          "type": "uint256"
        },
        {
          "internalType": "address",
          "name": "owner",
          "type": "address"
        }
      ],
      "name": "initialize",
      "outputs": [],
      "stateMutability": "nonpayable",
      "type": "function"
    },
    {
      "inputs": [
        {
          "internalType": "address",
          "name": "operator",
          "type": "address"
        },
        {
          "internalType": "address",
          "name": "tokenHolder",
          "type": "address"
        }
      ],
      "name": "isOperatorFor",
      "outputs": [
        {
          "internalType": "bool",
          "name": "",
          "type": "bool"
        }
      ],
      "stateMutability": "view",
      "type": "function"
    },
    {
      "inputs": [],
      "name": "name",
      "outputs": [
        {
          "internalType": "string",
          "name": "",
          "type": "string"
        }
      ],
      "stateMutability": "view",
      "type": "function"
    },
    {
      "inputs": [
        {
          "internalType": "address",
          "name": "account",
          "type": "address"
        },
        {
          "internalType": "uint256",
          "name": "amount",
          "type": "uint256"
        },
        {
          "internalType": "bytes",
          "name": "data",
          "type": "bytes"
        },
        {
          "internalType": "bytes",
          "name": "operatorData",
          "type": "bytes"
        }
      ],
      "name": "operatorBurn",
      "outputs": [],
      "stateMutability": "nonpayable",
      "type": "function"
    },
    {
      "inputs": [
        {
          "internalType": "address",
          "name": "sender",
          "type": "address"
        },
        {
          "internalType": "address",
          "name": "recipient",
          "type": "address"
        },
        {
          "internalType": "uint256",
          "name": "amount",
          "type": "uint256"
        },
        {
          "internalType": "bytes",
          "name": "data",
          "type": "bytes"
        },
        {
          "internalType": "bytes",
          "name": "operatorData",
          "type": "bytes"
        }
      ],
      "name": "operatorSend",
      "outputs": [],
      "stateMutability": "nonpayable",
      "type": "function"
    },
    {
      "inputs": [
        {
          "internalType": "address",
          "name": "operator",
          "type": "address"
        }
      ],
      "name": "revokeOperator",
      "outputs": [],
      "stateMutability": "nonpayable",
      "type": "function"
    },
    {
      "inputs": [
        {
          "internalType": "address",
          "name": "recipient",
          "type": "address"
        },
        {
          "internalType": "uint256",
          "name": "amount",
          "type": "uint256"
        },
        {
          "internalType": "bytes",
          "name": "data",
          "type": "bytes"
        }
      ],
      "name": "send",
      "outputs": [],
      "stateMutability": "nonpayable",
      "type": "function"
    },
    {
      "inputs": [],
      "name": "symbol",
      "outputs": [
        {
          "internalType": "string",
          "name": "",
          "type": "string"
        }
      ],
      "stateMutability": "view",
      "type": "function"
    },
    {
      "inputs": [],
      "name": "totalSupply",
      "outputs": [
        {
          "internalType": "uint256",
          "name": "",
          "type": "uint256"
        }
      ],
      "stateMutability": "view",
      "type": "function"
    },
    {
      "inputs": [
        {
          "internalType": "address",
          "name": "recipient",
          "type": "address"
        },
        {
          "internalType": "uint256",
          "name": "amount",
          "type": "uint256"
        }
      ],
      "name": "transfer",
      "outputs": [
        {
          "internalType": "bool",
          "name": "",
          "type": "bool"
        }
      ],
      "stateMutability": "nonpayable",
      "type": "function"
    },
    {
      "inputs": [
        {
          "internalType": "address",
          "name": "holder",
          "type": "address"
        },
        {
          "internalType": "address",
          "name": "recipient",
          "type": "address"
        },
        {
          "internalType": "uint256",
          "name": "amount",
          "type": "uint256"
        }
      ],
      "name": "transferFrom",
      "outputs": [
        {
          "internalType": "bool",
          "name": "",
          "type": "bool"
        }
      ],
      "stateMutability": "nonpayable",
      "type": "function"
    }
  ],
  "bytecode": "0x608060405234801561001057600080fd5b50613ba4806100206000396000f3fe608060405234801561001057600080fd5b50600436106101215760003560e01c8063768f950a116100ad578063d95b637111610071578063d95b63711461030a578063dd62ed3e1461033a578063fad8b32a1461036a578063fc673c4f14610386578063fe9d9303146103a257610121565b8063768f950a14610268578063959b8c3f1461028457806395d89b41146102a05780639bd9bbc6146102be578063a9059cbb146102da57610121565b806323b872dd116100f457806323b872dd146101b0578063313ce567146101e0578063556f0dc7146101fe57806362ad1b831461021c57806370a082311461023857610121565b806306e485381461012657806306fdde0314610144578063095ea7b31461016257806318160ddd14610192575b600080fd5b61012e6103be565b60405161013b9190613003565b60405180910390f35b61014c61044c565b6040516101599190613040565b60405180910390f35b61017c60048036038101906101779190612979565b6104de565b6040516101899190613025565b60405180910390f35b61019a610501565b6040516101a79190613262565b60405180910390f35b6101ca60048036038101906101c59190612883565b61050b565b6040516101d79190613025565b60405180910390f35b6101e8610765565b6040516101f591906132c2565b60405180910390f35b61020661076e565b6040516102139190613262565b60405180910390f35b610236600480360381019061023191906128d2565b610777565b005b610252600480360381019061024d91906127f5565b6107dd565b60405161025f9190613262565b60405180910390f35b610282600480360381019061027d9190612aaf565b610826565b005b61029e600480360381019061029991906127f5565b610911565b005b6102a8610b72565b6040516102b59190613040565b60405180910390f35b6102d860048036038101906102d391906129b5565b610c04565b005b6102f460048036038101906102ef9190612979565b610c2e565b6040516103019190613025565b60405180910390f35b610324600480360381019061031f9190612847565b610d3c565b6040516103319190613025565b60405180910390f35b610354600480360381019061034f9190612847565b610eed565b6040516103619190613262565b60405180910390f35b610384600480360381019061037f91906127f5565b610f74565b005b6103a0600480360381019061039b9190612a1c565b6111d5565b005b6103bc60048036038101906103b79190612b6e565b611237565b005b6060603780548060200260200160405190810160405280929190818152602001828054801561044257602002820191906000526020600020905b8160009054906101000a900473ffffffffffffffffffffffffffffffffffffffff1673ffffffffffffffffffffffffffffffffffffffff16815260200190600101908083116103f8575b5050505050905090565b60606035805461045b9061352c565b80601f01602080910402602001604051908101604052809291908181526020018280546104879061352c565b80156104d45780601f106104a9576101008083540402835291602001916104d4565b820191906000526020600020905b8154815290600101906020018083116104b757829003601f168201915b5050505050905090565b6000806104e961125d565b90506104f6818585611265565b600191505092915050565b6000603454905090565b60008073ffffffffffffffffffffffffffffffffffffffff168373ffffffffffffffffffffffffffffffffffffffff16141561057c576040517f08c379a000000000000000000000000000000000000000000000000000000000815260040161057390613182565b60405180910390fd5b600073ffffffffffffffffffffffffffffffffffffffff168473ffffffffffffffffffffffffffffffffffffffff1614156105ec576040517f08c379a00000000000000000000000000000000000000000000000000000000081526004016105e3906131e2565b60405180910390fd5b60006105f661125d565b9050610624818686866040518060200160405280600081525060405180602001604052806000815250611430565b6106508186868660405180602001604052806000815250604051806020016040528060008152506115a6565b6000603b60008773ffffffffffffffffffffffffffffffffffffffff1673ffffffffffffffffffffffffffffffffffffffff16815260200190815260200160002060008373ffffffffffffffffffffffffffffffffffffffff1673ffffffffffffffffffffffffffffffffffffffff16815260200190815260200160002054905083811015610714576040517f08c379a000000000000000000000000000000000000000000000000000000000815260040161070b906131c2565b60405180910390fd5b61072a868386846107259190613457565b611265565b61075882878787604051806020016040528060008152506040518060200160405280600081525060006117c3565b6001925050509392505050565b60006012905090565b60006001905090565b61078861078261125d565b86610d3c565b6107c7576040517f08c379a00000000000000000000000000000000000000000000000000000000081526004016107be906131a2565b60405180910390fd5b6107d6858585858560016119a4565b5050505050565b6000603360008373ffffffffffffffffffffffffffffffffffffffff1673ffffffffffffffffffffffffffffffffffffffff168152602001908152602001600020549050919050565b600060019054906101000a900460ff168061084c575060008054906101000a900460ff16155b61088b576040517f08c379a000000000000000000000000000000000000000000000000000000000815260040161088290613122565b60405180910390fd5b60008060019054906101000a900460ff1615905080156108db576001600060016101000a81548160ff02191690831515021790555060016000806101000a81548160ff0219169083151502179055505b6108e88686868686611ac4565b80156109095760008060016101000a81548160ff0219169083151502179055505b505050505050565b8073ffffffffffffffffffffffffffffffffffffffff1661093061125d565b73ffffffffffffffffffffffffffffffffffffffff161415610987576040517f08c379a000000000000000000000000000000000000000000000000000000000815260040161097e906130e2565b60405180910390fd5b603860008273ffffffffffffffffffffffffffffffffffffffff1673ffffffffffffffffffffffffffffffffffffffff16815260200190815260200160002060009054906101000a900460ff1615610a7157603a60006109e561125d565b73ffffffffffffffffffffffffffffffffffffffff1673ffffffffffffffffffffffffffffffffffffffff16815260200190815260200160002060008273ffffffffffffffffffffffffffffffffffffffff1673ffffffffffffffffffffffffffffffffffffffff16815260200190815260200160002060006101000a81549060ff0219169055610b0e565b600160396000610a7f61125d565b73ffffffffffffffffffffffffffffffffffffffff1673ffffffffffffffffffffffffffffffffffffffff16815260200190815260200160002060008373ffffffffffffffffffffffffffffffffffffffff1673ffffffffffffffffffffffffffffffffffffffff16815260200190815260200160002060006101000a81548160ff0219169083151502179055505b610b1661125d565b73ffffffffffffffffffffffffffffffffffffffff168173ffffffffffffffffffffffffffffffffffffffff167ff4caeb2d6ca8932a215a353d0703c326ec2d81fc68170f320eb2ab49e9df61f960405160405180910390a350565b606060368054610b819061352c565b80601f0160208091040260200160405190810160405280929190818152602001828054610bad9061352c565b8015610bfa5780601f10610bcf57610100808354040283529160200191610bfa565b820191906000526020600020905b815481529060010190602001808311610bdd57829003601f168201915b5050505050905090565b610c29610c0f61125d565b8484846040518060200160405280600081525060016119a4565b505050565b60008073ffffffffffffffffffffffffffffffffffffffff168373ffffffffffffffffffffffffffffffffffffffff161415610c9f576040517f08c379a0000000000000000000000000000000000000000000000000000000008152600401610c9690613182565b60405180910390fd5b6000610ca961125d565b9050610cd7818286866040518060200160405280600081525060405180602001604052806000815250611430565b610d038182868660405180602001604052806000815250604051806020016040528060008152506115a6565b610d3181828686604051806020016040528060008152506040518060200160405280600081525060006117c3565b600191505092915050565b60008173ffffffffffffffffffffffffffffffffffffffff168373ffffffffffffffffffffffffffffffffffffffff161480610e545750603860008473ffffffffffffffffffffffffffffffffffffffff1673ffffffffffffffffffffffffffffffffffffffff16815260200190815260200160002060009054906101000a900460ff168015610e535750603a60008373ffffffffffffffffffffffffffffffffffffffff1673ffffffffffffffffffffffffffffffffffffffff16815260200190815260200160002060008473ffffffffffffffffffffffffffffffffffffffff1673ffffffffffffffffffffffffffffffffffffffff16815260200190815260200160002060009054906101000a900460ff16155b5b80610ee55750603960008373ffffffffffffffffffffffffffffffffffffffff1673ffffffffffffffffffffffffffffffffffffffff16815260200190815260200160002060008473ffffffffffffffffffffffffffffffffffffffff1673ffffffffffffffffffffffffffffffffffffffff16815260200190815260200160002060009054906101000a900460ff165b905092915050565b6000603b60008473ffffffffffffffffffffffffffffffffffffffff1673ffffffffffffffffffffffffffffffffffffffff16815260200190815260200160002060008373ffffffffffffffffffffffffffffffffffffffff1673ffffffffffffffffffffffffffffffffffffffff16815260200190815260200160002054905092915050565b610f7c61125d565b73ffffffffffffffffffffffffffffffffffffffff168173ffffffffffffffffffffffffffffffffffffffff161415610fea576040517f08c379a0000000000000000000000000000000000000000000000000000000008152600401610fe190613102565b60405180910390fd5b603860008273ffffffffffffffffffffffffffffffffffffffff1673ffffffffffffffffffffffffffffffffffffffff16815260200190815260200160002060009054906101000a900460ff16156110dd576001603a600061104a61125d565b73ffffffffffffffffffffffffffffffffffffffff1673ffffffffffffffffffffffffffffffffffffffff16815260200190815260200160002060008373ffffffffffffffffffffffffffffffffffffffff1673ffffffffffffffffffffffffffffffffffffffff16815260200190815260200160002060006101000a81548160ff021916908315150217905550611171565b603960006110e961125d565b73ffffffffffffffffffffffffffffffffffffffff1673ffffffffffffffffffffffffffffffffffffffff16815260200190815260200160002060008273ffffffffffffffffffffffffffffffffffffffff1673ffffffffffffffffffffffffffffffffffffffff16815260200190815260200160002060006101000a81549060ff02191690555b61117961125d565b73ffffffffffffffffffffffffffffffffffffffff168173ffffffffffffffffffffffffffffffffffffffff167f50546e66e5f44d728365dc3908c63bc5cfeeab470722c1677e3073a6ac294aa160405160405180910390a350565b6111e66111e061125d565b85610d3c565b611225576040517f08c379a000000000000000000000000000000000000000000000000000000000815260040161121c906131a2565b60405180910390fd5b61123184848484611bc2565b50505050565b61125961124261125d565b838360405180602001604052806000815250611bc2565b5050565b600033905090565b600073ffffffffffffffffffffffffffffffffffffffff168373ffffffffffffffffffffffffffffffffffffffff1614156112d5576040517f08c379a00000000000000000000000000000000000000000000000000000000081526004016112cc90613062565b60405180910390fd5b600073ffffffffffffffffffffffffffffffffffffffff168273ffffffffffffffffffffffffffffffffffffffff161415611345576040517f08c379a000000000000000000000000000000000000000000000000000000000815260040161133c90613242565b60405180910390fd5b80603b60008573ffffffffffffffffffffffffffffffffffffffff1673ffffffffffffffffffffffffffffffffffffffff16815260200190815260200160002060008473ffffffffffffffffffffffffffffffffffffffff1673ffffffffffffffffffffffffffffffffffffffff168152602001908152602001600020819055508173ffffffffffffffffffffffffffffffffffffffff168373ffffffffffffffffffffffffffffffffffffffff167f8c5be1e5ebec7d5bd14f71427d1e84f3dd0314c0f7b2291e5b200ac8c7c3b925836040516114239190613262565b60405180910390a3505050565b6000731820a4b7618bde71dce8cdc73aab6c95905fad2473ffffffffffffffffffffffffffffffffffffffff1663aabbb8ca877f29ddb589b1fb5fc7cf394961c1adf5f8c6454761adf795e67fe149f658abe8956040518363ffffffff1660e01b81526004016114a1929190612fa3565b60206040518083038186803b1580156114b957600080fd5b505afa1580156114cd573d6000803e3d6000fd5b505050506040513d601f19601f820116820180604052508101906114f1919061281e565b9050600073ffffffffffffffffffffffffffffffffffffffff168173ffffffffffffffffffffffffffffffffffffffff161461159d578073ffffffffffffffffffffffffffffffffffffffff166375ab97828888888888886040518763ffffffff1660e01b815260040161156a96959493929190612f34565b600060405180830381600087803b15801561158457600080fd5b505af1158015611598573d6000803e3d6000fd5b505050505b50505050505050565b6115b286868686611e17565b6000603360008773ffffffffffffffffffffffffffffffffffffffff1673ffffffffffffffffffffffffffffffffffffffff16815260200190815260200160002054905083811015611639576040517f08c379a0000000000000000000000000000000000000000000000000000000008152600401611630906130a2565b60405180910390fd5b838103603360008873ffffffffffffffffffffffffffffffffffffffff1673ffffffffffffffffffffffffffffffffffffffff1681526020019081526020016000208190555083603360008773ffffffffffffffffffffffffffffffffffffffff1673ffffffffffffffffffffffffffffffffffffffff16815260200190815260200160002060008282546116ce9190613401565b925050819055508473ffffffffffffffffffffffffffffffffffffffff168673ffffffffffffffffffffffffffffffffffffffff168873ffffffffffffffffffffffffffffffffffffffff167f06b541ddaa720db2b10a4d0cdac39b8d360425fc073085fac19bc8261467798787878760405161174d9392919061327d565b60405180910390a48473ffffffffffffffffffffffffffffffffffffffff168673ffffffffffffffffffffffffffffffffffffffff167fddf252ad1be2c89b69c2b068fc378daa952ba7f163c4a11628f55a4df523b3ef866040516117b29190613262565b60405180910390a350505050505050565b6000731820a4b7618bde71dce8cdc73aab6c95905fad2473ffffffffffffffffffffffffffffffffffffffff1663aabbb8ca877fb281fc8c12954d22544db45de3159a39272895b169a852b314f9cc762e44c53b6040518363ffffffff1660e01b8152600401611834929190612fa3565b60206040518083038186803b15801561184c57600080fd5b505afa158015611860573d6000803e3d6000fd5b505050506040513d601f19601f82011682018060405250810190611884919061281e565b9050600073ffffffffffffffffffffffffffffffffffffffff168173ffffffffffffffffffffffffffffffffffffffff1614611933578073ffffffffffffffffffffffffffffffffffffffff166223de298989898989896040518763ffffffff1660e01b81526004016118fc96959493929190612f34565b600060405180830381600087803b15801561191657600080fd5b505af115801561192a573d6000803e3d6000fd5b5050505061199a565b8115611999576119588673ffffffffffffffffffffffffffffffffffffffff16611e1d565b15611998576040517f08c379a000000000000000000000000000000000000000000000000000000000815260040161198f90613162565b60405180910390fd5b5b5b5050505050505050565b600073ffffffffffffffffffffffffffffffffffffffff168673ffffffffffffffffffffffffffffffffffffffff161415611a14576040517f08c379a0000000000000000000000000000000000000000000000000000000008152600401611a0b90613082565b60405180910390fd5b600073ffffffffffffffffffffffffffffffffffffffff168573ffffffffffffffffffffffffffffffffffffffff161415611a84576040517f08c379a0000000000000000000000000000000000000000000000000000000008152600401611a7b90613222565b60405180910390fd5b6000611a8e61125d565b9050611a9e818888888888611430565b611aac8188888888886115a6565b611abb818888888888886117c3565b50505050505050565b600060019054906101000a900460ff1680611aea575060008054906101000a900460ff16155b611b29576040517f08c379a0000000000000000000000000000000000000000000000000000000008152600401611b2090613122565b60405180910390fd5b60008060019054906101000a900460ff161590508015611b79576001600060016101000a81548160ff02191690831515021790555060016000806101000a81548160ff0219169083151502179055505b611b81611e30565b611b8c868686611f09565b611b998686868686612228565b8015611bba5760008060016101000a81548160ff0219169083151502179055505b505050505050565b600073ffffffffffffffffffffffffffffffffffffffff168473ffffffffffffffffffffffffffffffffffffffff161415611c32576040517f08c379a0000000000000000000000000000000000000000000000000000000008152600401611c29906130c2565b60405180910390fd5b6000611c3c61125d565b9050611c4d81866000878787611430565b611c5a8186600087611e17565b6000603360008773ffffffffffffffffffffffffffffffffffffffff1673ffffffffffffffffffffffffffffffffffffffff16815260200190815260200160002054905084811015611ce1576040517f08c379a0000000000000000000000000000000000000000000000000000000008152600401611cd890613202565b60405180910390fd5b848103603360008873ffffffffffffffffffffffffffffffffffffffff1673ffffffffffffffffffffffffffffffffffffffff168152602001908152602001600020819055508460346000828254611d399190613457565b925050819055508573ffffffffffffffffffffffffffffffffffffffff168273ffffffffffffffffffffffffffffffffffffffff167fa78a9be3a7b862d26933ad85fb11d80ef66b8f972d7cbba06621d583943a4098878787604051611da19392919061327d565b60405180910390a3600073ffffffffffffffffffffffffffffffffffffffff168673ffffffffffffffffffffffffffffffffffffffff167fddf252ad1be2c89b69c2b068fc378daa952ba7f163c4a11628f55a4df523b3ef87604051611e079190613262565b60405180910390a3505050505050565b50505050565b600080823b905060008111915050919050565b600060019054906101000a900460ff1680611e56575060008054906101000a900460ff16155b611e95576040517f08c379a0000000000000000000000000000000000000000000000000000000008152600401611e8c90613122565b60405180910390fd5b60008060019054906101000a900460ff161590508015611ee5576001600060016101000a81548160ff02191690831515021790555060016000806101000a81548160ff0219169083151502179055505b8015611f065760008060016101000a81548160ff0219169083151502179055505b50565b600060019054906101000a900460ff1680611f2f575060008054906101000a900460ff16155b611f6e576040517f08c379a0000000000000000000000000000000000000000000000000000000008152600401611f6590613122565b60405180910390fd5b60008060019054906101000a900460ff161590508015611fbe576001600060016101000a81548160ff02191690831515021790555060016000806101000a81548160ff0219169083151502179055505b8360359080519060200190611fd4929190612523565b508260369080519060200190611feb929190612523565b5081603790805190602001906120029291906125a9565b5060005b82518110156120ba5760016038600085848151811061204e577f4e487b7100000000000000000000000000000000000000000000000000000000600052603260045260246000fd5b602002602001015173ffffffffffffffffffffffffffffffffffffffff1673ffffffffffffffffffffffffffffffffffffffff16815260200190815260200160002060006101000a81548160ff02191690831515021790555080806120b29061358f565b915050612006565b50731820a4b7618bde71dce8cdc73aab6c95905fad2473ffffffffffffffffffffffffffffffffffffffff166329965a1d307fac7fbab5f54a3ca8194167523c6753bfeb96a445279294b6125b68cce2177054306040518463ffffffff1660e01b815260040161212c93929190612fcc565b600060405180830381600087803b15801561214657600080fd5b505af115801561215a573d6000803e3d6000fd5b50505050731820a4b7618bde71dce8cdc73aab6c95905fad2473ffffffffffffffffffffffffffffffffffffffff166329965a1d307faea199e31a596269b42cdafd93407f14436db6e4cad65417994c2eb37381e05a306040518463ffffffff1660e01b81526004016121cf93929190612fcc565b600060405180830381600087803b1580156121e957600080fd5b505af11580156121fd573d6000803e3d6000fd5b5050505080156122225760008060016101000a81548160ff0219169083151502179055505b50505050565b600060019054906101000a900460ff168061224e575060008054906101000a900460ff16155b61228d576040517f08c379a000000000000000000000000000000000000000000000000000000000815260040161228490613122565b60405180910390fd5b60008060019054906101000a900460ff1615905080156122dd576001600060016101000a81548160ff02191690831515021790555060016000806101000a81548160ff0219169083151502179055505b61230782846040518060200160405280600081525060405180602001604052806000815250612330565b80156123285760008060016101000a81548160ff0219169083151502179055505b505050505050565b61233e848484846001612344565b50505050565b600073ffffffffffffffffffffffffffffffffffffffff168573ffffffffffffffffffffffffffffffffffffffff1614156123b4576040517f08c379a00000000000000000000000000000000000000000000000000000000081526004016123ab90613142565b60405180910390fd5b60006123be61125d565b90506123cd8160008888611e17565b84603460008282546123df9190613401565b9250508190555084603360008873ffffffffffffffffffffffffffffffffffffffff1673ffffffffffffffffffffffffffffffffffffffff16815260200190815260200160002060008282546124359190613401565b9250508190555061244c81600088888888886117c3565b8573ffffffffffffffffffffffffffffffffffffffff168173ffffffffffffffffffffffffffffffffffffffff167f2fe5be0146f74c5bce36c0b80911af6c7d86ff27e89d5cfa61fc681327954e5d8787876040516124ad9392919061327d565b60405180910390a38573ffffffffffffffffffffffffffffffffffffffff16600073ffffffffffffffffffffffffffffffffffffffff167fddf252ad1be2c89b69c2b068fc378daa952ba7f163c4a11628f55a4df523b3ef876040516125139190613262565b60405180910390a3505050505050565b82805461252f9061352c565b90600052602060002090601f0160209004810192826125515760008555612598565b82601f1061256a57805160ff1916838001178555612598565b82800160010185558215612598579182015b8281111561259757825182559160200191906001019061257c565b5b5090506125a59190612633565b5090565b828054828255906000526020600020908101928215612622579160200282015b828111156126215782518260006101000a81548173ffffffffffffffffffffffffffffffffffffffff021916908373ffffffffffffffffffffffffffffffffffffffff160217905550916020019190600101906125c9565b5b50905061262f9190612633565b5090565b5b8082111561264c576000816000905550600101612634565b5090565b600061266361265e84613302565b6132dd565b9050808382526020820190508285602086028201111561268257600080fd5b60005b858110156126b257816126988882612738565b845260208401935060208301925050600181019050612685565b5050509392505050565b60006126cf6126ca8461332e565b6132dd565b9050828152602081018484840111156126e757600080fd5b6126f28482856134ea565b509392505050565b600061270d6127088461335f565b6132dd565b90508281526020810184848401111561272557600080fd5b6127308482856134ea565b509392505050565b60008135905061274781613b40565b92915050565b60008151905061275c81613b40565b92915050565b600082601f83011261277357600080fd5b8135612783848260208601612650565b91505092915050565b600082601f83011261279d57600080fd5b81356127ad8482602086016126bc565b91505092915050565b600082601f8301126127c757600080fd5b81356127d78482602086016126fa565b91505092915050565b6000813590506127ef81613b57565b92915050565b60006020828403121561280757600080fd5b600061281584828501612738565b91505092915050565b60006020828403121561283057600080fd5b600061283e8482850161274d565b91505092915050565b6000806040838503121561285a57600080fd5b600061286885828601612738565b925050602061287985828601612738565b9150509250929050565b60008060006060848603121561289857600080fd5b60006128a686828701612738565b93505060206128b786828701612738565b92505060406128c8868287016127e0565b9150509250925092565b600080600080600060a086880312156128ea57600080fd5b60006128f888828901612738565b955050602061290988828901612738565b945050604061291a888289016127e0565b935050606086013567ffffffffffffffff81111561293757600080fd5b6129438882890161278c565b925050608086013567ffffffffffffffff81111561296057600080fd5b61296c8882890161278c565b9150509295509295909350565b6000806040838503121561298c57600080fd5b600061299a85828601612738565b92505060206129ab858286016127e0565b9150509250929050565b6000806000606084860312156129ca57600080fd5b60006129d886828701612738565b93505060206129e9868287016127e0565b925050604084013567ffffffffffffffff811115612a0657600080fd5b612a128682870161278c565b9150509250925092565b60008060008060808587031215612a3257600080fd5b6000612a4087828801612738565b9450506020612a51878288016127e0565b935050604085013567ffffffffffffffff811115612a6e57600080fd5b612a7a8782880161278c565b925050606085013567ffffffffffffffff811115612a9757600080fd5b612aa38782880161278c565b91505092959194509250565b600080600080600060a08688031215612ac757600080fd5b600086013567ffffffffffffffff811115612ae157600080fd5b612aed888289016127b6565b955050602086013567ffffffffffffffff811115612b0a57600080fd5b612b16888289016127b6565b945050604086013567ffffffffffffffff811115612b3357600080fd5b612b3f88828901612762565b9350506060612b50888289016127e0565b9250506080612b6188828901612738565b9150509295509295909350565b60008060408385031215612b8157600080fd5b6000612b8f858286016127e0565b925050602083013567ffffffffffffffff811115612bac57600080fd5b612bb88582860161278c565b9150509250929050565b6000612bce8383612bda565b60208301905092915050565b612be38161348b565b82525050565b612bf28161348b565b82525050565b6000612c03826133a0565b612c0d81856133ce565b9350612c1883613390565b8060005b83811015612c49578151612c308882612bc2565b9750612c3b836133c1565b925050600181019050612c1c565b5085935050505092915050565b612c5f8161349d565b82525050565b612c6e816134a9565b82525050565b6000612c7f826133ab565b612c8981856133df565b9350612c998185602086016134f9565b612ca281613665565b840191505092915050565b6000612cb8826133b6565b612cc281856133f0565b9350612cd28185602086016134f9565b612cdb81613665565b840191505092915050565b6000612cf36025836133f0565b9150612cfe82613676565b604082019050919050565b6000612d166022836133f0565b9150612d21826136c5565b604082019050919050565b6000612d396027836133f0565b9150612d4482613714565b604082019050919050565b6000612d5c6022836133f0565b9150612d6782613763565b604082019050919050565b6000612d7f6024836133f0565b9150612d8a826137b2565b604082019050919050565b6000612da26021836133f0565b9150612dad82613801565b604082019050919050565b6000612dc5602e836133f0565b9150612dd082613850565b604082019050919050565b6000612de86020836133f0565b9150612df38261389f565b602082019050919050565b6000612e0b604d836133f0565b9150612e16826138c8565b606082019050919050565b6000612e2e6024836133f0565b9150612e398261393d565b604082019050919050565b6000612e51602c836133f0565b9150612e5c8261398c565b604082019050919050565b6000612e746029836133f0565b9150612e7f826139db565b604082019050919050565b6000612e976026836133f0565b9150612ea282613a2a565b604082019050919050565b6000612eba6023836133f0565b9150612ec582613a79565b604082019050919050565b6000612edd6020836133f0565b9150612ee882613ac8565b602082019050919050565b6000612f006023836133f0565b9150612f0b82613af1565b604082019050919050565b612f1f816134d3565b82525050565b612f2e816134dd565b82525050565b600060c082019050612f496000830189612be9565b612f566020830188612be9565b612f636040830187612be9565b612f706060830186612f16565b8181036080830152612f828185612c74565b905081810360a0830152612f968184612c74565b9050979650505050505050565b6000604082019050612fb86000830185612be9565b612fc56020830184612c65565b9392505050565b6000606082019050612fe16000830186612be9565b612fee6020830185612c65565b612ffb6040830184612be9565b949350505050565b6000602082019050818103600083015261301d8184612bf8565b905092915050565b600060208201905061303a6000830184612c56565b92915050565b6000602082019050818103600083015261305a8184612cad565b905092915050565b6000602082019050818103600083015261307b81612ce6565b9050919050565b6000602082019050818103600083015261309b81612d09565b9050919050565b600060208201905081810360008301526130bb81612d2c565b9050919050565b600060208201905081810360008301526130db81612d4f565b9050919050565b600060208201905081810360008301526130fb81612d72565b9050919050565b6000602082019050818103600083015261311b81612d95565b9050919050565b6000602082019050818103600083015261313b81612db8565b9050919050565b6000602082019050818103600083015261315b81612ddb565b9050919050565b6000602082019050818103600083015261317b81612dfe565b9050919050565b6000602082019050818103600083015261319b81612e21565b9050919050565b600060208201905081810360008301526131bb81612e44565b9050919050565b600060208201905081810360008301526131db81612e67565b9050919050565b600060208201905081810360008301526131fb81612e8a565b9050919050565b6000602082019050818103600083015261321b81612ead565b9050919050565b6000602082019050818103600083015261323b81612ed0565b9050919050565b6000602082019050818103600083015261325b81612ef3565b9050919050565b60006020820190506132776000830184612f16565b92915050565b60006060820190506132926000830186612f16565b81810360208301526132a48185612c74565b905081810360408301526132b88184612c74565b9050949350505050565b60006020820190506132d76000830184612f25565b92915050565b60006132e76132f8565b90506132f3828261355e565b919050565b6000604051905090565b600067ffffffffffffffff82111561331d5761331c613636565b5b602082029050602081019050919050565b600067ffffffffffffffff82111561334957613348613636565b5b61335282613665565b9050602081019050919050565b600067ffffffffffffffff82111561337a57613379613636565b5b61338382613665565b9050602081019050919050565b6000819050602082019050919050565b600081519050919050565b600081519050919050565b600081519050919050565b6000602082019050919050565b600082825260208201905092915050565b600082825260208201905092915050565b600082825260208201905092915050565b600061340c826134d3565b9150613417836134d3565b9250827fffffffffffffffffffffffffffffffffffffffffffffffffffffffffffffffff0382111561344c5761344b6135d8565b5b828201905092915050565b6000613462826134d3565b915061346d836134d3565b9250828210156134805761347f6135d8565b5b828203905092915050565b6000613496826134b3565b9050919050565b60008115159050919050565b6000819050919050565b600073ffffffffffffffffffffffffffffffffffffffff82169050919050565b6000819050919050565b600060ff82169050919050565b82818337600083830152505050565b60005b838110156135175780820151818401526020810190506134fc565b83811115613526576000848401525b50505050565b6000600282049050600182168061354457607f821691505b6020821081141561355857613557613607565b5b50919050565b61356782613665565b810181811067ffffffffffffffff8211171561358657613585613636565b5b80604052505050565b600061359a826134d3565b91507fffffffffffffffffffffffffffffffffffffffffffffffffffffffffffffffff8214156135cd576135cc6135d8565b5b600182019050919050565b7f4e487b7100000000000000000000000000000000000000000000000000000000600052601160045260246000fd5b7f4e487b7100000000000000000000000000000000000000000000000000000000600052602260045260246000fd5b7f4e487b7100000000000000000000000000000000000000000000000000000000600052604160045260246000fd5b6000601f19601f8301169050919050565b7f4552433737373a20617070726f76652066726f6d20746865207a65726f20616460008201527f6472657373000000000000000000000000000000000000000000000000000000602082015250565b7f4552433737373a2073656e642066726f6d20746865207a65726f20616464726560008201527f7373000000000000000000000000000000000000000000000000000000000000602082015250565b7f4552433737373a207472616e7366657220616d6f756e7420657863656564732060008201527f62616c616e636500000000000000000000000000000000000000000000000000602082015250565b7f4552433737373a206275726e2066726f6d20746865207a65726f20616464726560008201527f7373000000000000000000000000000000000000000000000000000000000000602082015250565b7f4552433737373a20617574686f72697a696e672073656c66206173206f70657260008201527f61746f7200000000000000000000000000000000000000000000000000000000602082015250565b7f4552433737373a207265766f6b696e672073656c66206173206f70657261746f60008201527f7200000000000000000000000000000000000000000000000000000000000000602082015250565b7f496e697469616c697a61626c653a20636f6e747261637420697320616c72656160008201527f647920696e697469616c697a6564000000000000000000000000000000000000602082015250565b7f4552433737373a206d696e7420746f20746865207a65726f2061646472657373600082015250565b7f4552433737373a20746f6b656e20726563697069656e7420636f6e747261637460008201527f20686173206e6f20696d706c656d656e74657220666f7220455243373737546f60208201527f6b656e73526563697069656e7400000000000000000000000000000000000000604082015250565b7f4552433737373a207472616e7366657220746f20746865207a65726f2061646460008201527f7265737300000000000000000000000000000000000000000000000000000000602082015250565b7f4552433737373a2063616c6c6572206973206e6f7420616e206f70657261746f60008201527f7220666f7220686f6c6465720000000000000000000000000000000000000000602082015250565b7f4552433737373a207472616e7366657220616d6f756e7420657863656564732060008201527f616c6c6f77616e63650000000000000000000000000000000000000000000000602082015250565b7f4552433737373a207472616e736665722066726f6d20746865207a65726f206160008201527f6464726573730000000000000000000000000000000000000000000000000000602082015250565b7f4552433737373a206275726e20616d6f756e7420657863656564732062616c6160008201527f6e63650000000000000000000000000000000000000000000000000000000000602082015250565b7f4552433737373a2073656e6420746f20746865207a65726f2061646472657373600082015250565b7f4552433737373a20617070726f766520746f20746865207a65726f206164647260008201527f6573730000000000000000000000000000000000000000000000000000000000602082015250565b613b498161348b565b8114613b5457600080fd5b50565b613b60816134d3565b8114613b6b57600080fd5b5056fea2646970667358221220c816186f5fdc1441e112faafc37b2d2ab2a1a16c88d829e6d15728365143f48d64736f6c63430008040033",
  "linkReferences": {},
  "deployedLinkReferences": {}
}