{
  "_format": "hh-sol-artifact-1",
  "contractName": "ReentrancyMockUpgradeable",
  "sourceName": "contracts/src/OpenZeppelin/upgradeable/mocks/ReentrancyMockUpgradeable.sol",
  "abi": [
    {
      "inputs": [],
      "name": "callback",
      "outputs": [],
      "stateMutability": "nonpayable",
      "type": "function"
    },
    {
      "inputs": [
        {
          "internalType": "contract ReentrancyAttackUpgradeable",
          "name": "attacker",
          "type": "address"
        }
      ],
      "name": "countAndCall",
      "outputs": [],
      "stateMutability": "nonpayable",
      "type": "function"
    },
    {
      "inputs": [
        {
          "internalType": "uint256",
          "name": "n",
          "type": "uint256"
        }
      ],
      "name": "countLocalRecursive",
      "outputs": [],
      "stateMutability": "nonpayable",
      "type": "function"
    },
    {
      "inputs": [
        {
          "internalType": "uint256",
          "name": "n",
          "type": "uint256"
        }
      ],
      "name": "countThisRecursive",
      "outputs": [],
      "stateMutability": "nonpayable",
      "type": "function"
    },
    {
      "inputs": [],
      "name": "counter",
      "outputs": [
        {
          "internalType": "uint256",
          "name": "",
          "type": "uint256"
        }
      ],
      "stateMutability": "view",
      "type": "function"
    }
  ],
  "bytecode": "0x608060405234801561001057600080fd5b5061085b806100206000396000f3fe608060405234801561001057600080fd5b50600436106100575760003560e01c8063083b27321461005c57806361bc221a146100665780638c5344fa1461008457806396ffa690146100a0578063b672ad8b146100bc575b600080fd5b6100646100d8565b005b61006e610137565b60405161007b91906105fd565b60405180910390f35b61009e600480360381019061009991906104cd565b61013d565b005b6100ba60048036038101906100b591906104cd565b6102ee565b005b6100d660048036038101906100d191906104a4565b61036d565b005b6002600154141561011e576040517f08c379a0000000000000000000000000000000000000000000000000000000008152600401610115906105dd565b60405180910390fd5b600260018190555061012e61045e565b60018081905550565b60335481565b60026001541415610183576040517f08c379a000000000000000000000000000000000000000000000000000000000815260040161017a906105dd565b60405180910390fd5b600260018190555060008111156102e45761019c61045e565b60003073ffffffffffffffffffffffffffffffffffffffff166001836101c29190610695565b6040516024016101d291906105fd565b6040516020818303038152906040527f8c5344fa000000000000000000000000000000000000000000000000000000007bffffffffffffffffffffffffffffffffffffffffffffffffffffffff19166020820180517bffffffffffffffffffffffffffffffffffffffffffffffffffffffff838183161783525050505060405161025c919061058b565b6000604051808303816000865af19150503d8060008114610299576040519150601f19603f3d011682016040523d82523d6000602084013e61029e565b606091505b50509050806102e2576040517f08c379a00000000000000000000000000000000000000000000000000000000081526004016102d9906105bd565b60405180910390fd5b505b6001808190555050565b60026001541415610334576040517f08c379a000000000000000000000000000000000000000000000000000000000815260040161032b906105dd565b60405180910390fd5b600260018190555060008111156103635761034d61045e565b61036260018261035d9190610695565b6102ee565b5b6001808190555050565b600260015414156103b3576040517f08c379a00000000000000000000000000000000000000000000000000000000081526004016103aa906105dd565b60405180910390fd5b60026001819055506103c361045e565b60007f083b2732f78169bfaad6b407fa338cc97d697ed69d3915a18239cc111d51a40290508173ffffffffffffffffffffffffffffffffffffffff16630a2df1ed826040518263ffffffff1660e01b815260040161042191906105a2565b600060405180830381600087803b15801561043b57600080fd5b505af115801561044f573d6000803e3d6000fd5b50505050506001808190555050565b600160336000828254610471919061063f565b92505081905550565b600081359050610489816107f7565b92915050565b60008135905061049e8161080e565b92915050565b6000602082840312156104b657600080fd5b60006104c48482850161047a565b91505092915050565b6000602082840312156104df57600080fd5b60006104ed8482850161048f565b91505092915050565b6104ff816106db565b82525050565b600061051082610618565b61051a8185610623565b935061052a818560208601610743565b80840191505092915050565b6000610543601b8361062e565b915061054e826107a5565b602082019050919050565b6000610566601f8361062e565b9150610571826107ce565b602082019050919050565b61058581610739565b82525050565b60006105978284610505565b915081905092915050565b60006020820190506105b760008301846104f6565b92915050565b600060208201905081810360008301526105d681610536565b9050919050565b600060208201905081810360008301526105f681610559565b9050919050565b6000602082019050610612600083018461057c565b92915050565b600081519050919050565b600081905092915050565b600082825260208201905092915050565b600061064a82610739565b915061065583610739565b9250827fffffffffffffffffffffffffffffffffffffffffffffffffffffffffffffffff0382111561068a57610689610776565b5b828201905092915050565b60006106a082610739565b91506106ab83610739565b9250828210156106be576106bd610776565b5b828203905092915050565b60006106d482610719565b9050919050565b60007fffffffff0000000000000000000000000000000000000000000000000000000082169050919050565b6000610712826106c9565b9050919050565b600073ffffffffffffffffffffffffffffffffffffffff82169050919050565b6000819050919050565b60005b83811015610761578082015181840152602081019050610746565b83811115610770576000848401525b50505050565b7f4e487b7100000000000000000000000000000000000000000000000000000000600052601160045260246000fd5b7f5265656e7472616e63794d6f636b3a206661696c65642063616c6c0000000000600082015250565b7f5265656e7472616e637947756172643a207265656e7472616e742063616c6c00600082015250565b61080081610707565b811461080b57600080fd5b50565b61081781610739565b811461082257600080fd5b5056fea26469706673582212205cc9f6ff50995a9944fc0de53856ed70ce306c716375b17c7cd372402c904a1a64736f6c63430008040033",
  "linkReferences": {},
  "deployedLinkReferences": {}
}