{
  "_format": "hh-sol-artifact-1",
  "contractName": "ERC721PausableMock",
  "sourceName": "contracts/src/OpenZeppelin/mocks/ERC721PausableMock.sol",
  "abi": [
    {
      "inputs": [
        {
          "internalType": "string",
          "name": "name",
          "type": "string"
        },
        {
          "internalType": "string",
          "name": "symbol",
          "type": "string"
        }
      ],
      "stateMutability": "nonpayable",
      "type": "constructor"
    },
    {
      "anonymous": false,
      "inputs": [
        {
          "indexed": true,
          "internalType": "address",
          "name": "owner",
          "type": "address"
        },
        {
          "indexed": true,
          "internalType": "address",
          "name": "approved",
          "type": "address"
        },
        {
          "indexed": true,
          "internalType": "uint256",
          "name": "tokenId",
          "type": "uint256"
        }
      ],
      "name": "Approval",
      "type": "event"
    },
    {
      "anonymous": false,
      "inputs": [
        {
          "indexed": true,
          "internalType": "address",
          "name": "owner",
          "type": "address"
        },
        {
          "indexed": true,
          "internalType": "address",
          "name": "operator",
          "type": "address"
        },
        {
          "indexed": false,
          "internalType": "bool",
          "name": "approved",
          "type": "bool"
        }
      ],
      "name": "ApprovalForAll",
      "type": "event"
    },
    {
      "anonymous": false,
      "inputs": [
        {
          "indexed": false,
          "internalType": "address",
          "name": "account",
          "type": "address"
        }
      ],
      "name": "Paused",
      "type": "event"
    },
    {
      "anonymous": false,
      "inputs": [
        {
          "indexed": true,
          "internalType": "address",
          "name": "from",
          "type": "address"
        },
        {
          "indexed": true,
          "internalType": "address",
          "name": "to",
          "type": "address"
        },
        {
          "indexed": true,
          "internalType": "uint256",
          "name": "tokenId",
          "type": "uint256"
        }
      ],
      "name": "Transfer",
      "type": "event"
    },
    {
      "anonymous": false,
      "inputs": [
        {
          "indexed": false,
          "internalType": "address",
          "name": "account",
          "type": "address"
        }
      ],
      "name": "Unpaused",
      "type": "event"
    },
    {
      "inputs": [
        {
          "internalType": "address",
          "name": "to",
          "type": "address"
        },
        {
          "internalType": "uint256",
          "name": "tokenId",
          "type": "uint256"
        }
      ],
      "name": "approve",
      "outputs": [],
      "stateMutability": "nonpayable",
      "type": "function"
    },
    {
      "inputs": [
        {
          "internalType": "address",
          "name": "owner",
          "type": "address"
        }
      ],
      "name": "balanceOf",
      "outputs": [
        {
          "internalType": "uint256",
          "name": "",
          "type": "uint256"
        }
      ],
      "stateMutability": "view",
      "type": "function"
    },
    {
      "inputs": [],
      "name": "baseURI",
      "outputs": [
        {
          "internalType": "string",
          "name": "",
          "type": "string"
        }
      ],
      "stateMutability": "view",
      "type": "function"
    },
    {
      "inputs": [
        {
          "internalType": "uint256",
          "name": "tokenId",
          "type": "uint256"
        }
      ],
      "name": "burn",
      "outputs": [],
      "stateMutability": "nonpayable",
      "type": "function"
    },
    {
      "inputs": [
        {
          "internalType": "uint256",
          "name": "tokenId",
          "type": "uint256"
        }
      ],
      "name": "exists",
      "outputs": [
        {
          "internalType": "bool",
          "name": "",
          "type": "bool"
        }
      ],
      "stateMutability": "view",
      "type": "function"
    },
    {
      "inputs": [
        {
          "internalType": "uint256",
          "name": "tokenId",
          "type": "uint256"
        }
      ],
      "name": "getApproved",
      "outputs": [
        {
          "internalType": "address",
          "name": "",
          "type": "address"
        }
      ],
      "stateMutability": "view",
      "type": "function"
    },
    {
      "inputs": [
        {
          "internalType": "address",
          "name": "owner",
          "type": "address"
        },
        {
          "internalType": "address",
          "name": "operator",
          "type": "address"
        }
      ],
      "name": "isApprovedForAll",
      "outputs": [
        {
          "internalType": "bool",
          "name": "",
          "type": "bool"
        }
      ],
      "stateMutability": "view",
      "type": "function"
    },
    {
      "inputs": [
        {
          "internalType": "address",
          "name": "to",
          "type": "address"
        },
        {
          "internalType": "uint256",
          "name": "tokenId",
          "type": "uint256"
        }
      ],
      "name": "mint",
      "outputs": [],
      "stateMutability": "nonpayable",
      "type": "function"
    },
    {
      "inputs": [],
      "name": "name",
      "outputs": [
        {
          "internalType": "string",
          "name": "",
          "type": "string"
        }
      ],
      "stateMutability": "view",
      "type": "function"
    },
    {
      "inputs": [
        {
          "internalType": "uint256",
          "name": "tokenId",
          "type": "uint256"
        }
      ],
      "name": "ownerOf",
      "outputs": [
        {
          "internalType": "address",
          "name": "",
          "type": "address"
        }
      ],
      "stateMutability": "view",
      "type": "function"
    },
    {
      "inputs": [],
      "name": "pause",
      "outputs": [],
      "stateMutability": "nonpayable",
      "type": "function"
    },
    {
      "inputs": [],
      "name": "paused",
      "outputs": [
        {
          "internalType": "bool",
          "name": "",
          "type": "bool"
        }
      ],
      "stateMutability": "view",
      "type": "function"
    },
    {
      "inputs": [
        {
          "internalType": "address",
          "name": "from",
          "type": "address"
        },
        {
          "internalType": "address",
          "name": "to",
          "type": "address"
        },
        {
          "internalType": "uint256",
          "name": "tokenId",
          "type": "uint256"
        }
      ],
      "name": "safeTransferFrom",
      "outputs": [],
      "stateMutability": "nonpayable",
      "type": "function"
    },
    {
      "inputs": [
        {
          "internalType": "address",
          "name": "from",
          "type": "address"
        },
        {
          "internalType": "address",
          "name": "to",
          "type": "address"
        },
        {
          "internalType": "uint256",
          "name": "tokenId",
          "type": "uint256"
        },
        {
          "internalType": "bytes",
          "name": "_data",
          "type": "bytes"
        }
      ],
      "name": "safeTransferFrom",
      "outputs": [],
      "stateMutability": "nonpayable",
      "type": "function"
    },
    {
      "inputs": [
        {
          "internalType": "address",
          "name": "operator",
          "type": "address"
        },
        {
          "internalType": "bool",
          "name": "approved",
          "type": "bool"
        }
      ],
      "name": "setApprovalForAll",
      "outputs": [],
      "stateMutability": "nonpayable",
      "type": "function"
    },
    {
      "inputs": [
        {
          "internalType": "bytes4",
          "name": "interfaceId",
          "type": "bytes4"
        }
      ],
      "name": "supportsInterface",
      "outputs": [
        {
          "internalType": "bool",
          "name": "",
          "type": "bool"
        }
      ],
      "stateMutability": "view",
      "type": "function"
    },
    {
      "inputs": [],
      "name": "symbol",
      "outputs": [
        {
          "internalType": "string",
          "name": "",
          "type": "string"
        }
      ],
      "stateMutability": "view",
      "type": "function"
    },
    {
      "inputs": [
        {
          "internalType": "uint256",
          "name": "index",
          "type": "uint256"
        }
      ],
      "name": "tokenByIndex",
      "outputs": [
        {
          "internalType": "uint256",
          "name": "",
          "type": "uint256"
        }
      ],
      "stateMutability": "view",
      "type": "function"
    },
    {
      "inputs": [
        {
          "internalType": "address",
          "name": "owner",
          "type": "address"
        },
        {
          "internalType": "uint256",
          "name": "index",
          "type": "uint256"
        }
      ],
      "name": "tokenOfOwnerByIndex",
      "outputs": [
        {
          "internalType": "uint256",
          "name": "",
          "type": "uint256"
        }
      ],
      "stateMutability": "view",
      "type": "function"
    },
    {
      "inputs": [
        {
          "internalType": "uint256",
          "name": "tokenId",
          "type": "uint256"
        }
      ],
      "name": "tokenURI",
      "outputs": [
        {
          "internalType": "string",
          "name": "",
          "type": "string"
        }
      ],
      "stateMutability": "view",
      "type": "function"
    },
    {
      "inputs": [],
      "name": "totalSupply",
      "outputs": [
        {
          "internalType": "uint256",
          "name": "",
          "type": "uint256"
        }
      ],
      "stateMutability": "view",
      "type": "function"
    },
    {
      "inputs": [
        {
          "internalType": "address",
          "name": "from",
          "type": "address"
        },
        {
          "internalType": "address",
          "name": "to",
          "type": "address"
        },
        {
          "internalType": "uint256",
          "name": "tokenId",
          "type": "uint256"
        }
      ],
      "name": "transferFrom",
      "outputs": [],
      "stateMutability": "nonpayable",
      "type": "function"
    },
    {
      "inputs": [],
      "name": "unpause",
      "outputs": [],
      "stateMutability": "nonpayable",
      "type": "function"
    }
  ],
  "bytecode": "0x60806040523480156200001157600080fd5b5060405162003b8038038062003b8083398181016040528101906200003791906200034e565b81816200006a7f01ffc9a7000000000000000000000000000000000000000000000000000000006200015460201b60201c565b8160069080519060200190620000829291906200022c565b5080600790805190602001906200009b9291906200022c565b50620000cd7f80ac58cd000000000000000000000000000000000000000000000000000000006200015460201b60201c565b620000fe7f5b5e139f000000000000000000000000000000000000000000000000000000006200015460201b60201c565b6200012f7f780e9d63000000000000000000000000000000000000000000000000000000006200015460201b60201c565b50506000600a60006101000a81548160ff0219169083151502179055505050620005b4565b63ffffffff60e01b817bffffffffffffffffffffffffffffffffffffffffffffffffffffffff19161415620001c0576040517f08c379a0000000000000000000000000000000000000000000000000000000008152600401620001b790620003e8565b60405180910390fd5b6001600080837bffffffffffffffffffffffffffffffffffffffffffffffffffffffff19167bffffffffffffffffffffffffffffffffffffffffffffffffffffffff1916815260200190815260200160002060006101000a81548160ff02191690831515021790555050565b8280546200023a90620004b0565b90600052602060002090601f0160209004810192826200025e5760008555620002aa565b82601f106200027957805160ff1916838001178555620002aa565b82800160010185558215620002aa579182015b82811115620002a95782518255916020019190600101906200028c565b5b509050620002b99190620002bd565b5090565b5b80821115620002d8576000816000905550600101620002be565b5090565b6000620002f3620002ed8462000433565b6200040a565b9050828152602081018484840111156200030c57600080fd5b620003198482856200047a565b509392505050565b600082601f8301126200033357600080fd5b815162000345848260208601620002dc565b91505092915050565b600080604083850312156200036257600080fd5b600083015167ffffffffffffffff8111156200037d57600080fd5b6200038b8582860162000321565b925050602083015167ffffffffffffffff811115620003a957600080fd5b620003b78582860162000321565b9150509250929050565b6000620003d0601c8362000469565b9150620003dd826200058b565b602082019050919050565b600060208201905081810360008301526200040381620003c1565b9050919050565b60006200041662000429565b9050620004248282620004e6565b919050565b6000604051905090565b600067ffffffffffffffff8211156200045157620004506200054b565b5b6200045c826200057a565b9050602081019050919050565b600082825260208201905092915050565b60005b838110156200049a5780820151818401526020810190506200047d565b83811115620004aa576000848401525b50505050565b60006002820490506001821680620004c957607f821691505b60208210811415620004e057620004df6200051c565b5b50919050565b620004f1826200057a565b810181811067ffffffffffffffff821117156200051357620005126200054b565b5b80604052505050565b7f4e487b7100000000000000000000000000000000000000000000000000000000600052602260045260246000fd5b7f4e487b7100000000000000000000000000000000000000000000000000000000600052604160045260246000fd5b6000601f19601f8301169050919050565b7f4552433136353a20696e76616c696420696e7465726661636520696400000000600082015250565b6135bc80620005c46000396000f3fe608060405234801561001057600080fd5b506004361061014d5760003560e01c80634f558e79116100c35780638456cb591161007c5780638456cb59146103b057806395d89b41146103ba578063a22cb465146103d8578063b88d4fde146103f4578063c87b56dd14610410578063e985e9c5146104405761014d565b80634f558e79146102b45780634f6ccce7146102e45780635c975abb146103145780636352211e146103325780636c0360eb1461036257806370a08231146103805761014d565b806323b872dd1161011557806323b872dd1461020a5780632f745c59146102265780633f4ba83a1461025657806340c10f191461026057806342842e0e1461027c57806342966c68146102985761014d565b806301ffc9a71461015257806306fdde0314610182578063081812fc146101a0578063095ea7b3146101d057806318160ddd146101ec575b600080fd5b61016c60048036038101906101679190612599565b610470565b60405161017991906129e5565b60405180910390f35b61018a6104d7565b6040516101979190612a00565b60405180910390f35b6101ba60048036038101906101b591906125eb565b610569565b6040516101c7919061297e565b60405180910390f35b6101ea60048036038101906101e5919061255d565b6105ee565b005b6101f4610706565b6040516102019190612c62565b60405180910390f35b610224600480360381019061021f9190612457565b610717565b005b610240600480360381019061023b919061255d565b610777565b60405161024d9190612c62565b60405180910390f35b61025e6107d2565b005b61027a6004803603810190610275919061255d565b6107dc565b005b61029660048036038101906102919190612457565b6107ea565b005b6102b260048036038101906102ad91906125eb565b61080a565b005b6102ce60048036038101906102c991906125eb565b610816565b6040516102db91906129e5565b60405180910390f35b6102fe60048036038101906102f991906125eb565b610828565b60405161030b9190612c62565b60405180910390f35b61031c61084b565b60405161032991906129e5565b60405180910390f35b61034c600480360381019061034791906125eb565b610862565b604051610359919061297e565b60405180910390f35b61036a610899565b6040516103779190612a00565b60405180910390f35b61039a600480360381019061039591906123f2565b61092b565b6040516103a79190612c62565b60405180910390f35b6103b86109ea565b005b6103c26109f4565b6040516103cf9190612a00565b60405180910390f35b6103f260048036038101906103ed9190612521565b610a86565b005b61040e600480360381019061040991906124a6565b610c07565b005b61042a600480360381019061042591906125eb565b610c69565b6040516104379190612a00565b60405180910390f35b61045a6004803603810190610455919061241b565b610ddc565b60405161046791906129e5565b60405180910390f35b6000806000837bffffffffffffffffffffffffffffffffffffffffffffffffffffffff19167bffffffffffffffffffffffffffffffffffffffffffffffffffffffff1916815260200190815260200160002060009054906101000a900460ff169050919050565b6060600680546104e690612e87565b80601f016020809104026020016040519081016040528092919081815260200182805461051290612e87565b801561055f5780601f106105345761010080835404028352916020019161055f565b820191906000526020600020905b81548152906001019060200180831161054257829003601f168201915b5050505050905090565b600061057482610e70565b6105b3576040517f08c379a00000000000000000000000000000000000000000000000000000000081526004016105aa90612bc2565b60405180910390fd5b6004600083815260200190815260200160002060009054906101000a900473ffffffffffffffffffffffffffffffffffffffff169050919050565b60006105f982610862565b90508073ffffffffffffffffffffffffffffffffffffffff168373ffffffffffffffffffffffffffffffffffffffff16141561066a576040517f08c379a000000000000000000000000000000000000000000000000000000000815260040161066190612c22565b60405180910390fd5b8073ffffffffffffffffffffffffffffffffffffffff16610689610e8d565b73ffffffffffffffffffffffffffffffffffffffff1614806106b857506106b7816106b2610e8d565b610ddc565b5b6106f7576040517f08c379a00000000000000000000000000000000000000000000000000000000081526004016106ee90612b42565b60405180910390fd5b6107018383610e95565b505050565b60006107126002610f4e565b905090565b610728610722610e8d565b82610f63565b610767576040517f08c379a000000000000000000000000000000000000000000000000000000000815260040161075e90612c42565b60405180910390fd5b610772838383611041565b505050565b60006107ca82600160008673ffffffffffffffffffffffffffffffffffffffff1673ffffffffffffffffffffffffffffffffffffffff16815260200190815260200160002061125890919063ffffffff16565b905092915050565b6107da611272565b565b6107e68282611314565b5050565b61080583838360405180602001604052806000815250610c07565b505050565b610813816114a2565b50565b600061082182610e70565b9050919050565b60008061083f8360026115d490919063ffffffff16565b50905080915050919050565b6000600a60009054906101000a900460ff16905090565b60006108928260405180606001604052806029815260200161355e6029913960026116009092919063ffffffff16565b9050919050565b6060600980546108a890612e87565b80601f01602080910402602001604051908101604052809291908181526020018280546108d490612e87565b80156109215780601f106108f657610100808354040283529160200191610921565b820191906000526020600020905b81548152906001019060200180831161090457829003601f168201915b5050505050905090565b60008073ffffffffffffffffffffffffffffffffffffffff168273ffffffffffffffffffffffffffffffffffffffff16141561099c576040517f08c379a000000000000000000000000000000000000000000000000000000000815260040161099390612b62565b60405180910390fd5b6109e3600160008473ffffffffffffffffffffffffffffffffffffffff1673ffffffffffffffffffffffffffffffffffffffff16815260200190815260200160002061161f565b9050919050565b6109f2611634565b565b606060078054610a0390612e87565b80601f0160208091040260200160405190810160405280929190818152602001828054610a2f90612e87565b8015610a7c5780601f10610a5157610100808354040283529160200191610a7c565b820191906000526020600020905b815481529060010190602001808311610a5f57829003601f168201915b5050505050905090565b610a8e610e8d565b73ffffffffffffffffffffffffffffffffffffffff168273ffffffffffffffffffffffffffffffffffffffff161415610afc576040517f08c379a0000000000000000000000000000000000000000000000000000000008152600401610af390612ae2565b60405180910390fd5b8060056000610b09610e8d565b73ffffffffffffffffffffffffffffffffffffffff1673ffffffffffffffffffffffffffffffffffffffff16815260200190815260200160002060008473ffffffffffffffffffffffffffffffffffffffff1673ffffffffffffffffffffffffffffffffffffffff16815260200190815260200160002060006101000a81548160ff0219169083151502179055508173ffffffffffffffffffffffffffffffffffffffff16610bb6610e8d565b73ffffffffffffffffffffffffffffffffffffffff167f17307eab39ab6107e8899845ad3d59bd9653f200f220920489ca2b5937696c3183604051610bfb91906129e5565b60405180910390a35050565b610c18610c12610e8d565b83610f63565b610c57576040517f08c379a0000000000000000000000000000000000000000000000000000000008152600401610c4e90612c42565b60405180910390fd5b610c63848484846116d7565b50505050565b6060610c7482610e70565b610cb3576040517f08c379a0000000000000000000000000000000000000000000000000000000008152600401610caa90612c02565b60405180910390fd5b6000600860008481526020019081526020016000208054610cd390612e87565b80601f0160208091040260200160405190810160405280929190818152602001828054610cff90612e87565b8015610d4c5780601f10610d2157610100808354040283529160200191610d4c565b820191906000526020600020905b815481529060010190602001808311610d2f57829003601f168201915b505050505090506000610d5d610899565b9050600081511415610d73578192505050610dd7565b600082511115610da8578082604051602001610d9092919061295a565b60405160208183030381529060405292505050610dd7565b80610db285611733565b604051602001610dc392919061295a565b604051602081830303815290604052925050505b919050565b6000600560008473ffffffffffffffffffffffffffffffffffffffff1673ffffffffffffffffffffffffffffffffffffffff16815260200190815260200160002060008373ffffffffffffffffffffffffffffffffffffffff1673ffffffffffffffffffffffffffffffffffffffff16815260200190815260200160002060009054906101000a900460ff16905092915050565b6000610e868260026118e090919063ffffffff16565b9050919050565b600033905090565b816004600083815260200190815260200160002060006101000a81548173ffffffffffffffffffffffffffffffffffffffff021916908373ffffffffffffffffffffffffffffffffffffffff160217905550808273ffffffffffffffffffffffffffffffffffffffff16610f0883610862565b73ffffffffffffffffffffffffffffffffffffffff167f8c5be1e5ebec7d5bd14f71427d1e84f3dd0314c0f7b2291e5b200ac8c7c3b92560405160405180910390a45050565b6000610f5c826000016118fa565b9050919050565b6000610f6e82610e70565b610fad576040517f08c379a0000000000000000000000000000000000000000000000000000000008152600401610fa490612b02565b60405180910390fd5b6000610fb883610862565b90508073ffffffffffffffffffffffffffffffffffffffff168473ffffffffffffffffffffffffffffffffffffffff16148061102757508373ffffffffffffffffffffffffffffffffffffffff1661100f84610569565b73ffffffffffffffffffffffffffffffffffffffff16145b8061103857506110378185610ddc565b5b91505092915050565b8273ffffffffffffffffffffffffffffffffffffffff1661106182610862565b73ffffffffffffffffffffffffffffffffffffffff16146110b7576040517f08c379a00000000000000000000000000000000000000000000000000000000081526004016110ae90612be2565b60405180910390fd5b600073ffffffffffffffffffffffffffffffffffffffff168273ffffffffffffffffffffffffffffffffffffffff161415611127576040517f08c379a000000000000000000000000000000000000000000000000000000000815260040161111e90612ac2565b60405180910390fd5b61113283838361190b565b61113d600082610e95565b61118e81600160008673ffffffffffffffffffffffffffffffffffffffff1673ffffffffffffffffffffffffffffffffffffffff16815260200190815260200160002061196390919063ffffffff16565b506111e081600160008573ffffffffffffffffffffffffffffffffffffffff1673ffffffffffffffffffffffffffffffffffffffff16815260200190815260200160002061197d90919063ffffffff16565b506111f7818360026119979092919063ffffffff16565b50808273ffffffffffffffffffffffffffffffffffffffff168473ffffffffffffffffffffffffffffffffffffffff167fddf252ad1be2c89b69c2b068fc378daa952ba7f163c4a11628f55a4df523b3ef60405160405180910390a4505050565b600061126783600001836119cc565b60001c905092915050565b61127a61084b565b6112b9576040517f08c379a00000000000000000000000000000000000000000000000000000000081526004016112b090612a62565b60405180910390fd5b6000600a60006101000a81548160ff0219169083151502179055507f5db9ee0a495bf2e6ff9c91a7834c1ba4fdd244a5e8aa4e537bd38aeae4b073aa6112fd610e8d565b60405161130a919061297e565b60405180910390a1565b600073ffffffffffffffffffffffffffffffffffffffff168273ffffffffffffffffffffffffffffffffffffffff161415611384576040517f08c379a000000000000000000000000000000000000000000000000000000000815260040161137b90612ba2565b60405180910390fd5b61138d81610e70565b156113cd576040517f08c379a00000000000000000000000000000000000000000000000000000000081526004016113c490612aa2565b60405180910390fd5b6113d96000838361190b565b61142a81600160008573ffffffffffffffffffffffffffffffffffffffff1673ffffffffffffffffffffffffffffffffffffffff16815260200190815260200160002061197d90919063ffffffff16565b50611441818360026119979092919063ffffffff16565b50808273ffffffffffffffffffffffffffffffffffffffff16600073ffffffffffffffffffffffffffffffffffffffff167fddf252ad1be2c89b69c2b068fc378daa952ba7f163c4a11628f55a4df523b3ef60405160405180910390a45050565b60006114ad82610862565b90506114bb8160008461190b565b6114c6600083610e95565b60006008600084815260200190815260200160002080546114e690612e87565b90501461150d5760086000838152602001908152602001600020600061150c91906122c4565b5b61155e82600160008473ffffffffffffffffffffffffffffffffffffffff1673ffffffffffffffffffffffffffffffffffffffff16815260200190815260200160002061196390919063ffffffff16565b50611573826002611a6690919063ffffffff16565b5081600073ffffffffffffffffffffffffffffffffffffffff168273ffffffffffffffffffffffffffffffffffffffff167fddf252ad1be2c89b69c2b068fc378daa952ba7f163c4a11628f55a4df523b3ef60405160405180910390a45050565b6000806000806115e78660000186611a80565b915091508160001c8160001c9350935050509250929050565b6000611613846000018460001b84611b30565b60001c90509392505050565b600061162d82600001611bf7565b9050919050565b61163c61084b565b1561167c576040517f08c379a000000000000000000000000000000000000000000000000000000000815260040161167390612b22565b60405180910390fd5b6001600a60006101000a81548160ff0219169083151502179055507f62e78cea01bee320cd4e420270b5ea74000d11b0c9f74754ebdbfc544b05a2586116c0610e8d565b6040516116cd919061297e565b60405180910390a1565b6116e2848484611041565b6116ee84848484611c08565b61172d576040517f08c379a000000000000000000000000000000000000000000000000000000000815260040161172490612a82565b60405180910390fd5b50505050565b6060600082141561177b576040518060400160405280600181526020017f300000000000000000000000000000000000000000000000000000000000000081525090506118db565b600082905060005b600082146117ad57808061179690612eea565b915050600a826117a69190612d6c565b9150611783565b60008167ffffffffffffffff8111156117ef577f4e487b7100000000000000000000000000000000000000000000000000000000600052604160045260246000fd5b6040519080825280601f01601f1916602001820160405280156118215781602001600182028036833780820191505090505b5090505b600085146118d45760018261183a9190612d9d565b9150600a856118499190612f33565b60306118559190612d16565b60f81b818381518110611891577f4e487b7100000000000000000000000000000000000000000000000000000000600052603260045260246000fd5b60200101907effffffffffffffffffffffffffffffffffffffffffffffffffffffffffffff1916908160001a905350600a856118cd9190612d6c565b9450611825565b8093505050505b919050565b60006118f2836000018360001b611d9f565b905092915050565b600081600001805490509050919050565b611916838383611dc2565b61191e61084b565b1561195e576040517f08c379a000000000000000000000000000000000000000000000000000000000815260040161195590612a42565b60405180910390fd5b505050565b6000611975836000018360001b611dc7565b905092915050565b600061198f836000018360001b611f51565b905092915050565b60006119c3846000018460001b8473ffffffffffffffffffffffffffffffffffffffff1660001b611fc1565b90509392505050565b600081836000018054905011611a17576040517f08c379a0000000000000000000000000000000000000000000000000000000008152600401611a0e90612a22565b60405180910390fd5b826000018281548110611a53577f4e487b7100000000000000000000000000000000000000000000000000000000600052603260045260246000fd5b9060005260206000200154905092915050565b6000611a78836000018360001b6120d3565b905092915050565b60008082846000018054905011611acc576040517f08c379a0000000000000000000000000000000000000000000000000000000008152600401611ac390612b82565b60405180910390fd5b6000846000018481548110611b0a577f4e487b7100000000000000000000000000000000000000000000000000000000600052603260045260246000fd5b906000526020600020906002020190508060000154816001015492509250509250929050565b60008084600101600085815260200190815260200160002054905060008114158390611b92576040517f08c379a0000000000000000000000000000000000000000000000000000000008152600401611b899190612a00565b60405180910390fd5b5084600001600182611ba49190612d9d565b81548110611bdb577f4e487b7100000000000000000000000000000000000000000000000000000000600052603260045260246000fd5b9060005260206000209060020201600101549150509392505050565b600081600001805490509050919050565b6000611c298473ffffffffffffffffffffffffffffffffffffffff1661228e565b15611d92578373ffffffffffffffffffffffffffffffffffffffff1663150b7a02611c52610e8d565b8786866040518563ffffffff1660e01b8152600401611c749493929190612999565b602060405180830381600087803b158015611c8e57600080fd5b505af1925050508015611cbf57506040513d601f19601f82011682018060405250810190611cbc91906125c2565b60015b611d42573d8060008114611cef576040519150601f19603f3d011682016040523d82523d6000602084013e611cf4565b606091505b50600081511415611d3a576040517f08c379a0000000000000000000000000000000000000000000000000000000008152600401611d3190612a82565b60405180910390fd5b805181602001fd5b63150b7a0260e01b7bffffffffffffffffffffffffffffffffffffffffffffffffffffffff1916817bffffffffffffffffffffffffffffffffffffffffffffffffffffffff191614915050611d97565b600190505b949350505050565b600080836001016000848152602001908152602001600020541415905092915050565b505050565b60008083600101600084815260200190815260200160002054905060008114611f45576000600182611df99190612d9d565b9050600060018660000180549050611e119190612d9d565b90506000866000018281548110611e51577f4e487b7100000000000000000000000000000000000000000000000000000000600052603260045260246000fd5b9060005260206000200154905080876000018481548110611e9b577f4e487b7100000000000000000000000000000000000000000000000000000000600052603260045260246000fd5b9060005260206000200181905550600183611eb69190612d16565b8760010160008381526020019081526020016000208190555086600001805480611f09577f4e487b7100000000000000000000000000000000000000000000000000000000600052603160045260246000fd5b60019003818190600052602060002001600090559055866001016000878152602001908152602001600020600090556001945050505050611f4b565b60009150505b92915050565b6000611f5d83836122a1565b611fb6578260000182908060018154018082558091505060019003906000526020600020016000909190919091505582600001805490508360010160008481526020019081526020016000208190555060019050611fbb565b600090505b92915050565b6000808460010160008581526020019081526020016000205490506000811415612068578460000160405180604001604052808681526020018581525090806001815401808255809150506001900390600052602060002090600202016000909190919091506000820151816000015560208201518160010155505084600001805490508560010160008681526020019081526020016000208190555060019150506120cc565b828560000160018361207a9190612d9d565b815481106120b1577f4e487b7100000000000000000000000000000000000000000000000000000000600052603260045260246000fd5b90600052602060002090600202016001018190555060009150505b9392505050565b600080836001016000848152602001908152602001600020549050600081146122825760006001826121059190612d9d565b905060006001866000018054905061211d9190612d9d565b9050600086600001828154811061215d577f4e487b7100000000000000000000000000000000000000000000000000000000600052603260045260246000fd5b90600052602060002090600202019050808760000184815481106121aa577f4e487b7100000000000000000000000000000000000000000000000000000000600052603260045260246000fd5b906000526020600020906002020160008201548160000155600182015481600101559050506001836121dc9190612d16565b876001016000836000015481526020019081526020016000208190555086600001805480612233577f4e487b7100000000000000000000000000000000000000000000000000000000600052603160045260246000fd5b6001900381819060005260206000209060020201600080820160009055600182016000905550509055866001016000878152602001908152602001600020600090556001945050505050612288565b60009150505b92915050565b600080823b905060008111915050919050565b600080836001016000848152602001908152602001600020541415905092915050565b5080546122d090612e87565b6000825580601f106122e25750612301565b601f0160209004906000526020600020908101906123009190612304565b5b50565b5b8082111561231d576000816000905550600101612305565b5090565b600061233461232f84612ca2565b612c7d565b90508281526020810184848401111561234c57600080fd5b612357848285612e45565b509392505050565b60008135905061236e81613501565b92915050565b60008135905061238381613518565b92915050565b6000813590506123988161352f565b92915050565b6000815190506123ad8161352f565b92915050565b600082601f8301126123c457600080fd5b81356123d4848260208601612321565b91505092915050565b6000813590506123ec81613546565b92915050565b60006020828403121561240457600080fd5b60006124128482850161235f565b91505092915050565b6000806040838503121561242e57600080fd5b600061243c8582860161235f565b925050602061244d8582860161235f565b9150509250929050565b60008060006060848603121561246c57600080fd5b600061247a8682870161235f565b935050602061248b8682870161235f565b925050604061249c868287016123dd565b9150509250925092565b600080600080608085870312156124bc57600080fd5b60006124ca8782880161235f565b94505060206124db8782880161235f565b93505060406124ec878288016123dd565b925050606085013567ffffffffffffffff81111561250957600080fd5b612515878288016123b3565b91505092959194509250565b6000806040838503121561253457600080fd5b60006125428582860161235f565b925050602061255385828601612374565b9150509250929050565b6000806040838503121561257057600080fd5b600061257e8582860161235f565b925050602061258f858286016123dd565b9150509250929050565b6000602082840312156125ab57600080fd5b60006125b984828501612389565b91505092915050565b6000602082840312156125d457600080fd5b60006125e28482850161239e565b91505092915050565b6000602082840312156125fd57600080fd5b600061260b848285016123dd565b91505092915050565b61261d81612dd1565b82525050565b61262c81612de3565b82525050565b600061263d82612cd3565b6126478185612ce9565b9350612657818560208601612e54565b61266081613020565b840191505092915050565b600061267682612cde565b6126808185612cfa565b9350612690818560208601612e54565b61269981613020565b840191505092915050565b60006126af82612cde565b6126b98185612d0b565b93506126c9818560208601612e54565b80840191505092915050565b60006126e2602283612cfa565b91506126ed82613031565b604082019050919050565b6000612705602b83612cfa565b915061271082613080565b604082019050919050565b6000612728601483612cfa565b9150612733826130cf565b602082019050919050565b600061274b603283612cfa565b9150612756826130f8565b604082019050919050565b600061276e601c83612cfa565b915061277982613147565b602082019050919050565b6000612791602483612cfa565b915061279c82613170565b604082019050919050565b60006127b4601983612cfa565b91506127bf826131bf565b602082019050919050565b60006127d7602c83612cfa565b91506127e2826131e8565b604082019050919050565b60006127fa601083612cfa565b915061280582613237565b602082019050919050565b600061281d603883612cfa565b915061282882613260565b604082019050919050565b6000612840602a83612cfa565b915061284b826132af565b604082019050919050565b6000612863602283612cfa565b915061286e826132fe565b604082019050919050565b6000612886602083612cfa565b91506128918261334d565b602082019050919050565b60006128a9602c83612cfa565b91506128b482613376565b604082019050919050565b60006128cc602983612cfa565b91506128d7826133c5565b604082019050919050565b60006128ef602f83612cfa565b91506128fa82613414565b604082019050919050565b6000612912602183612cfa565b915061291d82613463565b604082019050919050565b6000612935603183612cfa565b9150612940826134b2565b604082019050919050565b61295481612e3b565b82525050565b600061296682856126a4565b915061297282846126a4565b91508190509392505050565b60006020820190506129936000830184612614565b92915050565b60006080820190506129ae6000830187612614565b6129bb6020830186612614565b6129c8604083018561294b565b81810360608301526129da8184612632565b905095945050505050565b60006020820190506129fa6000830184612623565b92915050565b60006020820190508181036000830152612a1a818461266b565b905092915050565b60006020820190508181036000830152612a3b816126d5565b9050919050565b60006020820190508181036000830152612a5b816126f8565b9050919050565b60006020820190508181036000830152612a7b8161271b565b9050919050565b60006020820190508181036000830152612a9b8161273e565b9050919050565b60006020820190508181036000830152612abb81612761565b9050919050565b60006020820190508181036000830152612adb81612784565b9050919050565b60006020820190508181036000830152612afb816127a7565b9050919050565b60006020820190508181036000830152612b1b816127ca565b9050919050565b60006020820190508181036000830152612b3b816127ed565b9050919050565b60006020820190508181036000830152612b5b81612810565b9050919050565b60006020820190508181036000830152612b7b81612833565b9050919050565b60006020820190508181036000830152612b9b81612856565b9050919050565b60006020820190508181036000830152612bbb81612879565b9050919050565b60006020820190508181036000830152612bdb8161289c565b9050919050565b60006020820190508181036000830152612bfb816128bf565b9050919050565b60006020820190508181036000830152612c1b816128e2565b9050919050565b60006020820190508181036000830152612c3b81612905565b9050919050565b60006020820190508181036000830152612c5b81612928565b9050919050565b6000602082019050612c77600083018461294b565b92915050565b6000612c87612c98565b9050612c938282612eb9565b919050565b6000604051905090565b600067ffffffffffffffff821115612cbd57612cbc612ff1565b5b612cc682613020565b9050602081019050919050565b600081519050919050565b600081519050919050565b600082825260208201905092915050565b600082825260208201905092915050565b600081905092915050565b6000612d2182612e3b565b9150612d2c83612e3b565b9250827fffffffffffffffffffffffffffffffffffffffffffffffffffffffffffffffff03821115612d6157612d60612f64565b5b828201905092915050565b6000612d7782612e3b565b9150612d8283612e3b565b925082612d9257612d91612f93565b5b828204905092915050565b6000612da882612e3b565b9150612db383612e3b565b925082821015612dc657612dc5612f64565b5b828203905092915050565b6000612ddc82612e1b565b9050919050565b60008115159050919050565b60007fffffffff0000000000000000000000000000000000000000000000000000000082169050919050565b600073ffffffffffffffffffffffffffffffffffffffff82169050919050565b6000819050919050565b82818337600083830152505050565b60005b83811015612e72578082015181840152602081019050612e57565b83811115612e81576000848401525b50505050565b60006002820490506001821680612e9f57607f821691505b60208210811415612eb357612eb2612fc2565b5b50919050565b612ec282613020565b810181811067ffffffffffffffff82111715612ee157612ee0612ff1565b5b80604052505050565b6000612ef582612e3b565b91507fffffffffffffffffffffffffffffffffffffffffffffffffffffffffffffffff821415612f2857612f27612f64565b5b600182019050919050565b6000612f3e82612e3b565b9150612f4983612e3b565b925082612f5957612f58612f93565b5b828206905092915050565b7f4e487b7100000000000000000000000000000000000000000000000000000000600052601160045260246000fd5b7f4e487b7100000000000000000000000000000000000000000000000000000000600052601260045260246000fd5b7f4e487b7100000000000000000000000000000000000000000000000000000000600052602260045260246000fd5b7f4e487b7100000000000000000000000000000000000000000000000000000000600052604160045260246000fd5b6000601f19601f8301169050919050565b7f456e756d657261626c655365743a20696e646578206f7574206f6620626f756e60008201527f6473000000000000000000000000000000000000000000000000000000000000602082015250565b7f4552433732315061757361626c653a20746f6b656e207472616e73666572207760008201527f68696c6520706175736564000000000000000000000000000000000000000000602082015250565b7f5061757361626c653a206e6f7420706175736564000000000000000000000000600082015250565b7f4552433732313a207472616e7366657220746f206e6f6e20455243373231526560008201527f63656976657220696d706c656d656e7465720000000000000000000000000000602082015250565b7f4552433732313a20746f6b656e20616c7265616479206d696e74656400000000600082015250565b7f4552433732313a207472616e7366657220746f20746865207a65726f2061646460008201527f7265737300000000000000000000000000000000000000000000000000000000602082015250565b7f4552433732313a20617070726f766520746f2063616c6c657200000000000000600082015250565b7f4552433732313a206f70657261746f7220717565727920666f72206e6f6e657860008201527f697374656e7420746f6b656e0000000000000000000000000000000000000000602082015250565b7f5061757361626c653a2070617573656400000000000000000000000000000000600082015250565b7f4552433732313a20617070726f76652063616c6c6572206973206e6f74206f7760008201527f6e6572206e6f7220617070726f76656420666f7220616c6c0000000000000000602082015250565b7f4552433732313a2062616c616e636520717565727920666f7220746865207a6560008201527f726f206164647265737300000000000000000000000000000000000000000000602082015250565b7f456e756d657261626c654d61703a20696e646578206f7574206f6620626f756e60008201527f6473000000000000000000000000000000000000000000000000000000000000602082015250565b7f4552433732313a206d696e7420746f20746865207a65726f2061646472657373600082015250565b7f4552433732313a20617070726f76656420717565727920666f72206e6f6e657860008201527f697374656e7420746f6b656e0000000000000000000000000000000000000000602082015250565b7f4552433732313a207472616e73666572206f6620746f6b656e2074686174206960008201527f73206e6f74206f776e0000000000000000000000000000000000000000000000602082015250565b7f4552433732314d657461646174613a2055524920717565727920666f72206e6f60008201527f6e6578697374656e7420746f6b656e0000000000000000000000000000000000602082015250565b7f4552433732313a20617070726f76616c20746f2063757272656e74206f776e6560008201527f7200000000000000000000000000000000000000000000000000000000000000602082015250565b7f4552433732313a207472616e736665722063616c6c6572206973206e6f74206f60008201527f776e6572206e6f7220617070726f766564000000000000000000000000000000602082015250565b61350a81612dd1565b811461351557600080fd5b50565b61352181612de3565b811461352c57600080fd5b50565b61353881612def565b811461354357600080fd5b50565b61354f81612e3b565b811461355a57600080fd5b5056fe4552433732313a206f776e657220717565727920666f72206e6f6e6578697374656e7420746f6b656ea26469706673582212204d94963b195d7c998367e312e09bad9200ae3de01f5168b5b9a9f2195e2a764c64736f6c63430008040033",
  "linkReferences": {},
  "deployedLinkReferences": {}
}