{
  "_format": "hh-sol-artifact-1",
  "contractName": "PausableMockUpgradeable",
  "sourceName": "contracts/src/OpenZeppelin/upgradeable/mocks/PausableMockUpgradeable.sol",
  "abi": [
    {
      "anonymous": false,
      "inputs": [
        {
          "indexed": false,
          "internalType": "address",
          "name": "account",
          "type": "address"
        }
      ],
      "name": "Paused",
      "type": "event"
    },
    {
      "anonymous": false,
      "inputs": [
        {
          "indexed": false,
          "internalType": "address",
          "name": "account",
          "type": "address"
        }
      ],
      "name": "Unpaused",
      "type": "event"
    },
    {
      "inputs": [],
      "name": "count",
      "outputs": [
        {
          "internalType": "uint256",
          "name": "",
          "type": "uint256"
        }
      ],
      "stateMutability": "view",
      "type": "function"
    },
    {
      "inputs": [],
      "name": "drasticMeasure",
      "outputs": [],
      "stateMutability": "nonpayable",
      "type": "function"
    },
    {
      "inputs": [],
      "name": "drasticMeasureTaken",
      "outputs": [
        {
          "internalType": "bool",
          "name": "",
          "type": "bool"
        }
      ],
      "stateMutability": "view",
      "type": "function"
    },
    {
      "inputs": [],
      "name": "normalProcess",
      "outputs": [],
      "stateMutability": "nonpayable",
      "type": "function"
    },
    {
      "inputs": [],
      "name": "pause",
      "outputs": [],
      "stateMutability": "nonpayable",
      "type": "function"
    },
    {
      "inputs": [],
      "name": "paused",
      "outputs": [
        {
          "internalType": "bool",
          "name": "",
          "type": "bool"
        }
      ],
      "stateMutability": "view",
      "type": "function"
    },
    {
      "inputs": [],
      "name": "unpause",
      "outputs": [],
      "stateMutability": "nonpayable",
      "type": "function"
    }
  ],
  "bytecode": "0x608060405234801561001057600080fd5b506105b8806100206000396000f3fe608060405234801561001057600080fd5b506004361061007d5760003560e01c806376657b8e1161005b57806376657b8e146100c85780638456cb59146100e65780639958f045146100f0578063e7651d7a146100fa5761007d565b806306661abd146100825780633f4ba83a146100a05780635c975abb146100aa575b600080fd5b61008a610104565b6040516100979190610444565b60405180910390f35b6100a861010a565b005b6100b2610114565b6040516100bf91906103e9565b60405180910390f35b6100d061012b565b6040516100dd91906103e9565b60405180910390f35b6100ee61013e565b005b6100f8610148565b005b6101026101ac565b005b60665481565b61011261020e565b565b6000603360009054906101000a900460ff16905090565b606560009054906101000a900460ff1681565b6101466102b0565b565b610150610114565b61018f576040517f08c379a000000000000000000000000000000000000000000000000000000000815260040161018690610404565b60405180910390fd5b6001606560006101000a81548160ff021916908315150217905550565b6101b4610114565b156101f4576040517f08c379a00000000000000000000000000000000000000000000000000000000081526004016101eb90610424565b60405180910390fd5b60666000815480929190610207906104b8565b9190505550565b610216610114565b610255576040517f08c379a000000000000000000000000000000000000000000000000000000000815260040161024c90610404565b60405180910390fd5b6000603360006101000a81548160ff0219169083151502179055507f5db9ee0a495bf2e6ff9c91a7834c1ba4fdd244a5e8aa4e537bd38aeae4b073aa610299610353565b6040516102a691906103ce565b60405180910390a1565b6102b8610114565b156102f8576040517f08c379a00000000000000000000000000000000000000000000000000000000081526004016102ef90610424565b60405180910390fd5b6001603360006101000a81548160ff0219169083151502179055507f62e78cea01bee320cd4e420270b5ea74000d11b0c9f74754ebdbfc544b05a25861033c610353565b60405161034991906103ce565b60405180910390a1565b600033905090565b61036481610470565b82525050565b61037381610482565b82525050565b600061038660148361045f565b915061039182610530565b602082019050919050565b60006103a960108361045f565b91506103b482610559565b602082019050919050565b6103c8816104ae565b82525050565b60006020820190506103e3600083018461035b565b92915050565b60006020820190506103fe600083018461036a565b92915050565b6000602082019050818103600083015261041d81610379565b9050919050565b6000602082019050818103600083015261043d8161039c565b9050919050565b600060208201905061045960008301846103bf565b92915050565b600082825260208201905092915050565b600061047b8261048e565b9050919050565b60008115159050919050565b600073ffffffffffffffffffffffffffffffffffffffff82169050919050565b6000819050919050565b60006104c3826104ae565b91507fffffffffffffffffffffffffffffffffffffffffffffffffffffffffffffffff8214156104f6576104f5610501565b5b600182019050919050565b7f4e487b7100000000000000000000000000000000000000000000000000000000600052601160045260246000fd5b7f5061757361626c653a206e6f7420706175736564000000000000000000000000600082015250565b7f5061757361626c653a207061757365640000000000000000000000000000000060008201525056fea264697066735822122050706153005e790822c8f87fa7d062f7e977fd953811910760a529e25bfb9f8364736f6c63430008040033",
  "linkReferences": {},
  "deployedLinkReferences": {}
}