{
  "_format": "hh-sol-artifact-1",
  "contractName": "GSNRecipientSignatureMock",
  "sourceName": "contracts/src/OpenZeppelin/mocks/GSNRecipientSignatureMock.sol",
  "abi": [
    {
      "inputs": [
        {
          "internalType": "address",
          "name": "trustedSigner",
          "type": "address"
        }
      ],
      "stateMutability": "nonpayable",
      "type": "constructor"
    },
    {
      "anonymous": false,
      "inputs": [],
      "name": "MockFunctionCalled",
      "type": "event"
    },
    {
      "anonymous": false,
      "inputs": [
        {
          "indexed": true,
          "internalType": "address",
          "name": "oldRelayHub",
          "type": "address"
        },
        {
          "indexed": true,
          "internalType": "address",
          "name": "newRelayHub",
          "type": "address"
        }
      ],
      "name": "RelayHubChanged",
      "type": "event"
    },
    {
      "inputs": [
        {
          "internalType": "address",
          "name": "relay",
          "type": "address"
        },
        {
          "internalType": "address",
          "name": "from",
          "type": "address"
        },
        {
          "internalType": "bytes",
          "name": "encodedFunction",
          "type": "bytes"
        },
        {
          "internalType": "uint256",
          "name": "transactionFee",
          "type": "uint256"
        },
        {
          "internalType": "uint256",
          "name": "gasPrice",
          "type": "uint256"
        },
        {
          "internalType": "uint256",
          "name": "gasLimit",
          "type": "uint256"
        },
        {
          "internalType": "uint256",
          "name": "nonce",
          "type": "uint256"
        },
        {
          "internalType": "bytes",
          "name": "approvalData",
          "type": "bytes"
        },
        {
          "internalType": "uint256",
          "name": "",
          "type": "uint256"
        }
      ],
      "name": "acceptRelayedCall",
      "outputs": [
        {
          "internalType": "uint256",
          "name": "",
          "type": "uint256"
        },
        {
          "internalType": "bytes",
          "name": "",
          "type": "bytes"
        }
      ],
      "stateMutability": "view",
      "type": "function"
    },
    {
      "inputs": [],
      "name": "getHubAddr",
      "outputs": [
        {
          "internalType": "address",
          "name": "",
          "type": "address"
        }
      ],
      "stateMutability": "view",
      "type": "function"
    },
    {
      "inputs": [],
      "name": "mockFunction",
      "outputs": [],
      "stateMutability": "nonpayable",
      "type": "function"
    },
    {
      "inputs": [
        {
          "internalType": "bytes",
          "name": "context",
          "type": "bytes"
        },
        {
          "internalType": "bool",
          "name": "success",
          "type": "bool"
        },
        {
          "internalType": "uint256",
          "name": "actualCharge",
          "type": "uint256"
        },
        {
          "internalType": "bytes32",
          "name": "preRetVal",
          "type": "bytes32"
        }
      ],
      "name": "postRelayedCall",
      "outputs": [],
      "stateMutability": "nonpayable",
      "type": "function"
    },
    {
      "inputs": [
        {
          "internalType": "bytes",
          "name": "context",
          "type": "bytes"
        }
      ],
      "name": "preRelayedCall",
      "outputs": [
        {
          "internalType": "bytes32",
          "name": "",
          "type": "bytes32"
        }
      ],
      "stateMutability": "nonpayable",
      "type": "function"
    },
    {
      "inputs": [],
      "name": "relayHubVersion",
      "outputs": [
        {
          "internalType": "string",
          "name": "",
          "type": "string"
        }
      ],
      "stateMutability": "view",
      "type": "function"
    }
  ],
  "bytecode": "0x608060405273d216153c06e857cd7f72665e0af1d7d82172f4946000806101000a81548173ffffffffffffffffffffffffffffffffffffffff021916908373ffffffffffffffffffffffffffffffffffffffff1602179055503480156200006557600080fd5b506040516200142b3803806200142b83398181016040528101906200008b91906200015f565b80600073ffffffffffffffffffffffffffffffffffffffff168173ffffffffffffffffffffffffffffffffffffffff161415620000ff576040517f08c379a0000000000000000000000000000000000000000000000000000000008152600401620000f690620001b2565b60405180910390fd5b80600160006101000a81548173ffffffffffffffffffffffffffffffffffffffff021916908373ffffffffffffffffffffffffffffffffffffffff160217905550505062000282565b600081519050620001598162000268565b92915050565b6000602082840312156200017257600080fd5b6000620001828482850162000148565b91505092915050565b60006200019a603983620001d4565b9150620001a78262000219565b604082019050919050565b60006020820190508181036000830152620001cd816200018b565b9050919050565b600082825260208201905092915050565b6000620001f282620001f9565b9050919050565b600073ffffffffffffffffffffffffffffffffffffffff82169050919050565b7f47534e526563697069656e745369676e61747572653a2074727573746564207360008201527f69676e657220697320746865207a65726f206164647265737300000000000000602082015250565b6200027381620001e5565b81146200027f57600080fd5b50565b61119980620002926000396000f3fe608060405234801561001057600080fd5b50600436106100625760003560e01c80633e6fec041461006757806374e861d61461007157806380274db71461008f57806383947ea0146100bf578063ad61ccd5146100f0578063e06e0e221461010e575b600080fd5b61006f61012a565b005b610079610158565b6040516100869190610bb2565b60405180910390f35b6100a960048036038101906100a4919061083b565b610181565b6040516100b69190610bcd565b60405180910390f35b6100d960048036038101906100d49190610745565b610208565b6040516100e7929190610cef565b60405180910390f35b6100f8610325565b6040516101059190610c2d565b60405180910390f35b6101286004803603810190610123919061087c565b610362565b005b7f52c66ed6ec9ca819cba26fe2b2650059270d8981b295af300187a964f54a8c2360405160405180910390a1565b60008060009054906101000a900473ffffffffffffffffffffffffffffffffffffffff16905090565b600061018b610158565b73ffffffffffffffffffffffffffffffffffffffff163373ffffffffffffffffffffffffffffffffffffffff16146101f8576040517f08c379a00000000000000000000000000000000000000000000000000000000081526004016101ef90610ccf565b60405180910390fd5b610201826103e9565b9050919050565b6000606060008b8b8b8b8b8b8b61021d610158565b3060405160200161023699989796959493929190610aed565b6040516020818303038152906040529050600160009054906101000a900473ffffffffffffffffffffffffffffffffffffffff1673ffffffffffffffffffffffffffffffffffffffff166102a28661029484805190602001206103f0565b61042090919063ffffffff16565b73ffffffffffffffffffffffffffffffffffffffff1614156102d0576102c661049a565b9250925050610317565b61031160008081111561030c577f4e487b7100000000000000000000000000000000000000000000000000000000600052602160045260246000fd5b6104be565b92509250505b995099975050505050505050565b60606040518060400160405280600581526020017f312e302e30000000000000000000000000000000000000000000000000000000815250905090565b61036a610158565b73ffffffffffffffffffffffffffffffffffffffff163373ffffffffffffffffffffffffffffffffffffffff16146103d7576040517f08c379a00000000000000000000000000000000000000000000000000000000081526004016103ce90610ccf565b60405180910390fd5b6103e3848484846104e8565b50505050565b6000919050565b6000816040516020016104039190610b8c565b604051602081830303815290604052805190602001209050919050565b60006041825114610466576040517f08c379a000000000000000000000000000000000000000000000000000000000815260040161045d90610c6f565b60405180910390fd5b60008060006020850151925060408501519150606085015160001a905061048f868285856104ee565b935050505092915050565b600060606104b660405180602001604052806000815250610679565b915091509091565b6000606082600b6104cf9190610dc3565b6040518060200160405280600081525091509150915091565b50505050565b60007f7fffffffffffffffffffffffffffffff5d576e7357a4501ddfe92f46681b20a08260001c1115610556576040517f08c379a000000000000000000000000000000000000000000000000000000000815260040161054d90610c8f565b60405180910390fd5b601b8460ff16148061056b5750601c8460ff16145b6105aa576040517f08c379a00000000000000000000000000000000000000000000000000000000081526004016105a190610caf565b60405180910390fd5b6000600186868686604051600081526020016040526040516105cf9493929190610be8565b6020604051602081039080840390855afa1580156105f1573d6000803e3d6000fd5b505050602060405103519050600073ffffffffffffffffffffffffffffffffffffffff168173ffffffffffffffffffffffffffffffffffffffff16141561066d576040517f08c379a000000000000000000000000000000000000000000000000000000000815260040161066490610c4f565b60405180910390fd5b80915050949350505050565b6000606060008391509150915091565b600061069c61069784610d44565b610d1f565b9050828152602081018484840111156106b457600080fd5b6106bf848285610e78565b509392505050565b6000813590506106d681611107565b92915050565b6000813590506106eb8161111e565b92915050565b60008135905061070081611135565b92915050565b600082601f83011261071757600080fd5b8135610727848260208601610689565b91505092915050565b60008135905061073f8161114c565b92915050565b60008060008060008060008060006101208a8c03121561076457600080fd5b60006107728c828d016106c7565b99505060206107838c828d016106c7565b98505060408a013567ffffffffffffffff8111156107a057600080fd5b6107ac8c828d01610706565b97505060606107bd8c828d01610730565b96505060806107ce8c828d01610730565b95505060a06107df8c828d01610730565b94505060c06107f08c828d01610730565b93505060e08a013567ffffffffffffffff81111561080d57600080fd5b6108198c828d01610706565b92505061010061082b8c828d01610730565b9150509295985092959850929598565b60006020828403121561084d57600080fd5b600082013567ffffffffffffffff81111561086757600080fd5b61087384828501610706565b91505092915050565b6000806000806080858703121561089257600080fd5b600085013567ffffffffffffffff8111156108ac57600080fd5b6108b887828801610706565b94505060206108c9878288016106dc565b93505060406108da87828801610730565b92505060606108eb878288016106f1565b91505092959194509250565b61090081610e19565b82525050565b61091761091282610e19565b610eeb565b82525050565b61092681610e37565b82525050565b61093d61093882610e37565b610efd565b82525050565b600061094e82610d75565b6109588185610d8b565b9350610968818560208601610e87565b61097181610f81565b840191505092915050565b600061098782610d75565b6109918185610d9c565b93506109a1818560208601610e87565b80840191505092915050565b60006109b882610d80565b6109c28185610da7565b93506109d2818560208601610e87565b6109db81610f81565b840191505092915050565b60006109f3601883610da7565b91506109fe82610f9f565b602082019050919050565b6000610a16601f83610da7565b9150610a2182610fc8565b602082019050919050565b6000610a39601c83610db8565b9150610a4482610ff1565b601c82019050919050565b6000610a5c602283610da7565b9150610a678261101a565b604082019050919050565b6000610a7f602283610da7565b9150610a8a82611069565b604082019050919050565b6000610aa2602483610da7565b9150610aad826110b8565b604082019050919050565b610ac181610e61565b82525050565b610ad8610ad382610e61565b610f19565b82525050565b610ae781610e6b565b82525050565b6000610af9828c610906565b601482019150610b09828b610906565b601482019150610b19828a61097c565b9150610b258289610ac7565b602082019150610b358288610ac7565b602082019150610b458287610ac7565b602082019150610b558286610ac7565b602082019150610b658285610906565b601482019150610b758284610906565b6014820191508190509a9950505050505050505050565b6000610b9782610a2c565b9150610ba3828461092c565b60208201915081905092915050565b6000602082019050610bc760008301846108f7565b92915050565b6000602082019050610be2600083018461091d565b92915050565b6000608082019050610bfd600083018761091d565b610c0a6020830186610ade565b610c17604083018561091d565b610c24606083018461091d565b95945050505050565b60006020820190508181036000830152610c4781846109ad565b905092915050565b60006020820190508181036000830152610c68816109e6565b9050919050565b60006020820190508181036000830152610c8881610a09565b9050919050565b60006020820190508181036000830152610ca881610a4f565b9050919050565b60006020820190508181036000830152610cc881610a72565b9050919050565b60006020820190508181036000830152610ce881610a95565b9050919050565b6000604082019050610d046000830185610ab8565b8181036020830152610d168184610943565b90509392505050565b6000610d29610d3a565b9050610d358282610eba565b919050565b6000604051905090565b600067ffffffffffffffff821115610d5f57610d5e610f52565b5b610d6882610f81565b9050602081019050919050565b600081519050919050565b600081519050919050565b600082825260208201905092915050565b600081905092915050565b600082825260208201905092915050565b600081905092915050565b6000610dce82610e61565b9150610dd983610e61565b9250827fffffffffffffffffffffffffffffffffffffffffffffffffffffffffffffffff03821115610e0e57610e0d610f23565b5b828201905092915050565b6000610e2482610e41565b9050919050565b60008115159050919050565b6000819050919050565b600073ffffffffffffffffffffffffffffffffffffffff82169050919050565b6000819050919050565b600060ff82169050919050565b82818337600083830152505050565b60005b83811015610ea5578082015181840152602081019050610e8a565b83811115610eb4576000848401525b50505050565b610ec382610f81565b810181811067ffffffffffffffff82111715610ee257610ee1610f52565b5b80604052505050565b6000610ef682610f07565b9050919050565b6000819050919050565b6000610f1282610f92565b9050919050565b6000819050919050565b7f4e487b7100000000000000000000000000000000000000000000000000000000600052601160045260246000fd5b7f4e487b7100000000000000000000000000000000000000000000000000000000600052604160045260246000fd5b6000601f19601f8301169050919050565b60008160601b9050919050565b7f45434453413a20696e76616c6964207369676e61747572650000000000000000600082015250565b7f45434453413a20696e76616c6964207369676e6174757265206c656e67746800600082015250565b7f19457468657265756d205369676e6564204d6573736167653a0a333200000000600082015250565b7f45434453413a20696e76616c6964207369676e6174757265202773272076616c60008201527f7565000000000000000000000000000000000000000000000000000000000000602082015250565b7f45434453413a20696e76616c6964207369676e6174757265202776272076616c60008201527f7565000000000000000000000000000000000000000000000000000000000000602082015250565b7f47534e526563697069656e743a2063616c6c6572206973206e6f742052656c6160008201527f7948756200000000000000000000000000000000000000000000000000000000602082015250565b61111081610e19565b811461111b57600080fd5b50565b61112781610e2b565b811461113257600080fd5b50565b61113e81610e37565b811461114957600080fd5b50565b61115581610e61565b811461116057600080fd5b5056fea26469706673582212207148463493cb23ef3ca9308d5acd50146a1a093df200fda8261e4cbf622825b164736f6c63430008040033",
  "linkReferences": {},
  "deployedLinkReferences": {}
}