{
  "_format": "hh-sol-artifact-1",
  "contractName": "ERC1155ReceiverMock",
  "sourceName": "contracts/src/OpenZeppelin/mocks/ERC1155ReceiverMock.sol",
  "abi": [
    {
      "inputs": [
        {
          "internalType": "bytes4",
          "name": "recRetval",
          "type": "bytes4"
        },
        {
          "internalType": "bool",
          "name": "recReverts",
          "type": "bool"
        },
        {
          "internalType": "bytes4",
          "name": "batRetval",
          "type": "bytes4"
        },
        {
          "internalType": "bool",
          "name": "batReverts",
          "type": "bool"
        }
      ],
      "stateMutability": "nonpayable",
      "type": "constructor"
    },
    {
      "anonymous": false,
      "inputs": [
        {
          "indexed": false,
          "internalType": "address",
          "name": "operator",
          "type": "address"
        },
        {
          "indexed": false,
          "internalType": "address",
          "name": "from",
          "type": "address"
        },
        {
          "indexed": false,
          "internalType": "uint256[]",
          "name": "ids",
          "type": "uint256[]"
        },
        {
          "indexed": false,
          "internalType": "uint256[]",
          "name": "values",
          "type": "uint256[]"
        },
        {
          "indexed": false,
          "internalType": "bytes",
          "name": "data",
          "type": "bytes"
        },
        {
          "indexed": false,
          "internalType": "uint256",
          "name": "gas",
          "type": "uint256"
        }
      ],
      "name": "BatchReceived",
      "type": "event"
    },
    {
      "anonymous": false,
      "inputs": [
        {
          "indexed": false,
          "internalType": "address",
          "name": "operator",
          "type": "address"
        },
        {
          "indexed": false,
          "internalType": "address",
          "name": "from",
          "type": "address"
        },
        {
          "indexed": false,
          "internalType": "uint256",
          "name": "id",
          "type": "uint256"
        },
        {
          "indexed": false,
          "internalType": "uint256",
          "name": "value",
          "type": "uint256"
        },
        {
          "indexed": false,
          "internalType": "bytes",
          "name": "data",
          "type": "bytes"
        },
        {
          "indexed": false,
          "internalType": "uint256",
          "name": "gas",
          "type": "uint256"
        }
      ],
      "name": "Received",
      "type": "event"
    },
    {
      "inputs": [
        {
          "internalType": "address",
          "name": "operator",
          "type": "address"
        },
        {
          "internalType": "address",
          "name": "from",
          "type": "address"
        },
        {
          "internalType": "uint256[]",
          "name": "ids",
          "type": "uint256[]"
        },
        {
          "internalType": "uint256[]",
          "name": "values",
          "type": "uint256[]"
        },
        {
          "internalType": "bytes",
          "name": "data",
          "type": "bytes"
        }
      ],
      "name": "onERC1155BatchReceived",
      "outputs": [
        {
          "internalType": "bytes4",
          "name": "",
          "type": "bytes4"
        }
      ],
      "stateMutability": "nonpayable",
      "type": "function"
    },
    {
      "inputs": [
        {
          "internalType": "address",
          "name": "operator",
          "type": "address"
        },
        {
          "internalType": "address",
          "name": "from",
          "type": "address"
        },
        {
          "internalType": "uint256",
          "name": "id",
          "type": "uint256"
        },
        {
          "internalType": "uint256",
          "name": "value",
          "type": "uint256"
        },
        {
          "internalType": "bytes",
          "name": "data",
          "type": "bytes"
        }
      ],
      "name": "onERC1155Received",
      "outputs": [
        {
          "internalType": "bytes4",
          "name": "",
          "type": "bytes4"
        }
      ],
      "stateMutability": "nonpayable",
      "type": "function"
    },
    {
      "inputs": [
        {
          "internalType": "bytes4",
          "name": "interfaceId",
          "type": "bytes4"
        }
      ],
      "name": "registerInterface",
      "outputs": [],
      "stateMutability": "nonpayable",
      "type": "function"
    },
    {
      "inputs": [
        {
          "internalType": "bytes4",
          "name": "interfaceId",
          "type": "bytes4"
        }
      ],
      "name": "supportsInterface",
      "outputs": [
        {
          "internalType": "bool",
          "name": "",
          "type": "bool"
        }
      ],
      "stateMutability": "view",
      "type": "function"
    }
  ],
  "bytecode": "0x60806040523480156200001157600080fd5b5060405162000e0938038062000e098339818101604052810190620000379190620001e8565b620000687f01ffc9a700000000000000000000000000000000000000000000000000000000620000e260201b60201c565b83600160006101000a81548163ffffffff021916908360e01c021790555082600160046101000a81548160ff02191690831515021790555081600160056101000a81548163ffffffff021916908360e01c021790555080600160096101000a81548160ff0219169083151502179055505050505062000343565b63ffffffff60e01b817bffffffffffffffffffffffffffffffffffffffffffffffffffffffff191614156200014e576040517f08c379a000000000000000000000000000000000000000000000000000000000815260040162000145906200027b565b60405180910390fd5b6001600080837bffffffffffffffffffffffffffffffffffffffffffffffffffffffff19167bffffffffffffffffffffffffffffffffffffffffffffffffffffffff1916815260200190815260200160002060006101000a81548160ff02191690831515021790555050565b600081519050620001cb816200030f565b92915050565b600081519050620001e28162000329565b92915050565b60008060008060808587031215620001ff57600080fd5b60006200020f87828801620001d1565b94505060206200022287828801620001ba565b93505060406200023587828801620001d1565b92505060606200024887828801620001ba565b91505092959194509250565b600062000263601c836200029d565b91506200027082620002e6565b602082019050919050565b60006020820190508181036000830152620002968162000254565b9050919050565b600082825260208201905092915050565b60008115159050919050565b60007fffffffff0000000000000000000000000000000000000000000000000000000082169050919050565b7f4552433136353a20696e76616c696420696e7465726661636520696400000000600082015250565b6200031a81620002ae565b81146200032657600080fd5b50565b6200033481620002ba565b81146200034057600080fd5b50565b610ab680620003536000396000f3fe608060405234801561001057600080fd5b506004361061004c5760003560e01c806301ffc9a714610051578063214cdb8014610081578063bc197c811461009d578063f23a6e61146100cd575b600080fd5b61006b600480360381019061006691906105de565b6100fd565b6040516100789190610817565b60405180910390f35b61009b600480360381019061009691906105de565b610164565b005b6100b760048036038101906100b29190610480565b610170565b6040516100c49190610832565b60405180910390f35b6100e760048036038101906100e2919061054c565b610227565b6040516100f49190610832565b60405180910390f35b6000806000837bffffffffffffffffffffffffffffffffffffffffffffffffffffffff19167bffffffffffffffffffffffffffffffffffffffffffffffffffffffff1916815260200190815260200160002060009054906101000a900460ff169050919050565b61016d816102d8565b50565b6000600160099054906101000a900460ff16156101c2576040517f08c379a00000000000000000000000000000000000000000000000000000000081526004016101b99061088d565b60405180910390fd5b7f0bcad9224ba33b574e9c85298de2f44b4c80015a21aa5df474896444909863d889898989898989895a60405161020199989796959493929190610731565b60405180910390a1600160059054906101000a900460e01b905098975050505050505050565b6000600160049054906101000a900460ff1615610279576040517f08c379a00000000000000000000000000000000000000000000000000000000081526004016102709061086d565b60405180910390fd5b7f20dfa9f79060c8c4d7fe892c97c71bcf6e3b63d1dcf66fea7aefc0211628cf298787878787875a6040516102b497969594939291906107ad565b60405180910390a1600160009054906101000a900460e01b90509695505050505050565b63ffffffff60e01b817bffffffffffffffffffffffffffffffffffffffffffffffffffffffff19161415610341576040517f08c379a00000000000000000000000000000000000000000000000000000000081526004016103389061084d565b60405180910390fd5b6001600080837bffffffffffffffffffffffffffffffffffffffffffffffffffffffff19167bffffffffffffffffffffffffffffffffffffffffffffffffffffffff1916815260200190815260200160002060006101000a81548160ff02191690831515021790555050565b6000813590506103bc81610a3b565b92915050565b60008083601f8401126103d457600080fd5b8235905067ffffffffffffffff8111156103ed57600080fd5b60208301915083602082028301111561040557600080fd5b9250929050565b60008135905061041b81610a52565b92915050565b60008083601f84011261043357600080fd5b8235905067ffffffffffffffff81111561044c57600080fd5b60208301915083600182028301111561046457600080fd5b9250929050565b60008135905061047a81610a69565b92915050565b60008060008060008060008060a0898b03121561049c57600080fd5b60006104aa8b828c016103ad565b98505060206104bb8b828c016103ad565b975050604089013567ffffffffffffffff8111156104d857600080fd5b6104e48b828c016103c2565b9650965050606089013567ffffffffffffffff81111561050357600080fd5b61050f8b828c016103c2565b9450945050608089013567ffffffffffffffff81111561052e57600080fd5b61053a8b828c01610421565b92509250509295985092959890939650565b60008060008060008060a0878903121561056557600080fd5b600061057389828a016103ad565b965050602061058489828a016103ad565b955050604061059589828a0161046b565b94505060606105a689828a0161046b565b935050608087013567ffffffffffffffff8111156105c357600080fd5b6105cf89828a01610421565b92509250509295509295509295565b6000602082840312156105f057600080fd5b60006105fe8482850161040c565b91505092915050565b610610816108e0565b82525050565b600061062283856108ad565b93507f07ffffffffffffffffffffffffffffffffffffffffffffffffffffffffffffff83111561065157600080fd5b602083029250610662838584610954565b82840190509392505050565b610677816108f2565b82525050565b610686816108fe565b82525050565b600061069883856108be565b93506106a5838584610954565b6106ae83610963565b840190509392505050565b60006106c6601c836108cf565b91506106d182610974565b602082019050919050565b60006106e96029836108cf565b91506106f48261099d565b604082019050919050565b600061070c602f836108cf565b9150610717826109ec565b604082019050919050565b61072b8161094a565b82525050565b600060c082019050610746600083018c610607565b610753602083018b610607565b818103604083015261076681898b610616565b9050818103606083015261077b818789610616565b9050818103608083015261079081858761068c565b905061079f60a0830184610722565b9a9950505050505050505050565b600060c0820190506107c2600083018a610607565b6107cf6020830189610607565b6107dc6040830188610722565b6107e96060830187610722565b81810360808301526107fc81858761068c565b905061080b60a0830184610722565b98975050505050505050565b600060208201905061082c600083018461066e565b92915050565b6000602082019050610847600083018461067d565b92915050565b60006020820190508181036000830152610866816106b9565b9050919050565b60006020820190508181036000830152610886816106dc565b9050919050565b600060208201905081810360008301526108a6816106ff565b9050919050565b600082825260208201905092915050565b600082825260208201905092915050565b600082825260208201905092915050565b60006108eb8261092a565b9050919050565b60008115159050919050565b60007fffffffff0000000000000000000000000000000000000000000000000000000082169050919050565b600073ffffffffffffffffffffffffffffffffffffffff82169050919050565b6000819050919050565b82818337600083830152505050565b6000601f19601f8301169050919050565b7f4552433136353a20696e76616c696420696e7465726661636520696400000000600082015250565b7f4552433131353552656365697665724d6f636b3a20726576657274696e67206f60008201527f6e20726563656976650000000000000000000000000000000000000000000000602082015250565b7f4552433131353552656365697665724d6f636b3a20726576657274696e67206f60008201527f6e20626174636820726563656976650000000000000000000000000000000000602082015250565b610a44816108e0565b8114610a4f57600080fd5b50565b610a5b816108fe565b8114610a6657600080fd5b50565b610a728161094a565b8114610a7d57600080fd5b5056fea2646970667358221220713ca0c5e8a1b825b700734988e690ad4bb155ba95aa3cf1637035949adcb9ed64736f6c63430008040033",
  "linkReferences": {},
  "deployedLinkReferences": {}
}