{
  "_format": "hh-sol-artifact-1",
  "contractName": "AccessControlMock",
  "sourceName": "contracts/src/OpenZeppelin/mocks/AccessControlMock.sol",
  "abi": [
    {
      "inputs": [],
      "stateMutability": "nonpayable",
      "type": "constructor"
    },
    {
      "anonymous": false,
      "inputs": [
        {
          "indexed": true,
          "internalType": "bytes32",
          "name": "role",
          "type": "bytes32"
        },
        {
          "indexed": true,
          "internalType": "bytes32",
          "name": "previousAdminRole",
          "type": "bytes32"
        },
        {
          "indexed": true,
          "internalType": "bytes32",
          "name": "newAdminRole",
          "type": "bytes32"
        }
      ],
      "name": "RoleAdminChanged",
      "type": "event"
    },
    {
      "anonymous": false,
      "inputs": [
        {
          "indexed": true,
          "internalType": "bytes32",
          "name": "role",
          "type": "bytes32"
        },
        {
          "indexed": true,
          "internalType": "address",
          "name": "account",
          "type": "address"
        },
        {
          "indexed": true,
          "internalType": "address",
          "name": "sender",
          "type": "address"
        }
      ],
      "name": "RoleGranted",
      "type": "event"
    },
    {
      "anonymous": false,
      "inputs": [
        {
          "indexed": true,
          "internalType": "bytes32",
          "name": "role",
          "type": "bytes32"
        },
        {
          "indexed": true,
          "internalType": "address",
          "name": "account",
          "type": "address"
        },
        {
          "indexed": true,
          "internalType": "address",
          "name": "sender",
          "type": "address"
        }
      ],
      "name": "RoleRevoked",
      "type": "event"
    },
    {
      "inputs": [],
      "name": "DEFAULT_ADMIN_ROLE",
      "outputs": [
        {
          "internalType": "bytes32",
          "name": "",
          "type": "bytes32"
        }
      ],
      "stateMutability": "view",
      "type": "function"
    },
    {
      "inputs": [
        {
          "internalType": "bytes32",
          "name": "role",
          "type": "bytes32"
        }
      ],
      "name": "getRoleAdmin",
      "outputs": [
        {
          "internalType": "bytes32",
          "name": "",
          "type": "bytes32"
        }
      ],
      "stateMutability": "view",
      "type": "function"
    },
    {
      "inputs": [
        {
          "internalType": "bytes32",
          "name": "role",
          "type": "bytes32"
        },
        {
          "internalType": "uint256",
          "name": "index",
          "type": "uint256"
        }
      ],
      "name": "getRoleMember",
      "outputs": [
        {
          "internalType": "address",
          "name": "",
          "type": "address"
        }
      ],
      "stateMutability": "view",
      "type": "function"
    },
    {
      "inputs": [
        {
          "internalType": "bytes32",
          "name": "role",
          "type": "bytes32"
        }
      ],
      "name": "getRoleMemberCount",
      "outputs": [
        {
          "internalType": "uint256",
          "name": "",
          "type": "uint256"
        }
      ],
      "stateMutability": "view",
      "type": "function"
    },
    {
      "inputs": [
        {
          "internalType": "bytes32",
          "name": "role",
          "type": "bytes32"
        },
        {
          "internalType": "address",
          "name": "account",
          "type": "address"
        }
      ],
      "name": "grantRole",
      "outputs": [],
      "stateMutability": "nonpayable",
      "type": "function"
    },
    {
      "inputs": [
        {
          "internalType": "bytes32",
          "name": "role",
          "type": "bytes32"
        },
        {
          "internalType": "address",
          "name": "account",
          "type": "address"
        }
      ],
      "name": "hasRole",
      "outputs": [
        {
          "internalType": "bool",
          "name": "",
          "type": "bool"
        }
      ],
      "stateMutability": "view",
      "type": "function"
    },
    {
      "inputs": [
        {
          "internalType": "bytes32",
          "name": "role",
          "type": "bytes32"
        },
        {
          "internalType": "address",
          "name": "account",
          "type": "address"
        }
      ],
      "name": "renounceRole",
      "outputs": [],
      "stateMutability": "nonpayable",
      "type": "function"
    },
    {
      "inputs": [
        {
          "internalType": "bytes32",
          "name": "role",
          "type": "bytes32"
        },
        {
          "internalType": "address",
          "name": "account",
          "type": "address"
        }
      ],
      "name": "revokeRole",
      "outputs": [],
      "stateMutability": "nonpayable",
      "type": "function"
    },
    {
      "inputs": [
        {
          "internalType": "bytes32",
          "name": "roleId",
          "type": "bytes32"
        },
        {
          "internalType": "bytes32",
          "name": "adminRoleId",
          "type": "bytes32"
        }
      ],
      "name": "setRoleAdmin",
      "outputs": [],
      "stateMutability": "nonpayable",
      "type": "function"
    }
  ],
  "bytecode": "0x60806040523480156200001157600080fd5b50620000366000801b6200002a6200003c60201b60201c565b6200004460201b60201c565b620001d2565b600033905090565b6200005682826200005a60201b60201c565b5050565b6200008881600080858152602001908152602001600020600001620000fd60201b6200040b1790919060201c565b15620000f9576200009e6200003c60201b60201c565b73ffffffffffffffffffffffffffffffffffffffff168173ffffffffffffffffffffffffffffffffffffffff16837f2f8788117e7eff1d82e926ec794901d17c78024a50270940304540a733656f0d60405160405180910390a45b5050565b60006200012d836000018373ffffffffffffffffffffffffffffffffffffffff1660001b6200013560201b60201c565b905092915050565b6000620001498383620001af60201b60201c565b620001a4578260000182908060018154018082558091505060019003906000526020600020016000909190919091505582600001805490508360010160008481526020019081526020016000208190555060019050620001a9565b600090505b92915050565b600080836001016000848152602001908152602001600020541415905092915050565b610ec580620001e26000396000f3fe608060405234801561001057600080fd5b50600436106100935760003560e01c80639010d07c116100665780639010d07c1461011c57806391d148541461014c578063a217fddf1461017c578063ca15c8731461019a578063d547741f146101ca57610093565b80631e4e009114610098578063248a9ca3146100b45780632f2ff15d146100e457806336568abe14610100575b600080fd5b6100b260048036038101906100ad91906109c6565b6101e6565b005b6100ce60048036038101906100c99190610961565b6101f4565b6040516100db9190610b3c565b60405180910390f35b6100fe60048036038101906100f9919061098a565b610213565b005b61011a6004803603810190610115919061098a565b610286565b005b61013660048036038101906101319190610a02565b610309565b6040516101439190610b06565b60405180910390f35b6101666004803603810190610161919061098a565b61033a565b6040516101739190610b21565b60405180910390f35b61018461036b565b6040516101919190610b3c565b60405180910390f35b6101b460048036038101906101af9190610961565b610372565b6040516101c19190610bd7565b60405180910390f35b6101e460048036038101906101df919061098a565b610398565b005b6101f0828261043b565b5050565b6000806000838152602001908152602001600020600201549050919050565b6102396000808481526020019081526020016000206002015461023461049d565b61033a565b610278576040517f08c379a000000000000000000000000000000000000000000000000000000000815260040161026f90610b77565b60405180910390fd5b61028282826104a5565b5050565b61028e61049d565b73ffffffffffffffffffffffffffffffffffffffff168173ffffffffffffffffffffffffffffffffffffffff16146102fb576040517f08c379a00000000000000000000000000000000000000000000000000000000081526004016102f290610bb7565b60405180910390fd5b6103058282610538565b5050565b6000610332826000808681526020019081526020016000206000016105cb90919063ffffffff16565b905092915050565b6000610363826000808681526020019081526020016000206000016105e590919063ffffffff16565b905092915050565b6000801b81565b6000610391600080848152602001908152602001600020600001610615565b9050919050565b6103be600080848152602001908152602001600020600201546103b961049d565b61033a565b6103fd576040517f08c379a00000000000000000000000000000000000000000000000000000000081526004016103f490610b97565b60405180910390fd5b6104078282610538565b5050565b6000610433836000018373ffffffffffffffffffffffffffffffffffffffff1660001b61062a565b905092915050565b8060008084815260200190815260200160002060020154837fbd79b86ffe0ab8e8776151514217cd7cacd52c909f66475c3af44e129f0b00ff60405160405180910390a480600080848152602001908152602001600020600201819055505050565b600033905090565b6104cc8160008085815260200190815260200160002060000161040b90919063ffffffff16565b15610534576104d961049d565b73ffffffffffffffffffffffffffffffffffffffff168173ffffffffffffffffffffffffffffffffffffffff16837f2f8788117e7eff1d82e926ec794901d17c78024a50270940304540a733656f0d60405160405180910390a45b5050565b61055f8160008085815260200190815260200160002060000161069a90919063ffffffff16565b156105c75761056c61049d565b73ffffffffffffffffffffffffffffffffffffffff168173ffffffffffffffffffffffffffffffffffffffff16837ff6391f5c32d9c69d2a47ea670b442974b53935d1edc7fd64eb21e047a839171b60405160405180910390a45b5050565b60006105da83600001836106ca565b60001c905092915050565b600061060d836000018373ffffffffffffffffffffffffffffffffffffffff1660001b610764565b905092915050565b600061062382600001610787565b9050919050565b60006106368383610764565b61068f578260000182908060018154018082558091505060019003906000526020600020016000909190919091505582600001805490508360010160008481526020019081526020016000208190555060019050610694565b600090505b92915050565b60006106c2836000018373ffffffffffffffffffffffffffffffffffffffff1660001b610798565b905092915050565b600081836000018054905011610715576040517f08c379a000000000000000000000000000000000000000000000000000000000815260040161070c90610b57565b60405180910390fd5b826000018281548110610751577f4e487b7100000000000000000000000000000000000000000000000000000000600052603260045260246000fd5b9060005260206000200154905092915050565b600080836001016000848152602001908152602001600020541415905092915050565b600081600001805490509050919050565b600080836001016000848152602001908152602001600020549050600081146109165760006001826107ca9190610c59565b90506000600186600001805490506107e29190610c59565b90506000866000018281548110610822577f4e487b7100000000000000000000000000000000000000000000000000000000600052603260045260246000fd5b906000526020600020015490508087600001848154811061086c577f4e487b7100000000000000000000000000000000000000000000000000000000600052603260045260246000fd5b90600052602060002001819055506001836108879190610c03565b87600101600083815260200190815260200160002081905550866000018054806108da577f4e487b7100000000000000000000000000000000000000000000000000000000600052603160045260246000fd5b6001900381819060005260206000200160009055905586600101600087815260200190815260200160002060009055600194505050505061091c565b60009150505b92915050565b60008135905061093181610e4a565b92915050565b60008135905061094681610e61565b92915050565b60008135905061095b81610e78565b92915050565b60006020828403121561097357600080fd5b600061098184828501610937565b91505092915050565b6000806040838503121561099d57600080fd5b60006109ab85828601610937565b92505060206109bc85828601610922565b9150509250929050565b600080604083850312156109d957600080fd5b60006109e785828601610937565b92505060206109f885828601610937565b9150509250929050565b60008060408385031215610a1557600080fd5b6000610a2385828601610937565b9250506020610a348582860161094c565b9150509250929050565b610a4781610c8d565b82525050565b610a5681610c9f565b82525050565b610a6581610cab565b82525050565b6000610a78602283610bf2565b9150610a8382610d0e565b604082019050919050565b6000610a9b602f83610bf2565b9150610aa682610d5d565b604082019050919050565b6000610abe603083610bf2565b9150610ac982610dac565b604082019050919050565b6000610ae1602f83610bf2565b9150610aec82610dfb565b604082019050919050565b610b0081610cd5565b82525050565b6000602082019050610b1b6000830184610a3e565b92915050565b6000602082019050610b366000830184610a4d565b92915050565b6000602082019050610b516000830184610a5c565b92915050565b60006020820190508181036000830152610b7081610a6b565b9050919050565b60006020820190508181036000830152610b9081610a8e565b9050919050565b60006020820190508181036000830152610bb081610ab1565b9050919050565b60006020820190508181036000830152610bd081610ad4565b9050919050565b6000602082019050610bec6000830184610af7565b92915050565b600082825260208201905092915050565b6000610c0e82610cd5565b9150610c1983610cd5565b9250827fffffffffffffffffffffffffffffffffffffffffffffffffffffffffffffffff03821115610c4e57610c4d610cdf565b5b828201905092915050565b6000610c6482610cd5565b9150610c6f83610cd5565b925082821015610c8257610c81610cdf565b5b828203905092915050565b6000610c9882610cb5565b9050919050565b60008115159050919050565b6000819050919050565b600073ffffffffffffffffffffffffffffffffffffffff82169050919050565b6000819050919050565b7f4e487b7100000000000000000000000000000000000000000000000000000000600052601160045260246000fd5b7f456e756d657261626c655365743a20696e646578206f7574206f6620626f756e60008201527f6473000000000000000000000000000000000000000000000000000000000000602082015250565b7f416363657373436f6e74726f6c3a2073656e646572206d75737420626520616e60008201527f2061646d696e20746f206772616e740000000000000000000000000000000000602082015250565b7f416363657373436f6e74726f6c3a2073656e646572206d75737420626520616e60008201527f2061646d696e20746f207265766f6b6500000000000000000000000000000000602082015250565b7f416363657373436f6e74726f6c3a2063616e206f6e6c792072656e6f756e636560008201527f20726f6c657320666f722073656c660000000000000000000000000000000000602082015250565b610e5381610c8d565b8114610e5e57600080fd5b50565b610e6a81610cab565b8114610e7557600080fd5b50565b610e8181610cd5565b8114610e8c57600080fd5b5056fea2646970667358221220b7f6696827eb3b4692c23e65c80b82c99e1e38fbfaf99769016fd99e98205a1864736f6c63430008040033",
  "linkReferences": {},
  "deployedLinkReferences": {}
}