{
  "_format": "hh-sol-artifact-1",
  "contractName": "ERC721Mock",
  "sourceName": "contracts/src/OpenZeppelin/mocks/ERC721Mock.sol",
  "abi": [
    {
      "inputs": [
        {
          "internalType": "string",
          "name": "name",
          "type": "string"
        },
        {
          "internalType": "string",
          "name": "symbol",
          "type": "string"
        }
      ],
      "stateMutability": "nonpayable",
      "type": "constructor"
    },
    {
      "anonymous": false,
      "inputs": [
        {
          "indexed": true,
          "internalType": "address",
          "name": "owner",
          "type": "address"
        },
        {
          "indexed": true,
          "internalType": "address",
          "name": "approved",
          "type": "address"
        },
        {
          "indexed": true,
          "internalType": "uint256",
          "name": "tokenId",
          "type": "uint256"
        }
      ],
      "name": "Approval",
      "type": "event"
    },
    {
      "anonymous": false,
      "inputs": [
        {
          "indexed": true,
          "internalType": "address",
          "name": "owner",
          "type": "address"
        },
        {
          "indexed": true,
          "internalType": "address",
          "name": "operator",
          "type": "address"
        },
        {
          "indexed": false,
          "internalType": "bool",
          "name": "approved",
          "type": "bool"
        }
      ],
      "name": "ApprovalForAll",
      "type": "event"
    },
    {
      "anonymous": false,
      "inputs": [
        {
          "indexed": true,
          "internalType": "address",
          "name": "from",
          "type": "address"
        },
        {
          "indexed": true,
          "internalType": "address",
          "name": "to",
          "type": "address"
        },
        {
          "indexed": true,
          "internalType": "uint256",
          "name": "tokenId",
          "type": "uint256"
        }
      ],
      "name": "Transfer",
      "type": "event"
    },
    {
      "inputs": [
        {
          "internalType": "address",
          "name": "to",
          "type": "address"
        },
        {
          "internalType": "uint256",
          "name": "tokenId",
          "type": "uint256"
        }
      ],
      "name": "approve",
      "outputs": [],
      "stateMutability": "nonpayable",
      "type": "function"
    },
    {
      "inputs": [
        {
          "internalType": "address",
          "name": "owner",
          "type": "address"
        }
      ],
      "name": "balanceOf",
      "outputs": [
        {
          "internalType": "uint256",
          "name": "",
          "type": "uint256"
        }
      ],
      "stateMutability": "view",
      "type": "function"
    },
    {
      "inputs": [],
      "name": "baseURI",
      "outputs": [
        {
          "internalType": "string",
          "name": "",
          "type": "string"
        }
      ],
      "stateMutability": "view",
      "type": "function"
    },
    {
      "inputs": [
        {
          "internalType": "uint256",
          "name": "tokenId",
          "type": "uint256"
        }
      ],
      "name": "burn",
      "outputs": [],
      "stateMutability": "nonpayable",
      "type": "function"
    },
    {
      "inputs": [
        {
          "internalType": "uint256",
          "name": "tokenId",
          "type": "uint256"
        }
      ],
      "name": "exists",
      "outputs": [
        {
          "internalType": "bool",
          "name": "",
          "type": "bool"
        }
      ],
      "stateMutability": "view",
      "type": "function"
    },
    {
      "inputs": [
        {
          "internalType": "uint256",
          "name": "tokenId",
          "type": "uint256"
        }
      ],
      "name": "getApproved",
      "outputs": [
        {
          "internalType": "address",
          "name": "",
          "type": "address"
        }
      ],
      "stateMutability": "view",
      "type": "function"
    },
    {
      "inputs": [
        {
          "internalType": "address",
          "name": "owner",
          "type": "address"
        },
        {
          "internalType": "address",
          "name": "operator",
          "type": "address"
        }
      ],
      "name": "isApprovedForAll",
      "outputs": [
        {
          "internalType": "bool",
          "name": "",
          "type": "bool"
        }
      ],
      "stateMutability": "view",
      "type": "function"
    },
    {
      "inputs": [
        {
          "internalType": "address",
          "name": "to",
          "type": "address"
        },
        {
          "internalType": "uint256",
          "name": "tokenId",
          "type": "uint256"
        }
      ],
      "name": "mint",
      "outputs": [],
      "stateMutability": "nonpayable",
      "type": "function"
    },
    {
      "inputs": [],
      "name": "name",
      "outputs": [
        {
          "internalType": "string",
          "name": "",
          "type": "string"
        }
      ],
      "stateMutability": "view",
      "type": "function"
    },
    {
      "inputs": [
        {
          "internalType": "uint256",
          "name": "tokenId",
          "type": "uint256"
        }
      ],
      "name": "ownerOf",
      "outputs": [
        {
          "internalType": "address",
          "name": "",
          "type": "address"
        }
      ],
      "stateMutability": "view",
      "type": "function"
    },
    {
      "inputs": [
        {
          "internalType": "address",
          "name": "to",
          "type": "address"
        },
        {
          "internalType": "uint256",
          "name": "tokenId",
          "type": "uint256"
        },
        {
          "internalType": "bytes",
          "name": "_data",
          "type": "bytes"
        }
      ],
      "name": "safeMint",
      "outputs": [],
      "stateMutability": "nonpayable",
      "type": "function"
    },
    {
      "inputs": [
        {
          "internalType": "address",
          "name": "to",
          "type": "address"
        },
        {
          "internalType": "uint256",
          "name": "tokenId",
          "type": "uint256"
        }
      ],
      "name": "safeMint",
      "outputs": [],
      "stateMutability": "nonpayable",
      "type": "function"
    },
    {
      "inputs": [
        {
          "internalType": "address",
          "name": "from",
          "type": "address"
        },
        {
          "internalType": "address",
          "name": "to",
          "type": "address"
        },
        {
          "internalType": "uint256",
          "name": "tokenId",
          "type": "uint256"
        }
      ],
      "name": "safeTransferFrom",
      "outputs": [],
      "stateMutability": "nonpayable",
      "type": "function"
    },
    {
      "inputs": [
        {
          "internalType": "address",
          "name": "from",
          "type": "address"
        },
        {
          "internalType": "address",
          "name": "to",
          "type": "address"
        },
        {
          "internalType": "uint256",
          "name": "tokenId",
          "type": "uint256"
        },
        {
          "internalType": "bytes",
          "name": "_data",
          "type": "bytes"
        }
      ],
      "name": "safeTransferFrom",
      "outputs": [],
      "stateMutability": "nonpayable",
      "type": "function"
    },
    {
      "inputs": [
        {
          "internalType": "address",
          "name": "operator",
          "type": "address"
        },
        {
          "internalType": "bool",
          "name": "approved",
          "type": "bool"
        }
      ],
      "name": "setApprovalForAll",
      "outputs": [],
      "stateMutability": "nonpayable",
      "type": "function"
    },
    {
      "inputs": [
        {
          "internalType": "string",
          "name": "baseURI",
          "type": "string"
        }
      ],
      "name": "setBaseURI",
      "outputs": [],
      "stateMutability": "nonpayable",
      "type": "function"
    },
    {
      "inputs": [
        {
          "internalType": "uint256",
          "name": "tokenId",
          "type": "uint256"
        },
        {
          "internalType": "string",
          "name": "uri",
          "type": "string"
        }
      ],
      "name": "setTokenURI",
      "outputs": [],
      "stateMutability": "nonpayable",
      "type": "function"
    },
    {
      "inputs": [
        {
          "internalType": "bytes4",
          "name": "interfaceId",
          "type": "bytes4"
        }
      ],
      "name": "supportsInterface",
      "outputs": [
        {
          "internalType": "bool",
          "name": "",
          "type": "bool"
        }
      ],
      "stateMutability": "view",
      "type": "function"
    },
    {
      "inputs": [],
      "name": "symbol",
      "outputs": [
        {
          "internalType": "string",
          "name": "",
          "type": "string"
        }
      ],
      "stateMutability": "view",
      "type": "function"
    },
    {
      "inputs": [
        {
          "internalType": "uint256",
          "name": "index",
          "type": "uint256"
        }
      ],
      "name": "tokenByIndex",
      "outputs": [
        {
          "internalType": "uint256",
          "name": "",
          "type": "uint256"
        }
      ],
      "stateMutability": "view",
      "type": "function"
    },
    {
      "inputs": [
        {
          "internalType": "address",
          "name": "owner",
          "type": "address"
        },
        {
          "internalType": "uint256",
          "name": "index",
          "type": "uint256"
        }
      ],
      "name": "tokenOfOwnerByIndex",
      "outputs": [
        {
          "internalType": "uint256",
          "name": "",
          "type": "uint256"
        }
      ],
      "stateMutability": "view",
      "type": "function"
    },
    {
      "inputs": [
        {
          "internalType": "uint256",
          "name": "tokenId",
          "type": "uint256"
        }
      ],
      "name": "tokenURI",
      "outputs": [
        {
          "internalType": "string",
          "name": "",
          "type": "string"
        }
      ],
      "stateMutability": "view",
      "type": "function"
    },
    {
      "inputs": [],
      "name": "totalSupply",
      "outputs": [
        {
          "internalType": "uint256",
          "name": "",
          "type": "uint256"
        }
      ],
      "stateMutability": "view",
      "type": "function"
    },
    {
      "inputs": [
        {
          "internalType": "address",
          "name": "from",
          "type": "address"
        },
        {
          "internalType": "address",
          "name": "to",
          "type": "address"
        },
        {
          "internalType": "uint256",
          "name": "tokenId",
          "type": "uint256"
        }
      ],
      "name": "transferFrom",
      "outputs": [],
      "stateMutability": "nonpayable",
      "type": "function"
    }
  ],
  "bytecode": "0x60806040523480156200001157600080fd5b5060405162003c6838038062003c68833981810160405281019062000037919062000333565b81816200006a7f01ffc9a7000000000000000000000000000000000000000000000000000000006200013960201b60201c565b81600690805190602001906200008292919062000211565b5080600790805190602001906200009b92919062000211565b50620000cd7f80ac58cd000000000000000000000000000000000000000000000000000000006200013960201b60201c565b620000fe7f5b5e139f000000000000000000000000000000000000000000000000000000006200013960201b60201c565b6200012f7f780e9d63000000000000000000000000000000000000000000000000000000006200013960201b60201c565b5050505062000599565b63ffffffff60e01b817bffffffffffffffffffffffffffffffffffffffffffffffffffffffff19161415620001a5576040517f08c379a00000000000000000000000000000000000000000000000000000000081526004016200019c90620003cd565b60405180910390fd5b6001600080837bffffffffffffffffffffffffffffffffffffffffffffffffffffffff19167bffffffffffffffffffffffffffffffffffffffffffffffffffffffff1916815260200190815260200160002060006101000a81548160ff02191690831515021790555050565b8280546200021f9062000495565b90600052602060002090601f0160209004810192826200024357600085556200028f565b82601f106200025e57805160ff19168380011785556200028f565b828001600101855582156200028f579182015b828111156200028e57825182559160200191906001019062000271565b5b5090506200029e9190620002a2565b5090565b5b80821115620002bd576000816000905550600101620002a3565b5090565b6000620002d8620002d28462000418565b620003ef565b905082815260208101848484011115620002f157600080fd5b620002fe8482856200045f565b509392505050565b600082601f8301126200031857600080fd5b81516200032a848260208601620002c1565b91505092915050565b600080604083850312156200034757600080fd5b600083015167ffffffffffffffff8111156200036257600080fd5b620003708582860162000306565b925050602083015167ffffffffffffffff8111156200038e57600080fd5b6200039c8582860162000306565b9150509250929050565b6000620003b5601c836200044e565b9150620003c28262000570565b602082019050919050565b60006020820190508181036000830152620003e881620003a6565b9050919050565b6000620003fb6200040e565b9050620004098282620004cb565b919050565b6000604051905090565b600067ffffffffffffffff82111562000436576200043562000530565b5b62000441826200055f565b9050602081019050919050565b600082825260208201905092915050565b60005b838110156200047f57808201518184015260208101905062000462565b838111156200048f576000848401525b50505050565b60006002820490506001821680620004ae57607f821691505b60208210811415620004c557620004c462000501565b5b50919050565b620004d6826200055f565b810181811067ffffffffffffffff82111715620004f857620004f762000530565b5b80604052505050565b7f4e487b7100000000000000000000000000000000000000000000000000000000600052602260045260246000fd5b7f4e487b7100000000000000000000000000000000000000000000000000000000600052604160045260246000fd5b6000601f19601f8301169050919050565b7f4552433136353a20696e76616c696420696e7465726661636520696400000000600082015250565b6136bf80620005a96000396000f3fe608060405234801561001057600080fd5b50600436106101585760003560e01c80634f6ccce7116100c357806395d89b411161007c57806395d89b41146103e7578063a144819414610405578063a22cb46514610421578063b88d4fde1461043d578063c87b56dd14610459578063e985e9c51461048957610158565b80634f6ccce71461030157806355f804b3146103315780636352211e1461034d5780636c0360eb1461037d57806370a082311461039b5780638832e6e3146103cb57610158565b806323b872dd1161011557806323b872dd146102315780632f745c591461024d57806340c10f191461027d57806342842e0e1461029957806342966c68146102b55780634f558e79146102d157610158565b806301ffc9a71461015d57806306fdde031461018d578063081812fc146101ab578063095ea7b3146101db578063162094c4146101f757806318160ddd14610213575b600080fd5b610177600480360381019061017291906126ae565b6104b9565b6040516101849190612b49565b60405180910390f35b610195610520565b6040516101a29190612b64565b60405180910390f35b6101c560048036038101906101c09190612741565b6105b2565b6040516101d29190612ae2565b60405180910390f35b6101f560048036038101906101f0919061260b565b610637565b005b610211600480360381019061020c919061276a565b61074f565b005b61021b61075d565b6040516102289190612d86565b60405180910390f35b61024b60048036038101906102469190612505565b61076e565b005b6102676004803603810190610262919061260b565b6107ce565b6040516102749190612d86565b60405180910390f35b6102976004803603810190610292919061260b565b610829565b005b6102b360048036038101906102ae9190612505565b610837565b005b6102cf60048036038101906102ca9190612741565b610857565b005b6102eb60048036038101906102e69190612741565b610863565b6040516102f89190612b49565b60405180910390f35b61031b60048036038101906103169190612741565b610875565b6040516103289190612d86565b60405180910390f35b61034b60048036038101906103469190612700565b610898565b005b61036760048036038101906103629190612741565b6108a4565b6040516103749190612ae2565b60405180910390f35b6103856108db565b6040516103929190612b64565b60405180910390f35b6103b560048036038101906103b091906124a0565b61096d565b6040516103c29190612d86565b60405180910390f35b6103e560048036038101906103e09190612647565b610a2c565b005b6103ef610a3c565b6040516103fc9190612b64565b60405180910390f35b61041f600480360381019061041a919061260b565b610ace565b005b61043b600480360381019061043691906125cf565b610adc565b005b61045760048036038101906104529190612554565b610c5d565b005b610473600480360381019061046e9190612741565b610cbf565b6040516104809190612b64565b60405180910390f35b6104a3600480360381019061049e91906124c9565b610e32565b6040516104b09190612b49565b60405180910390f35b6000806000837bffffffffffffffffffffffffffffffffffffffffffffffffffffffff19167bffffffffffffffffffffffffffffffffffffffffffffffffffffffff1916815260200190815260200160002060009054906101000a900460ff169050919050565b60606006805461052f90612fdc565b80601f016020809104026020016040519081016040528092919081815260200182805461055b90612fdc565b80156105a85780601f1061057d576101008083540402835291602001916105a8565b820191906000526020600020905b81548152906001019060200180831161058b57829003601f168201915b5050505050905090565b60006105bd82610ec6565b6105fc576040517f08c379a00000000000000000000000000000000000000000000000000000000081526004016105f390612cc6565b60405180910390fd5b6004600083815260200190815260200160002060009054906101000a900473ffffffffffffffffffffffffffffffffffffffff169050919050565b6000610642826108a4565b90508073ffffffffffffffffffffffffffffffffffffffff168373ffffffffffffffffffffffffffffffffffffffff1614156106b3576040517f08c379a00000000000000000000000000000000000000000000000000000000081526004016106aa90612d46565b60405180910390fd5b8073ffffffffffffffffffffffffffffffffffffffff166106d2610ee3565b73ffffffffffffffffffffffffffffffffffffffff1614806107015750610700816106fb610ee3565b610e32565b5b610740576040517f08c379a000000000000000000000000000000000000000000000000000000000815260040161073790612c46565b60405180910390fd5b61074a8383610eeb565b505050565b6107598282610fa4565b5050565b60006107696002611018565b905090565b61077f610779610ee3565b8261102d565b6107be576040517f08c379a00000000000000000000000000000000000000000000000000000000081526004016107b590612d66565b60405180910390fd5b6107c983838361110b565b505050565b600061082182600160008673ffffffffffffffffffffffffffffffffffffffff1673ffffffffffffffffffffffffffffffffffffffff16815260200190815260200160002061132290919063ffffffff16565b905092915050565b610833828261133c565b5050565b61085283838360405180602001604052806000815250610c5d565b505050565b610860816114ca565b50565b600061086e82610ec6565b9050919050565b60008061088c8360026115fc90919063ffffffff16565b50905080915050919050565b6108a181611628565b50565b60006108d4826040518060600160405280602981526020016136616029913960026116429092919063ffffffff16565b9050919050565b6060600980546108ea90612fdc565b80601f016020809104026020016040519081016040528092919081815260200182805461091690612fdc565b80156109635780601f1061093857610100808354040283529160200191610963565b820191906000526020600020905b81548152906001019060200180831161094657829003601f168201915b5050505050905090565b60008073ffffffffffffffffffffffffffffffffffffffff168273ffffffffffffffffffffffffffffffffffffffff1614156109de576040517f08c379a00000000000000000000000000000000000000000000000000000000081526004016109d590612c66565b60405180910390fd5b610a25600160008473ffffffffffffffffffffffffffffffffffffffff1673ffffffffffffffffffffffffffffffffffffffff168152602001908152602001600020611661565b9050919050565b610a37838383611676565b505050565b606060078054610a4b90612fdc565b80601f0160208091040260200160405190810160405280929190818152602001828054610a7790612fdc565b8015610ac45780601f10610a9957610100808354040283529160200191610ac4565b820191906000526020600020905b815481529060010190602001808311610aa757829003601f168201915b5050505050905090565b610ad882826116d1565b5050565b610ae4610ee3565b73ffffffffffffffffffffffffffffffffffffffff168273ffffffffffffffffffffffffffffffffffffffff161415610b52576040517f08c379a0000000000000000000000000000000000000000000000000000000008152600401610b4990612c06565b60405180910390fd5b8060056000610b5f610ee3565b73ffffffffffffffffffffffffffffffffffffffff1673ffffffffffffffffffffffffffffffffffffffff16815260200190815260200160002060008473ffffffffffffffffffffffffffffffffffffffff1673ffffffffffffffffffffffffffffffffffffffff16815260200190815260200160002060006101000a81548160ff0219169083151502179055508173ffffffffffffffffffffffffffffffffffffffff16610c0c610ee3565b73ffffffffffffffffffffffffffffffffffffffff167f17307eab39ab6107e8899845ad3d59bd9653f200f220920489ca2b5937696c3183604051610c519190612b49565b60405180910390a35050565b610c6e610c68610ee3565b8361102d565b610cad576040517f08c379a0000000000000000000000000000000000000000000000000000000008152600401610ca490612d66565b60405180910390fd5b610cb9848484846116ef565b50505050565b6060610cca82610ec6565b610d09576040517f08c379a0000000000000000000000000000000000000000000000000000000008152600401610d0090612d26565b60405180910390fd5b6000600860008481526020019081526020016000208054610d2990612fdc565b80601f0160208091040260200160405190810160405280929190818152602001828054610d5590612fdc565b8015610da25780601f10610d7757610100808354040283529160200191610da2565b820191906000526020600020905b815481529060010190602001808311610d8557829003601f168201915b505050505090506000610db36108db565b9050600081511415610dc9578192505050610e2d565b600082511115610dfe578082604051602001610de6929190612abe565b60405160208183030381529060405292505050610e2d565b80610e088561174b565b604051602001610e19929190612abe565b604051602081830303815290604052925050505b919050565b6000600560008473ffffffffffffffffffffffffffffffffffffffff1673ffffffffffffffffffffffffffffffffffffffff16815260200190815260200160002060008373ffffffffffffffffffffffffffffffffffffffff1673ffffffffffffffffffffffffffffffffffffffff16815260200190815260200160002060009054906101000a900460ff16905092915050565b6000610edc8260026118f890919063ffffffff16565b9050919050565b600033905090565b816004600083815260200190815260200160002060006101000a81548173ffffffffffffffffffffffffffffffffffffffff021916908373ffffffffffffffffffffffffffffffffffffffff160217905550808273ffffffffffffffffffffffffffffffffffffffff16610f5e836108a4565b73ffffffffffffffffffffffffffffffffffffffff167f8c5be1e5ebec7d5bd14f71427d1e84f3dd0314c0f7b2291e5b200ac8c7c3b92560405160405180910390a45050565b610fad82610ec6565b610fec576040517f08c379a0000000000000000000000000000000000000000000000000000000008152600401610fe390612ce6565b60405180910390fd5b80600860008481526020019081526020016000209080519060200190611013929190612284565b505050565b600061102682600001611912565b9050919050565b600061103882610ec6565b611077576040517f08c379a000000000000000000000000000000000000000000000000000000000815260040161106e90612c26565b60405180910390fd5b6000611082836108a4565b90508073ffffffffffffffffffffffffffffffffffffffff168473ffffffffffffffffffffffffffffffffffffffff1614806110f157508373ffffffffffffffffffffffffffffffffffffffff166110d9846105b2565b73ffffffffffffffffffffffffffffffffffffffff16145b8061110257506111018185610e32565b5b91505092915050565b8273ffffffffffffffffffffffffffffffffffffffff1661112b826108a4565b73ffffffffffffffffffffffffffffffffffffffff1614611181576040517f08c379a000000000000000000000000000000000000000000000000000000000815260040161117890612d06565b60405180910390fd5b600073ffffffffffffffffffffffffffffffffffffffff168273ffffffffffffffffffffffffffffffffffffffff1614156111f1576040517f08c379a00000000000000000000000000000000000000000000000000000000081526004016111e890612be6565b60405180910390fd5b6111fc838383611923565b611207600082610eeb565b61125881600160008673ffffffffffffffffffffffffffffffffffffffff1673ffffffffffffffffffffffffffffffffffffffff16815260200190815260200160002061192890919063ffffffff16565b506112aa81600160008573ffffffffffffffffffffffffffffffffffffffff1673ffffffffffffffffffffffffffffffffffffffff16815260200190815260200160002061194290919063ffffffff16565b506112c18183600261195c9092919063ffffffff16565b50808273ffffffffffffffffffffffffffffffffffffffff168473ffffffffffffffffffffffffffffffffffffffff167fddf252ad1be2c89b69c2b068fc378daa952ba7f163c4a11628f55a4df523b3ef60405160405180910390a4505050565b60006113318360000183611991565b60001c905092915050565b600073ffffffffffffffffffffffffffffffffffffffff168273ffffffffffffffffffffffffffffffffffffffff1614156113ac576040517f08c379a00000000000000000000000000000000000000000000000000000000081526004016113a390612ca6565b60405180910390fd5b6113b581610ec6565b156113f5576040517f08c379a00000000000000000000000000000000000000000000000000000000081526004016113ec90612bc6565b60405180910390fd5b61140160008383611923565b61145281600160008573ffffffffffffffffffffffffffffffffffffffff1673ffffffffffffffffffffffffffffffffffffffff16815260200190815260200160002061194290919063ffffffff16565b506114698183600261195c9092919063ffffffff16565b50808273ffffffffffffffffffffffffffffffffffffffff16600073ffffffffffffffffffffffffffffffffffffffff167fddf252ad1be2c89b69c2b068fc378daa952ba7f163c4a11628f55a4df523b3ef60405160405180910390a45050565b60006114d5826108a4565b90506114e381600084611923565b6114ee600083610eeb565b600060086000848152602001908152602001600020805461150e90612fdc565b90501461153557600860008381526020019081526020016000206000611534919061230a565b5b61158682600160008473ffffffffffffffffffffffffffffffffffffffff1673ffffffffffffffffffffffffffffffffffffffff16815260200190815260200160002061192890919063ffffffff16565b5061159b826002611a2b90919063ffffffff16565b5081600073ffffffffffffffffffffffffffffffffffffffff168273ffffffffffffffffffffffffffffffffffffffff167fddf252ad1be2c89b69c2b068fc378daa952ba7f163c4a11628f55a4df523b3ef60405160405180910390a45050565b60008060008061160f8660000186611a45565b915091508160001c8160001c9350935050509250929050565b806009908051906020019061163e929190612284565b5050565b6000611655846000018460001b84611af5565b60001c90509392505050565b600061166f82600001611bbc565b9050919050565b611680838361133c565b61168d6000848484611bcd565b6116cc576040517f08c379a00000000000000000000000000000000000000000000000000000000081526004016116c390612ba6565b60405180910390fd5b505050565b6116eb828260405180602001604052806000815250611676565b5050565b6116fa84848461110b565b61170684848484611bcd565b611745576040517f08c379a000000000000000000000000000000000000000000000000000000000815260040161173c90612ba6565b60405180910390fd5b50505050565b60606000821415611793576040518060400160405280600181526020017f300000000000000000000000000000000000000000000000000000000000000081525090506118f3565b600082905060005b600082146117c55780806117ae9061303f565b915050600a826117be9190612ec1565b915061179b565b60008167ffffffffffffffff811115611807577f4e487b7100000000000000000000000000000000000000000000000000000000600052604160045260246000fd5b6040519080825280601f01601f1916602001820160405280156118395781602001600182028036833780820191505090505b5090505b600085146118ec576001826118529190612ef2565b9150600a856118619190613088565b603061186d9190612e6b565b60f81b8183815181106118a9577f4e487b7100000000000000000000000000000000000000000000000000000000600052603260045260246000fd5b60200101907effffffffffffffffffffffffffffffffffffffffffffffffffffffffffffff1916908160001a905350600a856118e59190612ec1565b945061183d565b8093505050505b919050565b600061190a836000018360001b611d64565b905092915050565b600081600001805490509050919050565b505050565b600061193a836000018360001b611d87565b905092915050565b6000611954836000018360001b611f11565b905092915050565b6000611988846000018460001b8473ffffffffffffffffffffffffffffffffffffffff1660001b611f81565b90509392505050565b6000818360000180549050116119dc576040517f08c379a00000000000000000000000000000000000000000000000000000000081526004016119d390612b86565b60405180910390fd5b826000018281548110611a18577f4e487b7100000000000000000000000000000000000000000000000000000000600052603260045260246000fd5b9060005260206000200154905092915050565b6000611a3d836000018360001b612093565b905092915050565b60008082846000018054905011611a91576040517f08c379a0000000000000000000000000000000000000000000000000000000008152600401611a8890612c86565b60405180910390fd5b6000846000018481548110611acf577f4e487b7100000000000000000000000000000000000000000000000000000000600052603260045260246000fd5b906000526020600020906002020190508060000154816001015492509250509250929050565b60008084600101600085815260200190815260200160002054905060008114158390611b57576040517f08c379a0000000000000000000000000000000000000000000000000000000008152600401611b4e9190612b64565b60405180910390fd5b5084600001600182611b699190612ef2565b81548110611ba0577f4e487b7100000000000000000000000000000000000000000000000000000000600052603260045260246000fd5b9060005260206000209060020201600101549150509392505050565b600081600001805490509050919050565b6000611bee8473ffffffffffffffffffffffffffffffffffffffff1661224e565b15611d57578373ffffffffffffffffffffffffffffffffffffffff1663150b7a02611c17610ee3565b8786866040518563ffffffff1660e01b8152600401611c399493929190612afd565b602060405180830381600087803b158015611c5357600080fd5b505af1925050508015611c8457506040513d601f19601f82011682018060405250810190611c8191906126d7565b60015b611d07573d8060008114611cb4576040519150601f19603f3d011682016040523d82523d6000602084013e611cb9565b606091505b50600081511415611cff576040517f08c379a0000000000000000000000000000000000000000000000000000000008152600401611cf690612ba6565b60405180910390fd5b805181602001fd5b63150b7a0260e01b7bffffffffffffffffffffffffffffffffffffffffffffffffffffffff1916817bffffffffffffffffffffffffffffffffffffffffffffffffffffffff191614915050611d5c565b600190505b949350505050565b600080836001016000848152602001908152602001600020541415905092915050565b60008083600101600084815260200190815260200160002054905060008114611f05576000600182611db99190612ef2565b9050600060018660000180549050611dd19190612ef2565b90506000866000018281548110611e11577f4e487b7100000000000000000000000000000000000000000000000000000000600052603260045260246000fd5b9060005260206000200154905080876000018481548110611e5b577f4e487b7100000000000000000000000000000000000000000000000000000000600052603260045260246000fd5b9060005260206000200181905550600183611e769190612e6b565b8760010160008381526020019081526020016000208190555086600001805480611ec9577f4e487b7100000000000000000000000000000000000000000000000000000000600052603160045260246000fd5b60019003818190600052602060002001600090559055866001016000878152602001908152602001600020600090556001945050505050611f0b565b60009150505b92915050565b6000611f1d8383612261565b611f76578260000182908060018154018082558091505060019003906000526020600020016000909190919091505582600001805490508360010160008481526020019081526020016000208190555060019050611f7b565b600090505b92915050565b60008084600101600085815260200190815260200160002054905060008114156120285784600001604051806040016040528086815260200185815250908060018154018082558091505060019003906000526020600020906002020160009091909190915060008201518160000155602082015181600101555050846000018054905085600101600086815260200190815260200160002081905550600191505061208c565b828560000160018361203a9190612ef2565b81548110612071577f4e487b7100000000000000000000000000000000000000000000000000000000600052603260045260246000fd5b90600052602060002090600202016001018190555060009150505b9392505050565b600080836001016000848152602001908152602001600020549050600081146122425760006001826120c59190612ef2565b90506000600186600001805490506120dd9190612ef2565b9050600086600001828154811061211d577f4e487b7100000000000000000000000000000000000000000000000000000000600052603260045260246000fd5b906000526020600020906002020190508087600001848154811061216a577f4e487b7100000000000000000000000000000000000000000000000000000000600052603260045260246000fd5b9060005260206000209060020201600082015481600001556001820154816001015590505060018361219c9190612e6b565b8760010160008360000154815260200190815260200160002081905550866000018054806121f3577f4e487b7100000000000000000000000000000000000000000000000000000000600052603160045260246000fd5b6001900381819060005260206000209060020201600080820160009055600182016000905550509055866001016000878152602001908152602001600020600090556001945050505050612248565b60009150505b92915050565b600080823b905060008111915050919050565b600080836001016000848152602001908152602001600020541415905092915050565b82805461229090612fdc565b90600052602060002090601f0160209004810192826122b257600085556122f9565b82601f106122cb57805160ff19168380011785556122f9565b828001600101855582156122f9579182015b828111156122f85782518255916020019190600101906122dd565b5b509050612306919061234a565b5090565b50805461231690612fdc565b6000825580601f106123285750612347565b601f016020900490600052602060002090810190612346919061234a565b5b50565b5b8082111561236357600081600090555060010161234b565b5090565b600061237a61237584612dc6565b612da1565b90508281526020810184848401111561239257600080fd5b61239d848285612f9a565b509392505050565b60006123b86123b384612df7565b612da1565b9050828152602081018484840111156123d057600080fd5b6123db848285612f9a565b509392505050565b6000813590506123f281613604565b92915050565b6000813590506124078161361b565b92915050565b60008135905061241c81613632565b92915050565b60008151905061243181613632565b92915050565b600082601f83011261244857600080fd5b8135612458848260208601612367565b91505092915050565b600082601f83011261247257600080fd5b81356124828482602086016123a5565b91505092915050565b60008135905061249a81613649565b92915050565b6000602082840312156124b257600080fd5b60006124c0848285016123e3565b91505092915050565b600080604083850312156124dc57600080fd5b60006124ea858286016123e3565b92505060206124fb858286016123e3565b9150509250929050565b60008060006060848603121561251a57600080fd5b6000612528868287016123e3565b9350506020612539868287016123e3565b925050604061254a8682870161248b565b9150509250925092565b6000806000806080858703121561256a57600080fd5b6000612578878288016123e3565b9450506020612589878288016123e3565b935050604061259a8782880161248b565b925050606085013567ffffffffffffffff8111156125b757600080fd5b6125c387828801612437565b91505092959194509250565b600080604083850312156125e257600080fd5b60006125f0858286016123e3565b9250506020612601858286016123f8565b9150509250929050565b6000806040838503121561261e57600080fd5b600061262c858286016123e3565b925050602061263d8582860161248b565b9150509250929050565b60008060006060848603121561265c57600080fd5b600061266a868287016123e3565b935050602061267b8682870161248b565b925050604084013567ffffffffffffffff81111561269857600080fd5b6126a486828701612437565b9150509250925092565b6000602082840312156126c057600080fd5b60006126ce8482850161240d565b91505092915050565b6000602082840312156126e957600080fd5b60006126f784828501612422565b91505092915050565b60006020828403121561271257600080fd5b600082013567ffffffffffffffff81111561272c57600080fd5b61273884828501612461565b91505092915050565b60006020828403121561275357600080fd5b60006127618482850161248b565b91505092915050565b6000806040838503121561277d57600080fd5b600061278b8582860161248b565b925050602083013567ffffffffffffffff8111156127a857600080fd5b6127b485828601612461565b9150509250929050565b6127c781612f26565b82525050565b6127d681612f38565b82525050565b60006127e782612e28565b6127f18185612e3e565b9350612801818560208601612fa9565b61280a81613175565b840191505092915050565b600061282082612e33565b61282a8185612e4f565b935061283a818560208601612fa9565b61284381613175565b840191505092915050565b600061285982612e33565b6128638185612e60565b9350612873818560208601612fa9565b80840191505092915050565b600061288c602283612e4f565b915061289782613186565b604082019050919050565b60006128af603283612e4f565b91506128ba826131d5565b604082019050919050565b60006128d2601c83612e4f565b91506128dd82613224565b602082019050919050565b60006128f5602483612e4f565b91506129008261324d565b604082019050919050565b6000612918601983612e4f565b91506129238261329c565b602082019050919050565b600061293b602c83612e4f565b9150612946826132c5565b604082019050919050565b600061295e603883612e4f565b915061296982613314565b604082019050919050565b6000612981602a83612e4f565b915061298c82613363565b604082019050919050565b60006129a4602283612e4f565b91506129af826133b2565b604082019050919050565b60006129c7602083612e4f565b91506129d282613401565b602082019050919050565b60006129ea602c83612e4f565b91506129f58261342a565b604082019050919050565b6000612a0d602c83612e4f565b9150612a1882613479565b604082019050919050565b6000612a30602983612e4f565b9150612a3b826134c8565b604082019050919050565b6000612a53602f83612e4f565b9150612a5e82613517565b604082019050919050565b6000612a76602183612e4f565b9150612a8182613566565b604082019050919050565b6000612a99603183612e4f565b9150612aa4826135b5565b604082019050919050565b612ab881612f90565b82525050565b6000612aca828561284e565b9150612ad6828461284e565b91508190509392505050565b6000602082019050612af760008301846127be565b92915050565b6000608082019050612b1260008301876127be565b612b1f60208301866127be565b612b2c6040830185612aaf565b8181036060830152612b3e81846127dc565b905095945050505050565b6000602082019050612b5e60008301846127cd565b92915050565b60006020820190508181036000830152612b7e8184612815565b905092915050565b60006020820190508181036000830152612b9f8161287f565b9050919050565b60006020820190508181036000830152612bbf816128a2565b9050919050565b60006020820190508181036000830152612bdf816128c5565b9050919050565b60006020820190508181036000830152612bff816128e8565b9050919050565b60006020820190508181036000830152612c1f8161290b565b9050919050565b60006020820190508181036000830152612c3f8161292e565b9050919050565b60006020820190508181036000830152612c5f81612951565b9050919050565b60006020820190508181036000830152612c7f81612974565b9050919050565b60006020820190508181036000830152612c9f81612997565b9050919050565b60006020820190508181036000830152612cbf816129ba565b9050919050565b60006020820190508181036000830152612cdf816129dd565b9050919050565b60006020820190508181036000830152612cff81612a00565b9050919050565b60006020820190508181036000830152612d1f81612a23565b9050919050565b60006020820190508181036000830152612d3f81612a46565b9050919050565b60006020820190508181036000830152612d5f81612a69565b9050919050565b60006020820190508181036000830152612d7f81612a8c565b9050919050565b6000602082019050612d9b6000830184612aaf565b92915050565b6000612dab612dbc565b9050612db7828261300e565b919050565b6000604051905090565b600067ffffffffffffffff821115612de157612de0613146565b5b612dea82613175565b9050602081019050919050565b600067ffffffffffffffff821115612e1257612e11613146565b5b612e1b82613175565b9050602081019050919050565b600081519050919050565b600081519050919050565b600082825260208201905092915050565b600082825260208201905092915050565b600081905092915050565b6000612e7682612f90565b9150612e8183612f90565b9250827fffffffffffffffffffffffffffffffffffffffffffffffffffffffffffffffff03821115612eb657612eb56130b9565b5b828201905092915050565b6000612ecc82612f90565b9150612ed783612f90565b925082612ee757612ee66130e8565b5b828204905092915050565b6000612efd82612f90565b9150612f0883612f90565b925082821015612f1b57612f1a6130b9565b5b828203905092915050565b6000612f3182612f70565b9050919050565b60008115159050919050565b60007fffffffff0000000000000000000000000000000000000000000000000000000082169050919050565b600073ffffffffffffffffffffffffffffffffffffffff82169050919050565b6000819050919050565b82818337600083830152505050565b60005b83811015612fc7578082015181840152602081019050612fac565b83811115612fd6576000848401525b50505050565b60006002820490506001821680612ff457607f821691505b6020821081141561300857613007613117565b5b50919050565b61301782613175565b810181811067ffffffffffffffff8211171561303657613035613146565b5b80604052505050565b600061304a82612f90565b91507fffffffffffffffffffffffffffffffffffffffffffffffffffffffffffffffff82141561307d5761307c6130b9565b5b600182019050919050565b600061309382612f90565b915061309e83612f90565b9250826130ae576130ad6130e8565b5b828206905092915050565b7f4e487b7100000000000000000000000000000000000000000000000000000000600052601160045260246000fd5b7f4e487b7100000000000000000000000000000000000000000000000000000000600052601260045260246000fd5b7f4e487b7100000000000000000000000000000000000000000000000000000000600052602260045260246000fd5b7f4e487b7100000000000000000000000000000000000000000000000000000000600052604160045260246000fd5b6000601f19601f8301169050919050565b7f456e756d657261626c655365743a20696e646578206f7574206f6620626f756e60008201527f6473000000000000000000000000000000000000000000000000000000000000602082015250565b7f4552433732313a207472616e7366657220746f206e6f6e20455243373231526560008201527f63656976657220696d706c656d656e7465720000000000000000000000000000602082015250565b7f4552433732313a20746f6b656e20616c7265616479206d696e74656400000000600082015250565b7f4552433732313a207472616e7366657220746f20746865207a65726f2061646460008201527f7265737300000000000000000000000000000000000000000000000000000000602082015250565b7f4552433732313a20617070726f766520746f2063616c6c657200000000000000600082015250565b7f4552433732313a206f70657261746f7220717565727920666f72206e6f6e657860008201527f697374656e7420746f6b656e0000000000000000000000000000000000000000602082015250565b7f4552433732313a20617070726f76652063616c6c6572206973206e6f74206f7760008201527f6e6572206e6f7220617070726f76656420666f7220616c6c0000000000000000602082015250565b7f4552433732313a2062616c616e636520717565727920666f7220746865207a6560008201527f726f206164647265737300000000000000000000000000000000000000000000602082015250565b7f456e756d657261626c654d61703a20696e646578206f7574206f6620626f756e60008201527f6473000000000000000000000000000000000000000000000000000000000000602082015250565b7f4552433732313a206d696e7420746f20746865207a65726f2061646472657373600082015250565b7f4552433732313a20617070726f76656420717565727920666f72206e6f6e657860008201527f697374656e7420746f6b656e0000000000000000000000000000000000000000602082015250565b7f4552433732314d657461646174613a2055524920736574206f66206e6f6e657860008201527f697374656e7420746f6b656e0000000000000000000000000000000000000000602082015250565b7f4552433732313a207472616e73666572206f6620746f6b656e2074686174206960008201527f73206e6f74206f776e0000000000000000000000000000000000000000000000602082015250565b7f4552433732314d657461646174613a2055524920717565727920666f72206e6f60008201527f6e6578697374656e7420746f6b656e0000000000000000000000000000000000602082015250565b7f4552433732313a20617070726f76616c20746f2063757272656e74206f776e6560008201527f7200000000000000000000000000000000000000000000000000000000000000602082015250565b7f4552433732313a207472616e736665722063616c6c6572206973206e6f74206f60008201527f776e6572206e6f7220617070726f766564000000000000000000000000000000602082015250565b61360d81612f26565b811461361857600080fd5b50565b61362481612f38565b811461362f57600080fd5b50565b61363b81612f44565b811461364657600080fd5b50565b61365281612f90565b811461365d57600080fd5b5056fe4552433732313a206f776e657220717565727920666f72206e6f6e6578697374656e7420746f6b656ea2646970667358221220e8a761abed490de0295914c9d97fda69a0c91b49bb16a24f415302893b780b3f64736f6c63430008040033",
  "linkReferences": {},
  "deployedLinkReferences": {}
}