{
  "_format": "hh-sol-artifact-1",
  "contractName": "ERC1155Mock",
  "sourceName": "contracts/src/OpenZeppelin/mocks/ERC1155Mock.sol",
  "abi": [
    {
      "inputs": [
        {
          "internalType": "string",
          "name": "uri",
          "type": "string"
        }
      ],
      "stateMutability": "nonpayable",
      "type": "constructor"
    },
    {
      "anonymous": false,
      "inputs": [
        {
          "indexed": true,
          "internalType": "address",
          "name": "account",
          "type": "address"
        },
        {
          "indexed": true,
          "internalType": "address",
          "name": "operator",
          "type": "address"
        },
        {
          "indexed": false,
          "internalType": "bool",
          "name": "approved",
          "type": "bool"
        }
      ],
      "name": "ApprovalForAll",
      "type": "event"
    },
    {
      "anonymous": false,
      "inputs": [
        {
          "indexed": true,
          "internalType": "address",
          "name": "operator",
          "type": "address"
        },
        {
          "indexed": true,
          "internalType": "address",
          "name": "from",
          "type": "address"
        },
        {
          "indexed": true,
          "internalType": "address",
          "name": "to",
          "type": "address"
        },
        {
          "indexed": false,
          "internalType": "uint256[]",
          "name": "ids",
          "type": "uint256[]"
        },
        {
          "indexed": false,
          "internalType": "uint256[]",
          "name": "values",
          "type": "uint256[]"
        }
      ],
      "name": "TransferBatch",
      "type": "event"
    },
    {
      "anonymous": false,
      "inputs": [
        {
          "indexed": true,
          "internalType": "address",
          "name": "operator",
          "type": "address"
        },
        {
          "indexed": true,
          "internalType": "address",
          "name": "from",
          "type": "address"
        },
        {
          "indexed": true,
          "internalType": "address",
          "name": "to",
          "type": "address"
        },
        {
          "indexed": false,
          "internalType": "uint256",
          "name": "id",
          "type": "uint256"
        },
        {
          "indexed": false,
          "internalType": "uint256",
          "name": "value",
          "type": "uint256"
        }
      ],
      "name": "TransferSingle",
      "type": "event"
    },
    {
      "anonymous": false,
      "inputs": [
        {
          "indexed": false,
          "internalType": "string",
          "name": "value",
          "type": "string"
        },
        {
          "indexed": true,
          "internalType": "uint256",
          "name": "id",
          "type": "uint256"
        }
      ],
      "name": "URI",
      "type": "event"
    },
    {
      "inputs": [
        {
          "internalType": "address",
          "name": "account",
          "type": "address"
        },
        {
          "internalType": "uint256",
          "name": "id",
          "type": "uint256"
        }
      ],
      "name": "balanceOf",
      "outputs": [
        {
          "internalType": "uint256",
          "name": "",
          "type": "uint256"
        }
      ],
      "stateMutability": "view",
      "type": "function"
    },
    {
      "inputs": [
        {
          "internalType": "address[]",
          "name": "accounts",
          "type": "address[]"
        },
        {
          "internalType": "uint256[]",
          "name": "ids",
          "type": "uint256[]"
        }
      ],
      "name": "balanceOfBatch",
      "outputs": [
        {
          "internalType": "uint256[]",
          "name": "",
          "type": "uint256[]"
        }
      ],
      "stateMutability": "view",
      "type": "function"
    },
    {
      "inputs": [
        {
          "internalType": "address",
          "name": "owner",
          "type": "address"
        },
        {
          "internalType": "uint256",
          "name": "id",
          "type": "uint256"
        },
        {
          "internalType": "uint256",
          "name": "value",
          "type": "uint256"
        }
      ],
      "name": "burn",
      "outputs": [],
      "stateMutability": "nonpayable",
      "type": "function"
    },
    {
      "inputs": [
        {
          "internalType": "address",
          "name": "owner",
          "type": "address"
        },
        {
          "internalType": "uint256[]",
          "name": "ids",
          "type": "uint256[]"
        },
        {
          "internalType": "uint256[]",
          "name": "values",
          "type": "uint256[]"
        }
      ],
      "name": "burnBatch",
      "outputs": [],
      "stateMutability": "nonpayable",
      "type": "function"
    },
    {
      "inputs": [
        {
          "internalType": "address",
          "name": "account",
          "type": "address"
        },
        {
          "internalType": "address",
          "name": "operator",
          "type": "address"
        }
      ],
      "name": "isApprovedForAll",
      "outputs": [
        {
          "internalType": "bool",
          "name": "",
          "type": "bool"
        }
      ],
      "stateMutability": "view",
      "type": "function"
    },
    {
      "inputs": [
        {
          "internalType": "address",
          "name": "to",
          "type": "address"
        },
        {
          "internalType": "uint256",
          "name": "id",
          "type": "uint256"
        },
        {
          "internalType": "uint256",
          "name": "value",
          "type": "uint256"
        },
        {
          "internalType": "bytes",
          "name": "data",
          "type": "bytes"
        }
      ],
      "name": "mint",
      "outputs": [],
      "stateMutability": "nonpayable",
      "type": "function"
    },
    {
      "inputs": [
        {
          "internalType": "address",
          "name": "to",
          "type": "address"
        },
        {
          "internalType": "uint256[]",
          "name": "ids",
          "type": "uint256[]"
        },
        {
          "internalType": "uint256[]",
          "name": "values",
          "type": "uint256[]"
        },
        {
          "internalType": "bytes",
          "name": "data",
          "type": "bytes"
        }
      ],
      "name": "mintBatch",
      "outputs": [],
      "stateMutability": "nonpayable",
      "type": "function"
    },
    {
      "inputs": [
        {
          "internalType": "address",
          "name": "from",
          "type": "address"
        },
        {
          "internalType": "address",
          "name": "to",
          "type": "address"
        },
        {
          "internalType": "uint256[]",
          "name": "ids",
          "type": "uint256[]"
        },
        {
          "internalType": "uint256[]",
          "name": "amounts",
          "type": "uint256[]"
        },
        {
          "internalType": "bytes",
          "name": "data",
          "type": "bytes"
        }
      ],
      "name": "safeBatchTransferFrom",
      "outputs": [],
      "stateMutability": "nonpayable",
      "type": "function"
    },
    {
      "inputs": [
        {
          "internalType": "address",
          "name": "from",
          "type": "address"
        },
        {
          "internalType": "address",
          "name": "to",
          "type": "address"
        },
        {
          "internalType": "uint256",
          "name": "id",
          "type": "uint256"
        },
        {
          "internalType": "uint256",
          "name": "amount",
          "type": "uint256"
        },
        {
          "internalType": "bytes",
          "name": "data",
          "type": "bytes"
        }
      ],
      "name": "safeTransferFrom",
      "outputs": [],
      "stateMutability": "nonpayable",
      "type": "function"
    },
    {
      "inputs": [
        {
          "internalType": "address",
          "name": "operator",
          "type": "address"
        },
        {
          "internalType": "bool",
          "name": "approved",
          "type": "bool"
        }
      ],
      "name": "setApprovalForAll",
      "outputs": [],
      "stateMutability": "nonpayable",
      "type": "function"
    },
    {
      "inputs": [
        {
          "internalType": "string",
          "name": "newuri",
          "type": "string"
        }
      ],
      "name": "setURI",
      "outputs": [],
      "stateMutability": "nonpayable",
      "type": "function"
    },
    {
      "inputs": [
        {
          "internalType": "bytes4",
          "name": "interfaceId",
          "type": "bytes4"
        }
      ],
      "name": "supportsInterface",
      "outputs": [
        {
          "internalType": "bool",
          "name": "",
          "type": "bool"
        }
      ],
      "stateMutability": "view",
      "type": "function"
    },
    {
      "inputs": [
        {
          "internalType": "uint256",
          "name": "",
          "type": "uint256"
        }
      ],
      "name": "uri",
      "outputs": [
        {
          "internalType": "string",
          "name": "",
          "type": "string"
        }
      ],
      "stateMutability": "view",
      "type": "function"
    }
  ],
  "bytecode": "0x60806040523480156200001157600080fd5b5060405162003a5838038062003a588339818101604052810190620000379190620002fa565b80620000697f01ffc9a700000000000000000000000000000000000000000000000000000000620000e460201b60201c565b6200007a81620001bc60201b60201c565b620000ab7fd9b67a2600000000000000000000000000000000000000000000000000000000620000e460201b60201c565b620000dc7f0e89341c00000000000000000000000000000000000000000000000000000000620000e460201b60201c565b505062000532565b63ffffffff60e01b817bffffffffffffffffffffffffffffffffffffffffffffffffffffffff1916141562000150576040517f08c379a0000000000000000000000000000000000000000000000000000000008152600401620001479062000366565b60405180910390fd5b6001600080837bffffffffffffffffffffffffffffffffffffffffffffffffffffffff19167bffffffffffffffffffffffffffffffffffffffffffffffffffffffff1916815260200190815260200160002060006101000a81548160ff02191690831515021790555050565b8060039080519060200190620001d4929190620001d8565b5050565b828054620001e6906200042e565b90600052602060002090601f0160209004810192826200020a576000855562000256565b82601f106200022557805160ff191683800117855562000256565b8280016001018555821562000256579182015b828111156200025557825182559160200191906001019062000238565b5b50905062000265919062000269565b5090565b5b80821115620002845760008160009055506001016200026a565b5090565b60006200029f6200029984620003b1565b62000388565b905082815260208101848484011115620002b857600080fd5b620002c5848285620003f8565b509392505050565b600082601f830112620002df57600080fd5b8151620002f184826020860162000288565b91505092915050565b6000602082840312156200030d57600080fd5b600082015167ffffffffffffffff8111156200032857600080fd5b6200033684828501620002cd565b91505092915050565b60006200034e601c83620003e7565b91506200035b8262000509565b602082019050919050565b6000602082019050818103600083015262000381816200033f565b9050919050565b600062000394620003a7565b9050620003a2828262000464565b919050565b6000604051905090565b600067ffffffffffffffff821115620003cf57620003ce620004c9565b5b620003da82620004f8565b9050602081019050919050565b600082825260208201905092915050565b60005b8381101562000418578082015181840152602081019050620003fb565b8381111562000428576000848401525b50505050565b600060028204905060018216806200044757607f821691505b602082108114156200045e576200045d6200049a565b5b50919050565b6200046f82620004f8565b810181811067ffffffffffffffff82111715620004915762000490620004c9565b5b80604052505050565b7f4e487b7100000000000000000000000000000000000000000000000000000000600052602260045260246000fd5b7f4e487b7100000000000000000000000000000000000000000000000000000000600052604160045260246000fd5b6000601f19601f8301169050919050565b7f4552433136353a20696e76616c696420696e7465726661636520696400000000600082015250565b61351680620005426000396000f3fe608060405234801561001057600080fd5b50600436106100ce5760003560e01c80634e1273f41161008c578063a22cb46511610066578063a22cb4651461021f578063e985e9c51461023b578063f242432a1461026b578063f5298aca14610287576100ce565b80634e1273f4146101b75780636b20c454146101e7578063731133e914610203576100ce565b8062fdd58e146100d357806301ffc9a71461010357806302fe5305146101335780630e89341c1461014f5780631f7fdffa1461017f5780632eb2c2d61461019b575b600080fd5b6100ed60048036038101906100e8919061238d565b6102a3565b6040516100fa9190612b9e565b60405180910390f35b61011d600480360381019061011891906124ff565b61036d565b60405161012a91906129c1565b60405180910390f35b61014d60048036038101906101489190612551565b6103d4565b005b61016960048036038101906101649190612592565b6103e0565b60405161017691906129dc565b60405180910390f35b610199600480360381019061019491906122a6565b610474565b005b6101b560048036038101906101b091906120d9565b610486565b005b6101d160048036038101906101cc9190612493565b61087f565b6040516101de9190612968565b60405180910390f35b61020160048036038101906101fc9190612227565b610a30565b005b61021d60048036038101906102189190612418565b610a40565b005b61023960048036038101906102349190612351565b610a52565b005b6102556004803603810190610250919061209d565b610bd3565b60405161026291906129c1565b60405180910390f35b61028560048036038101906102809190612198565b610c67565b005b6102a1600480360381019061029c91906123c9565b610f82565b005b60008073ffffffffffffffffffffffffffffffffffffffff168373ffffffffffffffffffffffffffffffffffffffff161415610314576040517f08c379a000000000000000000000000000000000000000000000000000000000815260040161030b90612a3e565b60405180910390fd5b6001600083815260200190815260200160002060008473ffffffffffffffffffffffffffffffffffffffff1673ffffffffffffffffffffffffffffffffffffffff16815260200190815260200160002054905092915050565b6000806000837bffffffffffffffffffffffffffffffffffffffffffffffffffffffff19167bffffffffffffffffffffffffffffffffffffffffffffffffffffffff1916815260200190815260200160002060009054906101000a900460ff169050919050565b6103dd81610f92565b50565b6060600380546103ef90612e72565b80601f016020809104026020016040519081016040528092919081815260200182805461041b90612e72565b80156104685780601f1061043d57610100808354040283529160200191610468565b820191906000526020600020905b81548152906001019060200180831161044b57829003601f168201915b50505050509050919050565b61048084848484610fac565b50505050565b81518351146104ca576040517f08c379a00000000000000000000000000000000000000000000000000000000081526004016104c190612b5e565b60405180910390fd5b600073ffffffffffffffffffffffffffffffffffffffff168473ffffffffffffffffffffffffffffffffffffffff16141561053a576040517f08c379a000000000000000000000000000000000000000000000000000000000815260040161053190612a9e565b60405180910390fd5b610542611217565b73ffffffffffffffffffffffffffffffffffffffff168573ffffffffffffffffffffffffffffffffffffffff161480610588575061058785610582611217565b610bd3565b5b6105c7576040517f08c379a00000000000000000000000000000000000000000000000000000000081526004016105be90612abe565b60405180910390fd5b60006105d1611217565b90506105e181878787878761121f565b60005b84518110156107ea576000858281518110610628577f4e487b7100000000000000000000000000000000000000000000000000000000600052603260045260246000fd5b60200260200101519050600085838151811061066d577f4e487b7100000000000000000000000000000000000000000000000000000000600052603260045260246000fd5b6020026020010151905060006001600084815260200190815260200160002060008b73ffffffffffffffffffffffffffffffffffffffff1673ffffffffffffffffffffffffffffffffffffffff1681526020019081526020016000205490508181101561070f576040517f08c379a000000000000000000000000000000000000000000000000000000000815260040161070690612afe565b60405180910390fd5b818161071b9190612d88565b6001600085815260200190815260200160002060008c73ffffffffffffffffffffffffffffffffffffffff1673ffffffffffffffffffffffffffffffffffffffff16815260200190815260200160002081905550816001600085815260200190815260200160002060008b73ffffffffffffffffffffffffffffffffffffffff1673ffffffffffffffffffffffffffffffffffffffff16815260200190815260200160002060008282546107cf9190612d32565b92505081905550505050806107e390612ed5565b90506105e4565b508473ffffffffffffffffffffffffffffffffffffffff168673ffffffffffffffffffffffffffffffffffffffff168273ffffffffffffffffffffffffffffffffffffffff167f4a39dc06d4c0dbc64b70af90fd698a233a518aa5d07e595d983b8c0526c8f7fb878760405161086192919061298a565b60405180910390a4610877818787878787611227565b505050505050565b606081518351146108c5576040517f08c379a00000000000000000000000000000000000000000000000000000000081526004016108bc90612b3e565b60405180910390fd5b6000835167ffffffffffffffff811115610908577f4e487b7100000000000000000000000000000000000000000000000000000000600052604160045260246000fd5b6040519080825280602002602001820160405280156109365781602001602082028036833780820191505090505b50905060005b8451811015610a25576109cf858281518110610981577f4e487b7100000000000000000000000000000000000000000000000000000000600052603260045260246000fd5b60200260200101518583815181106109c2577f4e487b7100000000000000000000000000000000000000000000000000000000600052603260045260246000fd5b60200260200101516102a3565b828281518110610a08577f4e487b7100000000000000000000000000000000000000000000000000000000600052603260045260246000fd5b60200260200101818152505080610a1e90612ed5565b905061093c565b508091505092915050565b610a3b83838361140e565b505050565b610a4c84848484611716565b50505050565b8173ffffffffffffffffffffffffffffffffffffffff16610a71611217565b73ffffffffffffffffffffffffffffffffffffffff161415610ac8576040517f08c379a0000000000000000000000000000000000000000000000000000000008152600401610abf90612b1e565b60405180910390fd5b8060026000610ad5611217565b73ffffffffffffffffffffffffffffffffffffffff1673ffffffffffffffffffffffffffffffffffffffff16815260200190815260200160002060008473ffffffffffffffffffffffffffffffffffffffff1673ffffffffffffffffffffffffffffffffffffffff16815260200190815260200160002060006101000a81548160ff0219169083151502179055508173ffffffffffffffffffffffffffffffffffffffff16610b82611217565b73ffffffffffffffffffffffffffffffffffffffff167f17307eab39ab6107e8899845ad3d59bd9653f200f220920489ca2b5937696c3183604051610bc791906129c1565b60405180910390a35050565b6000600260008473ffffffffffffffffffffffffffffffffffffffff1673ffffffffffffffffffffffffffffffffffffffff16815260200190815260200160002060008373ffffffffffffffffffffffffffffffffffffffff1673ffffffffffffffffffffffffffffffffffffffff16815260200190815260200160002060009054906101000a900460ff16905092915050565b600073ffffffffffffffffffffffffffffffffffffffff168473ffffffffffffffffffffffffffffffffffffffff161415610cd7576040517f08c379a0000000000000000000000000000000000000000000000000000000008152600401610cce90612a9e565b60405180910390fd5b610cdf611217565b73ffffffffffffffffffffffffffffffffffffffff168573ffffffffffffffffffffffffffffffffffffffff161480610d255750610d2485610d1f611217565b610bd3565b5b610d64576040517f08c379a0000000000000000000000000000000000000000000000000000000008152600401610d5b90612a7e565b60405180910390fd5b6000610d6e611217565b9050610d8e818787610d7f886118ad565b610d88886118ad565b8761121f565b60006001600086815260200190815260200160002060008873ffffffffffffffffffffffffffffffffffffffff1673ffffffffffffffffffffffffffffffffffffffff16815260200190815260200160002054905083811015610e26576040517f08c379a0000000000000000000000000000000000000000000000000000000008152600401610e1d90612afe565b60405180910390fd5b8381610e329190612d88565b6001600087815260200190815260200160002060008973ffffffffffffffffffffffffffffffffffffffff1673ffffffffffffffffffffffffffffffffffffffff16815260200190815260200160002081905550836001600087815260200190815260200160002060008873ffffffffffffffffffffffffffffffffffffffff1673ffffffffffffffffffffffffffffffffffffffff1681526020019081526020016000206000828254610ee69190612d32565b925050819055508573ffffffffffffffffffffffffffffffffffffffff168773ffffffffffffffffffffffffffffffffffffffff168373ffffffffffffffffffffffffffffffffffffffff167fc3d58168c5ae7397731d063d5bbf3d657854427343f4c083240f7aacaa2d0f628888604051610f63929190612bb9565b60405180910390a4610f79828888888888611973565b50505050505050565b610f8d838383611b5a565b505050565b8060039080519060200190610fa8929190611d95565b5050565b600073ffffffffffffffffffffffffffffffffffffffff168473ffffffffffffffffffffffffffffffffffffffff16141561101c576040517f08c379a000000000000000000000000000000000000000000000000000000000815260040161101390612b7e565b60405180910390fd5b8151835114611060576040517f08c379a000000000000000000000000000000000000000000000000000000000815260040161105790612b5e565b60405180910390fd5b600061106a611217565b905061107b8160008787878761121f565b60005b8451811015611181578381815181106110c0577f4e487b7100000000000000000000000000000000000000000000000000000000600052603260045260246000fd5b602002602001015160016000878481518110611105577f4e487b7100000000000000000000000000000000000000000000000000000000600052603260045260246000fd5b6020026020010151815260200190815260200160002060008873ffffffffffffffffffffffffffffffffffffffff1673ffffffffffffffffffffffffffffffffffffffff16815260200190815260200160002060008282546111679190612d32565b92505081905550808061117990612ed5565b91505061107e565b508473ffffffffffffffffffffffffffffffffffffffff16600073ffffffffffffffffffffffffffffffffffffffff168273ffffffffffffffffffffffffffffffffffffffff167f4a39dc06d4c0dbc64b70af90fd698a233a518aa5d07e595d983b8c0526c8f7fb87876040516111f992919061298a565b60405180910390a461121081600087878787611227565b5050505050565b600033905090565b505050505050565b6112468473ffffffffffffffffffffffffffffffffffffffff16611d82565b15611406578373ffffffffffffffffffffffffffffffffffffffff1663bc197c8187878686866040518663ffffffff1660e01b815260040161128c9594939291906128a6565b602060405180830381600087803b1580156112a657600080fd5b505af19250505080156112d757506040513d601f19601f820116820180604052508101906112d49190612528565b60015b61137d576112e3612fab565b806308c379a0141561134057506112f86133ee565b806113035750611342565b806040517f08c379a000000000000000000000000000000000000000000000000000000000815260040161133791906129dc565b60405180910390fd5b505b6040517f08c379a0000000000000000000000000000000000000000000000000000000008152600401611374906129fe565b60405180910390fd5b63bc197c8160e01b7bffffffffffffffffffffffffffffffffffffffffffffffffffffffff1916817bffffffffffffffffffffffffffffffffffffffffffffffffffffffff191614611404576040517f08c379a00000000000000000000000000000000000000000000000000000000081526004016113fb90612a1e565b60405180910390fd5b505b505050505050565b600073ffffffffffffffffffffffffffffffffffffffff168373ffffffffffffffffffffffffffffffffffffffff16141561147e576040517f08c379a000000000000000000000000000000000000000000000000000000000815260040161147590612ade565b60405180910390fd5b80518251146114c2576040517f08c379a00000000000000000000000000000000000000000000000000000000081526004016114b990612b5e565b60405180910390fd5b60006114cc611217565b90506114ec8185600086866040518060200160405280600081525061121f565b60005b8351811015611690576000848281518110611533577f4e487b7100000000000000000000000000000000000000000000000000000000600052603260045260246000fd5b602002602001015190506000848381518110611578577f4e487b7100000000000000000000000000000000000000000000000000000000600052603260045260246000fd5b6020026020010151905060006001600084815260200190815260200160002060008973ffffffffffffffffffffffffffffffffffffffff1673ffffffffffffffffffffffffffffffffffffffff1681526020019081526020016000205490508181101561161a576040517f08c379a000000000000000000000000000000000000000000000000000000000815260040161161190612a5e565b60405180910390fd5b81816116269190612d88565b6001600085815260200190815260200160002060008a73ffffffffffffffffffffffffffffffffffffffff1673ffffffffffffffffffffffffffffffffffffffff16815260200190815260200160002081905550505050808061168890612ed5565b9150506114ef565b50600073ffffffffffffffffffffffffffffffffffffffff168473ffffffffffffffffffffffffffffffffffffffff168273ffffffffffffffffffffffffffffffffffffffff167f4a39dc06d4c0dbc64b70af90fd698a233a518aa5d07e595d983b8c0526c8f7fb868660405161170892919061298a565b60405180910390a450505050565b600073ffffffffffffffffffffffffffffffffffffffff168473ffffffffffffffffffffffffffffffffffffffff161415611786576040517f08c379a000000000000000000000000000000000000000000000000000000000815260040161177d90612b7e565b60405180910390fd5b6000611790611217565b90506117b1816000876117a2886118ad565b6117ab886118ad565b8761121f565b826001600086815260200190815260200160002060008773ffffffffffffffffffffffffffffffffffffffff1673ffffffffffffffffffffffffffffffffffffffff16815260200190815260200160002060008282546118119190612d32565b925050819055508473ffffffffffffffffffffffffffffffffffffffff16600073ffffffffffffffffffffffffffffffffffffffff168273ffffffffffffffffffffffffffffffffffffffff167fc3d58168c5ae7397731d063d5bbf3d657854427343f4c083240f7aacaa2d0f62878760405161188f929190612bb9565b60405180910390a46118a681600087878787611973565b5050505050565b60606000600167ffffffffffffffff8111156118f2577f4e487b7100000000000000000000000000000000000000000000000000000000600052604160045260246000fd5b6040519080825280602002602001820160405280156119205781602001602082028036833780820191505090505b509050828160008151811061195e577f4e487b7100000000000000000000000000000000000000000000000000000000600052603260045260246000fd5b60200260200101818152505080915050919050565b6119928473ffffffffffffffffffffffffffffffffffffffff16611d82565b15611b52578373ffffffffffffffffffffffffffffffffffffffff1663f23a6e6187878686866040518663ffffffff1660e01b81526004016119d895949392919061290e565b602060405180830381600087803b1580156119f257600080fd5b505af1925050508015611a2357506040513d601f19601f82011682018060405250810190611a209190612528565b60015b611ac957611a2f612fab565b806308c379a01415611a8c5750611a446133ee565b80611a4f5750611a8e565b806040517f08c379a0000000000000000000000000000000000000000000000000000000008152600401611a8391906129dc565b60405180910390fd5b505b6040517f08c379a0000000000000000000000000000000000000000000000000000000008152600401611ac0906129fe565b60405180910390fd5b63f23a6e6160e01b7bffffffffffffffffffffffffffffffffffffffffffffffffffffffff1916817bffffffffffffffffffffffffffffffffffffffffffffffffffffffff191614611b50576040517f08c379a0000000000000000000000000000000000000000000000000000000008152600401611b4790612a1e565b60405180910390fd5b505b505050505050565b600073ffffffffffffffffffffffffffffffffffffffff168373ffffffffffffffffffffffffffffffffffffffff161415611bca576040517f08c379a0000000000000000000000000000000000000000000000000000000008152600401611bc190612ade565b60405180910390fd5b6000611bd4611217565b9050611c0481856000611be6876118ad565b611bef876118ad565b6040518060200160405280600081525061121f565b60006001600085815260200190815260200160002060008673ffffffffffffffffffffffffffffffffffffffff1673ffffffffffffffffffffffffffffffffffffffff16815260200190815260200160002054905082811015611c9c576040517f08c379a0000000000000000000000000000000000000000000000000000000008152600401611c9390612a5e565b60405180910390fd5b8281611ca89190612d88565b6001600086815260200190815260200160002060008773ffffffffffffffffffffffffffffffffffffffff1673ffffffffffffffffffffffffffffffffffffffff16815260200190815260200160002081905550600073ffffffffffffffffffffffffffffffffffffffff168573ffffffffffffffffffffffffffffffffffffffff168373ffffffffffffffffffffffffffffffffffffffff167fc3d58168c5ae7397731d063d5bbf3d657854427343f4c083240f7aacaa2d0f628787604051611d73929190612bb9565b60405180910390a45050505050565b600080823b905060008111915050919050565b828054611da190612e72565b90600052602060002090601f016020900481019282611dc35760008555611e0a565b82601f10611ddc57805160ff1916838001178555611e0a565b82800160010185558215611e0a579182015b82811115611e09578251825591602001919060010190611dee565b5b509050611e179190611e1b565b5090565b5b80821115611e34576000816000905550600101611e1c565b5090565b6000611e4b611e4684612c07565b612be2565b90508083825260208201905082856020860282011115611e6a57600080fd5b60005b85811015611e9a5781611e808882611f8c565b845260208401935060208301925050600181019050611e6d565b5050509392505050565b6000611eb7611eb284612c33565b612be2565b90508083825260208201905082856020860282011115611ed657600080fd5b60005b85811015611f065781611eec8882612088565b845260208401935060208301925050600181019050611ed9565b5050509392505050565b6000611f23611f1e84612c5f565b612be2565b905082815260208101848484011115611f3b57600080fd5b611f46848285612e30565b509392505050565b6000611f61611f5c84612c90565b612be2565b905082815260208101848484011115611f7957600080fd5b611f84848285612e30565b509392505050565b600081359050611f9b81613484565b92915050565b600082601f830112611fb257600080fd5b8135611fc2848260208601611e38565b91505092915050565b600082601f830112611fdc57600080fd5b8135611fec848260208601611ea4565b91505092915050565b6000813590506120048161349b565b92915050565b600081359050612019816134b2565b92915050565b60008151905061202e816134b2565b92915050565b600082601f83011261204557600080fd5b8135612055848260208601611f10565b91505092915050565b600082601f83011261206f57600080fd5b813561207f848260208601611f4e565b91505092915050565b600081359050612097816134c9565b92915050565b600080604083850312156120b057600080fd5b60006120be85828601611f8c565b92505060206120cf85828601611f8c565b9150509250929050565b600080600080600060a086880312156120f157600080fd5b60006120ff88828901611f8c565b955050602061211088828901611f8c565b945050604086013567ffffffffffffffff81111561212d57600080fd5b61213988828901611fcb565b935050606086013567ffffffffffffffff81111561215657600080fd5b61216288828901611fcb565b925050608086013567ffffffffffffffff81111561217f57600080fd5b61218b88828901612034565b9150509295509295909350565b600080600080600060a086880312156121b057600080fd5b60006121be88828901611f8c565b95505060206121cf88828901611f8c565b94505060406121e088828901612088565b93505060606121f188828901612088565b925050608086013567ffffffffffffffff81111561220e57600080fd5b61221a88828901612034565b9150509295509295909350565b60008060006060848603121561223c57600080fd5b600061224a86828701611f8c565b935050602084013567ffffffffffffffff81111561226757600080fd5b61227386828701611fcb565b925050604084013567ffffffffffffffff81111561229057600080fd5b61229c86828701611fcb565b9150509250925092565b600080600080608085870312156122bc57600080fd5b60006122ca87828801611f8c565b945050602085013567ffffffffffffffff8111156122e757600080fd5b6122f387828801611fcb565b935050604085013567ffffffffffffffff81111561231057600080fd5b61231c87828801611fcb565b925050606085013567ffffffffffffffff81111561233957600080fd5b61234587828801612034565b91505092959194509250565b6000806040838503121561236457600080fd5b600061237285828601611f8c565b925050602061238385828601611ff5565b9150509250929050565b600080604083850312156123a057600080fd5b60006123ae85828601611f8c565b92505060206123bf85828601612088565b9150509250929050565b6000806000606084860312156123de57600080fd5b60006123ec86828701611f8c565b93505060206123fd86828701612088565b925050604061240e86828701612088565b9150509250925092565b6000806000806080858703121561242e57600080fd5b600061243c87828801611f8c565b945050602061244d87828801612088565b935050604061245e87828801612088565b925050606085013567ffffffffffffffff81111561247b57600080fd5b61248787828801612034565b91505092959194509250565b600080604083850312156124a657600080fd5b600083013567ffffffffffffffff8111156124c057600080fd5b6124cc85828601611fa1565b925050602083013567ffffffffffffffff8111156124e957600080fd5b6124f585828601611fcb565b9150509250929050565b60006020828403121561251157600080fd5b600061251f8482850161200a565b91505092915050565b60006020828403121561253a57600080fd5b60006125488482850161201f565b91505092915050565b60006020828403121561256357600080fd5b600082013567ffffffffffffffff81111561257d57600080fd5b6125898482850161205e565b91505092915050565b6000602082840312156125a457600080fd5b60006125b284828501612088565b91505092915050565b60006125c78383612888565b60208301905092915050565b6125dc81612dbc565b82525050565b60006125ed82612cd1565b6125f78185612cff565b935061260283612cc1565b8060005b8381101561263357815161261a88826125bb565b975061262583612cf2565b925050600181019050612606565b5085935050505092915050565b61264981612dce565b82525050565b600061265a82612cdc565b6126648185612d10565b9350612674818560208601612e3f565b61267d81612fcd565b840191505092915050565b600061269382612ce7565b61269d8185612d21565b93506126ad818560208601612e3f565b6126b681612fcd565b840191505092915050565b60006126ce603483612d21565b91506126d982612feb565b604082019050919050565b60006126f1602883612d21565b91506126fc8261303a565b604082019050919050565b6000612714602b83612d21565b915061271f82613089565b604082019050919050565b6000612737602483612d21565b9150612742826130d8565b604082019050919050565b600061275a602983612d21565b915061276582613127565b604082019050919050565b600061277d602583612d21565b915061278882613176565b604082019050919050565b60006127a0603283612d21565b91506127ab826131c5565b604082019050919050565b60006127c3602383612d21565b91506127ce82613214565b604082019050919050565b60006127e6602a83612d21565b91506127f182613263565b604082019050919050565b6000612809602983612d21565b9150612814826132b2565b604082019050919050565b600061282c602983612d21565b915061283782613301565b604082019050919050565b600061284f602883612d21565b915061285a82613350565b604082019050919050565b6000612872602183612d21565b915061287d8261339f565b604082019050919050565b61289181612e26565b82525050565b6128a081612e26565b82525050565b600060a0820190506128bb60008301886125d3565b6128c860208301876125d3565b81810360408301526128da81866125e2565b905081810360608301526128ee81856125e2565b90508181036080830152612902818461264f565b90509695505050505050565b600060a08201905061292360008301886125d3565b61293060208301876125d3565b61293d6040830186612897565b61294a6060830185612897565b818103608083015261295c818461264f565b90509695505050505050565b6000602082019050818103600083015261298281846125e2565b905092915050565b600060408201905081810360008301526129a481856125e2565b905081810360208301526129b881846125e2565b90509392505050565b60006020820190506129d66000830184612640565b92915050565b600060208201905081810360008301526129f68184612688565b905092915050565b60006020820190508181036000830152612a17816126c1565b9050919050565b60006020820190508181036000830152612a37816126e4565b9050919050565b60006020820190508181036000830152612a5781612707565b9050919050565b60006020820190508181036000830152612a778161272a565b9050919050565b60006020820190508181036000830152612a978161274d565b9050919050565b60006020820190508181036000830152612ab781612770565b9050919050565b60006020820190508181036000830152612ad781612793565b9050919050565b60006020820190508181036000830152612af7816127b6565b9050919050565b60006020820190508181036000830152612b17816127d9565b9050919050565b60006020820190508181036000830152612b37816127fc565b9050919050565b60006020820190508181036000830152612b578161281f565b9050919050565b60006020820190508181036000830152612b7781612842565b9050919050565b60006020820190508181036000830152612b9781612865565b9050919050565b6000602082019050612bb36000830184612897565b92915050565b6000604082019050612bce6000830185612897565b612bdb6020830184612897565b9392505050565b6000612bec612bfd565b9050612bf88282612ea4565b919050565b6000604051905090565b600067ffffffffffffffff821115612c2257612c21612f7c565b5b602082029050602081019050919050565b600067ffffffffffffffff821115612c4e57612c4d612f7c565b5b602082029050602081019050919050565b600067ffffffffffffffff821115612c7a57612c79612f7c565b5b612c8382612fcd565b9050602081019050919050565b600067ffffffffffffffff821115612cab57612caa612f7c565b5b612cb482612fcd565b9050602081019050919050565b6000819050602082019050919050565b600081519050919050565b600081519050919050565b600081519050919050565b6000602082019050919050565b600082825260208201905092915050565b600082825260208201905092915050565b600082825260208201905092915050565b6000612d3d82612e26565b9150612d4883612e26565b9250827fffffffffffffffffffffffffffffffffffffffffffffffffffffffffffffffff03821115612d7d57612d7c612f1e565b5b828201905092915050565b6000612d9382612e26565b9150612d9e83612e26565b925082821015612db157612db0612f1e565b5b828203905092915050565b6000612dc782612e06565b9050919050565b60008115159050919050565b60007fffffffff0000000000000000000000000000000000000000000000000000000082169050919050565b600073ffffffffffffffffffffffffffffffffffffffff82169050919050565b6000819050919050565b82818337600083830152505050565b60005b83811015612e5d578082015181840152602081019050612e42565b83811115612e6c576000848401525b50505050565b60006002820490506001821680612e8a57607f821691505b60208210811415612e9e57612e9d612f4d565b5b50919050565b612ead82612fcd565b810181811067ffffffffffffffff82111715612ecc57612ecb612f7c565b5b80604052505050565b6000612ee082612e26565b91507fffffffffffffffffffffffffffffffffffffffffffffffffffffffffffffffff821415612f1357612f12612f1e565b5b600182019050919050565b7f4e487b7100000000000000000000000000000000000000000000000000000000600052601160045260246000fd5b7f4e487b7100000000000000000000000000000000000000000000000000000000600052602260045260246000fd5b7f4e487b7100000000000000000000000000000000000000000000000000000000600052604160045260246000fd5b600060033d1115612fca5760046000803e612fc7600051612fde565b90505b90565b6000601f19601f8301169050919050565b60008160e01c9050919050565b7f455243313135353a207472616e7366657220746f206e6f6e204552433131353560008201527f526563656976657220696d706c656d656e746572000000000000000000000000602082015250565b7f455243313135353a204552433131353552656365697665722072656a6563746560008201527f6420746f6b656e73000000000000000000000000000000000000000000000000602082015250565b7f455243313135353a2062616c616e636520717565727920666f7220746865207a60008201527f65726f2061646472657373000000000000000000000000000000000000000000602082015250565b7f455243313135353a206275726e20616d6f756e7420657863656564732062616c60008201527f616e636500000000000000000000000000000000000000000000000000000000602082015250565b7f455243313135353a2063616c6c6572206973206e6f74206f776e6572206e6f7260008201527f20617070726f7665640000000000000000000000000000000000000000000000602082015250565b7f455243313135353a207472616e7366657220746f20746865207a65726f20616460008201527f6472657373000000000000000000000000000000000000000000000000000000602082015250565b7f455243313135353a207472616e736665722063616c6c6572206973206e6f742060008201527f6f776e6572206e6f7220617070726f7665640000000000000000000000000000602082015250565b7f455243313135353a206275726e2066726f6d20746865207a65726f206164647260008201527f6573730000000000000000000000000000000000000000000000000000000000602082015250565b7f455243313135353a20696e73756666696369656e742062616c616e636520666f60008201527f72207472616e7366657200000000000000000000000000000000000000000000602082015250565b7f455243313135353a2073657474696e6720617070726f76616c2073746174757360008201527f20666f722073656c660000000000000000000000000000000000000000000000602082015250565b7f455243313135353a206163636f756e747320616e6420696473206c656e67746860008201527f206d69736d617463680000000000000000000000000000000000000000000000602082015250565b7f455243313135353a2069647320616e6420616d6f756e7473206c656e6774682060008201527f6d69736d61746368000000000000000000000000000000000000000000000000602082015250565b7f455243313135353a206d696e7420746f20746865207a65726f2061646472657360008201527f7300000000000000000000000000000000000000000000000000000000000000602082015250565b600060443d10156133fe57613481565b613406612bfd565b60043d036004823e80513d602482011167ffffffffffffffff8211171561342e575050613481565b808201805167ffffffffffffffff81111561344c5750505050613481565b80602083010160043d038501811115613469575050505050613481565b61347882602001850186612ea4565b82955050505050505b90565b61348d81612dbc565b811461349857600080fd5b50565b6134a481612dce565b81146134af57600080fd5b50565b6134bb81612dda565b81146134c657600080fd5b50565b6134d281612e26565b81146134dd57600080fd5b5056fea2646970667358221220ebce4568e7094f81c0b730d8fe86a3dde6157f7b37790b698cc03c75cf5fd00f64736f6c63430008040033",
  "linkReferences": {},
  "deployedLinkReferences": {}
}