{
  "_format": "hh-sol-artifact-1",
  "contractName": "ERC777Mock",
  "sourceName": "contracts/src/OpenZeppelin/mocks/ERC777Mock.sol",
  "abi": [
    {
      "inputs": [
        {
          "internalType": "address",
          "name": "initialHolder",
          "type": "address"
        },
        {
          "internalType": "uint256",
          "name": "initialBalance",
          "type": "uint256"
        },
        {
          "internalType": "string",
          "name": "name",
          "type": "string"
        },
        {
          "internalType": "string",
          "name": "symbol",
          "type": "string"
        },
        {
          "internalType": "address[]",
          "name": "defaultOperators",
          "type": "address[]"
        }
      ],
      "stateMutability": "nonpayable",
      "type": "constructor"
    },
    {
      "anonymous": false,
      "inputs": [
        {
          "indexed": true,
          "internalType": "address",
          "name": "owner",
          "type": "address"
        },
        {
          "indexed": true,
          "internalType": "address",
          "name": "spender",
          "type": "address"
        },
        {
          "indexed": false,
          "internalType": "uint256",
          "name": "value",
          "type": "uint256"
        }
      ],
      "name": "Approval",
      "type": "event"
    },
    {
      "anonymous": false,
      "inputs": [
        {
          "indexed": true,
          "internalType": "address",
          "name": "operator",
          "type": "address"
        },
        {
          "indexed": true,
          "internalType": "address",
          "name": "tokenHolder",
          "type": "address"
        }
      ],
      "name": "AuthorizedOperator",
      "type": "event"
    },
    {
      "anonymous": false,
      "inputs": [],
      "name": "BeforeTokenTransfer",
      "type": "event"
    },
    {
      "anonymous": false,
      "inputs": [
        {
          "indexed": true,
          "internalType": "address",
          "name": "operator",
          "type": "address"
        },
        {
          "indexed": true,
          "internalType": "address",
          "name": "from",
          "type": "address"
        },
        {
          "indexed": false,
          "internalType": "uint256",
          "name": "amount",
          "type": "uint256"
        },
        {
          "indexed": false,
          "internalType": "bytes",
          "name": "data",
          "type": "bytes"
        },
        {
          "indexed": false,
          "internalType": "bytes",
          "name": "operatorData",
          "type": "bytes"
        }
      ],
      "name": "Burned",
      "type": "event"
    },
    {
      "anonymous": false,
      "inputs": [
        {
          "indexed": true,
          "internalType": "address",
          "name": "operator",
          "type": "address"
        },
        {
          "indexed": true,
          "internalType": "address",
          "name": "to",
          "type": "address"
        },
        {
          "indexed": false,
          "internalType": "uint256",
          "name": "amount",
          "type": "uint256"
        },
        {
          "indexed": false,
          "internalType": "bytes",
          "name": "data",
          "type": "bytes"
        },
        {
          "indexed": false,
          "internalType": "bytes",
          "name": "operatorData",
          "type": "bytes"
        }
      ],
      "name": "Minted",
      "type": "event"
    },
    {
      "anonymous": false,
      "inputs": [
        {
          "indexed": true,
          "internalType": "address",
          "name": "operator",
          "type": "address"
        },
        {
          "indexed": true,
          "internalType": "address",
          "name": "tokenHolder",
          "type": "address"
        }
      ],
      "name": "RevokedOperator",
      "type": "event"
    },
    {
      "anonymous": false,
      "inputs": [
        {
          "indexed": true,
          "internalType": "address",
          "name": "operator",
          "type": "address"
        },
        {
          "indexed": true,
          "internalType": "address",
          "name": "from",
          "type": "address"
        },
        {
          "indexed": true,
          "internalType": "address",
          "name": "to",
          "type": "address"
        },
        {
          "indexed": false,
          "internalType": "uint256",
          "name": "amount",
          "type": "uint256"
        },
        {
          "indexed": false,
          "internalType": "bytes",
          "name": "data",
          "type": "bytes"
        },
        {
          "indexed": false,
          "internalType": "bytes",
          "name": "operatorData",
          "type": "bytes"
        }
      ],
      "name": "Sent",
      "type": "event"
    },
    {
      "anonymous": false,
      "inputs": [
        {
          "indexed": true,
          "internalType": "address",
          "name": "from",
          "type": "address"
        },
        {
          "indexed": true,
          "internalType": "address",
          "name": "to",
          "type": "address"
        },
        {
          "indexed": false,
          "internalType": "uint256",
          "name": "value",
          "type": "uint256"
        }
      ],
      "name": "Transfer",
      "type": "event"
    },
    {
      "inputs": [
        {
          "internalType": "address",
          "name": "holder",
          "type": "address"
        },
        {
          "internalType": "address",
          "name": "spender",
          "type": "address"
        }
      ],
      "name": "allowance",
      "outputs": [
        {
          "internalType": "uint256",
          "name": "",
          "type": "uint256"
        }
      ],
      "stateMutability": "view",
      "type": "function"
    },
    {
      "inputs": [
        {
          "internalType": "address",
          "name": "spender",
          "type": "address"
        },
        {
          "internalType": "uint256",
          "name": "value",
          "type": "uint256"
        }
      ],
      "name": "approve",
      "outputs": [
        {
          "internalType": "bool",
          "name": "",
          "type": "bool"
        }
      ],
      "stateMutability": "nonpayable",
      "type": "function"
    },
    {
      "inputs": [
        {
          "internalType": "address",
          "name": "holder",
          "type": "address"
        },
        {
          "internalType": "address",
          "name": "spender",
          "type": "address"
        },
        {
          "internalType": "uint256",
          "name": "value",
          "type": "uint256"
        }
      ],
      "name": "approveInternal",
      "outputs": [],
      "stateMutability": "nonpayable",
      "type": "function"
    },
    {
      "inputs": [
        {
          "internalType": "address",
          "name": "operator",
          "type": "address"
        }
      ],
      "name": "authorizeOperator",
      "outputs": [],
      "stateMutability": "nonpayable",
      "type": "function"
    },
    {
      "inputs": [
        {
          "internalType": "address",
          "name": "tokenHolder",
          "type": "address"
        }
      ],
      "name": "balanceOf",
      "outputs": [
        {
          "internalType": "uint256",
          "name": "",
          "type": "uint256"
        }
      ],
      "stateMutability": "view",
      "type": "function"
    },
    {
      "inputs": [
        {
          "internalType": "uint256",
          "name": "amount",
          "type": "uint256"
        },
        {
          "internalType": "bytes",
          "name": "data",
          "type": "bytes"
        }
      ],
      "name": "burn",
      "outputs": [],
      "stateMutability": "nonpayable",
      "type": "function"
    },
    {
      "inputs": [],
      "name": "decimals",
      "outputs": [
        {
          "internalType": "uint8",
          "name": "",
          "type": "uint8"
        }
      ],
      "stateMutability": "pure",
      "type": "function"
    },
    {
      "inputs": [],
      "name": "defaultOperators",
      "outputs": [
        {
          "internalType": "address[]",
          "name": "",
          "type": "address[]"
        }
      ],
      "stateMutability": "view",
      "type": "function"
    },
    {
      "inputs": [],
      "name": "granularity",
      "outputs": [
        {
          "internalType": "uint256",
          "name": "",
          "type": "uint256"
        }
      ],
      "stateMutability": "view",
      "type": "function"
    },
    {
      "inputs": [
        {
          "internalType": "address",
          "name": "operator",
          "type": "address"
        },
        {
          "internalType": "address",
          "name": "tokenHolder",
          "type": "address"
        }
      ],
      "name": "isOperatorFor",
      "outputs": [
        {
          "internalType": "bool",
          "name": "",
          "type": "bool"
        }
      ],
      "stateMutability": "view",
      "type": "function"
    },
    {
      "inputs": [
        {
          "internalType": "address",
          "name": "to",
          "type": "address"
        },
        {
          "internalType": "uint256",
          "name": "amount",
          "type": "uint256"
        },
        {
          "internalType": "bytes",
          "name": "userData",
          "type": "bytes"
        },
        {
          "internalType": "bytes",
          "name": "operatorData",
          "type": "bytes"
        }
      ],
      "name": "mintInternal",
      "outputs": [],
      "stateMutability": "nonpayable",
      "type": "function"
    },
    {
      "inputs": [],
      "name": "name",
      "outputs": [
        {
          "internalType": "string",
          "name": "",
          "type": "string"
        }
      ],
      "stateMutability": "view",
      "type": "function"
    },
    {
      "inputs": [
        {
          "internalType": "address",
          "name": "account",
          "type": "address"
        },
        {
          "internalType": "uint256",
          "name": "amount",
          "type": "uint256"
        },
        {
          "internalType": "bytes",
          "name": "data",
          "type": "bytes"
        },
        {
          "internalType": "bytes",
          "name": "operatorData",
          "type": "bytes"
        }
      ],
      "name": "operatorBurn",
      "outputs": [],
      "stateMutability": "nonpayable",
      "type": "function"
    },
    {
      "inputs": [
        {
          "internalType": "address",
          "name": "sender",
          "type": "address"
        },
        {
          "internalType": "address",
          "name": "recipient",
          "type": "address"
        },
        {
          "internalType": "uint256",
          "name": "amount",
          "type": "uint256"
        },
        {
          "internalType": "bytes",
          "name": "data",
          "type": "bytes"
        },
        {
          "internalType": "bytes",
          "name": "operatorData",
          "type": "bytes"
        }
      ],
      "name": "operatorSend",
      "outputs": [],
      "stateMutability": "nonpayable",
      "type": "function"
    },
    {
      "inputs": [
        {
          "internalType": "address",
          "name": "operator",
          "type": "address"
        }
      ],
      "name": "revokeOperator",
      "outputs": [],
      "stateMutability": "nonpayable",
      "type": "function"
    },
    {
      "inputs": [
        {
          "internalType": "address",
          "name": "recipient",
          "type": "address"
        },
        {
          "internalType": "uint256",
          "name": "amount",
          "type": "uint256"
        },
        {
          "internalType": "bytes",
          "name": "data",
          "type": "bytes"
        }
      ],
      "name": "send",
      "outputs": [],
      "stateMutability": "nonpayable",
      "type": "function"
    },
    {
      "inputs": [],
      "name": "symbol",
      "outputs": [
        {
          "internalType": "string",
          "name": "",
          "type": "string"
        }
      ],
      "stateMutability": "view",
      "type": "function"
    },
    {
      "inputs": [],
      "name": "totalSupply",
      "outputs": [
        {
          "internalType": "uint256",
          "name": "",
          "type": "uint256"
        }
      ],
      "stateMutability": "view",
      "type": "function"
    },
    {
      "inputs": [
        {
          "internalType": "address",
          "name": "recipient",
          "type": "address"
        },
        {
          "internalType": "uint256",
          "name": "amount",
          "type": "uint256"
        }
      ],
      "name": "transfer",
      "outputs": [
        {
          "internalType": "bool",
          "name": "",
          "type": "bool"
        }
      ],
      "stateMutability": "nonpayable",
      "type": "function"
    },
    {
      "inputs": [
        {
          "internalType": "address",
          "name": "holder",
          "type": "address"
        },
        {
          "internalType": "address",
          "name": "recipient",
          "type": "address"
        },
        {
          "internalType": "uint256",
          "name": "amount",
          "type": "uint256"
        }
      ],
      "name": "transferFrom",
      "outputs": [
        {
          "internalType": "bool",
          "name": "",
          "type": "bool"
        }
      ],
      "stateMutability": "nonpayable",
      "type": "function"
    }
  ],
  "bytecode": "0x60806040523480156200001157600080fd5b50604051620041af380380620041af8339818101604052810190620000379190620009f1565b82828282600290805190602001906200005292919062000744565b5081600390805190602001906200006b92919062000744565b50806004908051906020019062000084929190620007d5565b5060005b600480549050811015620001695760016005600060048481548110620000d7577f4e487b7100000000000000000000000000000000000000000000000000000000600052603260045260246000fd5b9060005260206000200160009054906101000a900473ffffffffffffffffffffffffffffffffffffffff1673ffffffffffffffffffffffffffffffffffffffff1673ffffffffffffffffffffffffffffffffffffffff16815260200190815260200160002060006101000a81548160ff0219169083151502179055508080620001609062000f13565b91505062000088565b50731820a4b7618bde71dce8cdc73aab6c95905fad2473ffffffffffffffffffffffffffffffffffffffff166329965a1d307fac7fbab5f54a3ca8194167523c6753bfeb96a445279294b6125b68cce2177054306040518463ffffffff1660e01b8152600401620001dd9392919062000c28565b600060405180830381600087803b158015620001f857600080fd5b505af11580156200020d573d6000803e3d6000fd5b50505050731820a4b7618bde71dce8cdc73aab6c95905fad2473ffffffffffffffffffffffffffffffffffffffff166329965a1d307faea199e31a596269b42cdafd93407f14436db6e4cad65417994c2eb37381e05a306040518463ffffffff1660e01b8152600401620002849392919062000c28565b600060405180830381600087803b1580156200029f57600080fd5b505af1158015620002b4573d6000803e3d6000fd5b50505050505050620002ed85856040518060200160405280600081525060405180602001604052806000815250620002f860201b60201c565b5050505050620010d1565b600073ffffffffffffffffffffffffffffffffffffffff168473ffffffffffffffffffffffffffffffffffffffff1614156200036b576040517f08c379a0000000000000000000000000000000000000000000000000000000008152600401620003629062000c65565b60405180910390fd5b60006200037d620004f960201b60201c565b90506200039481600087876200050160201b60201c565b8360016000828254620003a8919062000dcc565b92505081905550836000808773ffffffffffffffffffffffffffffffffffffffff1673ffffffffffffffffffffffffffffffffffffffff1681526020019081526020016000206000828254620003ff919062000dcc565b925050819055506200041f8160008787878760016200053360201b60201c565b8473ffffffffffffffffffffffffffffffffffffffff168173ffffffffffffffffffffffffffffffffffffffff167f2fe5be0146f74c5bce36c0b80911af6c7d86ff27e89d5cfa61fc681327954e5d868686604051620004829392919062000cc6565b60405180910390a38473ffffffffffffffffffffffffffffffffffffffff16600073ffffffffffffffffffffffffffffffffffffffff167fddf252ad1be2c89b69c2b068fc378daa952ba7f163c4a11628f55a4df523b3ef86604051620004ea919062000ca9565b60405180910390a35050505050565b600033905090565b7f52316ab8e8b0687ce803e403dfe429541bccd4f6c4683ec65d254d382f15a26560405160405180910390a150505050565b6000731820a4b7618bde71dce8cdc73aab6c95905fad2473ffffffffffffffffffffffffffffffffffffffff1663aabbb8ca877fb281fc8c12954d22544db45de3159a39272895b169a852b314f9cc762e44c53b6040518363ffffffff1660e01b8152600401620005a692919062000bfb565b60206040518083038186803b158015620005bf57600080fd5b505afa158015620005d4573d6000803e3d6000fd5b505050506040513d601f19601f82011682018060405250810190620005fa9190620009c5565b9050600073ffffffffffffffffffffffffffffffffffffffff168173ffffffffffffffffffffffffffffffffffffffff1614620006af578073ffffffffffffffffffffffffffffffffffffffff166223de298989898989896040518763ffffffff1660e01b8152600401620006759695949392919062000b80565b600060405180830381600087803b1580156200069057600080fd5b505af1158015620006a5573d6000803e3d6000fd5b5050505062000727565b81156200072657620006e28673ffffffffffffffffffffffffffffffffffffffff166200073160201b620011ba1760201c565b1562000725576040517f08c379a00000000000000000000000000000000000000000000000000000000081526004016200071c9062000c87565b60405180910390fd5b5b5b5050505050505050565b600080823b905060008111915050919050565b828054620007529062000ea7565b90600052602060002090601f016020900481019282620007765760008555620007c2565b82601f106200079157805160ff1916838001178555620007c2565b82800160010185558215620007c2579182015b82811115620007c1578251825591602001919060010190620007a4565b5b509050620007d1919062000864565b5090565b82805482825590600052602060002090810192821562000851579160200282015b82811115620008505782518260006101000a81548173ffffffffffffffffffffffffffffffffffffffff021916908373ffffffffffffffffffffffffffffffffffffffff16021790555091602001919060010190620007f6565b5b50905062000860919062000864565b5090565b5b808211156200087f57600081600090555060010162000865565b5090565b60006200089a620008948462000d3a565b62000d11565b90508083825260208201905082856020860282011115620008ba57600080fd5b60005b85811015620008ee5781620008d388826200093d565b845260208401935060208301925050600181019050620008bd565b5050509392505050565b60006200090f620009098462000d69565b62000d11565b9050828152602081018484840111156200092857600080fd5b6200093584828562000e71565b509392505050565b6000815190506200094e816200109d565b92915050565b600082601f8301126200096657600080fd5b81516200097884826020860162000883565b91505092915050565b600082601f8301126200099357600080fd5b8151620009a5848260208601620008f8565b91505092915050565b600081519050620009bf81620010b7565b92915050565b600060208284031215620009d857600080fd5b6000620009e8848285016200093d565b91505092915050565b600080600080600060a0868803121562000a0a57600080fd5b600062000a1a888289016200093d565b955050602062000a2d88828901620009ae565b945050604086015167ffffffffffffffff81111562000a4b57600080fd5b62000a598882890162000981565b935050606086015167ffffffffffffffff81111562000a7757600080fd5b62000a858882890162000981565b925050608086015167ffffffffffffffff81111562000aa357600080fd5b62000ab18882890162000954565b9150509295509295909350565b62000ac98162000e29565b82525050565b62000ada8162000e3d565b82525050565b600062000aed8262000d9f565b62000af9818562000daa565b935062000b0b81856020860162000e71565b62000b168162000fee565b840191505092915050565b600062000b3060208362000dbb565b915062000b3d8262000fff565b602082019050919050565b600062000b57604d8362000dbb565b915062000b648262001028565b606082019050919050565b62000b7a8162000e67565b82525050565b600060c08201905062000b97600083018962000abe565b62000ba6602083018862000abe565b62000bb5604083018762000abe565b62000bc4606083018662000b6f565b818103608083015262000bd8818562000ae0565b905081810360a083015262000bee818462000ae0565b9050979650505050505050565b600060408201905062000c12600083018562000abe565b62000c21602083018462000acf565b9392505050565b600060608201905062000c3f600083018662000abe565b62000c4e602083018562000acf565b62000c5d604083018462000abe565b949350505050565b6000602082019050818103600083015262000c808162000b21565b9050919050565b6000602082019050818103600083015262000ca28162000b48565b9050919050565b600060208201905062000cc0600083018462000b6f565b92915050565b600060608201905062000cdd600083018662000b6f565b818103602083015262000cf1818562000ae0565b9050818103604083015262000d07818462000ae0565b9050949350505050565b600062000d1d62000d30565b905062000d2b828262000edd565b919050565b6000604051905090565b600067ffffffffffffffff82111562000d585762000d5762000fbf565b5b602082029050602081019050919050565b600067ffffffffffffffff82111562000d875762000d8662000fbf565b5b62000d928262000fee565b9050602081019050919050565b600081519050919050565b600082825260208201905092915050565b600082825260208201905092915050565b600062000dd98262000e67565b915062000de68362000e67565b9250827fffffffffffffffffffffffffffffffffffffffffffffffffffffffffffffffff0382111562000e1e5762000e1d62000f61565b5b828201905092915050565b600062000e368262000e47565b9050919050565b6000819050919050565b600073ffffffffffffffffffffffffffffffffffffffff82169050919050565b6000819050919050565b60005b8381101562000e9157808201518184015260208101905062000e74565b8381111562000ea1576000848401525b50505050565b6000600282049050600182168062000ec057607f821691505b6020821081141562000ed75762000ed662000f90565b5b50919050565b62000ee88262000fee565b810181811067ffffffffffffffff8211171562000f0a5762000f0962000fbf565b5b80604052505050565b600062000f208262000e67565b91507fffffffffffffffffffffffffffffffffffffffffffffffffffffffffffffffff82141562000f565762000f5562000f61565b5b600182019050919050565b7f4e487b7100000000000000000000000000000000000000000000000000000000600052601160045260246000fd5b7f4e487b7100000000000000000000000000000000000000000000000000000000600052602260045260246000fd5b7f4e487b7100000000000000000000000000000000000000000000000000000000600052604160045260246000fd5b6000601f19601f8301169050919050565b7f4552433737373a206d696e7420746f20746865207a65726f2061646472657373600082015250565b7f4552433737373a20746f6b656e20726563697069656e7420636f6e747261637460008201527f20686173206e6f20696d706c656d656e74657220666f7220455243373737546f60208201527f6b656e73526563697069656e7400000000000000000000000000000000000000604082015250565b620010a88162000e29565b8114620010b457600080fd5b50565b620010c28162000e67565b8114620010ce57600080fd5b50565b6130ce80620010e16000396000f3fe608060405234801561001057600080fd5b506004361061012c5760003560e01c8063959b8c3f116100ad578063d95b637111610071578063d95b637114610331578063dd62ed3e14610361578063fad8b32a14610391578063fc673c4f146103ad578063fe9d9303146103c95761012c565b8063959b8c3f1461028f57806395d89b41146102ab5780639bd9bbc6146102c9578063a9059cbb146102e5578063b1f0b5be146103155761012c565b8063313ce567116100f4578063313ce567146101eb578063556f0dc71461020957806356189cb41461022757806362ad1b831461024357806370a082311461025f5761012c565b806306e485381461013157806306fdde031461014f578063095ea7b31461016d57806318160ddd1461019d57806323b872dd146101bb575b600080fd5b6101396103e5565b6040516101469190612642565b60405180910390f35b610157610473565b604051610164919061267f565b60405180910390f35b610187600480360381019061018291906120d1565b610505565b6040516101949190612664565b60405180910390f35b6101a5610528565b6040516101b29190612881565b60405180910390f35b6101d560048036038101906101d09190611fdb565b610532565b6040516101e29190612664565b60405180910390f35b6101f361078c565b60405161020091906128e1565b60405180910390f35b610211610795565b60405161021e9190612881565b60405180910390f35b610241600480360381019061023c9190611fdb565b61079e565b005b61025d6004803603810190610258919061202a565b6107ae565b005b61027960048036038101906102749190611f4d565b610814565b6040516102869190612881565b60405180910390f35b6102a960048036038101906102a49190611f4d565b61085c565b005b6102b3610abd565b6040516102c0919061267f565b60405180910390f35b6102e360048036038101906102de919061210d565b610b4f565b005b6102ff60048036038101906102fa91906120d1565b610b79565b60405161030c9190612664565b60405180910390f35b61032f600480360381019061032a9190612174565b610c87565b005b61034b60048036038101906103469190611f9f565b610c99565b6040516103589190612664565b60405180910390f35b61037b60048036038101906103769190611f9f565b610e4a565b6040516103889190612881565b60405180910390f35b6103ab60048036038101906103a69190611f4d565b610ed1565b005b6103c760048036038101906103c29190612174565b611132565b005b6103e360048036038101906103de9190612207565b611194565b005b6060600480548060200260200160405190810160405280929190818152602001828054801561046957602002820191906000526020600020905b8160009054906101000a900473ffffffffffffffffffffffffffffffffffffffff1673ffffffffffffffffffffffffffffffffffffffff168152602001906001019080831161041f575b5050505050905090565b60606002805461048290612aee565b80601f01602080910402602001604051908101604052809291908181526020018280546104ae90612aee565b80156104fb5780601f106104d0576101008083540402835291602001916104fb565b820191906000526020600020905b8154815290600101906020018083116104de57829003601f168201915b5050505050905090565b6000806105106111cd565b905061051d8185856111d5565b600191505092915050565b6000600154905090565b60008073ffffffffffffffffffffffffffffffffffffffff168373ffffffffffffffffffffffffffffffffffffffff1614156105a3576040517f08c379a000000000000000000000000000000000000000000000000000000000815260040161059a906127a1565b60405180910390fd5b600073ffffffffffffffffffffffffffffffffffffffff168473ffffffffffffffffffffffffffffffffffffffff161415610613576040517f08c379a000000000000000000000000000000000000000000000000000000000815260040161060a90612801565b60405180910390fd5b600061061d6111cd565b905061064b8186868660405180602001604052806000815250604051806020016040528060008152506113a0565b610677818686866040518060200160405280600081525060405180602001604052806000815250611516565b6000600860008773ffffffffffffffffffffffffffffffffffffffff1673ffffffffffffffffffffffffffffffffffffffff16815260200190815260200160002060008373ffffffffffffffffffffffffffffffffffffffff1673ffffffffffffffffffffffffffffffffffffffff1681526020019081526020016000205490508381101561073b576040517f08c379a0000000000000000000000000000000000000000000000000000000008152600401610732906127e1565b60405180910390fd5b6107518683868461074c9190612a19565b6111d5565b61077f8287878760405180602001604052806000815250604051806020016040528060008152506000611739565b6001925050509392505050565b60006012905090565b60006001905090565b6107a98383836111d5565b505050565b6107bf6107b96111cd565b86610c99565b6107fe576040517f08c379a00000000000000000000000000000000000000000000000000000000081526004016107f5906127c1565b60405180910390fd5b61080d8585858585600161191a565b5050505050565b60008060008373ffffffffffffffffffffffffffffffffffffffff1673ffffffffffffffffffffffffffffffffffffffff168152602001908152602001600020549050919050565b8073ffffffffffffffffffffffffffffffffffffffff1661087b6111cd565b73ffffffffffffffffffffffffffffffffffffffff1614156108d2576040517f08c379a00000000000000000000000000000000000000000000000000000000081526004016108c990612721565b60405180910390fd5b600560008273ffffffffffffffffffffffffffffffffffffffff1673ffffffffffffffffffffffffffffffffffffffff16815260200190815260200160002060009054906101000a900460ff16156109bc57600760006109306111cd565b73ffffffffffffffffffffffffffffffffffffffff1673ffffffffffffffffffffffffffffffffffffffff16815260200190815260200160002060008273ffffffffffffffffffffffffffffffffffffffff1673ffffffffffffffffffffffffffffffffffffffff16815260200190815260200160002060006101000a81549060ff0219169055610a59565b6001600660006109ca6111cd565b73ffffffffffffffffffffffffffffffffffffffff1673ffffffffffffffffffffffffffffffffffffffff16815260200190815260200160002060008373ffffffffffffffffffffffffffffffffffffffff1673ffffffffffffffffffffffffffffffffffffffff16815260200190815260200160002060006101000a81548160ff0219169083151502179055505b610a616111cd565b73ffffffffffffffffffffffffffffffffffffffff168173ffffffffffffffffffffffffffffffffffffffff167ff4caeb2d6ca8932a215a353d0703c326ec2d81fc68170f320eb2ab49e9df61f960405160405180910390a350565b606060038054610acc90612aee565b80601f0160208091040260200160405190810160405280929190818152602001828054610af890612aee565b8015610b455780601f10610b1a57610100808354040283529160200191610b45565b820191906000526020600020905b815481529060010190602001808311610b2857829003601f168201915b5050505050905090565b610b74610b5a6111cd565b84848460405180602001604052806000815250600161191a565b505050565b60008073ffffffffffffffffffffffffffffffffffffffff168373ffffffffffffffffffffffffffffffffffffffff161415610bea576040517f08c379a0000000000000000000000000000000000000000000000000000000008152600401610be1906127a1565b60405180910390fd5b6000610bf46111cd565b9050610c228182868660405180602001604052806000815250604051806020016040528060008152506113a0565b610c4e818286866040518060200160405280600081525060405180602001604052806000815250611516565b610c7c8182868660405180602001604052806000815250604051806020016040528060008152506000611739565b600191505092915050565b610c9384848484611a3a565b50505050565b60008173ffffffffffffffffffffffffffffffffffffffff168373ffffffffffffffffffffffffffffffffffffffff161480610db15750600560008473ffffffffffffffffffffffffffffffffffffffff1673ffffffffffffffffffffffffffffffffffffffff16815260200190815260200160002060009054906101000a900460ff168015610db05750600760008373ffffffffffffffffffffffffffffffffffffffff1673ffffffffffffffffffffffffffffffffffffffff16815260200190815260200160002060008473ffffffffffffffffffffffffffffffffffffffff1673ffffffffffffffffffffffffffffffffffffffff16815260200190815260200160002060009054906101000a900460ff16155b5b80610e425750600660008373ffffffffffffffffffffffffffffffffffffffff1673ffffffffffffffffffffffffffffffffffffffff16815260200190815260200160002060008473ffffffffffffffffffffffffffffffffffffffff1673ffffffffffffffffffffffffffffffffffffffff16815260200190815260200160002060009054906101000a900460ff165b905092915050565b6000600860008473ffffffffffffffffffffffffffffffffffffffff1673ffffffffffffffffffffffffffffffffffffffff16815260200190815260200160002060008373ffffffffffffffffffffffffffffffffffffffff1673ffffffffffffffffffffffffffffffffffffffff16815260200190815260200160002054905092915050565b610ed96111cd565b73ffffffffffffffffffffffffffffffffffffffff168173ffffffffffffffffffffffffffffffffffffffff161415610f47576040517f08c379a0000000000000000000000000000000000000000000000000000000008152600401610f3e90612741565b60405180910390fd5b600560008273ffffffffffffffffffffffffffffffffffffffff1673ffffffffffffffffffffffffffffffffffffffff16815260200190815260200160002060009054906101000a900460ff161561103a57600160076000610fa76111cd565b73ffffffffffffffffffffffffffffffffffffffff1673ffffffffffffffffffffffffffffffffffffffff16815260200190815260200160002060008373ffffffffffffffffffffffffffffffffffffffff1673ffffffffffffffffffffffffffffffffffffffff16815260200190815260200160002060006101000a81548160ff0219169083151502179055506110ce565b600660006110466111cd565b73ffffffffffffffffffffffffffffffffffffffff1673ffffffffffffffffffffffffffffffffffffffff16815260200190815260200160002060008273ffffffffffffffffffffffffffffffffffffffff1673ffffffffffffffffffffffffffffffffffffffff16815260200190815260200160002060006101000a81549060ff02191690555b6110d66111cd565b73ffffffffffffffffffffffffffffffffffffffff168173ffffffffffffffffffffffffffffffffffffffff167f50546e66e5f44d728365dc3908c63bc5cfeeab470722c1677e3073a6ac294aa160405160405180910390a350565b61114361113d6111cd565b85610c99565b611182576040517f08c379a0000000000000000000000000000000000000000000000000000000008152600401611179906127c1565b60405180910390fd5b61118e84848484611c18565b50505050565b6111b661119f6111cd565b838360405180602001604052806000815250611c18565b5050565b600080823b905060008111915050919050565b600033905090565b600073ffffffffffffffffffffffffffffffffffffffff168373ffffffffffffffffffffffffffffffffffffffff161415611245576040517f08c379a000000000000000000000000000000000000000000000000000000000815260040161123c906126a1565b60405180910390fd5b600073ffffffffffffffffffffffffffffffffffffffff168273ffffffffffffffffffffffffffffffffffffffff1614156112b5576040517f08c379a00000000000000000000000000000000000000000000000000000000081526004016112ac90612861565b60405180910390fd5b80600860008573ffffffffffffffffffffffffffffffffffffffff1673ffffffffffffffffffffffffffffffffffffffff16815260200190815260200160002060008473ffffffffffffffffffffffffffffffffffffffff1673ffffffffffffffffffffffffffffffffffffffff168152602001908152602001600020819055508173ffffffffffffffffffffffffffffffffffffffff168373ffffffffffffffffffffffffffffffffffffffff167f8c5be1e5ebec7d5bd14f71427d1e84f3dd0314c0f7b2291e5b200ac8c7c3b925836040516113939190612881565b60405180910390a3505050565b6000731820a4b7618bde71dce8cdc73aab6c95905fad2473ffffffffffffffffffffffffffffffffffffffff1663aabbb8ca877f29ddb589b1fb5fc7cf394961c1adf5f8c6454761adf795e67fe149f658abe8956040518363ffffffff1660e01b8152600401611411929190612619565b60206040518083038186803b15801561142957600080fd5b505afa15801561143d573d6000803e3d6000fd5b505050506040513d601f19601f820116820180604052508101906114619190611f76565b9050600073ffffffffffffffffffffffffffffffffffffffff168173ffffffffffffffffffffffffffffffffffffffff161461150d578073ffffffffffffffffffffffffffffffffffffffff166375ab97828888888888886040518763ffffffff1660e01b81526004016114da969594939291906125aa565b600060405180830381600087803b1580156114f457600080fd5b505af1158015611508573d6000803e3d6000fd5b505050505b50505050505050565b61152286868686611e74565b60008060008773ffffffffffffffffffffffffffffffffffffffff1673ffffffffffffffffffffffffffffffffffffffff168152602001908152602001600020549050838110156115a8576040517f08c379a000000000000000000000000000000000000000000000000000000000815260040161159f906126e1565b60405180910390fd5b83816115b49190612a19565b6000808873ffffffffffffffffffffffffffffffffffffffff1673ffffffffffffffffffffffffffffffffffffffff16815260200190815260200160002081905550836000808773ffffffffffffffffffffffffffffffffffffffff1673ffffffffffffffffffffffffffffffffffffffff168152602001908152602001600020600082825461164491906129c3565b925050819055508473ffffffffffffffffffffffffffffffffffffffff168673ffffffffffffffffffffffffffffffffffffffff168873ffffffffffffffffffffffffffffffffffffffff167f06b541ddaa720db2b10a4d0cdac39b8d360425fc073085fac19bc826146779878787876040516116c39392919061289c565b60405180910390a48473ffffffffffffffffffffffffffffffffffffffff168673ffffffffffffffffffffffffffffffffffffffff167fddf252ad1be2c89b69c2b068fc378daa952ba7f163c4a11628f55a4df523b3ef866040516117289190612881565b60405180910390a350505050505050565b6000731820a4b7618bde71dce8cdc73aab6c95905fad2473ffffffffffffffffffffffffffffffffffffffff1663aabbb8ca877fb281fc8c12954d22544db45de3159a39272895b169a852b314f9cc762e44c53b6040518363ffffffff1660e01b81526004016117aa929190612619565b60206040518083038186803b1580156117c257600080fd5b505afa1580156117d6573d6000803e3d6000fd5b505050506040513d601f19601f820116820180604052508101906117fa9190611f76565b9050600073ffffffffffffffffffffffffffffffffffffffff168173ffffffffffffffffffffffffffffffffffffffff16146118a9578073ffffffffffffffffffffffffffffffffffffffff166223de298989898989896040518763ffffffff1660e01b8152600401611872969594939291906125aa565b600060405180830381600087803b15801561188c57600080fd5b505af11580156118a0573d6000803e3d6000fd5b50505050611910565b811561190f576118ce8673ffffffffffffffffffffffffffffffffffffffff166111ba565b1561190e576040517f08c379a000000000000000000000000000000000000000000000000000000000815260040161190590612781565b60405180910390fd5b5b5b5050505050505050565b600073ffffffffffffffffffffffffffffffffffffffff168673ffffffffffffffffffffffffffffffffffffffff16141561198a576040517f08c379a0000000000000000000000000000000000000000000000000000000008152600401611981906126c1565b60405180910390fd5b600073ffffffffffffffffffffffffffffffffffffffff168573ffffffffffffffffffffffffffffffffffffffff1614156119fa576040517f08c379a00000000000000000000000000000000000000000000000000000000081526004016119f190612841565b60405180910390fd5b6000611a046111cd565b9050611a148188888888886113a0565b611a22818888888888611516565b611a3181888888888888611739565b50505050505050565b600073ffffffffffffffffffffffffffffffffffffffff168473ffffffffffffffffffffffffffffffffffffffff161415611aaa576040517f08c379a0000000000000000000000000000000000000000000000000000000008152600401611aa190612761565b60405180910390fd5b6000611ab46111cd565b9050611ac38160008787611e74565b8360016000828254611ad591906129c3565b92505081905550836000808773ffffffffffffffffffffffffffffffffffffffff1673ffffffffffffffffffffffffffffffffffffffff1681526020019081526020016000206000828254611b2a91906129c3565b92505081905550611b42816000878787876001611739565b8473ffffffffffffffffffffffffffffffffffffffff168173ffffffffffffffffffffffffffffffffffffffff167f2fe5be0146f74c5bce36c0b80911af6c7d86ff27e89d5cfa61fc681327954e5d868686604051611ba39392919061289c565b60405180910390a38473ffffffffffffffffffffffffffffffffffffffff16600073ffffffffffffffffffffffffffffffffffffffff167fddf252ad1be2c89b69c2b068fc378daa952ba7f163c4a11628f55a4df523b3ef86604051611c099190612881565b60405180910390a35050505050565b600073ffffffffffffffffffffffffffffffffffffffff168473ffffffffffffffffffffffffffffffffffffffff161415611c88576040517f08c379a0000000000000000000000000000000000000000000000000000000008152600401611c7f90612701565b60405180910390fd5b6000611c926111cd565b9050611ca3818660008787876113a0565b611cb08186600087611e74565b60008060008773ffffffffffffffffffffffffffffffffffffffff1673ffffffffffffffffffffffffffffffffffffffff16815260200190815260200160002054905084811015611d36576040517f08c379a0000000000000000000000000000000000000000000000000000000008152600401611d2d90612821565b60405180910390fd5b8481611d429190612a19565b6000808873ffffffffffffffffffffffffffffffffffffffff1673ffffffffffffffffffffffffffffffffffffffff168152602001908152602001600020819055508460016000828254611d969190612a19565b925050819055508573ffffffffffffffffffffffffffffffffffffffff168273ffffffffffffffffffffffffffffffffffffffff167fa78a9be3a7b862d26933ad85fb11d80ef66b8f972d7cbba06621d583943a4098878787604051611dfe9392919061289c565b60405180910390a3600073ffffffffffffffffffffffffffffffffffffffff168673ffffffffffffffffffffffffffffffffffffffff167fddf252ad1be2c89b69c2b068fc378daa952ba7f163c4a11628f55a4df523b3ef87604051611e649190612881565b60405180910390a3505050505050565b7f52316ab8e8b0687ce803e403dfe429541bccd4f6c4683ec65d254d382f15a26560405160405180910390a150505050565b6000611eb9611eb484612921565b6128fc565b905082815260208101848484011115611ed157600080fd5b611edc848285612aac565b509392505050565b600081359050611ef38161306a565b92915050565b600081519050611f088161306a565b92915050565b600082601f830112611f1f57600080fd5b8135611f2f848260208601611ea6565b91505092915050565b600081359050611f4781613081565b92915050565b600060208284031215611f5f57600080fd5b6000611f6d84828501611ee4565b91505092915050565b600060208284031215611f8857600080fd5b6000611f9684828501611ef9565b91505092915050565b60008060408385031215611fb257600080fd5b6000611fc085828601611ee4565b9250506020611fd185828601611ee4565b9150509250929050565b600080600060608486031215611ff057600080fd5b6000611ffe86828701611ee4565b935050602061200f86828701611ee4565b925050604061202086828701611f38565b9150509250925092565b600080600080600060a0868803121561204257600080fd5b600061205088828901611ee4565b955050602061206188828901611ee4565b945050604061207288828901611f38565b935050606086013567ffffffffffffffff81111561208f57600080fd5b61209b88828901611f0e565b925050608086013567ffffffffffffffff8111156120b857600080fd5b6120c488828901611f0e565b9150509295509295909350565b600080604083850312156120e457600080fd5b60006120f285828601611ee4565b925050602061210385828601611f38565b9150509250929050565b60008060006060848603121561212257600080fd5b600061213086828701611ee4565b935050602061214186828701611f38565b925050604084013567ffffffffffffffff81111561215e57600080fd5b61216a86828701611f0e565b9150509250925092565b6000806000806080858703121561218a57600080fd5b600061219887828801611ee4565b94505060206121a987828801611f38565b935050604085013567ffffffffffffffff8111156121c657600080fd5b6121d287828801611f0e565b925050606085013567ffffffffffffffff8111156121ef57600080fd5b6121fb87828801611f0e565b91505092959194509250565b6000806040838503121561221a57600080fd5b600061222885828601611f38565b925050602083013567ffffffffffffffff81111561224557600080fd5b61225185828601611f0e565b9150509250929050565b60006122678383612273565b60208301905092915050565b61227c81612a4d565b82525050565b61228b81612a4d565b82525050565b600061229c82612962565b6122a68185612990565b93506122b183612952565b8060005b838110156122e25781516122c9888261225b565b97506122d483612983565b9250506001810190506122b5565b5085935050505092915050565b6122f881612a5f565b82525050565b61230781612a6b565b82525050565b60006123188261296d565b61232281856129a1565b9350612332818560208601612abb565b61233b81612bde565b840191505092915050565b600061235182612978565b61235b81856129b2565b935061236b818560208601612abb565b61237481612bde565b840191505092915050565b600061238c6025836129b2565b915061239782612bef565b604082019050919050565b60006123af6022836129b2565b91506123ba82612c3e565b604082019050919050565b60006123d26027836129b2565b91506123dd82612c8d565b604082019050919050565b60006123f56022836129b2565b915061240082612cdc565b604082019050919050565b60006124186024836129b2565b915061242382612d2b565b604082019050919050565b600061243b6021836129b2565b915061244682612d7a565b604082019050919050565b600061245e6020836129b2565b915061246982612dc9565b602082019050919050565b6000612481604d836129b2565b915061248c82612df2565b606082019050919050565b60006124a46024836129b2565b91506124af82612e67565b604082019050919050565b60006124c7602c836129b2565b91506124d282612eb6565b604082019050919050565b60006124ea6029836129b2565b91506124f582612f05565b604082019050919050565b600061250d6026836129b2565b915061251882612f54565b604082019050919050565b60006125306023836129b2565b915061253b82612fa3565b604082019050919050565b60006125536020836129b2565b915061255e82612ff2565b602082019050919050565b60006125766023836129b2565b91506125818261301b565b604082019050919050565b61259581612a95565b82525050565b6125a481612a9f565b82525050565b600060c0820190506125bf6000830189612282565b6125cc6020830188612282565b6125d96040830187612282565b6125e6606083018661258c565b81810360808301526125f8818561230d565b905081810360a083015261260c818461230d565b9050979650505050505050565b600060408201905061262e6000830185612282565b61263b60208301846122fe565b9392505050565b6000602082019050818103600083015261265c8184612291565b905092915050565b600060208201905061267960008301846122ef565b92915050565b600060208201905081810360008301526126998184612346565b905092915050565b600060208201905081810360008301526126ba8161237f565b9050919050565b600060208201905081810360008301526126da816123a2565b9050919050565b600060208201905081810360008301526126fa816123c5565b9050919050565b6000602082019050818103600083015261271a816123e8565b9050919050565b6000602082019050818103600083015261273a8161240b565b9050919050565b6000602082019050818103600083015261275a8161242e565b9050919050565b6000602082019050818103600083015261277a81612451565b9050919050565b6000602082019050818103600083015261279a81612474565b9050919050565b600060208201905081810360008301526127ba81612497565b9050919050565b600060208201905081810360008301526127da816124ba565b9050919050565b600060208201905081810360008301526127fa816124dd565b9050919050565b6000602082019050818103600083015261281a81612500565b9050919050565b6000602082019050818103600083015261283a81612523565b9050919050565b6000602082019050818103600083015261285a81612546565b9050919050565b6000602082019050818103600083015261287a81612569565b9050919050565b6000602082019050612896600083018461258c565b92915050565b60006060820190506128b1600083018661258c565b81810360208301526128c3818561230d565b905081810360408301526128d7818461230d565b9050949350505050565b60006020820190506128f6600083018461259b565b92915050565b6000612906612917565b90506129128282612b20565b919050565b6000604051905090565b600067ffffffffffffffff82111561293c5761293b612baf565b5b61294582612bde565b9050602081019050919050565b6000819050602082019050919050565b600081519050919050565b600081519050919050565b600081519050919050565b6000602082019050919050565b600082825260208201905092915050565b600082825260208201905092915050565b600082825260208201905092915050565b60006129ce82612a95565b91506129d983612a95565b9250827fffffffffffffffffffffffffffffffffffffffffffffffffffffffffffffffff03821115612a0e57612a0d612b51565b5b828201905092915050565b6000612a2482612a95565b9150612a2f83612a95565b925082821015612a4257612a41612b51565b5b828203905092915050565b6000612a5882612a75565b9050919050565b60008115159050919050565b6000819050919050565b600073ffffffffffffffffffffffffffffffffffffffff82169050919050565b6000819050919050565b600060ff82169050919050565b82818337600083830152505050565b60005b83811015612ad9578082015181840152602081019050612abe565b83811115612ae8576000848401525b50505050565b60006002820490506001821680612b0657607f821691505b60208210811415612b1a57612b19612b80565b5b50919050565b612b2982612bde565b810181811067ffffffffffffffff82111715612b4857612b47612baf565b5b80604052505050565b7f4e487b7100000000000000000000000000000000000000000000000000000000600052601160045260246000fd5b7f4e487b7100000000000000000000000000000000000000000000000000000000600052602260045260246000fd5b7f4e487b7100000000000000000000000000000000000000000000000000000000600052604160045260246000fd5b6000601f19601f8301169050919050565b7f4552433737373a20617070726f76652066726f6d20746865207a65726f20616460008201527f6472657373000000000000000000000000000000000000000000000000000000602082015250565b7f4552433737373a2073656e642066726f6d20746865207a65726f20616464726560008201527f7373000000000000000000000000000000000000000000000000000000000000602082015250565b7f4552433737373a207472616e7366657220616d6f756e7420657863656564732060008201527f62616c616e636500000000000000000000000000000000000000000000000000602082015250565b7f4552433737373a206275726e2066726f6d20746865207a65726f20616464726560008201527f7373000000000000000000000000000000000000000000000000000000000000602082015250565b7f4552433737373a20617574686f72697a696e672073656c66206173206f70657260008201527f61746f7200000000000000000000000000000000000000000000000000000000602082015250565b7f4552433737373a207265766f6b696e672073656c66206173206f70657261746f60008201527f7200000000000000000000000000000000000000000000000000000000000000602082015250565b7f4552433737373a206d696e7420746f20746865207a65726f2061646472657373600082015250565b7f4552433737373a20746f6b656e20726563697069656e7420636f6e747261637460008201527f20686173206e6f20696d706c656d656e74657220666f7220455243373737546f60208201527f6b656e73526563697069656e7400000000000000000000000000000000000000604082015250565b7f4552433737373a207472616e7366657220746f20746865207a65726f2061646460008201527f7265737300000000000000000000000000000000000000000000000000000000602082015250565b7f4552433737373a2063616c6c6572206973206e6f7420616e206f70657261746f60008201527f7220666f7220686f6c6465720000000000000000000000000000000000000000602082015250565b7f4552433737373a207472616e7366657220616d6f756e7420657863656564732060008201527f616c6c6f77616e63650000000000000000000000000000000000000000000000602082015250565b7f4552433737373a207472616e736665722066726f6d20746865207a65726f206160008201527f6464726573730000000000000000000000000000000000000000000000000000602082015250565b7f4552433737373a206275726e20616d6f756e7420657863656564732062616c6160008201527f6e63650000000000000000000000000000000000000000000000000000000000602082015250565b7f4552433737373a2073656e6420746f20746865207a65726f2061646472657373600082015250565b7f4552433737373a20617070726f766520746f20746865207a65726f206164647260008201527f6573730000000000000000000000000000000000000000000000000000000000602082015250565b61307381612a4d565b811461307e57600080fd5b50565b61308a81612a95565b811461309557600080fd5b5056fea2646970667358221220bf68d0ee9f9f3ae9120db48a86c5318cb08133c47e37cb241e92ec7e4fe7d48a64736f6c63430008040033",
  "linkReferences": {},
  "deployedLinkReferences": {}
}