{
  "_format": "hh-sol-artifact-1",
  "contractName": "ERC721PresetMinterPauserAutoIdUpgradeable",
  "sourceName": "contracts/src/OpenZeppelin/upgradeable/token/ERC721/presets/ERC721PresetMinterPauserAutoIdUpgradeable.sol",
  "abi": [
    {
      "anonymous": false,
      "inputs": [
        {
          "indexed": true,
          "internalType": "address",
          "name": "owner",
          "type": "address"
        },
        {
          "indexed": true,
          "internalType": "address",
          "name": "approved",
          "type": "address"
        },
        {
          "indexed": true,
          "internalType": "uint256",
          "name": "tokenId",
          "type": "uint256"
        }
      ],
      "name": "Approval",
      "type": "event"
    },
    {
      "anonymous": false,
      "inputs": [
        {
          "indexed": true,
          "internalType": "address",
          "name": "owner",
          "type": "address"
        },
        {
          "indexed": true,
          "internalType": "address",
          "name": "operator",
          "type": "address"
        },
        {
          "indexed": false,
          "internalType": "bool",
          "name": "approved",
          "type": "bool"
        }
      ],
      "name": "ApprovalForAll",
      "type": "event"
    },
    {
      "anonymous": false,
      "inputs": [
        {
          "indexed": false,
          "internalType": "address",
          "name": "account",
          "type": "address"
        }
      ],
      "name": "Paused",
      "type": "event"
    },
    {
      "anonymous": false,
      "inputs": [
        {
          "indexed": true,
          "internalType": "bytes32",
          "name": "role",
          "type": "bytes32"
        },
        {
          "indexed": true,
          "internalType": "bytes32",
          "name": "previousAdminRole",
          "type": "bytes32"
        },
        {
          "indexed": true,
          "internalType": "bytes32",
          "name": "newAdminRole",
          "type": "bytes32"
        }
      ],
      "name": "RoleAdminChanged",
      "type": "event"
    },
    {
      "anonymous": false,
      "inputs": [
        {
          "indexed": true,
          "internalType": "bytes32",
          "name": "role",
          "type": "bytes32"
        },
        {
          "indexed": true,
          "internalType": "address",
          "name": "account",
          "type": "address"
        },
        {
          "indexed": true,
          "internalType": "address",
          "name": "sender",
          "type": "address"
        }
      ],
      "name": "RoleGranted",
      "type": "event"
    },
    {
      "anonymous": false,
      "inputs": [
        {
          "indexed": true,
          "internalType": "bytes32",
          "name": "role",
          "type": "bytes32"
        },
        {
          "indexed": true,
          "internalType": "address",
          "name": "account",
          "type": "address"
        },
        {
          "indexed": true,
          "internalType": "address",
          "name": "sender",
          "type": "address"
        }
      ],
      "name": "RoleRevoked",
      "type": "event"
    },
    {
      "anonymous": false,
      "inputs": [
        {
          "indexed": true,
          "internalType": "address",
          "name": "from",
          "type": "address"
        },
        {
          "indexed": true,
          "internalType": "address",
          "name": "to",
          "type": "address"
        },
        {
          "indexed": true,
          "internalType": "uint256",
          "name": "tokenId",
          "type": "uint256"
        }
      ],
      "name": "Transfer",
      "type": "event"
    },
    {
      "anonymous": false,
      "inputs": [
        {
          "indexed": false,
          "internalType": "address",
          "name": "account",
          "type": "address"
        }
      ],
      "name": "Unpaused",
      "type": "event"
    },
    {
      "inputs": [],
      "name": "DEFAULT_ADMIN_ROLE",
      "outputs": [
        {
          "internalType": "bytes32",
          "name": "",
          "type": "bytes32"
        }
      ],
      "stateMutability": "view",
      "type": "function"
    },
    {
      "inputs": [],
      "name": "MINTER_ROLE",
      "outputs": [
        {
          "internalType": "bytes32",
          "name": "",
          "type": "bytes32"
        }
      ],
      "stateMutability": "view",
      "type": "function"
    },
    {
      "inputs": [],
      "name": "PAUSER_ROLE",
      "outputs": [
        {
          "internalType": "bytes32",
          "name": "",
          "type": "bytes32"
        }
      ],
      "stateMutability": "view",
      "type": "function"
    },
    {
      "inputs": [
        {
          "internalType": "address",
          "name": "to",
          "type": "address"
        },
        {
          "internalType": "uint256",
          "name": "tokenId",
          "type": "uint256"
        }
      ],
      "name": "approve",
      "outputs": [],
      "stateMutability": "nonpayable",
      "type": "function"
    },
    {
      "inputs": [
        {
          "internalType": "address",
          "name": "owner",
          "type": "address"
        }
      ],
      "name": "balanceOf",
      "outputs": [
        {
          "internalType": "uint256",
          "name": "",
          "type": "uint256"
        }
      ],
      "stateMutability": "view",
      "type": "function"
    },
    {
      "inputs": [
        {
          "internalType": "uint256",
          "name": "tokenId",
          "type": "uint256"
        }
      ],
      "name": "burn",
      "outputs": [],
      "stateMutability": "nonpayable",
      "type": "function"
    },
    {
      "inputs": [
        {
          "internalType": "uint256",
          "name": "tokenId",
          "type": "uint256"
        }
      ],
      "name": "getApproved",
      "outputs": [
        {
          "internalType": "address",
          "name": "",
          "type": "address"
        }
      ],
      "stateMutability": "view",
      "type": "function"
    },
    {
      "inputs": [
        {
          "internalType": "bytes32",
          "name": "role",
          "type": "bytes32"
        }
      ],
      "name": "getRoleAdmin",
      "outputs": [
        {
          "internalType": "bytes32",
          "name": "",
          "type": "bytes32"
        }
      ],
      "stateMutability": "view",
      "type": "function"
    },
    {
      "inputs": [
        {
          "internalType": "bytes32",
          "name": "role",
          "type": "bytes32"
        },
        {
          "internalType": "uint256",
          "name": "index",
          "type": "uint256"
        }
      ],
      "name": "getRoleMember",
      "outputs": [
        {
          "internalType": "address",
          "name": "",
          "type": "address"
        }
      ],
      "stateMutability": "view",
      "type": "function"
    },
    {
      "inputs": [
        {
          "internalType": "bytes32",
          "name": "role",
          "type": "bytes32"
        }
      ],
      "name": "getRoleMemberCount",
      "outputs": [
        {
          "internalType": "uint256",
          "name": "",
          "type": "uint256"
        }
      ],
      "stateMutability": "view",
      "type": "function"
    },
    {
      "inputs": [
        {
          "internalType": "bytes32",
          "name": "role",
          "type": "bytes32"
        },
        {
          "internalType": "address",
          "name": "account",
          "type": "address"
        }
      ],
      "name": "grantRole",
      "outputs": [],
      "stateMutability": "nonpayable",
      "type": "function"
    },
    {
      "inputs": [
        {
          "internalType": "bytes32",
          "name": "role",
          "type": "bytes32"
        },
        {
          "internalType": "address",
          "name": "account",
          "type": "address"
        }
      ],
      "name": "hasRole",
      "outputs": [
        {
          "internalType": "bool",
          "name": "",
          "type": "bool"
        }
      ],
      "stateMutability": "view",
      "type": "function"
    },
    {
      "inputs": [
        {
          "internalType": "string",
          "name": "name",
          "type": "string"
        },
        {
          "internalType": "string",
          "name": "symbol",
          "type": "string"
        },
        {
          "internalType": "string",
          "name": "baseTokenURI",
          "type": "string"
        }
      ],
      "name": "initialize",
      "outputs": [],
      "stateMutability": "nonpayable",
      "type": "function"
    },
    {
      "inputs": [
        {
          "internalType": "address",
          "name": "owner",
          "type": "address"
        },
        {
          "internalType": "address",
          "name": "operator",
          "type": "address"
        }
      ],
      "name": "isApprovedForAll",
      "outputs": [
        {
          "internalType": "bool",
          "name": "",
          "type": "bool"
        }
      ],
      "stateMutability": "view",
      "type": "function"
    },
    {
      "inputs": [
        {
          "internalType": "address",
          "name": "to",
          "type": "address"
        }
      ],
      "name": "mint",
      "outputs": [],
      "stateMutability": "nonpayable",
      "type": "function"
    },
    {
      "inputs": [],
      "name": "name",
      "outputs": [
        {
          "internalType": "string",
          "name": "",
          "type": "string"
        }
      ],
      "stateMutability": "view",
      "type": "function"
    },
    {
      "inputs": [
        {
          "internalType": "uint256",
          "name": "tokenId",
          "type": "uint256"
        }
      ],
      "name": "ownerOf",
      "outputs": [
        {
          "internalType": "address",
          "name": "",
          "type": "address"
        }
      ],
      "stateMutability": "view",
      "type": "function"
    },
    {
      "inputs": [],
      "name": "pause",
      "outputs": [],
      "stateMutability": "nonpayable",
      "type": "function"
    },
    {
      "inputs": [],
      "name": "paused",
      "outputs": [
        {
          "internalType": "bool",
          "name": "",
          "type": "bool"
        }
      ],
      "stateMutability": "view",
      "type": "function"
    },
    {
      "inputs": [
        {
          "internalType": "bytes32",
          "name": "role",
          "type": "bytes32"
        },
        {
          "internalType": "address",
          "name": "account",
          "type": "address"
        }
      ],
      "name": "renounceRole",
      "outputs": [],
      "stateMutability": "nonpayable",
      "type": "function"
    },
    {
      "inputs": [
        {
          "internalType": "bytes32",
          "name": "role",
          "type": "bytes32"
        },
        {
          "internalType": "address",
          "name": "account",
          "type": "address"
        }
      ],
      "name": "revokeRole",
      "outputs": [],
      "stateMutability": "nonpayable",
      "type": "function"
    },
    {
      "inputs": [
        {
          "internalType": "address",
          "name": "from",
          "type": "address"
        },
        {
          "internalType": "address",
          "name": "to",
          "type": "address"
        },
        {
          "internalType": "uint256",
          "name": "tokenId",
          "type": "uint256"
        }
      ],
      "name": "safeTransferFrom",
      "outputs": [],
      "stateMutability": "nonpayable",
      "type": "function"
    },
    {
      "inputs": [
        {
          "internalType": "address",
          "name": "from",
          "type": "address"
        },
        {
          "internalType": "address",
          "name": "to",
          "type": "address"
        },
        {
          "internalType": "uint256",
          "name": "tokenId",
          "type": "uint256"
        },
        {
          "internalType": "bytes",
          "name": "_data",
          "type": "bytes"
        }
      ],
      "name": "safeTransferFrom",
      "outputs": [],
      "stateMutability": "nonpayable",
      "type": "function"
    },
    {
      "inputs": [
        {
          "internalType": "address",
          "name": "operator",
          "type": "address"
        },
        {
          "internalType": "bool",
          "name": "approved",
          "type": "bool"
        }
      ],
      "name": "setApprovalForAll",
      "outputs": [],
      "stateMutability": "nonpayable",
      "type": "function"
    },
    {
      "inputs": [
        {
          "internalType": "bytes4",
          "name": "interfaceId",
          "type": "bytes4"
        }
      ],
      "name": "supportsInterface",
      "outputs": [
        {
          "internalType": "bool",
          "name": "",
          "type": "bool"
        }
      ],
      "stateMutability": "view",
      "type": "function"
    },
    {
      "inputs": [],
      "name": "symbol",
      "outputs": [
        {
          "internalType": "string",
          "name": "",
          "type": "string"
        }
      ],
      "stateMutability": "view",
      "type": "function"
    },
    {
      "inputs": [
        {
          "internalType": "uint256",
          "name": "index",
          "type": "uint256"
        }
      ],
      "name": "tokenByIndex",
      "outputs": [
        {
          "internalType": "uint256",
          "name": "",
          "type": "uint256"
        }
      ],
      "stateMutability": "view",
      "type": "function"
    },
    {
      "inputs": [
        {
          "internalType": "address",
          "name": "owner",
          "type": "address"
        },
        {
          "internalType": "uint256",
          "name": "index",
          "type": "uint256"
        }
      ],
      "name": "tokenOfOwnerByIndex",
      "outputs": [
        {
          "internalType": "uint256",
          "name": "",
          "type": "uint256"
        }
      ],
      "stateMutability": "view",
      "type": "function"
    },
    {
      "inputs": [
        {
          "internalType": "uint256",
          "name": "tokenId",
          "type": "uint256"
        }
      ],
      "name": "tokenURI",
      "outputs": [
        {
          "internalType": "string",
          "name": "",
          "type": "string"
        }
      ],
      "stateMutability": "view",
      "type": "function"
    },
    {
      "inputs": [],
      "name": "totalSupply",
      "outputs": [
        {
          "internalType": "uint256",
          "name": "",
          "type": "uint256"
        }
      ],
      "stateMutability": "view",
      "type": "function"
    },
    {
      "inputs": [
        {
          "internalType": "address",
          "name": "from",
          "type": "address"
        },
        {
          "internalType": "address",
          "name": "to",
          "type": "address"
        },
        {
          "internalType": "uint256",
          "name": "tokenId",
          "type": "uint256"
        }
      ],
      "name": "transferFrom",
      "outputs": [],
      "stateMutability": "nonpayable",
      "type": "function"
    },
    {
      "inputs": [],
      "name": "unpause",
      "outputs": [],
      "stateMutability": "nonpayable",
      "type": "function"
    }
  ],
  "bytecode": "0x608060405234801561001057600080fd5b506157d080620000216000396000f3fe608060405234801561001057600080fd5b50600436106101f05760003560e01c80636a6278421161010f578063a6487c53116100a2578063d539139311610071578063d5391393146105c7578063d547741f146105e5578063e63ab1e914610601578063e985e9c51461061f576101f0565b8063a6487c531461052f578063b88d4fde1461054b578063c87b56dd14610567578063ca15c87314610597576101f0565b806391d14854116100de57806391d14854146104a757806395d89b41146104d7578063a217fddf146104f5578063a22cb46514610513576101f0565b80636a6278421461042157806370a082311461043d5780638456cb591461046d5780639010d07c14610477576101f0565b80632f745c591161018757806342966c681161015657806342966c68146103875780634f6ccce7146103a35780635c975abb146103d35780636352211e146103f1576101f0565b80632f745c591461031557806336568abe146103455780633f4ba83a1461036157806342842e0e1461036b576101f0565b806318160ddd116101c357806318160ddd1461028f57806323b872dd146102ad578063248a9ca3146102c95780632f2ff15d146102f9576101f0565b806301ffc9a7146101f557806306fdde0314610225578063081812fc14610243578063095ea7b314610273575b600080fd5b61020f600480360381019061020a9190614103565b61064f565b60405161021c919061478d565b60405180910390f35b61022d610661565b60405161023a91906147c3565b60405180910390f35b61025d600480360381019061025891906141ec565b6106f3565b60405161026a9190614726565b60405180910390f35b61028d60048036038101906102889190614026565b610778565b005b610297610890565b6040516102a49190614b25565b60405180910390f35b6102c760048036038101906102c29190613f20565b61089d565b005b6102e360048036038101906102de9190614062565b6108fd565b6040516102f091906147a8565b60405180910390f35b610313600480360381019061030e919061408b565b61091d565b005b61032f600480360381019061032a9190614026565b610951565b60405161033c9190614b25565b60405180910390f35b61035f600480360381019061035a919061408b565b6109f6565b005b610369610a2a565b005b61038560048036038101906103809190613f20565b610aa4565b005b6103a1600480360381019061039c91906141ec565b610ac4565b005b6103bd60048036038101906103b891906141ec565b610b20565b6040516103ca9190614b25565b60405180910390f35b6103db610bb7565b6040516103e8919061478d565b60405180910390f35b61040b600480360381019061040691906141ec565b610bcf565b6040516104189190614726565b60405180910390f35b61043b60048036038101906104369190613ebb565b610c81565b005b61045760048036038101906104529190613ebb565b610d13565b6040516104649190614b25565b60405180910390f35b610475610dcb565b005b610491600480360381019061048c91906140c7565b610e45565b60405161049e9190614726565b60405180910390f35b6104c160048036038101906104bc919061408b565b610e74565b6040516104ce919061478d565b60405180910390f35b6104df610edf565b6040516104ec91906147c3565b60405180910390f35b6104fd610f71565b60405161050a91906147a8565b60405180910390f35b61052d60048036038101906105289190613fea565b610f78565b005b61054960048036038101906105449190614155565b6110f9565b005b61056560048036038101906105609190613f6f565b6111e0565b005b610581600480360381019061057c91906141ec565b611242565b60405161058e91906147c3565b60405180910390f35b6105b160048036038101906105ac9190614062565b6112e9565b6040516105be9190614b25565b60405180910390f35b6105cf61130d565b6040516105dc91906147a8565b60405180910390f35b6105ff60048036038101906105fa919061408b565b611331565b005b610609611365565b60405161061691906147a8565b60405180910390f35b61063960048036038101906106349190613ee4565b611389565b604051610646919061478d565b60405180910390f35b600061065a8261141d565b9050919050565b606060c9805461067090614e09565b80601f016020809104026020016040519081016040528092919081815260200182805461069c90614e09565b80156106e95780601f106106be576101008083540402835291602001916106e9565b820191906000526020600020905b8154815290600101906020018083116106cc57829003601f168201915b5050505050905090565b60006106fe82611497565b61073d576040517f08c379a0000000000000000000000000000000000000000000000000000000008152600401610734906149e5565b60405180910390fd5b60cd600083815260200190815260200160002060009054906101000a900473ffffffffffffffffffffffffffffffffffffffff169050919050565b600061078382610bcf565b90508073ffffffffffffffffffffffffffffffffffffffff168373ffffffffffffffffffffffffffffffffffffffff1614156107f4576040517f08c379a00000000000000000000000000000000000000000000000000000000081526004016107eb90614a45565b60405180910390fd5b8073ffffffffffffffffffffffffffffffffffffffff16610813611503565b73ffffffffffffffffffffffffffffffffffffffff16148061084257506108418161083c611503565b611389565b5b610881576040517f08c379a000000000000000000000000000000000000000000000000000000000815260040161087890614945565b60405180910390fd5b61088b838361150b565b505050565b600060fd80549050905090565b6108ae6108a8611503565b826115c4565b6108ed576040517f08c379a00000000000000000000000000000000000000000000000000000000081526004016108e490614a65565b60405180910390fd5b6108f88383836116a2565b505050565b600060656000838152602001908152602001600020600101549050919050565b61092782826118fe565b61094c816097600085815260200190815260200160002061192790919063ffffffff16565b505050565b600061095c83610d13565b821061099d576040517f08c379a000000000000000000000000000000000000000000000000000000000815260040161099490614845565b60405180910390fd5b60fb60008473ffffffffffffffffffffffffffffffffffffffff1673ffffffffffffffffffffffffffffffffffffffff168152602001908152602001600020600083815260200190815260200160002054905092915050565b610a008282611957565b610a2581609760008581526020019081526020016000206119da90919063ffffffff16565b505050565b610a5b7f65d7a28e3265b37a6474929f336521b332c1681b933f6cb9f3376673440d862a610a56611503565b610e74565b610a9a576040517f08c379a0000000000000000000000000000000000000000000000000000000008152600401610a9190614ae5565b60405180910390fd5b610aa2611a0a565b565b610abf838383604051806020016040528060008152506111e0565b505050565b610ad5610acf611503565b826115c4565b610b14576040517f08c379a0000000000000000000000000000000000000000000000000000000008152600401610b0b90614ac5565b60405180910390fd5b610b1d81611aad565b50565b6000610b2a610890565b8210610b6b576040517f08c379a0000000000000000000000000000000000000000000000000000000008152600401610b6290614a85565b60405180910390fd5b60fd8281548110610ba5577f4e487b7100000000000000000000000000000000000000000000000000000000600052603260045260246000fd5b90600052602060002001549050919050565b600061015f60009054906101000a900460ff16905090565b60008060cb600084815260200190815260200160002060009054906101000a900473ffffffffffffffffffffffffffffffffffffffff169050600073ffffffffffffffffffffffffffffffffffffffff168173ffffffffffffffffffffffffffffffffffffffff161415610c78576040517f08c379a0000000000000000000000000000000000000000000000000000000008152600401610c6f90614985565b60405180910390fd5b80915050919050565b610cb27f9f2df0fed2c77648de5860a4cc508cd0818c85b8b8a1ab4ceeef8d981c8956a6610cad611503565b610e74565b610cf1576040517f08c379a0000000000000000000000000000000000000000000000000000000008152600401610ce890614aa5565b60405180910390fd5b610d0581610d006101c3611bbe565b611bcc565b610d106101c3611d9a565b50565b60008073ffffffffffffffffffffffffffffffffffffffff168273ffffffffffffffffffffffffffffffffffffffff161415610d84576040517f08c379a0000000000000000000000000000000000000000000000000000000008152600401610d7b90614965565b60405180910390fd5b60cc60008373ffffffffffffffffffffffffffffffffffffffff1673ffffffffffffffffffffffffffffffffffffffff168152602001908152602001600020549050919050565b610dfc7f65d7a28e3265b37a6474929f336521b332c1681b933f6cb9f3376673440d862a610df7611503565b610e74565b610e3b576040517f08c379a0000000000000000000000000000000000000000000000000000000008152600401610e32906148a5565b60405180910390fd5b610e43611db0565b565b6000610e6c8260976000868152602001908152602001600020611e5490919063ffffffff16565b905092915050565b60006065600084815260200190815260200160002060000160008373ffffffffffffffffffffffffffffffffffffffff1673ffffffffffffffffffffffffffffffffffffffff16815260200190815260200160002060009054906101000a900460ff16905092915050565b606060ca8054610eee90614e09565b80601f0160208091040260200160405190810160405280929190818152602001828054610f1a90614e09565b8015610f675780601f10610f3c57610100808354040283529160200191610f67565b820191906000526020600020905b815481529060010190602001808311610f4a57829003601f168201915b5050505050905090565b6000801b81565b610f80611503565b73ffffffffffffffffffffffffffffffffffffffff168273ffffffffffffffffffffffffffffffffffffffff161415610fee576040517f08c379a0000000000000000000000000000000000000000000000000000000008152600401610fe5906148e5565b60405180910390fd5b8060ce6000610ffb611503565b73ffffffffffffffffffffffffffffffffffffffff1673ffffffffffffffffffffffffffffffffffffffff16815260200190815260200160002060008473ffffffffffffffffffffffffffffffffffffffff1673ffffffffffffffffffffffffffffffffffffffff16815260200190815260200160002060006101000a81548160ff0219169083151502179055508173ffffffffffffffffffffffffffffffffffffffff166110a8611503565b73ffffffffffffffffffffffffffffffffffffffff167f17307eab39ab6107e8899845ad3d59bd9653f200f220920489ca2b5937696c31836040516110ed919061478d565b60405180910390a35050565b600060019054906101000a900460ff168061111f575060008054906101000a900460ff16155b61115e576040517f08c379a0000000000000000000000000000000000000000000000000000000008152600401611155906149a5565b60405180910390fd5b60008060019054906101000a900460ff1615905080156111ae576001600060016101000a81548160ff02191690831515021790555060016000806101000a81548160ff0219169083151502179055505b6111b9848484611e6e565b80156111da5760008060016101000a81548160ff0219169083151502179055505b50505050565b6111f16111eb611503565b836115c4565b611230576040517f08c379a000000000000000000000000000000000000000000000000000000000815260040161122790614a65565b60405180910390fd5b61123c84848484611f9f565b50505050565b606061124d82611497565b61128c576040517f08c379a000000000000000000000000000000000000000000000000000000000815260040161128390614a25565b60405180910390fd5b6000611296611ffb565b905060008151116112b657604051806020016040528060008152506112e1565b806112c08461208e565b6040516020016112d19291906146c8565b6040516020818303038152906040525b915050919050565b60006113066097600084815260200190815260200160002061223b565b9050919050565b7f9f2df0fed2c77648de5860a4cc508cd0818c85b8b8a1ab4ceeef8d981c8956a681565b61133b8282612250565b61136081609760008581526020019081526020016000206119da90919063ffffffff16565b505050565b7f65d7a28e3265b37a6474929f336521b332c1681b933f6cb9f3376673440d862a81565b600060ce60008473ffffffffffffffffffffffffffffffffffffffff1673ffffffffffffffffffffffffffffffffffffffff16815260200190815260200160002060008373ffffffffffffffffffffffffffffffffffffffff1673ffffffffffffffffffffffffffffffffffffffff16815260200190815260200160002060009054906101000a900460ff16905092915050565b60007f780e9d63000000000000000000000000000000000000000000000000000000007bffffffffffffffffffffffffffffffffffffffffffffffffffffffff1916827bffffffffffffffffffffffffffffffffffffffffffffffffffffffff19161480611490575061148f82612279565b5b9050919050565b60008073ffffffffffffffffffffffffffffffffffffffff1660cb600084815260200190815260200160002060009054906101000a900473ffffffffffffffffffffffffffffffffffffffff1673ffffffffffffffffffffffffffffffffffffffff1614159050919050565b600033905090565b8160cd600083815260200190815260200160002060006101000a81548173ffffffffffffffffffffffffffffffffffffffff021916908373ffffffffffffffffffffffffffffffffffffffff160217905550808273ffffffffffffffffffffffffffffffffffffffff1661157e83610bcf565b73ffffffffffffffffffffffffffffffffffffffff167f8c5be1e5ebec7d5bd14f71427d1e84f3dd0314c0f7b2291e5b200ac8c7c3b92560405160405180910390a45050565b60006115cf82611497565b61160e576040517f08c379a000000000000000000000000000000000000000000000000000000000815260040161160590614905565b60405180910390fd5b600061161983610bcf565b90508073ffffffffffffffffffffffffffffffffffffffff168473ffffffffffffffffffffffffffffffffffffffff16148061168857508373ffffffffffffffffffffffffffffffffffffffff16611670846106f3565b73ffffffffffffffffffffffffffffffffffffffff16145b8061169957506116988185611389565b5b91505092915050565b8273ffffffffffffffffffffffffffffffffffffffff166116c282610bcf565b73ffffffffffffffffffffffffffffffffffffffff1614611718576040517f08c379a000000000000000000000000000000000000000000000000000000000815260040161170f90614a05565b60405180910390fd5b600073ffffffffffffffffffffffffffffffffffffffff168273ffffffffffffffffffffffffffffffffffffffff161415611788576040517f08c379a000000000000000000000000000000000000000000000000000000000815260040161177f906148c5565b60405180910390fd5b61179383838361235b565b61179e60008261150b565b600160cc60008573ffffffffffffffffffffffffffffffffffffffff1673ffffffffffffffffffffffffffffffffffffffff16815260200190815260200160002060008282546117ee9190614ceb565b92505081905550600160cc60008473ffffffffffffffffffffffffffffffffffffffff1673ffffffffffffffffffffffffffffffffffffffff16815260200190815260200160002060008282546118459190614c0a565b925050819055508160cb600083815260200190815260200160002060006101000a81548173ffffffffffffffffffffffffffffffffffffffff021916908373ffffffffffffffffffffffffffffffffffffffff160217905550808273ffffffffffffffffffffffffffffffffffffffff168473ffffffffffffffffffffffffffffffffffffffff167fddf252ad1be2c89b69c2b068fc378daa952ba7f163c4a11628f55a4df523b3ef60405160405180910390a4505050565b611907826108fd565b61191881611913611503565b61236b565b6119228383612408565b505050565b600061194f836000018373ffffffffffffffffffffffffffffffffffffffff1660001b6124e9565b905092915050565b61195f611503565b73ffffffffffffffffffffffffffffffffffffffff168173ffffffffffffffffffffffffffffffffffffffff16146119cc576040517f08c379a00000000000000000000000000000000000000000000000000000000081526004016119c390614b05565b60405180910390fd5b6119d68282612559565b5050565b6000611a02836000018373ffffffffffffffffffffffffffffffffffffffff1660001b61263b565b905092915050565b611a12610bb7565b611a51576040517f08c379a0000000000000000000000000000000000000000000000000000000008152600401611a4890614825565b60405180910390fd5b600061015f60006101000a81548160ff0219169083151502179055507f5db9ee0a495bf2e6ff9c91a7834c1ba4fdd244a5e8aa4e537bd38aeae4b073aa611a96611503565b604051611aa39190614726565b60405180910390a1565b6000611ab882610bcf565b9050611ac68160008461235b565b611ad160008361150b565b600160cc60008373ffffffffffffffffffffffffffffffffffffffff1673ffffffffffffffffffffffffffffffffffffffff1681526020019081526020016000206000828254611b219190614ceb565b9250508190555060cb600083815260200190815260200160002060006101000a81549073ffffffffffffffffffffffffffffffffffffffff021916905581600073ffffffffffffffffffffffffffffffffffffffff168273ffffffffffffffffffffffffffffffffffffffff167fddf252ad1be2c89b69c2b068fc378daa952ba7f163c4a11628f55a4df523b3ef60405160405180910390a45050565b600081600001549050919050565b600073ffffffffffffffffffffffffffffffffffffffff168273ffffffffffffffffffffffffffffffffffffffff161415611c3c576040517f08c379a0000000000000000000000000000000000000000000000000000000008152600401611c33906149c5565b60405180910390fd5b611c4581611497565b15611c85576040517f08c379a0000000000000000000000000000000000000000000000000000000008152600401611c7c90614885565b60405180910390fd5b611c916000838361235b565b600160cc60008473ffffffffffffffffffffffffffffffffffffffff1673ffffffffffffffffffffffffffffffffffffffff1681526020019081526020016000206000828254611ce19190614c0a565b925050819055508160cb600083815260200190815260200160002060006101000a81548173ffffffffffffffffffffffffffffffffffffffff021916908373ffffffffffffffffffffffffffffffffffffffff160217905550808273ffffffffffffffffffffffffffffffffffffffff16600073ffffffffffffffffffffffffffffffffffffffff167fddf252ad1be2c89b69c2b068fc378daa952ba7f163c4a11628f55a4df523b3ef60405160405180910390a45050565b6001816000016000828254019250508190555050565b611db8610bb7565b15611df8576040517f08c379a0000000000000000000000000000000000000000000000000000000008152600401611def90614925565b60405180910390fd5b600161015f60006101000a81548160ff0219169083151502179055507f62e78cea01bee320cd4e420270b5ea74000d11b0c9f74754ebdbfc544b05a258611e3d611503565b604051611e4a9190614726565b60405180910390a1565b6000611e6383600001836127c1565b60001c905092915050565b600060019054906101000a900460ff1680611e94575060008054906101000a900460ff16155b611ed3576040517f08c379a0000000000000000000000000000000000000000000000000000000008152600401611eca906149a5565b60405180910390fd5b60008060019054906101000a900460ff161590508015611f23576001600060016101000a81548160ff02191690831515021790555060016000806101000a81548160ff0219169083151502179055505b611f2b612812565b611f336128eb565b611f3b6129c4565b611f43612a9d565b611f4d8484612b76565b611f55612c7f565b611f5d612d58565b611f65612e31565b611f6d612f26565b611f78848484612fff565b8015611f995760008060016101000a81548160ff0219169083151502179055505b50505050565b611faa8484846116a2565b611fb684848484613169565b611ff5576040517f08c379a0000000000000000000000000000000000000000000000000000000008152600401611fec90614865565b60405180910390fd5b50505050565b60606101c4805461200b90614e09565b80601f016020809104026020016040519081016040528092919081815260200182805461203790614e09565b80156120845780601f1061205957610100808354040283529160200191612084565b820191906000526020600020905b81548152906001019060200180831161206757829003601f168201915b5050505050905090565b606060008214156120d6576040518060400160405280600181526020017f30000000000000000000000000000000000000000000000000000000000000008152509050612236565b600082905060005b600082146121085780806120f190614e6c565b915050600a826121019190614c60565b91506120de565b60008167ffffffffffffffff81111561214a577f4e487b7100000000000000000000000000000000000000000000000000000000600052604160045260246000fd5b6040519080825280601f01601f19166020018201604052801561217c5781602001600182028036833780820191505090505b5090505b6000851461222f576001826121959190614ceb565b9150600a856121a49190614eb5565b60306121b09190614c0a565b60f81b8183815181106121ec577f4e487b7100000000000000000000000000000000000000000000000000000000600052603260045260246000fd5b60200101907effffffffffffffffffffffffffffffffffffffffffffffffffffffffffffff1916908160001a905350600a856122289190614c60565b9450612180565b8093505050505b919050565b600061224982600001613300565b9050919050565b612259826108fd565b61226a81612265611503565b61236b565b6122748383612559565b505050565b60007f80ac58cd000000000000000000000000000000000000000000000000000000007bffffffffffffffffffffffffffffffffffffffffffffffffffffffff1916827bffffffffffffffffffffffffffffffffffffffffffffffffffffffff1916148061234457507f5b5e139f000000000000000000000000000000000000000000000000000000007bffffffffffffffffffffffffffffffffffffffffffffffffffffffff1916827bffffffffffffffffffffffffffffffffffffffffffffffffffffffff1916145b80612354575061235382613311565b5b9050919050565b61236683838361338b565b505050565b6123758282610e74565b6124045761239a8173ffffffffffffffffffffffffffffffffffffffff1660146133e3565b6123a88360001c60206133e3565b6040516020016123b99291906146ec565b6040516020818303038152906040526040517f08c379a00000000000000000000000000000000000000000000000000000000081526004016123fb91906147c3565b60405180910390fd5b5050565b6124128282610e74565b6124e55760016065600084815260200190815260200160002060000160008373ffffffffffffffffffffffffffffffffffffffff1673ffffffffffffffffffffffffffffffffffffffff16815260200190815260200160002060006101000a81548160ff02191690831515021790555061248a611503565b73ffffffffffffffffffffffffffffffffffffffff168173ffffffffffffffffffffffffffffffffffffffff16837f2f8788117e7eff1d82e926ec794901d17c78024a50270940304540a733656f0d60405160405180910390a45b5050565b60006124f583836136dd565b61254e578260000182908060018154018082558091505060019003906000526020600020016000909190919091505582600001805490508360010160008481526020019081526020016000208190555060019050612553565b600090505b92915050565b6125638282610e74565b156126375760006065600084815260200190815260200160002060000160008373ffffffffffffffffffffffffffffffffffffffff1673ffffffffffffffffffffffffffffffffffffffff16815260200190815260200160002060006101000a81548160ff0219169083151502179055506125dc611503565b73ffffffffffffffffffffffffffffffffffffffff168173ffffffffffffffffffffffffffffffffffffffff16837ff6391f5c32d9c69d2a47ea670b442974b53935d1edc7fd64eb21e047a839171b60405160405180910390a45b5050565b600080836001016000848152602001908152602001600020549050600081146127b557600060018261266d9190614ceb565b90506000600186600001805490506126859190614ceb565b90508181146127405760008660000182815481106126cc577f4e487b7100000000000000000000000000000000000000000000000000000000600052603260045260246000fd5b9060005260206000200154905080876000018481548110612716577f4e487b7100000000000000000000000000000000000000000000000000000000600052603260045260246000fd5b90600052602060002001819055508387600101600083815260200190815260200160002081905550505b8560000180548061277a577f4e487b7100000000000000000000000000000000000000000000000000000000600052603160045260246000fd5b6001900381819060005260206000200160009055905585600101600086815260200190815260200160002060009055600193505050506127bb565b60009150505b92915050565b60008260000182815481106127ff577f4e487b7100000000000000000000000000000000000000000000000000000000600052603260045260246000fd5b9060005260206000200154905092915050565b600060019054906101000a900460ff1680612838575060008054906101000a900460ff16155b612877576040517f08c379a000000000000000000000000000000000000000000000000000000000815260040161286e906149a5565b60405180910390fd5b60008060019054906101000a900460ff1615905080156128c7576001600060016101000a81548160ff02191690831515021790555060016000806101000a81548160ff0219169083151502179055505b80156128e85760008060016101000a81548160ff0219169083151502179055505b50565b600060019054906101000a900460ff1680612911575060008054906101000a900460ff16155b612950576040517f08c379a0000000000000000000000000000000000000000000000000000000008152600401612947906149a5565b60405180910390fd5b60008060019054906101000a900460ff1615905080156129a0576001600060016101000a81548160ff02191690831515021790555060016000806101000a81548160ff0219169083151502179055505b80156129c15760008060016101000a81548160ff0219169083151502179055505b50565b600060019054906101000a900460ff16806129ea575060008054906101000a900460ff16155b612a29576040517f08c379a0000000000000000000000000000000000000000000000000000000008152600401612a20906149a5565b60405180910390fd5b60008060019054906101000a900460ff161590508015612a79576001600060016101000a81548160ff02191690831515021790555060016000806101000a81548160ff0219169083151502179055505b8015612a9a5760008060016101000a81548160ff0219169083151502179055505b50565b600060019054906101000a900460ff1680612ac3575060008054906101000a900460ff16155b612b02576040517f08c379a0000000000000000000000000000000000000000000000000000000008152600401612af9906149a5565b60405180910390fd5b60008060019054906101000a900460ff161590508015612b52576001600060016101000a81548160ff02191690831515021790555060016000806101000a81548160ff0219169083151502179055505b8015612b735760008060016101000a81548160ff0219169083151502179055505b50565b600060019054906101000a900460ff1680612b9c575060008054906101000a900460ff16155b612bdb576040517f08c379a0000000000000000000000000000000000000000000000000000000008152600401612bd2906149a5565b60405180910390fd5b60008060019054906101000a900460ff161590508015612c2b576001600060016101000a81548160ff02191690831515021790555060016000806101000a81548160ff0219169083151502179055505b8260c99080519060200190612c41929190613cca565b508160ca9080519060200190612c58929190613cca565b508015612c7a5760008060016101000a81548160ff0219169083151502179055505b505050565b600060019054906101000a900460ff1680612ca5575060008054906101000a900460ff16155b612ce4576040517f08c379a0000000000000000000000000000000000000000000000000000000008152600401612cdb906149a5565b60405180910390fd5b60008060019054906101000a900460ff161590508015612d34576001600060016101000a81548160ff02191690831515021790555060016000806101000a81548160ff0219169083151502179055505b8015612d555760008060016101000a81548160ff0219169083151502179055505b50565b600060019054906101000a900460ff1680612d7e575060008054906101000a900460ff16155b612dbd576040517f08c379a0000000000000000000000000000000000000000000000000000000008152600401612db4906149a5565b60405180910390fd5b60008060019054906101000a900460ff161590508015612e0d576001600060016101000a81548160ff02191690831515021790555060016000806101000a81548160ff0219169083151502179055505b8015612e2e5760008060016101000a81548160ff0219169083151502179055505b50565b600060019054906101000a900460ff1680612e57575060008054906101000a900460ff16155b612e96576040517f08c379a0000000000000000000000000000000000000000000000000000000008152600401612e8d906149a5565b60405180910390fd5b60008060019054906101000a900460ff161590508015612ee6576001600060016101000a81548160ff02191690831515021790555060016000806101000a81548160ff0219169083151502179055505b600061015f60006101000a81548160ff0219169083151502179055508015612f235760008060016101000a81548160ff0219169083151502179055505b50565b600060019054906101000a900460ff1680612f4c575060008054906101000a900460ff16155b612f8b576040517f08c379a0000000000000000000000000000000000000000000000000000000008152600401612f82906149a5565b60405180910390fd5b60008060019054906101000a900460ff161590508015612fdb576001600060016101000a81548160ff02191690831515021790555060016000806101000a81548160ff0219169083151502179055505b8015612ffc5760008060016101000a81548160ff0219169083151502179055505b50565b600060019054906101000a900460ff1680613025575060008054906101000a900460ff16155b613064576040517f08c379a000000000000000000000000000000000000000000000000000000000815260040161305b906149a5565b60405180910390fd5b60008060019054906101000a900460ff1615905080156130b4576001600060016101000a81548160ff02191690831515021790555060016000806101000a81548160ff0219169083151502179055505b816101c490805190602001906130cb929190613cca565b506130e06000801b6130db611503565b613700565b6131117f9f2df0fed2c77648de5860a4cc508cd0818c85b8b8a1ab4ceeef8d981c8956a661310c611503565b613700565b6131427f65d7a28e3265b37a6474929f336521b332c1681b933f6cb9f3376673440d862a61313d611503565b613700565b80156131635760008060016101000a81548160ff0219169083151502179055505b50505050565b600061318a8473ffffffffffffffffffffffffffffffffffffffff16613734565b156132f3578373ffffffffffffffffffffffffffffffffffffffff1663150b7a026131b3611503565b8786866040518563ffffffff1660e01b81526004016131d59493929190614741565b602060405180830381600087803b1580156131ef57600080fd5b505af192505050801561322057506040513d601f19601f8201168201806040525081019061321d919061412c565b60015b6132a3573d8060008114613250576040519150601f19603f3d011682016040523d82523d6000602084013e613255565b606091505b5060008151141561329b576040517f08c379a000000000000000000000000000000000000000000000000000000000815260040161329290614865565b60405180910390fd5b805181602001fd5b63150b7a0260e01b7bffffffffffffffffffffffffffffffffffffffffffffffffffffffff1916817bffffffffffffffffffffffffffffffffffffffffffffffffffffffff1916149150506132f8565b600190505b949350505050565b600081600001805490509050919050565b60007f5a05180f000000000000000000000000000000000000000000000000000000007bffffffffffffffffffffffffffffffffffffffffffffffffffffffff1916827bffffffffffffffffffffffffffffffffffffffffffffffffffffffff19161480613384575061338382613747565b5b9050919050565b6133968383836137c1565b61339e610bb7565b156133de576040517f08c379a00000000000000000000000000000000000000000000000000000000081526004016133d590614805565b60405180910390fd5b505050565b6060600060028360026133f69190614c91565b6134009190614c0a565b67ffffffffffffffff81111561343f577f4e487b7100000000000000000000000000000000000000000000000000000000600052604160045260246000fd5b6040519080825280601f01601f1916602001820160405280156134715781602001600182028036833780820191505090505b5090507f3000000000000000000000000000000000000000000000000000000000000000816000815181106134cf577f4e487b7100000000000000000000000000000000000000000000000000000000600052603260045260246000fd5b60200101907effffffffffffffffffffffffffffffffffffffffffffffffffffffffffffff1916908160001a9053507f780000000000000000000000000000000000000000000000000000000000000081600181518110613559577f4e487b7100000000000000000000000000000000000000000000000000000000600052603260045260246000fd5b60200101907effffffffffffffffffffffffffffffffffffffffffffffffffffffffffffff1916908160001a905350600060018460026135999190614c91565b6135a39190614c0a565b90505b600181111561368f577f3031323334353637383961626364656600000000000000000000000000000000600f86166010811061360b577f4e487b7100000000000000000000000000000000000000000000000000000000600052603260045260246000fd5b1a60f81b828281518110613648577f4e487b7100000000000000000000000000000000000000000000000000000000600052603260045260246000fd5b60200101907effffffffffffffffffffffffffffffffffffffffffffffffffffffffffffff1916908160001a905350600485901c94508061368890614ddf565b90506135a6565b50600084146136d3576040517f08c379a00000000000000000000000000000000000000000000000000000000081526004016136ca906147e5565b60405180910390fd5b8091505092915050565b600080836001016000848152602001908152602001600020541415905092915050565b61370a82826138d5565b61372f816097600085815260200190815260200160002061192790919063ffffffff16565b505050565b600080823b905060008111915050919050565b60007f7965db0b000000000000000000000000000000000000000000000000000000007bffffffffffffffffffffffffffffffffffffffffffffffffffffffff1916827bffffffffffffffffffffffffffffffffffffffffffffffffffffffff191614806137ba57506137b9826138e3565b5b9050919050565b6137cc83838361394d565b600073ffffffffffffffffffffffffffffffffffffffff168373ffffffffffffffffffffffffffffffffffffffff16141561380f5761380a81613952565b61384e565b8173ffffffffffffffffffffffffffffffffffffffff168373ffffffffffffffffffffffffffffffffffffffff161461384d5761384c838261399b565b5b5b600073ffffffffffffffffffffffffffffffffffffffff168273ffffffffffffffffffffffffffffffffffffffff1614156138915761388c81613b08565b6138d0565b8273ffffffffffffffffffffffffffffffffffffffff168273ffffffffffffffffffffffffffffffffffffffff16146138cf576138ce8282613c4b565b5b5b505050565b6138df8282612408565b5050565b60007f01ffc9a7000000000000000000000000000000000000000000000000000000007bffffffffffffffffffffffffffffffffffffffffffffffffffffffff1916827bffffffffffffffffffffffffffffffffffffffffffffffffffffffff1916149050919050565b505050565b60fd8054905060fe60008381526020019081526020016000208190555060fd81908060018154018082558091505060019003906000526020600020016000909190919091505550565b600060016139a884610d13565b6139b29190614ceb565b9050600060fc6000848152602001908152602001600020549050818114613a9757600060fb60008673ffffffffffffffffffffffffffffffffffffffff1673ffffffffffffffffffffffffffffffffffffffff16815260200190815260200160002060008481526020019081526020016000205490508060fb60008773ffffffffffffffffffffffffffffffffffffffff1673ffffffffffffffffffffffffffffffffffffffff1681526020019081526020016000206000848152602001908152602001600020819055508160fc600083815260200190815260200160002081905550505b60fc60008481526020019081526020016000206000905560fb60008573ffffffffffffffffffffffffffffffffffffffff1673ffffffffffffffffffffffffffffffffffffffff16815260200190815260200160002060008381526020019081526020016000206000905550505050565b6000600160fd80549050613b1c9190614ceb565b9050600060fe6000848152602001908152602001600020549050600060fd8381548110613b72577f4e487b7100000000000000000000000000000000000000000000000000000000600052603260045260246000fd5b906000526020600020015490508060fd8381548110613bba577f4e487b7100000000000000000000000000000000000000000000000000000000600052603260045260246000fd5b90600052602060002001819055508160fe60008381526020019081526020016000208190555060fe60008581526020019081526020016000206000905560fd805480613c2f577f4e487b7100000000000000000000000000000000000000000000000000000000600052603160045260246000fd5b6001900381819060005260206000200160009055905550505050565b6000613c5683610d13565b90508160fb60008573ffffffffffffffffffffffffffffffffffffffff1673ffffffffffffffffffffffffffffffffffffffff1681526020019081526020016000206000838152602001908152602001600020819055508060fc600084815260200190815260200160002081905550505050565b828054613cd690614e09565b90600052602060002090601f016020900481019282613cf85760008555613d3f565b82601f10613d1157805160ff1916838001178555613d3f565b82800160010185558215613d3f579182015b82811115613d3e578251825591602001919060010190613d23565b5b509050613d4c9190613d50565b5090565b5b80821115613d69576000816000905550600101613d51565b5090565b6000613d80613d7b84614b65565b614b40565b905082815260208101848484011115613d9857600080fd5b613da3848285614d9d565b509392505050565b6000613dbe613db984614b96565b614b40565b905082815260208101848484011115613dd657600080fd5b613de1848285614d9d565b509392505050565b600081359050613df881615727565b92915050565b600081359050613e0d8161573e565b92915050565b600081359050613e2281615755565b92915050565b600081359050613e378161576c565b92915050565b600081519050613e4c8161576c565b92915050565b600082601f830112613e6357600080fd5b8135613e73848260208601613d6d565b91505092915050565b600082601f830112613e8d57600080fd5b8135613e9d848260208601613dab565b91505092915050565b600081359050613eb581615783565b92915050565b600060208284031215613ecd57600080fd5b6000613edb84828501613de9565b91505092915050565b60008060408385031215613ef757600080fd5b6000613f0585828601613de9565b9250506020613f1685828601613de9565b9150509250929050565b600080600060608486031215613f3557600080fd5b6000613f4386828701613de9565b9350506020613f5486828701613de9565b9250506040613f6586828701613ea6565b9150509250925092565b60008060008060808587031215613f8557600080fd5b6000613f9387828801613de9565b9450506020613fa487828801613de9565b9350506040613fb587828801613ea6565b925050606085013567ffffffffffffffff811115613fd257600080fd5b613fde87828801613e52565b91505092959194509250565b60008060408385031215613ffd57600080fd5b600061400b85828601613de9565b925050602061401c85828601613dfe565b9150509250929050565b6000806040838503121561403957600080fd5b600061404785828601613de9565b925050602061405885828601613ea6565b9150509250929050565b60006020828403121561407457600080fd5b600061408284828501613e13565b91505092915050565b6000806040838503121561409e57600080fd5b60006140ac85828601613e13565b92505060206140bd85828601613de9565b9150509250929050565b600080604083850312156140da57600080fd5b60006140e885828601613e13565b92505060206140f985828601613ea6565b9150509250929050565b60006020828403121561411557600080fd5b600061412384828501613e28565b91505092915050565b60006020828403121561413e57600080fd5b600061414c84828501613e3d565b91505092915050565b60008060006060848603121561416a57600080fd5b600084013567ffffffffffffffff81111561418457600080fd5b61419086828701613e7c565b935050602084013567ffffffffffffffff8111156141ad57600080fd5b6141b986828701613e7c565b925050604084013567ffffffffffffffff8111156141d657600080fd5b6141e286828701613e7c565b9150509250925092565b6000602082840312156141fe57600080fd5b600061420c84828501613ea6565b91505092915050565b61421e81614d1f565b82525050565b61422d81614d31565b82525050565b61423c81614d3d565b82525050565b600061424d82614bc7565b6142578185614bdd565b9350614267818560208601614dac565b61427081614fa2565b840191505092915050565b600061428682614bd2565b6142908185614bee565b93506142a0818560208601614dac565b6142a981614fa2565b840191505092915050565b60006142bf82614bd2565b6142c98185614bff565b93506142d9818560208601614dac565b80840191505092915050565b60006142f2602083614bee565b91506142fd82614fb3565b602082019050919050565b6000614315602b83614bee565b915061432082614fdc565b604082019050919050565b6000614338601483614bee565b91506143438261502b565b602082019050919050565b600061435b602b83614bee565b915061436682615054565b604082019050919050565b600061437e603283614bee565b9150614389826150a3565b604082019050919050565b60006143a1601c83614bee565b91506143ac826150f2565b602082019050919050565b60006143c4603e83614bee565b91506143cf8261511b565b604082019050919050565b60006143e7602483614bee565b91506143f28261516a565b604082019050919050565b600061440a601983614bee565b9150614415826151b9565b602082019050919050565b600061442d602c83614bee565b9150614438826151e2565b604082019050919050565b6000614450601083614bee565b915061445b82615231565b602082019050919050565b6000614473603883614bee565b915061447e8261525a565b604082019050919050565b6000614496602a83614bee565b91506144a1826152a9565b604082019050919050565b60006144b9602983614bee565b91506144c4826152f8565b604082019050919050565b60006144dc602e83614bee565b91506144e782615347565b604082019050919050565b60006144ff602083614bee565b915061450a82615396565b602082019050919050565b6000614522602c83614bee565b915061452d826153bf565b604082019050919050565b6000614545602983614bee565b91506145508261540e565b604082019050919050565b6000614568602f83614bee565b91506145738261545d565b604082019050919050565b600061458b602183614bee565b9150614596826154ac565b604082019050919050565b60006145ae603183614bee565b91506145b9826154fb565b604082019050919050565b60006145d1602c83614bee565b91506145dc8261554a565b604082019050919050565b60006145f4601783614bff565b91506145ff82615599565b601782019050919050565b6000614617603d83614bee565b9150614622826155c2565b604082019050919050565b600061463a603083614bee565b915061464582615611565b604082019050919050565b600061465d604083614bee565b915061466882615660565b604082019050919050565b6000614680601183614bff565b915061468b826156af565b601182019050919050565b60006146a3602f83614bee565b91506146ae826156d8565b604082019050919050565b6146c281614d93565b82525050565b60006146d482856142b4565b91506146e082846142b4565b91508190509392505050565b60006146f7826145e7565b915061470382856142b4565b915061470e82614673565b915061471a82846142b4565b91508190509392505050565b600060208201905061473b6000830184614215565b92915050565b60006080820190506147566000830187614215565b6147636020830186614215565b61477060408301856146b9565b81810360608301526147828184614242565b905095945050505050565b60006020820190506147a26000830184614224565b92915050565b60006020820190506147bd6000830184614233565b92915050565b600060208201905081810360008301526147dd818461427b565b905092915050565b600060208201905081810360008301526147fe816142e5565b9050919050565b6000602082019050818103600083015261481e81614308565b9050919050565b6000602082019050818103600083015261483e8161432b565b9050919050565b6000602082019050818103600083015261485e8161434e565b9050919050565b6000602082019050818103600083015261487e81614371565b9050919050565b6000602082019050818103600083015261489e81614394565b9050919050565b600060208201905081810360008301526148be816143b7565b9050919050565b600060208201905081810360008301526148de816143da565b9050919050565b600060208201905081810360008301526148fe816143fd565b9050919050565b6000602082019050818103600083015261491e81614420565b9050919050565b6000602082019050818103600083015261493e81614443565b9050919050565b6000602082019050818103600083015261495e81614466565b9050919050565b6000602082019050818103600083015261497e81614489565b9050919050565b6000602082019050818103600083015261499e816144ac565b9050919050565b600060208201905081810360008301526149be816144cf565b9050919050565b600060208201905081810360008301526149de816144f2565b9050919050565b600060208201905081810360008301526149fe81614515565b9050919050565b60006020820190508181036000830152614a1e81614538565b9050919050565b60006020820190508181036000830152614a3e8161455b565b9050919050565b60006020820190508181036000830152614a5e8161457e565b9050919050565b60006020820190508181036000830152614a7e816145a1565b9050919050565b60006020820190508181036000830152614a9e816145c4565b9050919050565b60006020820190508181036000830152614abe8161460a565b9050919050565b60006020820190508181036000830152614ade8161462d565b9050919050565b60006020820190508181036000830152614afe81614650565b9050919050565b60006020820190508181036000830152614b1e81614696565b9050919050565b6000602082019050614b3a60008301846146b9565b92915050565b6000614b4a614b5b565b9050614b568282614e3b565b919050565b6000604051905090565b600067ffffffffffffffff821115614b8057614b7f614f73565b5b614b8982614fa2565b9050602081019050919050565b600067ffffffffffffffff821115614bb157614bb0614f73565b5b614bba82614fa2565b9050602081019050919050565b600081519050919050565b600081519050919050565b600082825260208201905092915050565b600082825260208201905092915050565b600081905092915050565b6000614c1582614d93565b9150614c2083614d93565b9250827fffffffffffffffffffffffffffffffffffffffffffffffffffffffffffffffff03821115614c5557614c54614ee6565b5b828201905092915050565b6000614c6b82614d93565b9150614c7683614d93565b925082614c8657614c85614f15565b5b828204905092915050565b6000614c9c82614d93565b9150614ca783614d93565b9250817fffffffffffffffffffffffffffffffffffffffffffffffffffffffffffffffff0483118215151615614ce057614cdf614ee6565b5b828202905092915050565b6000614cf682614d93565b9150614d0183614d93565b925082821015614d1457614d13614ee6565b5b828203905092915050565b6000614d2a82614d73565b9050919050565b60008115159050919050565b6000819050919050565b60007fffffffff0000000000000000000000000000000000000000000000000000000082169050919050565b600073ffffffffffffffffffffffffffffffffffffffff82169050919050565b6000819050919050565b82818337600083830152505050565b60005b83811015614dca578082015181840152602081019050614daf565b83811115614dd9576000848401525b50505050565b6000614dea82614d93565b91506000821415614dfe57614dfd614ee6565b5b600182039050919050565b60006002820490506001821680614e2157607f821691505b60208210811415614e3557614e34614f44565b5b50919050565b614e4482614fa2565b810181811067ffffffffffffffff82111715614e6357614e62614f73565b5b80604052505050565b6000614e7782614d93565b91507fffffffffffffffffffffffffffffffffffffffffffffffffffffffffffffffff821415614eaa57614ea9614ee6565b5b600182019050919050565b6000614ec082614d93565b9150614ecb83614d93565b925082614edb57614eda614f15565b5b828206905092915050565b7f4e487b7100000000000000000000000000000000000000000000000000000000600052601160045260246000fd5b7f4e487b7100000000000000000000000000000000000000000000000000000000600052601260045260246000fd5b7f4e487b7100000000000000000000000000000000000000000000000000000000600052602260045260246000fd5b7f4e487b7100000000000000000000000000000000000000000000000000000000600052604160045260246000fd5b6000601f19601f8301169050919050565b7f537472696e67733a20686578206c656e67746820696e73756666696369656e74600082015250565b7f4552433732315061757361626c653a20746f6b656e207472616e73666572207760008201527f68696c6520706175736564000000000000000000000000000000000000000000602082015250565b7f5061757361626c653a206e6f7420706175736564000000000000000000000000600082015250565b7f455243373231456e756d657261626c653a206f776e657220696e646578206f7560008201527f74206f6620626f756e6473000000000000000000000000000000000000000000602082015250565b7f4552433732313a207472616e7366657220746f206e6f6e20455243373231526560008201527f63656976657220696d706c656d656e7465720000000000000000000000000000602082015250565b7f4552433732313a20746f6b656e20616c7265616479206d696e74656400000000600082015250565b7f4552433732315072657365744d696e7465725061757365724175746f49643a2060008201527f6d75737420686176652070617573657220726f6c6520746f2070617573650000602082015250565b7f4552433732313a207472616e7366657220746f20746865207a65726f2061646460008201527f7265737300000000000000000000000000000000000000000000000000000000602082015250565b7f4552433732313a20617070726f766520746f2063616c6c657200000000000000600082015250565b7f4552433732313a206f70657261746f7220717565727920666f72206e6f6e657860008201527f697374656e7420746f6b656e0000000000000000000000000000000000000000602082015250565b7f5061757361626c653a2070617573656400000000000000000000000000000000600082015250565b7f4552433732313a20617070726f76652063616c6c6572206973206e6f74206f7760008201527f6e6572206e6f7220617070726f76656420666f7220616c6c0000000000000000602082015250565b7f4552433732313a2062616c616e636520717565727920666f7220746865207a6560008201527f726f206164647265737300000000000000000000000000000000000000000000602082015250565b7f4552433732313a206f776e657220717565727920666f72206e6f6e657869737460008201527f656e7420746f6b656e0000000000000000000000000000000000000000000000602082015250565b7f496e697469616c697a61626c653a20636f6e747261637420697320616c72656160008201527f647920696e697469616c697a6564000000000000000000000000000000000000602082015250565b7f4552433732313a206d696e7420746f20746865207a65726f2061646472657373600082015250565b7f4552433732313a20617070726f76656420717565727920666f72206e6f6e657860008201527f697374656e7420746f6b656e0000000000000000000000000000000000000000602082015250565b7f4552433732313a207472616e73666572206f6620746f6b656e2074686174206960008201527f73206e6f74206f776e0000000000000000000000000000000000000000000000602082015250565b7f4552433732314d657461646174613a2055524920717565727920666f72206e6f60008201527f6e6578697374656e7420746f6b656e0000000000000000000000000000000000602082015250565b7f4552433732313a20617070726f76616c20746f2063757272656e74206f776e6560008201527f7200000000000000000000000000000000000000000000000000000000000000602082015250565b7f4552433732313a207472616e736665722063616c6c6572206973206e6f74206f60008201527f776e6572206e6f7220617070726f766564000000000000000000000000000000602082015250565b7f455243373231456e756d657261626c653a20676c6f62616c20696e646578206f60008201527f7574206f6620626f756e64730000000000000000000000000000000000000000602082015250565b7f416363657373436f6e74726f6c3a206163636f756e7420000000000000000000600082015250565b7f4552433732315072657365744d696e7465725061757365724175746f49643a2060008201527f6d7573742068617665206d696e74657220726f6c6520746f206d696e74000000602082015250565b7f4552433732314275726e61626c653a2063616c6c6572206973206e6f74206f7760008201527f6e6572206e6f7220617070726f76656400000000000000000000000000000000602082015250565b7f4552433732315072657365744d696e7465725061757365724175746f49643a2060008201527f6d75737420686176652070617573657220726f6c6520746f20756e7061757365602082015250565b7f206973206d697373696e6720726f6c6520000000000000000000000000000000600082015250565b7f416363657373436f6e74726f6c3a2063616e206f6e6c792072656e6f756e636560008201527f20726f6c657320666f722073656c660000000000000000000000000000000000602082015250565b61573081614d1f565b811461573b57600080fd5b50565b61574781614d31565b811461575257600080fd5b50565b61575e81614d3d565b811461576957600080fd5b50565b61577581614d47565b811461578057600080fd5b50565b61578c81614d93565b811461579757600080fd5b5056fea2646970667358221220e5cf8088a14ce3011aa23fda024cf16da736a1dd12bca00a2230ba57142c7f5364736f6c63430008040033",
  "linkReferences": {},
  "deployedLinkReferences": {}
}