{
  "_format": "hh-sol-artifact-1",
  "contractName": "ERC721BurnableMock",
  "sourceName": "contracts/src/OpenZeppelin/mocks/ERC721BurnableMock.sol",
  "abi": [
    {
      "inputs": [
        {
          "internalType": "string",
          "name": "name",
          "type": "string"
        },
        {
          "internalType": "string",
          "name": "symbol",
          "type": "string"
        }
      ],
      "stateMutability": "nonpayable",
      "type": "constructor"
    },
    {
      "anonymous": false,
      "inputs": [
        {
          "indexed": true,
          "internalType": "address",
          "name": "owner",
          "type": "address"
        },
        {
          "indexed": true,
          "internalType": "address",
          "name": "approved",
          "type": "address"
        },
        {
          "indexed": true,
          "internalType": "uint256",
          "name": "tokenId",
          "type": "uint256"
        }
      ],
      "name": "Approval",
      "type": "event"
    },
    {
      "anonymous": false,
      "inputs": [
        {
          "indexed": true,
          "internalType": "address",
          "name": "owner",
          "type": "address"
        },
        {
          "indexed": true,
          "internalType": "address",
          "name": "operator",
          "type": "address"
        },
        {
          "indexed": false,
          "internalType": "bool",
          "name": "approved",
          "type": "bool"
        }
      ],
      "name": "ApprovalForAll",
      "type": "event"
    },
    {
      "anonymous": false,
      "inputs": [
        {
          "indexed": true,
          "internalType": "address",
          "name": "from",
          "type": "address"
        },
        {
          "indexed": true,
          "internalType": "address",
          "name": "to",
          "type": "address"
        },
        {
          "indexed": true,
          "internalType": "uint256",
          "name": "tokenId",
          "type": "uint256"
        }
      ],
      "name": "Transfer",
      "type": "event"
    },
    {
      "inputs": [
        {
          "internalType": "address",
          "name": "to",
          "type": "address"
        },
        {
          "internalType": "uint256",
          "name": "tokenId",
          "type": "uint256"
        }
      ],
      "name": "approve",
      "outputs": [],
      "stateMutability": "nonpayable",
      "type": "function"
    },
    {
      "inputs": [
        {
          "internalType": "address",
          "name": "owner",
          "type": "address"
        }
      ],
      "name": "balanceOf",
      "outputs": [
        {
          "internalType": "uint256",
          "name": "",
          "type": "uint256"
        }
      ],
      "stateMutability": "view",
      "type": "function"
    },
    {
      "inputs": [],
      "name": "baseURI",
      "outputs": [
        {
          "internalType": "string",
          "name": "",
          "type": "string"
        }
      ],
      "stateMutability": "view",
      "type": "function"
    },
    {
      "inputs": [
        {
          "internalType": "uint256",
          "name": "tokenId",
          "type": "uint256"
        }
      ],
      "name": "burn",
      "outputs": [],
      "stateMutability": "nonpayable",
      "type": "function"
    },
    {
      "inputs": [
        {
          "internalType": "uint256",
          "name": "tokenId",
          "type": "uint256"
        }
      ],
      "name": "getApproved",
      "outputs": [
        {
          "internalType": "address",
          "name": "",
          "type": "address"
        }
      ],
      "stateMutability": "view",
      "type": "function"
    },
    {
      "inputs": [
        {
          "internalType": "address",
          "name": "owner",
          "type": "address"
        },
        {
          "internalType": "address",
          "name": "operator",
          "type": "address"
        }
      ],
      "name": "isApprovedForAll",
      "outputs": [
        {
          "internalType": "bool",
          "name": "",
          "type": "bool"
        }
      ],
      "stateMutability": "view",
      "type": "function"
    },
    {
      "inputs": [
        {
          "internalType": "address",
          "name": "to",
          "type": "address"
        },
        {
          "internalType": "uint256",
          "name": "tokenId",
          "type": "uint256"
        }
      ],
      "name": "mint",
      "outputs": [],
      "stateMutability": "nonpayable",
      "type": "function"
    },
    {
      "inputs": [],
      "name": "name",
      "outputs": [
        {
          "internalType": "string",
          "name": "",
          "type": "string"
        }
      ],
      "stateMutability": "view",
      "type": "function"
    },
    {
      "inputs": [
        {
          "internalType": "uint256",
          "name": "tokenId",
          "type": "uint256"
        }
      ],
      "name": "ownerOf",
      "outputs": [
        {
          "internalType": "address",
          "name": "",
          "type": "address"
        }
      ],
      "stateMutability": "view",
      "type": "function"
    },
    {
      "inputs": [
        {
          "internalType": "address",
          "name": "from",
          "type": "address"
        },
        {
          "internalType": "address",
          "name": "to",
          "type": "address"
        },
        {
          "internalType": "uint256",
          "name": "tokenId",
          "type": "uint256"
        }
      ],
      "name": "safeTransferFrom",
      "outputs": [],
      "stateMutability": "nonpayable",
      "type": "function"
    },
    {
      "inputs": [
        {
          "internalType": "address",
          "name": "from",
          "type": "address"
        },
        {
          "internalType": "address",
          "name": "to",
          "type": "address"
        },
        {
          "internalType": "uint256",
          "name": "tokenId",
          "type": "uint256"
        },
        {
          "internalType": "bytes",
          "name": "_data",
          "type": "bytes"
        }
      ],
      "name": "safeTransferFrom",
      "outputs": [],
      "stateMutability": "nonpayable",
      "type": "function"
    },
    {
      "inputs": [
        {
          "internalType": "address",
          "name": "operator",
          "type": "address"
        },
        {
          "internalType": "bool",
          "name": "approved",
          "type": "bool"
        }
      ],
      "name": "setApprovalForAll",
      "outputs": [],
      "stateMutability": "nonpayable",
      "type": "function"
    },
    {
      "inputs": [
        {
          "internalType": "bytes4",
          "name": "interfaceId",
          "type": "bytes4"
        }
      ],
      "name": "supportsInterface",
      "outputs": [
        {
          "internalType": "bool",
          "name": "",
          "type": "bool"
        }
      ],
      "stateMutability": "view",
      "type": "function"
    },
    {
      "inputs": [],
      "name": "symbol",
      "outputs": [
        {
          "internalType": "string",
          "name": "",
          "type": "string"
        }
      ],
      "stateMutability": "view",
      "type": "function"
    },
    {
      "inputs": [
        {
          "internalType": "uint256",
          "name": "index",
          "type": "uint256"
        }
      ],
      "name": "tokenByIndex",
      "outputs": [
        {
          "internalType": "uint256",
          "name": "",
          "type": "uint256"
        }
      ],
      "stateMutability": "view",
      "type": "function"
    },
    {
      "inputs": [
        {
          "internalType": "address",
          "name": "owner",
          "type": "address"
        },
        {
          "internalType": "uint256",
          "name": "index",
          "type": "uint256"
        }
      ],
      "name": "tokenOfOwnerByIndex",
      "outputs": [
        {
          "internalType": "uint256",
          "name": "",
          "type": "uint256"
        }
      ],
      "stateMutability": "view",
      "type": "function"
    },
    {
      "inputs": [
        {
          "internalType": "uint256",
          "name": "tokenId",
          "type": "uint256"
        }
      ],
      "name": "tokenURI",
      "outputs": [
        {
          "internalType": "string",
          "name": "",
          "type": "string"
        }
      ],
      "stateMutability": "view",
      "type": "function"
    },
    {
      "inputs": [],
      "name": "totalSupply",
      "outputs": [
        {
          "internalType": "uint256",
          "name": "",
          "type": "uint256"
        }
      ],
      "stateMutability": "view",
      "type": "function"
    },
    {
      "inputs": [
        {
          "internalType": "address",
          "name": "from",
          "type": "address"
        },
        {
          "internalType": "address",
          "name": "to",
          "type": "address"
        },
        {
          "internalType": "uint256",
          "name": "tokenId",
          "type": "uint256"
        }
      ],
      "name": "transferFrom",
      "outputs": [],
      "stateMutability": "nonpayable",
      "type": "function"
    }
  ],
  "bytecode": "0x60806040523480156200001157600080fd5b506040516200387538038062003875833981810160405281019062000037919062000333565b81816200006a7f01ffc9a7000000000000000000000000000000000000000000000000000000006200013960201b60201c565b81600690805190602001906200008292919062000211565b5080600790805190602001906200009b92919062000211565b50620000cd7f80ac58cd000000000000000000000000000000000000000000000000000000006200013960201b60201c565b620000fe7f5b5e139f000000000000000000000000000000000000000000000000000000006200013960201b60201c565b6200012f7f780e9d63000000000000000000000000000000000000000000000000000000006200013960201b60201c565b5050505062000599565b63ffffffff60e01b817bffffffffffffffffffffffffffffffffffffffffffffffffffffffff19161415620001a5576040517f08c379a00000000000000000000000000000000000000000000000000000000081526004016200019c90620003cd565b60405180910390fd5b6001600080837bffffffffffffffffffffffffffffffffffffffffffffffffffffffff19167bffffffffffffffffffffffffffffffffffffffffffffffffffffffff1916815260200190815260200160002060006101000a81548160ff02191690831515021790555050565b8280546200021f9062000495565b90600052602060002090601f0160209004810192826200024357600085556200028f565b82601f106200025e57805160ff19168380011785556200028f565b828001600101855582156200028f579182015b828111156200028e57825182559160200191906001019062000271565b5b5090506200029e9190620002a2565b5090565b5b80821115620002bd576000816000905550600101620002a3565b5090565b6000620002d8620002d28462000418565b620003ef565b905082815260208101848484011115620002f157600080fd5b620002fe8482856200045f565b509392505050565b600082601f8301126200031857600080fd5b81516200032a848260208601620002c1565b91505092915050565b600080604083850312156200034757600080fd5b600083015167ffffffffffffffff8111156200036257600080fd5b620003708582860162000306565b925050602083015167ffffffffffffffff8111156200038e57600080fd5b6200039c8582860162000306565b9150509250929050565b6000620003b5601c836200044e565b9150620003c28262000570565b602082019050919050565b60006020820190508181036000830152620003e881620003a6565b9050919050565b6000620003fb6200040e565b9050620004098282620004cb565b919050565b6000604051905090565b600067ffffffffffffffff82111562000436576200043562000530565b5b62000441826200055f565b9050602081019050919050565b600082825260208201905092915050565b60005b838110156200047f57808201518184015260208101905062000462565b838111156200048f576000848401525b50505050565b60006002820490506001821680620004ae57607f821691505b60208210811415620004c557620004c462000501565b5b50919050565b620004d6826200055f565b810181811067ffffffffffffffff82111715620004f857620004f762000530565b5b80604052505050565b7f4e487b7100000000000000000000000000000000000000000000000000000000600052602260045260246000fd5b7f4e487b7100000000000000000000000000000000000000000000000000000000600052604160045260246000fd5b6000601f19601f8301169050919050565b7f4552433136353a20696e76616c696420696e7465726661636520696400000000600082015250565b6132cc80620005a96000396000f3fe608060405234801561001057600080fd5b50600436106101215760003560e01c806342966c68116100ad57806395d89b411161007157806395d89b411461032c578063a22cb4651461034a578063b88d4fde14610366578063c87b56dd14610382578063e985e9c5146103b257610121565b806342966c68146102625780634f6ccce71461027e5780636352211e146102ae5780636c0360eb146102de57806370a08231146102fc57610121565b806318160ddd116100f457806318160ddd146101c057806323b872dd146101de5780632f745c59146101fa57806340c10f191461022a57806342842e0e1461024657610121565b806301ffc9a71461012657806306fdde0314610156578063081812fc14610174578063095ea7b3146101a4575b600080fd5b610140600480360381019061013b9190612381565b6103e2565b60405161014d9190612787565b60405180910390f35b61015e610449565b60405161016b91906127a2565b60405180910390f35b61018e600480360381019061018991906123d3565b6104db565b60405161019b9190612720565b60405180910390f35b6101be60048036038101906101b99190612345565b610560565b005b6101c8610678565b6040516101d591906129c4565b60405180910390f35b6101f860048036038101906101f3919061223f565b610689565b005b610214600480360381019061020f9190612345565b6106e9565b60405161022191906129c4565b60405180910390f35b610244600480360381019061023f9190612345565b610744565b005b610260600480360381019061025b919061223f565b610752565b005b61027c600480360381019061027791906123d3565b610772565b005b610298600480360381019061029391906123d3565b6107ce565b6040516102a591906129c4565b60405180910390f35b6102c860048036038101906102c391906123d3565b6107f1565b6040516102d59190612720565b60405180910390f35b6102e6610828565b6040516102f391906127a2565b60405180910390f35b610316600480360381019061031191906121da565b6108ba565b60405161032391906129c4565b60405180910390f35b610334610979565b60405161034191906127a2565b60405180910390f35b610364600480360381019061035f9190612309565b610a0b565b005b610380600480360381019061037b919061228e565b610b8c565b005b61039c600480360381019061039791906123d3565b610bee565b6040516103a991906127a2565b60405180910390f35b6103cc60048036038101906103c79190612203565b610d61565b6040516103d99190612787565b60405180910390f35b6000806000837bffffffffffffffffffffffffffffffffffffffffffffffffffffffff19167bffffffffffffffffffffffffffffffffffffffffffffffffffffffff1916815260200190815260200160002060009054906101000a900460ff169050919050565b60606006805461045890612be9565b80601f016020809104026020016040519081016040528092919081815260200182805461048490612be9565b80156104d15780601f106104a6576101008083540402835291602001916104d1565b820191906000526020600020905b8154815290600101906020018083116104b457829003601f168201915b5050505050905090565b60006104e682610df5565b610525576040517f08c379a000000000000000000000000000000000000000000000000000000000815260040161051c90612904565b60405180910390fd5b6004600083815260200190815260200160002060009054906101000a900473ffffffffffffffffffffffffffffffffffffffff169050919050565b600061056b826107f1565b90508073ffffffffffffffffffffffffffffffffffffffff168373ffffffffffffffffffffffffffffffffffffffff1614156105dc576040517f08c379a00000000000000000000000000000000000000000000000000000000081526004016105d390612964565b60405180910390fd5b8073ffffffffffffffffffffffffffffffffffffffff166105fb610e12565b73ffffffffffffffffffffffffffffffffffffffff16148061062a575061062981610624610e12565b610d61565b5b610669576040517f08c379a000000000000000000000000000000000000000000000000000000000815260040161066090612884565b60405180910390fd5b6106738383610e1a565b505050565b60006106846002610ed3565b905090565b61069a610694610e12565b82610ee8565b6106d9576040517f08c379a00000000000000000000000000000000000000000000000000000000081526004016106d090612984565b60405180910390fd5b6106e4838383610fc6565b505050565b600061073c82600160008673ffffffffffffffffffffffffffffffffffffffff1673ffffffffffffffffffffffffffffffffffffffff1681526020019081526020016000206111dd90919063ffffffff16565b905092915050565b61074e82826111f7565b5050565b61076d83838360405180602001604052806000815250610b8c565b505050565b61078361077d610e12565b82610ee8565b6107c2576040517f08c379a00000000000000000000000000000000000000000000000000000000081526004016107b9906129a4565b60405180910390fd5b6107cb81611385565b50565b6000806107e58360026114b790919063ffffffff16565b50905080915050919050565b60006108218260405180606001604052806029815260200161326e6029913960026114e39092919063ffffffff16565b9050919050565b60606009805461083790612be9565b80601f016020809104026020016040519081016040528092919081815260200182805461086390612be9565b80156108b05780601f10610885576101008083540402835291602001916108b0565b820191906000526020600020905b81548152906001019060200180831161089357829003601f168201915b5050505050905090565b60008073ffffffffffffffffffffffffffffffffffffffff168273ffffffffffffffffffffffffffffffffffffffff16141561092b576040517f08c379a0000000000000000000000000000000000000000000000000000000008152600401610922906128a4565b60405180910390fd5b610972600160008473ffffffffffffffffffffffffffffffffffffffff1673ffffffffffffffffffffffffffffffffffffffff168152602001908152602001600020611502565b9050919050565b60606007805461098890612be9565b80601f01602080910402602001604051908101604052809291908181526020018280546109b490612be9565b8015610a015780601f106109d657610100808354040283529160200191610a01565b820191906000526020600020905b8154815290600101906020018083116109e457829003601f168201915b5050505050905090565b610a13610e12565b73ffffffffffffffffffffffffffffffffffffffff168273ffffffffffffffffffffffffffffffffffffffff161415610a81576040517f08c379a0000000000000000000000000000000000000000000000000000000008152600401610a7890612844565b60405180910390fd5b8060056000610a8e610e12565b73ffffffffffffffffffffffffffffffffffffffff1673ffffffffffffffffffffffffffffffffffffffff16815260200190815260200160002060008473ffffffffffffffffffffffffffffffffffffffff1673ffffffffffffffffffffffffffffffffffffffff16815260200190815260200160002060006101000a81548160ff0219169083151502179055508173ffffffffffffffffffffffffffffffffffffffff16610b3b610e12565b73ffffffffffffffffffffffffffffffffffffffff167f17307eab39ab6107e8899845ad3d59bd9653f200f220920489ca2b5937696c3183604051610b809190612787565b60405180910390a35050565b610b9d610b97610e12565b83610ee8565b610bdc576040517f08c379a0000000000000000000000000000000000000000000000000000000008152600401610bd390612984565b60405180910390fd5b610be884848484611517565b50505050565b6060610bf982610df5565b610c38576040517f08c379a0000000000000000000000000000000000000000000000000000000008152600401610c2f90612944565b60405180910390fd5b6000600860008481526020019081526020016000208054610c5890612be9565b80601f0160208091040260200160405190810160405280929190818152602001828054610c8490612be9565b8015610cd15780601f10610ca657610100808354040283529160200191610cd1565b820191906000526020600020905b815481529060010190602001808311610cb457829003601f168201915b505050505090506000610ce2610828565b9050600081511415610cf8578192505050610d5c565b600082511115610d2d578082604051602001610d159291906126fc565b60405160208183030381529060405292505050610d5c565b80610d3785611573565b604051602001610d489291906126fc565b604051602081830303815290604052925050505b919050565b6000600560008473ffffffffffffffffffffffffffffffffffffffff1673ffffffffffffffffffffffffffffffffffffffff16815260200190815260200160002060008373ffffffffffffffffffffffffffffffffffffffff1673ffffffffffffffffffffffffffffffffffffffff16815260200190815260200160002060009054906101000a900460ff16905092915050565b6000610e0b82600261172090919063ffffffff16565b9050919050565b600033905090565b816004600083815260200190815260200160002060006101000a81548173ffffffffffffffffffffffffffffffffffffffff021916908373ffffffffffffffffffffffffffffffffffffffff160217905550808273ffffffffffffffffffffffffffffffffffffffff16610e8d836107f1565b73ffffffffffffffffffffffffffffffffffffffff167f8c5be1e5ebec7d5bd14f71427d1e84f3dd0314c0f7b2291e5b200ac8c7c3b92560405160405180910390a45050565b6000610ee18260000161173a565b9050919050565b6000610ef382610df5565b610f32576040517f08c379a0000000000000000000000000000000000000000000000000000000008152600401610f2990612864565b60405180910390fd5b6000610f3d836107f1565b90508073ffffffffffffffffffffffffffffffffffffffff168473ffffffffffffffffffffffffffffffffffffffff161480610fac57508373ffffffffffffffffffffffffffffffffffffffff16610f94846104db565b73ffffffffffffffffffffffffffffffffffffffff16145b80610fbd5750610fbc8185610d61565b5b91505092915050565b8273ffffffffffffffffffffffffffffffffffffffff16610fe6826107f1565b73ffffffffffffffffffffffffffffffffffffffff161461103c576040517f08c379a000000000000000000000000000000000000000000000000000000000815260040161103390612924565b60405180910390fd5b600073ffffffffffffffffffffffffffffffffffffffff168273ffffffffffffffffffffffffffffffffffffffff1614156110ac576040517f08c379a00000000000000000000000000000000000000000000000000000000081526004016110a390612824565b60405180910390fd5b6110b783838361174b565b6110c2600082610e1a565b61111381600160008673ffffffffffffffffffffffffffffffffffffffff1673ffffffffffffffffffffffffffffffffffffffff16815260200190815260200160002061175090919063ffffffff16565b5061116581600160008573ffffffffffffffffffffffffffffffffffffffff1673ffffffffffffffffffffffffffffffffffffffff16815260200190815260200160002061176a90919063ffffffff16565b5061117c818360026117849092919063ffffffff16565b50808273ffffffffffffffffffffffffffffffffffffffff168473ffffffffffffffffffffffffffffffffffffffff167fddf252ad1be2c89b69c2b068fc378daa952ba7f163c4a11628f55a4df523b3ef60405160405180910390a4505050565b60006111ec83600001836117b9565b60001c905092915050565b600073ffffffffffffffffffffffffffffffffffffffff168273ffffffffffffffffffffffffffffffffffffffff161415611267576040517f08c379a000000000000000000000000000000000000000000000000000000000815260040161125e906128e4565b60405180910390fd5b61127081610df5565b156112b0576040517f08c379a00000000000000000000000000000000000000000000000000000000081526004016112a790612804565b60405180910390fd5b6112bc6000838361174b565b61130d81600160008573ffffffffffffffffffffffffffffffffffffffff1673ffffffffffffffffffffffffffffffffffffffff16815260200190815260200160002061176a90919063ffffffff16565b50611324818360026117849092919063ffffffff16565b50808273ffffffffffffffffffffffffffffffffffffffff16600073ffffffffffffffffffffffffffffffffffffffff167fddf252ad1be2c89b69c2b068fc378daa952ba7f163c4a11628f55a4df523b3ef60405160405180910390a45050565b6000611390826107f1565b905061139e8160008461174b565b6113a9600083610e1a565b60006008600084815260200190815260200160002080546113c990612be9565b9050146113f0576008600083815260200190815260200160002060006113ef91906120ac565b5b61144182600160008473ffffffffffffffffffffffffffffffffffffffff1673ffffffffffffffffffffffffffffffffffffffff16815260200190815260200160002061175090919063ffffffff16565b5061145682600261185390919063ffffffff16565b5081600073ffffffffffffffffffffffffffffffffffffffff168273ffffffffffffffffffffffffffffffffffffffff167fddf252ad1be2c89b69c2b068fc378daa952ba7f163c4a11628f55a4df523b3ef60405160405180910390a45050565b6000806000806114ca866000018661186d565b915091508160001c8160001c9350935050509250929050565b60006114f6846000018460001b8461191d565b60001c90509392505050565b6000611510826000016119e4565b9050919050565b611522848484610fc6565b61152e848484846119f5565b61156d576040517f08c379a0000000000000000000000000000000000000000000000000000000008152600401611564906127e4565b60405180910390fd5b50505050565b606060008214156115bb576040518060400160405280600181526020017f3000000000000000000000000000000000000000000000000000000000000000815250905061171b565b600082905060005b600082146115ed5780806115d690612c4c565b915050600a826115e69190612ace565b91506115c3565b60008167ffffffffffffffff81111561162f577f4e487b7100000000000000000000000000000000000000000000000000000000600052604160045260246000fd5b6040519080825280601f01601f1916602001820160405280156116615781602001600182028036833780820191505090505b5090505b600085146117145760018261167a9190612aff565b9150600a856116899190612c95565b60306116959190612a78565b60f81b8183815181106116d1577f4e487b7100000000000000000000000000000000000000000000000000000000600052603260045260246000fd5b60200101907effffffffffffffffffffffffffffffffffffffffffffffffffffffffffffff1916908160001a905350600a8561170d9190612ace565b9450611665565b8093505050505b919050565b6000611732836000018360001b611b8c565b905092915050565b600081600001805490509050919050565b505050565b6000611762836000018360001b611baf565b905092915050565b600061177c836000018360001b611d39565b905092915050565b60006117b0846000018460001b8473ffffffffffffffffffffffffffffffffffffffff1660001b611da9565b90509392505050565b600081836000018054905011611804576040517f08c379a00000000000000000000000000000000000000000000000000000000081526004016117fb906127c4565b60405180910390fd5b826000018281548110611840577f4e487b7100000000000000000000000000000000000000000000000000000000600052603260045260246000fd5b9060005260206000200154905092915050565b6000611865836000018360001b611ebb565b905092915050565b600080828460000180549050116118b9576040517f08c379a00000000000000000000000000000000000000000000000000000000081526004016118b0906128c4565b60405180910390fd5b60008460000184815481106118f7577f4e487b7100000000000000000000000000000000000000000000000000000000600052603260045260246000fd5b906000526020600020906002020190508060000154816001015492509250509250929050565b6000808460010160008581526020019081526020016000205490506000811415839061197f576040517f08c379a000000000000000000000000000000000000000000000000000000000815260040161197691906127a2565b60405180910390fd5b50846000016001826119919190612aff565b815481106119c8577f4e487b7100000000000000000000000000000000000000000000000000000000600052603260045260246000fd5b9060005260206000209060020201600101549150509392505050565b600081600001805490509050919050565b6000611a168473ffffffffffffffffffffffffffffffffffffffff16612076565b15611b7f578373ffffffffffffffffffffffffffffffffffffffff1663150b7a02611a3f610e12565b8786866040518563ffffffff1660e01b8152600401611a61949392919061273b565b602060405180830381600087803b158015611a7b57600080fd5b505af1925050508015611aac57506040513d601f19601f82011682018060405250810190611aa991906123aa565b60015b611b2f573d8060008114611adc576040519150601f19603f3d011682016040523d82523d6000602084013e611ae1565b606091505b50600081511415611b27576040517f08c379a0000000000000000000000000000000000000000000000000000000008152600401611b1e906127e4565b60405180910390fd5b805181602001fd5b63150b7a0260e01b7bffffffffffffffffffffffffffffffffffffffffffffffffffffffff1916817bffffffffffffffffffffffffffffffffffffffffffffffffffffffff191614915050611b84565b600190505b949350505050565b600080836001016000848152602001908152602001600020541415905092915050565b60008083600101600084815260200190815260200160002054905060008114611d2d576000600182611be19190612aff565b9050600060018660000180549050611bf99190612aff565b90506000866000018281548110611c39577f4e487b7100000000000000000000000000000000000000000000000000000000600052603260045260246000fd5b9060005260206000200154905080876000018481548110611c83577f4e487b7100000000000000000000000000000000000000000000000000000000600052603260045260246000fd5b9060005260206000200181905550600183611c9e9190612a78565b8760010160008381526020019081526020016000208190555086600001805480611cf1577f4e487b7100000000000000000000000000000000000000000000000000000000600052603160045260246000fd5b60019003818190600052602060002001600090559055866001016000878152602001908152602001600020600090556001945050505050611d33565b60009150505b92915050565b6000611d458383612089565b611d9e578260000182908060018154018082558091505060019003906000526020600020016000909190919091505582600001805490508360010160008481526020019081526020016000208190555060019050611da3565b600090505b92915050565b6000808460010160008581526020019081526020016000205490506000811415611e5057846000016040518060400160405280868152602001858152509080600181540180825580915050600190039060005260206000209060020201600090919091909150600082015181600001556020820151816001015550508460000180549050856001016000868152602001908152602001600020819055506001915050611eb4565b8285600001600183611e629190612aff565b81548110611e99577f4e487b7100000000000000000000000000000000000000000000000000000000600052603260045260246000fd5b90600052602060002090600202016001018190555060009150505b9392505050565b6000808360010160008481526020019081526020016000205490506000811461206a576000600182611eed9190612aff565b9050600060018660000180549050611f059190612aff565b90506000866000018281548110611f45577f4e487b7100000000000000000000000000000000000000000000000000000000600052603260045260246000fd5b9060005260206000209060020201905080876000018481548110611f92577f4e487b7100000000000000000000000000000000000000000000000000000000600052603260045260246000fd5b90600052602060002090600202016000820154816000015560018201548160010155905050600183611fc49190612a78565b87600101600083600001548152602001908152602001600020819055508660000180548061201b577f4e487b7100000000000000000000000000000000000000000000000000000000600052603160045260246000fd5b6001900381819060005260206000209060020201600080820160009055600182016000905550509055866001016000878152602001908152602001600020600090556001945050505050612070565b60009150505b92915050565b600080823b905060008111915050919050565b600080836001016000848152602001908152602001600020541415905092915050565b5080546120b890612be9565b6000825580601f106120ca57506120e9565b601f0160209004906000526020600020908101906120e891906120ec565b5b50565b5b808211156121055760008160009055506001016120ed565b5090565b600061211c61211784612a04565b6129df565b90508281526020810184848401111561213457600080fd5b61213f848285612ba7565b509392505050565b60008135905061215681613211565b92915050565b60008135905061216b81613228565b92915050565b6000813590506121808161323f565b92915050565b6000815190506121958161323f565b92915050565b600082601f8301126121ac57600080fd5b81356121bc848260208601612109565b91505092915050565b6000813590506121d481613256565b92915050565b6000602082840312156121ec57600080fd5b60006121fa84828501612147565b91505092915050565b6000806040838503121561221657600080fd5b600061222485828601612147565b925050602061223585828601612147565b9150509250929050565b60008060006060848603121561225457600080fd5b600061226286828701612147565b935050602061227386828701612147565b9250506040612284868287016121c5565b9150509250925092565b600080600080608085870312156122a457600080fd5b60006122b287828801612147565b94505060206122c387828801612147565b93505060406122d4878288016121c5565b925050606085013567ffffffffffffffff8111156122f157600080fd5b6122fd8782880161219b565b91505092959194509250565b6000806040838503121561231c57600080fd5b600061232a85828601612147565b925050602061233b8582860161215c565b9150509250929050565b6000806040838503121561235857600080fd5b600061236685828601612147565b9250506020612377858286016121c5565b9150509250929050565b60006020828403121561239357600080fd5b60006123a184828501612171565b91505092915050565b6000602082840312156123bc57600080fd5b60006123ca84828501612186565b91505092915050565b6000602082840312156123e557600080fd5b60006123f3848285016121c5565b91505092915050565b61240581612b33565b82525050565b61241481612b45565b82525050565b600061242582612a35565b61242f8185612a4b565b935061243f818560208601612bb6565b61244881612d82565b840191505092915050565b600061245e82612a40565b6124688185612a5c565b9350612478818560208601612bb6565b61248181612d82565b840191505092915050565b600061249782612a40565b6124a18185612a6d565b93506124b1818560208601612bb6565b80840191505092915050565b60006124ca602283612a5c565b91506124d582612d93565b604082019050919050565b60006124ed603283612a5c565b91506124f882612de2565b604082019050919050565b6000612510601c83612a5c565b915061251b82612e31565b602082019050919050565b6000612533602483612a5c565b915061253e82612e5a565b604082019050919050565b6000612556601983612a5c565b915061256182612ea9565b602082019050919050565b6000612579602c83612a5c565b915061258482612ed2565b604082019050919050565b600061259c603883612a5c565b91506125a782612f21565b604082019050919050565b60006125bf602a83612a5c565b91506125ca82612f70565b604082019050919050565b60006125e2602283612a5c565b91506125ed82612fbf565b604082019050919050565b6000612605602083612a5c565b91506126108261300e565b602082019050919050565b6000612628602c83612a5c565b915061263382613037565b604082019050919050565b600061264b602983612a5c565b915061265682613086565b604082019050919050565b600061266e602f83612a5c565b9150612679826130d5565b604082019050919050565b6000612691602183612a5c565b915061269c82613124565b604082019050919050565b60006126b4603183612a5c565b91506126bf82613173565b604082019050919050565b60006126d7603083612a5c565b91506126e2826131c2565b604082019050919050565b6126f681612b9d565b82525050565b6000612708828561248c565b9150612714828461248c565b91508190509392505050565b600060208201905061273560008301846123fc565b92915050565b600060808201905061275060008301876123fc565b61275d60208301866123fc565b61276a60408301856126ed565b818103606083015261277c818461241a565b905095945050505050565b600060208201905061279c600083018461240b565b92915050565b600060208201905081810360008301526127bc8184612453565b905092915050565b600060208201905081810360008301526127dd816124bd565b9050919050565b600060208201905081810360008301526127fd816124e0565b9050919050565b6000602082019050818103600083015261281d81612503565b9050919050565b6000602082019050818103600083015261283d81612526565b9050919050565b6000602082019050818103600083015261285d81612549565b9050919050565b6000602082019050818103600083015261287d8161256c565b9050919050565b6000602082019050818103600083015261289d8161258f565b9050919050565b600060208201905081810360008301526128bd816125b2565b9050919050565b600060208201905081810360008301526128dd816125d5565b9050919050565b600060208201905081810360008301526128fd816125f8565b9050919050565b6000602082019050818103600083015261291d8161261b565b9050919050565b6000602082019050818103600083015261293d8161263e565b9050919050565b6000602082019050818103600083015261295d81612661565b9050919050565b6000602082019050818103600083015261297d81612684565b9050919050565b6000602082019050818103600083015261299d816126a7565b9050919050565b600060208201905081810360008301526129bd816126ca565b9050919050565b60006020820190506129d960008301846126ed565b92915050565b60006129e96129fa565b90506129f58282612c1b565b919050565b6000604051905090565b600067ffffffffffffffff821115612a1f57612a1e612d53565b5b612a2882612d82565b9050602081019050919050565b600081519050919050565b600081519050919050565b600082825260208201905092915050565b600082825260208201905092915050565b600081905092915050565b6000612a8382612b9d565b9150612a8e83612b9d565b9250827fffffffffffffffffffffffffffffffffffffffffffffffffffffffffffffffff03821115612ac357612ac2612cc6565b5b828201905092915050565b6000612ad982612b9d565b9150612ae483612b9d565b925082612af457612af3612cf5565b5b828204905092915050565b6000612b0a82612b9d565b9150612b1583612b9d565b925082821015612b2857612b27612cc6565b5b828203905092915050565b6000612b3e82612b7d565b9050919050565b60008115159050919050565b60007fffffffff0000000000000000000000000000000000000000000000000000000082169050919050565b600073ffffffffffffffffffffffffffffffffffffffff82169050919050565b6000819050919050565b82818337600083830152505050565b60005b83811015612bd4578082015181840152602081019050612bb9565b83811115612be3576000848401525b50505050565b60006002820490506001821680612c0157607f821691505b60208210811415612c1557612c14612d24565b5b50919050565b612c2482612d82565b810181811067ffffffffffffffff82111715612c4357612c42612d53565b5b80604052505050565b6000612c5782612b9d565b91507fffffffffffffffffffffffffffffffffffffffffffffffffffffffffffffffff821415612c8a57612c89612cc6565b5b600182019050919050565b6000612ca082612b9d565b9150612cab83612b9d565b925082612cbb57612cba612cf5565b5b828206905092915050565b7f4e487b7100000000000000000000000000000000000000000000000000000000600052601160045260246000fd5b7f4e487b7100000000000000000000000000000000000000000000000000000000600052601260045260246000fd5b7f4e487b7100000000000000000000000000000000000000000000000000000000600052602260045260246000fd5b7f4e487b7100000000000000000000000000000000000000000000000000000000600052604160045260246000fd5b6000601f19601f8301169050919050565b7f456e756d657261626c655365743a20696e646578206f7574206f6620626f756e60008201527f6473000000000000000000000000000000000000000000000000000000000000602082015250565b7f4552433732313a207472616e7366657220746f206e6f6e20455243373231526560008201527f63656976657220696d706c656d656e7465720000000000000000000000000000602082015250565b7f4552433732313a20746f6b656e20616c7265616479206d696e74656400000000600082015250565b7f4552433732313a207472616e7366657220746f20746865207a65726f2061646460008201527f7265737300000000000000000000000000000000000000000000000000000000602082015250565b7f4552433732313a20617070726f766520746f2063616c6c657200000000000000600082015250565b7f4552433732313a206f70657261746f7220717565727920666f72206e6f6e657860008201527f697374656e7420746f6b656e0000000000000000000000000000000000000000602082015250565b7f4552433732313a20617070726f76652063616c6c6572206973206e6f74206f7760008201527f6e6572206e6f7220617070726f76656420666f7220616c6c0000000000000000602082015250565b7f4552433732313a2062616c616e636520717565727920666f7220746865207a6560008201527f726f206164647265737300000000000000000000000000000000000000000000602082015250565b7f456e756d657261626c654d61703a20696e646578206f7574206f6620626f756e60008201527f6473000000000000000000000000000000000000000000000000000000000000602082015250565b7f4552433732313a206d696e7420746f20746865207a65726f2061646472657373600082015250565b7f4552433732313a20617070726f76656420717565727920666f72206e6f6e657860008201527f697374656e7420746f6b656e0000000000000000000000000000000000000000602082015250565b7f4552433732313a207472616e73666572206f6620746f6b656e2074686174206960008201527f73206e6f74206f776e0000000000000000000000000000000000000000000000602082015250565b7f4552433732314d657461646174613a2055524920717565727920666f72206e6f60008201527f6e6578697374656e7420746f6b656e0000000000000000000000000000000000602082015250565b7f4552433732313a20617070726f76616c20746f2063757272656e74206f776e6560008201527f7200000000000000000000000000000000000000000000000000000000000000602082015250565b7f4552433732313a207472616e736665722063616c6c6572206973206e6f74206f60008201527f776e6572206e6f7220617070726f766564000000000000000000000000000000602082015250565b7f4552433732314275726e61626c653a2063616c6c6572206973206e6f74206f7760008201527f6e6572206e6f7220617070726f76656400000000000000000000000000000000602082015250565b61321a81612b33565b811461322557600080fd5b50565b61323181612b45565b811461323c57600080fd5b50565b61324881612b51565b811461325357600080fd5b50565b61325f81612b9d565b811461326a57600080fd5b5056fe4552433732313a206f776e657220717565727920666f72206e6f6e6578697374656e7420746f6b656ea2646970667358221220b8f5ad50de6c226c99c6526de12b5cb213bdcb7c49f76b160bc0234c9f48460d64736f6c63430008040033",
  "linkReferences": {},
  "deployedLinkReferences": {}
}