{
  "_format": "hh-sol-artifact-1",
  "contractName": "AccessControlEnumerableMockUpgradeableWithInit",
  "sourceName": "contracts/src/OpenZeppelin/upgradeable/mocks/WithInit.sol",
  "abi": [
    {
      "inputs": [],
      "stateMutability": "payable",
      "type": "constructor"
    },
    {
      "anonymous": false,
      "inputs": [
        {
          "indexed": true,
          "internalType": "bytes32",
          "name": "role",
          "type": "bytes32"
        },
        {
          "indexed": true,
          "internalType": "bytes32",
          "name": "previousAdminRole",
          "type": "bytes32"
        },
        {
          "indexed": true,
          "internalType": "bytes32",
          "name": "newAdminRole",
          "type": "bytes32"
        }
      ],
      "name": "RoleAdminChanged",
      "type": "event"
    },
    {
      "anonymous": false,
      "inputs": [
        {
          "indexed": true,
          "internalType": "bytes32",
          "name": "role",
          "type": "bytes32"
        },
        {
          "indexed": true,
          "internalType": "address",
          "name": "account",
          "type": "address"
        },
        {
          "indexed": true,
          "internalType": "address",
          "name": "sender",
          "type": "address"
        }
      ],
      "name": "RoleGranted",
      "type": "event"
    },
    {
      "anonymous": false,
      "inputs": [
        {
          "indexed": true,
          "internalType": "bytes32",
          "name": "role",
          "type": "bytes32"
        },
        {
          "indexed": true,
          "internalType": "address",
          "name": "account",
          "type": "address"
        },
        {
          "indexed": true,
          "internalType": "address",
          "name": "sender",
          "type": "address"
        }
      ],
      "name": "RoleRevoked",
      "type": "event"
    },
    {
      "inputs": [],
      "name": "DEFAULT_ADMIN_ROLE",
      "outputs": [
        {
          "internalType": "bytes32",
          "name": "",
          "type": "bytes32"
        }
      ],
      "stateMutability": "view",
      "type": "function"
    },
    {
      "inputs": [
        {
          "internalType": "bytes32",
          "name": "role",
          "type": "bytes32"
        }
      ],
      "name": "getRoleAdmin",
      "outputs": [
        {
          "internalType": "bytes32",
          "name": "",
          "type": "bytes32"
        }
      ],
      "stateMutability": "view",
      "type": "function"
    },
    {
      "inputs": [
        {
          "internalType": "bytes32",
          "name": "role",
          "type": "bytes32"
        },
        {
          "internalType": "uint256",
          "name": "index",
          "type": "uint256"
        }
      ],
      "name": "getRoleMember",
      "outputs": [
        {
          "internalType": "address",
          "name": "",
          "type": "address"
        }
      ],
      "stateMutability": "view",
      "type": "function"
    },
    {
      "inputs": [
        {
          "internalType": "bytes32",
          "name": "role",
          "type": "bytes32"
        }
      ],
      "name": "getRoleMemberCount",
      "outputs": [
        {
          "internalType": "uint256",
          "name": "",
          "type": "uint256"
        }
      ],
      "stateMutability": "view",
      "type": "function"
    },
    {
      "inputs": [
        {
          "internalType": "bytes32",
          "name": "role",
          "type": "bytes32"
        },
        {
          "internalType": "address",
          "name": "account",
          "type": "address"
        }
      ],
      "name": "grantRole",
      "outputs": [],
      "stateMutability": "nonpayable",
      "type": "function"
    },
    {
      "inputs": [
        {
          "internalType": "bytes32",
          "name": "role",
          "type": "bytes32"
        },
        {
          "internalType": "address",
          "name": "account",
          "type": "address"
        }
      ],
      "name": "hasRole",
      "outputs": [
        {
          "internalType": "bool",
          "name": "",
          "type": "bool"
        }
      ],
      "stateMutability": "view",
      "type": "function"
    },
    {
      "inputs": [
        {
          "internalType": "bytes32",
          "name": "role",
          "type": "bytes32"
        },
        {
          "internalType": "address",
          "name": "account",
          "type": "address"
        }
      ],
      "name": "renounceRole",
      "outputs": [],
      "stateMutability": "nonpayable",
      "type": "function"
    },
    {
      "inputs": [
        {
          "internalType": "bytes32",
          "name": "role",
          "type": "bytes32"
        },
        {
          "internalType": "address",
          "name": "account",
          "type": "address"
        }
      ],
      "name": "revokeRole",
      "outputs": [],
      "stateMutability": "nonpayable",
      "type": "function"
    },
    {
      "inputs": [
        {
          "internalType": "bytes32",
          "name": "roleId",
          "type": "bytes32"
        }
      ],
      "name": "senderProtected",
      "outputs": [],
      "stateMutability": "nonpayable",
      "type": "function"
    },
    {
      "inputs": [
        {
          "internalType": "bytes32",
          "name": "roleId",
          "type": "bytes32"
        },
        {
          "internalType": "bytes32",
          "name": "adminRoleId",
          "type": "bytes32"
        }
      ],
      "name": "setRoleAdmin",
      "outputs": [],
      "stateMutability": "nonpayable",
      "type": "function"
    },
    {
      "inputs": [
        {
          "internalType": "bytes4",
          "name": "interfaceId",
          "type": "bytes4"
        }
      ],
      "name": "supportsInterface",
      "outputs": [
        {
          "internalType": "bool",
          "name": "",
          "type": "bool"
        }
      ],
      "stateMutability": "view",
      "type": "function"
    }
  ],
  "bytecode": "0x6080604052620000146200001a60201b60201c565b62000909565b600060019054906101000a900460ff168062000041575060008054906101000a900460ff16155b62000083576040517f08c379a00000000000000000000000000000000000000000000000000000000081526004016200007a9062000887565b60405180910390fd5b60008060019054906101000a900460ff161590508015620000d4576001600060016101000a81548160ff02191690831515021790555060016000806101000a81548160ff0219169083151502179055505b620000e46200014960201b60201c565b620000f46200022860201b60201c565b620001046200030760201b60201c565b62000114620003e660201b60201c565b62000124620004c560201b60201c565b8015620001465760008060016101000a81548160ff0219169083151502179055505b50565b600060019054906101000a900460ff168062000170575060008054906101000a900460ff16155b620001b2576040517f08c379a0000000000000000000000000000000000000000000000000000000008152600401620001a99062000887565b60405180910390fd5b60008060019054906101000a900460ff16159050801562000203576001600060016101000a81548160ff02191690831515021790555060016000806101000a81548160ff0219169083151502179055505b8015620002255760008060016101000a81548160ff0219169083151502179055505b50565b600060019054906101000a900460ff16806200024f575060008054906101000a900460ff16155b62000291576040517f08c379a0000000000000000000000000000000000000000000000000000000008152600401620002889062000887565b60405180910390fd5b60008060019054906101000a900460ff161590508015620002e2576001600060016101000a81548160ff02191690831515021790555060016000806101000a81548160ff0219169083151502179055505b8015620003045760008060016101000a81548160ff0219169083151502179055505b50565b600060019054906101000a900460ff16806200032e575060008054906101000a900460ff16155b62000370576040517f08c379a0000000000000000000000000000000000000000000000000000000008152600401620003679062000887565b60405180910390fd5b60008060019054906101000a900460ff161590508015620003c1576001600060016101000a81548160ff02191690831515021790555060016000806101000a81548160ff0219169083151502179055505b8015620003e35760008060016101000a81548160ff0219169083151502179055505b50565b600060019054906101000a900460ff16806200040d575060008054906101000a900460ff16155b6200044f576040517f08c379a0000000000000000000000000000000000000000000000000000000008152600401620004469062000887565b60405180910390fd5b60008060019054906101000a900460ff161590508015620004a0576001600060016101000a81548160ff02191690831515021790555060016000806101000a81548160ff0219169083151502179055505b8015620004c25760008060016101000a81548160ff0219169083151502179055505b50565b600060019054906101000a900460ff1680620004ec575060008054906101000a900460ff16155b6200052e576040517f08c379a0000000000000000000000000000000000000000000000000000000008152600401620005259062000887565b60405180910390fd5b60008060019054906101000a900460ff1615905080156200057f576001600060016101000a81548160ff02191690831515021790555060016000806101000a81548160ff0219169083151502179055505b620005a36000801b62000597620005c860201b60201c565b620005d060201b60201c565b8015620005c55760008060016101000a81548160ff0219169083151502179055505b50565b600033905090565b620005e782826200061860201b620004671760201c565b6200061381609760008581526020019081526020016000206200062e60201b620004751790919060201c565b505050565b6200062a82826200066660201b60201c565b5050565b60006200065e836000018373ffffffffffffffffffffffffffffffffffffffff1660001b6200075860201b60201c565b905092915050565b620006788282620007d260201b60201c565b620007545760016065600084815260200190815260200160002060000160008373ffffffffffffffffffffffffffffffffffffffff1673ffffffffffffffffffffffffffffffffffffffff16815260200190815260200160002060006101000a81548160ff021916908315150217905550620006f9620005c860201b60201c565b73ffffffffffffffffffffffffffffffffffffffff168173ffffffffffffffffffffffffffffffffffffffff16837f2f8788117e7eff1d82e926ec794901d17c78024a50270940304540a733656f0d60405160405180910390a45b5050565b60006200076c83836200083d60201b60201c565b620007c7578260000182908060018154018082558091505060019003906000526020600020016000909190919091505582600001805490508360010160008481526020019081526020016000208190555060019050620007cc565b600090505b92915050565b60006065600084815260200190815260200160002060000160008373ffffffffffffffffffffffffffffffffffffffff1673ffffffffffffffffffffffffffffffffffffffff16815260200190815260200160002060009054906101000a900460ff16905092915050565b600080836001016000848152602001908152602001600020541415905092915050565b60006200086f602e83620008a9565b91506200087c82620008ba565b604082019050919050565b60006020820190508181036000830152620008a28162000860565b9050919050565b600082825260208201905092915050565b7f496e697469616c697a61626c653a20636f6e747261637420697320616c72656160008201527f647920696e697469616c697a6564000000000000000000000000000000000000602082015250565b61160c80620009196000396000f3fe608060405234801561001057600080fd5b50600436106100a95760003560e01c80634b9304a4116100715780634b9304a4146101625780639010d07c1461017e57806391d14854146101ae578063a217fddf146101de578063ca15c873146101fc578063d547741f1461022c576100a9565b806301ffc9a7146100ae5780631e4e0091146100de578063248a9ca3146100fa5780632f2ff15d1461012a57806336568abe14610146575b600080fd5b6100c860048036038101906100c39190611027565b610248565b6040516100d591906111d7565b60405180910390f35b6100f860048036038101906100f39190610faf565b6102c2565b005b610114600480360381019061010f9190610f4a565b6102d0565b60405161012191906111f2565b60405180910390f35b610144600480360381019061013f9190610f73565b6102f0565b005b610160600480360381019061015b9190610f73565b610324565b005b61017c60048036038101906101779190610f4a565b610358565b005b61019860048036038101906101939190610feb565b61036e565b6040516101a591906111bc565b60405180910390f35b6101c860048036038101906101c39190610f73565b61039d565b6040516101d591906111d7565b60405180910390f35b6101e6610408565b6040516101f391906111f2565b60405180910390f35b61021660048036038101906102119190610f4a565b61040f565b604051610223919061126f565b60405180910390f35b61024660048036038101906102419190610f73565b610433565b005b60007f5a05180f000000000000000000000000000000000000000000000000000000007bffffffffffffffffffffffffffffffffffffffffffffffffffffffff1916827bffffffffffffffffffffffffffffffffffffffffffffffffffffffff191614806102bb57506102ba826104a5565b5b9050919050565b6102cc828261051f565b5050565b600060656000838152602001908152602001600020600101549050919050565b6102fa828261057b565b61031f816097600085815260200190815260200160002061047590919063ffffffff16565b505050565b61032e82826105a4565b610353816097600085815260200190815260200160002061062790919063ffffffff16565b505050565b8061036a81610365610657565b61065f565b5050565b600061039582609760008681526020019081526020016000206106fc90919063ffffffff16565b905092915050565b60006065600084815260200190815260200160002060000160008373ffffffffffffffffffffffffffffffffffffffff1673ffffffffffffffffffffffffffffffffffffffff16815260200190815260200160002060009054906101000a900460ff16905092915050565b6000801b81565b600061042c60976000848152602001908152602001600020610716565b9050919050565b61043d828261072b565b610462816097600085815260200190815260200160002061062790919063ffffffff16565b505050565b6104718282610754565b5050565b600061049d836000018373ffffffffffffffffffffffffffffffffffffffff1660001b610835565b905092915050565b60007f7965db0b000000000000000000000000000000000000000000000000000000007bffffffffffffffffffffffffffffffffffffffffffffffffffffffff1916827bffffffffffffffffffffffffffffffffffffffffffffffffffffffff191614806105185750610517826108a5565b5b9050919050565b600061052a836102d0565b90508160656000858152602001908152602001600020600101819055508181847fbd79b86ffe0ab8e8776151514217cd7cacd52c909f66475c3af44e129f0b00ff60405160405180910390a4505050565b610584826102d0565b61059581610590610657565b61065f565b61059f8383610754565b505050565b6105ac610657565b73ffffffffffffffffffffffffffffffffffffffff168173ffffffffffffffffffffffffffffffffffffffff1614610619576040517f08c379a00000000000000000000000000000000000000000000000000000000081526004016106109061124f565b60405180910390fd5b610623828261090f565b5050565b600061064f836000018373ffffffffffffffffffffffffffffffffffffffff1660001b6109f1565b905092915050565b600033905090565b610669828261039d565b6106f85761068e8173ffffffffffffffffffffffffffffffffffffffff166014610b77565b61069c8360001c6020610b77565b6040516020016106ad929190611182565b6040516020818303038152906040526040517f08c379a00000000000000000000000000000000000000000000000000000000081526004016106ef919061120d565b60405180910390fd5b5050565b600061070b8360000183610e71565b60001c905092915050565b600061072482600001610ec2565b9050919050565b610734826102d0565b61074581610740610657565b61065f565b61074f838361090f565b505050565b61075e828261039d565b6108315760016065600084815260200190815260200160002060000160008373ffffffffffffffffffffffffffffffffffffffff1673ffffffffffffffffffffffffffffffffffffffff16815260200190815260200160002060006101000a81548160ff0219169083151502179055506107d6610657565b73ffffffffffffffffffffffffffffffffffffffff168173ffffffffffffffffffffffffffffffffffffffff16837f2f8788117e7eff1d82e926ec794901d17c78024a50270940304540a733656f0d60405160405180910390a45b5050565b60006108418383610ed3565b61089a57826000018290806001815401808255809150506001900390600052602060002001600090919091909150558260000180549050836001016000848152602001908152602001600020819055506001905061089f565b600090505b92915050565b60007f01ffc9a7000000000000000000000000000000000000000000000000000000007bffffffffffffffffffffffffffffffffffffffffffffffffffffffff1916827bffffffffffffffffffffffffffffffffffffffffffffffffffffffff1916149050919050565b610919828261039d565b156109ed5760006065600084815260200190815260200160002060000160008373ffffffffffffffffffffffffffffffffffffffff1673ffffffffffffffffffffffffffffffffffffffff16815260200190815260200160002060006101000a81548160ff021916908315150217905550610992610657565b73ffffffffffffffffffffffffffffffffffffffff168173ffffffffffffffffffffffffffffffffffffffff16837ff6391f5c32d9c69d2a47ea670b442974b53935d1edc7fd64eb21e047a839171b60405160405180910390a45b5050565b60008083600101600084815260200190815260200160002054905060008114610b6b576000600182610a239190611361565b9050600060018660000180549050610a3b9190611361565b9050818114610af6576000866000018281548110610a82577f4e487b7100000000000000000000000000000000000000000000000000000000600052603260045260246000fd5b9060005260206000200154905080876000018481548110610acc577f4e487b7100000000000000000000000000000000000000000000000000000000600052603260045260246000fd5b90600052602060002001819055508387600101600083815260200190815260200160002081905550505b85600001805480610b30577f4e487b7100000000000000000000000000000000000000000000000000000000600052603160045260246000fd5b600190038181906000526020600020016000905590558560010160008681526020019081526020016000206000905560019350505050610b71565b60009150505b92915050565b606060006002836002610b8a9190611307565b610b9491906112b1565b67ffffffffffffffff811115610bd3577f4e487b7100000000000000000000000000000000000000000000000000000000600052604160045260246000fd5b6040519080825280601f01601f191660200182016040528015610c055781602001600182028036833780820191505090505b5090507f300000000000000000000000000000000000000000000000000000000000000081600081518110610c63577f4e487b7100000000000000000000000000000000000000000000000000000000600052603260045260246000fd5b60200101907effffffffffffffffffffffffffffffffffffffffffffffffffffffffffffff1916908160001a9053507f780000000000000000000000000000000000000000000000000000000000000081600181518110610ced577f4e487b7100000000000000000000000000000000000000000000000000000000600052603260045260246000fd5b60200101907effffffffffffffffffffffffffffffffffffffffffffffffffffffffffffff1916908160001a90535060006001846002610d2d9190611307565b610d3791906112b1565b90505b6001811115610e23577f3031323334353637383961626364656600000000000000000000000000000000600f861660108110610d9f577f4e487b7100000000000000000000000000000000000000000000000000000000600052603260045260246000fd5b1a60f81b828281518110610ddc577f4e487b7100000000000000000000000000000000000000000000000000000000600052603260045260246000fd5b60200101907effffffffffffffffffffffffffffffffffffffffffffffffffffffffffffff1916908160001a905350600485901c945080610e1c90611446565b9050610d3a565b5060008414610e67576040517f08c379a0000000000000000000000000000000000000000000000000000000008152600401610e5e9061122f565b60405180910390fd5b8091505092915050565b6000826000018281548110610eaf577f4e487b7100000000000000000000000000000000000000000000000000000000600052603260045260246000fd5b9060005260206000200154905092915050565b600081600001805490509050919050565b600080836001016000848152602001908152602001600020541415905092915050565b600081359050610f058161157a565b92915050565b600081359050610f1a81611591565b92915050565b600081359050610f2f816115a8565b92915050565b600081359050610f44816115bf565b92915050565b600060208284031215610f5c57600080fd5b6000610f6a84828501610f0b565b91505092915050565b60008060408385031215610f8657600080fd5b6000610f9485828601610f0b565b9250506020610fa585828601610ef6565b9150509250929050565b60008060408385031215610fc257600080fd5b6000610fd085828601610f0b565b9250506020610fe185828601610f0b565b9150509250929050565b60008060408385031215610ffe57600080fd5b600061100c85828601610f0b565b925050602061101d85828601610f35565b9150509250929050565b60006020828403121561103957600080fd5b600061104784828501610f20565b91505092915050565b61105981611395565b82525050565b611068816113a7565b82525050565b611077816113b3565b82525050565b60006110888261128a565b6110928185611295565b93506110a2818560208601611413565b6110ab8161149f565b840191505092915050565b60006110c18261128a565b6110cb81856112a6565b93506110db818560208601611413565b80840191505092915050565b60006110f4602083611295565b91506110ff826114b0565b602082019050919050565b60006111176017836112a6565b9150611122826114d9565b601782019050919050565b600061113a6011836112a6565b915061114582611502565b601182019050919050565b600061115d602f83611295565b91506111688261152b565b604082019050919050565b61117c81611409565b82525050565b600061118d8261110a565b915061119982856110b6565b91506111a48261112d565b91506111b082846110b6565b91508190509392505050565b60006020820190506111d16000830184611050565b92915050565b60006020820190506111ec600083018461105f565b92915050565b6000602082019050611207600083018461106e565b92915050565b60006020820190508181036000830152611227818461107d565b905092915050565b60006020820190508181036000830152611248816110e7565b9050919050565b6000602082019050818103600083015261126881611150565b9050919050565b60006020820190506112846000830184611173565b92915050565b600081519050919050565b600082825260208201905092915050565b600081905092915050565b60006112bc82611409565b91506112c783611409565b9250827fffffffffffffffffffffffffffffffffffffffffffffffffffffffffffffffff038211156112fc576112fb611470565b5b828201905092915050565b600061131282611409565b915061131d83611409565b9250817fffffffffffffffffffffffffffffffffffffffffffffffffffffffffffffffff048311821515161561135657611355611470565b5b828202905092915050565b600061136c82611409565b915061137783611409565b92508282101561138a57611389611470565b5b828203905092915050565b60006113a0826113e9565b9050919050565b60008115159050919050565b6000819050919050565b60007fffffffff0000000000000000000000000000000000000000000000000000000082169050919050565b600073ffffffffffffffffffffffffffffffffffffffff82169050919050565b6000819050919050565b60005b83811015611431578082015181840152602081019050611416565b83811115611440576000848401525b50505050565b600061145182611409565b9150600082141561146557611464611470565b5b600182039050919050565b7f4e487b7100000000000000000000000000000000000000000000000000000000600052601160045260246000fd5b6000601f19601f8301169050919050565b7f537472696e67733a20686578206c656e67746820696e73756666696369656e74600082015250565b7f416363657373436f6e74726f6c3a206163636f756e7420000000000000000000600082015250565b7f206973206d697373696e6720726f6c6520000000000000000000000000000000600082015250565b7f416363657373436f6e74726f6c3a2063616e206f6e6c792072656e6f756e636560008201527f20726f6c657320666f722073656c660000000000000000000000000000000000602082015250565b61158381611395565b811461158e57600080fd5b50565b61159a816113b3565b81146115a557600080fd5b50565b6115b1816113bd565b81146115bc57600080fd5b50565b6115c881611409565b81146115d357600080fd5b5056fea2646970667358221220c567a12150049cd37876779f3f64a0ce2a204cd6fc3fb19921cbb9c52f7d1ba964736f6c63430008040033",
  "linkReferences": {},
  "deployedLinkReferences": {}
}