{
  "_format": "hh-sol-artifact-1",
  "contractName": "BitMapMockUpgradeableWithInit",
  "sourceName": "contracts/src/OpenZeppelin/upgradeable/mocks/WithInit.sol",
  "abi": [
    {
      "inputs": [],
      "stateMutability": "payable",
      "type": "constructor"
    },
    {
      "inputs": [
        {
          "internalType": "uint256",
          "name": "index",
          "type": "uint256"
        }
      ],
      "name": "get",
      "outputs": [
        {
          "internalType": "bool",
          "name": "",
          "type": "bool"
        }
      ],
      "stateMutability": "view",
      "type": "function"
    },
    {
      "inputs": [
        {
          "internalType": "uint256",
          "name": "index",
          "type": "uint256"
        }
      ],
      "name": "set",
      "outputs": [],
      "stateMutability": "nonpayable",
      "type": "function"
    },
    {
      "inputs": [
        {
          "internalType": "uint256",
          "name": "index",
          "type": "uint256"
        },
        {
          "internalType": "bool",
          "name": "value",
          "type": "bool"
        }
      ],
      "name": "setTo",
      "outputs": [],
      "stateMutability": "nonpayable",
      "type": "function"
    },
    {
      "inputs": [
        {
          "internalType": "uint256",
          "name": "index",
          "type": "uint256"
        }
      ],
      "name": "unset",
      "outputs": [],
      "stateMutability": "nonpayable",
      "type": "function"
    }
  ],
  "bytecode": "0x608060405261001261001760201b60201c565b61027a565b600060019054906101000a900460ff168061003d575060008054906101000a900460ff16155b61007c576040517f08c379a0000000000000000000000000000000000000000000000000000000008152600401610073906101fa565b60405180910390fd5b60008060019054906101000a900460ff1615905080156100cc576001600060016101000a81548160ff02191690831515021790555060016000806101000a81548160ff0219169083151502179055505b6100da6100fe60201b60201c565b80156100fb5760008060016101000a81548160ff0219169083151502179055505b50565b600060019054906101000a900460ff1680610124575060008054906101000a900460ff16155b610163576040517f08c379a000000000000000000000000000000000000000000000000000000000815260040161015a906101fa565b60405180910390fd5b60008060019054906101000a900460ff1615905080156101b3576001600060016101000a81548160ff02191690831515021790555060016000806101000a81548160ff0219169083151502179055505b80156101d45760008060016101000a81548160ff0219169083151502179055505b50565b60006101e4602e8361021a565b91506101ef8261022b565b604082019050919050565b60006020820190508181036000830152610213816101d7565b9050919050565b600082825260208201905092915050565b7f496e697469616c697a61626c653a20636f6e747261637420697320616c72656160008201527f647920696e697469616c697a6564000000000000000000000000000000000000602082015250565b610415806102896000396000f3fe608060405234801561001057600080fd5b506004361061004c5760003560e01c8063088d22551461005157806360fe47b11461006d5780639507d39a14610089578063dcc9d43c146100b9575b600080fd5b61006b6004803603810190610066919061027b565b6100d5565b005b6100876004803603810190610082919061027b565b6100ec565b005b6100a3600480360381019061009e919061027b565b610103565b6040516100b091906102ef565b60405180910390f35b6100d360048036038101906100ce91906102a4565b610120565b005b6100e981600161013a90919063ffffffff16565b50565b61010081600161018c90919063ffffffff16565b50565b60006101198260016101dd90919063ffffffff16565b9050919050565b6101368282600161022c9092919063ffffffff16565b5050565b60006101008261014a919061030a565b905060006101008361015c9190610351565b6001901b905080198460000160008481526020019081526020016000206000828254169250508190555050505050565b60006101008261019c919061030a565b90506000610100836101ae9190610351565b6001901b9050808460000160008481526020019081526020016000206000828254179250508190555050505050565b600080610100836101ee919061030a565b90506000610100846102009190610351565b6001901b9050600081866000016000858152602001908152602001600020541614159250505092915050565b80156102415761023c838361018c565b61024c565b61024b838361013a565b5b505050565b600081359050610260816103b1565b92915050565b600081359050610275816103c8565b92915050565b60006020828403121561028d57600080fd5b600061029b84828501610266565b91505092915050565b600080604083850312156102b757600080fd5b60006102c585828601610266565b92505060206102d685828601610251565b9150509250929050565b6102e98161033b565b82525050565b600060208201905061030460008301846102e0565b92915050565b600061031582610347565b915061032083610347565b9250826103305761032f610382565b5b828204905092915050565b60008115159050919050565b6000819050919050565b600061035c82610347565b915061036783610347565b92508261037757610376610382565b5b828206905092915050565b7f4e487b7100000000000000000000000000000000000000000000000000000000600052601260045260246000fd5b6103ba8161033b565b81146103c557600080fd5b50565b6103d181610347565b81146103dc57600080fd5b5056fea264697066735822122066aa55b1336413a77cce1611345ec5c8adeb46c2d35b151fe156e6bd03ce6b5964736f6c63430008040033",
  "linkReferences": {},
  "deployedLinkReferences": {}
}