{
  "_format": "hh-sol-artifact-1",
  "contractName": "ConditionalEscrowMockUpgradeableWithInit",
  "sourceName": "contracts/src/OpenZeppelin/upgradeable/mocks/WithInit.sol",
  "abi": [
    {
      "inputs": [],
      "stateMutability": "payable",
      "type": "constructor"
    },
    {
      "anonymous": false,
      "inputs": [
        {
          "indexed": true,
          "internalType": "address",
          "name": "payee",
          "type": "address"
        },
        {
          "indexed": false,
          "internalType": "uint256",
          "name": "weiAmount",
          "type": "uint256"
        }
      ],
      "name": "Deposited",
      "type": "event"
    },
    {
      "anonymous": false,
      "inputs": [
        {
          "indexed": true,
          "internalType": "address",
          "name": "previousOwner",
          "type": "address"
        },
        {
          "indexed": true,
          "internalType": "address",
          "name": "newOwner",
          "type": "address"
        }
      ],
      "name": "OwnershipTransferred",
      "type": "event"
    },
    {
      "anonymous": false,
      "inputs": [
        {
          "indexed": true,
          "internalType": "address",
          "name": "payee",
          "type": "address"
        },
        {
          "indexed": false,
          "internalType": "uint256",
          "name": "weiAmount",
          "type": "uint256"
        }
      ],
      "name": "Withdrawn",
      "type": "event"
    },
    {
      "inputs": [
        {
          "internalType": "address",
          "name": "payee",
          "type": "address"
        }
      ],
      "name": "deposit",
      "outputs": [],
      "stateMutability": "payable",
      "type": "function"
    },
    {
      "inputs": [
        {
          "internalType": "address",
          "name": "payee",
          "type": "address"
        }
      ],
      "name": "depositsOf",
      "outputs": [
        {
          "internalType": "uint256",
          "name": "",
          "type": "uint256"
        }
      ],
      "stateMutability": "view",
      "type": "function"
    },
    {
      "inputs": [],
      "name": "initialize",
      "outputs": [],
      "stateMutability": "nonpayable",
      "type": "function"
    },
    {
      "inputs": [],
      "name": "owner",
      "outputs": [
        {
          "internalType": "address",
          "name": "",
          "type": "address"
        }
      ],
      "stateMutability": "view",
      "type": "function"
    },
    {
      "inputs": [],
      "name": "renounceOwnership",
      "outputs": [],
      "stateMutability": "nonpayable",
      "type": "function"
    },
    {
      "inputs": [
        {
          "internalType": "address",
          "name": "payee",
          "type": "address"
        },
        {
          "internalType": "bool",
          "name": "allowed",
          "type": "bool"
        }
      ],
      "name": "setAllowed",
      "outputs": [],
      "stateMutability": "nonpayable",
      "type": "function"
    },
    {
      "inputs": [
        {
          "internalType": "address",
          "name": "newOwner",
          "type": "address"
        }
      ],
      "name": "transferOwnership",
      "outputs": [],
      "stateMutability": "nonpayable",
      "type": "function"
    },
    {
      "inputs": [
        {
          "internalType": "address payable",
          "name": "payee",
          "type": "address"
        }
      ],
      "name": "withdraw",
      "outputs": [],
      "stateMutability": "nonpayable",
      "type": "function"
    },
    {
      "inputs": [
        {
          "internalType": "address",
          "name": "payee",
          "type": "address"
        }
      ],
      "name": "withdrawalAllowed",
      "outputs": [
        {
          "internalType": "bool",
          "name": "",
          "type": "bool"
        }
      ],
      "stateMutability": "view",
      "type": "function"
    }
  ],
  "bytecode": "0x6080604052620000146200001a60201b60201c565b6200073b565b600060019054906101000a900460ff168062000041575060008054906101000a900460ff16155b62000083576040517f08c379a00000000000000000000000000000000000000000000000000000000081526004016200007a90620006b9565b60405180910390fd5b60008060019054906101000a900460ff161590508015620000d4576001600060016101000a81548160ff02191690831515021790555060016000806101000a81548160ff0219169083151502179055505b620000e46200014960201b60201c565b620000f46200022860201b60201c565b620001046200032760201b60201c565b620001146200040660201b60201c565b62000124620004e560201b60201c565b8015620001465760008060016101000a81548160ff0219169083151502179055505b50565b600060019054906101000a900460ff168062000170575060008054906101000a900460ff16155b620001b2576040517f08c379a0000000000000000000000000000000000000000000000000000000008152600401620001a990620006b9565b60405180910390fd5b60008060019054906101000a900460ff16159050801562000203576001600060016101000a81548160ff02191690831515021790555060016000806101000a81548160ff0219169083151502179055505b8015620002255760008060016101000a81548160ff0219169083151502179055505b50565b600060019054906101000a900460ff16806200024f575060008054906101000a900460ff16155b62000291576040517f08c379a00000000000000000000000000000000000000000000000000000000081526004016200028890620006b9565b60405180910390fd5b60008060019054906101000a900460ff161590508015620002e2576001600060016101000a81548160ff02191690831515021790555060016000806101000a81548160ff0219169083151502179055505b62000302620002f6620005c460201b60201c565b620005cc60201b60201c565b8015620003245760008060016101000a81548160ff0219169083151502179055505b50565b600060019054906101000a900460ff16806200034e575060008054906101000a900460ff16155b62000390576040517f08c379a00000000000000000000000000000000000000000000000000000000081526004016200038790620006b9565b60405180910390fd5b60008060019054906101000a900460ff161590508015620003e1576001600060016101000a81548160ff02191690831515021790555060016000806101000a81548160ff0219169083151502179055505b8015620004035760008060016101000a81548160ff0219169083151502179055505b50565b600060019054906101000a900460ff16806200042d575060008054906101000a900460ff16155b6200046f576040517f08c379a00000000000000000000000000000000000000000000000000000000081526004016200046690620006b9565b60405180910390fd5b60008060019054906101000a900460ff161590508015620004c0576001600060016101000a81548160ff02191690831515021790555060016000806101000a81548160ff0219169083151502179055505b8015620004e25760008060016101000a81548160ff0219169083151502179055505b50565b600060019054906101000a900460ff16806200050c575060008054906101000a900460ff16155b6200054e576040517f08c379a00000000000000000000000000000000000000000000000000000000081526004016200054590620006b9565b60405180910390fd5b60008060019054906101000a900460ff1615905080156200059f576001600060016101000a81548160ff02191690831515021790555060016000806101000a81548160ff0219169083151502179055505b8015620005c15760008060016101000a81548160ff0219169083151502179055505b50565b600033905090565b6000603360009054906101000a900473ffffffffffffffffffffffffffffffffffffffff16905081603360006101000a81548173ffffffffffffffffffffffffffffffffffffffff021916908373ffffffffffffffffffffffffffffffffffffffff1602179055508173ffffffffffffffffffffffffffffffffffffffff168173ffffffffffffffffffffffffffffffffffffffff167f8be0079c531659141344cd1fd0a4f28419497f9722a3daafe3b4186f6b6457e060405160405180910390a35050565b6000620006a1602e83620006db565b9150620006ae82620006ec565b604082019050919050565b60006020820190508181036000830152620006d48162000692565b9050919050565b600082825260208201905092915050565b7f496e697469616c697a61626c653a20636f6e747261637420697320616c72656160008201527f647920696e697469616c697a6564000000000000000000000000000000000000602082015250565b6113e1806200074b6000396000f3fe6080604052600436106100865760003560e01c80638129fc1c116100595780638129fc1c146101315780638da5cb5b14610148578063e3a9db1a14610173578063f2fde38b146101b0578063f340fa01146101d957610086565b80634697f05d1461008b57806351cff8d9146100b4578063685ca194146100dd578063715018a61461011a575b600080fd5b34801561009757600080fd5b506100b260048036038101906100ad9190610e56565b6101f5565b005b3480156100c057600080fd5b506100db60048036038101906100d69190610e2d565b610250565b005b3480156100e957600080fd5b5061010460048036038101906100ff9190610e04565b6102a4565b6040516101119190610fe4565b60405180910390f35b34801561012657600080fd5b5061012f6102fa565b005b34801561013d57600080fd5b50610146610382565b005b34801561015457600080fd5b5061015d610463565b60405161016a9190610fc9565b60405180910390f35b34801561017f57600080fd5b5061019a60048036038101906101959190610e04565b61048d565b6040516101a791906110bf565b60405180910390f35b3480156101bc57600080fd5b506101d760048036038101906101d29190610e04565b6104d6565b005b6101f360048036038101906101ee9190610e04565b6105ce565b005b8060c960008473ffffffffffffffffffffffffffffffffffffffff1673ffffffffffffffffffffffffffffffffffffffff16815260200190815260200160002060006101000a81548160ff0219169083151502179055505050565b610259816102a4565b610298576040517f08c379a000000000000000000000000000000000000000000000000000000000815260040161028f9061107f565b60405180910390fd5b6102a1816106f7565b50565b600060c960008373ffffffffffffffffffffffffffffffffffffffff1673ffffffffffffffffffffffffffffffffffffffff16815260200190815260200160002060009054906101000a900460ff169050919050565b610302610877565b73ffffffffffffffffffffffffffffffffffffffff16610320610463565b73ffffffffffffffffffffffffffffffffffffffff1614610376576040517f08c379a000000000000000000000000000000000000000000000000000000000815260040161036d9061109f565b60405180910390fd5b610380600061087f565b565b600060019054906101000a900460ff16806103a8575060008054906101000a900460ff16155b6103e7576040517f08c379a00000000000000000000000000000000000000000000000000000000081526004016103de9061105f565b60405180910390fd5b60008060019054906101000a900460ff161590508015610437576001600060016101000a81548160ff02191690831515021790555060016000806101000a81548160ff0219169083151502179055505b61043f610945565b80156104605760008060016101000a81548160ff0219169083151502179055505b50565b6000603360009054906101000a900473ffffffffffffffffffffffffffffffffffffffff16905090565b6000606560008373ffffffffffffffffffffffffffffffffffffffff1673ffffffffffffffffffffffffffffffffffffffff168152602001908152602001600020549050919050565b6104de610877565b73ffffffffffffffffffffffffffffffffffffffff166104fc610463565b73ffffffffffffffffffffffffffffffffffffffff1614610552576040517f08c379a00000000000000000000000000000000000000000000000000000000081526004016105499061109f565b60405180910390fd5b600073ffffffffffffffffffffffffffffffffffffffff168173ffffffffffffffffffffffffffffffffffffffff1614156105c2576040517f08c379a00000000000000000000000000000000000000000000000000000000081526004016105b990610fff565b60405180910390fd5b6105cb8161087f565b50565b6105d6610877565b73ffffffffffffffffffffffffffffffffffffffff166105f4610463565b73ffffffffffffffffffffffffffffffffffffffff161461064a576040517f08c379a00000000000000000000000000000000000000000000000000000000081526004016106419061109f565b60405180910390fd5b600034905080606560008473ffffffffffffffffffffffffffffffffffffffff1673ffffffffffffffffffffffffffffffffffffffff168152602001908152602001600020600082825461069e91906110f6565b925050819055508173ffffffffffffffffffffffffffffffffffffffff167f2da466a7b24304f47e87fa2e1e5a81b9831ce54fec19055ce277ca2f39ba42c4826040516106eb91906110bf565b60405180910390a25050565b6106ff610877565b73ffffffffffffffffffffffffffffffffffffffff1661071d610463565b73ffffffffffffffffffffffffffffffffffffffff1614610773576040517f08c379a000000000000000000000000000000000000000000000000000000000815260040161076a9061109f565b60405180910390fd5b6000606560008373ffffffffffffffffffffffffffffffffffffffff1673ffffffffffffffffffffffffffffffffffffffff1681526020019081526020016000205490506000606560008473ffffffffffffffffffffffffffffffffffffffff1673ffffffffffffffffffffffffffffffffffffffff16815260200190815260200160002081905550610825818373ffffffffffffffffffffffffffffffffffffffff16610a3690919063ffffffff16565b8173ffffffffffffffffffffffffffffffffffffffff167f7084f5476618d8e60b11ef0d7d3f06914655adb8793e28ff7f018d4c76d505d58260405161086b91906110bf565b60405180910390a25050565b600033905090565b6000603360009054906101000a900473ffffffffffffffffffffffffffffffffffffffff16905081603360006101000a81548173ffffffffffffffffffffffffffffffffffffffff021916908373ffffffffffffffffffffffffffffffffffffffff1602179055508173ffffffffffffffffffffffffffffffffffffffff168173ffffffffffffffffffffffffffffffffffffffff167f8be0079c531659141344cd1fd0a4f28419497f9722a3daafe3b4186f6b6457e060405160405180910390a35050565b600060019054906101000a900460ff168061096b575060008054906101000a900460ff16155b6109aa576040517f08c379a00000000000000000000000000000000000000000000000000000000081526004016109a19061105f565b60405180910390fd5b60008060019054906101000a900460ff1615905080156109fa576001600060016101000a81548160ff02191690831515021790555060016000806101000a81548160ff0219169083151502179055505b610a02610b2a565b610a0a610c03565b610a12610cec565b8015610a335760008060016101000a81548160ff0219169083151502179055505b50565b80471015610a79576040517f08c379a0000000000000000000000000000000000000000000000000000000008152600401610a709061103f565b60405180910390fd5b60008273ffffffffffffffffffffffffffffffffffffffff1682604051610a9f90610fb4565b60006040518083038185875af1925050503d8060008114610adc576040519150601f19603f3d011682016040523d82523d6000602084013e610ae1565b606091505b5050905080610b25576040517f08c379a0000000000000000000000000000000000000000000000000000000008152600401610b1c9061101f565b60405180910390fd5b505050565b600060019054906101000a900460ff1680610b50575060008054906101000a900460ff16155b610b8f576040517f08c379a0000000000000000000000000000000000000000000000000000000008152600401610b869061105f565b60405180910390fd5b60008060019054906101000a900460ff161590508015610bdf576001600060016101000a81548160ff02191690831515021790555060016000806101000a81548160ff0219169083151502179055505b8015610c005760008060016101000a81548160ff0219169083151502179055505b50565b600060019054906101000a900460ff1680610c29575060008054906101000a900460ff16155b610c68576040517f08c379a0000000000000000000000000000000000000000000000000000000008152600401610c5f9061105f565b60405180910390fd5b60008060019054906101000a900460ff161590508015610cb8576001600060016101000a81548160ff02191690831515021790555060016000806101000a81548160ff0219169083151502179055505b610cc8610cc3610877565b61087f565b8015610ce95760008060016101000a81548160ff0219169083151502179055505b50565b600060019054906101000a900460ff1680610d12575060008054906101000a900460ff16155b610d51576040517f08c379a0000000000000000000000000000000000000000000000000000000008152600401610d489061105f565b60405180910390fd5b60008060019054906101000a900460ff161590508015610da1576001600060016101000a81548160ff02191690831515021790555060016000806101000a81548160ff0219169083151502179055505b8015610dc25760008060016101000a81548160ff0219169083151502179055505b50565b600081359050610dd481611366565b92915050565b600081359050610de98161137d565b92915050565b600081359050610dfe81611394565b92915050565b600060208284031215610e1657600080fd5b6000610e2484828501610dc5565b91505092915050565b600060208284031215610e3f57600080fd5b6000610e4d84828501610dda565b91505092915050565b60008060408385031215610e6957600080fd5b6000610e7785828601610dc5565b9250506020610e8885828601610def565b9150509250929050565b610e9b8161114c565b82525050565b610eaa81611170565b82525050565b6000610ebd6026836110e5565b9150610ec8826111d5565b604082019050919050565b6000610ee0603a836110e5565b9150610eeb82611224565b604082019050919050565b6000610f03601d836110e5565b9150610f0e82611273565b602082019050919050565b6000610f26602e836110e5565b9150610f318261129c565b604082019050919050565b6000610f496033836110e5565b9150610f54826112eb565b604082019050919050565b6000610f6c6020836110e5565b9150610f778261133a565b602082019050919050565b6000610f8f6000836110da565b9150610f9a82611363565b600082019050919050565b610fae8161119c565b82525050565b6000610fbf82610f82565b9150819050919050565b6000602082019050610fde6000830184610e92565b92915050565b6000602082019050610ff96000830184610ea1565b92915050565b6000602082019050818103600083015261101881610eb0565b9050919050565b6000602082019050818103600083015261103881610ed3565b9050919050565b6000602082019050818103600083015261105881610ef6565b9050919050565b6000602082019050818103600083015261107881610f19565b9050919050565b6000602082019050818103600083015261109881610f3c565b9050919050565b600060208201905081810360008301526110b881610f5f565b9050919050565b60006020820190506110d46000830184610fa5565b92915050565b600081905092915050565b600082825260208201905092915050565b60006111018261119c565b915061110c8361119c565b9250827fffffffffffffffffffffffffffffffffffffffffffffffffffffffffffffffff03821115611141576111406111a6565b5b828201905092915050565b60006111578261117c565b9050919050565b60006111698261117c565b9050919050565b60008115159050919050565b600073ffffffffffffffffffffffffffffffffffffffff82169050919050565b6000819050919050565b7f4e487b7100000000000000000000000000000000000000000000000000000000600052601160045260246000fd5b7f4f776e61626c653a206e6577206f776e657220697320746865207a65726f206160008201527f6464726573730000000000000000000000000000000000000000000000000000602082015250565b7f416464726573733a20756e61626c6520746f2073656e642076616c75652c207260008201527f6563697069656e74206d61792068617665207265766572746564000000000000602082015250565b7f416464726573733a20696e73756666696369656e742062616c616e6365000000600082015250565b7f496e697469616c697a61626c653a20636f6e747261637420697320616c72656160008201527f647920696e697469616c697a6564000000000000000000000000000000000000602082015250565b7f436f6e646974696f6e616c457363726f773a207061796565206973206e6f742060008201527f616c6c6f77656420746f20776974686472617700000000000000000000000000602082015250565b7f4f776e61626c653a2063616c6c6572206973206e6f7420746865206f776e6572600082015250565b50565b61136f8161114c565b811461137a57600080fd5b50565b6113868161115e565b811461139157600080fd5b50565b61139d81611170565b81146113a857600080fd5b5056fea26469706673582212203046261984f8844c6a9178e2c785533cabda1ad29cb174726c248ee27dd2dc8664736f6c63430008040033",
  "linkReferences": {},
  "deployedLinkReferences": {}
}