{
  "_format": "hh-sol-artifact-1",
  "contractName": "EIP712ExternalUpgradeableWithInit",
  "sourceName": "contracts/src/OpenZeppelin/upgradeable/mocks/WithInit.sol",
  "abi": [
    {
      "inputs": [
        {
          "internalType": "string",
          "name": "name",
          "type": "string"
        },
        {
          "internalType": "string",
          "name": "version",
          "type": "string"
        }
      ],
      "stateMutability": "payable",
      "type": "constructor"
    },
    {
      "inputs": [],
      "name": "domainSeparator",
      "outputs": [
        {
          "internalType": "bytes32",
          "name": "",
          "type": "bytes32"
        }
      ],
      "stateMutability": "view",
      "type": "function"
    },
    {
      "inputs": [],
      "name": "getChainId",
      "outputs": [
        {
          "internalType": "uint256",
          "name": "",
          "type": "uint256"
        }
      ],
      "stateMutability": "view",
      "type": "function"
    },
    {
      "inputs": [
        {
          "internalType": "bytes",
          "name": "signature",
          "type": "bytes"
        },
        {
          "internalType": "address",
          "name": "signer",
          "type": "address"
        },
        {
          "internalType": "address",
          "name": "mailTo",
          "type": "address"
        },
        {
          "internalType": "string",
          "name": "mailContents",
          "type": "string"
        }
      ],
      "name": "verify",
      "outputs": [],
      "stateMutability": "view",
      "type": "function"
    }
  ],
  "bytecode": "0x6080604052604051620011b7380380620011b78339818101604052810190620000299190620003a4565b6200003b82826200004360201b60201c565b5050620005cb565b600060019054906101000a900460ff16806200006a575060008054906101000a900460ff16155b620000ac576040517f08c379a0000000000000000000000000000000000000000000000000000000008152600401620000a3906200043e565b60405180910390fd5b60008060019054906101000a900460ff161590508015620000fd576001600060016101000a81548160ff02191690831515021790555060016000806101000a81548160ff0219169083151502179055505b6200010f83836200014860201b60201c565b6200012183836200025160201b60201c565b8015620001435760008060016101000a81548160ff0219169083151502179055505b505050565b600060019054906101000a900460ff16806200016f575060008054906101000a900460ff16155b620001b1576040517f08c379a0000000000000000000000000000000000000000000000000000000008152600401620001a8906200043e565b60405180910390fd5b60008060019054906101000a900460ff16159050801562000202576001600060016101000a81548160ff02191690831515021790555060016000806101000a81548160ff0219169083151502179055505b6000838051906020012090506000838051906020012090508160018190555080600281905550505080156200024c5760008060016101000a81548160ff0219169083151502179055505b505050565b600060019054906101000a900460ff168062000278575060008054906101000a900460ff16155b620002ba576040517f08c379a0000000000000000000000000000000000000000000000000000000008152600401620002b1906200043e565b60405180910390fd5b60008060019054906101000a900460ff1615905080156200030b576001600060016101000a81548160ff02191690831515021790555060016000806101000a81548160ff0219169083151502179055505b80156200032d5760008060016101000a81548160ff0219169083151502179055505b505050565b600062000349620003438462000489565b62000460565b9050828152602081018484840111156200036257600080fd5b6200036f848285620004d0565b509392505050565b600082601f8301126200038957600080fd5b81516200039b84826020860162000332565b91505092915050565b60008060408385031215620003b857600080fd5b600083015167ffffffffffffffff811115620003d357600080fd5b620003e18582860162000377565b925050602083015167ffffffffffffffff811115620003ff57600080fd5b6200040d8582860162000377565b9150509250929050565b600062000426602e83620004bf565b915062000433826200057c565b604082019050919050565b60006020820190508181036000830152620004598162000417565b9050919050565b60006200046c6200047f565b90506200047a828262000506565b919050565b6000604051905090565b600067ffffffffffffffff821115620004a757620004a66200053c565b5b620004b2826200056b565b9050602081019050919050565b600082825260208201905092915050565b60005b83811015620004f0578082015181840152602081019050620004d3565b8381111562000500576000848401525b50505050565b62000511826200056b565b810181811067ffffffffffffffff821117156200053357620005326200053c565b5b80604052505050565b7f4e487b7100000000000000000000000000000000000000000000000000000000600052604160045260246000fd5b6000601f19601f8301169050919050565b7f496e697469616c697a61626c653a20636f6e747261637420697320616c72656160008201527f647920696e697469616c697a6564000000000000000000000000000000000000602082015250565b610bdc80620005db6000396000f3fe608060405234801561001057600080fd5b50600436106100415760003560e01c806308c6e079146100465780633408e47014610062578063f698da2514610080575b600080fd5b610060600480360381019061005b91906105a5565b61009e565b005b61006a61014a565b60405161007791906108db565b60405180910390f35b610088610152565b6040516100959190610771565b60405180910390f35b60006100fa7f847fc9da8ec3c72cae85ca691245eaeb0a4a1e74f77c3a919c43afda231d39ba8484805190602001206040516020016100df9392919061078c565b60405160208183030381529060405280519060200120610161565b90506000610108828761017b565b90508473ffffffffffffffffffffffffffffffffffffffff168173ffffffffffffffffffffffffffffffffffffffff161461014257600080fd5b505050505050565b600046905090565b600061015c61022a565b905090565b600061017461016e61022a565b8361026a565b9050919050565b60006041825114156101ba5760008060006020850151925060408501519150606085015160001a90506101b08682858561029d565b9350505050610224565b6040825114156101e95760008060208401519150604084015190506101e0858383610428565b92505050610224565b6040517f08c379a000000000000000000000000000000000000000000000000000000000815260040161021b9061087b565b60405180910390fd5b92915050565b60006102657f8b73c3c69bb8fe3d512ecc4cf759cc79239f7b179b0ffacaa9a75d522b39400f610258610472565b61026061047c565b610486565b905090565b6000828260405160200161027f92919061073a565b60405160208183030381529060405280519060200120905092915050565b60007f7fffffffffffffffffffffffffffffff5d576e7357a4501ddfe92f46681b20a08260001c1115610305576040517f08c379a00000000000000000000000000000000000000000000000000000000081526004016102fc9061089b565b60405180910390fd5b601b8460ff16148061031a5750601c8460ff16145b610359576040517f08c379a0000000000000000000000000000000000000000000000000000000008152600401610350906108bb565b60405180910390fd5b60006001868686866040516000815260200160405260405161037e9493929190610816565b6020604051602081039080840390855afa1580156103a0573d6000803e3d6000fd5b505050602060405103519050600073ffffffffffffffffffffffffffffffffffffffff168173ffffffffffffffffffffffffffffffffffffffff16141561041c576040517f08c379a00000000000000000000000000000000000000000000000000000000081526004016104139061085b565b60405180910390fd5b80915050949350505050565b60008060007f7fffffffffffffffffffffffffffffffffffffffffffffffffffffffffffffff84169150601b8460ff1c0190506104678682878561029d565b925050509392505050565b6000600154905090565b6000600254905090565b600083838346306040516020016104a19594939291906107c3565b6040516020818303038152906040528051906020012090509392505050565b60006104d36104ce8461091b565b6108f6565b9050828152602081018484840111156104eb57600080fd5b6104f68482856109ec565b509392505050565b600061051161050c8461094c565b6108f6565b90508281526020810184848401111561052957600080fd5b6105348482856109ec565b509392505050565b60008135905061054b81610b8f565b92915050565b600082601f83011261056257600080fd5b81356105728482602086016104c0565b91505092915050565b600082601f83011261058c57600080fd5b813561059c8482602086016104fe565b91505092915050565b600080600080608085870312156105bb57600080fd5b600085013567ffffffffffffffff8111156105d557600080fd5b6105e187828801610551565b94505060206105f28782880161053c565b93505060406106038782880161053c565b925050606085013567ffffffffffffffff81111561062057600080fd5b61062c8782880161057b565b91505092959194509250565b61064181610999565b82525050565b610650816109ab565b82525050565b610667610662826109ab565b610a2c565b82525050565b600061067a60188361097d565b915061068582610a76565b602082019050919050565b600061069d601f8361097d565b91506106a882610a9f565b602082019050919050565b60006106c060028361098e565b91506106cb82610ac8565b600282019050919050565b60006106e360228361097d565b91506106ee82610af1565b604082019050919050565b600061070660228361097d565b915061071182610b40565b604082019050919050565b610725816109d5565b82525050565b610734816109df565b82525050565b6000610745826106b3565b91506107518285610656565b6020820191506107618284610656565b6020820191508190509392505050565b60006020820190506107866000830184610647565b92915050565b60006060820190506107a16000830186610647565b6107ae6020830185610638565b6107bb6040830184610647565b949350505050565b600060a0820190506107d86000830188610647565b6107e56020830187610647565b6107f26040830186610647565b6107ff606083018561071c565b61080c6080830184610638565b9695505050505050565b600060808201905061082b6000830187610647565b610838602083018661072b565b6108456040830185610647565b6108526060830184610647565b95945050505050565b600060208201905081810360008301526108748161066d565b9050919050565b6000602082019050818103600083015261089481610690565b9050919050565b600060208201905081810360008301526108b4816106d6565b9050919050565b600060208201905081810360008301526108d4816106f9565b9050919050565b60006020820190506108f0600083018461071c565b92915050565b6000610900610911565b905061090c82826109fb565b919050565b6000604051905090565b600067ffffffffffffffff82111561093657610935610a36565b5b61093f82610a65565b9050602081019050919050565b600067ffffffffffffffff82111561096757610966610a36565b5b61097082610a65565b9050602081019050919050565b600082825260208201905092915050565b600081905092915050565b60006109a4826109b5565b9050919050565b6000819050919050565b600073ffffffffffffffffffffffffffffffffffffffff82169050919050565b6000819050919050565b600060ff82169050919050565b82818337600083830152505050565b610a0482610a65565b810181811067ffffffffffffffff82111715610a2357610a22610a36565b5b80604052505050565b6000819050919050565b7f4e487b7100000000000000000000000000000000000000000000000000000000600052604160045260246000fd5b6000601f19601f8301169050919050565b7f45434453413a20696e76616c6964207369676e61747572650000000000000000600082015250565b7f45434453413a20696e76616c6964207369676e6174757265206c656e67746800600082015250565b7f1901000000000000000000000000000000000000000000000000000000000000600082015250565b7f45434453413a20696e76616c6964207369676e6174757265202773272076616c60008201527f7565000000000000000000000000000000000000000000000000000000000000602082015250565b7f45434453413a20696e76616c6964207369676e6174757265202776272076616c60008201527f7565000000000000000000000000000000000000000000000000000000000000602082015250565b610b9881610999565b8114610ba357600080fd5b5056fea26469706673582212209ff2c288431b4833d72b1aa797954f0789b33a99b2fe64077a92c9294f5d376e64736f6c63430008040033",
  "linkReferences": {},
  "deployedLinkReferences": {}
}