{
  "_format": "hh-sol-artifact-1",
  "contractName": "EnumerableBytes32SetMockUpgradeableWithInit",
  "sourceName": "contracts/src/OpenZeppelin/upgradeable/mocks/WithInit.sol",
  "abi": [
    {
      "inputs": [],
      "stateMutability": "payable",
      "type": "constructor"
    },
    {
      "anonymous": false,
      "inputs": [
        {
          "indexed": false,
          "internalType": "bool",
          "name": "result",
          "type": "bool"
        }
      ],
      "name": "OperationResult",
      "type": "event"
    },
    {
      "inputs": [
        {
          "internalType": "bytes32",
          "name": "value",
          "type": "bytes32"
        }
      ],
      "name": "add",
      "outputs": [],
      "stateMutability": "nonpayable",
      "type": "function"
    },
    {
      "inputs": [
        {
          "internalType": "uint256",
          "name": "index",
          "type": "uint256"
        }
      ],
      "name": "at",
      "outputs": [
        {
          "internalType": "bytes32",
          "name": "",
          "type": "bytes32"
        }
      ],
      "stateMutability": "view",
      "type": "function"
    },
    {
      "inputs": [
        {
          "internalType": "bytes32",
          "name": "value",
          "type": "bytes32"
        }
      ],
      "name": "contains",
      "outputs": [
        {
          "internalType": "bool",
          "name": "",
          "type": "bool"
        }
      ],
      "stateMutability": "view",
      "type": "function"
    },
    {
      "inputs": [],
      "name": "length",
      "outputs": [
        {
          "internalType": "uint256",
          "name": "",
          "type": "uint256"
        }
      ],
      "stateMutability": "view",
      "type": "function"
    },
    {
      "inputs": [
        {
          "internalType": "bytes32",
          "name": "value",
          "type": "bytes32"
        }
      ],
      "name": "remove",
      "outputs": [],
      "stateMutability": "nonpayable",
      "type": "function"
    }
  ],
  "bytecode": "0x608060405261001261001760201b60201c565b61027a565b600060019054906101000a900460ff168061003d575060008054906101000a900460ff16155b61007c576040517f08c379a0000000000000000000000000000000000000000000000000000000008152600401610073906101fa565b60405180910390fd5b60008060019054906101000a900460ff1615905080156100cc576001600060016101000a81548160ff02191690831515021790555060016000806101000a81548160ff0219169083151502179055505b6100da6100fe60201b60201c565b80156100fb5760008060016101000a81548160ff0219169083151502179055505b50565b600060019054906101000a900460ff1680610124575060008054906101000a900460ff16155b610163576040517f08c379a000000000000000000000000000000000000000000000000000000000815260040161015a906101fa565b60405180910390fd5b60008060019054906101000a900460ff1615905080156101b3576001600060016101000a81548160ff02191690831515021790555060016000806101000a81548160ff0219169083151502179055505b80156101d45760008060016101000a81548160ff0219169083151502179055505b50565b60006101e4602e8361021a565b91506101ef8261022b565b604082019050919050565b60006020820190508181036000830152610213816101d7565b9050919050565b600082825260208201905092915050565b7f496e697469616c697a61626c653a20636f6e747261637420697320616c72656160008201527f647920696e697469616c697a6564000000000000000000000000000000000000602082015250565b6106d0806102896000396000f3fe608060405234801561001057600080fd5b50600436106100575760003560e01c80631d1a696d1461005c5780631f7b6d321461008c578063446bffba146100aa57806395bc2673146100c6578063e0886f90146100e2575b600080fd5b61007660048036038101906100719190610519565b610112565b6040516100839190610598565b60405180910390f35b61009461012f565b6040516100a191906105ce565b60405180910390f35b6100c460048036038101906100bf9190610519565b610140565b005b6100e060048036038101906100db9190610519565b610193565b005b6100fc60048036038101906100f79190610542565b6101e6565b60405161010991906105b3565b60405180910390f35b600061012882600161020390919063ffffffff16565b9050919050565b600061013b600161021a565b905090565b600061015682600161022f90919063ffffffff16565b90507fed9840e0775590557ad736875d96c95cf1458b766335f74339951a32c82a9e33816040516101879190610598565b60405180910390a15050565b60006101a982600161024690919063ffffffff16565b90507fed9840e0775590557ad736875d96c95cf1458b766335f74339951a32c82a9e33816040516101da9190610598565b60405180910390a15050565b60006101fc82600161025d90919063ffffffff16565b9050919050565b60006102128360000183610274565b905092915050565b600061022882600001610297565b9050919050565b600061023e83600001836102a8565b905092915050565b60006102558360000183610318565b905092915050565b600061026c836000018361049e565b905092915050565b600080836001016000848152602001908152602001600020541415905092915050565b600081600001805490509050919050565b60006102b48383610274565b61030d578260000182908060018154018082558091505060019003906000526020600020016000909190919091505582600001805490508360010160008481526020019081526020016000208190555060019050610312565b600090505b92915050565b6000808360010160008481526020019081526020016000205490506000811461049257600060018261034a91906105e9565b905060006001866000018054905061036291906105e9565b905081811461041d5760008660000182815481106103a9577f4e487b7100000000000000000000000000000000000000000000000000000000600052603260045260246000fd5b90600052602060002001549050808760000184815481106103f3577f4e487b7100000000000000000000000000000000000000000000000000000000600052603260045260246000fd5b90600052602060002001819055508387600101600083815260200190815260200160002081905550505b85600001805480610457577f4e487b7100000000000000000000000000000000000000000000000000000000600052603160045260246000fd5b600190038181906000526020600020016000905590558560010160008681526020019081526020016000206000905560019350505050610498565b60009150505b92915050565b60008260000182815481106104dc577f4e487b7100000000000000000000000000000000000000000000000000000000600052603260045260246000fd5b9060005260206000200154905092915050565b6000813590506104fe8161066c565b92915050565b60008135905061051381610683565b92915050565b60006020828403121561052b57600080fd5b6000610539848285016104ef565b91505092915050565b60006020828403121561055457600080fd5b600061056284828501610504565b91505092915050565b6105748161061d565b82525050565b61058381610629565b82525050565b61059281610633565b82525050565b60006020820190506105ad600083018461056b565b92915050565b60006020820190506105c8600083018461057a565b92915050565b60006020820190506105e36000830184610589565b92915050565b60006105f482610633565b91506105ff83610633565b9250828210156106125761061161063d565b5b828203905092915050565b60008115159050919050565b6000819050919050565b6000819050919050565b7f4e487b7100000000000000000000000000000000000000000000000000000000600052601160045260246000fd5b61067581610629565b811461068057600080fd5b50565b61068c81610633565b811461069757600080fd5b5056fea26469706673582212209baceef1a1b5b5dfaeaa22bb8bac4bca50677fb2bb2b32b68bd16f8b9b96a79864736f6c63430008040033",
  "linkReferences": {},
  "deployedLinkReferences": {}
}