{
  "_format": "hh-sol-artifact-1",
  "contractName": "EnumerableAddressSetMockUpgradeableWithInit",
  "sourceName": "contracts/src/OpenZeppelin/upgradeable/mocks/WithInit.sol",
  "abi": [
    {
      "inputs": [],
      "stateMutability": "payable",
      "type": "constructor"
    },
    {
      "anonymous": false,
      "inputs": [
        {
          "indexed": false,
          "internalType": "bool",
          "name": "result",
          "type": "bool"
        }
      ],
      "name": "OperationResult",
      "type": "event"
    },
    {
      "inputs": [
        {
          "internalType": "address",
          "name": "value",
          "type": "address"
        }
      ],
      "name": "add",
      "outputs": [],
      "stateMutability": "nonpayable",
      "type": "function"
    },
    {
      "inputs": [
        {
          "internalType": "uint256",
          "name": "index",
          "type": "uint256"
        }
      ],
      "name": "at",
      "outputs": [
        {
          "internalType": "address",
          "name": "",
          "type": "address"
        }
      ],
      "stateMutability": "view",
      "type": "function"
    },
    {
      "inputs": [
        {
          "internalType": "address",
          "name": "value",
          "type": "address"
        }
      ],
      "name": "contains",
      "outputs": [
        {
          "internalType": "bool",
          "name": "",
          "type": "bool"
        }
      ],
      "stateMutability": "view",
      "type": "function"
    },
    {
      "inputs": [],
      "name": "length",
      "outputs": [
        {
          "internalType": "uint256",
          "name": "",
          "type": "uint256"
        }
      ],
      "stateMutability": "view",
      "type": "function"
    },
    {
      "inputs": [
        {
          "internalType": "address",
          "name": "value",
          "type": "address"
        }
      ],
      "name": "remove",
      "outputs": [],
      "stateMutability": "nonpayable",
      "type": "function"
    }
  ],
  "bytecode": "0x608060405261001261001760201b60201c565b61027a565b600060019054906101000a900460ff168061003d575060008054906101000a900460ff16155b61007c576040517f08c379a0000000000000000000000000000000000000000000000000000000008152600401610073906101fa565b60405180910390fd5b60008060019054906101000a900460ff1615905080156100cc576001600060016101000a81548160ff02191690831515021790555060016000806101000a81548160ff0219169083151502179055505b6100da6100fe60201b60201c565b80156100fb5760008060016101000a81548160ff0219169083151502179055505b50565b600060019054906101000a900460ff1680610124575060008054906101000a900460ff16155b610163576040517f08c379a000000000000000000000000000000000000000000000000000000000815260040161015a906101fa565b60405180910390fd5b60008060019054906101000a900460ff1615905080156101b3576001600060016101000a81548160ff02191690831515021790555060016000806101000a81548160ff0219169083151502179055505b80156101d45760008060016101000a81548160ff0219169083151502179055505b50565b60006101e4602e8361021a565b91506101ef8261022b565b604082019050919050565b60006020820190508181036000830152610213816101d7565b9050919050565b600082825260208201905092915050565b7f496e697469616c697a61626c653a20636f6e747261637420697320616c72656160008201527f647920696e697469616c697a6564000000000000000000000000000000000000602082015250565b610746806102896000396000f3fe608060405234801561001057600080fd5b50600436106100575760003560e01c80630a3b0a4f1461005c5780631f7b6d321461007857806329092d0e146100965780635dbe47e8146100b2578063e0886f90146100e2575b600080fd5b61007660048036038101906100719190610567565b610112565b005b610080610165565b60405161008d919061061c565b60405180910390f35b6100b060048036038101906100ab9190610567565b610176565b005b6100cc60048036038101906100c79190610567565b6101c9565b6040516100d99190610601565b60405180910390f35b6100fc60048036038101906100f79190610590565b6101e6565b60405161010991906105e6565b60405180910390f35b600061012882600161020390919063ffffffff16565b90507fed9840e0775590557ad736875d96c95cf1458b766335f74339951a32c82a9e33816040516101599190610601565b60405180910390a15050565b60006101716001610233565b905090565b600061018c82600161024890919063ffffffff16565b90507fed9840e0775590557ad736875d96c95cf1458b766335f74339951a32c82a9e33816040516101bd9190610601565b60405180910390a15050565b60006101df82600161027890919063ffffffff16565b9050919050565b60006101fc8260016102a890919063ffffffff16565b9050919050565b600061022b836000018373ffffffffffffffffffffffffffffffffffffffff1660001b6102c2565b905092915050565b600061024182600001610332565b9050919050565b6000610270836000018373ffffffffffffffffffffffffffffffffffffffff1660001b610343565b905092915050565b60006102a0836000018373ffffffffffffffffffffffffffffffffffffffff1660001b6104c9565b905092915050565b60006102b783600001836104ec565b60001c905092915050565b60006102ce83836104c9565b61032757826000018290806001815401808255809150506001900390600052602060002001600090919091909150558260000180549050836001016000848152602001908152602001600020819055506001905061032c565b600090505b92915050565b600081600001805490509050919050565b600080836001016000848152602001908152602001600020549050600081146104bd5760006001826103759190610637565b905060006001866000018054905061038d9190610637565b90508181146104485760008660000182815481106103d4577f4e487b7100000000000000000000000000000000000000000000000000000000600052603260045260246000fd5b906000526020600020015490508087600001848154811061041e577f4e487b7100000000000000000000000000000000000000000000000000000000600052603260045260246000fd5b90600052602060002001819055508387600101600083815260200190815260200160002081905550505b85600001805480610482577f4e487b7100000000000000000000000000000000000000000000000000000000600052603160045260246000fd5b6001900381819060005260206000200160009055905585600101600086815260200190815260200160002060009055600193505050506104c3565b60009150505b92915050565b600080836001016000848152602001908152602001600020541415905092915050565b600082600001828154811061052a577f4e487b7100000000000000000000000000000000000000000000000000000000600052603260045260246000fd5b9060005260206000200154905092915050565b60008135905061054c816106e2565b92915050565b600081359050610561816106f9565b92915050565b60006020828403121561057957600080fd5b60006105878482850161053d565b91505092915050565b6000602082840312156105a257600080fd5b60006105b084828501610552565b91505092915050565b6105c28161066b565b82525050565b6105d18161067d565b82525050565b6105e0816106a9565b82525050565b60006020820190506105fb60008301846105b9565b92915050565b600060208201905061061660008301846105c8565b92915050565b600060208201905061063160008301846105d7565b92915050565b6000610642826106a9565b915061064d836106a9565b9250828210156106605761065f6106b3565b5b828203905092915050565b600061067682610689565b9050919050565b60008115159050919050565b600073ffffffffffffffffffffffffffffffffffffffff82169050919050565b6000819050919050565b7f4e487b7100000000000000000000000000000000000000000000000000000000600052601160045260246000fd5b6106eb8161066b565b81146106f657600080fd5b50565b610702816106a9565b811461070d57600080fd5b5056fea264697066735822122020fa9648c227d88f4e7fac8899d1738561fbc65034dc382194efce90538fba5064736f6c63430008040033",
  "linkReferences": {},
  "deployedLinkReferences": {}
}