{
  "_format": "hh-sol-artifact-1",
  "contractName": "ERC1155SupplyMockUpgradeableWithInit",
  "sourceName": "contracts/src/OpenZeppelin/upgradeable/mocks/WithInit.sol",
  "abi": [
    {
      "inputs": [
        {
          "internalType": "string",
          "name": "uri",
          "type": "string"
        }
      ],
      "stateMutability": "payable",
      "type": "constructor"
    },
    {
      "anonymous": false,
      "inputs": [
        {
          "indexed": true,
          "internalType": "address",
          "name": "account",
          "type": "address"
        },
        {
          "indexed": true,
          "internalType": "address",
          "name": "operator",
          "type": "address"
        },
        {
          "indexed": false,
          "internalType": "bool",
          "name": "approved",
          "type": "bool"
        }
      ],
      "name": "ApprovalForAll",
      "type": "event"
    },
    {
      "anonymous": false,
      "inputs": [
        {
          "indexed": true,
          "internalType": "address",
          "name": "operator",
          "type": "address"
        },
        {
          "indexed": true,
          "internalType": "address",
          "name": "from",
          "type": "address"
        },
        {
          "indexed": true,
          "internalType": "address",
          "name": "to",
          "type": "address"
        },
        {
          "indexed": false,
          "internalType": "uint256[]",
          "name": "ids",
          "type": "uint256[]"
        },
        {
          "indexed": false,
          "internalType": "uint256[]",
          "name": "values",
          "type": "uint256[]"
        }
      ],
      "name": "TransferBatch",
      "type": "event"
    },
    {
      "anonymous": false,
      "inputs": [
        {
          "indexed": true,
          "internalType": "address",
          "name": "operator",
          "type": "address"
        },
        {
          "indexed": true,
          "internalType": "address",
          "name": "from",
          "type": "address"
        },
        {
          "indexed": true,
          "internalType": "address",
          "name": "to",
          "type": "address"
        },
        {
          "indexed": false,
          "internalType": "uint256",
          "name": "id",
          "type": "uint256"
        },
        {
          "indexed": false,
          "internalType": "uint256",
          "name": "value",
          "type": "uint256"
        }
      ],
      "name": "TransferSingle",
      "type": "event"
    },
    {
      "anonymous": false,
      "inputs": [
        {
          "indexed": false,
          "internalType": "string",
          "name": "value",
          "type": "string"
        },
        {
          "indexed": true,
          "internalType": "uint256",
          "name": "id",
          "type": "uint256"
        }
      ],
      "name": "URI",
      "type": "event"
    },
    {
      "inputs": [
        {
          "internalType": "address",
          "name": "account",
          "type": "address"
        },
        {
          "internalType": "uint256",
          "name": "id",
          "type": "uint256"
        }
      ],
      "name": "balanceOf",
      "outputs": [
        {
          "internalType": "uint256",
          "name": "",
          "type": "uint256"
        }
      ],
      "stateMutability": "view",
      "type": "function"
    },
    {
      "inputs": [
        {
          "internalType": "address[]",
          "name": "accounts",
          "type": "address[]"
        },
        {
          "internalType": "uint256[]",
          "name": "ids",
          "type": "uint256[]"
        }
      ],
      "name": "balanceOfBatch",
      "outputs": [
        {
          "internalType": "uint256[]",
          "name": "",
          "type": "uint256[]"
        }
      ],
      "stateMutability": "view",
      "type": "function"
    },
    {
      "inputs": [
        {
          "internalType": "address",
          "name": "owner",
          "type": "address"
        },
        {
          "internalType": "uint256",
          "name": "id",
          "type": "uint256"
        },
        {
          "internalType": "uint256",
          "name": "value",
          "type": "uint256"
        }
      ],
      "name": "burn",
      "outputs": [],
      "stateMutability": "nonpayable",
      "type": "function"
    },
    {
      "inputs": [
        {
          "internalType": "address",
          "name": "owner",
          "type": "address"
        },
        {
          "internalType": "uint256[]",
          "name": "ids",
          "type": "uint256[]"
        },
        {
          "internalType": "uint256[]",
          "name": "values",
          "type": "uint256[]"
        }
      ],
      "name": "burnBatch",
      "outputs": [],
      "stateMutability": "nonpayable",
      "type": "function"
    },
    {
      "inputs": [
        {
          "internalType": "uint256",
          "name": "id",
          "type": "uint256"
        }
      ],
      "name": "exists",
      "outputs": [
        {
          "internalType": "bool",
          "name": "",
          "type": "bool"
        }
      ],
      "stateMutability": "view",
      "type": "function"
    },
    {
      "inputs": [
        {
          "internalType": "address",
          "name": "account",
          "type": "address"
        },
        {
          "internalType": "address",
          "name": "operator",
          "type": "address"
        }
      ],
      "name": "isApprovedForAll",
      "outputs": [
        {
          "internalType": "bool",
          "name": "",
          "type": "bool"
        }
      ],
      "stateMutability": "view",
      "type": "function"
    },
    {
      "inputs": [
        {
          "internalType": "address",
          "name": "to",
          "type": "address"
        },
        {
          "internalType": "uint256",
          "name": "id",
          "type": "uint256"
        },
        {
          "internalType": "uint256",
          "name": "value",
          "type": "uint256"
        },
        {
          "internalType": "bytes",
          "name": "data",
          "type": "bytes"
        }
      ],
      "name": "mint",
      "outputs": [],
      "stateMutability": "nonpayable",
      "type": "function"
    },
    {
      "inputs": [
        {
          "internalType": "address",
          "name": "to",
          "type": "address"
        },
        {
          "internalType": "uint256[]",
          "name": "ids",
          "type": "uint256[]"
        },
        {
          "internalType": "uint256[]",
          "name": "values",
          "type": "uint256[]"
        },
        {
          "internalType": "bytes",
          "name": "data",
          "type": "bytes"
        }
      ],
      "name": "mintBatch",
      "outputs": [],
      "stateMutability": "nonpayable",
      "type": "function"
    },
    {
      "inputs": [
        {
          "internalType": "address",
          "name": "from",
          "type": "address"
        },
        {
          "internalType": "address",
          "name": "to",
          "type": "address"
        },
        {
          "internalType": "uint256[]",
          "name": "ids",
          "type": "uint256[]"
        },
        {
          "internalType": "uint256[]",
          "name": "amounts",
          "type": "uint256[]"
        },
        {
          "internalType": "bytes",
          "name": "data",
          "type": "bytes"
        }
      ],
      "name": "safeBatchTransferFrom",
      "outputs": [],
      "stateMutability": "nonpayable",
      "type": "function"
    },
    {
      "inputs": [
        {
          "internalType": "address",
          "name": "from",
          "type": "address"
        },
        {
          "internalType": "address",
          "name": "to",
          "type": "address"
        },
        {
          "internalType": "uint256",
          "name": "id",
          "type": "uint256"
        },
        {
          "internalType": "uint256",
          "name": "amount",
          "type": "uint256"
        },
        {
          "internalType": "bytes",
          "name": "data",
          "type": "bytes"
        }
      ],
      "name": "safeTransferFrom",
      "outputs": [],
      "stateMutability": "nonpayable",
      "type": "function"
    },
    {
      "inputs": [
        {
          "internalType": "address",
          "name": "operator",
          "type": "address"
        },
        {
          "internalType": "bool",
          "name": "approved",
          "type": "bool"
        }
      ],
      "name": "setApprovalForAll",
      "outputs": [],
      "stateMutability": "nonpayable",
      "type": "function"
    },
    {
      "inputs": [
        {
          "internalType": "string",
          "name": "newuri",
          "type": "string"
        }
      ],
      "name": "setURI",
      "outputs": [],
      "stateMutability": "nonpayable",
      "type": "function"
    },
    {
      "inputs": [
        {
          "internalType": "bytes4",
          "name": "interfaceId",
          "type": "bytes4"
        }
      ],
      "name": "supportsInterface",
      "outputs": [
        {
          "internalType": "bool",
          "name": "",
          "type": "bool"
        }
      ],
      "stateMutability": "view",
      "type": "function"
    },
    {
      "inputs": [
        {
          "internalType": "uint256",
          "name": "id",
          "type": "uint256"
        }
      ],
      "name": "totalSupply",
      "outputs": [
        {
          "internalType": "uint256",
          "name": "",
          "type": "uint256"
        }
      ],
      "stateMutability": "view",
      "type": "function"
    },
    {
      "inputs": [
        {
          "internalType": "uint256",
          "name": "",
          "type": "uint256"
        }
      ],
      "name": "uri",
      "outputs": [
        {
          "internalType": "string",
          "name": "",
          "type": "string"
        }
      ],
      "stateMutability": "view",
      "type": "function"
    }
  ],
  "bytecode": "0x6080604052604051620043a0380380620043a0833981810160405281019062000029919062000810565b6200003a816200004160201b60201c565b5062000a6e565b600060019054906101000a900460ff168062000068575060008054906101000a900460ff16155b620000aa576040517f08c379a0000000000000000000000000000000000000000000000000000000008152600401620000a1906200087c565b60405180910390fd5b60008060019054906101000a900460ff161590508015620000fb576001600060016101000a81548160ff02191690831515021790555060016000806101000a81548160ff0219169083151502179055505b6200010b6200018460201b60201c565b6200011b6200026360201b60201c565b6200012c826200034260201b60201c565b6200013d826200043360201b60201c565b6200014d6200051360201b60201c565b6200015e82620005f260201b60201c565b8015620001805760008060016101000a81548160ff0219169083151502179055505b5050565b600060019054906101000a900460ff1680620001ab575060008054906101000a900460ff16155b620001ed576040517f08c379a0000000000000000000000000000000000000000000000000000000008152600401620001e4906200087c565b60405180910390fd5b60008060019054906101000a900460ff1615905080156200023e576001600060016101000a81548160ff02191690831515021790555060016000806101000a81548160ff0219169083151502179055505b8015620002605760008060016101000a81548160ff0219169083151502179055505b50565b600060019054906101000a900460ff16806200028a575060008054906101000a900460ff16155b620002cc576040517f08c379a0000000000000000000000000000000000000000000000000000000008152600401620002c3906200087c565b60405180910390fd5b60008060019054906101000a900460ff1615905080156200031d576001600060016101000a81548160ff02191690831515021790555060016000806101000a81548160ff0219169083151502179055505b80156200033f5760008060016101000a81548160ff0219169083151502179055505b50565b600060019054906101000a900460ff168062000369575060008054906101000a900460ff16155b620003ab576040517f08c379a0000000000000000000000000000000000000000000000000000000008152600401620003a2906200087c565b60405180910390fd5b60008060019054906101000a900460ff161590508015620003fc576001600060016101000a81548160ff02191690831515021790555060016000806101000a81548160ff0219169083151502179055505b6200040d82620006d260201b60201c565b80156200042f5760008060016101000a81548160ff0219169083151502179055505b5050565b600060019054906101000a900460ff16806200045a575060008054906101000a900460ff16155b6200049c576040517f08c379a000000000000000000000000000000000000000000000000000000000815260040162000493906200087c565b60405180910390fd5b60008060019054906101000a900460ff161590508015620004ed576001600060016101000a81548160ff02191690831515021790555060016000806101000a81548160ff0219169083151502179055505b80156200050f5760008060016101000a81548160ff0219169083151502179055505b5050565b600060019054906101000a900460ff16806200053a575060008054906101000a900460ff16155b6200057c576040517f08c379a000000000000000000000000000000000000000000000000000000000815260040162000573906200087c565b60405180910390fd5b60008060019054906101000a900460ff161590508015620005cd576001600060016101000a81548160ff02191690831515021790555060016000806101000a81548160ff0219169083151502179055505b8015620005ef5760008060016101000a81548160ff0219169083151502179055505b50565b600060019054906101000a900460ff168062000619575060008054906101000a900460ff16155b6200065b576040517f08c379a000000000000000000000000000000000000000000000000000000000815260040162000652906200087c565b60405180910390fd5b60008060019054906101000a900460ff161590508015620006ac576001600060016101000a81548160ff02191690831515021790555060016000806101000a81548160ff0219169083151502179055505b8015620006ce5760008060016101000a81548160ff0219169083151502179055505b5050565b8060679080519060200190620006ea929190620006ee565b5050565b828054620006fc9062000944565b90600052602060002090601f0160209004810192826200072057600085556200076c565b82601f106200073b57805160ff19168380011785556200076c565b828001600101855582156200076c579182015b828111156200076b5782518255916020019190600101906200074e565b5b5090506200077b91906200077f565b5090565b5b808211156200079a57600081600090555060010162000780565b5090565b6000620007b5620007af84620008c7565b6200089e565b905082815260208101848484011115620007ce57600080fd5b620007db8482856200090e565b509392505050565b600082601f830112620007f557600080fd5b8151620008078482602086016200079e565b91505092915050565b6000602082840312156200082357600080fd5b600082015167ffffffffffffffff8111156200083e57600080fd5b6200084c84828501620007e3565b91505092915050565b600062000864602e83620008fd565b9150620008718262000a1f565b604082019050919050565b60006020820190508181036000830152620008978162000855565b9050919050565b6000620008aa620008bd565b9050620008b882826200097a565b919050565b6000604051905090565b600067ffffffffffffffff821115620008e557620008e4620009df565b5b620008f08262000a0e565b9050602081019050919050565b600082825260208201905092915050565b60005b838110156200092e57808201518184015260208101905062000911565b838111156200093e576000848401525b50505050565b600060028204905060018216806200095d57607f821691505b60208210811415620009745762000973620009b0565b5b50919050565b620009858262000a0e565b810181811067ffffffffffffffff82111715620009a757620009a6620009df565b5b80604052505050565b7f4e487b7100000000000000000000000000000000000000000000000000000000600052602260045260246000fd5b7f4e487b7100000000000000000000000000000000000000000000000000000000600052604160045260246000fd5b6000601f19601f8301169050919050565b7f496e697469616c697a61626c653a20636f6e747261637420697320616c72656160008201527f647920696e697469616c697a6564000000000000000000000000000000000000602082015250565b6139228062000a7e6000396000f3fe608060405234801561001057600080fd5b50600436106100f45760003560e01c80634f558e7911610097578063bd85b03911610066578063bd85b03914610291578063e985e9c5146102c1578063f242432a146102f1578063f5298aca1461030d576100f4565b80634f558e791461020d5780636b20c4541461023d578063731133e914610259578063a22cb46514610275576100f4565b80630e89341c116100d35780630e89341c146101755780631f7fdffa146101a55780632eb2c2d6146101c15780634e1273f4146101dd576100f4565b8062fdd58e146100f957806301ffc9a71461012957806302fe530514610159575b600080fd5b610113600480360381019061010e9190612799565b610329565b6040516101209190612faa565b60405180910390f35b610143600480360381019061013e919061290b565b6103f3565b6040516101509190612dcd565b60405180910390f35b610173600480360381019061016e919061295d565b6104d5565b005b61018f600480360381019061018a919061299e565b6104e1565b60405161019c9190612de8565b60405180910390f35b6101bf60048036038101906101ba91906126b2565b610575565b005b6101db60048036038101906101d691906124e5565b610587565b005b6101f760048036038101906101f2919061289f565b610628565b6040516102049190612d74565b60405180910390f35b6102276004803603810190610222919061299e565b6107d9565b6040516102349190612dcd565b60405180910390f35b61025760048036038101906102529190612633565b6107ed565b005b610273600480360381019061026e9190612824565b6107fd565b005b61028f600480360381019061028a919061275d565b61080f565b005b6102ab60048036038101906102a6919061299e565b610990565b6040516102b89190612faa565b60405180910390f35b6102db60048036038101906102d691906124a9565b6109ad565b6040516102e89190612dcd565b60405180910390f35b61030b600480360381019061030691906125a4565b610a41565b005b610327600480360381019061032291906127d5565b610ae2565b005b60008073ffffffffffffffffffffffffffffffffffffffff168373ffffffffffffffffffffffffffffffffffffffff16141561039a576040517f08c379a000000000000000000000000000000000000000000000000000000000815260040161039190612e4a565b60405180910390fd5b6065600083815260200190815260200160002060008473ffffffffffffffffffffffffffffffffffffffff1673ffffffffffffffffffffffffffffffffffffffff16815260200190815260200160002054905092915050565b60007fd9b67a26000000000000000000000000000000000000000000000000000000007bffffffffffffffffffffffffffffffffffffffffffffffffffffffff1916827bffffffffffffffffffffffffffffffffffffffffffffffffffffffff191614806104be57507f0e89341c000000000000000000000000000000000000000000000000000000007bffffffffffffffffffffffffffffffffffffffffffffffffffffffff1916827bffffffffffffffffffffffffffffffffffffffffffffffffffffffff1916145b806104ce57506104cd82610af2565b5b9050919050565b6104de81610b5c565b50565b6060606780546104f09061327e565b80601f016020809104026020016040519081016040528092919081815260200182805461051c9061327e565b80156105695780601f1061053e57610100808354040283529160200191610569565b820191906000526020600020905b81548152906001019060200180831161054c57829003601f168201915b50505050509050919050565b61058184848484610b76565b50505050565b61058f610b88565b73ffffffffffffffffffffffffffffffffffffffff168573ffffffffffffffffffffffffffffffffffffffff1614806105d557506105d4856105cf610b88565b6109ad565b5b610614576040517f08c379a000000000000000000000000000000000000000000000000000000000815260040161060b90612eca565b60405180910390fd5b6106218585858585610b90565b5050505050565b6060815183511461066e576040517f08c379a000000000000000000000000000000000000000000000000000000000815260040161066590612f4a565b60405180910390fd5b6000835167ffffffffffffffff8111156106b1577f4e487b7100000000000000000000000000000000000000000000000000000000600052604160045260246000fd5b6040519080825280602002602001820160405280156106df5781602001602082028036833780820191505090505b50905060005b84518110156107ce5761077885828151811061072a577f4e487b7100000000000000000000000000000000000000000000000000000000600052603260045260246000fd5b602002602001015185838151811061076b577f4e487b7100000000000000000000000000000000000000000000000000000000600052603260045260246000fd5b6020026020010151610329565b8282815181106107b1577f4e487b7100000000000000000000000000000000000000000000000000000000600052603260045260246000fd5b602002602001018181525050806107c7906132e1565b90506106e5565b508091505092915050565b6000806107e583610990565b119050919050565b6107f8838383610ef3565b505050565b61080984848484610f03565b50505050565b8173ffffffffffffffffffffffffffffffffffffffff1661082e610b88565b73ffffffffffffffffffffffffffffffffffffffff161415610885576040517f08c379a000000000000000000000000000000000000000000000000000000000815260040161087c90612f2a565b60405180910390fd5b8060666000610892610b88565b73ffffffffffffffffffffffffffffffffffffffff1673ffffffffffffffffffffffffffffffffffffffff16815260200190815260200160002060008473ffffffffffffffffffffffffffffffffffffffff1673ffffffffffffffffffffffffffffffffffffffff16815260200190815260200160002060006101000a81548160ff0219169083151502179055508173ffffffffffffffffffffffffffffffffffffffff1661093f610b88565b73ffffffffffffffffffffffffffffffffffffffff167f17307eab39ab6107e8899845ad3d59bd9653f200f220920489ca2b5937696c31836040516109849190612dcd565b60405180910390a35050565b600060c96000838152602001908152602001600020549050919050565b6000606660008473ffffffffffffffffffffffffffffffffffffffff1673ffffffffffffffffffffffffffffffffffffffff16815260200190815260200160002060008373ffffffffffffffffffffffffffffffffffffffff1673ffffffffffffffffffffffffffffffffffffffff16815260200190815260200160002060009054906101000a900460ff16905092915050565b610a49610b88565b73ffffffffffffffffffffffffffffffffffffffff168573ffffffffffffffffffffffffffffffffffffffff161480610a8f5750610a8e85610a89610b88565b6109ad565b5b610ace576040517f08c379a0000000000000000000000000000000000000000000000000000000008152600401610ac590612e8a565b60405180910390fd5b610adb8585858585610f15565b5050505050565b610aed83838361119a565b505050565b60007f01ffc9a7000000000000000000000000000000000000000000000000000000007bffffffffffffffffffffffffffffffffffffffffffffffffffffffff1916827bffffffffffffffffffffffffffffffffffffffffffffffffffffffff1916149050919050565b8060679080519060200190610b729291906121a1565b5050565b610b82848484846111aa565b50505050565b600033905090565b8151835114610bd4576040517f08c379a0000000000000000000000000000000000000000000000000000000008152600401610bcb90612f6a565b60405180910390fd5b600073ffffffffffffffffffffffffffffffffffffffff168473ffffffffffffffffffffffffffffffffffffffff161415610c44576040517f08c379a0000000000000000000000000000000000000000000000000000000008152600401610c3b90612eaa565b60405180910390fd5b6000610c4e610b88565b9050610c5e818787878787611284565b60005b8451811015610e5e576000858281518110610ca5577f4e487b7100000000000000000000000000000000000000000000000000000000600052603260045260246000fd5b602002602001015190506000858381518110610cea577f4e487b7100000000000000000000000000000000000000000000000000000000600052603260045260246000fd5b6020026020010151905060006065600084815260200190815260200160002060008b73ffffffffffffffffffffffffffffffffffffffff1673ffffffffffffffffffffffffffffffffffffffff16815260200190815260200160002054905081811015610d8c576040517f08c379a0000000000000000000000000000000000000000000000000000000008152600401610d8390612f0a565b60405180910390fd5b8181036065600085815260200190815260200160002060008c73ffffffffffffffffffffffffffffffffffffffff1673ffffffffffffffffffffffffffffffffffffffff16815260200190815260200160002081905550816065600085815260200190815260200160002060008b73ffffffffffffffffffffffffffffffffffffffff1673ffffffffffffffffffffffffffffffffffffffff1681526020019081526020016000206000828254610e43919061313e565b9250508190555050505080610e57906132e1565b9050610c61565b508473ffffffffffffffffffffffffffffffffffffffff168673ffffffffffffffffffffffffffffffffffffffff168273ffffffffffffffffffffffffffffffffffffffff167f4a39dc06d4c0dbc64b70af90fd698a233a518aa5d07e595d983b8c0526c8f7fb8787604051610ed5929190612d96565b60405180910390a4610eeb81878787878761128c565b505050505050565b610efe838383611473565b505050565b610f0f8484848461154b565b50505050565b600073ffffffffffffffffffffffffffffffffffffffff168473ffffffffffffffffffffffffffffffffffffffff161415610f85576040517f08c379a0000000000000000000000000000000000000000000000000000000008152600401610f7c90612eaa565b60405180910390fd5b6000610f8f610b88565b9050610faf818787610fa088611587565b610fa988611587565b87611284565b60006065600086815260200190815260200160002060008873ffffffffffffffffffffffffffffffffffffffff1673ffffffffffffffffffffffffffffffffffffffff16815260200190815260200160002054905083811015611047576040517f08c379a000000000000000000000000000000000000000000000000000000000815260040161103e90612f0a565b60405180910390fd5b8381036065600087815260200190815260200160002060008973ffffffffffffffffffffffffffffffffffffffff1673ffffffffffffffffffffffffffffffffffffffff16815260200190815260200160002081905550836065600087815260200190815260200160002060008873ffffffffffffffffffffffffffffffffffffffff1673ffffffffffffffffffffffffffffffffffffffff16815260200190815260200160002060008282546110fe919061313e565b925050819055508573ffffffffffffffffffffffffffffffffffffffff168773ffffffffffffffffffffffffffffffffffffffff168373ffffffffffffffffffffffffffffffffffffffff167fc3d58168c5ae7397731d063d5bbf3d657854427343f4c083240f7aacaa2d0f62888860405161117b929190612fc5565b60405180910390a461119182888888888861164d565b50505050505050565b6111a5838383611834565b505050565b6111b68484848461186e565b60005b835181101561127d578281815181106111fb577f4e487b7100000000000000000000000000000000000000000000000000000000600052603260045260246000fd5b602002602001015160c96000868481518110611240577f4e487b7100000000000000000000000000000000000000000000000000000000600052603260045260246000fd5b602002602001015181526020019081526020016000206000828254611265919061313e565b9250508190555080611276906132e1565b90506111b9565b5050505050565b505050505050565b6112ab8473ffffffffffffffffffffffffffffffffffffffff16611ad9565b1561146b578373ffffffffffffffffffffffffffffffffffffffff1663bc197c8187878686866040518663ffffffff1660e01b81526004016112f1959493929190612cb2565b602060405180830381600087803b15801561130b57600080fd5b505af192505050801561133c57506040513d601f19601f820116820180604052508101906113399190612934565b60015b6113e2576113486133b7565b806308c379a014156113a5575061135d6137fa565b8061136857506113a7565b806040517f08c379a000000000000000000000000000000000000000000000000000000000815260040161139c9190612de8565b60405180910390fd5b505b6040517f08c379a00000000000000000000000000000000000000000000000000000000081526004016113d990612e0a565b60405180910390fd5b63bc197c8160e01b7bffffffffffffffffffffffffffffffffffffffffffffffffffffffff1916817bffffffffffffffffffffffffffffffffffffffffffffffffffffffff191614611469576040517f08c379a000000000000000000000000000000000000000000000000000000000815260040161146090612e2a565b60405180910390fd5b505b505050505050565b61147e838383611aec565b60005b8251811015611545578181815181106114c3577f4e487b7100000000000000000000000000000000000000000000000000000000600052603260045260246000fd5b602002602001015160c96000858481518110611508577f4e487b7100000000000000000000000000000000000000000000000000000000600052603260045260246000fd5b60200260200101518152602001908152602001600020600082825461152d9190613194565b925050819055508061153e906132e1565b9050611481565b50505050565b61155784848484611deb565b8160c96000858152602001908152602001600020600082825461157a919061313e565b9250508190555050505050565b60606000600167ffffffffffffffff8111156115cc577f4e487b7100000000000000000000000000000000000000000000000000000000600052604160045260246000fd5b6040519080825280602002602001820160405280156115fa5781602001602082028036833780820191505090505b5090508281600081518110611638577f4e487b7100000000000000000000000000000000000000000000000000000000600052603260045260246000fd5b60200260200101818152505080915050919050565b61166c8473ffffffffffffffffffffffffffffffffffffffff16611ad9565b1561182c578373ffffffffffffffffffffffffffffffffffffffff1663f23a6e6187878686866040518663ffffffff1660e01b81526004016116b2959493929190612d1a565b602060405180830381600087803b1580156116cc57600080fd5b505af19250505080156116fd57506040513d601f19601f820116820180604052508101906116fa9190612934565b60015b6117a3576117096133b7565b806308c379a01415611766575061171e6137fa565b806117295750611768565b806040517f08c379a000000000000000000000000000000000000000000000000000000000815260040161175d9190612de8565b60405180910390fd5b505b6040517f08c379a000000000000000000000000000000000000000000000000000000000815260040161179a90612e0a565b60405180910390fd5b63f23a6e6160e01b7bffffffffffffffffffffffffffffffffffffffffffffffffffffffff1916817bffffffffffffffffffffffffffffffffffffffffffffffffffffffff19161461182a576040517f08c379a000000000000000000000000000000000000000000000000000000000815260040161182190612e2a565b60405180910390fd5b505b505050505050565b61183f838383611f82565b8060c9600084815260200190815260200160002060008282546118629190613194565b92505081905550505050565b600073ffffffffffffffffffffffffffffffffffffffff168473ffffffffffffffffffffffffffffffffffffffff1614156118de576040517f08c379a00000000000000000000000000000000000000000000000000000000081526004016118d590612f8a565b60405180910390fd5b8151835114611922576040517f08c379a000000000000000000000000000000000000000000000000000000000815260040161191990612f6a565b60405180910390fd5b600061192c610b88565b905061193d81600087878787611284565b60005b8451811015611a4357838181518110611982577f4e487b7100000000000000000000000000000000000000000000000000000000600052603260045260246000fd5b6020026020010151606560008784815181106119c7577f4e487b7100000000000000000000000000000000000000000000000000000000600052603260045260246000fd5b6020026020010151815260200190815260200160002060008873ffffffffffffffffffffffffffffffffffffffff1673ffffffffffffffffffffffffffffffffffffffff1681526020019081526020016000206000828254611a29919061313e565b925050819055508080611a3b906132e1565b915050611940565b508473ffffffffffffffffffffffffffffffffffffffff16600073ffffffffffffffffffffffffffffffffffffffff168273ffffffffffffffffffffffffffffffffffffffff167f4a39dc06d4c0dbc64b70af90fd698a233a518aa5d07e595d983b8c0526c8f7fb8787604051611abb929190612d96565b60405180910390a4611ad28160008787878761128c565b5050505050565b600080823b905060008111915050919050565b600073ffffffffffffffffffffffffffffffffffffffff168373ffffffffffffffffffffffffffffffffffffffff161415611b5c576040517f08c379a0000000000000000000000000000000000000000000000000000000008152600401611b5390612eea565b60405180910390fd5b8051825114611ba0576040517f08c379a0000000000000000000000000000000000000000000000000000000008152600401611b9790612f6a565b60405180910390fd5b6000611baa610b88565b9050611bca81856000868660405180602001604052806000815250611284565b60005b8351811015611d65576000848281518110611c11577f4e487b7100000000000000000000000000000000000000000000000000000000600052603260045260246000fd5b602002602001015190506000848381518110611c56577f4e487b7100000000000000000000000000000000000000000000000000000000600052603260045260246000fd5b6020026020010151905060006065600084815260200190815260200160002060008973ffffffffffffffffffffffffffffffffffffffff1673ffffffffffffffffffffffffffffffffffffffff16815260200190815260200160002054905081811015611cf8576040517f08c379a0000000000000000000000000000000000000000000000000000000008152600401611cef90612e6a565b60405180910390fd5b8181036065600085815260200190815260200160002060008a73ffffffffffffffffffffffffffffffffffffffff1673ffffffffffffffffffffffffffffffffffffffff168152602001908152602001600020819055505050508080611d5d906132e1565b915050611bcd565b50600073ffffffffffffffffffffffffffffffffffffffff168473ffffffffffffffffffffffffffffffffffffffff168273ffffffffffffffffffffffffffffffffffffffff167f4a39dc06d4c0dbc64b70af90fd698a233a518aa5d07e595d983b8c0526c8f7fb8686604051611ddd929190612d96565b60405180910390a450505050565b600073ffffffffffffffffffffffffffffffffffffffff168473ffffffffffffffffffffffffffffffffffffffff161415611e5b576040517f08c379a0000000000000000000000000000000000000000000000000000000008152600401611e5290612f8a565b60405180910390fd5b6000611e65610b88565b9050611e8681600087611e7788611587565b611e8088611587565b87611284565b826065600086815260200190815260200160002060008773ffffffffffffffffffffffffffffffffffffffff1673ffffffffffffffffffffffffffffffffffffffff1681526020019081526020016000206000828254611ee6919061313e565b925050819055508473ffffffffffffffffffffffffffffffffffffffff16600073ffffffffffffffffffffffffffffffffffffffff168273ffffffffffffffffffffffffffffffffffffffff167fc3d58168c5ae7397731d063d5bbf3d657854427343f4c083240f7aacaa2d0f628787604051611f64929190612fc5565b60405180910390a4611f7b8160008787878761164d565b5050505050565b600073ffffffffffffffffffffffffffffffffffffffff168373ffffffffffffffffffffffffffffffffffffffff161415611ff2576040517f08c379a0000000000000000000000000000000000000000000000000000000008152600401611fe990612eea565b60405180910390fd5b6000611ffc610b88565b905061202c8185600061200e87611587565b61201787611587565b60405180602001604052806000815250611284565b60006065600085815260200190815260200160002060008673ffffffffffffffffffffffffffffffffffffffff1673ffffffffffffffffffffffffffffffffffffffff168152602001908152602001600020549050828110156120c4576040517f08c379a00000000000000000000000000000000000000000000000000000000081526004016120bb90612e6a565b60405180910390fd5b8281036065600086815260200190815260200160002060008773ffffffffffffffffffffffffffffffffffffffff1673ffffffffffffffffffffffffffffffffffffffff16815260200190815260200160002081905550600073ffffffffffffffffffffffffffffffffffffffff168573ffffffffffffffffffffffffffffffffffffffff168373ffffffffffffffffffffffffffffffffffffffff167fc3d58168c5ae7397731d063d5bbf3d657854427343f4c083240f7aacaa2d0f628787604051612192929190612fc5565b60405180910390a45050505050565b8280546121ad9061327e565b90600052602060002090601f0160209004810192826121cf5760008555612216565b82601f106121e857805160ff1916838001178555612216565b82800160010185558215612216579182015b828111156122155782518255916020019190600101906121fa565b5b5090506122239190612227565b5090565b5b80821115612240576000816000905550600101612228565b5090565b600061225761225284613013565b612fee565b9050808382526020820190508285602086028201111561227657600080fd5b60005b858110156122a6578161228c8882612398565b845260208401935060208301925050600181019050612279565b5050509392505050565b60006122c36122be8461303f565b612fee565b905080838252602082019050828560208602820111156122e257600080fd5b60005b8581101561231257816122f88882612494565b8452602084019350602083019250506001810190506122e5565b5050509392505050565b600061232f61232a8461306b565b612fee565b90508281526020810184848401111561234757600080fd5b61235284828561323c565b509392505050565b600061236d6123688461309c565b612fee565b90508281526020810184848401111561238557600080fd5b61239084828561323c565b509392505050565b6000813590506123a781613890565b92915050565b600082601f8301126123be57600080fd5b81356123ce848260208601612244565b91505092915050565b600082601f8301126123e857600080fd5b81356123f88482602086016122b0565b91505092915050565b600081359050612410816138a7565b92915050565b600081359050612425816138be565b92915050565b60008151905061243a816138be565b92915050565b600082601f83011261245157600080fd5b813561246184826020860161231c565b91505092915050565b600082601f83011261247b57600080fd5b813561248b84826020860161235a565b91505092915050565b6000813590506124a3816138d5565b92915050565b600080604083850312156124bc57600080fd5b60006124ca85828601612398565b92505060206124db85828601612398565b9150509250929050565b600080600080600060a086880312156124fd57600080fd5b600061250b88828901612398565b955050602061251c88828901612398565b945050604086013567ffffffffffffffff81111561253957600080fd5b612545888289016123d7565b935050606086013567ffffffffffffffff81111561256257600080fd5b61256e888289016123d7565b925050608086013567ffffffffffffffff81111561258b57600080fd5b61259788828901612440565b9150509295509295909350565b600080600080600060a086880312156125bc57600080fd5b60006125ca88828901612398565b95505060206125db88828901612398565b94505060406125ec88828901612494565b93505060606125fd88828901612494565b925050608086013567ffffffffffffffff81111561261a57600080fd5b61262688828901612440565b9150509295509295909350565b60008060006060848603121561264857600080fd5b600061265686828701612398565b935050602084013567ffffffffffffffff81111561267357600080fd5b61267f868287016123d7565b925050604084013567ffffffffffffffff81111561269c57600080fd5b6126a8868287016123d7565b9150509250925092565b600080600080608085870312156126c857600080fd5b60006126d687828801612398565b945050602085013567ffffffffffffffff8111156126f357600080fd5b6126ff878288016123d7565b935050604085013567ffffffffffffffff81111561271c57600080fd5b612728878288016123d7565b925050606085013567ffffffffffffffff81111561274557600080fd5b61275187828801612440565b91505092959194509250565b6000806040838503121561277057600080fd5b600061277e85828601612398565b925050602061278f85828601612401565b9150509250929050565b600080604083850312156127ac57600080fd5b60006127ba85828601612398565b92505060206127cb85828601612494565b9150509250929050565b6000806000606084860312156127ea57600080fd5b60006127f886828701612398565b935050602061280986828701612494565b925050604061281a86828701612494565b9150509250925092565b6000806000806080858703121561283a57600080fd5b600061284887828801612398565b945050602061285987828801612494565b935050604061286a87828801612494565b925050606085013567ffffffffffffffff81111561288757600080fd5b61289387828801612440565b91505092959194509250565b600080604083850312156128b257600080fd5b600083013567ffffffffffffffff8111156128cc57600080fd5b6128d8858286016123ad565b925050602083013567ffffffffffffffff8111156128f557600080fd5b612901858286016123d7565b9150509250929050565b60006020828403121561291d57600080fd5b600061292b84828501612416565b91505092915050565b60006020828403121561294657600080fd5b60006129548482850161242b565b91505092915050565b60006020828403121561296f57600080fd5b600082013567ffffffffffffffff81111561298957600080fd5b6129958482850161246a565b91505092915050565b6000602082840312156129b057600080fd5b60006129be84828501612494565b91505092915050565b60006129d38383612c94565b60208301905092915050565b6129e8816131c8565b82525050565b60006129f9826130dd565b612a03818561310b565b9350612a0e836130cd565b8060005b83811015612a3f578151612a2688826129c7565b9750612a31836130fe565b925050600181019050612a12565b5085935050505092915050565b612a55816131da565b82525050565b6000612a66826130e8565b612a70818561311c565b9350612a8081856020860161324b565b612a89816133d9565b840191505092915050565b6000612a9f826130f3565b612aa9818561312d565b9350612ab981856020860161324b565b612ac2816133d9565b840191505092915050565b6000612ada60348361312d565b9150612ae5826133f7565b604082019050919050565b6000612afd60288361312d565b9150612b0882613446565b604082019050919050565b6000612b20602b8361312d565b9150612b2b82613495565b604082019050919050565b6000612b4360248361312d565b9150612b4e826134e4565b604082019050919050565b6000612b6660298361312d565b9150612b7182613533565b604082019050919050565b6000612b8960258361312d565b9150612b9482613582565b604082019050919050565b6000612bac60328361312d565b9150612bb7826135d1565b604082019050919050565b6000612bcf60238361312d565b9150612bda82613620565b604082019050919050565b6000612bf2602a8361312d565b9150612bfd8261366f565b604082019050919050565b6000612c1560298361312d565b9150612c20826136be565b604082019050919050565b6000612c3860298361312d565b9150612c438261370d565b604082019050919050565b6000612c5b60288361312d565b9150612c668261375c565b604082019050919050565b6000612c7e60218361312d565b9150612c89826137ab565b604082019050919050565b612c9d81613232565b82525050565b612cac81613232565b82525050565b600060a082019050612cc760008301886129df565b612cd460208301876129df565b8181036040830152612ce681866129ee565b90508181036060830152612cfa81856129ee565b90508181036080830152612d0e8184612a5b565b90509695505050505050565b600060a082019050612d2f60008301886129df565b612d3c60208301876129df565b612d496040830186612ca3565b612d566060830185612ca3565b8181036080830152612d688184612a5b565b90509695505050505050565b60006020820190508181036000830152612d8e81846129ee565b905092915050565b60006040820190508181036000830152612db081856129ee565b90508181036020830152612dc481846129ee565b90509392505050565b6000602082019050612de26000830184612a4c565b92915050565b60006020820190508181036000830152612e028184612a94565b905092915050565b60006020820190508181036000830152612e2381612acd565b9050919050565b60006020820190508181036000830152612e4381612af0565b9050919050565b60006020820190508181036000830152612e6381612b13565b9050919050565b60006020820190508181036000830152612e8381612b36565b9050919050565b60006020820190508181036000830152612ea381612b59565b9050919050565b60006020820190508181036000830152612ec381612b7c565b9050919050565b60006020820190508181036000830152612ee381612b9f565b9050919050565b60006020820190508181036000830152612f0381612bc2565b9050919050565b60006020820190508181036000830152612f2381612be5565b9050919050565b60006020820190508181036000830152612f4381612c08565b9050919050565b60006020820190508181036000830152612f6381612c2b565b9050919050565b60006020820190508181036000830152612f8381612c4e565b9050919050565b60006020820190508181036000830152612fa381612c71565b9050919050565b6000602082019050612fbf6000830184612ca3565b92915050565b6000604082019050612fda6000830185612ca3565b612fe76020830184612ca3565b9392505050565b6000612ff8613009565b905061300482826132b0565b919050565b6000604051905090565b600067ffffffffffffffff82111561302e5761302d613388565b5b602082029050602081019050919050565b600067ffffffffffffffff82111561305a57613059613388565b5b602082029050602081019050919050565b600067ffffffffffffffff82111561308657613085613388565b5b61308f826133d9565b9050602081019050919050565b600067ffffffffffffffff8211156130b7576130b6613388565b5b6130c0826133d9565b9050602081019050919050565b6000819050602082019050919050565b600081519050919050565b600081519050919050565b600081519050919050565b6000602082019050919050565b600082825260208201905092915050565b600082825260208201905092915050565b600082825260208201905092915050565b600061314982613232565b915061315483613232565b9250827fffffffffffffffffffffffffffffffffffffffffffffffffffffffffffffffff038211156131895761318861332a565b5b828201905092915050565b600061319f82613232565b91506131aa83613232565b9250828210156131bd576131bc61332a565b5b828203905092915050565b60006131d382613212565b9050919050565b60008115159050919050565b60007fffffffff0000000000000000000000000000000000000000000000000000000082169050919050565b600073ffffffffffffffffffffffffffffffffffffffff82169050919050565b6000819050919050565b82818337600083830152505050565b60005b8381101561326957808201518184015260208101905061324e565b83811115613278576000848401525b50505050565b6000600282049050600182168061329657607f821691505b602082108114156132aa576132a9613359565b5b50919050565b6132b9826133d9565b810181811067ffffffffffffffff821117156132d8576132d7613388565b5b80604052505050565b60006132ec82613232565b91507fffffffffffffffffffffffffffffffffffffffffffffffffffffffffffffffff82141561331f5761331e61332a565b5b600182019050919050565b7f4e487b7100000000000000000000000000000000000000000000000000000000600052601160045260246000fd5b7f4e487b7100000000000000000000000000000000000000000000000000000000600052602260045260246000fd5b7f4e487b7100000000000000000000000000000000000000000000000000000000600052604160045260246000fd5b600060033d11156133d65760046000803e6133d36000516133ea565b90505b90565b6000601f19601f8301169050919050565b60008160e01c9050919050565b7f455243313135353a207472616e7366657220746f206e6f6e204552433131353560008201527f526563656976657220696d706c656d656e746572000000000000000000000000602082015250565b7f455243313135353a204552433131353552656365697665722072656a6563746560008201527f6420746f6b656e73000000000000000000000000000000000000000000000000602082015250565b7f455243313135353a2062616c616e636520717565727920666f7220746865207a60008201527f65726f2061646472657373000000000000000000000000000000000000000000602082015250565b7f455243313135353a206275726e20616d6f756e7420657863656564732062616c60008201527f616e636500000000000000000000000000000000000000000000000000000000602082015250565b7f455243313135353a2063616c6c6572206973206e6f74206f776e6572206e6f7260008201527f20617070726f7665640000000000000000000000000000000000000000000000602082015250565b7f455243313135353a207472616e7366657220746f20746865207a65726f20616460008201527f6472657373000000000000000000000000000000000000000000000000000000602082015250565b7f455243313135353a207472616e736665722063616c6c6572206973206e6f742060008201527f6f776e6572206e6f7220617070726f7665640000000000000000000000000000602082015250565b7f455243313135353a206275726e2066726f6d20746865207a65726f206164647260008201527f6573730000000000000000000000000000000000000000000000000000000000602082015250565b7f455243313135353a20696e73756666696369656e742062616c616e636520666f60008201527f72207472616e7366657200000000000000000000000000000000000000000000602082015250565b7f455243313135353a2073657474696e6720617070726f76616c2073746174757360008201527f20666f722073656c660000000000000000000000000000000000000000000000602082015250565b7f455243313135353a206163636f756e747320616e6420696473206c656e67746860008201527f206d69736d617463680000000000000000000000000000000000000000000000602082015250565b7f455243313135353a2069647320616e6420616d6f756e7473206c656e6774682060008201527f6d69736d61746368000000000000000000000000000000000000000000000000602082015250565b7f455243313135353a206d696e7420746f20746865207a65726f2061646472657360008201527f7300000000000000000000000000000000000000000000000000000000000000602082015250565b600060443d101561380a5761388d565b613812613009565b60043d036004823e80513d602482011167ffffffffffffffff8211171561383a57505061388d565b808201805167ffffffffffffffff811115613858575050505061388d565b80602083010160043d03850181111561387557505050505061388d565b613884826020018501866132b0565b82955050505050505b90565b613899816131c8565b81146138a457600080fd5b50565b6138b0816131da565b81146138bb57600080fd5b50565b6138c7816131e6565b81146138d257600080fd5b50565b6138de81613232565b81146138e957600080fd5b5056fea2646970667358221220984707bdcf8edbe6c79bfe8cdaa91a3cf1d670b167ac6acfeece4120e9064e3e64736f6c63430008040033",
  "linkReferences": {},
  "deployedLinkReferences": {}
}