{
  "_format": "hh-sol-artifact-1",
  "contractName": "ERC1155PresetMinterPauserUpgradeableWithInit",
  "sourceName": "contracts/src/OpenZeppelin/upgradeable/mocks/WithInit.sol",
  "abi": [
    {
      "inputs": [
        {
          "internalType": "string",
          "name": "uri",
          "type": "string"
        }
      ],
      "stateMutability": "payable",
      "type": "constructor"
    },
    {
      "anonymous": false,
      "inputs": [
        {
          "indexed": true,
          "internalType": "address",
          "name": "account",
          "type": "address"
        },
        {
          "indexed": true,
          "internalType": "address",
          "name": "operator",
          "type": "address"
        },
        {
          "indexed": false,
          "internalType": "bool",
          "name": "approved",
          "type": "bool"
        }
      ],
      "name": "ApprovalForAll",
      "type": "event"
    },
    {
      "anonymous": false,
      "inputs": [
        {
          "indexed": false,
          "internalType": "address",
          "name": "account",
          "type": "address"
        }
      ],
      "name": "Paused",
      "type": "event"
    },
    {
      "anonymous": false,
      "inputs": [
        {
          "indexed": true,
          "internalType": "bytes32",
          "name": "role",
          "type": "bytes32"
        },
        {
          "indexed": true,
          "internalType": "bytes32",
          "name": "previousAdminRole",
          "type": "bytes32"
        },
        {
          "indexed": true,
          "internalType": "bytes32",
          "name": "newAdminRole",
          "type": "bytes32"
        }
      ],
      "name": "RoleAdminChanged",
      "type": "event"
    },
    {
      "anonymous": false,
      "inputs": [
        {
          "indexed": true,
          "internalType": "bytes32",
          "name": "role",
          "type": "bytes32"
        },
        {
          "indexed": true,
          "internalType": "address",
          "name": "account",
          "type": "address"
        },
        {
          "indexed": true,
          "internalType": "address",
          "name": "sender",
          "type": "address"
        }
      ],
      "name": "RoleGranted",
      "type": "event"
    },
    {
      "anonymous": false,
      "inputs": [
        {
          "indexed": true,
          "internalType": "bytes32",
          "name": "role",
          "type": "bytes32"
        },
        {
          "indexed": true,
          "internalType": "address",
          "name": "account",
          "type": "address"
        },
        {
          "indexed": true,
          "internalType": "address",
          "name": "sender",
          "type": "address"
        }
      ],
      "name": "RoleRevoked",
      "type": "event"
    },
    {
      "anonymous": false,
      "inputs": [
        {
          "indexed": true,
          "internalType": "address",
          "name": "operator",
          "type": "address"
        },
        {
          "indexed": true,
          "internalType": "address",
          "name": "from",
          "type": "address"
        },
        {
          "indexed": true,
          "internalType": "address",
          "name": "to",
          "type": "address"
        },
        {
          "indexed": false,
          "internalType": "uint256[]",
          "name": "ids",
          "type": "uint256[]"
        },
        {
          "indexed": false,
          "internalType": "uint256[]",
          "name": "values",
          "type": "uint256[]"
        }
      ],
      "name": "TransferBatch",
      "type": "event"
    },
    {
      "anonymous": false,
      "inputs": [
        {
          "indexed": true,
          "internalType": "address",
          "name": "operator",
          "type": "address"
        },
        {
          "indexed": true,
          "internalType": "address",
          "name": "from",
          "type": "address"
        },
        {
          "indexed": true,
          "internalType": "address",
          "name": "to",
          "type": "address"
        },
        {
          "indexed": false,
          "internalType": "uint256",
          "name": "id",
          "type": "uint256"
        },
        {
          "indexed": false,
          "internalType": "uint256",
          "name": "value",
          "type": "uint256"
        }
      ],
      "name": "TransferSingle",
      "type": "event"
    },
    {
      "anonymous": false,
      "inputs": [
        {
          "indexed": false,
          "internalType": "string",
          "name": "value",
          "type": "string"
        },
        {
          "indexed": true,
          "internalType": "uint256",
          "name": "id",
          "type": "uint256"
        }
      ],
      "name": "URI",
      "type": "event"
    },
    {
      "anonymous": false,
      "inputs": [
        {
          "indexed": false,
          "internalType": "address",
          "name": "account",
          "type": "address"
        }
      ],
      "name": "Unpaused",
      "type": "event"
    },
    {
      "inputs": [],
      "name": "DEFAULT_ADMIN_ROLE",
      "outputs": [
        {
          "internalType": "bytes32",
          "name": "",
          "type": "bytes32"
        }
      ],
      "stateMutability": "view",
      "type": "function"
    },
    {
      "inputs": [],
      "name": "MINTER_ROLE",
      "outputs": [
        {
          "internalType": "bytes32",
          "name": "",
          "type": "bytes32"
        }
      ],
      "stateMutability": "view",
      "type": "function"
    },
    {
      "inputs": [],
      "name": "PAUSER_ROLE",
      "outputs": [
        {
          "internalType": "bytes32",
          "name": "",
          "type": "bytes32"
        }
      ],
      "stateMutability": "view",
      "type": "function"
    },
    {
      "inputs": [
        {
          "internalType": "address",
          "name": "account",
          "type": "address"
        },
        {
          "internalType": "uint256",
          "name": "id",
          "type": "uint256"
        }
      ],
      "name": "balanceOf",
      "outputs": [
        {
          "internalType": "uint256",
          "name": "",
          "type": "uint256"
        }
      ],
      "stateMutability": "view",
      "type": "function"
    },
    {
      "inputs": [
        {
          "internalType": "address[]",
          "name": "accounts",
          "type": "address[]"
        },
        {
          "internalType": "uint256[]",
          "name": "ids",
          "type": "uint256[]"
        }
      ],
      "name": "balanceOfBatch",
      "outputs": [
        {
          "internalType": "uint256[]",
          "name": "",
          "type": "uint256[]"
        }
      ],
      "stateMutability": "view",
      "type": "function"
    },
    {
      "inputs": [
        {
          "internalType": "address",
          "name": "account",
          "type": "address"
        },
        {
          "internalType": "uint256",
          "name": "id",
          "type": "uint256"
        },
        {
          "internalType": "uint256",
          "name": "value",
          "type": "uint256"
        }
      ],
      "name": "burn",
      "outputs": [],
      "stateMutability": "nonpayable",
      "type": "function"
    },
    {
      "inputs": [
        {
          "internalType": "address",
          "name": "account",
          "type": "address"
        },
        {
          "internalType": "uint256[]",
          "name": "ids",
          "type": "uint256[]"
        },
        {
          "internalType": "uint256[]",
          "name": "values",
          "type": "uint256[]"
        }
      ],
      "name": "burnBatch",
      "outputs": [],
      "stateMutability": "nonpayable",
      "type": "function"
    },
    {
      "inputs": [
        {
          "internalType": "bytes32",
          "name": "role",
          "type": "bytes32"
        }
      ],
      "name": "getRoleAdmin",
      "outputs": [
        {
          "internalType": "bytes32",
          "name": "",
          "type": "bytes32"
        }
      ],
      "stateMutability": "view",
      "type": "function"
    },
    {
      "inputs": [
        {
          "internalType": "bytes32",
          "name": "role",
          "type": "bytes32"
        },
        {
          "internalType": "uint256",
          "name": "index",
          "type": "uint256"
        }
      ],
      "name": "getRoleMember",
      "outputs": [
        {
          "internalType": "address",
          "name": "",
          "type": "address"
        }
      ],
      "stateMutability": "view",
      "type": "function"
    },
    {
      "inputs": [
        {
          "internalType": "bytes32",
          "name": "role",
          "type": "bytes32"
        }
      ],
      "name": "getRoleMemberCount",
      "outputs": [
        {
          "internalType": "uint256",
          "name": "",
          "type": "uint256"
        }
      ],
      "stateMutability": "view",
      "type": "function"
    },
    {
      "inputs": [
        {
          "internalType": "bytes32",
          "name": "role",
          "type": "bytes32"
        },
        {
          "internalType": "address",
          "name": "account",
          "type": "address"
        }
      ],
      "name": "grantRole",
      "outputs": [],
      "stateMutability": "nonpayable",
      "type": "function"
    },
    {
      "inputs": [
        {
          "internalType": "bytes32",
          "name": "role",
          "type": "bytes32"
        },
        {
          "internalType": "address",
          "name": "account",
          "type": "address"
        }
      ],
      "name": "hasRole",
      "outputs": [
        {
          "internalType": "bool",
          "name": "",
          "type": "bool"
        }
      ],
      "stateMutability": "view",
      "type": "function"
    },
    {
      "inputs": [
        {
          "internalType": "string",
          "name": "uri",
          "type": "string"
        }
      ],
      "name": "initialize",
      "outputs": [],
      "stateMutability": "nonpayable",
      "type": "function"
    },
    {
      "inputs": [
        {
          "internalType": "address",
          "name": "account",
          "type": "address"
        },
        {
          "internalType": "address",
          "name": "operator",
          "type": "address"
        }
      ],
      "name": "isApprovedForAll",
      "outputs": [
        {
          "internalType": "bool",
          "name": "",
          "type": "bool"
        }
      ],
      "stateMutability": "view",
      "type": "function"
    },
    {
      "inputs": [
        {
          "internalType": "address",
          "name": "to",
          "type": "address"
        },
        {
          "internalType": "uint256",
          "name": "id",
          "type": "uint256"
        },
        {
          "internalType": "uint256",
          "name": "amount",
          "type": "uint256"
        },
        {
          "internalType": "bytes",
          "name": "data",
          "type": "bytes"
        }
      ],
      "name": "mint",
      "outputs": [],
      "stateMutability": "nonpayable",
      "type": "function"
    },
    {
      "inputs": [
        {
          "internalType": "address",
          "name": "to",
          "type": "address"
        },
        {
          "internalType": "uint256[]",
          "name": "ids",
          "type": "uint256[]"
        },
        {
          "internalType": "uint256[]",
          "name": "amounts",
          "type": "uint256[]"
        },
        {
          "internalType": "bytes",
          "name": "data",
          "type": "bytes"
        }
      ],
      "name": "mintBatch",
      "outputs": [],
      "stateMutability": "nonpayable",
      "type": "function"
    },
    {
      "inputs": [],
      "name": "pause",
      "outputs": [],
      "stateMutability": "nonpayable",
      "type": "function"
    },
    {
      "inputs": [],
      "name": "paused",
      "outputs": [
        {
          "internalType": "bool",
          "name": "",
          "type": "bool"
        }
      ],
      "stateMutability": "view",
      "type": "function"
    },
    {
      "inputs": [
        {
          "internalType": "bytes32",
          "name": "role",
          "type": "bytes32"
        },
        {
          "internalType": "address",
          "name": "account",
          "type": "address"
        }
      ],
      "name": "renounceRole",
      "outputs": [],
      "stateMutability": "nonpayable",
      "type": "function"
    },
    {
      "inputs": [
        {
          "internalType": "bytes32",
          "name": "role",
          "type": "bytes32"
        },
        {
          "internalType": "address",
          "name": "account",
          "type": "address"
        }
      ],
      "name": "revokeRole",
      "outputs": [],
      "stateMutability": "nonpayable",
      "type": "function"
    },
    {
      "inputs": [
        {
          "internalType": "address",
          "name": "from",
          "type": "address"
        },
        {
          "internalType": "address",
          "name": "to",
          "type": "address"
        },
        {
          "internalType": "uint256[]",
          "name": "ids",
          "type": "uint256[]"
        },
        {
          "internalType": "uint256[]",
          "name": "amounts",
          "type": "uint256[]"
        },
        {
          "internalType": "bytes",
          "name": "data",
          "type": "bytes"
        }
      ],
      "name": "safeBatchTransferFrom",
      "outputs": [],
      "stateMutability": "nonpayable",
      "type": "function"
    },
    {
      "inputs": [
        {
          "internalType": "address",
          "name": "from",
          "type": "address"
        },
        {
          "internalType": "address",
          "name": "to",
          "type": "address"
        },
        {
          "internalType": "uint256",
          "name": "id",
          "type": "uint256"
        },
        {
          "internalType": "uint256",
          "name": "amount",
          "type": "uint256"
        },
        {
          "internalType": "bytes",
          "name": "data",
          "type": "bytes"
        }
      ],
      "name": "safeTransferFrom",
      "outputs": [],
      "stateMutability": "nonpayable",
      "type": "function"
    },
    {
      "inputs": [
        {
          "internalType": "address",
          "name": "operator",
          "type": "address"
        },
        {
          "internalType": "bool",
          "name": "approved",
          "type": "bool"
        }
      ],
      "name": "setApprovalForAll",
      "outputs": [],
      "stateMutability": "nonpayable",
      "type": "function"
    },
    {
      "inputs": [
        {
          "internalType": "bytes4",
          "name": "interfaceId",
          "type": "bytes4"
        }
      ],
      "name": "supportsInterface",
      "outputs": [
        {
          "internalType": "bool",
          "name": "",
          "type": "bool"
        }
      ],
      "stateMutability": "view",
      "type": "function"
    },
    {
      "inputs": [],
      "name": "unpause",
      "outputs": [],
      "stateMutability": "nonpayable",
      "type": "function"
    },
    {
      "inputs": [
        {
          "internalType": "uint256",
          "name": "",
          "type": "uint256"
        }
      ],
      "name": "uri",
      "outputs": [
        {
          "internalType": "string",
          "name": "",
          "type": "string"
        }
      ],
      "stateMutability": "view",
      "type": "function"
    }
  ],
  "bytecode": "0x608060405260405162006ba338038062006ba3833981810160405281019062000029919062000e35565b6200003a816200004160201b60201c565b5062001093565b600060019054906101000a900460ff168062000068575060008054906101000a900460ff16155b620000aa576040517f08c379a0000000000000000000000000000000000000000000000000000000008152600401620000a19062000ea1565b60405180910390fd5b60008060019054906101000a900460ff161590508015620000fb576001600060016101000a81548160ff02191690831515021790555060016000806101000a81548160ff0219169083151502179055505b6200010b620001b360201b60201c565b6200011b6200029260201b60201c565b6200012b6200037160201b60201c565b6200013b6200045060201b60201c565b6200014c826200052f60201b60201c565b6200015c6200062060201b60201c565b6200016c620006ff60201b60201c565b6200017c620007fa60201b60201c565b6200018d82620008d960201b60201c565b8015620001af5760008060016101000a81548160ff0219169083151502179055505b5050565b600060019054906101000a900460ff1680620001da575060008054906101000a900460ff16155b6200021c576040517f08c379a0000000000000000000000000000000000000000000000000000000008152600401620002139062000ea1565b60405180910390fd5b60008060019054906101000a900460ff1615905080156200026d576001600060016101000a81548160ff02191690831515021790555060016000806101000a81548160ff0219169083151502179055505b80156200028f5760008060016101000a81548160ff0219169083151502179055505b50565b600060019054906101000a900460ff1680620002b9575060008054906101000a900460ff16155b620002fb576040517f08c379a0000000000000000000000000000000000000000000000000000000008152600401620002f29062000ea1565b60405180910390fd5b60008060019054906101000a900460ff1615905080156200034c576001600060016101000a81548160ff02191690831515021790555060016000806101000a81548160ff0219169083151502179055505b80156200036e5760008060016101000a81548160ff0219169083151502179055505b50565b600060019054906101000a900460ff168062000398575060008054906101000a900460ff16155b620003da576040517f08c379a0000000000000000000000000000000000000000000000000000000008152600401620003d19062000ea1565b60405180910390fd5b60008060019054906101000a900460ff1615905080156200042b576001600060016101000a81548160ff02191690831515021790555060016000806101000a81548160ff0219169083151502179055505b80156200044d5760008060016101000a81548160ff0219169083151502179055505b50565b600060019054906101000a900460ff168062000477575060008054906101000a900460ff16155b620004b9576040517f08c379a0000000000000000000000000000000000000000000000000000000008152600401620004b09062000ea1565b60405180910390fd5b60008060019054906101000a900460ff1615905080156200050a576001600060016101000a81548160ff02191690831515021790555060016000806101000a81548160ff0219169083151502179055505b80156200052c5760008060016101000a81548160ff0219169083151502179055505b50565b600060019054906101000a900460ff168062000556575060008054906101000a900460ff16155b62000598576040517f08c379a00000000000000000000000000000000000000000000000000000000081526004016200058f9062000ea1565b60405180910390fd5b60008060019054906101000a900460ff161590508015620005e9576001600060016101000a81548160ff02191690831515021790555060016000806101000a81548160ff0219169083151502179055505b620005fa8262000a5f60201b60201c565b80156200061c5760008060016101000a81548160ff0219169083151502179055505b5050565b600060019054906101000a900460ff168062000647575060008054906101000a900460ff16155b62000689576040517f08c379a0000000000000000000000000000000000000000000000000000000008152600401620006809062000ea1565b60405180910390fd5b60008060019054906101000a900460ff161590508015620006da576001600060016101000a81548160ff02191690831515021790555060016000806101000a81548160ff0219169083151502179055505b8015620006fc5760008060016101000a81548160ff0219169083151502179055505b50565b600060019054906101000a900460ff168062000726575060008054906101000a900460ff16155b62000768576040517f08c379a00000000000000000000000000000000000000000000000000000000081526004016200075f9062000ea1565b60405180910390fd5b60008060019054906101000a900460ff161590508015620007b9576001600060016101000a81548160ff02191690831515021790555060016000806101000a81548160ff0219169083151502179055505b600061012d60006101000a81548160ff0219169083151502179055508015620007f75760008060016101000a81548160ff0219169083151502179055505b50565b600060019054906101000a900460ff168062000821575060008054906101000a900460ff16155b62000863576040517f08c379a00000000000000000000000000000000000000000000000000000000081526004016200085a9062000ea1565b60405180910390fd5b60008060019054906101000a900460ff161590508015620008b4576001600060016101000a81548160ff02191690831515021790555060016000806101000a81548160ff0219169083151502179055505b8015620008d65760008060016101000a81548160ff0219169083151502179055505b50565b600060019054906101000a900460ff168062000900575060008054906101000a900460ff16155b62000942576040517f08c379a0000000000000000000000000000000000000000000000000000000008152600401620009399062000ea1565b60405180910390fd5b60008060019054906101000a900460ff16159050801562000993576001600060016101000a81548160ff02191690831515021790555060016000806101000a81548160ff0219169083151502179055505b620009b76000801b620009ab62000a7b60201b60201c565b62000a8360201b60201c565b620009f87f9f2df0fed2c77648de5860a4cc508cd0818c85b8b8a1ab4ceeef8d981c8956a6620009ec62000a7b60201b60201c565b62000a8360201b60201c565b62000a397f65d7a28e3265b37a6474929f336521b332c1681b933f6cb9f3376673440d862a62000a2d62000a7b60201b60201c565b62000a8360201b60201c565b801562000a5b5760008060016101000a81548160ff0219169083151502179055505b5050565b8060cb908051906020019062000a7792919062000d13565b5050565b600033905090565b62000a9a828262000acb60201b620011701760201c565b62000ac6816097600085815260200190815260200160002062000ae160201b6200117e1790919060201c565b505050565b62000add828262000b1960201b60201c565b5050565b600062000b11836000018373ffffffffffffffffffffffffffffffffffffffff1660001b62000c0b60201b60201c565b905092915050565b62000b2b828262000c8560201b60201c565b62000c075760016065600084815260200190815260200160002060000160008373ffffffffffffffffffffffffffffffffffffffff1673ffffffffffffffffffffffffffffffffffffffff16815260200190815260200160002060006101000a81548160ff02191690831515021790555062000bac62000a7b60201b60201c565b73ffffffffffffffffffffffffffffffffffffffff168173ffffffffffffffffffffffffffffffffffffffff16837f2f8788117e7eff1d82e926ec794901d17c78024a50270940304540a733656f0d60405160405180910390a45b5050565b600062000c1f838362000cf060201b60201c565b62000c7a57826000018290806001815401808255809150506001900390600052602060002001600090919091909150558260000180549050836001016000848152602001908152602001600020819055506001905062000c7f565b600090505b92915050565b60006065600084815260200190815260200160002060000160008373ffffffffffffffffffffffffffffffffffffffff1673ffffffffffffffffffffffffffffffffffffffff16815260200190815260200160002060009054906101000a900460ff16905092915050565b600080836001016000848152602001908152602001600020541415905092915050565b82805462000d219062000f69565b90600052602060002090601f01602090048101928262000d45576000855562000d91565b82601f1062000d6057805160ff191683800117855562000d91565b8280016001018555821562000d91579182015b8281111562000d9057825182559160200191906001019062000d73565b5b50905062000da0919062000da4565b5090565b5b8082111562000dbf57600081600090555060010162000da5565b5090565b600062000dda62000dd48462000eec565b62000ec3565b90508281526020810184848401111562000df357600080fd5b62000e0084828562000f33565b509392505050565b600082601f83011262000e1a57600080fd5b815162000e2c84826020860162000dc3565b91505092915050565b60006020828403121562000e4857600080fd5b600082015167ffffffffffffffff81111562000e6357600080fd5b62000e718482850162000e08565b91505092915050565b600062000e89602e8362000f22565b915062000e968262001044565b604082019050919050565b6000602082019050818103600083015262000ebc8162000e7a565b9050919050565b600062000ecf62000ee2565b905062000edd828262000f9f565b919050565b6000604051905090565b600067ffffffffffffffff82111562000f0a5762000f0962001004565b5b62000f158262001033565b9050602081019050919050565b600082825260208201905092915050565b60005b8381101562000f5357808201518184015260208101905062000f36565b8381111562000f63576000848401525b50505050565b6000600282049050600182168062000f8257607f821691505b6020821081141562000f995762000f9862000fd5565b5b50919050565b62000faa8262001033565b810181811067ffffffffffffffff8211171562000fcc5762000fcb62001004565b5b80604052505050565b7f4e487b7100000000000000000000000000000000000000000000000000000000600052602260045260246000fd5b7f4e487b7100000000000000000000000000000000000000000000000000000000600052604160045260246000fd5b6000601f19601f8301169050919050565b7f496e697469616c697a61626c653a20636f6e747261637420697320616c72656160008201527f647920696e697469616c697a6564000000000000000000000000000000000000602082015250565b615b0080620010a36000396000f3fe608060405234801561001057600080fd5b506004361061018d5760003560e01c80638456cb59116100de578063d539139311610097578063e985e9c511610071578063e985e9c51461047e578063f242432a146104ae578063f5298aca146104ca578063f62d1888146104e65761018d565b8063d539139314610426578063d547741f14610444578063e63ab1e9146104605761018d565b80638456cb59146103525780639010d07c1461035c57806391d148541461038c578063a217fddf146103bc578063a22cb465146103da578063ca15c873146103f65761018d565b80632f2ff15d1161014b5780634e1273f4116101255780634e1273f4146102cc5780635c975abb146102fc5780636b20c4541461031a578063731133e9146103365761018d565b80632f2ff15d1461028a57806336568abe146102a65780633f4ba83a146102c25761018d565b8062fdd58e1461019257806301ffc9a7146101c25780630e89341c146101f25780631f7fdffa14610222578063248a9ca31461023e5780632eb2c2d61461026e575b600080fd5b6101ac60048036038101906101a7919061422e565b610502565b6040516101b99190614e31565b60405180910390f35b6101dc60048036038101906101d79190614441565b6105cc565b6040516101e99190614b19565b60405180910390f35b61020c600480360381019061020791906144d4565b6105de565b6040516102199190614b4f565b60405180910390f35b61023c60048036038101906102379190614147565b610672565b005b610258600480360381019061025391906143a0565b6106f4565b6040516102659190614b34565b60405180910390f35b61028860048036038101906102839190613f7a565b610714565b005b6102a4600480360381019061029f91906143c9565b6107b5565b005b6102c060048036038101906102bb91906143c9565b6107e9565b005b6102ca61081d565b005b6102e660048036038101906102e19190614334565b610897565b6040516102f39190614ac0565b60405180910390f35b610304610a48565b6040516103119190614b19565b60405180910390f35b610334600480360381019061032f91906140c8565b610a60565b005b610350600480360381019061034b91906142b9565b610afd565b005b61035a610b7f565b005b61037660048036038101906103719190614405565b610bf9565b60405161038391906149e3565b60405180910390f35b6103a660048036038101906103a191906143c9565b610c28565b6040516103b39190614b19565b60405180910390f35b6103c4610c93565b6040516103d19190614b34565b60405180910390f35b6103f460048036038101906103ef91906141f2565b610c9a565b005b610410600480360381019061040b91906143a0565b610e1b565b60405161041d9190614e31565b60405180910390f35b61042e610e3f565b60405161043b9190614b34565b60405180910390f35b61045e600480360381019061045991906143c9565b610e63565b005b610468610e97565b6040516104759190614b34565b60405180910390f35b61049860048036038101906104939190613f3e565b610ebb565b6040516104a59190614b19565b60405180910390f35b6104c860048036038101906104c39190614039565b610f4f565b005b6104e460048036038101906104df919061426a565b610ff0565b005b61050060048036038101906104fb9190614493565b61108d565b005b60008073ffffffffffffffffffffffffffffffffffffffff168373ffffffffffffffffffffffffffffffffffffffff161415610573576040517f08c379a000000000000000000000000000000000000000000000000000000000815260040161056a90614bf1565b60405180910390fd5b60c9600083815260200190815260200160002060008473ffffffffffffffffffffffffffffffffffffffff1673ffffffffffffffffffffffffffffffffffffffff16815260200190815260200160002054905092915050565b60006105d7826111ae565b9050919050565b606060cb80546105ed9061519e565b80601f01602080910402602001604051908101604052809291908181526020018280546106199061519e565b80156106665780601f1061063b57610100808354040283529160200191610666565b820191906000526020600020905b81548152906001019060200180831161064957829003601f168201915b50505050509050919050565b6106a37f9f2df0fed2c77648de5860a4cc508cd0818c85b8b8a1ab4ceeef8d981c8956a661069e611290565b610c28565b6106e2576040517f08c379a00000000000000000000000000000000000000000000000000000000081526004016106d990614d11565b60405180910390fd5b6106ee84848484611298565b50505050565b600060656000838152602001908152602001600020600101549050919050565b61071c611290565b73ffffffffffffffffffffffffffffffffffffffff168573ffffffffffffffffffffffffffffffffffffffff16148061076257506107618561075c611290565b610ebb565b5b6107a1576040517f08c379a000000000000000000000000000000000000000000000000000000000815260040161079890614cb1565b60405180910390fd5b6107ae8585858585611503565b5050505050565b6107bf8282611866565b6107e4816097600085815260200190815260200160002061117e90919063ffffffff16565b505050565b6107f3828261188f565b610818816097600085815260200190815260200160002061191290919063ffffffff16565b505050565b61084e7f65d7a28e3265b37a6474929f336521b332c1681b933f6cb9f3376673440d862a610849611290565b610c28565b61088d576040517f08c379a000000000000000000000000000000000000000000000000000000000815260040161088490614d51565b60405180910390fd5b610895611942565b565b606081518351146108dd576040517f08c379a00000000000000000000000000000000000000000000000000000000081526004016108d490614db1565b60405180910390fd5b6000835167ffffffffffffffff811115610920577f4e487b7100000000000000000000000000000000000000000000000000000000600052604160045260246000fd5b60405190808252806020026020018201604052801561094e5781602001602082028036833780820191505090505b50905060005b8451811015610a3d576109e7858281518110610999577f4e487b7100000000000000000000000000000000000000000000000000000000600052603260045260246000fd5b60200260200101518583815181106109da577f4e487b7100000000000000000000000000000000000000000000000000000000600052603260045260246000fd5b6020026020010151610502565b828281518110610a20577f4e487b7100000000000000000000000000000000000000000000000000000000600052603260045260246000fd5b60200260200101818152505080610a3690615201565b9050610954565b508091505092915050565b600061012d60009054906101000a900460ff16905090565b610a68611290565b73ffffffffffffffffffffffffffffffffffffffff168373ffffffffffffffffffffffffffffffffffffffff161480610aae5750610aad83610aa8611290565b610ebb565b5b610aed576040517f08c379a0000000000000000000000000000000000000000000000000000000008152600401610ae490614c51565b60405180910390fd5b610af88383836119e5565b505050565b610b2e7f9f2df0fed2c77648de5860a4cc508cd0818c85b8b8a1ab4ceeef8d981c8956a6610b29611290565b610c28565b610b6d576040517f08c379a0000000000000000000000000000000000000000000000000000000008152600401610b6490614d11565b60405180910390fd5b610b7984848484611ce4565b50505050565b610bb07f65d7a28e3265b37a6474929f336521b332c1681b933f6cb9f3376673440d862a610bab611290565b610c28565b610bef576040517f08c379a0000000000000000000000000000000000000000000000000000000008152600401610be690614d71565b60405180910390fd5b610bf7611e7b565b565b6000610c208260976000868152602001908152602001600020611f1f90919063ffffffff16565b905092915050565b60006065600084815260200190815260200160002060000160008373ffffffffffffffffffffffffffffffffffffffff1673ffffffffffffffffffffffffffffffffffffffff16815260200190815260200160002060009054906101000a900460ff16905092915050565b6000801b81565b8173ffffffffffffffffffffffffffffffffffffffff16610cb9611290565b73ffffffffffffffffffffffffffffffffffffffff161415610d10576040517f08c379a0000000000000000000000000000000000000000000000000000000008152600401610d0790614d91565b60405180910390fd5b8060ca6000610d1d611290565b73ffffffffffffffffffffffffffffffffffffffff1673ffffffffffffffffffffffffffffffffffffffff16815260200190815260200160002060008473ffffffffffffffffffffffffffffffffffffffff1673ffffffffffffffffffffffffffffffffffffffff16815260200190815260200160002060006101000a81548160ff0219169083151502179055508173ffffffffffffffffffffffffffffffffffffffff16610dca611290565b73ffffffffffffffffffffffffffffffffffffffff167f17307eab39ab6107e8899845ad3d59bd9653f200f220920489ca2b5937696c3183604051610e0f9190614b19565b60405180910390a35050565b6000610e3860976000848152602001908152602001600020611f39565b9050919050565b7f9f2df0fed2c77648de5860a4cc508cd0818c85b8b8a1ab4ceeef8d981c8956a681565b610e6d8282611f4e565b610e92816097600085815260200190815260200160002061191290919063ffffffff16565b505050565b7f65d7a28e3265b37a6474929f336521b332c1681b933f6cb9f3376673440d862a81565b600060ca60008473ffffffffffffffffffffffffffffffffffffffff1673ffffffffffffffffffffffffffffffffffffffff16815260200190815260200160002060008373ffffffffffffffffffffffffffffffffffffffff1673ffffffffffffffffffffffffffffffffffffffff16815260200190815260200160002060009054906101000a900460ff16905092915050565b610f57611290565b73ffffffffffffffffffffffffffffffffffffffff168573ffffffffffffffffffffffffffffffffffffffff161480610f9d5750610f9c85610f97611290565b610ebb565b5b610fdc576040517f08c379a0000000000000000000000000000000000000000000000000000000008152600401610fd390614c51565b60405180910390fd5b610fe98585858585611f77565b5050505050565b610ff8611290565b73ffffffffffffffffffffffffffffffffffffffff168373ffffffffffffffffffffffffffffffffffffffff16148061103e575061103d83611038611290565b610ebb565b5b61107d576040517f08c379a000000000000000000000000000000000000000000000000000000000815260040161107490614c51565b60405180910390fd5b6110888383836121fc565b505050565b600060019054906101000a900460ff16806110b3575060008054906101000a900460ff16155b6110f2576040517f08c379a00000000000000000000000000000000000000000000000000000000081526004016110e990614cd1565b60405180910390fd5b60008060019054906101000a900460ff161590508015611142576001600060016101000a81548160ff02191690831515021790555060016000806101000a81548160ff0219169083151502179055505b61114b8261241b565b801561116c5760008060016101000a81548160ff0219169083151502179055505b5050565b61117a828261253f565b5050565b60006111a6836000018373ffffffffffffffffffffffffffffffffffffffff1660001b612620565b905092915050565b60007fd9b67a26000000000000000000000000000000000000000000000000000000007bffffffffffffffffffffffffffffffffffffffffffffffffffffffff1916827bffffffffffffffffffffffffffffffffffffffffffffffffffffffff1916148061127957507f0e89341c000000000000000000000000000000000000000000000000000000007bffffffffffffffffffffffffffffffffffffffffffffffffffffffff1916827bffffffffffffffffffffffffffffffffffffffffffffffffffffffff1916145b80611289575061128882612690565b5b9050919050565b600033905090565b600073ffffffffffffffffffffffffffffffffffffffff168473ffffffffffffffffffffffffffffffffffffffff161415611308576040517f08c379a00000000000000000000000000000000000000000000000000000000081526004016112ff90614df1565b60405180910390fd5b815183511461134c576040517f08c379a000000000000000000000000000000000000000000000000000000000815260040161134390614dd1565b60405180910390fd5b6000611356611290565b90506113678160008787878761270a565b60005b845181101561146d578381815181106113ac577f4e487b7100000000000000000000000000000000000000000000000000000000600052603260045260246000fd5b602002602001015160c960008784815181106113f1577f4e487b7100000000000000000000000000000000000000000000000000000000600052603260045260246000fd5b6020026020010151815260200190815260200160002060008873ffffffffffffffffffffffffffffffffffffffff1673ffffffffffffffffffffffffffffffffffffffff16815260200190815260200160002060008282546114539190614fd0565b92505081905550808061146590615201565b91505061136a565b508473ffffffffffffffffffffffffffffffffffffffff16600073ffffffffffffffffffffffffffffffffffffffff168273ffffffffffffffffffffffffffffffffffffffff167f4a39dc06d4c0dbc64b70af90fd698a233a518aa5d07e595d983b8c0526c8f7fb87876040516114e5929190614ae2565b60405180910390a46114fc81600087878787612720565b5050505050565b8151835114611547576040517f08c379a000000000000000000000000000000000000000000000000000000000815260040161153e90614dd1565b60405180910390fd5b600073ffffffffffffffffffffffffffffffffffffffff168473ffffffffffffffffffffffffffffffffffffffff1614156115b7576040517f08c379a00000000000000000000000000000000000000000000000000000000081526004016115ae90614c91565b60405180910390fd5b60006115c1611290565b90506115d181878787878761270a565b60005b84518110156117d1576000858281518110611618577f4e487b7100000000000000000000000000000000000000000000000000000000600052603260045260246000fd5b60200260200101519050600085838151811061165d577f4e487b7100000000000000000000000000000000000000000000000000000000600052603260045260246000fd5b60200260200101519050600060c9600084815260200190815260200160002060008b73ffffffffffffffffffffffffffffffffffffffff1673ffffffffffffffffffffffffffffffffffffffff168152602001908152602001600020549050818110156116ff576040517f08c379a00000000000000000000000000000000000000000000000000000000081526004016116f690614d31565b60405180910390fd5b81810360c9600085815260200190815260200160002060008c73ffffffffffffffffffffffffffffffffffffffff1673ffffffffffffffffffffffffffffffffffffffff168152602001908152602001600020819055508160c9600085815260200190815260200160002060008b73ffffffffffffffffffffffffffffffffffffffff1673ffffffffffffffffffffffffffffffffffffffff16815260200190815260200160002060008282546117b69190614fd0565b92505081905550505050806117ca90615201565b90506115d4565b508473ffffffffffffffffffffffffffffffffffffffff168673ffffffffffffffffffffffffffffffffffffffff168273ffffffffffffffffffffffffffffffffffffffff167f4a39dc06d4c0dbc64b70af90fd698a233a518aa5d07e595d983b8c0526c8f7fb8787604051611848929190614ae2565b60405180910390a461185e818787878787612720565b505050505050565b61186f826106f4565b6118808161187b611290565b612907565b61188a838361253f565b505050565b611897611290565b73ffffffffffffffffffffffffffffffffffffffff168173ffffffffffffffffffffffffffffffffffffffff1614611904576040517f08c379a00000000000000000000000000000000000000000000000000000000081526004016118fb90614e11565b60405180910390fd5b61190e82826129a4565b5050565b600061193a836000018373ffffffffffffffffffffffffffffffffffffffff1660001b612a86565b905092915050565b61194a610a48565b611989576040517f08c379a000000000000000000000000000000000000000000000000000000000815260040161198090614bd1565b60405180910390fd5b600061012d60006101000a81548160ff0219169083151502179055507f5db9ee0a495bf2e6ff9c91a7834c1ba4fdd244a5e8aa4e537bd38aeae4b073aa6119ce611290565b6040516119db91906149e3565b60405180910390a1565b600073ffffffffffffffffffffffffffffffffffffffff168373ffffffffffffffffffffffffffffffffffffffff161415611a55576040517f08c379a0000000000000000000000000000000000000000000000000000000008152600401611a4c90614cf1565b60405180910390fd5b8051825114611a99576040517f08c379a0000000000000000000000000000000000000000000000000000000008152600401611a9090614dd1565b60405180910390fd5b6000611aa3611290565b9050611ac38185600086866040518060200160405280600081525061270a565b60005b8351811015611c5e576000848281518110611b0a577f4e487b7100000000000000000000000000000000000000000000000000000000600052603260045260246000fd5b602002602001015190506000848381518110611b4f577f4e487b7100000000000000000000000000000000000000000000000000000000600052603260045260246000fd5b60200260200101519050600060c9600084815260200190815260200160002060008973ffffffffffffffffffffffffffffffffffffffff1673ffffffffffffffffffffffffffffffffffffffff16815260200190815260200160002054905081811015611bf1576040517f08c379a0000000000000000000000000000000000000000000000000000000008152600401611be890614c11565b60405180910390fd5b81810360c9600085815260200190815260200160002060008a73ffffffffffffffffffffffffffffffffffffffff1673ffffffffffffffffffffffffffffffffffffffff168152602001908152602001600020819055505050508080611c5690615201565b915050611ac6565b50600073ffffffffffffffffffffffffffffffffffffffff168473ffffffffffffffffffffffffffffffffffffffff168273ffffffffffffffffffffffffffffffffffffffff167f4a39dc06d4c0dbc64b70af90fd698a233a518aa5d07e595d983b8c0526c8f7fb8686604051611cd6929190614ae2565b60405180910390a450505050565b600073ffffffffffffffffffffffffffffffffffffffff168473ffffffffffffffffffffffffffffffffffffffff161415611d54576040517f08c379a0000000000000000000000000000000000000000000000000000000008152600401611d4b90614df1565b60405180910390fd5b6000611d5e611290565b9050611d7f81600087611d7088612c0c565b611d7988612c0c565b8761270a565b8260c9600086815260200190815260200160002060008773ffffffffffffffffffffffffffffffffffffffff1673ffffffffffffffffffffffffffffffffffffffff1681526020019081526020016000206000828254611ddf9190614fd0565b925050819055508473ffffffffffffffffffffffffffffffffffffffff16600073ffffffffffffffffffffffffffffffffffffffff168273ffffffffffffffffffffffffffffffffffffffff167fc3d58168c5ae7397731d063d5bbf3d657854427343f4c083240f7aacaa2d0f628787604051611e5d929190614e4c565b60405180910390a4611e7481600087878787612cd2565b5050505050565b611e83610a48565b15611ec3576040517f08c379a0000000000000000000000000000000000000000000000000000000008152600401611eba90614c71565b60405180910390fd5b600161012d60006101000a81548160ff0219169083151502179055507f62e78cea01bee320cd4e420270b5ea74000d11b0c9f74754ebdbfc544b05a258611f08611290565b604051611f1591906149e3565b60405180910390a1565b6000611f2e8360000183612eb9565b60001c905092915050565b6000611f4782600001612f0a565b9050919050565b611f57826106f4565b611f6881611f63611290565b612907565b611f7283836129a4565b505050565b600073ffffffffffffffffffffffffffffffffffffffff168473ffffffffffffffffffffffffffffffffffffffff161415611fe7576040517f08c379a0000000000000000000000000000000000000000000000000000000008152600401611fde90614c91565b60405180910390fd5b6000611ff1611290565b905061201181878761200288612c0c565b61200b88612c0c565b8761270a565b600060c9600086815260200190815260200160002060008873ffffffffffffffffffffffffffffffffffffffff1673ffffffffffffffffffffffffffffffffffffffff168152602001908152602001600020549050838110156120a9576040517f08c379a00000000000000000000000000000000000000000000000000000000081526004016120a090614d31565b60405180910390fd5b83810360c9600087815260200190815260200160002060008973ffffffffffffffffffffffffffffffffffffffff1673ffffffffffffffffffffffffffffffffffffffff168152602001908152602001600020819055508360c9600087815260200190815260200160002060008873ffffffffffffffffffffffffffffffffffffffff1673ffffffffffffffffffffffffffffffffffffffff16815260200190815260200160002060008282546121609190614fd0565b925050819055508573ffffffffffffffffffffffffffffffffffffffff168773ffffffffffffffffffffffffffffffffffffffff168373ffffffffffffffffffffffffffffffffffffffff167fc3d58168c5ae7397731d063d5bbf3d657854427343f4c083240f7aacaa2d0f6288886040516121dd929190614e4c565b60405180910390a46121f3828888888888612cd2565b50505050505050565b600073ffffffffffffffffffffffffffffffffffffffff168373ffffffffffffffffffffffffffffffffffffffff16141561226c576040517f08c379a000000000000000000000000000000000000000000000000000000000815260040161226390614cf1565b60405180910390fd5b6000612276611290565b90506122a68185600061228887612c0c565b61229187612c0c565b6040518060200160405280600081525061270a565b600060c9600085815260200190815260200160002060008673ffffffffffffffffffffffffffffffffffffffff1673ffffffffffffffffffffffffffffffffffffffff1681526020019081526020016000205490508281101561233e576040517f08c379a000000000000000000000000000000000000000000000000000000000815260040161233590614c11565b60405180910390fd5b82810360c9600086815260200190815260200160002060008773ffffffffffffffffffffffffffffffffffffffff1673ffffffffffffffffffffffffffffffffffffffff16815260200190815260200160002081905550600073ffffffffffffffffffffffffffffffffffffffff168573ffffffffffffffffffffffffffffffffffffffff168373ffffffffffffffffffffffffffffffffffffffff167fc3d58168c5ae7397731d063d5bbf3d657854427343f4c083240f7aacaa2d0f62878760405161240c929190614e4c565b60405180910390a45050505050565b600060019054906101000a900460ff1680612441575060008054906101000a900460ff16155b612480576040517f08c379a000000000000000000000000000000000000000000000000000000000815260040161247790614cd1565b60405180910390fd5b60008060019054906101000a900460ff1615905080156124d0576001600060016101000a81548160ff02191690831515021790555060016000806101000a81548160ff0219169083151502179055505b6124d8612f1b565b6124e0612ff4565b6124e86130cd565b6124f06131a6565b6124f98261327f565b612501613362565b61250961343b565b612511613530565b61251a82613609565b801561253b5760008060016101000a81548160ff0219169083151502179055505b5050565b6125498282610c28565b61261c5760016065600084815260200190815260200160002060000160008373ffffffffffffffffffffffffffffffffffffffff1673ffffffffffffffffffffffffffffffffffffffff16815260200190815260200160002060006101000a81548160ff0219169083151502179055506125c1611290565b73ffffffffffffffffffffffffffffffffffffffff168173ffffffffffffffffffffffffffffffffffffffff16837f2f8788117e7eff1d82e926ec794901d17c78024a50270940304540a733656f0d60405160405180910390a45b5050565b600061262c8383613759565b61268557826000018290806001815401808255809150506001900390600052602060002001600090919091909150558260000180549050836001016000848152602001908152602001600020819055506001905061268a565b600090505b92915050565b60007f5a05180f000000000000000000000000000000000000000000000000000000007bffffffffffffffffffffffffffffffffffffffffffffffffffffffff1916827bffffffffffffffffffffffffffffffffffffffffffffffffffffffff1916148061270357506127028261377c565b5b9050919050565b6127188686868686866137f6565b505050505050565b61273f8473ffffffffffffffffffffffffffffffffffffffff16613854565b156128ff578373ffffffffffffffffffffffffffffffffffffffff1663bc197c8187878686866040518663ffffffff1660e01b81526004016127859594939291906149fe565b602060405180830381600087803b15801561279f57600080fd5b505af19250505080156127d057506040513d601f19601f820116820180604052508101906127cd919061446a565b60015b612876576127dc6152d7565b806308c379a0141561283957506127f16159c1565b806127fc575061283b565b806040517f08c379a00000000000000000000000000000000000000000000000000000000081526004016128309190614b4f565b60405180910390fd5b505b6040517f08c379a000000000000000000000000000000000000000000000000000000000815260040161286d90614b71565b60405180910390fd5b63bc197c8160e01b7bffffffffffffffffffffffffffffffffffffffffffffffffffffffff1916817bffffffffffffffffffffffffffffffffffffffffffffffffffffffff1916146128fd576040517f08c379a00000000000000000000000000000000000000000000000000000000081526004016128f490614bb1565b60405180910390fd5b505b505050505050565b6129118282610c28565b6129a0576129368173ffffffffffffffffffffffffffffffffffffffff166014613867565b6129448360001c6020613867565b6040516020016129559291906149a9565b6040516020818303038152906040526040517f08c379a00000000000000000000000000000000000000000000000000000000081526004016129979190614b4f565b60405180910390fd5b5050565b6129ae8282610c28565b15612a825760006065600084815260200190815260200160002060000160008373ffffffffffffffffffffffffffffffffffffffff1673ffffffffffffffffffffffffffffffffffffffff16815260200190815260200160002060006101000a81548160ff021916908315150217905550612a27611290565b73ffffffffffffffffffffffffffffffffffffffff168173ffffffffffffffffffffffffffffffffffffffff16837ff6391f5c32d9c69d2a47ea670b442974b53935d1edc7fd64eb21e047a839171b60405160405180910390a45b5050565b60008083600101600084815260200190815260200160002054905060008114612c00576000600182612ab89190615080565b9050600060018660000180549050612ad09190615080565b9050818114612b8b576000866000018281548110612b17577f4e487b7100000000000000000000000000000000000000000000000000000000600052603260045260246000fd5b9060005260206000200154905080876000018481548110612b61577f4e487b7100000000000000000000000000000000000000000000000000000000600052603260045260246000fd5b90600052602060002001819055508387600101600083815260200190815260200160002081905550505b85600001805480612bc5577f4e487b7100000000000000000000000000000000000000000000000000000000600052603160045260246000fd5b600190038181906000526020600020016000905590558560010160008681526020019081526020016000206000905560019350505050612c06565b60009150505b92915050565b60606000600167ffffffffffffffff811115612c51577f4e487b7100000000000000000000000000000000000000000000000000000000600052604160045260246000fd5b604051908082528060200260200182016040528015612c7f5781602001602082028036833780820191505090505b5090508281600081518110612cbd577f4e487b7100000000000000000000000000000000000000000000000000000000600052603260045260246000fd5b60200260200101818152505080915050919050565b612cf18473ffffffffffffffffffffffffffffffffffffffff16613854565b15612eb1578373ffffffffffffffffffffffffffffffffffffffff1663f23a6e6187878686866040518663ffffffff1660e01b8152600401612d37959493929190614a66565b602060405180830381600087803b158015612d5157600080fd5b505af1925050508015612d8257506040513d601f19601f82011682018060405250810190612d7f919061446a565b60015b612e2857612d8e6152d7565b806308c379a01415612deb5750612da36159c1565b80612dae5750612ded565b806040517f08c379a0000000000000000000000000000000000000000000000000000000008152600401612de29190614b4f565b60405180910390fd5b505b6040517f08c379a0000000000000000000000000000000000000000000000000000000008152600401612e1f90614b71565b60405180910390fd5b63f23a6e6160e01b7bffffffffffffffffffffffffffffffffffffffffffffffffffffffff1916817bffffffffffffffffffffffffffffffffffffffffffffffffffffffff191614612eaf576040517f08c379a0000000000000000000000000000000000000000000000000000000008152600401612ea690614bb1565b60405180910390fd5b505b505050505050565b6000826000018281548110612ef7577f4e487b7100000000000000000000000000000000000000000000000000000000600052603260045260246000fd5b9060005260206000200154905092915050565b600081600001805490509050919050565b600060019054906101000a900460ff1680612f41575060008054906101000a900460ff16155b612f80576040517f08c379a0000000000000000000000000000000000000000000000000000000008152600401612f7790614cd1565b60405180910390fd5b60008060019054906101000a900460ff161590508015612fd0576001600060016101000a81548160ff02191690831515021790555060016000806101000a81548160ff0219169083151502179055505b8015612ff15760008060016101000a81548160ff0219169083151502179055505b50565b600060019054906101000a900460ff168061301a575060008054906101000a900460ff16155b613059576040517f08c379a000000000000000000000000000000000000000000000000000000000815260040161305090614cd1565b60405180910390fd5b60008060019054906101000a900460ff1615905080156130a9576001600060016101000a81548160ff02191690831515021790555060016000806101000a81548160ff0219169083151502179055505b80156130ca5760008060016101000a81548160ff0219169083151502179055505b50565b600060019054906101000a900460ff16806130f3575060008054906101000a900460ff16155b613132576040517f08c379a000000000000000000000000000000000000000000000000000000000815260040161312990614cd1565b60405180910390fd5b60008060019054906101000a900460ff161590508015613182576001600060016101000a81548160ff02191690831515021790555060016000806101000a81548160ff0219169083151502179055505b80156131a35760008060016101000a81548160ff0219169083151502179055505b50565b600060019054906101000a900460ff16806131cc575060008054906101000a900460ff16155b61320b576040517f08c379a000000000000000000000000000000000000000000000000000000000815260040161320290614cd1565b60405180910390fd5b60008060019054906101000a900460ff16159050801561325b576001600060016101000a81548160ff02191690831515021790555060016000806101000a81548160ff0219169083151502179055505b801561327c5760008060016101000a81548160ff0219169083151502179055505b50565b600060019054906101000a900460ff16806132a5575060008054906101000a900460ff16155b6132e4576040517f08c379a00000000000000000000000000000000000000000000000000000000081526004016132db90614cd1565b60405180910390fd5b60008060019054906101000a900460ff161590508015613334576001600060016101000a81548160ff02191690831515021790555060016000806101000a81548160ff0219169083151502179055505b61333d82613b61565b801561335e5760008060016101000a81548160ff0219169083151502179055505b5050565b600060019054906101000a900460ff1680613388575060008054906101000a900460ff16155b6133c7576040517f08c379a00000000000000000000000000000000000000000000000000000000081526004016133be90614cd1565b60405180910390fd5b60008060019054906101000a900460ff161590508015613417576001600060016101000a81548160ff02191690831515021790555060016000806101000a81548160ff0219169083151502179055505b80156134385760008060016101000a81548160ff0219169083151502179055505b50565b600060019054906101000a900460ff1680613461575060008054906101000a900460ff16155b6134a0576040517f08c379a000000000000000000000000000000000000000000000000000000000815260040161349790614cd1565b60405180910390fd5b60008060019054906101000a900460ff1615905080156134f0576001600060016101000a81548160ff02191690831515021790555060016000806101000a81548160ff0219169083151502179055505b600061012d60006101000a81548160ff021916908315150217905550801561352d5760008060016101000a81548160ff0219169083151502179055505b50565b600060019054906101000a900460ff1680613556575060008054906101000a900460ff16155b613595576040517f08c379a000000000000000000000000000000000000000000000000000000000815260040161358c90614cd1565b60405180910390fd5b60008060019054906101000a900460ff1615905080156135e5576001600060016101000a81548160ff02191690831515021790555060016000806101000a81548160ff0219169083151502179055505b80156136065760008060016101000a81548160ff0219169083151502179055505b50565b600060019054906101000a900460ff168061362f575060008054906101000a900460ff16155b61366e576040517f08c379a000000000000000000000000000000000000000000000000000000000815260040161366590614cd1565b60405180910390fd5b60008060019054906101000a900460ff1615905080156136be576001600060016101000a81548160ff02191690831515021790555060016000806101000a81548160ff0219169083151502179055505b6136d26000801b6136cd611290565b613b7b565b6137037f9f2df0fed2c77648de5860a4cc508cd0818c85b8b8a1ab4ceeef8d981c8956a66136fe611290565b613b7b565b6137347f65d7a28e3265b37a6474929f336521b332c1681b933f6cb9f3376673440d862a61372f611290565b613b7b565b80156137555760008060016101000a81548160ff0219169083151502179055505b5050565b600080836001016000848152602001908152602001600020541415905092915050565b60007f7965db0b000000000000000000000000000000000000000000000000000000007bffffffffffffffffffffffffffffffffffffffffffffffffffffffff1916827bffffffffffffffffffffffffffffffffffffffffffffffffffffffff191614806137ef57506137ee82613baf565b5b9050919050565b613804868686868686613c19565b61380c610a48565b1561384c576040517f08c379a000000000000000000000000000000000000000000000000000000000815260040161384390614c31565b60405180910390fd5b505050505050565b600080823b905060008111915050919050565b60606000600283600261387a9190615026565b6138849190614fd0565b67ffffffffffffffff8111156138c3577f4e487b7100000000000000000000000000000000000000000000000000000000600052604160045260246000fd5b6040519080825280601f01601f1916602001820160405280156138f55781602001600182028036833780820191505090505b5090507f300000000000000000000000000000000000000000000000000000000000000081600081518110613953577f4e487b7100000000000000000000000000000000000000000000000000000000600052603260045260246000fd5b60200101907effffffffffffffffffffffffffffffffffffffffffffffffffffffffffffff1916908160001a9053507f7800000000000000000000000000000000000000000000000000000000000000816001815181106139dd577f4e487b7100000000000000000000000000000000000000000000000000000000600052603260045260246000fd5b60200101907effffffffffffffffffffffffffffffffffffffffffffffffffffffffffffff1916908160001a90535060006001846002613a1d9190615026565b613a279190614fd0565b90505b6001811115613b13577f3031323334353637383961626364656600000000000000000000000000000000600f861660108110613a8f577f4e487b7100000000000000000000000000000000000000000000000000000000600052603260045260246000fd5b1a60f81b828281518110613acc577f4e487b7100000000000000000000000000000000000000000000000000000000600052603260045260246000fd5b60200101907effffffffffffffffffffffffffffffffffffffffffffffffffffffffffffff1916908160001a905350600485901c945080613b0c90615174565b9050613a2a565b5060008414613b57576040517f08c379a0000000000000000000000000000000000000000000000000000000008152600401613b4e90614b91565b60405180910390fd5b8091505092915050565b8060cb9080519060200190613b77929190613c21565b5050565b613b858282611170565b613baa816097600085815260200190815260200160002061117e90919063ffffffff16565b505050565b60007f01ffc9a7000000000000000000000000000000000000000000000000000000007bffffffffffffffffffffffffffffffffffffffffffffffffffffffff1916827bffffffffffffffffffffffffffffffffffffffffffffffffffffffff1916149050919050565b505050505050565b828054613c2d9061519e565b90600052602060002090601f016020900481019282613c4f5760008555613c96565b82601f10613c6857805160ff1916838001178555613c96565b82800160010185558215613c96579182015b82811115613c95578251825591602001919060010190613c7a565b5b509050613ca39190613ca7565b5090565b5b80821115613cc0576000816000905550600101613ca8565b5090565b6000613cd7613cd284614e9a565b614e75565b90508083825260208201905082856020860282011115613cf657600080fd5b60005b85811015613d265781613d0c8882613e18565b845260208401935060208301925050600181019050613cf9565b5050509392505050565b6000613d43613d3e84614ec6565b614e75565b90508083825260208201905082856020860282011115613d6257600080fd5b60005b85811015613d925781613d788882613f29565b845260208401935060208301925050600181019050613d65565b5050509392505050565b6000613daf613daa84614ef2565b614e75565b905082815260208101848484011115613dc757600080fd5b613dd2848285615132565b509392505050565b6000613ded613de884614f23565b614e75565b905082815260208101848484011115613e0557600080fd5b613e10848285615132565b509392505050565b600081359050613e2781615a57565b92915050565b600082601f830112613e3e57600080fd5b8135613e4e848260208601613cc4565b91505092915050565b600082601f830112613e6857600080fd5b8135613e78848260208601613d30565b91505092915050565b600081359050613e9081615a6e565b92915050565b600081359050613ea581615a85565b92915050565b600081359050613eba81615a9c565b92915050565b600081519050613ecf81615a9c565b92915050565b600082601f830112613ee657600080fd5b8135613ef6848260208601613d9c565b91505092915050565b600082601f830112613f1057600080fd5b8135613f20848260208601613dda565b91505092915050565b600081359050613f3881615ab3565b92915050565b60008060408385031215613f5157600080fd5b6000613f5f85828601613e18565b9250506020613f7085828601613e18565b9150509250929050565b600080600080600060a08688031215613f9257600080fd5b6000613fa088828901613e18565b9550506020613fb188828901613e18565b945050604086013567ffffffffffffffff811115613fce57600080fd5b613fda88828901613e57565b935050606086013567ffffffffffffffff811115613ff757600080fd5b61400388828901613e57565b925050608086013567ffffffffffffffff81111561402057600080fd5b61402c88828901613ed5565b9150509295509295909350565b600080600080600060a0868803121561405157600080fd5b600061405f88828901613e18565b955050602061407088828901613e18565b945050604061408188828901613f29565b935050606061409288828901613f29565b925050608086013567ffffffffffffffff8111156140af57600080fd5b6140bb88828901613ed5565b9150509295509295909350565b6000806000606084860312156140dd57600080fd5b60006140eb86828701613e18565b935050602084013567ffffffffffffffff81111561410857600080fd5b61411486828701613e57565b925050604084013567ffffffffffffffff81111561413157600080fd5b61413d86828701613e57565b9150509250925092565b6000806000806080858703121561415d57600080fd5b600061416b87828801613e18565b945050602085013567ffffffffffffffff81111561418857600080fd5b61419487828801613e57565b935050604085013567ffffffffffffffff8111156141b157600080fd5b6141bd87828801613e57565b925050606085013567ffffffffffffffff8111156141da57600080fd5b6141e687828801613ed5565b91505092959194509250565b6000806040838503121561420557600080fd5b600061421385828601613e18565b925050602061422485828601613e81565b9150509250929050565b6000806040838503121561424157600080fd5b600061424f85828601613e18565b925050602061426085828601613f29565b9150509250929050565b60008060006060848603121561427f57600080fd5b600061428d86828701613e18565b935050602061429e86828701613f29565b92505060406142af86828701613f29565b9150509250925092565b600080600080608085870312156142cf57600080fd5b60006142dd87828801613e18565b94505060206142ee87828801613f29565b93505060406142ff87828801613f29565b925050606085013567ffffffffffffffff81111561431c57600080fd5b61432887828801613ed5565b91505092959194509250565b6000806040838503121561434757600080fd5b600083013567ffffffffffffffff81111561436157600080fd5b61436d85828601613e2d565b925050602083013567ffffffffffffffff81111561438a57600080fd5b61439685828601613e57565b9150509250929050565b6000602082840312156143b257600080fd5b60006143c084828501613e96565b91505092915050565b600080604083850312156143dc57600080fd5b60006143ea85828601613e96565b92505060206143fb85828601613e18565b9150509250929050565b6000806040838503121561441857600080fd5b600061442685828601613e96565b925050602061443785828601613f29565b9150509250929050565b60006020828403121561445357600080fd5b600061446184828501613eab565b91505092915050565b60006020828403121561447c57600080fd5b600061448a84828501613ec0565b91505092915050565b6000602082840312156144a557600080fd5b600082013567ffffffffffffffff8111156144bf57600080fd5b6144cb84828501613eff565b91505092915050565b6000602082840312156144e657600080fd5b60006144f484828501613f29565b91505092915050565b6000614509838361498b565b60208301905092915050565b61451e816150b4565b82525050565b600061452f82614f64565b6145398185614f92565b935061454483614f54565b8060005b8381101561457557815161455c88826144fd565b975061456783614f85565b925050600181019050614548565b5085935050505092915050565b61458b816150c6565b82525050565b61459a816150d2565b82525050565b60006145ab82614f6f565b6145b58185614fa3565b93506145c5818560208601615141565b6145ce816152f9565b840191505092915050565b60006145e482614f7a565b6145ee8185614fb4565b93506145fe818560208601615141565b614607816152f9565b840191505092915050565b600061461d82614f7a565b6146278185614fc5565b9350614637818560208601615141565b80840191505092915050565b6000614650603483614fb4565b915061465b82615317565b604082019050919050565b6000614673602083614fb4565b915061467e82615366565b602082019050919050565b6000614696602883614fb4565b91506146a18261538f565b604082019050919050565b60006146b9601483614fb4565b91506146c4826153de565b602082019050919050565b60006146dc602b83614fb4565b91506146e782615407565b604082019050919050565b60006146ff602483614fb4565b915061470a82615456565b604082019050919050565b6000614722602c83614fb4565b915061472d826154a5565b604082019050919050565b6000614745602983614fb4565b9150614750826154f4565b604082019050919050565b6000614768601083614fb4565b915061477382615543565b602082019050919050565b600061478b602583614fb4565b91506147968261556c565b604082019050919050565b60006147ae603283614fb4565b91506147b9826155bb565b604082019050919050565b60006147d1602e83614fb4565b91506147dc8261560a565b604082019050919050565b60006147f4602383614fb4565b91506147ff82615659565b604082019050919050565b6000614817603883614fb4565b9150614822826156a8565b604082019050919050565b600061483a602a83614fb4565b9150614845826156f7565b604082019050919050565b600061485d603b83614fb4565b915061486882615746565b604082019050919050565b6000614880603983614fb4565b915061488b82615795565b604082019050919050565b60006148a3601783614fc5565b91506148ae826157e4565b601782019050919050565b60006148c6602983614fb4565b91506148d18261580d565b604082019050919050565b60006148e9602983614fb4565b91506148f48261585c565b604082019050919050565b600061490c602883614fb4565b9150614917826158ab565b604082019050919050565b600061492f602183614fb4565b915061493a826158fa565b604082019050919050565b6000614952601183614fc5565b915061495d82615949565b601182019050919050565b6000614975602f83614fb4565b915061498082615972565b604082019050919050565b61499481615128565b82525050565b6149a381615128565b82525050565b60006149b482614896565b91506149c08285614612565b91506149cb82614945565b91506149d78284614612565b91508190509392505050565b60006020820190506149f86000830184614515565b92915050565b600060a082019050614a136000830188614515565b614a206020830187614515565b8181036040830152614a328186614524565b90508181036060830152614a468185614524565b90508181036080830152614a5a81846145a0565b90509695505050505050565b600060a082019050614a7b6000830188614515565b614a886020830187614515565b614a95604083018661499a565b614aa2606083018561499a565b8181036080830152614ab481846145a0565b90509695505050505050565b60006020820190508181036000830152614ada8184614524565b905092915050565b60006040820190508181036000830152614afc8185614524565b90508181036020830152614b108184614524565b90509392505050565b6000602082019050614b2e6000830184614582565b92915050565b6000602082019050614b496000830184614591565b92915050565b60006020820190508181036000830152614b6981846145d9565b905092915050565b60006020820190508181036000830152614b8a81614643565b9050919050565b60006020820190508181036000830152614baa81614666565b9050919050565b60006020820190508181036000830152614bca81614689565b9050919050565b60006020820190508181036000830152614bea816146ac565b9050919050565b60006020820190508181036000830152614c0a816146cf565b9050919050565b60006020820190508181036000830152614c2a816146f2565b9050919050565b60006020820190508181036000830152614c4a81614715565b9050919050565b60006020820190508181036000830152614c6a81614738565b9050919050565b60006020820190508181036000830152614c8a8161475b565b9050919050565b60006020820190508181036000830152614caa8161477e565b9050919050565b60006020820190508181036000830152614cca816147a1565b9050919050565b60006020820190508181036000830152614cea816147c4565b9050919050565b60006020820190508181036000830152614d0a816147e7565b9050919050565b60006020820190508181036000830152614d2a8161480a565b9050919050565b60006020820190508181036000830152614d4a8161482d565b9050919050565b60006020820190508181036000830152614d6a81614850565b9050919050565b60006020820190508181036000830152614d8a81614873565b9050919050565b60006020820190508181036000830152614daa816148b9565b9050919050565b60006020820190508181036000830152614dca816148dc565b9050919050565b60006020820190508181036000830152614dea816148ff565b9050919050565b60006020820190508181036000830152614e0a81614922565b9050919050565b60006020820190508181036000830152614e2a81614968565b9050919050565b6000602082019050614e46600083018461499a565b92915050565b6000604082019050614e61600083018561499a565b614e6e602083018461499a565b9392505050565b6000614e7f614e90565b9050614e8b82826151d0565b919050565b6000604051905090565b600067ffffffffffffffff821115614eb557614eb46152a8565b5b602082029050602081019050919050565b600067ffffffffffffffff821115614ee157614ee06152a8565b5b602082029050602081019050919050565b600067ffffffffffffffff821115614f0d57614f0c6152a8565b5b614f16826152f9565b9050602081019050919050565b600067ffffffffffffffff821115614f3e57614f3d6152a8565b5b614f47826152f9565b9050602081019050919050565b6000819050602082019050919050565b600081519050919050565b600081519050919050565b600081519050919050565b6000602082019050919050565b600082825260208201905092915050565b600082825260208201905092915050565b600082825260208201905092915050565b600081905092915050565b6000614fdb82615128565b9150614fe683615128565b9250827fffffffffffffffffffffffffffffffffffffffffffffffffffffffffffffffff0382111561501b5761501a61524a565b5b828201905092915050565b600061503182615128565b915061503c83615128565b9250817fffffffffffffffffffffffffffffffffffffffffffffffffffffffffffffffff04831182151516156150755761507461524a565b5b828202905092915050565b600061508b82615128565b915061509683615128565b9250828210156150a9576150a861524a565b5b828203905092915050565b60006150bf82615108565b9050919050565b60008115159050919050565b6000819050919050565b60007fffffffff0000000000000000000000000000000000000000000000000000000082169050919050565b600073ffffffffffffffffffffffffffffffffffffffff82169050919050565b6000819050919050565b82818337600083830152505050565b60005b8381101561515f578082015181840152602081019050615144565b8381111561516e576000848401525b50505050565b600061517f82615128565b915060008214156151935761519261524a565b5b600182039050919050565b600060028204905060018216806151b657607f821691505b602082108114156151ca576151c9615279565b5b50919050565b6151d9826152f9565b810181811067ffffffffffffffff821117156151f8576151f76152a8565b5b80604052505050565b600061520c82615128565b91507fffffffffffffffffffffffffffffffffffffffffffffffffffffffffffffffff82141561523f5761523e61524a565b5b600182019050919050565b7f4e487b7100000000000000000000000000000000000000000000000000000000600052601160045260246000fd5b7f4e487b7100000000000000000000000000000000000000000000000000000000600052602260045260246000fd5b7f4e487b7100000000000000000000000000000000000000000000000000000000600052604160045260246000fd5b600060033d11156152f65760046000803e6152f360005161530a565b90505b90565b6000601f19601f8301169050919050565b60008160e01c9050919050565b7f455243313135353a207472616e7366657220746f206e6f6e204552433131353560008201527f526563656976657220696d706c656d656e746572000000000000000000000000602082015250565b7f537472696e67733a20686578206c656e67746820696e73756666696369656e74600082015250565b7f455243313135353a204552433131353552656365697665722072656a6563746560008201527f6420746f6b656e73000000000000000000000000000000000000000000000000602082015250565b7f5061757361626c653a206e6f7420706175736564000000000000000000000000600082015250565b7f455243313135353a2062616c616e636520717565727920666f7220746865207a60008201527f65726f2061646472657373000000000000000000000000000000000000000000602082015250565b7f455243313135353a206275726e20616d6f756e7420657863656564732062616c60008201527f616e636500000000000000000000000000000000000000000000000000000000602082015250565b7f455243313135355061757361626c653a20746f6b656e207472616e736665722060008201527f7768696c65207061757365640000000000000000000000000000000000000000602082015250565b7f455243313135353a2063616c6c6572206973206e6f74206f776e6572206e6f7260008201527f20617070726f7665640000000000000000000000000000000000000000000000602082015250565b7f5061757361626c653a2070617573656400000000000000000000000000000000600082015250565b7f455243313135353a207472616e7366657220746f20746865207a65726f20616460008201527f6472657373000000000000000000000000000000000000000000000000000000602082015250565b7f455243313135353a207472616e736665722063616c6c6572206973206e6f742060008201527f6f776e6572206e6f7220617070726f7665640000000000000000000000000000602082015250565b7f496e697469616c697a61626c653a20636f6e747261637420697320616c72656160008201527f647920696e697469616c697a6564000000000000000000000000000000000000602082015250565b7f455243313135353a206275726e2066726f6d20746865207a65726f206164647260008201527f6573730000000000000000000000000000000000000000000000000000000000602082015250565b7f455243313135355072657365744d696e7465725061757365723a206d7573742060008201527f68617665206d696e74657220726f6c6520746f206d696e740000000000000000602082015250565b7f455243313135353a20696e73756666696369656e742062616c616e636520666f60008201527f72207472616e7366657200000000000000000000000000000000000000000000602082015250565b7f455243313135355072657365744d696e7465725061757365723a206d7573742060008201527f686176652070617573657220726f6c6520746f20756e70617573650000000000602082015250565b7f455243313135355072657365744d696e7465725061757365723a206d7573742060008201527f686176652070617573657220726f6c6520746f20706175736500000000000000602082015250565b7f416363657373436f6e74726f6c3a206163636f756e7420000000000000000000600082015250565b7f455243313135353a2073657474696e6720617070726f76616c2073746174757360008201527f20666f722073656c660000000000000000000000000000000000000000000000602082015250565b7f455243313135353a206163636f756e747320616e6420696473206c656e67746860008201527f206d69736d617463680000000000000000000000000000000000000000000000602082015250565b7f455243313135353a2069647320616e6420616d6f756e7473206c656e6774682060008201527f6d69736d61746368000000000000000000000000000000000000000000000000602082015250565b7f455243313135353a206d696e7420746f20746865207a65726f2061646472657360008201527f7300000000000000000000000000000000000000000000000000000000000000602082015250565b7f206973206d697373696e6720726f6c6520000000000000000000000000000000600082015250565b7f416363657373436f6e74726f6c3a2063616e206f6e6c792072656e6f756e636560008201527f20726f6c657320666f722073656c660000000000000000000000000000000000602082015250565b600060443d10156159d157615a54565b6159d9614e90565b60043d036004823e80513d602482011167ffffffffffffffff82111715615a01575050615a54565b808201805167ffffffffffffffff811115615a1f5750505050615a54565b80602083010160043d038501811115615a3c575050505050615a54565b615a4b826020018501866151d0565b82955050505050505b90565b615a60816150b4565b8114615a6b57600080fd5b50565b615a77816150c6565b8114615a8257600080fd5b50565b615a8e816150d2565b8114615a9957600080fd5b50565b615aa5816150dc565b8114615ab057600080fd5b50565b615abc81615128565b8114615ac757600080fd5b5056fea2646970667358221220eb5a267d9d92362f1a0231b3d0ae96f24189fe90c9e7f9ca840d1a5f79bd963964736f6c63430008040033",
  "linkReferences": {},
  "deployedLinkReferences": {}
}