{
  "_format": "hh-sol-artifact-1",
  "contractName": "ERC20WrapperMockUpgradeableWithInit",
  "sourceName": "contracts/src/OpenZeppelin/upgradeable/mocks/WithInit.sol",
  "abi": [
    {
      "inputs": [
        {
          "internalType": "contract IERC20Upgradeable",
          "name": "_underlyingToken",
          "type": "address"
        },
        {
          "internalType": "string",
          "name": "name",
          "type": "string"
        },
        {
          "internalType": "string",
          "name": "symbol",
          "type": "string"
        }
      ],
      "stateMutability": "payable",
      "type": "constructor"
    },
    {
      "anonymous": false,
      "inputs": [
        {
          "indexed": true,
          "internalType": "address",
          "name": "owner",
          "type": "address"
        },
        {
          "indexed": true,
          "internalType": "address",
          "name": "spender",
          "type": "address"
        },
        {
          "indexed": false,
          "internalType": "uint256",
          "name": "value",
          "type": "uint256"
        }
      ],
      "name": "Approval",
      "type": "event"
    },
    {
      "anonymous": false,
      "inputs": [
        {
          "indexed": true,
          "internalType": "address",
          "name": "from",
          "type": "address"
        },
        {
          "indexed": true,
          "internalType": "address",
          "name": "to",
          "type": "address"
        },
        {
          "indexed": false,
          "internalType": "uint256",
          "name": "value",
          "type": "uint256"
        }
      ],
      "name": "Transfer",
      "type": "event"
    },
    {
      "inputs": [
        {
          "internalType": "address",
          "name": "owner",
          "type": "address"
        },
        {
          "internalType": "address",
          "name": "spender",
          "type": "address"
        }
      ],
      "name": "allowance",
      "outputs": [
        {
          "internalType": "uint256",
          "name": "",
          "type": "uint256"
        }
      ],
      "stateMutability": "view",
      "type": "function"
    },
    {
      "inputs": [
        {
          "internalType": "address",
          "name": "spender",
          "type": "address"
        },
        {
          "internalType": "uint256",
          "name": "amount",
          "type": "uint256"
        }
      ],
      "name": "approve",
      "outputs": [
        {
          "internalType": "bool",
          "name": "",
          "type": "bool"
        }
      ],
      "stateMutability": "nonpayable",
      "type": "function"
    },
    {
      "inputs": [
        {
          "internalType": "address",
          "name": "account",
          "type": "address"
        }
      ],
      "name": "balanceOf",
      "outputs": [
        {
          "internalType": "uint256",
          "name": "",
          "type": "uint256"
        }
      ],
      "stateMutability": "view",
      "type": "function"
    },
    {
      "inputs": [],
      "name": "decimals",
      "outputs": [
        {
          "internalType": "uint8",
          "name": "",
          "type": "uint8"
        }
      ],
      "stateMutability": "view",
      "type": "function"
    },
    {
      "inputs": [
        {
          "internalType": "address",
          "name": "spender",
          "type": "address"
        },
        {
          "internalType": "uint256",
          "name": "subtractedValue",
          "type": "uint256"
        }
      ],
      "name": "decreaseAllowance",
      "outputs": [
        {
          "internalType": "bool",
          "name": "",
          "type": "bool"
        }
      ],
      "stateMutability": "nonpayable",
      "type": "function"
    },
    {
      "inputs": [
        {
          "internalType": "address",
          "name": "account",
          "type": "address"
        },
        {
          "internalType": "uint256",
          "name": "amount",
          "type": "uint256"
        }
      ],
      "name": "depositFor",
      "outputs": [
        {
          "internalType": "bool",
          "name": "",
          "type": "bool"
        }
      ],
      "stateMutability": "nonpayable",
      "type": "function"
    },
    {
      "inputs": [
        {
          "internalType": "address",
          "name": "spender",
          "type": "address"
        },
        {
          "internalType": "uint256",
          "name": "addedValue",
          "type": "uint256"
        }
      ],
      "name": "increaseAllowance",
      "outputs": [
        {
          "internalType": "bool",
          "name": "",
          "type": "bool"
        }
      ],
      "stateMutability": "nonpayable",
      "type": "function"
    },
    {
      "inputs": [],
      "name": "name",
      "outputs": [
        {
          "internalType": "string",
          "name": "",
          "type": "string"
        }
      ],
      "stateMutability": "view",
      "type": "function"
    },
    {
      "inputs": [
        {
          "internalType": "address",
          "name": "account",
          "type": "address"
        }
      ],
      "name": "recover",
      "outputs": [
        {
          "internalType": "uint256",
          "name": "",
          "type": "uint256"
        }
      ],
      "stateMutability": "nonpayable",
      "type": "function"
    },
    {
      "inputs": [],
      "name": "symbol",
      "outputs": [
        {
          "internalType": "string",
          "name": "",
          "type": "string"
        }
      ],
      "stateMutability": "view",
      "type": "function"
    },
    {
      "inputs": [],
      "name": "totalSupply",
      "outputs": [
        {
          "internalType": "uint256",
          "name": "",
          "type": "uint256"
        }
      ],
      "stateMutability": "view",
      "type": "function"
    },
    {
      "inputs": [
        {
          "internalType": "address",
          "name": "recipient",
          "type": "address"
        },
        {
          "internalType": "uint256",
          "name": "amount",
          "type": "uint256"
        }
      ],
      "name": "transfer",
      "outputs": [
        {
          "internalType": "bool",
          "name": "",
          "type": "bool"
        }
      ],
      "stateMutability": "nonpayable",
      "type": "function"
    },
    {
      "inputs": [
        {
          "internalType": "address",
          "name": "sender",
          "type": "address"
        },
        {
          "internalType": "address",
          "name": "recipient",
          "type": "address"
        },
        {
          "internalType": "uint256",
          "name": "amount",
          "type": "uint256"
        }
      ],
      "name": "transferFrom",
      "outputs": [
        {
          "internalType": "bool",
          "name": "",
          "type": "bool"
        }
      ],
      "stateMutability": "nonpayable",
      "type": "function"
    },
    {
      "inputs": [],
      "name": "underlying",
      "outputs": [
        {
          "internalType": "contract IERC20Upgradeable",
          "name": "",
          "type": "address"
        }
      ],
      "stateMutability": "view",
      "type": "function"
    },
    {
      "inputs": [
        {
          "internalType": "address",
          "name": "account",
          "type": "address"
        },
        {
          "internalType": "uint256",
          "name": "amount",
          "type": "uint256"
        }
      ],
      "name": "withdrawTo",
      "outputs": [
        {
          "internalType": "bool",
          "name": "",
          "type": "bool"
        }
      ],
      "stateMutability": "nonpayable",
      "type": "function"
    }
  ],
  "bytecode": "0x608060405260405162002bb638038062002bb683398181016040528101906200002991906200069b565b6200003c8383836200004560201b60201c565b5050506200099e565b600060019054906101000a900460ff16806200006c575060008054906101000a900460ff16155b620000ae576040517f08c379a0000000000000000000000000000000000000000000000000000000008152600401620000a5906200074a565b60405180910390fd5b60008060019054906101000a900460ff161590508015620000ff576001600060016101000a81548160ff02191690831515021790555060016000806101000a81548160ff0219169083151502179055505b6200010f6200016d60201b60201c565b6200012183836200024c60201b60201c565b62000132846200035f60201b60201c565b620001458484846200048060201b60201c565b8015620001675760008060016101000a81548160ff0219169083151502179055505b50505050565b600060019054906101000a900460ff168062000194575060008054906101000a900460ff16155b620001d6576040517f08c379a0000000000000000000000000000000000000000000000000000000008152600401620001cd906200074a565b60405180910390fd5b60008060019054906101000a900460ff16159050801562000227576001600060016101000a81548160ff02191690831515021790555060016000806101000a81548160ff0219169083151502179055505b8015620002495760008060016101000a81548160ff0219169083151502179055505b50565b600060019054906101000a900460ff168062000273575060008054906101000a900460ff16155b620002b5576040517f08c379a0000000000000000000000000000000000000000000000000000000008152600401620002ac906200074a565b60405180910390fd5b60008060019054906101000a900460ff16159050801562000306576001600060016101000a81548160ff02191690831515021790555060016000806101000a81548160ff0219169083151502179055505b82603690805190602001906200031e92919062000562565b5081603790805190602001906200033792919062000562565b5080156200035a5760008060016101000a81548160ff0219169083151502179055505b505050565b600060019054906101000a900460ff168062000386575060008054906101000a900460ff16155b620003c8576040517f08c379a0000000000000000000000000000000000000000000000000000000008152600401620003bf906200074a565b60405180910390fd5b60008060019054906101000a900460ff16159050801562000419576001600060016101000a81548160ff02191690831515021790555060016000806101000a81548160ff0219169083151502179055505b81606560006101000a81548173ffffffffffffffffffffffffffffffffffffffff021916908373ffffffffffffffffffffffffffffffffffffffff16021790555080156200047c5760008060016101000a81548160ff0219169083151502179055505b5050565b600060019054906101000a900460ff1680620004a7575060008054906101000a900460ff16155b620004e9576040517f08c379a0000000000000000000000000000000000000000000000000000000008152600401620004e0906200074a565b60405180910390fd5b60008060019054906101000a900460ff1615905080156200053a576001600060016101000a81548160ff02191690831515021790555060016000806101000a81548160ff0219169083151502179055505b80156200055c5760008060016101000a81548160ff0219169083151502179055505b50505050565b82805462000570906200085a565b90600052602060002090601f016020900481019282620005945760008555620005e0565b82601f10620005af57805160ff1916838001178555620005e0565b82800160010185558215620005e0579182015b82811115620005df578251825591602001919060010190620005c2565b5b509050620005ef9190620005f3565b5090565b5b808211156200060e576000816000905550600101620005f4565b5090565b600062000629620006238462000795565b6200076c565b9050828152602081018484840111156200064257600080fd5b6200064f84828562000824565b509392505050565b600081519050620006688162000984565b92915050565b600082601f8301126200068057600080fd5b81516200069284826020860162000612565b91505092915050565b600080600060608486031215620006b157600080fd5b6000620006c18682870162000657565b935050602084015167ffffffffffffffff811115620006df57600080fd5b620006ed868287016200066e565b925050604084015167ffffffffffffffff8111156200070b57600080fd5b62000719868287016200066e565b9150509250925092565b600062000732602e83620007cb565b91506200073f8262000935565b604082019050919050565b60006020820190508181036000830152620007658162000723565b9050919050565b6000620007786200078b565b905062000786828262000890565b919050565b6000604051905090565b600067ffffffffffffffff821115620007b357620007b2620008f5565b5b620007be8262000924565b9050602081019050919050565b600082825260208201905092915050565b6000620007e98262000804565b9050919050565b6000620007fd82620007dc565b9050919050565b600073ffffffffffffffffffffffffffffffffffffffff82169050919050565b60005b838110156200084457808201518184015260208101905062000827565b8381111562000854576000848401525b50505050565b600060028204905060018216806200087357607f821691505b602082108114156200088a5762000889620008c6565b5b50919050565b6200089b8262000924565b810181811067ffffffffffffffff82111715620008bd57620008bc620008f5565b5b80604052505050565b7f4e487b7100000000000000000000000000000000000000000000000000000000600052602260045260246000fd5b7f4e487b7100000000000000000000000000000000000000000000000000000000600052604160045260246000fd5b6000601f19601f8301169050919050565b7f496e697469616c697a61626c653a20636f6e747261637420697320616c72656160008201527f647920696e697469616c697a6564000000000000000000000000000000000000602082015250565b6200098f81620007f0565b81146200099b57600080fd5b50565b61220880620009ae6000396000f3fe608060405234801561001057600080fd5b50600436106100f55760003560e01c8063313ce5671161009757806395d89b411161006657806395d89b41146102c2578063a457c2d7146102e0578063a9059cbb14610310578063dd62ed3e14610340576100f5565b8063313ce5671461022657806339509351146102445780636f307dc31461027457806370a0823114610292576100f5565b806318160ddd116100d357806318160ddd14610178578063205c28781461019657806323b872dd146101c65780632f4f21e2146101f6576100f5565b806306fdde03146100fa578063095ea7b3146101185780630cd865ec14610148575b600080fd5b610102610370565b60405161010f91906119d5565b60405180910390f35b610132600480360381019061012d9190611603565b610402565b60405161013f919061199f565b60405180910390f35b610162600480360381019061015d919061154f565b610420565b60405161016f9190611b97565b60405180910390f35b610180610432565b60405161018d9190611b97565b60405180910390f35b6101b060048036038101906101ab9190611603565b61043c565b6040516101bd919061199f565b60405180910390f35b6101e060048036038101906101db91906115b4565b610486565b6040516101ed919061199f565b60405180910390f35b610210600480360381019061020b9190611603565b61057e565b60405161021d919061199f565b60405180910390f35b61022e6105c9565b60405161023b9190611bb2565b60405180910390f35b61025e60048036038101906102599190611603565b6105d2565b60405161026b919061199f565b60405180910390f35b61027c61067e565b60405161028991906119ba565b60405180910390f35b6102ac60048036038101906102a7919061154f565b6106a4565b6040516102b99190611b97565b60405180910390f35b6102ca6106ed565b6040516102d791906119d5565b60405180910390f35b6102fa60048036038101906102f59190611603565b61077f565b604051610307919061199f565b60405180910390f35b61032a60048036038101906103259190611603565b61086a565b604051610337919061199f565b60405180910390f35b61035a60048036038101906103559190611578565b610888565b6040516103679190611b97565b60405180910390f35b60606036805461037f90611d35565b80601f01602080910402602001604051908101604052809291908181526020018280546103ab90611d35565b80156103f85780601f106103cd576101008083540402835291602001916103f8565b820191906000526020600020905b8154815290600101906020018083116103db57829003601f168201915b5050505050905090565b600061041661040f61090f565b8484610917565b6001905092915050565b600061042b82610ae2565b9050919050565b6000603554905090565b600061044f61044961090f565b83610bb7565b61047c606560009054906101000a900473ffffffffffffffffffffffffffffffffffffffff168484610d90565b6001905092915050565b6000610493848484610e16565b6000603460008673ffffffffffffffffffffffffffffffffffffffff1673ffffffffffffffffffffffffffffffffffffffff16815260200190815260200160002060006104de61090f565b73ffffffffffffffffffffffffffffffffffffffff1673ffffffffffffffffffffffffffffffffffffffff1681526020019081526020016000205490508281101561055e576040517f08c379a000000000000000000000000000000000000000000000000000000000815260040161055590611a97565b60405180910390fd5b6105728561056a61090f565b858403610917565b60019150509392505050565b60006105b5606560009054906101000a900473ffffffffffffffffffffffffffffffffffffffff166105ae61090f565b308561109a565b6105bf8383611123565b6001905092915050565b60006012905090565b60006106746105df61090f565b8484603460006105ed61090f565b73ffffffffffffffffffffffffffffffffffffffff1673ffffffffffffffffffffffffffffffffffffffff16815260200190815260200160002060008873ffffffffffffffffffffffffffffffffffffffff1673ffffffffffffffffffffffffffffffffffffffff1681526020019081526020016000205461066f9190611bff565b610917565b6001905092915050565b606560009054906101000a900473ffffffffffffffffffffffffffffffffffffffff1681565b6000603360008373ffffffffffffffffffffffffffffffffffffffff1673ffffffffffffffffffffffffffffffffffffffff168152602001908152602001600020549050919050565b6060603780546106fc90611d35565b80601f016020809104026020016040519081016040528092919081815260200182805461072890611d35565b80156107755780601f1061074a57610100808354040283529160200191610775565b820191906000526020600020905b81548152906001019060200180831161075857829003601f168201915b5050505050905090565b6000806034600061078e61090f565b73ffffffffffffffffffffffffffffffffffffffff1673ffffffffffffffffffffffffffffffffffffffff16815260200190815260200160002060008573ffffffffffffffffffffffffffffffffffffffff1673ffffffffffffffffffffffffffffffffffffffff1681526020019081526020016000205490508281101561084b576040517f08c379a000000000000000000000000000000000000000000000000000000000815260040161084290611b57565b60405180910390fd5b61085f61085661090f565b85858403610917565b600191505092915050565b600061087e61087761090f565b8484610e16565b6001905092915050565b6000603460008473ffffffffffffffffffffffffffffffffffffffff1673ffffffffffffffffffffffffffffffffffffffff16815260200190815260200160002060008373ffffffffffffffffffffffffffffffffffffffff1673ffffffffffffffffffffffffffffffffffffffff16815260200190815260200160002054905092915050565b600033905090565b600073ffffffffffffffffffffffffffffffffffffffff168373ffffffffffffffffffffffffffffffffffffffff161415610987576040517f08c379a000000000000000000000000000000000000000000000000000000000815260040161097e90611af7565b60405180910390fd5b600073ffffffffffffffffffffffffffffffffffffffff168273ffffffffffffffffffffffffffffffffffffffff1614156109f7576040517f08c379a00000000000000000000000000000000000000000000000000000000081526004016109ee90611a37565b60405180910390fd5b80603460008573ffffffffffffffffffffffffffffffffffffffff1673ffffffffffffffffffffffffffffffffffffffff16815260200190815260200160002060008473ffffffffffffffffffffffffffffffffffffffff1673ffffffffffffffffffffffffffffffffffffffff168152602001908152602001600020819055508173ffffffffffffffffffffffffffffffffffffffff168373ffffffffffffffffffffffffffffffffffffffff167f8c5be1e5ebec7d5bd14f71427d1e84f3dd0314c0f7b2291e5b200ac8c7c3b92583604051610ad59190611b97565b60405180910390a3505050565b600080610aed610432565b606560009054906101000a900473ffffffffffffffffffffffffffffffffffffffff1673ffffffffffffffffffffffffffffffffffffffff166370a08231306040518263ffffffff1660e01b8152600401610b489190611924565b60206040518083038186803b158015610b6057600080fd5b505afa158015610b74573d6000803e3d6000fd5b505050506040513d601f19601f82011682018060405250810190610b989190611668565b610ba29190611c55565b9050610bae8382611123565b80915050919050565b600073ffffffffffffffffffffffffffffffffffffffff168273ffffffffffffffffffffffffffffffffffffffff161415610c27576040517f08c379a0000000000000000000000000000000000000000000000000000000008152600401610c1e90611ab7565b60405180910390fd5b610c3382600083611284565b6000603360008473ffffffffffffffffffffffffffffffffffffffff1673ffffffffffffffffffffffffffffffffffffffff16815260200190815260200160002054905081811015610cba576040517f08c379a0000000000000000000000000000000000000000000000000000000008152600401610cb190611a17565b60405180910390fd5b818103603360008573ffffffffffffffffffffffffffffffffffffffff1673ffffffffffffffffffffffffffffffffffffffff168152602001908152602001600020819055508160356000828254610d129190611c55565b92505081905550600073ffffffffffffffffffffffffffffffffffffffff168373ffffffffffffffffffffffffffffffffffffffff167fddf252ad1be2c89b69c2b068fc378daa952ba7f163c4a11628f55a4df523b3ef84604051610d779190611b97565b60405180910390a3610d8b83600084611289565b505050565b610e118363a9059cbb60e01b8484604051602401610daf929190611976565b604051602081830303815290604052907bffffffffffffffffffffffffffffffffffffffffffffffffffffffff19166020820180517bffffffffffffffffffffffffffffffffffffffffffffffffffffffff838183161783525050505061128e565b505050565b600073ffffffffffffffffffffffffffffffffffffffff168373ffffffffffffffffffffffffffffffffffffffff161415610e86576040517f08c379a0000000000000000000000000000000000000000000000000000000008152600401610e7d90611ad7565b60405180910390fd5b600073ffffffffffffffffffffffffffffffffffffffff168273ffffffffffffffffffffffffffffffffffffffff161415610ef6576040517f08c379a0000000000000000000000000000000000000000000000000000000008152600401610eed906119f7565b60405180910390fd5b610f01838383611284565b6000603360008573ffffffffffffffffffffffffffffffffffffffff1673ffffffffffffffffffffffffffffffffffffffff16815260200190815260200160002054905081811015610f88576040517f08c379a0000000000000000000000000000000000000000000000000000000008152600401610f7f90611a57565b60405180910390fd5b818103603360008673ffffffffffffffffffffffffffffffffffffffff1673ffffffffffffffffffffffffffffffffffffffff1681526020019081526020016000208190555081603360008573ffffffffffffffffffffffffffffffffffffffff1673ffffffffffffffffffffffffffffffffffffffff168152602001908152602001600020600082825461101d9190611bff565b925050819055508273ffffffffffffffffffffffffffffffffffffffff168473ffffffffffffffffffffffffffffffffffffffff167fddf252ad1be2c89b69c2b068fc378daa952ba7f163c4a11628f55a4df523b3ef846040516110819190611b97565b60405180910390a3611094848484611289565b50505050565b61111d846323b872dd60e01b8585856040516024016110bb9392919061193f565b604051602081830303815290604052907bffffffffffffffffffffffffffffffffffffffffffffffffffffffff19166020820180517bffffffffffffffffffffffffffffffffffffffffffffffffffffffff838183161783525050505061128e565b50505050565b600073ffffffffffffffffffffffffffffffffffffffff168273ffffffffffffffffffffffffffffffffffffffff161415611193576040517f08c379a000000000000000000000000000000000000000000000000000000000815260040161118a90611b77565b60405180910390fd5b61119f60008383611284565b80603560008282546111b19190611bff565b9250508190555080603360008473ffffffffffffffffffffffffffffffffffffffff1673ffffffffffffffffffffffffffffffffffffffff16815260200190815260200160002060008282546112079190611bff565b925050819055508173ffffffffffffffffffffffffffffffffffffffff16600073ffffffffffffffffffffffffffffffffffffffff167fddf252ad1be2c89b69c2b068fc378daa952ba7f163c4a11628f55a4df523b3ef8360405161126c9190611b97565b60405180910390a361128060008383611289565b5050565b505050565b505050565b60006112f0826040518060400160405280602081526020017f5361666545524332303a206c6f772d6c6576656c2063616c6c206661696c65648152508573ffffffffffffffffffffffffffffffffffffffff166113559092919063ffffffff16565b90506000815111156113505780806020019051810190611310919061163f565b61134f576040517f08c379a000000000000000000000000000000000000000000000000000000000815260040161134690611b37565b60405180910390fd5b5b505050565b6060611364848460008561136d565b90509392505050565b6060824710156113b2576040517f08c379a00000000000000000000000000000000000000000000000000000000081526004016113a990611a77565b60405180910390fd5b6113bb85611481565b6113fa576040517f08c379a00000000000000000000000000000000000000000000000000000000081526004016113f190611b17565b60405180910390fd5b6000808673ffffffffffffffffffffffffffffffffffffffff168587604051611423919061190d565b60006040518083038185875af1925050503d8060008114611460576040519150601f19603f3d011682016040523d82523d6000602084013e611465565b606091505b5091509150611475828286611494565b92505050949350505050565b600080823b905060008111915050919050565b606083156114a4578290506114f4565b6000835111156114b75782518084602001fd5b816040517f08c379a00000000000000000000000000000000000000000000000000000000081526004016114eb91906119d5565b60405180910390fd5b9392505050565b60008135905061150a8161218d565b92915050565b60008151905061151f816121a4565b92915050565b600081359050611534816121bb565b92915050565b600081519050611549816121bb565b92915050565b60006020828403121561156157600080fd5b600061156f848285016114fb565b91505092915050565b6000806040838503121561158b57600080fd5b6000611599858286016114fb565b92505060206115aa858286016114fb565b9150509250929050565b6000806000606084860312156115c957600080fd5b60006115d7868287016114fb565b93505060206115e8868287016114fb565b92505060406115f986828701611525565b9150509250925092565b6000806040838503121561161657600080fd5b6000611624858286016114fb565b925050602061163585828601611525565b9150509250929050565b60006020828403121561165157600080fd5b600061165f84828501611510565b91505092915050565b60006020828403121561167a57600080fd5b60006116888482850161153a565b91505092915050565b61169a81611c89565b82525050565b6116a981611c9b565b82525050565b60006116ba82611bcd565b6116c48185611be3565b93506116d4818560208601611d02565b80840191505092915050565b6116e981611cde565b82525050565b60006116fa82611bd8565b6117048185611bee565b9350611714818560208601611d02565b61171d81611dc5565b840191505092915050565b6000611735602383611bee565b915061174082611dd6565b604082019050919050565b6000611758602283611bee565b915061176382611e25565b604082019050919050565b600061177b602283611bee565b915061178682611e74565b604082019050919050565b600061179e602683611bee565b91506117a982611ec3565b604082019050919050565b60006117c1602683611bee565b91506117cc82611f12565b604082019050919050565b60006117e4602883611bee565b91506117ef82611f61565b604082019050919050565b6000611807602183611bee565b915061181282611fb0565b604082019050919050565b600061182a602583611bee565b915061183582611fff565b604082019050919050565b600061184d602483611bee565b91506118588261204e565b604082019050919050565b6000611870601d83611bee565b915061187b8261209d565b602082019050919050565b6000611893602a83611bee565b915061189e826120c6565b604082019050919050565b60006118b6602583611bee565b91506118c182612115565b604082019050919050565b60006118d9601f83611bee565b91506118e482612164565b602082019050919050565b6118f881611cc7565b82525050565b61190781611cd1565b82525050565b600061191982846116af565b915081905092915050565b60006020820190506119396000830184611691565b92915050565b60006060820190506119546000830186611691565b6119616020830185611691565b61196e60408301846118ef565b949350505050565b600060408201905061198b6000830185611691565b61199860208301846118ef565b9392505050565b60006020820190506119b460008301846116a0565b92915050565b60006020820190506119cf60008301846116e0565b92915050565b600060208201905081810360008301526119ef81846116ef565b905092915050565b60006020820190508181036000830152611a1081611728565b9050919050565b60006020820190508181036000830152611a308161174b565b9050919050565b60006020820190508181036000830152611a508161176e565b9050919050565b60006020820190508181036000830152611a7081611791565b9050919050565b60006020820190508181036000830152611a90816117b4565b9050919050565b60006020820190508181036000830152611ab0816117d7565b9050919050565b60006020820190508181036000830152611ad0816117fa565b9050919050565b60006020820190508181036000830152611af08161181d565b9050919050565b60006020820190508181036000830152611b1081611840565b9050919050565b60006020820190508181036000830152611b3081611863565b9050919050565b60006020820190508181036000830152611b5081611886565b9050919050565b60006020820190508181036000830152611b70816118a9565b9050919050565b60006020820190508181036000830152611b90816118cc565b9050919050565b6000602082019050611bac60008301846118ef565b92915050565b6000602082019050611bc760008301846118fe565b92915050565b600081519050919050565b600081519050919050565b600081905092915050565b600082825260208201905092915050565b6000611c0a82611cc7565b9150611c1583611cc7565b9250827fffffffffffffffffffffffffffffffffffffffffffffffffffffffffffffffff03821115611c4a57611c49611d67565b5b828201905092915050565b6000611c6082611cc7565b9150611c6b83611cc7565b925082821015611c7e57611c7d611d67565b5b828203905092915050565b6000611c9482611ca7565b9050919050565b60008115159050919050565b600073ffffffffffffffffffffffffffffffffffffffff82169050919050565b6000819050919050565b600060ff82169050919050565b6000611ce982611cf0565b9050919050565b6000611cfb82611ca7565b9050919050565b60005b83811015611d20578082015181840152602081019050611d05565b83811115611d2f576000848401525b50505050565b60006002820490506001821680611d4d57607f821691505b60208210811415611d6157611d60611d96565b5b50919050565b7f4e487b7100000000000000000000000000000000000000000000000000000000600052601160045260246000fd5b7f4e487b7100000000000000000000000000000000000000000000000000000000600052602260045260246000fd5b6000601f19601f8301169050919050565b7f45524332303a207472616e7366657220746f20746865207a65726f206164647260008201527f6573730000000000000000000000000000000000000000000000000000000000602082015250565b7f45524332303a206275726e20616d6f756e7420657863656564732062616c616e60008201527f6365000000000000000000000000000000000000000000000000000000000000602082015250565b7f45524332303a20617070726f766520746f20746865207a65726f20616464726560008201527f7373000000000000000000000000000000000000000000000000000000000000602082015250565b7f45524332303a207472616e7366657220616d6f756e742065786365656473206260008201527f616c616e63650000000000000000000000000000000000000000000000000000602082015250565b7f416464726573733a20696e73756666696369656e742062616c616e636520666f60008201527f722063616c6c0000000000000000000000000000000000000000000000000000602082015250565b7f45524332303a207472616e7366657220616d6f756e742065786365656473206160008201527f6c6c6f77616e6365000000000000000000000000000000000000000000000000602082015250565b7f45524332303a206275726e2066726f6d20746865207a65726f2061646472657360008201527f7300000000000000000000000000000000000000000000000000000000000000602082015250565b7f45524332303a207472616e736665722066726f6d20746865207a65726f20616460008201527f6472657373000000000000000000000000000000000000000000000000000000602082015250565b7f45524332303a20617070726f76652066726f6d20746865207a65726f2061646460008201527f7265737300000000000000000000000000000000000000000000000000000000602082015250565b7f416464726573733a2063616c6c20746f206e6f6e2d636f6e7472616374000000600082015250565b7f5361666545524332303a204552433230206f7065726174696f6e20646964206e60008201527f6f74207375636365656400000000000000000000000000000000000000000000602082015250565b7f45524332303a2064656372656173656420616c6c6f77616e63652062656c6f7760008201527f207a65726f000000000000000000000000000000000000000000000000000000602082015250565b7f45524332303a206d696e7420746f20746865207a65726f206164647265737300600082015250565b61219681611c89565b81146121a157600080fd5b50565b6121ad81611c9b565b81146121b857600080fd5b50565b6121c481611cc7565b81146121cf57600080fd5b5056fea2646970667358221220af5905720e3d49120302b0dccdbddd120d1d0fa68a9a8bbb923ca8fd6d0f71dd64736f6c63430008040033",
  "linkReferences": {},
  "deployedLinkReferences": {}
}