{
  "_format": "hh-sol-artifact-1",
  "contractName": "ERC20SnapshotMockUpgradeableWithInit",
  "sourceName": "contracts/src/OpenZeppelin/upgradeable/mocks/WithInit.sol",
  "abi": [
    {
      "inputs": [
        {
          "internalType": "string",
          "name": "name",
          "type": "string"
        },
        {
          "internalType": "string",
          "name": "symbol",
          "type": "string"
        },
        {
          "internalType": "address",
          "name": "initialAccount",
          "type": "address"
        },
        {
          "internalType": "uint256",
          "name": "initialBalance",
          "type": "uint256"
        }
      ],
      "stateMutability": "payable",
      "type": "constructor"
    },
    {
      "anonymous": false,
      "inputs": [
        {
          "indexed": true,
          "internalType": "address",
          "name": "owner",
          "type": "address"
        },
        {
          "indexed": true,
          "internalType": "address",
          "name": "spender",
          "type": "address"
        },
        {
          "indexed": false,
          "internalType": "uint256",
          "name": "value",
          "type": "uint256"
        }
      ],
      "name": "Approval",
      "type": "event"
    },
    {
      "anonymous": false,
      "inputs": [
        {
          "indexed": false,
          "internalType": "uint256",
          "name": "id",
          "type": "uint256"
        }
      ],
      "name": "Snapshot",
      "type": "event"
    },
    {
      "anonymous": false,
      "inputs": [
        {
          "indexed": true,
          "internalType": "address",
          "name": "from",
          "type": "address"
        },
        {
          "indexed": true,
          "internalType": "address",
          "name": "to",
          "type": "address"
        },
        {
          "indexed": false,
          "internalType": "uint256",
          "name": "value",
          "type": "uint256"
        }
      ],
      "name": "Transfer",
      "type": "event"
    },
    {
      "inputs": [
        {
          "internalType": "address",
          "name": "owner",
          "type": "address"
        },
        {
          "internalType": "address",
          "name": "spender",
          "type": "address"
        }
      ],
      "name": "allowance",
      "outputs": [
        {
          "internalType": "uint256",
          "name": "",
          "type": "uint256"
        }
      ],
      "stateMutability": "view",
      "type": "function"
    },
    {
      "inputs": [
        {
          "internalType": "address",
          "name": "spender",
          "type": "address"
        },
        {
          "internalType": "uint256",
          "name": "amount",
          "type": "uint256"
        }
      ],
      "name": "approve",
      "outputs": [
        {
          "internalType": "bool",
          "name": "",
          "type": "bool"
        }
      ],
      "stateMutability": "nonpayable",
      "type": "function"
    },
    {
      "inputs": [
        {
          "internalType": "address",
          "name": "account",
          "type": "address"
        }
      ],
      "name": "balanceOf",
      "outputs": [
        {
          "internalType": "uint256",
          "name": "",
          "type": "uint256"
        }
      ],
      "stateMutability": "view",
      "type": "function"
    },
    {
      "inputs": [
        {
          "internalType": "address",
          "name": "account",
          "type": "address"
        },
        {
          "internalType": "uint256",
          "name": "snapshotId",
          "type": "uint256"
        }
      ],
      "name": "balanceOfAt",
      "outputs": [
        {
          "internalType": "uint256",
          "name": "",
          "type": "uint256"
        }
      ],
      "stateMutability": "view",
      "type": "function"
    },
    {
      "inputs": [
        {
          "internalType": "address",
          "name": "account",
          "type": "address"
        },
        {
          "internalType": "uint256",
          "name": "amount",
          "type": "uint256"
        }
      ],
      "name": "burn",
      "outputs": [],
      "stateMutability": "nonpayable",
      "type": "function"
    },
    {
      "inputs": [],
      "name": "decimals",
      "outputs": [
        {
          "internalType": "uint8",
          "name": "",
          "type": "uint8"
        }
      ],
      "stateMutability": "view",
      "type": "function"
    },
    {
      "inputs": [
        {
          "internalType": "address",
          "name": "spender",
          "type": "address"
        },
        {
          "internalType": "uint256",
          "name": "subtractedValue",
          "type": "uint256"
        }
      ],
      "name": "decreaseAllowance",
      "outputs": [
        {
          "internalType": "bool",
          "name": "",
          "type": "bool"
        }
      ],
      "stateMutability": "nonpayable",
      "type": "function"
    },
    {
      "inputs": [
        {
          "internalType": "address",
          "name": "spender",
          "type": "address"
        },
        {
          "internalType": "uint256",
          "name": "addedValue",
          "type": "uint256"
        }
      ],
      "name": "increaseAllowance",
      "outputs": [
        {
          "internalType": "bool",
          "name": "",
          "type": "bool"
        }
      ],
      "stateMutability": "nonpayable",
      "type": "function"
    },
    {
      "inputs": [
        {
          "internalType": "address",
          "name": "account",
          "type": "address"
        },
        {
          "internalType": "uint256",
          "name": "amount",
          "type": "uint256"
        }
      ],
      "name": "mint",
      "outputs": [],
      "stateMutability": "nonpayable",
      "type": "function"
    },
    {
      "inputs": [],
      "name": "name",
      "outputs": [
        {
          "internalType": "string",
          "name": "",
          "type": "string"
        }
      ],
      "stateMutability": "view",
      "type": "function"
    },
    {
      "inputs": [],
      "name": "snapshot",
      "outputs": [],
      "stateMutability": "nonpayable",
      "type": "function"
    },
    {
      "inputs": [],
      "name": "symbol",
      "outputs": [
        {
          "internalType": "string",
          "name": "",
          "type": "string"
        }
      ],
      "stateMutability": "view",
      "type": "function"
    },
    {
      "inputs": [],
      "name": "totalSupply",
      "outputs": [
        {
          "internalType": "uint256",
          "name": "",
          "type": "uint256"
        }
      ],
      "stateMutability": "view",
      "type": "function"
    },
    {
      "inputs": [
        {
          "internalType": "uint256",
          "name": "snapshotId",
          "type": "uint256"
        }
      ],
      "name": "totalSupplyAt",
      "outputs": [
        {
          "internalType": "uint256",
          "name": "",
          "type": "uint256"
        }
      ],
      "stateMutability": "view",
      "type": "function"
    },
    {
      "inputs": [
        {
          "internalType": "address",
          "name": "recipient",
          "type": "address"
        },
        {
          "internalType": "uint256",
          "name": "amount",
          "type": "uint256"
        }
      ],
      "name": "transfer",
      "outputs": [
        {
          "internalType": "bool",
          "name": "",
          "type": "bool"
        }
      ],
      "stateMutability": "nonpayable",
      "type": "function"
    },
    {
      "inputs": [
        {
          "internalType": "address",
          "name": "sender",
          "type": "address"
        },
        {
          "internalType": "address",
          "name": "recipient",
          "type": "address"
        },
        {
          "internalType": "uint256",
          "name": "amount",
          "type": "uint256"
        }
      ],
      "name": "transferFrom",
      "outputs": [
        {
          "internalType": "bool",
          "name": "",
          "type": "bool"
        }
      ],
      "stateMutability": "nonpayable",
      "type": "function"
    }
  ],
  "bytecode": "0x6080604052604051620030dc380380620030dc833981810160405281019062000029919062000b0f565b6200003d848484846200004760201b60201c565b5050505062000f9f565b600060019054906101000a900460ff16806200006e575060008054906101000a900460ff16155b620000b0576040517f08c379a0000000000000000000000000000000000000000000000000000000008152600401620000a79062000c0c565b60405180910390fd5b60008060019054906101000a900460ff16159050801562000101576001600060016101000a81548160ff02191690831515021790555060016000806101000a81548160ff0219169083151502179055505b620001116200017060201b60201c565b6200012385856200024f60201b60201c565b620001336200036260201b60201c565b62000147858585856200044160201b60201c565b8015620001695760008060016101000a81548160ff0219169083151502179055505b5050505050565b600060019054906101000a900460ff168062000197575060008054906101000a900460ff16155b620001d9576040517f08c379a0000000000000000000000000000000000000000000000000000000008152600401620001d09062000c0c565b60405180910390fd5b60008060019054906101000a900460ff1615905080156200022a576001600060016101000a81548160ff02191690831515021790555060016000806101000a81548160ff0219169083151502179055505b80156200024c5760008060016101000a81548160ff0219169083151502179055505b50565b600060019054906101000a900460ff168062000276575060008054906101000a900460ff16155b620002b8576040517f08c379a0000000000000000000000000000000000000000000000000000000008152600401620002af9062000c0c565b60405180910390fd5b60008060019054906101000a900460ff16159050801562000309576001600060016101000a81548160ff02191690831515021790555060016000806101000a81548160ff0219169083151502179055505b826036908051906020019062000321929190620009bf565b5081603790805190602001906200033a929190620009bf565b5080156200035d5760008060016101000a81548160ff0219169083151502179055505b505050565b600060019054906101000a900460ff168062000389575060008054906101000a900460ff16155b620003cb576040517f08c379a0000000000000000000000000000000000000000000000000000000008152600401620003c29062000c0c565b60405180910390fd5b60008060019054906101000a900460ff1615905080156200041c576001600060016101000a81548160ff02191690831515021790555060016000806101000a81548160ff0219169083151502179055505b80156200043e5760008060016101000a81548160ff0219169083151502179055505b50565b600060019054906101000a900460ff168062000468575060008054906101000a900460ff16155b620004aa576040517f08c379a0000000000000000000000000000000000000000000000000000000008152600401620004a19062000c0c565b60405180910390fd5b60008060019054906101000a900460ff161590508015620004fb576001600060016101000a81548160ff02191690831515021790555060016000806101000a81548160ff0219169083151502179055505b6200050d83836200053660201b60201c565b80156200052f5760008060016101000a81548160ff0219169083151502179055505b5050505050565b600073ffffffffffffffffffffffffffffffffffffffff168273ffffffffffffffffffffffffffffffffffffffff161415620005a9576040517f08c379a0000000000000000000000000000000000000000000000000000000008152600401620005a09062000c2e565b60405180910390fd5b620005bd60008383620006b060201b60201c565b8060356000828254620005d1919062000cdd565b9250508190555080603360008473ffffffffffffffffffffffffffffffffffffffff1673ffffffffffffffffffffffffffffffffffffffff168152602001908152602001600020600082825462000629919062000cdd565b925050819055508173ffffffffffffffffffffffffffffffffffffffff16600073ffffffffffffffffffffffffffffffffffffffff167fddf252ad1be2c89b69c2b068fc378daa952ba7f163c4a11628f55a4df523b3ef8360405162000690919062000c50565b60405180910390a3620006ac60008383620007ab60201b60201c565b5050565b620006c8838383620007b060201b620009091760201c565b600073ffffffffffffffffffffffffffffffffffffffff168373ffffffffffffffffffffffffffffffffffffffff16141562000725576200070f82620007b560201b60201c565b6200071f6200081860201b60201c565b620007a6565b600073ffffffffffffffffffffffffffffffffffffffff168273ffffffffffffffffffffffffffffffffffffffff16141562000782576200076c83620007b560201b60201c565b6200077c6200081860201b60201c565b620007a5565b6200079383620007b560201b60201c565b620007a482620007b560201b60201c565b5b5b505050565b505050565b505050565b62000815606560008373ffffffffffffffffffffffffffffffffffffffff1673ffffffffffffffffffffffffffffffffffffffff16815260200190815260200160002062000809836200083c60201b60201c565b6200088560201b60201c565b50565b6200083a60666200082e6200091160201b60201c565b6200088560201b60201c565b565b6000603360008373ffffffffffffffffffffffffffffffffffffffff1673ffffffffffffffffffffffffffffffffffffffff168152602001908152602001600020549050919050565b6000620008976200091b60201b60201c565b905080620008ae846000016200093960201b60201c565b10156200090c5782600001819080600181540180825580915050600190039060005260206000200160009091909190915055826001018290806001815401808255809150506001900390600052602060002001600090919091909150555b505050565b6000603554905090565b6000620009346068620009b160201b6200090e1760201c565b905090565b60008082805490501415620009525760009050620009ac565b816001838054905062000966919062000d3a565b815481106200099e577f4e487b7100000000000000000000000000000000000000000000000000000000600052603260045260246000fd5b906000526020600020015490505b919050565b600081600001549050919050565b828054620009cd9062000de9565b90600052602060002090601f016020900481019282620009f1576000855562000a3d565b82601f1062000a0c57805160ff191683800117855562000a3d565b8280016001018555821562000a3d579182015b8281111562000a3c57825182559160200191906001019062000a1f565b5b50905062000a4c919062000a50565b5090565b5b8082111562000a6b57600081600090555060010162000a51565b5090565b600062000a8662000a808462000c96565b62000c6d565b90508281526020810184848401111562000a9f57600080fd5b62000aac84828562000db3565b509392505050565b60008151905062000ac58162000f6b565b92915050565b600082601f83011262000add57600080fd5b815162000aef84826020860162000a6f565b91505092915050565b60008151905062000b098162000f85565b92915050565b6000806000806080858703121562000b2657600080fd5b600085015167ffffffffffffffff81111562000b4157600080fd5b62000b4f8782880162000acb565b945050602085015167ffffffffffffffff81111562000b6d57600080fd5b62000b7b8782880162000acb565b935050604062000b8e8782880162000ab4565b925050606062000ba18782880162000af8565b91505092959194509250565b600062000bbc602e8362000ccc565b915062000bc98262000ef3565b604082019050919050565b600062000be3601f8362000ccc565b915062000bf08262000f42565b602082019050919050565b62000c068162000da9565b82525050565b6000602082019050818103600083015262000c278162000bad565b9050919050565b6000602082019050818103600083015262000c498162000bd4565b9050919050565b600060208201905062000c67600083018462000bfb565b92915050565b600062000c7962000c8c565b905062000c87828262000e1f565b919050565b6000604051905090565b600067ffffffffffffffff82111562000cb45762000cb362000eb3565b5b62000cbf8262000ee2565b9050602081019050919050565b600082825260208201905092915050565b600062000cea8262000da9565b915062000cf78362000da9565b9250827fffffffffffffffffffffffffffffffffffffffffffffffffffffffffffffffff0382111562000d2f5762000d2e62000e55565b5b828201905092915050565b600062000d478262000da9565b915062000d548362000da9565b92508282101562000d6a5762000d6962000e55565b5b828203905092915050565b600062000d828262000d89565b9050919050565b600073ffffffffffffffffffffffffffffffffffffffff82169050919050565b6000819050919050565b60005b8381101562000dd357808201518184015260208101905062000db6565b8381111562000de3576000848401525b50505050565b6000600282049050600182168062000e0257607f821691505b6020821081141562000e195762000e1862000e84565b5b50919050565b62000e2a8262000ee2565b810181811067ffffffffffffffff8211171562000e4c5762000e4b62000eb3565b5b80604052505050565b7f4e487b7100000000000000000000000000000000000000000000000000000000600052601160045260246000fd5b7f4e487b7100000000000000000000000000000000000000000000000000000000600052602260045260246000fd5b7f4e487b7100000000000000000000000000000000000000000000000000000000600052604160045260246000fd5b6000601f19601f8301169050919050565b7f496e697469616c697a61626c653a20636f6e747261637420697320616c72656160008201527f647920696e697469616c697a6564000000000000000000000000000000000000602082015250565b7f45524332303a206d696e7420746f20746865207a65726f206164647265737300600082015250565b62000f768162000d75565b811462000f8257600080fd5b50565b62000f908162000da9565b811462000f9c57600080fd5b50565b61212d8062000faf6000396000f3fe608060405234801561001057600080fd5b50600436106101005760003560e01c806370a08231116100975780639dc29fac116100665780639dc29fac146102c3578063a457c2d7146102df578063a9059cbb1461030f578063dd62ed3e1461033f57610100565b806370a082311461023b57806395d89b411461026b5780639711715a14610289578063981b24d01461029357610100565b8063313ce567116100d3578063313ce567146101a157806339509351146101bf57806340c10f19146101ef5780634ee2cd7e1461020b57610100565b806306fdde0314610105578063095ea7b31461012357806318160ddd1461015357806323b872dd14610171575b600080fd5b61010d61036f565b60405161011a919061194f565b60405180910390f35b61013d600480360381019061013891906116c5565b610401565b60405161014a9190611934565b60405180910390f35b61015b61041f565b6040516101689190611af1565b60405180910390f35b61018b60048036038101906101869190611676565b610429565b6040516101989190611934565b60405180910390f35b6101a9610521565b6040516101b69190611b0c565b60405180910390f35b6101d960048036038101906101d491906116c5565b61052a565b6040516101e69190611934565b60405180910390f35b610209600480360381019061020491906116c5565b6105d6565b005b610225600480360381019061022091906116c5565b6105e4565b6040516102329190611af1565b60405180910390f35b61025560048036038101906102509190611611565b610654565b6040516102629190611af1565b60405180910390f35b61027361069d565b604051610280919061194f565b60405180910390f35b61029161072f565b005b6102ad60048036038101906102a89190611701565b61073a565b6040516102ba9190611af1565b60405180910390f35b6102dd60048036038101906102d891906116c5565b61076b565b005b6102f960048036038101906102f491906116c5565b610779565b6040516103069190611934565b60405180910390f35b610329600480360381019061032491906116c5565b610864565b6040516103369190611934565b60405180910390f35b6103596004803603810190610354919061163a565b610882565b6040516103669190611af1565b60405180910390f35b60606036805461037e90611c86565b80601f01602080910402602001604051908101604052809291908181526020018280546103aa90611c86565b80156103f75780601f106103cc576101008083540402835291602001916103f7565b820191906000526020600020905b8154815290600101906020018083116103da57829003601f168201915b5050505050905090565b600061041561040e61091c565b8484610924565b6001905092915050565b6000603554905090565b6000610436848484610aef565b6000603460008673ffffffffffffffffffffffffffffffffffffffff1673ffffffffffffffffffffffffffffffffffffffff168152602001908152602001600020600061048161091c565b73ffffffffffffffffffffffffffffffffffffffff1673ffffffffffffffffffffffffffffffffffffffff16815260200190815260200160002054905082811015610501576040517f08c379a00000000000000000000000000000000000000000000000000000000081526004016104f890611a11565b60405180910390fd5b6105158561050d61091c565b858403610924565b60019150509392505050565b60006012905090565b60006105cc61053761091c565b84846034600061054561091c565b73ffffffffffffffffffffffffffffffffffffffff1673ffffffffffffffffffffffffffffffffffffffff16815260200190815260200160002060008873ffffffffffffffffffffffffffffffffffffffff1673ffffffffffffffffffffffffffffffffffffffff168152602001908152602001600020546105c79190611b43565b610924565b6001905092915050565b6105e08282610d73565b5050565b600080600061063184606560008873ffffffffffffffffffffffffffffffffffffffff1673ffffffffffffffffffffffffffffffffffffffff168152602001908152602001600020610ed4565b91509150816106485761064385610654565b61064a565b805b9250505092915050565b6000603360008373ffffffffffffffffffffffffffffffffffffffff1673ffffffffffffffffffffffffffffffffffffffff168152602001908152602001600020549050919050565b6060603780546106ac90611c86565b80601f01602080910402602001604051908101604052809291908181526020018280546106d890611c86565b80156107255780601f106106fa57610100808354040283529160200191610725565b820191906000526020600020905b81548152906001019060200180831161070857829003601f168201915b5050505050905090565b610737610ff0565b50565b600080600061074a846066610ed4565b91509150816107605761075b61041f565b610762565b805b92505050919050565b6107758282611046565b5050565b6000806034600061078861091c565b73ffffffffffffffffffffffffffffffffffffffff1673ffffffffffffffffffffffffffffffffffffffff16815260200190815260200160002060008573ffffffffffffffffffffffffffffffffffffffff1673ffffffffffffffffffffffffffffffffffffffff16815260200190815260200160002054905082811015610845576040517f08c379a000000000000000000000000000000000000000000000000000000000815260040161083c90611ab1565b60405180910390fd5b61085961085061091c565b85858403610924565b600191505092915050565b600061087861087161091c565b8484610aef565b6001905092915050565b6000603460008473ffffffffffffffffffffffffffffffffffffffff1673ffffffffffffffffffffffffffffffffffffffff16815260200190815260200160002060008373ffffffffffffffffffffffffffffffffffffffff1673ffffffffffffffffffffffffffffffffffffffff16815260200190815260200160002054905092915050565b505050565b600081600001549050919050565b600033905090565b600073ffffffffffffffffffffffffffffffffffffffff168373ffffffffffffffffffffffffffffffffffffffff161415610994576040517f08c379a000000000000000000000000000000000000000000000000000000000815260040161098b90611a71565b60405180910390fd5b600073ffffffffffffffffffffffffffffffffffffffff168273ffffffffffffffffffffffffffffffffffffffff161415610a04576040517f08c379a00000000000000000000000000000000000000000000000000000000081526004016109fb906119d1565b60405180910390fd5b80603460008573ffffffffffffffffffffffffffffffffffffffff1673ffffffffffffffffffffffffffffffffffffffff16815260200190815260200160002060008473ffffffffffffffffffffffffffffffffffffffff1673ffffffffffffffffffffffffffffffffffffffff168152602001908152602001600020819055508173ffffffffffffffffffffffffffffffffffffffff168373ffffffffffffffffffffffffffffffffffffffff167f8c5be1e5ebec7d5bd14f71427d1e84f3dd0314c0f7b2291e5b200ac8c7c3b92583604051610ae29190611af1565b60405180910390a3505050565b600073ffffffffffffffffffffffffffffffffffffffff168373ffffffffffffffffffffffffffffffffffffffff161415610b5f576040517f08c379a0000000000000000000000000000000000000000000000000000000008152600401610b5690611a51565b60405180910390fd5b600073ffffffffffffffffffffffffffffffffffffffff168273ffffffffffffffffffffffffffffffffffffffff161415610bcf576040517f08c379a0000000000000000000000000000000000000000000000000000000008152600401610bc690611991565b60405180910390fd5b610bda83838361121f565b6000603360008573ffffffffffffffffffffffffffffffffffffffff1673ffffffffffffffffffffffffffffffffffffffff16815260200190815260200160002054905081811015610c61576040517f08c379a0000000000000000000000000000000000000000000000000000000008152600401610c58906119f1565b60405180910390fd5b818103603360008673ffffffffffffffffffffffffffffffffffffffff1673ffffffffffffffffffffffffffffffffffffffff1681526020019081526020016000208190555081603360008573ffffffffffffffffffffffffffffffffffffffff1673ffffffffffffffffffffffffffffffffffffffff1681526020019081526020016000206000828254610cf69190611b43565b925050819055508273ffffffffffffffffffffffffffffffffffffffff168473ffffffffffffffffffffffffffffffffffffffff167fddf252ad1be2c89b69c2b068fc378daa952ba7f163c4a11628f55a4df523b3ef84604051610d5a9190611af1565b60405180910390a3610d6d8484846112d9565b50505050565b600073ffffffffffffffffffffffffffffffffffffffff168273ffffffffffffffffffffffffffffffffffffffff161415610de3576040517f08c379a0000000000000000000000000000000000000000000000000000000008152600401610dda90611ad1565b60405180910390fd5b610def6000838361121f565b8060356000828254610e019190611b43565b9250508190555080603360008473ffffffffffffffffffffffffffffffffffffffff1673ffffffffffffffffffffffffffffffffffffffff1681526020019081526020016000206000828254610e579190611b43565b925050819055508173ffffffffffffffffffffffffffffffffffffffff16600073ffffffffffffffffffffffffffffffffffffffff167fddf252ad1be2c89b69c2b068fc378daa952ba7f163c4a11628f55a4df523b3ef83604051610ebc9190611af1565b60405180910390a3610ed0600083836112d9565b5050565b60008060008411610f1a576040517f08c379a0000000000000000000000000000000000000000000000000000000008152600401610f1190611a91565b60405180910390fd5b610f226112de565b841115610f64576040517f08c379a0000000000000000000000000000000000000000000000000000000008152600401610f5b90611971565b60405180910390fd5b6000610f7c85856000016112ef90919063ffffffff16565b90508360000180549050811415610f9a576000809250925050610fe9565b6001846001018281548110610fd8577f4e487b7100000000000000000000000000000000000000000000000000000000600052603260045260246000fd5b906000526020600020015492509250505b9250929050565b6000610ffc6068611415565b60006110066112de565b90507f8030e83b04d87bef53480e26263266d6ca66863aa8506aca6f2559d18aa1cb67816040516110379190611af1565b60405180910390a18091505090565b600073ffffffffffffffffffffffffffffffffffffffff168273ffffffffffffffffffffffffffffffffffffffff1614156110b6576040517f08c379a00000000000000000000000000000000000000000000000000000000081526004016110ad90611a31565b60405180910390fd5b6110c28260008361121f565b6000603360008473ffffffffffffffffffffffffffffffffffffffff1673ffffffffffffffffffffffffffffffffffffffff16815260200190815260200160002054905081811015611149576040517f08c379a0000000000000000000000000000000000000000000000000000000008152600401611140906119b1565b60405180910390fd5b818103603360008573ffffffffffffffffffffffffffffffffffffffff1673ffffffffffffffffffffffffffffffffffffffff1681526020019081526020016000208190555081603560008282546111a19190611bca565b92505081905550600073ffffffffffffffffffffffffffffffffffffffff168373ffffffffffffffffffffffffffffffffffffffff167fddf252ad1be2c89b69c2b068fc378daa952ba7f163c4a11628f55a4df523b3ef846040516112069190611af1565b60405180910390a361121a836000846112d9565b505050565b61122a838383610909565b600073ffffffffffffffffffffffffffffffffffffffff168373ffffffffffffffffffffffffffffffffffffffff161415611275576112688261142b565b61127061147e565b6112d4565b600073ffffffffffffffffffffffffffffffffffffffff168273ffffffffffffffffffffffffffffffffffffffff1614156112c0576112b38361142b565b6112bb61147e565b6112d3565b6112c98361142b565b6112d28261142b565b5b5b505050565b505050565b60006112ea606861090e565b905090565b60008083805490501415611306576000905061140f565b600080848054905090505b808210156113905760006113258383611492565b905084868281548110611361577f4e487b7100000000000000000000000000000000000000000000000000000000600052603260045260246000fd5b9060005260206000200154111561137a5780915061138a565b6001816113879190611b43565b92505b50611311565b6000821180156113ee575083856001846113aa9190611bca565b815481106113e1577f4e487b7100000000000000000000000000000000000000000000000000000000600052603260045260246000fd5b9060005260206000200154145b15611409576001826114009190611bca565b9250505061140f565b81925050505b92915050565b6001816000016000828254019250508190555050565b61147b606560008373ffffffffffffffffffffffffffffffffffffffff1673ffffffffffffffffffffffffffffffffffffffff16815260200190815260200160002061147683610654565b6114f9565b50565b611490606661148b61041f565b6114f9565b565b6000600280836114a29190611cb8565b6002856114af9190611cb8565b6114b99190611b43565b6114c39190611b99565b6002836114d09190611b99565b6002856114dd9190611b99565b6114e79190611b43565b6114f19190611b43565b905092915050565b60006115036112de565b90508061151284600001611574565b101561156f5782600001819080600181540180825580915050600190039060005260206000200160009091909190915055826001018290806001815401808255809150506001900390600052602060002001600090919091909150555b505050565b6000808280549050141561158b57600090506115e2565b816001838054905061159d9190611bca565b815481106115d4577f4e487b7100000000000000000000000000000000000000000000000000000000600052603260045260246000fd5b906000526020600020015490505b919050565b6000813590506115f6816120c9565b92915050565b60008135905061160b816120e0565b92915050565b60006020828403121561162357600080fd5b6000611631848285016115e7565b91505092915050565b6000806040838503121561164d57600080fd5b600061165b858286016115e7565b925050602061166c858286016115e7565b9150509250929050565b60008060006060848603121561168b57600080fd5b6000611699868287016115e7565b93505060206116aa868287016115e7565b92505060406116bb868287016115fc565b9150509250925092565b600080604083850312156116d857600080fd5b60006116e6858286016115e7565b92505060206116f7858286016115fc565b9150509250929050565b60006020828403121561171357600080fd5b6000611721848285016115fc565b91505092915050565b61173381611c10565b82525050565b600061174482611b27565b61174e8185611b32565b935061175e818560208601611c53565b61176781611d76565b840191505092915050565b600061177f601d83611b32565b915061178a82611d87565b602082019050919050565b60006117a2602383611b32565b91506117ad82611db0565b604082019050919050565b60006117c5602283611b32565b91506117d082611dff565b604082019050919050565b60006117e8602283611b32565b91506117f382611e4e565b604082019050919050565b600061180b602683611b32565b915061181682611e9d565b604082019050919050565b600061182e602883611b32565b915061183982611eec565b604082019050919050565b6000611851602183611b32565b915061185c82611f3b565b604082019050919050565b6000611874602583611b32565b915061187f82611f8a565b604082019050919050565b6000611897602483611b32565b91506118a282611fd9565b604082019050919050565b60006118ba601683611b32565b91506118c582612028565b602082019050919050565b60006118dd602583611b32565b91506118e882612051565b604082019050919050565b6000611900601f83611b32565b915061190b826120a0565b602082019050919050565b61191f81611c3c565b82525050565b61192e81611c46565b82525050565b6000602082019050611949600083018461172a565b92915050565b600060208201905081810360008301526119698184611739565b905092915050565b6000602082019050818103600083015261198a81611772565b9050919050565b600060208201905081810360008301526119aa81611795565b9050919050565b600060208201905081810360008301526119ca816117b8565b9050919050565b600060208201905081810360008301526119ea816117db565b9050919050565b60006020820190508181036000830152611a0a816117fe565b9050919050565b60006020820190508181036000830152611a2a81611821565b9050919050565b60006020820190508181036000830152611a4a81611844565b9050919050565b60006020820190508181036000830152611a6a81611867565b9050919050565b60006020820190508181036000830152611a8a8161188a565b9050919050565b60006020820190508181036000830152611aaa816118ad565b9050919050565b60006020820190508181036000830152611aca816118d0565b9050919050565b60006020820190508181036000830152611aea816118f3565b9050919050565b6000602082019050611b066000830184611916565b92915050565b6000602082019050611b216000830184611925565b92915050565b600081519050919050565b600082825260208201905092915050565b6000611b4e82611c3c565b9150611b5983611c3c565b9250827fffffffffffffffffffffffffffffffffffffffffffffffffffffffffffffffff03821115611b8e57611b8d611ce9565b5b828201905092915050565b6000611ba482611c3c565b9150611baf83611c3c565b925082611bbf57611bbe611d18565b5b828204905092915050565b6000611bd582611c3c565b9150611be083611c3c565b925082821015611bf357611bf2611ce9565b5b828203905092915050565b6000611c0982611c1c565b9050919050565b60008115159050919050565b600073ffffffffffffffffffffffffffffffffffffffff82169050919050565b6000819050919050565b600060ff82169050919050565b60005b83811015611c71578082015181840152602081019050611c56565b83811115611c80576000848401525b50505050565b60006002820490506001821680611c9e57607f821691505b60208210811415611cb257611cb1611d47565b5b50919050565b6000611cc382611c3c565b9150611cce83611c3c565b925082611cde57611cdd611d18565b5b828206905092915050565b7f4e487b7100000000000000000000000000000000000000000000000000000000600052601160045260246000fd5b7f4e487b7100000000000000000000000000000000000000000000000000000000600052601260045260246000fd5b7f4e487b7100000000000000000000000000000000000000000000000000000000600052602260045260246000fd5b6000601f19601f8301169050919050565b7f4552433230536e617073686f743a206e6f6e6578697374656e74206964000000600082015250565b7f45524332303a207472616e7366657220746f20746865207a65726f206164647260008201527f6573730000000000000000000000000000000000000000000000000000000000602082015250565b7f45524332303a206275726e20616d6f756e7420657863656564732062616c616e60008201527f6365000000000000000000000000000000000000000000000000000000000000602082015250565b7f45524332303a20617070726f766520746f20746865207a65726f20616464726560008201527f7373000000000000000000000000000000000000000000000000000000000000602082015250565b7f45524332303a207472616e7366657220616d6f756e742065786365656473206260008201527f616c616e63650000000000000000000000000000000000000000000000000000602082015250565b7f45524332303a207472616e7366657220616d6f756e742065786365656473206160008201527f6c6c6f77616e6365000000000000000000000000000000000000000000000000602082015250565b7f45524332303a206275726e2066726f6d20746865207a65726f2061646472657360008201527f7300000000000000000000000000000000000000000000000000000000000000602082015250565b7f45524332303a207472616e736665722066726f6d20746865207a65726f20616460008201527f6472657373000000000000000000000000000000000000000000000000000000602082015250565b7f45524332303a20617070726f76652066726f6d20746865207a65726f2061646460008201527f7265737300000000000000000000000000000000000000000000000000000000602082015250565b7f4552433230536e617073686f743a206964206973203000000000000000000000600082015250565b7f45524332303a2064656372656173656420616c6c6f77616e63652062656c6f7760008201527f207a65726f000000000000000000000000000000000000000000000000000000602082015250565b7f45524332303a206d696e7420746f20746865207a65726f206164647265737300600082015250565b6120d281611bfe565b81146120dd57600080fd5b50565b6120e981611c3c565b81146120f457600080fd5b5056fea264697066735822122057c26ddce9e80755e854d08af15f50dce260d9f593583c6116e2271a22491b4364736f6c63430008040033",
  "linkReferences": {},
  "deployedLinkReferences": {}
}