{
  "_format": "hh-sol-artifact-1",
  "contractName": "ERC20PresetMinterPauserUpgradeableWithInit",
  "sourceName": "contracts/src/OpenZeppelin/upgradeable/mocks/WithInit.sol",
  "abi": [
    {
      "inputs": [
        {
          "internalType": "string",
          "name": "name",
          "type": "string"
        },
        {
          "internalType": "string",
          "name": "symbol",
          "type": "string"
        }
      ],
      "stateMutability": "payable",
      "type": "constructor"
    },
    {
      "anonymous": false,
      "inputs": [
        {
          "indexed": true,
          "internalType": "address",
          "name": "owner",
          "type": "address"
        },
        {
          "indexed": true,
          "internalType": "address",
          "name": "spender",
          "type": "address"
        },
        {
          "indexed": false,
          "internalType": "uint256",
          "name": "value",
          "type": "uint256"
        }
      ],
      "name": "Approval",
      "type": "event"
    },
    {
      "anonymous": false,
      "inputs": [
        {
          "indexed": false,
          "internalType": "address",
          "name": "account",
          "type": "address"
        }
      ],
      "name": "Paused",
      "type": "event"
    },
    {
      "anonymous": false,
      "inputs": [
        {
          "indexed": true,
          "internalType": "bytes32",
          "name": "role",
          "type": "bytes32"
        },
        {
          "indexed": true,
          "internalType": "bytes32",
          "name": "previousAdminRole",
          "type": "bytes32"
        },
        {
          "indexed": true,
          "internalType": "bytes32",
          "name": "newAdminRole",
          "type": "bytes32"
        }
      ],
      "name": "RoleAdminChanged",
      "type": "event"
    },
    {
      "anonymous": false,
      "inputs": [
        {
          "indexed": true,
          "internalType": "bytes32",
          "name": "role",
          "type": "bytes32"
        },
        {
          "indexed": true,
          "internalType": "address",
          "name": "account",
          "type": "address"
        },
        {
          "indexed": true,
          "internalType": "address",
          "name": "sender",
          "type": "address"
        }
      ],
      "name": "RoleGranted",
      "type": "event"
    },
    {
      "anonymous": false,
      "inputs": [
        {
          "indexed": true,
          "internalType": "bytes32",
          "name": "role",
          "type": "bytes32"
        },
        {
          "indexed": true,
          "internalType": "address",
          "name": "account",
          "type": "address"
        },
        {
          "indexed": true,
          "internalType": "address",
          "name": "sender",
          "type": "address"
        }
      ],
      "name": "RoleRevoked",
      "type": "event"
    },
    {
      "anonymous": false,
      "inputs": [
        {
          "indexed": true,
          "internalType": "address",
          "name": "from",
          "type": "address"
        },
        {
          "indexed": true,
          "internalType": "address",
          "name": "to",
          "type": "address"
        },
        {
          "indexed": false,
          "internalType": "uint256",
          "name": "value",
          "type": "uint256"
        }
      ],
      "name": "Transfer",
      "type": "event"
    },
    {
      "anonymous": false,
      "inputs": [
        {
          "indexed": false,
          "internalType": "address",
          "name": "account",
          "type": "address"
        }
      ],
      "name": "Unpaused",
      "type": "event"
    },
    {
      "inputs": [],
      "name": "DEFAULT_ADMIN_ROLE",
      "outputs": [
        {
          "internalType": "bytes32",
          "name": "",
          "type": "bytes32"
        }
      ],
      "stateMutability": "view",
      "type": "function"
    },
    {
      "inputs": [],
      "name": "MINTER_ROLE",
      "outputs": [
        {
          "internalType": "bytes32",
          "name": "",
          "type": "bytes32"
        }
      ],
      "stateMutability": "view",
      "type": "function"
    },
    {
      "inputs": [],
      "name": "PAUSER_ROLE",
      "outputs": [
        {
          "internalType": "bytes32",
          "name": "",
          "type": "bytes32"
        }
      ],
      "stateMutability": "view",
      "type": "function"
    },
    {
      "inputs": [
        {
          "internalType": "address",
          "name": "owner",
          "type": "address"
        },
        {
          "internalType": "address",
          "name": "spender",
          "type": "address"
        }
      ],
      "name": "allowance",
      "outputs": [
        {
          "internalType": "uint256",
          "name": "",
          "type": "uint256"
        }
      ],
      "stateMutability": "view",
      "type": "function"
    },
    {
      "inputs": [
        {
          "internalType": "address",
          "name": "spender",
          "type": "address"
        },
        {
          "internalType": "uint256",
          "name": "amount",
          "type": "uint256"
        }
      ],
      "name": "approve",
      "outputs": [
        {
          "internalType": "bool",
          "name": "",
          "type": "bool"
        }
      ],
      "stateMutability": "nonpayable",
      "type": "function"
    },
    {
      "inputs": [
        {
          "internalType": "address",
          "name": "account",
          "type": "address"
        }
      ],
      "name": "balanceOf",
      "outputs": [
        {
          "internalType": "uint256",
          "name": "",
          "type": "uint256"
        }
      ],
      "stateMutability": "view",
      "type": "function"
    },
    {
      "inputs": [
        {
          "internalType": "uint256",
          "name": "amount",
          "type": "uint256"
        }
      ],
      "name": "burn",
      "outputs": [],
      "stateMutability": "nonpayable",
      "type": "function"
    },
    {
      "inputs": [
        {
          "internalType": "address",
          "name": "account",
          "type": "address"
        },
        {
          "internalType": "uint256",
          "name": "amount",
          "type": "uint256"
        }
      ],
      "name": "burnFrom",
      "outputs": [],
      "stateMutability": "nonpayable",
      "type": "function"
    },
    {
      "inputs": [],
      "name": "decimals",
      "outputs": [
        {
          "internalType": "uint8",
          "name": "",
          "type": "uint8"
        }
      ],
      "stateMutability": "view",
      "type": "function"
    },
    {
      "inputs": [
        {
          "internalType": "address",
          "name": "spender",
          "type": "address"
        },
        {
          "internalType": "uint256",
          "name": "subtractedValue",
          "type": "uint256"
        }
      ],
      "name": "decreaseAllowance",
      "outputs": [
        {
          "internalType": "bool",
          "name": "",
          "type": "bool"
        }
      ],
      "stateMutability": "nonpayable",
      "type": "function"
    },
    {
      "inputs": [
        {
          "internalType": "bytes32",
          "name": "role",
          "type": "bytes32"
        }
      ],
      "name": "getRoleAdmin",
      "outputs": [
        {
          "internalType": "bytes32",
          "name": "",
          "type": "bytes32"
        }
      ],
      "stateMutability": "view",
      "type": "function"
    },
    {
      "inputs": [
        {
          "internalType": "bytes32",
          "name": "role",
          "type": "bytes32"
        },
        {
          "internalType": "uint256",
          "name": "index",
          "type": "uint256"
        }
      ],
      "name": "getRoleMember",
      "outputs": [
        {
          "internalType": "address",
          "name": "",
          "type": "address"
        }
      ],
      "stateMutability": "view",
      "type": "function"
    },
    {
      "inputs": [
        {
          "internalType": "bytes32",
          "name": "role",
          "type": "bytes32"
        }
      ],
      "name": "getRoleMemberCount",
      "outputs": [
        {
          "internalType": "uint256",
          "name": "",
          "type": "uint256"
        }
      ],
      "stateMutability": "view",
      "type": "function"
    },
    {
      "inputs": [
        {
          "internalType": "bytes32",
          "name": "role",
          "type": "bytes32"
        },
        {
          "internalType": "address",
          "name": "account",
          "type": "address"
        }
      ],
      "name": "grantRole",
      "outputs": [],
      "stateMutability": "nonpayable",
      "type": "function"
    },
    {
      "inputs": [
        {
          "internalType": "bytes32",
          "name": "role",
          "type": "bytes32"
        },
        {
          "internalType": "address",
          "name": "account",
          "type": "address"
        }
      ],
      "name": "hasRole",
      "outputs": [
        {
          "internalType": "bool",
          "name": "",
          "type": "bool"
        }
      ],
      "stateMutability": "view",
      "type": "function"
    },
    {
      "inputs": [
        {
          "internalType": "address",
          "name": "spender",
          "type": "address"
        },
        {
          "internalType": "uint256",
          "name": "addedValue",
          "type": "uint256"
        }
      ],
      "name": "increaseAllowance",
      "outputs": [
        {
          "internalType": "bool",
          "name": "",
          "type": "bool"
        }
      ],
      "stateMutability": "nonpayable",
      "type": "function"
    },
    {
      "inputs": [
        {
          "internalType": "string",
          "name": "name",
          "type": "string"
        },
        {
          "internalType": "string",
          "name": "symbol",
          "type": "string"
        }
      ],
      "name": "initialize",
      "outputs": [],
      "stateMutability": "nonpayable",
      "type": "function"
    },
    {
      "inputs": [
        {
          "internalType": "address",
          "name": "to",
          "type": "address"
        },
        {
          "internalType": "uint256",
          "name": "amount",
          "type": "uint256"
        }
      ],
      "name": "mint",
      "outputs": [],
      "stateMutability": "nonpayable",
      "type": "function"
    },
    {
      "inputs": [],
      "name": "name",
      "outputs": [
        {
          "internalType": "string",
          "name": "",
          "type": "string"
        }
      ],
      "stateMutability": "view",
      "type": "function"
    },
    {
      "inputs": [],
      "name": "pause",
      "outputs": [],
      "stateMutability": "nonpayable",
      "type": "function"
    },
    {
      "inputs": [],
      "name": "paused",
      "outputs": [
        {
          "internalType": "bool",
          "name": "",
          "type": "bool"
        }
      ],
      "stateMutability": "view",
      "type": "function"
    },
    {
      "inputs": [
        {
          "internalType": "bytes32",
          "name": "role",
          "type": "bytes32"
        },
        {
          "internalType": "address",
          "name": "account",
          "type": "address"
        }
      ],
      "name": "renounceRole",
      "outputs": [],
      "stateMutability": "nonpayable",
      "type": "function"
    },
    {
      "inputs": [
        {
          "internalType": "bytes32",
          "name": "role",
          "type": "bytes32"
        },
        {
          "internalType": "address",
          "name": "account",
          "type": "address"
        }
      ],
      "name": "revokeRole",
      "outputs": [],
      "stateMutability": "nonpayable",
      "type": "function"
    },
    {
      "inputs": [
        {
          "internalType": "bytes4",
          "name": "interfaceId",
          "type": "bytes4"
        }
      ],
      "name": "supportsInterface",
      "outputs": [
        {
          "internalType": "bool",
          "name": "",
          "type": "bool"
        }
      ],
      "stateMutability": "view",
      "type": "function"
    },
    {
      "inputs": [],
      "name": "symbol",
      "outputs": [
        {
          "internalType": "string",
          "name": "",
          "type": "string"
        }
      ],
      "stateMutability": "view",
      "type": "function"
    },
    {
      "inputs": [],
      "name": "totalSupply",
      "outputs": [
        {
          "internalType": "uint256",
          "name": "",
          "type": "uint256"
        }
      ],
      "stateMutability": "view",
      "type": "function"
    },
    {
      "inputs": [
        {
          "internalType": "address",
          "name": "recipient",
          "type": "address"
        },
        {
          "internalType": "uint256",
          "name": "amount",
          "type": "uint256"
        }
      ],
      "name": "transfer",
      "outputs": [
        {
          "internalType": "bool",
          "name": "",
          "type": "bool"
        }
      ],
      "stateMutability": "nonpayable",
      "type": "function"
    },
    {
      "inputs": [
        {
          "internalType": "address",
          "name": "sender",
          "type": "address"
        },
        {
          "internalType": "address",
          "name": "recipient",
          "type": "address"
        },
        {
          "internalType": "uint256",
          "name": "amount",
          "type": "uint256"
        }
      ],
      "name": "transferFrom",
      "outputs": [
        {
          "internalType": "bool",
          "name": "",
          "type": "bool"
        }
      ],
      "stateMutability": "nonpayable",
      "type": "function"
    },
    {
      "inputs": [],
      "name": "unpause",
      "outputs": [],
      "stateMutability": "nonpayable",
      "type": "function"
    }
  ],
  "bytecode": "0x60806040526040516200529a3803806200529a833981810160405281019062000029919062000e41565b6200003b82826200004360201b60201c565b5050620010cd565b600060019054906101000a900460ff16806200006a575060008054906101000a900460ff16155b620000ac576040517f08c379a0000000000000000000000000000000000000000000000000000000008152600401620000a39062000edb565b60405180910390fd5b60008060019054906101000a900460ff161590508015620000fd576001600060016101000a81548160ff02191690831515021790555060016000806101000a81548160ff0219169083151502179055505b6200010d620001b860201b60201c565b6200011d6200029760201b60201c565b6200012d6200037660201b60201c565b6200013d6200045560201b60201c565b6200014f83836200053460201b60201c565b6200015f6200064760201b60201c565b6200016f6200072660201b60201c565b6200017f6200082160201b60201c565b6200019183836200090060201b60201c565b8015620001b35760008060016101000a81548160ff0219169083151502179055505b505050565b600060019054906101000a900460ff1680620001df575060008054906101000a900460ff16155b62000221576040517f08c379a0000000000000000000000000000000000000000000000000000000008152600401620002189062000edb565b60405180910390fd5b60008060019054906101000a900460ff16159050801562000272576001600060016101000a81548160ff02191690831515021790555060016000806101000a81548160ff0219169083151502179055505b8015620002945760008060016101000a81548160ff0219169083151502179055505b50565b600060019054906101000a900460ff1680620002be575060008054906101000a900460ff16155b62000300576040517f08c379a0000000000000000000000000000000000000000000000000000000008152600401620002f79062000edb565b60405180910390fd5b60008060019054906101000a900460ff16159050801562000351576001600060016101000a81548160ff02191690831515021790555060016000806101000a81548160ff0219169083151502179055505b8015620003735760008060016101000a81548160ff0219169083151502179055505b50565b600060019054906101000a900460ff16806200039d575060008054906101000a900460ff16155b620003df576040517f08c379a0000000000000000000000000000000000000000000000000000000008152600401620003d69062000edb565b60405180910390fd5b60008060019054906101000a900460ff16159050801562000430576001600060016101000a81548160ff02191690831515021790555060016000806101000a81548160ff0219169083151502179055505b8015620004525760008060016101000a81548160ff0219169083151502179055505b50565b600060019054906101000a900460ff16806200047c575060008054906101000a900460ff16155b620004be576040517f08c379a0000000000000000000000000000000000000000000000000000000008152600401620004b59062000edb565b60405180910390fd5b60008060019054906101000a900460ff1615905080156200050f576001600060016101000a81548160ff02191690831515021790555060016000806101000a81548160ff0219169083151502179055505b8015620005315760008060016101000a81548160ff0219169083151502179055505b50565b600060019054906101000a900460ff16806200055b575060008054906101000a900460ff16155b6200059d576040517f08c379a0000000000000000000000000000000000000000000000000000000008152600401620005949062000edb565b60405180910390fd5b60008060019054906101000a900460ff161590508015620005ee576001600060016101000a81548160ff02191690831515021790555060016000806101000a81548160ff0219169083151502179055505b8260cc90805190602001906200060692919062000d1f565b508160cd90805190602001906200061f92919062000d1f565b508015620006425760008060016101000a81548160ff0219169083151502179055505b505050565b600060019054906101000a900460ff16806200066e575060008054906101000a900460ff16155b620006b0576040517f08c379a0000000000000000000000000000000000000000000000000000000008152600401620006a79062000edb565b60405180910390fd5b60008060019054906101000a900460ff16159050801562000701576001600060016101000a81548160ff02191690831515021790555060016000806101000a81548160ff0219169083151502179055505b8015620007235760008060016101000a81548160ff0219169083151502179055505b50565b600060019054906101000a900460ff16806200074d575060008054906101000a900460ff16155b6200078f576040517f08c379a0000000000000000000000000000000000000000000000000000000008152600401620007869062000edb565b60405180910390fd5b60008060019054906101000a900460ff161590508015620007e0576001600060016101000a81548160ff02191690831515021790555060016000806101000a81548160ff0219169083151502179055505b600061012d60006101000a81548160ff02191690831515021790555080156200081e5760008060016101000a81548160ff0219169083151502179055505b50565b600060019054906101000a900460ff168062000848575060008054906101000a900460ff16155b6200088a576040517f08c379a0000000000000000000000000000000000000000000000000000000008152600401620008819062000edb565b60405180910390fd5b60008060019054906101000a900460ff161590508015620008db576001600060016101000a81548160ff02191690831515021790555060016000806101000a81548160ff0219169083151502179055505b8015620008fd5760008060016101000a81548160ff0219169083151502179055505b50565b600060019054906101000a900460ff168062000927575060008054906101000a900460ff16155b62000969576040517f08c379a0000000000000000000000000000000000000000000000000000000008152600401620009609062000edb565b60405180910390fd5b60008060019054906101000a900460ff161590508015620009ba576001600060016101000a81548160ff02191690831515021790555060016000806101000a81548160ff0219169083151502179055505b620009de6000801b620009d262000a8760201b60201c565b62000a8f60201b60201c565b62000a1f7f9f2df0fed2c77648de5860a4cc508cd0818c85b8b8a1ab4ceeef8d981c8956a662000a1362000a8760201b60201c565b62000a8f60201b60201c565b62000a607f65d7a28e3265b37a6474929f336521b332c1681b933f6cb9f3376673440d862a62000a5462000a8760201b60201c565b62000a8f60201b60201c565b801562000a825760008060016101000a81548160ff0219169083151502179055505b505050565b600033905090565b62000aa6828262000ad760201b62000fef1760201c565b62000ad2816097600085815260200190815260200160002062000aed60201b62000ffd1790919060201c565b505050565b62000ae9828262000b2560201b60201c565b5050565b600062000b1d836000018373ffffffffffffffffffffffffffffffffffffffff1660001b62000c1760201b60201c565b905092915050565b62000b37828262000c9160201b60201c565b62000c135760016065600084815260200190815260200160002060000160008373ffffffffffffffffffffffffffffffffffffffff1673ffffffffffffffffffffffffffffffffffffffff16815260200190815260200160002060006101000a81548160ff02191690831515021790555062000bb862000a8760201b60201c565b73ffffffffffffffffffffffffffffffffffffffff168173ffffffffffffffffffffffffffffffffffffffff16837f2f8788117e7eff1d82e926ec794901d17c78024a50270940304540a733656f0d60405160405180910390a45b5050565b600062000c2b838362000cfc60201b60201c565b62000c8657826000018290806001815401808255809150506001900390600052602060002001600090919091909150558260000180549050836001016000848152602001908152602001600020819055506001905062000c8b565b600090505b92915050565b60006065600084815260200190815260200160002060000160008373ffffffffffffffffffffffffffffffffffffffff1673ffffffffffffffffffffffffffffffffffffffff16815260200190815260200160002060009054906101000a900460ff16905092915050565b600080836001016000848152602001908152602001600020541415905092915050565b82805462000d2d9062000fa3565b90600052602060002090601f01602090048101928262000d51576000855562000d9d565b82601f1062000d6c57805160ff191683800117855562000d9d565b8280016001018555821562000d9d579182015b8281111562000d9c57825182559160200191906001019062000d7f565b5b50905062000dac919062000db0565b5090565b5b8082111562000dcb57600081600090555060010162000db1565b5090565b600062000de662000de08462000f26565b62000efd565b90508281526020810184848401111562000dff57600080fd5b62000e0c84828562000f6d565b509392505050565b600082601f83011262000e2657600080fd5b815162000e3884826020860162000dcf565b91505092915050565b6000806040838503121562000e5557600080fd5b600083015167ffffffffffffffff81111562000e7057600080fd5b62000e7e8582860162000e14565b925050602083015167ffffffffffffffff81111562000e9c57600080fd5b62000eaa8582860162000e14565b9150509250929050565b600062000ec3602e8362000f5c565b915062000ed0826200107e565b604082019050919050565b6000602082019050818103600083015262000ef68162000eb4565b9050919050565b600062000f0962000f1c565b905062000f17828262000fd9565b919050565b6000604051905090565b600067ffffffffffffffff82111562000f445762000f436200103e565b5b62000f4f826200106d565b9050602081019050919050565b600082825260208201905092915050565b60005b8381101562000f8d57808201518184015260208101905062000f70565b8381111562000f9d576000848401525b50505050565b6000600282049050600182168062000fbc57607f821691505b6020821081141562000fd35762000fd26200100f565b5b50919050565b62000fe4826200106d565b810181811067ffffffffffffffff821117156200100657620010056200103e565b5b80604052505050565b7f4e487b7100000000000000000000000000000000000000000000000000000000600052602260045260246000fd5b7f4e487b7100000000000000000000000000000000000000000000000000000000600052604160045260246000fd5b6000601f19601f8301169050919050565b7f496e697469616c697a61626c653a20636f6e747261637420697320616c72656160008201527f647920696e697469616c697a6564000000000000000000000000000000000000602082015250565b6141bd80620010dd6000396000f3fe608060405234801561001057600080fd5b50600436106101cf5760003560e01c80635c975abb11610104578063a217fddf116100a2578063d539139311610071578063d539139314610554578063d547741f14610572578063dd62ed3e1461058e578063e63ab1e9146105be576101cf565b8063a217fddf146104a6578063a457c2d7146104c4578063a9059cbb146104f4578063ca15c87314610524576101cf565b80638456cb59116100de5780638456cb591461041e5780639010d07c1461042857806391d148541461045857806395d89b4114610488576101cf565b80635c975abb146103b457806370a08231146103d257806379cc679014610402576101cf565b8063313ce567116101715780633f4ba83a1161014b5780633f4ba83a1461035657806340c10f191461036057806342966c681461037c5780634cd88b7614610398576101cf565b8063313ce567146102ec57806336568abe1461030a5780633950935114610326576101cf565b806318160ddd116101ad57806318160ddd1461025257806323b872dd14610270578063248a9ca3146102a05780632f2ff15d146102d0576101cf565b806301ffc9a7146101d457806306fdde0314610204578063095ea7b314610222575b600080fd5b6101ee60048036038101906101e99190613014565b6105dc565b6040516101fb91906134de565b60405180910390f35b61020c610656565b6040516102199190613514565b60405180910390f35b61023c60048036038101906102379190612f37565b6106e8565b60405161024991906134de565b60405180910390f35b61025a610706565b60405161026791906137b6565b60405180910390f35b61028a60048036038101906102859190612ee8565b610710565b60405161029791906134de565b60405180910390f35b6102ba60048036038101906102b59190612f73565b610808565b6040516102c791906134f9565b60405180910390f35b6102ea60048036038101906102e59190612f9c565b610828565b005b6102f461085c565b60405161030191906137d1565b60405180910390f35b610324600480360381019061031f9190612f9c565b610865565b005b610340600480360381019061033b9190612f37565b610899565b60405161034d91906134de565b60405180910390f35b61035e610945565b005b61037a60048036038101906103759190612f37565b6109bf565b005b610396600480360381019061039191906130a9565b610a3d565b005b6103b260048036038101906103ad919061303d565b610a51565b005b6103bc610b36565b6040516103c991906134de565b60405180910390f35b6103ec60048036038101906103e79190612e83565b610b4e565b6040516103f991906137b6565b60405180910390f35b61041c60048036038101906104179190612f37565b610b97565b005b610426610c12565b005b610442600480360381019061043d9190612fd8565b610c8c565b60405161044f91906134c3565b60405180910390f35b610472600480360381019061046d9190612f9c565b610cbb565b60405161047f91906134de565b60405180910390f35b610490610d26565b60405161049d9190613514565b60405180910390f35b6104ae610db8565b6040516104bb91906134f9565b60405180910390f35b6104de60048036038101906104d99190612f37565b610dbf565b6040516104eb91906134de565b60405180910390f35b61050e60048036038101906105099190612f37565b610eaa565b60405161051b91906134de565b60405180910390f35b61053e60048036038101906105399190612f73565b610ec8565b60405161054b91906137b6565b60405180910390f35b61055c610eec565b60405161056991906134f9565b60405180910390f35b61058c60048036038101906105879190612f9c565b610f10565b005b6105a860048036038101906105a39190612eac565b610f44565b6040516105b591906137b6565b60405180910390f35b6105c6610fcb565b6040516105d391906134f9565b60405180910390f35b60007f5a05180f000000000000000000000000000000000000000000000000000000007bffffffffffffffffffffffffffffffffffffffffffffffffffffffff1916827bffffffffffffffffffffffffffffffffffffffffffffffffffffffff1916148061064f575061064e8261102d565b5b9050919050565b606060cc805461066590613a44565b80601f016020809104026020016040519081016040528092919081815260200182805461069190613a44565b80156106de5780601f106106b3576101008083540402835291602001916106de565b820191906000526020600020905b8154815290600101906020018083116106c157829003601f168201915b5050505050905090565b60006106fc6106f56110a7565b84846110af565b6001905092915050565b600060cb54905090565b600061071d84848461127a565b600060ca60008673ffffffffffffffffffffffffffffffffffffffff1673ffffffffffffffffffffffffffffffffffffffff16815260200190815260200160002060006107686110a7565b73ffffffffffffffffffffffffffffffffffffffff1673ffffffffffffffffffffffffffffffffffffffff168152602001908152602001600020549050828110156107e8576040517f08c379a00000000000000000000000000000000000000000000000000000000081526004016107df90613656565b60405180910390fd5b6107fc856107f46110a7565b8584036110af565b60019150509392505050565b600060656000838152602001908152602001600020600101549050919050565b61083282826114fe565b6108578160976000858152602001908152602001600020610ffd90919063ffffffff16565b505050565b60006012905090565b61086f8282611527565b61089481609760008581526020019081526020016000206115aa90919063ffffffff16565b505050565b600061093b6108a66110a7565b848460ca60006108b46110a7565b73ffffffffffffffffffffffffffffffffffffffff1673ffffffffffffffffffffffffffffffffffffffff16815260200190815260200160002060008873ffffffffffffffffffffffffffffffffffffffff1673ffffffffffffffffffffffffffffffffffffffff168152602001908152602001600020546109369190613869565b6110af565b6001905092915050565b6109767f65d7a28e3265b37a6474929f336521b332c1681b933f6cb9f3376673440d862a6109716110a7565b610cbb565b6109b5576040517f08c379a00000000000000000000000000000000000000000000000000000000081526004016109ac906135b6565b60405180910390fd5b6109bd6115da565b565b6109f07f9f2df0fed2c77648de5860a4cc508cd0818c85b8b8a1ab4ceeef8d981c8956a66109eb6110a7565b610cbb565b610a2f576040517f08c379a0000000000000000000000000000000000000000000000000000000008152600401610a2690613676565b60405180910390fd5b610a39828261167d565b5050565b610a4e610a486110a7565b826117de565b50565b600060019054906101000a900460ff1680610a77575060008054906101000a900460ff16155b610ab6576040517f08c379a0000000000000000000000000000000000000000000000000000000008152600401610aad90613636565b60405180910390fd5b60008060019054906101000a900460ff161590508015610b06576001600060016101000a81548160ff02191690831515021790555060016000806101000a81548160ff0219169083151502179055505b610b1083836119b7565b8015610b315760008060016101000a81548160ff0219169083151502179055505b505050565b600061012d60009054906101000a900460ff16905090565b600060c960008373ffffffffffffffffffffffffffffffffffffffff1673ffffffffffffffffffffffffffffffffffffffff168152602001908152602001600020549050919050565b6000610baa83610ba56110a7565b610f44565b905081811015610bef576040517f08c379a0000000000000000000000000000000000000000000000000000000008152600401610be690613696565b60405180910390fd5b610c0383610bfb6110a7565b8484036110af565b610c0d83836117de565b505050565b610c437f65d7a28e3265b37a6474929f336521b332c1681b933f6cb9f3376673440d862a610c3e6110a7565b610cbb565b610c82576040517f08c379a0000000000000000000000000000000000000000000000000000000008152600401610c7990613716565b60405180910390fd5b610c8a611ade565b565b6000610cb38260976000868152602001908152602001600020611b8290919063ffffffff16565b905092915050565b60006065600084815260200190815260200160002060000160008373ffffffffffffffffffffffffffffffffffffffff1673ffffffffffffffffffffffffffffffffffffffff16815260200190815260200160002060009054906101000a900460ff16905092915050565b606060cd8054610d3590613a44565b80601f0160208091040260200160405190810160405280929190818152602001828054610d6190613a44565b8015610dae5780601f10610d8357610100808354040283529160200191610dae565b820191906000526020600020905b815481529060010190602001808311610d9157829003601f168201915b5050505050905090565b6000801b81565b60008060ca6000610dce6110a7565b73ffffffffffffffffffffffffffffffffffffffff1673ffffffffffffffffffffffffffffffffffffffff16815260200190815260200160002060008573ffffffffffffffffffffffffffffffffffffffff1673ffffffffffffffffffffffffffffffffffffffff16815260200190815260200160002054905082811015610e8b576040517f08c379a0000000000000000000000000000000000000000000000000000000008152600401610e8290613736565b60405180910390fd5b610e9f610e966110a7565b858584036110af565b600191505092915050565b6000610ebe610eb76110a7565b848461127a565b6001905092915050565b6000610ee560976000848152602001908152602001600020611b9c565b9050919050565b7f9f2df0fed2c77648de5860a4cc508cd0818c85b8b8a1ab4ceeef8d981c8956a681565b610f1a8282611bb1565b610f3f81609760008581526020019081526020016000206115aa90919063ffffffff16565b505050565b600060ca60008473ffffffffffffffffffffffffffffffffffffffff1673ffffffffffffffffffffffffffffffffffffffff16815260200190815260200160002060008373ffffffffffffffffffffffffffffffffffffffff1673ffffffffffffffffffffffffffffffffffffffff16815260200190815260200160002054905092915050565b7f65d7a28e3265b37a6474929f336521b332c1681b933f6cb9f3376673440d862a81565b610ff98282611bda565b5050565b6000611025836000018373ffffffffffffffffffffffffffffffffffffffff1660001b611cbb565b905092915050565b60007f7965db0b000000000000000000000000000000000000000000000000000000007bffffffffffffffffffffffffffffffffffffffffffffffffffffffff1916827bffffffffffffffffffffffffffffffffffffffffffffffffffffffff191614806110a0575061109f82611d2b565b5b9050919050565b600033905090565b600073ffffffffffffffffffffffffffffffffffffffff168373ffffffffffffffffffffffffffffffffffffffff16141561111f576040517f08c379a0000000000000000000000000000000000000000000000000000000008152600401611116906136f6565b60405180910390fd5b600073ffffffffffffffffffffffffffffffffffffffff168273ffffffffffffffffffffffffffffffffffffffff16141561118f576040517f08c379a0000000000000000000000000000000000000000000000000000000008152600401611186906135d6565b60405180910390fd5b8060ca60008573ffffffffffffffffffffffffffffffffffffffff1673ffffffffffffffffffffffffffffffffffffffff16815260200190815260200160002060008473ffffffffffffffffffffffffffffffffffffffff1673ffffffffffffffffffffffffffffffffffffffff168152602001908152602001600020819055508173ffffffffffffffffffffffffffffffffffffffff168373ffffffffffffffffffffffffffffffffffffffff167f8c5be1e5ebec7d5bd14f71427d1e84f3dd0314c0f7b2291e5b200ac8c7c3b9258360405161126d91906137b6565b60405180910390a3505050565b600073ffffffffffffffffffffffffffffffffffffffff168373ffffffffffffffffffffffffffffffffffffffff1614156112ea576040517f08c379a00000000000000000000000000000000000000000000000000000000081526004016112e1906136d6565b60405180910390fd5b600073ffffffffffffffffffffffffffffffffffffffff168273ffffffffffffffffffffffffffffffffffffffff16141561135a576040517f08c379a000000000000000000000000000000000000000000000000000000000815260040161135190613556565b60405180910390fd5b611365838383611d95565b600060c960008573ffffffffffffffffffffffffffffffffffffffff1673ffffffffffffffffffffffffffffffffffffffff168152602001908152602001600020549050818110156113ec576040517f08c379a00000000000000000000000000000000000000000000000000000000081526004016113e3906135f6565b60405180910390fd5b81810360c960008673ffffffffffffffffffffffffffffffffffffffff1673ffffffffffffffffffffffffffffffffffffffff168152602001908152602001600020819055508160c960008573ffffffffffffffffffffffffffffffffffffffff1673ffffffffffffffffffffffffffffffffffffffff16815260200190815260200160002060008282546114819190613869565b925050819055508273ffffffffffffffffffffffffffffffffffffffff168473ffffffffffffffffffffffffffffffffffffffff167fddf252ad1be2c89b69c2b068fc378daa952ba7f163c4a11628f55a4df523b3ef846040516114e591906137b6565b60405180910390a36114f8848484611da5565b50505050565b61150782610808565b611518816115136110a7565b611daa565b6115228383611bda565b505050565b61152f6110a7565b73ffffffffffffffffffffffffffffffffffffffff168173ffffffffffffffffffffffffffffffffffffffff161461159c576040517f08c379a000000000000000000000000000000000000000000000000000000000815260040161159390613756565b60405180910390fd5b6115a68282611e47565b5050565b60006115d2836000018373ffffffffffffffffffffffffffffffffffffffff1660001b611f29565b905092915050565b6115e2610b36565b611621576040517f08c379a000000000000000000000000000000000000000000000000000000000815260040161161890613576565b60405180910390fd5b600061012d60006101000a81548160ff0219169083151502179055507f5db9ee0a495bf2e6ff9c91a7834c1ba4fdd244a5e8aa4e537bd38aeae4b073aa6116666110a7565b60405161167391906134c3565b60405180910390a1565b600073ffffffffffffffffffffffffffffffffffffffff168273ffffffffffffffffffffffffffffffffffffffff1614156116ed576040517f08c379a00000000000000000000000000000000000000000000000000000000081526004016116e490613776565b60405180910390fd5b6116f960008383611d95565b8060cb600082825461170b9190613869565b925050819055508060c960008473ffffffffffffffffffffffffffffffffffffffff1673ffffffffffffffffffffffffffffffffffffffff16815260200190815260200160002060008282546117619190613869565b925050819055508173ffffffffffffffffffffffffffffffffffffffff16600073ffffffffffffffffffffffffffffffffffffffff167fddf252ad1be2c89b69c2b068fc378daa952ba7f163c4a11628f55a4df523b3ef836040516117c691906137b6565b60405180910390a36117da60008383611da5565b5050565b600073ffffffffffffffffffffffffffffffffffffffff168273ffffffffffffffffffffffffffffffffffffffff16141561184e576040517f08c379a0000000000000000000000000000000000000000000000000000000008152600401611845906136b6565b60405180910390fd5b61185a82600083611d95565b600060c960008473ffffffffffffffffffffffffffffffffffffffff1673ffffffffffffffffffffffffffffffffffffffff168152602001908152602001600020549050818110156118e1576040517f08c379a00000000000000000000000000000000000000000000000000000000081526004016118d890613596565b60405180910390fd5b81810360c960008573ffffffffffffffffffffffffffffffffffffffff1673ffffffffffffffffffffffffffffffffffffffff168152602001908152602001600020819055508160cb60008282546119399190613919565b92505081905550600073ffffffffffffffffffffffffffffffffffffffff168373ffffffffffffffffffffffffffffffffffffffff167fddf252ad1be2c89b69c2b068fc378daa952ba7f163c4a11628f55a4df523b3ef8460405161199e91906137b6565b60405180910390a36119b283600084611da5565b505050565b600060019054906101000a900460ff16806119dd575060008054906101000a900460ff16155b611a1c576040517f08c379a0000000000000000000000000000000000000000000000000000000008152600401611a1390613636565b60405180910390fd5b60008060019054906101000a900460ff161590508015611a6c576001600060016101000a81548160ff02191690831515021790555060016000806101000a81548160ff0219169083151502179055505b611a746120af565b611a7c612188565b611a84612261565b611a8c61233a565b611a968383612413565b611a9e61251c565b611aa66125f5565b611aae6126ea565b611ab883836127c3565b8015611ad95760008060016101000a81548160ff0219169083151502179055505b505050565b611ae6610b36565b15611b26576040517f08c379a0000000000000000000000000000000000000000000000000000000008152600401611b1d90613616565b60405180910390fd5b600161012d60006101000a81548160ff0219169083151502179055507f62e78cea01bee320cd4e420270b5ea74000d11b0c9f74754ebdbfc544b05a258611b6b6110a7565b604051611b7891906134c3565b60405180910390a1565b6000611b918360000183612914565b60001c905092915050565b6000611baa82600001612965565b9050919050565b611bba82610808565b611bcb81611bc66110a7565b611daa565b611bd58383611e47565b505050565b611be48282610cbb565b611cb75760016065600084815260200190815260200160002060000160008373ffffffffffffffffffffffffffffffffffffffff1673ffffffffffffffffffffffffffffffffffffffff16815260200190815260200160002060006101000a81548160ff021916908315150217905550611c5c6110a7565b73ffffffffffffffffffffffffffffffffffffffff168173ffffffffffffffffffffffffffffffffffffffff16837f2f8788117e7eff1d82e926ec794901d17c78024a50270940304540a733656f0d60405160405180910390a45b5050565b6000611cc78383612976565b611d20578260000182908060018154018082558091505060019003906000526020600020016000909190919091505582600001805490508360010160008481526020019081526020016000208190555060019050611d25565b600090505b92915050565b60007f01ffc9a7000000000000000000000000000000000000000000000000000000007bffffffffffffffffffffffffffffffffffffffffffffffffffffffff1916827bffffffffffffffffffffffffffffffffffffffffffffffffffffffff1916149050919050565b611da0838383612999565b505050565b505050565b611db48282610cbb565b611e4357611dd98173ffffffffffffffffffffffffffffffffffffffff1660146129f1565b611de78360001c60206129f1565b604051602001611df8929190613489565b6040516020818303038152906040526040517f08c379a0000000000000000000000000000000000000000000000000000000008152600401611e3a9190613514565b60405180910390fd5b5050565b611e518282610cbb565b15611f255760006065600084815260200190815260200160002060000160008373ffffffffffffffffffffffffffffffffffffffff1673ffffffffffffffffffffffffffffffffffffffff16815260200190815260200160002060006101000a81548160ff021916908315150217905550611eca6110a7565b73ffffffffffffffffffffffffffffffffffffffff168173ffffffffffffffffffffffffffffffffffffffff16837ff6391f5c32d9c69d2a47ea670b442974b53935d1edc7fd64eb21e047a839171b60405160405180910390a45b5050565b600080836001016000848152602001908152602001600020549050600081146120a3576000600182611f5b9190613919565b9050600060018660000180549050611f739190613919565b905081811461202e576000866000018281548110611fba577f4e487b7100000000000000000000000000000000000000000000000000000000600052603260045260246000fd5b9060005260206000200154905080876000018481548110612004577f4e487b7100000000000000000000000000000000000000000000000000000000600052603260045260246000fd5b90600052602060002001819055508387600101600083815260200190815260200160002081905550505b85600001805480612068577f4e487b7100000000000000000000000000000000000000000000000000000000600052603160045260246000fd5b6001900381819060005260206000200160009055905585600101600086815260200190815260200160002060009055600193505050506120a9565b60009150505b92915050565b600060019054906101000a900460ff16806120d5575060008054906101000a900460ff16155b612114576040517f08c379a000000000000000000000000000000000000000000000000000000000815260040161210b90613636565b60405180910390fd5b60008060019054906101000a900460ff161590508015612164576001600060016101000a81548160ff02191690831515021790555060016000806101000a81548160ff0219169083151502179055505b80156121855760008060016101000a81548160ff0219169083151502179055505b50565b600060019054906101000a900460ff16806121ae575060008054906101000a900460ff16155b6121ed576040517f08c379a00000000000000000000000000000000000000000000000000000000081526004016121e490613636565b60405180910390fd5b60008060019054906101000a900460ff16159050801561223d576001600060016101000a81548160ff02191690831515021790555060016000806101000a81548160ff0219169083151502179055505b801561225e5760008060016101000a81548160ff0219169083151502179055505b50565b600060019054906101000a900460ff1680612287575060008054906101000a900460ff16155b6122c6576040517f08c379a00000000000000000000000000000000000000000000000000000000081526004016122bd90613636565b60405180910390fd5b60008060019054906101000a900460ff161590508015612316576001600060016101000a81548160ff02191690831515021790555060016000806101000a81548160ff0219169083151502179055505b80156123375760008060016101000a81548160ff0219169083151502179055505b50565b600060019054906101000a900460ff1680612360575060008054906101000a900460ff16155b61239f576040517f08c379a000000000000000000000000000000000000000000000000000000000815260040161239690613636565b60405180910390fd5b60008060019054906101000a900460ff1615905080156123ef576001600060016101000a81548160ff02191690831515021790555060016000806101000a81548160ff0219169083151502179055505b80156124105760008060016101000a81548160ff0219169083151502179055505b50565b600060019054906101000a900460ff1680612439575060008054906101000a900460ff16155b612478576040517f08c379a000000000000000000000000000000000000000000000000000000000815260040161246f90613636565b60405180910390fd5b60008060019054906101000a900460ff1615905080156124c8576001600060016101000a81548160ff02191690831515021790555060016000806101000a81548160ff0219169083151502179055505b8260cc90805190602001906124de929190612d24565b508160cd90805190602001906124f5929190612d24565b5080156125175760008060016101000a81548160ff0219169083151502179055505b505050565b600060019054906101000a900460ff1680612542575060008054906101000a900460ff16155b612581576040517f08c379a000000000000000000000000000000000000000000000000000000000815260040161257890613636565b60405180910390fd5b60008060019054906101000a900460ff1615905080156125d1576001600060016101000a81548160ff02191690831515021790555060016000806101000a81548160ff0219169083151502179055505b80156125f25760008060016101000a81548160ff0219169083151502179055505b50565b600060019054906101000a900460ff168061261b575060008054906101000a900460ff16155b61265a576040517f08c379a000000000000000000000000000000000000000000000000000000000815260040161265190613636565b60405180910390fd5b60008060019054906101000a900460ff1615905080156126aa576001600060016101000a81548160ff02191690831515021790555060016000806101000a81548160ff0219169083151502179055505b600061012d60006101000a81548160ff02191690831515021790555080156126e75760008060016101000a81548160ff0219169083151502179055505b50565b600060019054906101000a900460ff1680612710575060008054906101000a900460ff16155b61274f576040517f08c379a000000000000000000000000000000000000000000000000000000000815260040161274690613636565b60405180910390fd5b60008060019054906101000a900460ff16159050801561279f576001600060016101000a81548160ff02191690831515021790555060016000806101000a81548160ff0219169083151502179055505b80156127c05760008060016101000a81548160ff0219169083151502179055505b50565b600060019054906101000a900460ff16806127e9575060008054906101000a900460ff16155b612828576040517f08c379a000000000000000000000000000000000000000000000000000000000815260040161281f90613636565b60405180910390fd5b60008060019054906101000a900460ff161590508015612878576001600060016101000a81548160ff02191690831515021790555060016000806101000a81548160ff0219169083151502179055505b61288c6000801b6128876110a7565b612ceb565b6128bd7f9f2df0fed2c77648de5860a4cc508cd0818c85b8b8a1ab4ceeef8d981c8956a66128b86110a7565b612ceb565b6128ee7f65d7a28e3265b37a6474929f336521b332c1681b933f6cb9f3376673440d862a6128e96110a7565b612ceb565b801561290f5760008060016101000a81548160ff0219169083151502179055505b505050565b6000826000018281548110612952577f4e487b7100000000000000000000000000000000000000000000000000000000600052603260045260246000fd5b9060005260206000200154905092915050565b600081600001805490509050919050565b600080836001016000848152602001908152602001600020541415905092915050565b6129a4838383612d1f565b6129ac610b36565b156129ec576040517f08c379a00000000000000000000000000000000000000000000000000000000081526004016129e390613796565b60405180910390fd5b505050565b606060006002836002612a0491906138bf565b612a0e9190613869565b67ffffffffffffffff811115612a4d577f4e487b7100000000000000000000000000000000000000000000000000000000600052604160045260246000fd5b6040519080825280601f01601f191660200182016040528015612a7f5781602001600182028036833780820191505090505b5090507f300000000000000000000000000000000000000000000000000000000000000081600081518110612add577f4e487b7100000000000000000000000000000000000000000000000000000000600052603260045260246000fd5b60200101907effffffffffffffffffffffffffffffffffffffffffffffffffffffffffffff1916908160001a9053507f780000000000000000000000000000000000000000000000000000000000000081600181518110612b67577f4e487b7100000000000000000000000000000000000000000000000000000000600052603260045260246000fd5b60200101907effffffffffffffffffffffffffffffffffffffffffffffffffffffffffffff1916908160001a90535060006001846002612ba791906138bf565b612bb19190613869565b90505b6001811115612c9d577f3031323334353637383961626364656600000000000000000000000000000000600f861660108110612c19577f4e487b7100000000000000000000000000000000000000000000000000000000600052603260045260246000fd5b1a60f81b828281518110612c56577f4e487b7100000000000000000000000000000000000000000000000000000000600052603260045260246000fd5b60200101907effffffffffffffffffffffffffffffffffffffffffffffffffffffffffffff1916908160001a905350600485901c945080612c9690613a1a565b9050612bb4565b5060008414612ce1576040517f08c379a0000000000000000000000000000000000000000000000000000000008152600401612cd890613536565b60405180910390fd5b8091505092915050565b612cf58282610fef565b612d1a8160976000858152602001908152602001600020610ffd90919063ffffffff16565b505050565b505050565b828054612d3090613a44565b90600052602060002090601f016020900481019282612d525760008555612d99565b82601f10612d6b57805160ff1916838001178555612d99565b82800160010185558215612d99579182015b82811115612d98578251825591602001919060010190612d7d565b5b509050612da69190612daa565b5090565b5b80821115612dc3576000816000905550600101612dab565b5090565b6000612dda612dd584613811565b6137ec565b905082815260208101848484011115612df257600080fd5b612dfd8482856139d8565b509392505050565b600081359050612e148161412b565b92915050565b600081359050612e2981614142565b92915050565b600081359050612e3e81614159565b92915050565b600082601f830112612e5557600080fd5b8135612e65848260208601612dc7565b91505092915050565b600081359050612e7d81614170565b92915050565b600060208284031215612e9557600080fd5b6000612ea384828501612e05565b91505092915050565b60008060408385031215612ebf57600080fd5b6000612ecd85828601612e05565b9250506020612ede85828601612e05565b9150509250929050565b600080600060608486031215612efd57600080fd5b6000612f0b86828701612e05565b9350506020612f1c86828701612e05565b9250506040612f2d86828701612e6e565b9150509250925092565b60008060408385031215612f4a57600080fd5b6000612f5885828601612e05565b9250506020612f6985828601612e6e565b9150509250929050565b600060208284031215612f8557600080fd5b6000612f9384828501612e1a565b91505092915050565b60008060408385031215612faf57600080fd5b6000612fbd85828601612e1a565b9250506020612fce85828601612e05565b9150509250929050565b60008060408385031215612feb57600080fd5b6000612ff985828601612e1a565b925050602061300a85828601612e6e565b9150509250929050565b60006020828403121561302657600080fd5b600061303484828501612e2f565b91505092915050565b6000806040838503121561305057600080fd5b600083013567ffffffffffffffff81111561306a57600080fd5b61307685828601612e44565b925050602083013567ffffffffffffffff81111561309357600080fd5b61309f85828601612e44565b9150509250929050565b6000602082840312156130bb57600080fd5b60006130c984828501612e6e565b91505092915050565b6130db8161394d565b82525050565b6130ea8161395f565b82525050565b6130f98161396b565b82525050565b600061310a82613842565b613114818561384d565b93506131248185602086016139e7565b61312d81613b34565b840191505092915050565b600061314382613842565b61314d818561385e565b935061315d8185602086016139e7565b80840191505092915050565b600061317660208361384d565b915061318182613b45565b602082019050919050565b600061319960238361384d565b91506131a482613b6e565b604082019050919050565b60006131bc60148361384d565b91506131c782613bbd565b602082019050919050565b60006131df60228361384d565b91506131ea82613be6565b604082019050919050565b600061320260398361384d565b915061320d82613c35565b604082019050919050565b600061322560228361384d565b915061323082613c84565b604082019050919050565b600061324860268361384d565b915061325382613cd3565b604082019050919050565b600061326b60108361384d565b915061327682613d22565b602082019050919050565b600061328e602e8361384d565b915061329982613d4b565b604082019050919050565b60006132b160288361384d565b91506132bc82613d9a565b604082019050919050565b60006132d460368361384d565b91506132df82613de9565b604082019050919050565b60006132f760248361384d565b915061330282613e38565b604082019050919050565b600061331a60218361384d565b915061332582613e87565b604082019050919050565b600061333d60258361384d565b915061334882613ed6565b604082019050919050565b600061336060248361384d565b915061336b82613f25565b604082019050919050565b600061338360378361384d565b915061338e82613f74565b604082019050919050565b60006133a660178361385e565b91506133b182613fc3565b601782019050919050565b60006133c960258361384d565b91506133d482613fec565b604082019050919050565b60006133ec60118361385e565b91506133f78261403b565b601182019050919050565b600061340f602f8361384d565b915061341a82614064565b604082019050919050565b6000613432601f8361384d565b915061343d826140b3565b602082019050919050565b6000613455602a8361384d565b9150613460826140dc565b604082019050919050565b613474816139c1565b82525050565b613483816139cb565b82525050565b600061349482613399565b91506134a08285613138565b91506134ab826133df565b91506134b78284613138565b91508190509392505050565b60006020820190506134d860008301846130d2565b92915050565b60006020820190506134f360008301846130e1565b92915050565b600060208201905061350e60008301846130f0565b92915050565b6000602082019050818103600083015261352e81846130ff565b905092915050565b6000602082019050818103600083015261354f81613169565b9050919050565b6000602082019050818103600083015261356f8161318c565b9050919050565b6000602082019050818103600083015261358f816131af565b9050919050565b600060208201905081810360008301526135af816131d2565b9050919050565b600060208201905081810360008301526135cf816131f5565b9050919050565b600060208201905081810360008301526135ef81613218565b9050919050565b6000602082019050818103600083015261360f8161323b565b9050919050565b6000602082019050818103600083015261362f8161325e565b9050919050565b6000602082019050818103600083015261364f81613281565b9050919050565b6000602082019050818103600083015261366f816132a4565b9050919050565b6000602082019050818103600083015261368f816132c7565b9050919050565b600060208201905081810360008301526136af816132ea565b9050919050565b600060208201905081810360008301526136cf8161330d565b9050919050565b600060208201905081810360008301526136ef81613330565b9050919050565b6000602082019050818103600083015261370f81613353565b9050919050565b6000602082019050818103600083015261372f81613376565b9050919050565b6000602082019050818103600083015261374f816133bc565b9050919050565b6000602082019050818103600083015261376f81613402565b9050919050565b6000602082019050818103600083015261378f81613425565b9050919050565b600060208201905081810360008301526137af81613448565b9050919050565b60006020820190506137cb600083018461346b565b92915050565b60006020820190506137e6600083018461347a565b92915050565b60006137f6613807565b90506138028282613a76565b919050565b6000604051905090565b600067ffffffffffffffff82111561382c5761382b613b05565b5b61383582613b34565b9050602081019050919050565b600081519050919050565b600082825260208201905092915050565b600081905092915050565b6000613874826139c1565b915061387f836139c1565b9250827fffffffffffffffffffffffffffffffffffffffffffffffffffffffffffffffff038211156138b4576138b3613aa7565b5b828201905092915050565b60006138ca826139c1565b91506138d5836139c1565b9250817fffffffffffffffffffffffffffffffffffffffffffffffffffffffffffffffff048311821515161561390e5761390d613aa7565b5b828202905092915050565b6000613924826139c1565b915061392f836139c1565b92508282101561394257613941613aa7565b5b828203905092915050565b6000613958826139a1565b9050919050565b60008115159050919050565b6000819050919050565b60007fffffffff0000000000000000000000000000000000000000000000000000000082169050919050565b600073ffffffffffffffffffffffffffffffffffffffff82169050919050565b6000819050919050565b600060ff82169050919050565b82818337600083830152505050565b60005b83811015613a055780820151818401526020810190506139ea565b83811115613a14576000848401525b50505050565b6000613a25826139c1565b91506000821415613a3957613a38613aa7565b5b600182039050919050565b60006002820490506001821680613a5c57607f821691505b60208210811415613a7057613a6f613ad6565b5b50919050565b613a7f82613b34565b810181811067ffffffffffffffff82111715613a9e57613a9d613b05565b5b80604052505050565b7f4e487b7100000000000000000000000000000000000000000000000000000000600052601160045260246000fd5b7f4e487b7100000000000000000000000000000000000000000000000000000000600052602260045260246000fd5b7f4e487b7100000000000000000000000000000000000000000000000000000000600052604160045260246000fd5b6000601f19601f8301169050919050565b7f537472696e67733a20686578206c656e67746820696e73756666696369656e74600082015250565b7f45524332303a207472616e7366657220746f20746865207a65726f206164647260008201527f6573730000000000000000000000000000000000000000000000000000000000602082015250565b7f5061757361626c653a206e6f7420706175736564000000000000000000000000600082015250565b7f45524332303a206275726e20616d6f756e7420657863656564732062616c616e60008201527f6365000000000000000000000000000000000000000000000000000000000000602082015250565b7f45524332305072657365744d696e7465725061757365723a206d75737420686160008201527f76652070617573657220726f6c6520746f20756e706175736500000000000000602082015250565b7f45524332303a20617070726f766520746f20746865207a65726f20616464726560008201527f7373000000000000000000000000000000000000000000000000000000000000602082015250565b7f45524332303a207472616e7366657220616d6f756e742065786365656473206260008201527f616c616e63650000000000000000000000000000000000000000000000000000602082015250565b7f5061757361626c653a2070617573656400000000000000000000000000000000600082015250565b7f496e697469616c697a61626c653a20636f6e747261637420697320616c72656160008201527f647920696e697469616c697a6564000000000000000000000000000000000000602082015250565b7f45524332303a207472616e7366657220616d6f756e742065786365656473206160008201527f6c6c6f77616e6365000000000000000000000000000000000000000000000000602082015250565b7f45524332305072657365744d696e7465725061757365723a206d75737420686160008201527f7665206d696e74657220726f6c6520746f206d696e7400000000000000000000602082015250565b7f45524332303a206275726e20616d6f756e74206578636565647320616c6c6f7760008201527f616e636500000000000000000000000000000000000000000000000000000000602082015250565b7f45524332303a206275726e2066726f6d20746865207a65726f2061646472657360008201527f7300000000000000000000000000000000000000000000000000000000000000602082015250565b7f45524332303a207472616e736665722066726f6d20746865207a65726f20616460008201527f6472657373000000000000000000000000000000000000000000000000000000602082015250565b7f45524332303a20617070726f76652066726f6d20746865207a65726f2061646460008201527f7265737300000000000000000000000000000000000000000000000000000000602082015250565b7f45524332305072657365744d696e7465725061757365723a206d75737420686160008201527f76652070617573657220726f6c6520746f207061757365000000000000000000602082015250565b7f416363657373436f6e74726f6c3a206163636f756e7420000000000000000000600082015250565b7f45524332303a2064656372656173656420616c6c6f77616e63652062656c6f7760008201527f207a65726f000000000000000000000000000000000000000000000000000000602082015250565b7f206973206d697373696e6720726f6c6520000000000000000000000000000000600082015250565b7f416363657373436f6e74726f6c3a2063616e206f6e6c792072656e6f756e636560008201527f20726f6c657320666f722073656c660000000000000000000000000000000000602082015250565b7f45524332303a206d696e7420746f20746865207a65726f206164647265737300600082015250565b7f45524332305061757361626c653a20746f6b656e207472616e7366657220776860008201527f696c652070617573656400000000000000000000000000000000000000000000602082015250565b6141348161394d565b811461413f57600080fd5b50565b61414b8161396b565b811461415657600080fd5b50565b61416281613975565b811461416d57600080fd5b50565b614179816139c1565b811461418457600080fd5b5056fea2646970667358221220b223c9bf2885037a14595fd2f1467b2d3ecc1b91a3018241418e9daefffa95cd64736f6c63430008040033",
  "linkReferences": {},
  "deployedLinkReferences": {}
}