{
  "_format": "hh-sol-artifact-1",
  "contractName": "ERC20VotesMockUpgradeableWithInit",
  "sourceName": "contracts/src/OpenZeppelin/upgradeable/mocks/WithInit.sol",
  "abi": [
    {
      "inputs": [
        {
          "internalType": "string",
          "name": "name",
          "type": "string"
        },
        {
          "internalType": "string",
          "name": "symbol",
          "type": "string"
        }
      ],
      "stateMutability": "payable",
      "type": "constructor"
    },
    {
      "anonymous": false,
      "inputs": [
        {
          "indexed": true,
          "internalType": "address",
          "name": "owner",
          "type": "address"
        },
        {
          "indexed": true,
          "internalType": "address",
          "name": "spender",
          "type": "address"
        },
        {
          "indexed": false,
          "internalType": "uint256",
          "name": "value",
          "type": "uint256"
        }
      ],
      "name": "Approval",
      "type": "event"
    },
    {
      "anonymous": false,
      "inputs": [
        {
          "indexed": true,
          "internalType": "address",
          "name": "delegator",
          "type": "address"
        },
        {
          "indexed": true,
          "internalType": "address",
          "name": "fromDelegate",
          "type": "address"
        },
        {
          "indexed": true,
          "internalType": "address",
          "name": "toDelegate",
          "type": "address"
        }
      ],
      "name": "DelegateChanged",
      "type": "event"
    },
    {
      "anonymous": false,
      "inputs": [
        {
          "indexed": true,
          "internalType": "address",
          "name": "delegate",
          "type": "address"
        },
        {
          "indexed": false,
          "internalType": "uint256",
          "name": "previousBalance",
          "type": "uint256"
        },
        {
          "indexed": false,
          "internalType": "uint256",
          "name": "newBalance",
          "type": "uint256"
        }
      ],
      "name": "DelegateVotesChanged",
      "type": "event"
    },
    {
      "anonymous": false,
      "inputs": [
        {
          "indexed": true,
          "internalType": "address",
          "name": "from",
          "type": "address"
        },
        {
          "indexed": true,
          "internalType": "address",
          "name": "to",
          "type": "address"
        },
        {
          "indexed": false,
          "internalType": "uint256",
          "name": "value",
          "type": "uint256"
        }
      ],
      "name": "Transfer",
      "type": "event"
    },
    {
      "inputs": [],
      "name": "DOMAIN_SEPARATOR",
      "outputs": [
        {
          "internalType": "bytes32",
          "name": "",
          "type": "bytes32"
        }
      ],
      "stateMutability": "view",
      "type": "function"
    },
    {
      "inputs": [
        {
          "internalType": "address",
          "name": "owner",
          "type": "address"
        },
        {
          "internalType": "address",
          "name": "spender",
          "type": "address"
        }
      ],
      "name": "allowance",
      "outputs": [
        {
          "internalType": "uint256",
          "name": "",
          "type": "uint256"
        }
      ],
      "stateMutability": "view",
      "type": "function"
    },
    {
      "inputs": [
        {
          "internalType": "address",
          "name": "spender",
          "type": "address"
        },
        {
          "internalType": "uint256",
          "name": "amount",
          "type": "uint256"
        }
      ],
      "name": "approve",
      "outputs": [
        {
          "internalType": "bool",
          "name": "",
          "type": "bool"
        }
      ],
      "stateMutability": "nonpayable",
      "type": "function"
    },
    {
      "inputs": [
        {
          "internalType": "address",
          "name": "account",
          "type": "address"
        }
      ],
      "name": "balanceOf",
      "outputs": [
        {
          "internalType": "uint256",
          "name": "",
          "type": "uint256"
        }
      ],
      "stateMutability": "view",
      "type": "function"
    },
    {
      "inputs": [
        {
          "internalType": "address",
          "name": "account",
          "type": "address"
        },
        {
          "internalType": "uint256",
          "name": "amount",
          "type": "uint256"
        }
      ],
      "name": "burn",
      "outputs": [],
      "stateMutability": "nonpayable",
      "type": "function"
    },
    {
      "inputs": [
        {
          "internalType": "address",
          "name": "account",
          "type": "address"
        },
        {
          "internalType": "uint32",
          "name": "pos",
          "type": "uint32"
        }
      ],
      "name": "checkpoints",
      "outputs": [
        {
          "components": [
            {
              "internalType": "uint32",
              "name": "fromBlock",
              "type": "uint32"
            },
            {
              "internalType": "uint224",
              "name": "votes",
              "type": "uint224"
            }
          ],
          "internalType": "struct ERC20VotesUpgradeable.Checkpoint",
          "name": "",
          "type": "tuple"
        }
      ],
      "stateMutability": "view",
      "type": "function"
    },
    {
      "inputs": [],
      "name": "decimals",
      "outputs": [
        {
          "internalType": "uint8",
          "name": "",
          "type": "uint8"
        }
      ],
      "stateMutability": "view",
      "type": "function"
    },
    {
      "inputs": [
        {
          "internalType": "address",
          "name": "spender",
          "type": "address"
        },
        {
          "internalType": "uint256",
          "name": "subtractedValue",
          "type": "uint256"
        }
      ],
      "name": "decreaseAllowance",
      "outputs": [
        {
          "internalType": "bool",
          "name": "",
          "type": "bool"
        }
      ],
      "stateMutability": "nonpayable",
      "type": "function"
    },
    {
      "inputs": [
        {
          "internalType": "address",
          "name": "delegatee",
          "type": "address"
        }
      ],
      "name": "delegate",
      "outputs": [],
      "stateMutability": "nonpayable",
      "type": "function"
    },
    {
      "inputs": [
        {
          "internalType": "address",
          "name": "delegatee",
          "type": "address"
        },
        {
          "internalType": "uint256",
          "name": "nonce",
          "type": "uint256"
        },
        {
          "internalType": "uint256",
          "name": "expiry",
          "type": "uint256"
        },
        {
          "internalType": "uint8",
          "name": "v",
          "type": "uint8"
        },
        {
          "internalType": "bytes32",
          "name": "r",
          "type": "bytes32"
        },
        {
          "internalType": "bytes32",
          "name": "s",
          "type": "bytes32"
        }
      ],
      "name": "delegateBySig",
      "outputs": [],
      "stateMutability": "nonpayable",
      "type": "function"
    },
    {
      "inputs": [
        {
          "internalType": "address",
          "name": "account",
          "type": "address"
        }
      ],
      "name": "delegates",
      "outputs": [
        {
          "internalType": "address",
          "name": "",
          "type": "address"
        }
      ],
      "stateMutability": "view",
      "type": "function"
    },
    {
      "inputs": [],
      "name": "getChainId",
      "outputs": [
        {
          "internalType": "uint256",
          "name": "",
          "type": "uint256"
        }
      ],
      "stateMutability": "view",
      "type": "function"
    },
    {
      "inputs": [
        {
          "internalType": "uint256",
          "name": "blockNumber",
          "type": "uint256"
        }
      ],
      "name": "getPastTotalSupply",
      "outputs": [
        {
          "internalType": "uint256",
          "name": "",
          "type": "uint256"
        }
      ],
      "stateMutability": "view",
      "type": "function"
    },
    {
      "inputs": [
        {
          "internalType": "address",
          "name": "account",
          "type": "address"
        },
        {
          "internalType": "uint256",
          "name": "blockNumber",
          "type": "uint256"
        }
      ],
      "name": "getPastVotes",
      "outputs": [
        {
          "internalType": "uint256",
          "name": "",
          "type": "uint256"
        }
      ],
      "stateMutability": "view",
      "type": "function"
    },
    {
      "inputs": [
        {
          "internalType": "address",
          "name": "account",
          "type": "address"
        }
      ],
      "name": "getVotes",
      "outputs": [
        {
          "internalType": "uint256",
          "name": "",
          "type": "uint256"
        }
      ],
      "stateMutability": "view",
      "type": "function"
    },
    {
      "inputs": [
        {
          "internalType": "address",
          "name": "spender",
          "type": "address"
        },
        {
          "internalType": "uint256",
          "name": "addedValue",
          "type": "uint256"
        }
      ],
      "name": "increaseAllowance",
      "outputs": [
        {
          "internalType": "bool",
          "name": "",
          "type": "bool"
        }
      ],
      "stateMutability": "nonpayable",
      "type": "function"
    },
    {
      "inputs": [
        {
          "internalType": "address",
          "name": "account",
          "type": "address"
        },
        {
          "internalType": "uint256",
          "name": "amount",
          "type": "uint256"
        }
      ],
      "name": "mint",
      "outputs": [],
      "stateMutability": "nonpayable",
      "type": "function"
    },
    {
      "inputs": [],
      "name": "name",
      "outputs": [
        {
          "internalType": "string",
          "name": "",
          "type": "string"
        }
      ],
      "stateMutability": "view",
      "type": "function"
    },
    {
      "inputs": [
        {
          "internalType": "address",
          "name": "owner",
          "type": "address"
        }
      ],
      "name": "nonces",
      "outputs": [
        {
          "internalType": "uint256",
          "name": "",
          "type": "uint256"
        }
      ],
      "stateMutability": "view",
      "type": "function"
    },
    {
      "inputs": [
        {
          "internalType": "address",
          "name": "account",
          "type": "address"
        }
      ],
      "name": "numCheckpoints",
      "outputs": [
        {
          "internalType": "uint32",
          "name": "",
          "type": "uint32"
        }
      ],
      "stateMutability": "view",
      "type": "function"
    },
    {
      "inputs": [
        {
          "internalType": "address",
          "name": "owner",
          "type": "address"
        },
        {
          "internalType": "address",
          "name": "spender",
          "type": "address"
        },
        {
          "internalType": "uint256",
          "name": "value",
          "type": "uint256"
        },
        {
          "internalType": "uint256",
          "name": "deadline",
          "type": "uint256"
        },
        {
          "internalType": "uint8",
          "name": "v",
          "type": "uint8"
        },
        {
          "internalType": "bytes32",
          "name": "r",
          "type": "bytes32"
        },
        {
          "internalType": "bytes32",
          "name": "s",
          "type": "bytes32"
        }
      ],
      "name": "permit",
      "outputs": [],
      "stateMutability": "nonpayable",
      "type": "function"
    },
    {
      "inputs": [],
      "name": "symbol",
      "outputs": [
        {
          "internalType": "string",
          "name": "",
          "type": "string"
        }
      ],
      "stateMutability": "view",
      "type": "function"
    },
    {
      "inputs": [],
      "name": "totalSupply",
      "outputs": [
        {
          "internalType": "uint256",
          "name": "",
          "type": "uint256"
        }
      ],
      "stateMutability": "view",
      "type": "function"
    },
    {
      "inputs": [
        {
          "internalType": "address",
          "name": "recipient",
          "type": "address"
        },
        {
          "internalType": "uint256",
          "name": "amount",
          "type": "uint256"
        }
      ],
      "name": "transfer",
      "outputs": [
        {
          "internalType": "bool",
          "name": "",
          "type": "bool"
        }
      ],
      "stateMutability": "nonpayable",
      "type": "function"
    },
    {
      "inputs": [
        {
          "internalType": "address",
          "name": "sender",
          "type": "address"
        },
        {
          "internalType": "address",
          "name": "recipient",
          "type": "address"
        },
        {
          "internalType": "uint256",
          "name": "amount",
          "type": "uint256"
        }
      ],
      "name": "transferFrom",
      "outputs": [
        {
          "internalType": "bool",
          "name": "",
          "type": "bool"
        }
      ],
      "stateMutability": "nonpayable",
      "type": "function"
    }
  ],
  "bytecode": "0x608060405260405162004593380380620045938339818101604052810190620000299190620008a4565b6200003b82826200004360201b60201c565b505062000b30565b600060019054906101000a900460ff16806200006a575060008054906101000a900460ff16155b620000ac576040517f08c379a0000000000000000000000000000000000000000000000000000000008152600401620000a3906200093e565b60405180910390fd5b60008060019054906101000a900460ff161590508015620000fd576001600060016101000a81548160ff02191690831515021790555060016000806101000a81548160ff0219169083151502179055505b6200010d620001c060201b60201c565b6200011f83836200029f60201b60201c565b62000166836040518060400160405280600181526020017f3100000000000000000000000000000000000000000000000000000000000000815250620003b260201b60201c565b6200017783620004bb60201b60201c565b62000187620005c260201b60201c565b620001998383620006a160201b60201c565b8015620001bb5760008060016101000a81548160ff0219169083151502179055505b505050565b600060019054906101000a900460ff1680620001e7575060008054906101000a900460ff16155b62000229576040517f08c379a000000000000000000000000000000000000000000000000000000000815260040162000220906200093e565b60405180910390fd5b60008060019054906101000a900460ff1615905080156200027a576001600060016101000a81548160ff02191690831515021790555060016000806101000a81548160ff0219169083151502179055505b80156200029c5760008060016101000a81548160ff0219169083151502179055505b50565b600060019054906101000a900460ff1680620002c6575060008054906101000a900460ff16155b62000308576040517f08c379a0000000000000000000000000000000000000000000000000000000008152600401620002ff906200093e565b60405180910390fd5b60008060019054906101000a900460ff16159050801562000359576001600060016101000a81548160ff02191690831515021790555060016000806101000a81548160ff0219169083151502179055505b82603690805190602001906200037192919062000782565b5081603790805190602001906200038a92919062000782565b508015620003ad5760008060016101000a81548160ff0219169083151502179055505b505050565b600060019054906101000a900460ff1680620003d9575060008054906101000a900460ff16155b6200041b576040517f08c379a000000000000000000000000000000000000000000000000000000000815260040162000412906200093e565b60405180910390fd5b60008060019054906101000a900460ff1615905080156200046c576001600060016101000a81548160ff02191690831515021790555060016000806101000a81548160ff0219169083151502179055505b600083805190602001209050600083805190602001209050816065819055508060668190555050508015620004b65760008060016101000a81548160ff0219169083151502179055505b505050565b600060019054906101000a900460ff1680620004e2575060008054906101000a900460ff16155b62000524576040517f08c379a00000000000000000000000000000000000000000000000000000000081526004016200051b906200093e565b60405180910390fd5b60008060019054906101000a900460ff16159050801562000575576001600060016101000a81548160ff02191690831515021790555060016000806101000a81548160ff0219169083151502179055505b7f6e71edae12b1b97f4d1f60370fef10105fa2faae0126114a169c64845d6126c9609a819055508015620005be5760008060016101000a81548160ff0219169083151502179055505b5050565b600060019054906101000a900460ff1680620005e9575060008054906101000a900460ff16155b6200062b576040517f08c379a000000000000000000000000000000000000000000000000000000000815260040162000622906200093e565b60405180910390fd5b60008060019054906101000a900460ff1615905080156200067c576001600060016101000a81548160ff02191690831515021790555060016000806101000a81548160ff0219169083151502179055505b80156200069e5760008060016101000a81548160ff0219169083151502179055505b50565b600060019054906101000a900460ff1680620006c8575060008054906101000a900460ff16155b6200070a576040517f08c379a000000000000000000000000000000000000000000000000000000000815260040162000701906200093e565b60405180910390fd5b60008060019054906101000a900460ff1615905080156200075b576001600060016101000a81548160ff02191690831515021790555060016000806101000a81548160ff0219169083151502179055505b80156200077d5760008060016101000a81548160ff0219169083151502179055505b505050565b828054620007909062000a06565b90600052602060002090601f016020900481019282620007b4576000855562000800565b82601f10620007cf57805160ff191683800117855562000800565b8280016001018555821562000800579182015b82811115620007ff578251825591602001919060010190620007e2565b5b5090506200080f919062000813565b5090565b5b808211156200082e57600081600090555060010162000814565b5090565b600062000849620008438462000989565b62000960565b9050828152602081018484840111156200086257600080fd5b6200086f848285620009d0565b509392505050565b600082601f8301126200088957600080fd5b81516200089b84826020860162000832565b91505092915050565b60008060408385031215620008b857600080fd5b600083015167ffffffffffffffff811115620008d357600080fd5b620008e18582860162000877565b925050602083015167ffffffffffffffff811115620008ff57600080fd5b6200090d8582860162000877565b9150509250929050565b600062000926602e83620009bf565b9150620009338262000ae1565b604082019050919050565b60006020820190508181036000830152620009598162000917565b9050919050565b60006200096c6200097f565b90506200097a828262000a3c565b919050565b6000604051905090565b600067ffffffffffffffff821115620009a757620009a662000aa1565b5b620009b28262000ad0565b9050602081019050919050565b600082825260208201905092915050565b60005b83811015620009f0578082015181840152602081019050620009d3565b8381111562000a00576000848401525b50505050565b6000600282049050600182168062000a1f57607f821691505b6020821081141562000a365762000a3562000a72565b5b50919050565b62000a478262000ad0565b810181811067ffffffffffffffff8211171562000a695762000a6862000aa1565b5b80604052505050565b7f4e487b7100000000000000000000000000000000000000000000000000000000600052602260045260246000fd5b7f4e487b7100000000000000000000000000000000000000000000000000000000600052604160045260246000fd5b6000601f19601f8301169050919050565b7f496e697469616c697a61626c653a20636f6e747261637420697320616c72656160008201527f647920696e697469616c697a6564000000000000000000000000000000000000602082015250565b613a538062000b406000396000f3fe608060405234801561001057600080fd5b50600436106101735760003560e01c80636fcfff45116100de5780639dc29fac11610097578063c3cda52011610071578063c3cda520146104c0578063d505accf146104dc578063dd62ed3e146104f8578063f1127ed81461052857610173565b80639dc29fac14610444578063a457c2d714610460578063a9059cbb1461049057610173565b80636fcfff451461033657806370a08231146103665780637ecebe00146103965780638e539e8c146103c657806395d89b41146103f65780639ab24eb01461041457610173565b80633644e515116101305780633644e51514610250578063395093511461026e5780633a46b1a81461029e57806340c10f19146102ce578063587cde1e146102ea5780635c19a95c1461031a57610173565b806306fdde0314610178578063095ea7b31461019657806318160ddd146101c657806323b872dd146101e4578063313ce567146102145780633408e47014610232575b600080fd5b610180610558565b60405161018d9190612e02565b60405180910390f35b6101b060048036038101906101ab9190612719565b6105ea565b6040516101bd9190612c8e565b60405180910390f35b6101ce610608565b6040516101db91906130df565b60405180910390f35b6101fe60048036038101906101f9919061262c565b610612565b60405161020b9190612c8e565b60405180910390f35b61021c61070a565b604051610229919061313e565b60405180910390f35b61023a610713565b60405161024791906130df565b60405180910390f35b61025861071b565b6040516102659190612ca9565b60405180910390f35b61028860048036038101906102839190612719565b61072a565b6040516102959190612c8e565b60405180910390f35b6102b860048036038101906102b39190612719565b6107d6565b6040516102c591906130df565b60405180910390f35b6102e860048036038101906102e39190612719565b61086a565b005b61030460048036038101906102ff91906125c7565b610878565b6040516103119190612c73565b60405180910390f35b610334600480360381019061032f91906125c7565b6108e1565b005b610350600480360381019061034b91906125c7565b6108f5565b60405161035d9190613123565b60405180910390f35b610380600480360381019061037b91906125c7565b610949565b60405161038d91906130df565b60405180910390f35b6103b060048036038101906103ab91906125c7565b610992565b6040516103bd91906130df565b60405180910390f35b6103e060048036038101906103db919061281a565b6109e2565b6040516103ed91906130df565b60405180910390f35b6103fe610a38565b60405161040b9190612e02565b60405180910390f35b61042e600480360381019061042991906125c7565b610aca565b60405161043b91906130df565b60405180910390f35b61045e60048036038101906104599190612719565b610c01565b005b61047a60048036038101906104759190612719565b610c0f565b6040516104879190612c8e565b60405180910390f35b6104aa60048036038101906104a59190612719565b610cfa565b6040516104b79190612c8e565b60405180910390f35b6104da60048036038101906104d59190612755565b610d18565b005b6104f660048036038101906104f1919061267b565b610e1c565b005b610512600480360381019061050d91906125f0565b610f40565b60405161051f91906130df565b60405180910390f35b610542600480360381019061053d91906127de565b610fc7565b60405161054f91906130c4565b60405180910390f35b60606036805461056790613305565b80601f016020809104026020016040519081016040528092919081815260200182805461059390613305565b80156105e05780601f106105b5576101008083540402835291602001916105e0565b820191906000526020600020905b8154815290600101906020018083116105c357829003601f168201915b5050505050905090565b60006105fe6105f76110fd565b8484611105565b6001905092915050565b6000603554905090565b600061061f8484846112d0565b6000603460008673ffffffffffffffffffffffffffffffffffffffff1673ffffffffffffffffffffffffffffffffffffffff168152602001908152602001600020600061066a6110fd565b73ffffffffffffffffffffffffffffffffffffffff1673ffffffffffffffffffffffffffffffffffffffff168152602001908152602001600020549050828110156106ea576040517f08c379a00000000000000000000000000000000000000000000000000000000081526004016106e190612fa4565b60405180910390fd5b6106fe856106f66110fd565b858403611105565b60019150509392505050565b60006012905090565b600046905090565b6000610725611554565b905090565b60006107cc6107376110fd565b8484603460006107456110fd565b73ffffffffffffffffffffffffffffffffffffffff1673ffffffffffffffffffffffffffffffffffffffff16815260200190815260200160002060008873ffffffffffffffffffffffffffffffffffffffff1673ffffffffffffffffffffffffffffffffffffffff168152602001908152602001600020546107c79190613180565b611105565b6001905092915050565b600043821061081a576040517f08c379a000000000000000000000000000000000000000000000000000000000815260040161081190612e64565b60405180910390fd5b61086260cd60008573ffffffffffffffffffffffffffffffffffffffff1673ffffffffffffffffffffffffffffffffffffffff16815260200190815260200160002083611594565b905092915050565b61087482826116ec565b5050565b600060cc60008373ffffffffffffffffffffffffffffffffffffffff1673ffffffffffffffffffffffffffffffffffffffff16815260200190815260200160002060009054906101000a900473ffffffffffffffffffffffffffffffffffffffff169050919050565b6108f26108ec6110fd565b82611779565b50565b600061094260cd60008473ffffffffffffffffffffffffffffffffffffffff1673ffffffffffffffffffffffffffffffffffffffff16815260200190815260200160002080549050611893565b9050919050565b6000603360008373ffffffffffffffffffffffffffffffffffffffff1673ffffffffffffffffffffffffffffffffffffffff168152602001908152602001600020549050919050565b60006109db609960008473ffffffffffffffffffffffffffffffffffffffff1673ffffffffffffffffffffffffffffffffffffffff1681526020019081526020016000206118e6565b9050919050565b6000438210610a26576040517f08c379a0000000000000000000000000000000000000000000000000000000008152600401610a1d90612e64565b60405180910390fd5b610a3160ce83611594565b9050919050565b606060378054610a4790613305565b80601f0160208091040260200160405190810160405280929190818152602001828054610a7390613305565b8015610ac05780601f10610a9557610100808354040283529160200191610ac0565b820191906000526020600020905b815481529060010190602001808311610aa357829003601f168201915b5050505050905090565b60008060cd60008473ffffffffffffffffffffffffffffffffffffffff1673ffffffffffffffffffffffffffffffffffffffff16815260200190815260200160002080549050905060008114610bd85760cd60008473ffffffffffffffffffffffffffffffffffffffff1673ffffffffffffffffffffffffffffffffffffffff168152602001908152602001600020600182610b669190613207565b81548110610b9d577f4e487b7100000000000000000000000000000000000000000000000000000000600052603260045260246000fd5b9060005260206000200160000160049054906101000a90047bffffffffffffffffffffffffffffffffffffffffffffffffffffffff16610bdb565b60005b7bffffffffffffffffffffffffffffffffffffffffffffffffffffffff16915050919050565b610c0b82826118f4565b5050565b60008060346000610c1e6110fd565b73ffffffffffffffffffffffffffffffffffffffff1673ffffffffffffffffffffffffffffffffffffffff16815260200190815260200160002060008573ffffffffffffffffffffffffffffffffffffffff1673ffffffffffffffffffffffffffffffffffffffff16815260200190815260200160002054905082811015610cdb576040517f08c379a0000000000000000000000000000000000000000000000000000000008152600401610cd290613084565b60405180910390fd5b610cef610ce66110fd565b85858403611105565b600191505092915050565b6000610d0e610d076110fd565b84846112d0565b6001905092915050565b83421115610d5b576040517f08c379a0000000000000000000000000000000000000000000000000000000008152600401610d5290612e84565b60405180910390fd5b6000610dbd610db57fe48329057bfd03d55e49b547132e39cffd9c1820ad7b9d4c5307691425d15adf898989604051602001610d9a9493929190612d25565b60405160208183030381529060405280519060200120611912565b85858561192c565b9050610dc881611ab7565b8614610e09576040517f08c379a0000000000000000000000000000000000000000000000000000000008152600401610e0090612ec4565b60405180910390fd5b610e138188611779565b50505050505050565b83421115610e5f576040517f08c379a0000000000000000000000000000000000000000000000000000000008152600401610e5690612f04565b60405180910390fd5b6000609a54888888610e708c611ab7565b89604051602001610e8696959493929190612cc4565b6040516020818303038152906040528051906020012090506000610ea982611912565b90506000610eb98287878761192c565b90508973ffffffffffffffffffffffffffffffffffffffff168173ffffffffffffffffffffffffffffffffffffffff1614610f29576040517f08c379a0000000000000000000000000000000000000000000000000000000008152600401610f2090612f84565b60405180910390fd5b610f348a8a8a611105565b50505050505050505050565b6000603460008473ffffffffffffffffffffffffffffffffffffffff1673ffffffffffffffffffffffffffffffffffffffff16815260200190815260200160002060008373ffffffffffffffffffffffffffffffffffffffff1673ffffffffffffffffffffffffffffffffffffffff16815260200190815260200160002054905092915050565b610fcf612520565b60cd60008473ffffffffffffffffffffffffffffffffffffffff1673ffffffffffffffffffffffffffffffffffffffff1681526020019081526020016000208263ffffffff168154811061104c577f4e487b7100000000000000000000000000000000000000000000000000000000600052603260045260246000fd5b906000526020600020016040518060400160405290816000820160009054906101000a900463ffffffff1663ffffffff1663ffffffff1681526020016000820160049054906101000a90047bffffffffffffffffffffffffffffffffffffffffffffffffffffffff167bffffffffffffffffffffffffffffffffffffffffffffffffffffffff167bffffffffffffffffffffffffffffffffffffffffffffffffffffffff1681525050905092915050565b600033905090565b600073ffffffffffffffffffffffffffffffffffffffff168373ffffffffffffffffffffffffffffffffffffffff161415611175576040517f08c379a000000000000000000000000000000000000000000000000000000000815260040161116c90613064565b60405180910390fd5b600073ffffffffffffffffffffffffffffffffffffffff168273ffffffffffffffffffffffffffffffffffffffff1614156111e5576040517f08c379a00000000000000000000000000000000000000000000000000000000081526004016111dc90612ee4565b60405180910390fd5b80603460008573ffffffffffffffffffffffffffffffffffffffff1673ffffffffffffffffffffffffffffffffffffffff16815260200190815260200160002060008473ffffffffffffffffffffffffffffffffffffffff1673ffffffffffffffffffffffffffffffffffffffff168152602001908152602001600020819055508173ffffffffffffffffffffffffffffffffffffffff168373ffffffffffffffffffffffffffffffffffffffff167f8c5be1e5ebec7d5bd14f71427d1e84f3dd0314c0f7b2291e5b200ac8c7c3b925836040516112c391906130df565b60405180910390a3505050565b600073ffffffffffffffffffffffffffffffffffffffff168373ffffffffffffffffffffffffffffffffffffffff161415611340576040517f08c379a000000000000000000000000000000000000000000000000000000000815260040161133790613024565b60405180910390fd5b600073ffffffffffffffffffffffffffffffffffffffff168273ffffffffffffffffffffffffffffffffffffffff1614156113b0576040517f08c379a00000000000000000000000000000000000000000000000000000000081526004016113a790612e44565b60405180910390fd5b6113bb838383611b15565b6000603360008573ffffffffffffffffffffffffffffffffffffffff1673ffffffffffffffffffffffffffffffffffffffff16815260200190815260200160002054905081811015611442576040517f08c379a000000000000000000000000000000000000000000000000000000000815260040161143990612f24565b60405180910390fd5b818103603360008673ffffffffffffffffffffffffffffffffffffffff1673ffffffffffffffffffffffffffffffffffffffff1681526020019081526020016000208190555081603360008573ffffffffffffffffffffffffffffffffffffffff1673ffffffffffffffffffffffffffffffffffffffff16815260200190815260200160002060008282546114d79190613180565b925050819055508273ffffffffffffffffffffffffffffffffffffffff168473ffffffffffffffffffffffffffffffffffffffff167fddf252ad1be2c89b69c2b068fc378daa952ba7f163c4a11628f55a4df523b3ef8460405161153b91906130df565b60405180910390a361154e848484611b1a565b50505050565b600061158f7f8b73c3c69bb8fe3d512ecc4cf759cc79239f7b179b0ffacaa9a75d522b39400f611582611b45565b61158a611b4f565b611b59565b905090565b6000808380549050905060005b818110156116395760006115b58284611b93565b9050848682815481106115f1577f4e487b7100000000000000000000000000000000000000000000000000000000600052603260045260246000fd5b9060005260206000200160000160009054906101000a900463ffffffff1663ffffffff16111561162357809250611633565b6001816116309190613180565b91505b506115a1565b600082146116c1578460018361164f9190613207565b81548110611686577f4e487b7100000000000000000000000000000000000000000000000000000000600052603260045260246000fd5b9060005260206000200160000160049054906101000a90047bffffffffffffffffffffffffffffffffffffffffffffffffffffffff166116c4565b60005b7bffffffffffffffffffffffffffffffffffffffffffffffffffffffff169250505092915050565b6116f68282611bfa565b6116fe611d5b565b7bffffffffffffffffffffffffffffffffffffffffffffffffffffffff16611724610608565b1115611765576040517f08c379a000000000000000000000000000000000000000000000000000000000815260040161175c90612fc4565b60405180910390fd5b61177360ce611d7f83611d95565b50505050565b600061178483610878565b9050600061179184610949565b90508260cc60008673ffffffffffffffffffffffffffffffffffffffff1673ffffffffffffffffffffffffffffffffffffffff16815260200190815260200160002060006101000a81548173ffffffffffffffffffffffffffffffffffffffff021916908373ffffffffffffffffffffffffffffffffffffffff1602179055508273ffffffffffffffffffffffffffffffffffffffff168273ffffffffffffffffffffffffffffffffffffffff168573ffffffffffffffffffffffffffffffffffffffff167f3134e8a2e6d97e929a7e54011ea5485d7d196dd5f0ba4d4ef95803e8e3fc257f60405160405180910390a461188d82848361207f565b50505050565b600063ffffffff80168211156118de576040517f08c379a00000000000000000000000000000000000000000000000000000000081526004016118d590613044565b60405180910390fd5b819050919050565b600081600001549050919050565b6118fe8282612278565b61190c60ce61245183611d95565b50505050565b600061192561191f611554565b83612467565b9050919050565b60007f7fffffffffffffffffffffffffffffff5d576e7357a4501ddfe92f46681b20a08260001c1115611994576040517f08c379a000000000000000000000000000000000000000000000000000000000815260040161198b90612f44565b60405180910390fd5b601b8460ff1614806119a95750601c8460ff16145b6119e8576040517f08c379a00000000000000000000000000000000000000000000000000000000081526004016119df90612f64565b60405180910390fd5b600060018686868660405160008152602001604052604051611a0d9493929190612dbd565b6020604051602081039080840390855afa158015611a2f573d6000803e3d6000fd5b505050602060405103519050600073ffffffffffffffffffffffffffffffffffffffff168173ffffffffffffffffffffffffffffffffffffffff161415611aab576040517f08c379a0000000000000000000000000000000000000000000000000000000008152600401611aa290612e24565b60405180910390fd5b80915050949350505050565b600080609960008473ffffffffffffffffffffffffffffffffffffffff1673ffffffffffffffffffffffffffffffffffffffff1681526020019081526020016000209050611b04816118e6565b9150611b0f8161249a565b50919050565b505050565b611b258383836124b0565b611b40611b3184610878565b611b3a84610878565b8361207f565b505050565b6000606554905090565b6000606654905090565b60008383834630604051602001611b74959493929190612d6a565b6040516020818303038152906040528051906020012090509392505050565b600060028083611ba39190613341565b600285611bb09190613341565b611bba9190613180565b611bc491906131d6565b600283611bd191906131d6565b600285611bde91906131d6565b611be89190613180565b611bf29190613180565b905092915050565b600073ffffffffffffffffffffffffffffffffffffffff168273ffffffffffffffffffffffffffffffffffffffff161415611c6a576040517f08c379a0000000000000000000000000000000000000000000000000000000008152600401611c61906130a4565b60405180910390fd5b611c7660008383611b15565b8060356000828254611c889190613180565b9250508190555080603360008473ffffffffffffffffffffffffffffffffffffffff1673ffffffffffffffffffffffffffffffffffffffff1681526020019081526020016000206000828254611cde9190613180565b925050819055508173ffffffffffffffffffffffffffffffffffffffff16600073ffffffffffffffffffffffffffffffffffffffff167fddf252ad1be2c89b69c2b068fc378daa952ba7f163c4a11628f55a4df523b3ef83604051611d4391906130df565b60405180910390a3611d5760008383611b1a565b5050565b60007bffffffffffffffffffffffffffffffffffffffffffffffffffffffff905090565b60008183611d8d9190613180565b905092915050565b60008060008580549050905060008114611e295785600182611db79190613207565b81548110611dee577f4e487b7100000000000000000000000000000000000000000000000000000000600052603260045260246000fd5b9060005260206000200160000160049054906101000a90047bffffffffffffffffffffffffffffffffffffffffffffffffffffffff16611e2c565b60005b7bffffffffffffffffffffffffffffffffffffffffffffffffffffffff169250611e5a83858763ffffffff16565b9150600081118015611ed357504386600183611e769190613207565b81548110611ead577f4e487b7100000000000000000000000000000000000000000000000000000000600052603260045260246000fd5b9060005260206000200160000160009054906101000a900463ffffffff1663ffffffff16145b15611f8657611ee1826124b5565b86600183611eef9190613207565b81548110611f26577f4e487b7100000000000000000000000000000000000000000000000000000000600052603260045260246000fd5b9060005260206000200160000160046101000a8154817bffffffffffffffffffffffffffffffffffffffffffffffffffffffff02191690837bffffffffffffffffffffffffffffffffffffffffffffffffffffffff160217905550612076565b856040518060400160405280611f9b43611893565b63ffffffff168152602001611faf856124b5565b7bffffffffffffffffffffffffffffffffffffffffffffffffffffffff168152509080600181540180825580915050600190039060005260206000200160009091909190915060008201518160000160006101000a81548163ffffffff021916908363ffffffff16021790555060208201518160000160046101000a8154817bffffffffffffffffffffffffffffffffffffffffffffffffffffffff02191690837bffffffffffffffffffffffffffffffffffffffffffffffffffffffff16021790555050505b50935093915050565b8173ffffffffffffffffffffffffffffffffffffffff168373ffffffffffffffffffffffffffffffffffffffff16141580156120bb5750600081115b1561227357600073ffffffffffffffffffffffffffffffffffffffff168373ffffffffffffffffffffffffffffffffffffffff16146121995760008061214260cd60008773ffffffffffffffffffffffffffffffffffffffff1673ffffffffffffffffffffffffffffffffffffffff16815260200190815260200160002061245185611d95565b915091508473ffffffffffffffffffffffffffffffffffffffff167fdec2bacdd2f05b59de34da9b523dff8be42e5e38e818c82fdb0bae774387a724838360405161218e9291906130fa565b60405180910390a250505b600073ffffffffffffffffffffffffffffffffffffffff168273ffffffffffffffffffffffffffffffffffffffff16146122725760008061221b60cd60008673ffffffffffffffffffffffffffffffffffffffff1673ffffffffffffffffffffffffffffffffffffffff168152602001908152602001600020611d7f85611d95565b915091508373ffffffffffffffffffffffffffffffffffffffff167fdec2bacdd2f05b59de34da9b523dff8be42e5e38e818c82fdb0bae774387a72483836040516122679291906130fa565b60405180910390a250505b5b505050565b600073ffffffffffffffffffffffffffffffffffffffff168273ffffffffffffffffffffffffffffffffffffffff1614156122e8576040517f08c379a00000000000000000000000000000000000000000000000000000000081526004016122df90613004565b60405180910390fd5b6122f482600083611b15565b6000603360008473ffffffffffffffffffffffffffffffffffffffff1673ffffffffffffffffffffffffffffffffffffffff1681526020019081526020016000205490508181101561237b576040517f08c379a000000000000000000000000000000000000000000000000000000000815260040161237290612ea4565b60405180910390fd5b818103603360008573ffffffffffffffffffffffffffffffffffffffff1673ffffffffffffffffffffffffffffffffffffffff1681526020019081526020016000208190555081603560008282546123d39190613207565b92505081905550600073ffffffffffffffffffffffffffffffffffffffff168373ffffffffffffffffffffffffffffffffffffffff167fddf252ad1be2c89b69c2b068fc378daa952ba7f163c4a11628f55a4df523b3ef8460405161243891906130df565b60405180910390a361244c83600084611b1a565b505050565b6000818361245f9190613207565b905092915050565b6000828260405160200161247c929190612c3c565b60405160208183030381529060405280519060200120905092915050565b6001816000016000828254019250508190555050565b505050565b60007bffffffffffffffffffffffffffffffffffffffffffffffffffffffff8016821115612518576040517f08c379a000000000000000000000000000000000000000000000000000000000815260040161250f90612fe4565b60405180910390fd5b819050919050565b6040518060400160405280600063ffffffff16815260200160007bffffffffffffffffffffffffffffffffffffffffffffffffffffffff1681525090565b60008135905061256d816139aa565b92915050565b600081359050612582816139c1565b92915050565b600081359050612597816139d8565b92915050565b6000813590506125ac816139ef565b92915050565b6000813590506125c181613a06565b92915050565b6000602082840312156125d957600080fd5b60006125e78482850161255e565b91505092915050565b6000806040838503121561260357600080fd5b60006126118582860161255e565b92505060206126228582860161255e565b9150509250929050565b60008060006060848603121561264157600080fd5b600061264f8682870161255e565b93505060206126608682870161255e565b925050604061267186828701612588565b9150509250925092565b600080600080600080600060e0888a03121561269657600080fd5b60006126a48a828b0161255e565b97505060206126b58a828b0161255e565b96505060406126c68a828b01612588565b95505060606126d78a828b01612588565b94505060806126e88a828b016125b2565b93505060a06126f98a828b01612573565b92505060c061270a8a828b01612573565b91505092959891949750929550565b6000806040838503121561272c57600080fd5b600061273a8582860161255e565b925050602061274b85828601612588565b9150509250929050565b60008060008060008060c0878903121561276e57600080fd5b600061277c89828a0161255e565b965050602061278d89828a01612588565b955050604061279e89828a01612588565b94505060606127af89828a016125b2565b93505060806127c089828a01612573565b92505060a06127d189828a01612573565b9150509295509295509295565b600080604083850312156127f157600080fd5b60006127ff8582860161255e565b92505060206128108582860161259d565b9150509250929050565b60006020828403121561282c57600080fd5b600061283a84828501612588565b91505092915050565b61284c8161323b565b82525050565b61285b8161324d565b82525050565b61286a81613259565b82525050565b61288161287c82613259565b613337565b82525050565b600061289282613159565b61289c8185613164565b93506128ac8185602086016132d2565b6128b5816133ff565b840191505092915050565b60006128cd601883613164565b91506128d882613410565b602082019050919050565b60006128f0602383613164565b91506128fb82613439565b604082019050919050565b6000612913601f83613164565b915061291e82613488565b602082019050919050565b6000612936601d83613164565b9150612941826134b1565b602082019050919050565b6000612959602283613164565b9150612964826134da565b604082019050919050565b600061297c601983613164565b915061298782613529565b602082019050919050565b600061299f602283613164565b91506129aa82613552565b604082019050919050565b60006129c2600283613175565b91506129cd826135a1565b600282019050919050565b60006129e5601d83613164565b91506129f0826135ca565b602082019050919050565b6000612a08602683613164565b9150612a13826135f3565b604082019050919050565b6000612a2b602283613164565b9150612a3682613642565b604082019050919050565b6000612a4e602283613164565b9150612a5982613691565b604082019050919050565b6000612a71601e83613164565b9150612a7c826136e0565b602082019050919050565b6000612a94602883613164565b9150612a9f82613709565b604082019050919050565b6000612ab7603083613164565b9150612ac282613758565b604082019050919050565b6000612ada602783613164565b9150612ae5826137a7565b604082019050919050565b6000612afd602183613164565b9150612b08826137f6565b604082019050919050565b6000612b20602583613164565b9150612b2b82613845565b604082019050919050565b6000612b43602683613164565b9150612b4e82613894565b604082019050919050565b6000612b66602483613164565b9150612b71826138e3565b604082019050919050565b6000612b89602583613164565b9150612b9482613932565b604082019050919050565b6000612bac601f83613164565b9150612bb782613981565b602082019050919050565b604082016000820151612bd86000850182612c0f565b506020820151612beb6020850182612bf1565b50505050565b612bfa81613283565b82525050565b612c09816132ab565b82525050565b612c18816132b5565b82525050565b612c27816132b5565b82525050565b612c36816132c5565b82525050565b6000612c47826129b5565b9150612c538285612870565b602082019150612c638284612870565b6020820191508190509392505050565b6000602082019050612c886000830184612843565b92915050565b6000602082019050612ca36000830184612852565b92915050565b6000602082019050612cbe6000830184612861565b92915050565b600060c082019050612cd96000830189612861565b612ce66020830188612843565b612cf36040830187612843565b612d006060830186612c00565b612d0d6080830185612c00565b612d1a60a0830184612c00565b979650505050505050565b6000608082019050612d3a6000830187612861565b612d476020830186612843565b612d546040830185612c00565b612d616060830184612c00565b95945050505050565b600060a082019050612d7f6000830188612861565b612d8c6020830187612861565b612d996040830186612861565b612da66060830185612c00565b612db36080830184612843565b9695505050505050565b6000608082019050612dd26000830187612861565b612ddf6020830186612c2d565b612dec6040830185612861565b612df96060830184612861565b95945050505050565b60006020820190508181036000830152612e1c8184612887565b905092915050565b60006020820190508181036000830152612e3d816128c0565b9050919050565b60006020820190508181036000830152612e5d816128e3565b9050919050565b60006020820190508181036000830152612e7d81612906565b9050919050565b60006020820190508181036000830152612e9d81612929565b9050919050565b60006020820190508181036000830152612ebd8161294c565b9050919050565b60006020820190508181036000830152612edd8161296f565b9050919050565b60006020820190508181036000830152612efd81612992565b9050919050565b60006020820190508181036000830152612f1d816129d8565b9050919050565b60006020820190508181036000830152612f3d816129fb565b9050919050565b60006020820190508181036000830152612f5d81612a1e565b9050919050565b60006020820190508181036000830152612f7d81612a41565b9050919050565b60006020820190508181036000830152612f9d81612a64565b9050919050565b60006020820190508181036000830152612fbd81612a87565b9050919050565b60006020820190508181036000830152612fdd81612aaa565b9050919050565b60006020820190508181036000830152612ffd81612acd565b9050919050565b6000602082019050818103600083015261301d81612af0565b9050919050565b6000602082019050818103600083015261303d81612b13565b9050919050565b6000602082019050818103600083015261305d81612b36565b9050919050565b6000602082019050818103600083015261307d81612b59565b9050919050565b6000602082019050818103600083015261309d81612b7c565b9050919050565b600060208201905081810360008301526130bd81612b9f565b9050919050565b60006040820190506130d96000830184612bc2565b92915050565b60006020820190506130f46000830184612c00565b92915050565b600060408201905061310f6000830185612c00565b61311c6020830184612c00565b9392505050565b60006020820190506131386000830184612c1e565b92915050565b60006020820190506131536000830184612c2d565b92915050565b600081519050919050565b600082825260208201905092915050565b600081905092915050565b600061318b826132ab565b9150613196836132ab565b9250827fffffffffffffffffffffffffffffffffffffffffffffffffffffffffffffffff038211156131cb576131ca613372565b5b828201905092915050565b60006131e1826132ab565b91506131ec836132ab565b9250826131fc576131fb6133a1565b5b828204905092915050565b6000613212826132ab565b915061321d836132ab565b9250828210156132305761322f613372565b5b828203905092915050565b600061324682613263565b9050919050565b60008115159050919050565b6000819050919050565b600073ffffffffffffffffffffffffffffffffffffffff82169050919050565b60007bffffffffffffffffffffffffffffffffffffffffffffffffffffffff82169050919050565b6000819050919050565b600063ffffffff82169050919050565b600060ff82169050919050565b60005b838110156132f05780820151818401526020810190506132d5565b838111156132ff576000848401525b50505050565b6000600282049050600182168061331d57607f821691505b60208210811415613331576133306133d0565b5b50919050565b6000819050919050565b600061334c826132ab565b9150613357836132ab565b925082613367576133666133a1565b5b828206905092915050565b7f4e487b7100000000000000000000000000000000000000000000000000000000600052601160045260246000fd5b7f4e487b7100000000000000000000000000000000000000000000000000000000600052601260045260246000fd5b7f4e487b7100000000000000000000000000000000000000000000000000000000600052602260045260246000fd5b6000601f19601f8301169050919050565b7f45434453413a20696e76616c6964207369676e61747572650000000000000000600082015250565b7f45524332303a207472616e7366657220746f20746865207a65726f206164647260008201527f6573730000000000000000000000000000000000000000000000000000000000602082015250565b7f4552433230566f7465733a20626c6f636b206e6f7420796574206d696e656400600082015250565b7f4552433230566f7465733a207369676e61747572652065787069726564000000600082015250565b7f45524332303a206275726e20616d6f756e7420657863656564732062616c616e60008201527f6365000000000000000000000000000000000000000000000000000000000000602082015250565b7f4552433230566f7465733a20696e76616c6964206e6f6e636500000000000000600082015250565b7f45524332303a20617070726f766520746f20746865207a65726f20616464726560008201527f7373000000000000000000000000000000000000000000000000000000000000602082015250565b7f1901000000000000000000000000000000000000000000000000000000000000600082015250565b7f45524332305065726d69743a206578706972656420646561646c696e65000000600082015250565b7f45524332303a207472616e7366657220616d6f756e742065786365656473206260008201527f616c616e63650000000000000000000000000000000000000000000000000000602082015250565b7f45434453413a20696e76616c6964207369676e6174757265202773272076616c60008201527f7565000000000000000000000000000000000000000000000000000000000000602082015250565b7f45434453413a20696e76616c6964207369676e6174757265202776272076616c60008201527f7565000000000000000000000000000000000000000000000000000000000000602082015250565b7f45524332305065726d69743a20696e76616c6964207369676e61747572650000600082015250565b7f45524332303a207472616e7366657220616d6f756e742065786365656473206160008201527f6c6c6f77616e6365000000000000000000000000000000000000000000000000602082015250565b7f4552433230566f7465733a20746f74616c20737570706c79207269736b73206f60008201527f766572666c6f77696e6720766f74657300000000000000000000000000000000602082015250565b7f53616665436173743a2076616c756520646f65736e27742066697420696e203260008201527f3234206269747300000000000000000000000000000000000000000000000000602082015250565b7f45524332303a206275726e2066726f6d20746865207a65726f2061646472657360008201527f7300000000000000000000000000000000000000000000000000000000000000602082015250565b7f45524332303a207472616e736665722066726f6d20746865207a65726f20616460008201527f6472657373000000000000000000000000000000000000000000000000000000602082015250565b7f53616665436173743a2076616c756520646f65736e27742066697420696e203360008201527f3220626974730000000000000000000000000000000000000000000000000000602082015250565b7f45524332303a20617070726f76652066726f6d20746865207a65726f2061646460008201527f7265737300000000000000000000000000000000000000000000000000000000602082015250565b7f45524332303a2064656372656173656420616c6c6f77616e63652062656c6f7760008201527f207a65726f000000000000000000000000000000000000000000000000000000602082015250565b7f45524332303a206d696e7420746f20746865207a65726f206164647265737300600082015250565b6139b38161323b565b81146139be57600080fd5b50565b6139ca81613259565b81146139d557600080fd5b50565b6139e1816132ab565b81146139ec57600080fd5b50565b6139f8816132b5565b8114613a0357600080fd5b50565b613a0f816132c5565b8114613a1a57600080fd5b5056fea264697066735822122030b462483e76c5e5bc219c81c5c90ea4797a32021b4eee80cd313b2215309b1d64736f6c63430008040033",
  "linkReferences": {},
  "deployedLinkReferences": {}
}