{
  "_format": "hh-sol-artifact-1",
  "contractName": "ERC20FlashMintMockUpgradeableWithInit",
  "sourceName": "contracts/src/OpenZeppelin/upgradeable/mocks/WithInit.sol",
  "abi": [
    {
      "inputs": [
        {
          "internalType": "string",
          "name": "name",
          "type": "string"
        },
        {
          "internalType": "string",
          "name": "symbol",
          "type": "string"
        },
        {
          "internalType": "address",
          "name": "initialAccount",
          "type": "address"
        },
        {
          "internalType": "uint256",
          "name": "initialBalance",
          "type": "uint256"
        }
      ],
      "stateMutability": "payable",
      "type": "constructor"
    },
    {
      "anonymous": false,
      "inputs": [
        {
          "indexed": true,
          "internalType": "address",
          "name": "owner",
          "type": "address"
        },
        {
          "indexed": true,
          "internalType": "address",
          "name": "spender",
          "type": "address"
        },
        {
          "indexed": false,
          "internalType": "uint256",
          "name": "value",
          "type": "uint256"
        }
      ],
      "name": "Approval",
      "type": "event"
    },
    {
      "anonymous": false,
      "inputs": [
        {
          "indexed": true,
          "internalType": "address",
          "name": "from",
          "type": "address"
        },
        {
          "indexed": true,
          "internalType": "address",
          "name": "to",
          "type": "address"
        },
        {
          "indexed": false,
          "internalType": "uint256",
          "name": "value",
          "type": "uint256"
        }
      ],
      "name": "Transfer",
      "type": "event"
    },
    {
      "inputs": [
        {
          "internalType": "address",
          "name": "owner",
          "type": "address"
        },
        {
          "internalType": "address",
          "name": "spender",
          "type": "address"
        }
      ],
      "name": "allowance",
      "outputs": [
        {
          "internalType": "uint256",
          "name": "",
          "type": "uint256"
        }
      ],
      "stateMutability": "view",
      "type": "function"
    },
    {
      "inputs": [
        {
          "internalType": "address",
          "name": "spender",
          "type": "address"
        },
        {
          "internalType": "uint256",
          "name": "amount",
          "type": "uint256"
        }
      ],
      "name": "approve",
      "outputs": [
        {
          "internalType": "bool",
          "name": "",
          "type": "bool"
        }
      ],
      "stateMutability": "nonpayable",
      "type": "function"
    },
    {
      "inputs": [
        {
          "internalType": "address",
          "name": "account",
          "type": "address"
        }
      ],
      "name": "balanceOf",
      "outputs": [
        {
          "internalType": "uint256",
          "name": "",
          "type": "uint256"
        }
      ],
      "stateMutability": "view",
      "type": "function"
    },
    {
      "inputs": [],
      "name": "decimals",
      "outputs": [
        {
          "internalType": "uint8",
          "name": "",
          "type": "uint8"
        }
      ],
      "stateMutability": "view",
      "type": "function"
    },
    {
      "inputs": [
        {
          "internalType": "address",
          "name": "spender",
          "type": "address"
        },
        {
          "internalType": "uint256",
          "name": "subtractedValue",
          "type": "uint256"
        }
      ],
      "name": "decreaseAllowance",
      "outputs": [
        {
          "internalType": "bool",
          "name": "",
          "type": "bool"
        }
      ],
      "stateMutability": "nonpayable",
      "type": "function"
    },
    {
      "inputs": [
        {
          "internalType": "address",
          "name": "token",
          "type": "address"
        },
        {
          "internalType": "uint256",
          "name": "amount",
          "type": "uint256"
        }
      ],
      "name": "flashFee",
      "outputs": [
        {
          "internalType": "uint256",
          "name": "",
          "type": "uint256"
        }
      ],
      "stateMutability": "view",
      "type": "function"
    },
    {
      "inputs": [
        {
          "internalType": "contract IERC3156FlashBorrowerUpgradeable",
          "name": "receiver",
          "type": "address"
        },
        {
          "internalType": "address",
          "name": "token",
          "type": "address"
        },
        {
          "internalType": "uint256",
          "name": "amount",
          "type": "uint256"
        },
        {
          "internalType": "bytes",
          "name": "data",
          "type": "bytes"
        }
      ],
      "name": "flashLoan",
      "outputs": [
        {
          "internalType": "bool",
          "name": "",
          "type": "bool"
        }
      ],
      "stateMutability": "nonpayable",
      "type": "function"
    },
    {
      "inputs": [
        {
          "internalType": "address",
          "name": "spender",
          "type": "address"
        },
        {
          "internalType": "uint256",
          "name": "addedValue",
          "type": "uint256"
        }
      ],
      "name": "increaseAllowance",
      "outputs": [
        {
          "internalType": "bool",
          "name": "",
          "type": "bool"
        }
      ],
      "stateMutability": "nonpayable",
      "type": "function"
    },
    {
      "inputs": [
        {
          "internalType": "address",
          "name": "token",
          "type": "address"
        }
      ],
      "name": "maxFlashLoan",
      "outputs": [
        {
          "internalType": "uint256",
          "name": "",
          "type": "uint256"
        }
      ],
      "stateMutability": "view",
      "type": "function"
    },
    {
      "inputs": [],
      "name": "name",
      "outputs": [
        {
          "internalType": "string",
          "name": "",
          "type": "string"
        }
      ],
      "stateMutability": "view",
      "type": "function"
    },
    {
      "inputs": [],
      "name": "symbol",
      "outputs": [
        {
          "internalType": "string",
          "name": "",
          "type": "string"
        }
      ],
      "stateMutability": "view",
      "type": "function"
    },
    {
      "inputs": [],
      "name": "totalSupply",
      "outputs": [
        {
          "internalType": "uint256",
          "name": "",
          "type": "uint256"
        }
      ],
      "stateMutability": "view",
      "type": "function"
    },
    {
      "inputs": [
        {
          "internalType": "address",
          "name": "recipient",
          "type": "address"
        },
        {
          "internalType": "uint256",
          "name": "amount",
          "type": "uint256"
        }
      ],
      "name": "transfer",
      "outputs": [
        {
          "internalType": "bool",
          "name": "",
          "type": "bool"
        }
      ],
      "stateMutability": "nonpayable",
      "type": "function"
    },
    {
      "inputs": [
        {
          "internalType": "address",
          "name": "sender",
          "type": "address"
        },
        {
          "internalType": "address",
          "name": "recipient",
          "type": "address"
        },
        {
          "internalType": "uint256",
          "name": "amount",
          "type": "uint256"
        }
      ],
      "name": "transferFrom",
      "outputs": [
        {
          "internalType": "bool",
          "name": "",
          "type": "bool"
        }
      ],
      "stateMutability": "nonpayable",
      "type": "function"
    }
  ],
  "bytecode": "0x608060405260405162002c2738038062002c2783398181016040528101906200002991906200080a565b6200003d848484846200004760201b60201c565b5050505062000c5f565b600060019054906101000a900460ff16806200006e575060008054906101000a900460ff16155b620000b0576040517f08c379a0000000000000000000000000000000000000000000000000000000008152600401620000a79062000907565b60405180910390fd5b60008060019054906101000a900460ff16159050801562000101576001600060016101000a81548160ff02191690831515021790555060016000806101000a81548160ff0219169083151502179055505b620001116200017060201b60201c565b6200012385856200024f60201b60201c565b620001336200036260201b60201c565b62000147858585856200044160201b60201c565b8015620001695760008060016101000a81548160ff0219169083151502179055505b5050505050565b600060019054906101000a900460ff168062000197575060008054906101000a900460ff16155b620001d9576040517f08c379a0000000000000000000000000000000000000000000000000000000008152600401620001d09062000907565b60405180910390fd5b60008060019054906101000a900460ff1615905080156200022a576001600060016101000a81548160ff02191690831515021790555060016000806101000a81548160ff0219169083151502179055505b80156200024c5760008060016101000a81548160ff0219169083151502179055505b50565b600060019054906101000a900460ff168062000276575060008054906101000a900460ff16155b620002b8576040517f08c379a0000000000000000000000000000000000000000000000000000000008152600401620002af9062000907565b60405180910390fd5b60008060019054906101000a900460ff16159050801562000309576001600060016101000a81548160ff02191690831515021790555060016000806101000a81548160ff0219169083151502179055505b826036908051906020019062000321929190620006ba565b5081603790805190602001906200033a929190620006ba565b5080156200035d5760008060016101000a81548160ff0219169083151502179055505b505050565b600060019054906101000a900460ff168062000389575060008054906101000a900460ff16155b620003cb576040517f08c379a0000000000000000000000000000000000000000000000000000000008152600401620003c29062000907565b60405180910390fd5b60008060019054906101000a900460ff1615905080156200041c576001600060016101000a81548160ff02191690831515021790555060016000806101000a81548160ff0219169083151502179055505b80156200043e5760008060016101000a81548160ff0219169083151502179055505b50565b600060019054906101000a900460ff168062000468575060008054906101000a900460ff16155b620004aa576040517f08c379a0000000000000000000000000000000000000000000000000000000008152600401620004a19062000907565b60405180910390fd5b60008060019054906101000a900460ff161590508015620004fb576001600060016101000a81548160ff02191690831515021790555060016000806101000a81548160ff0219169083151502179055505b6200050d83836200053660201b60201c565b80156200052f5760008060016101000a81548160ff0219169083151502179055505b5050505050565b600073ffffffffffffffffffffffffffffffffffffffff168273ffffffffffffffffffffffffffffffffffffffff161415620005a9576040517f08c379a0000000000000000000000000000000000000000000000000000000008152600401620005a09062000929565b60405180910390fd5b620005bd60008383620006b060201b60201c565b8060356000828254620005d19190620009d8565b9250508190555080603360008473ffffffffffffffffffffffffffffffffffffffff1673ffffffffffffffffffffffffffffffffffffffff1681526020019081526020016000206000828254620006299190620009d8565b925050819055508173ffffffffffffffffffffffffffffffffffffffff16600073ffffffffffffffffffffffffffffffffffffffff167fddf252ad1be2c89b69c2b068fc378daa952ba7f163c4a11628f55a4df523b3ef836040516200069091906200094b565b60405180910390a3620006ac60008383620006b560201b60201c565b5050565b505050565b505050565b828054620006c89062000aa9565b90600052602060002090601f016020900481019282620006ec576000855562000738565b82601f106200070757805160ff191683800117855562000738565b8280016001018555821562000738579182015b82811115620007375782518255916020019190600101906200071a565b5b5090506200074791906200074b565b5090565b5b80821115620007665760008160009055506001016200074c565b5090565b6000620007816200077b8462000991565b62000968565b9050828152602081018484840111156200079a57600080fd5b620007a784828562000a73565b509392505050565b600081519050620007c08162000c2b565b92915050565b600082601f830112620007d857600080fd5b8151620007ea8482602086016200076a565b91505092915050565b600081519050620008048162000c45565b92915050565b600080600080608085870312156200082157600080fd5b600085015167ffffffffffffffff8111156200083c57600080fd5b6200084a87828801620007c6565b945050602085015167ffffffffffffffff8111156200086857600080fd5b6200087687828801620007c6565b93505060406200088987828801620007af565b92505060606200089c87828801620007f3565b91505092959194509250565b6000620008b7602e83620009c7565b9150620008c48262000bb3565b604082019050919050565b6000620008de601f83620009c7565b9150620008eb8262000c02565b602082019050919050565b620009018162000a69565b82525050565b600060208201905081810360008301526200092281620008a8565b9050919050565b600060208201905081810360008301526200094481620008cf565b9050919050565b6000602082019050620009626000830184620008f6565b92915050565b60006200097462000987565b905062000982828262000adf565b919050565b6000604051905090565b600067ffffffffffffffff821115620009af57620009ae62000b73565b5b620009ba8262000ba2565b9050602081019050919050565b600082825260208201905092915050565b6000620009e58262000a69565b9150620009f28362000a69565b9250827fffffffffffffffffffffffffffffffffffffffffffffffffffffffffffffffff0382111562000a2a5762000a2962000b15565b5b828201905092915050565b600062000a428262000a49565b9050919050565b600073ffffffffffffffffffffffffffffffffffffffff82169050919050565b6000819050919050565b60005b8381101562000a9357808201518184015260208101905062000a76565b8381111562000aa3576000848401525b50505050565b6000600282049050600182168062000ac257607f821691505b6020821081141562000ad95762000ad862000b44565b5b50919050565b62000aea8262000ba2565b810181811067ffffffffffffffff8211171562000b0c5762000b0b62000b73565b5b80604052505050565b7f4e487b7100000000000000000000000000000000000000000000000000000000600052601160045260246000fd5b7f4e487b7100000000000000000000000000000000000000000000000000000000600052602260045260246000fd5b7f4e487b7100000000000000000000000000000000000000000000000000000000600052604160045260246000fd5b6000601f19601f8301169050919050565b7f496e697469616c697a61626c653a20636f6e747261637420697320616c72656160008201527f647920696e697469616c697a6564000000000000000000000000000000000000602082015250565b7f45524332303a206d696e7420746f20746865207a65726f206164647265737300600082015250565b62000c368162000a35565b811462000c4257600080fd5b50565b62000c508162000a69565b811462000c5c57600080fd5b50565b611fb88062000c6f6000396000f3fe608060405234801561001057600080fd5b50600436106100ea5760003560e01c8063613255ab1161008c578063a457c2d711610066578063a457c2d714610287578063a9059cbb146102b7578063d9d98ce4146102e7578063dd62ed3e14610317576100ea565b8063613255ab1461020957806370a082311461023957806395d89b4114610269576100ea565b806323b872dd116100c857806323b872dd1461015b578063313ce5671461018b57806339509351146101a95780635cffe9de146101d9576100ea565b806306fdde03146100ef578063095ea7b31461010d57806318160ddd1461013d575b600080fd5b6100f7610347565b604051610104919061176c565b60405180910390f35b610127600480360381019061012291906113a7565b6103d9565b6040516101349190611751565b60405180910390f35b6101456103f7565b604051610152919061192e565b60405180910390f35b61017560048036038101906101709190611358565b610401565b6040516101829190611751565b60405180910390f35b6101936104f9565b6040516101a09190611949565b60405180910390f35b6101c360048036038101906101be91906113a7565b610502565b6040516101d09190611751565b60405180910390f35b6101f360048036038101906101ee919061140c565b6105ae565b6040516102009190611751565b60405180910390f35b610223600480360381019061021e91906112f3565b61075e565b604051610230919061192e565b60405180910390f35b610253600480360381019061024e91906112f3565b6107d5565b604051610260919061192e565b60405180910390f35b61027161081e565b60405161027e919061176c565b60405180910390f35b6102a1600480360381019061029c91906113a7565b6108b0565b6040516102ae9190611751565b60405180910390f35b6102d160048036038101906102cc91906113a7565b61099b565b6040516102de9190611751565b60405180910390f35b61030160048036038101906102fc91906113a7565b6109b9565b60405161030e919061192e565b60405180910390f35b610331600480360381019061032c919061131c565b610a33565b60405161033e919061192e565b60405180910390f35b60606036805461035690611ace565b80601f016020809104026020016040519081016040528092919081815260200182805461038290611ace565b80156103cf5780601f106103a4576101008083540402835291602001916103cf565b820191906000526020600020905b8154815290600101906020018083116103b257829003601f168201915b5050505050905090565b60006103ed6103e6610aba565b8484610ac2565b6001905092915050565b6000603554905090565b600061040e848484610c8d565b6000603460008673ffffffffffffffffffffffffffffffffffffffff1673ffffffffffffffffffffffffffffffffffffffff1681526020019081526020016000206000610459610aba565b73ffffffffffffffffffffffffffffffffffffffff1673ffffffffffffffffffffffffffffffffffffffff168152602001908152602001600020549050828110156104d9576040517f08c379a00000000000000000000000000000000000000000000000000000000081526004016104d09061184e565b60405180910390fd5b6104ed856104e5610aba565b858403610ac2565b60019150509392505050565b60006012905090565b60006105a461050f610aba565b84846034600061051d610aba565b73ffffffffffffffffffffffffffffffffffffffff1673ffffffffffffffffffffffffffffffffffffffff16815260200190815260200160002060008873ffffffffffffffffffffffffffffffffffffffff1673ffffffffffffffffffffffffffffffffffffffff1681526020019081526020016000205461059f9190611991565b610ac2565b6001905092915050565b6000806105bb86866109b9565b90506105c78786610f11565b7f439148f0bbc682ca079e46d6e2c2f0c1e3b820f1a291b069d8882abf8cf18dd98773ffffffffffffffffffffffffffffffffffffffff166323e30c8b338989868a8a6040518763ffffffff1660e01b815260040161062b969594939291906116f5565b602060405180830381600087803b15801561064557600080fd5b505af1158015610659573d6000803e3d6000fd5b505050506040513d601f19601f8201168201806040525081019061067d91906113e3565b146106bd576040517f08c379a00000000000000000000000000000000000000000000000000000000081526004016106b49061180e565b60405180910390fd5b60006106c98830610a33565b905081866106d79190611991565b811015610719576040517f08c379a0000000000000000000000000000000000000000000000000000000008152600401610710906118ce565b60405180910390fd5b61073a883084898561072b91906119e7565b61073591906119e7565b610ac2565b61074f88838861074a9190611991565b611072565b60019250505095945050505050565b60003073ffffffffffffffffffffffffffffffffffffffff168273ffffffffffffffffffffffffffffffffffffffff161461079a5760006107ce565b6107a26103f7565b7fffffffffffffffffffffffffffffffffffffffffffffffffffffffffffffffff6107cd91906119e7565b5b9050919050565b6000603360008373ffffffffffffffffffffffffffffffffffffffff1673ffffffffffffffffffffffffffffffffffffffff168152602001908152602001600020549050919050565b60606037805461082d90611ace565b80601f016020809104026020016040519081016040528092919081815260200182805461085990611ace565b80156108a65780601f1061087b576101008083540402835291602001916108a6565b820191906000526020600020905b81548152906001019060200180831161088957829003601f168201915b5050505050905090565b600080603460006108bf610aba565b73ffffffffffffffffffffffffffffffffffffffff1673ffffffffffffffffffffffffffffffffffffffff16815260200190815260200160002060008573ffffffffffffffffffffffffffffffffffffffff1673ffffffffffffffffffffffffffffffffffffffff1681526020019081526020016000205490508281101561097c576040517f08c379a0000000000000000000000000000000000000000000000000000000008152600401610973906118ee565b60405180910390fd5b610990610987610aba565b85858403610ac2565b600191505092915050565b60006109af6109a8610aba565b8484610c8d565b6001905092915050565b60003073ffffffffffffffffffffffffffffffffffffffff168373ffffffffffffffffffffffffffffffffffffffff1614610a29576040517f08c379a0000000000000000000000000000000000000000000000000000000008152600401610a209061182e565b60405180910390fd5b6000905092915050565b6000603460008473ffffffffffffffffffffffffffffffffffffffff1673ffffffffffffffffffffffffffffffffffffffff16815260200190815260200160002060008373ffffffffffffffffffffffffffffffffffffffff1673ffffffffffffffffffffffffffffffffffffffff16815260200190815260200160002054905092915050565b600033905090565b600073ffffffffffffffffffffffffffffffffffffffff168373ffffffffffffffffffffffffffffffffffffffff161415610b32576040517f08c379a0000000000000000000000000000000000000000000000000000000008152600401610b29906118ae565b60405180910390fd5b600073ffffffffffffffffffffffffffffffffffffffff168273ffffffffffffffffffffffffffffffffffffffff161415610ba2576040517f08c379a0000000000000000000000000000000000000000000000000000000008152600401610b99906117ce565b60405180910390fd5b80603460008573ffffffffffffffffffffffffffffffffffffffff1673ffffffffffffffffffffffffffffffffffffffff16815260200190815260200160002060008473ffffffffffffffffffffffffffffffffffffffff1673ffffffffffffffffffffffffffffffffffffffff168152602001908152602001600020819055508173ffffffffffffffffffffffffffffffffffffffff168373ffffffffffffffffffffffffffffffffffffffff167f8c5be1e5ebec7d5bd14f71427d1e84f3dd0314c0f7b2291e5b200ac8c7c3b92583604051610c80919061192e565b60405180910390a3505050565b600073ffffffffffffffffffffffffffffffffffffffff168373ffffffffffffffffffffffffffffffffffffffff161415610cfd576040517f08c379a0000000000000000000000000000000000000000000000000000000008152600401610cf49061188e565b60405180910390fd5b600073ffffffffffffffffffffffffffffffffffffffff168273ffffffffffffffffffffffffffffffffffffffff161415610d6d576040517f08c379a0000000000000000000000000000000000000000000000000000000008152600401610d649061178e565b60405180910390fd5b610d7883838361124b565b6000603360008573ffffffffffffffffffffffffffffffffffffffff1673ffffffffffffffffffffffffffffffffffffffff16815260200190815260200160002054905081811015610dff576040517f08c379a0000000000000000000000000000000000000000000000000000000008152600401610df6906117ee565b60405180910390fd5b818103603360008673ffffffffffffffffffffffffffffffffffffffff1673ffffffffffffffffffffffffffffffffffffffff1681526020019081526020016000208190555081603360008573ffffffffffffffffffffffffffffffffffffffff1673ffffffffffffffffffffffffffffffffffffffff1681526020019081526020016000206000828254610e949190611991565b925050819055508273ffffffffffffffffffffffffffffffffffffffff168473ffffffffffffffffffffffffffffffffffffffff167fddf252ad1be2c89b69c2b068fc378daa952ba7f163c4a11628f55a4df523b3ef84604051610ef8919061192e565b60405180910390a3610f0b848484611250565b50505050565b600073ffffffffffffffffffffffffffffffffffffffff168273ffffffffffffffffffffffffffffffffffffffff161415610f81576040517f08c379a0000000000000000000000000000000000000000000000000000000008152600401610f789061190e565b60405180910390fd5b610f8d6000838361124b565b8060356000828254610f9f9190611991565b9250508190555080603360008473ffffffffffffffffffffffffffffffffffffffff1673ffffffffffffffffffffffffffffffffffffffff1681526020019081526020016000206000828254610ff59190611991565b925050819055508173ffffffffffffffffffffffffffffffffffffffff16600073ffffffffffffffffffffffffffffffffffffffff167fddf252ad1be2c89b69c2b068fc378daa952ba7f163c4a11628f55a4df523b3ef8360405161105a919061192e565b60405180910390a361106e60008383611250565b5050565b600073ffffffffffffffffffffffffffffffffffffffff168273ffffffffffffffffffffffffffffffffffffffff1614156110e2576040517f08c379a00000000000000000000000000000000000000000000000000000000081526004016110d99061186e565b60405180910390fd5b6110ee8260008361124b565b6000603360008473ffffffffffffffffffffffffffffffffffffffff1673ffffffffffffffffffffffffffffffffffffffff16815260200190815260200160002054905081811015611175576040517f08c379a000000000000000000000000000000000000000000000000000000000815260040161116c906117ae565b60405180910390fd5b818103603360008573ffffffffffffffffffffffffffffffffffffffff1673ffffffffffffffffffffffffffffffffffffffff1681526020019081526020016000208190555081603560008282546111cd91906119e7565b92505081905550600073ffffffffffffffffffffffffffffffffffffffff168373ffffffffffffffffffffffffffffffffffffffff167fddf252ad1be2c89b69c2b068fc378daa952ba7f163c4a11628f55a4df523b3ef84604051611232919061192e565b60405180910390a361124683600084611250565b505050565b505050565b505050565b60008135905061126481611f26565b92915050565b60008151905061127981611f3d565b92915050565b60008083601f84011261129157600080fd5b8235905067ffffffffffffffff8111156112aa57600080fd5b6020830191508360018202830111156112c257600080fd5b9250929050565b6000813590506112d881611f54565b92915050565b6000813590506112ed81611f6b565b92915050565b60006020828403121561130557600080fd5b600061131384828501611255565b91505092915050565b6000806040838503121561132f57600080fd5b600061133d85828601611255565b925050602061134e85828601611255565b9150509250929050565b60008060006060848603121561136d57600080fd5b600061137b86828701611255565b935050602061138c86828701611255565b925050604061139d868287016112de565b9150509250925092565b600080604083850312156113ba57600080fd5b60006113c885828601611255565b92505060206113d9858286016112de565b9150509250929050565b6000602082840312156113f557600080fd5b60006114038482850161126a565b91505092915050565b60008060008060006080868803121561142457600080fd5b6000611432888289016112c9565b955050602061144388828901611255565b9450506040611454888289016112de565b935050606086013567ffffffffffffffff81111561147157600080fd5b61147d8882890161127f565b92509250509295509295909350565b61149581611a1b565b82525050565b6114a481611a2d565b82525050565b60006114b6838561196f565b93506114c3838584611a8c565b6114cc83611b5e565b840190509392505050565b60006114e282611964565b6114ec8185611980565b93506114fc818560208601611a9b565b61150581611b5e565b840191505092915050565b600061151d602383611980565b915061152882611b6f565b604082019050919050565b6000611540602283611980565b915061154b82611bbe565b604082019050919050565b6000611563602283611980565b915061156e82611c0d565b604082019050919050565b6000611586602683611980565b915061159182611c5c565b604082019050919050565b60006115a9602483611980565b91506115b482611cab565b604082019050919050565b60006115cc601b83611980565b91506115d782611cfa565b602082019050919050565b60006115ef602883611980565b91506115fa82611d23565b604082019050919050565b6000611612602183611980565b915061161d82611d72565b604082019050919050565b6000611635602583611980565b915061164082611dc1565b604082019050919050565b6000611658602483611980565b915061166382611e10565b604082019050919050565b600061167b602f83611980565b915061168682611e5f565b604082019050919050565b600061169e602583611980565b91506116a982611eae565b604082019050919050565b60006116c1601f83611980565b91506116cc82611efd565b602082019050919050565b6116e081611a75565b82525050565b6116ef81611a7f565b82525050565b600060a08201905061170a600083018961148c565b611717602083018861148c565b61172460408301876116d7565b61173160608301866116d7565b81810360808301526117448184866114aa565b9050979650505050505050565b6000602082019050611766600083018461149b565b92915050565b6000602082019050818103600083015261178681846114d7565b905092915050565b600060208201905081810360008301526117a781611510565b9050919050565b600060208201905081810360008301526117c781611533565b9050919050565b600060208201905081810360008301526117e781611556565b9050919050565b6000602082019050818103600083015261180781611579565b9050919050565b600060208201905081810360008301526118278161159c565b9050919050565b60006020820190508181036000830152611847816115bf565b9050919050565b60006020820190508181036000830152611867816115e2565b9050919050565b6000602082019050818103600083015261188781611605565b9050919050565b600060208201905081810360008301526118a781611628565b9050919050565b600060208201905081810360008301526118c78161164b565b9050919050565b600060208201905081810360008301526118e78161166e565b9050919050565b6000602082019050818103600083015261190781611691565b9050919050565b60006020820190508181036000830152611927816116b4565b9050919050565b600060208201905061194360008301846116d7565b92915050565b600060208201905061195e60008301846116e6565b92915050565b600081519050919050565b600082825260208201905092915050565b600082825260208201905092915050565b600061199c82611a75565b91506119a783611a75565b9250827fffffffffffffffffffffffffffffffffffffffffffffffffffffffffffffffff038211156119dc576119db611b00565b5b828201905092915050565b60006119f282611a75565b91506119fd83611a75565b925082821015611a1057611a0f611b00565b5b828203905092915050565b6000611a2682611a55565b9050919050565b60008115159050919050565b6000819050919050565b6000611a4e82611a1b565b9050919050565b600073ffffffffffffffffffffffffffffffffffffffff82169050919050565b6000819050919050565b600060ff82169050919050565b82818337600083830152505050565b60005b83811015611ab9578082015181840152602081019050611a9e565b83811115611ac8576000848401525b50505050565b60006002820490506001821680611ae657607f821691505b60208210811415611afa57611af9611b2f565b5b50919050565b7f4e487b7100000000000000000000000000000000000000000000000000000000600052601160045260246000fd5b7f4e487b7100000000000000000000000000000000000000000000000000000000600052602260045260246000fd5b6000601f19601f8301169050919050565b7f45524332303a207472616e7366657220746f20746865207a65726f206164647260008201527f6573730000000000000000000000000000000000000000000000000000000000602082015250565b7f45524332303a206275726e20616d6f756e7420657863656564732062616c616e60008201527f6365000000000000000000000000000000000000000000000000000000000000602082015250565b7f45524332303a20617070726f766520746f20746865207a65726f20616464726560008201527f7373000000000000000000000000000000000000000000000000000000000000602082015250565b7f45524332303a207472616e7366657220616d6f756e742065786365656473206260008201527f616c616e63650000000000000000000000000000000000000000000000000000602082015250565b7f4552433230466c6173684d696e743a20696e76616c69642072657475726e207660008201527f616c756500000000000000000000000000000000000000000000000000000000602082015250565b7f4552433230466c6173684d696e743a2077726f6e6720746f6b656e0000000000600082015250565b7f45524332303a207472616e7366657220616d6f756e742065786365656473206160008201527f6c6c6f77616e6365000000000000000000000000000000000000000000000000602082015250565b7f45524332303a206275726e2066726f6d20746865207a65726f2061646472657360008201527f7300000000000000000000000000000000000000000000000000000000000000602082015250565b7f45524332303a207472616e736665722066726f6d20746865207a65726f20616460008201527f6472657373000000000000000000000000000000000000000000000000000000602082015250565b7f45524332303a20617070726f76652066726f6d20746865207a65726f2061646460008201527f7265737300000000000000000000000000000000000000000000000000000000602082015250565b7f4552433230466c6173684d696e743a20616c6c6f77616e636520646f6573206e60008201527f6f7420616c6c6f7720726566756e640000000000000000000000000000000000602082015250565b7f45524332303a2064656372656173656420616c6c6f77616e63652062656c6f7760008201527f207a65726f000000000000000000000000000000000000000000000000000000602082015250565b7f45524332303a206d696e7420746f20746865207a65726f206164647265737300600082015250565b611f2f81611a1b565b8114611f3a57600080fd5b50565b611f4681611a39565b8114611f5157600080fd5b50565b611f5d81611a43565b8114611f6857600080fd5b50565b611f7481611a75565b8114611f7f57600080fd5b5056fea26469706673582212206299a03d75ab709568b1d348cac5d765bb3ae8ef277c00a5a5d6f0c62639953564736f6c63430008040033",
  "linkReferences": {},
  "deployedLinkReferences": {}
}