{
  "_format": "hh-sol-artifact-1",
  "contractName": "ERC20VotesCompMockUpgradeableWithInit",
  "sourceName": "contracts/src/OpenZeppelin/upgradeable/mocks/WithInit.sol",
  "abi": [
    {
      "inputs": [
        {
          "internalType": "string",
          "name": "name",
          "type": "string"
        },
        {
          "internalType": "string",
          "name": "symbol",
          "type": "string"
        }
      ],
      "stateMutability": "payable",
      "type": "constructor"
    },
    {
      "anonymous": false,
      "inputs": [
        {
          "indexed": true,
          "internalType": "address",
          "name": "owner",
          "type": "address"
        },
        {
          "indexed": true,
          "internalType": "address",
          "name": "spender",
          "type": "address"
        },
        {
          "indexed": false,
          "internalType": "uint256",
          "name": "value",
          "type": "uint256"
        }
      ],
      "name": "Approval",
      "type": "event"
    },
    {
      "anonymous": false,
      "inputs": [
        {
          "indexed": true,
          "internalType": "address",
          "name": "delegator",
          "type": "address"
        },
        {
          "indexed": true,
          "internalType": "address",
          "name": "fromDelegate",
          "type": "address"
        },
        {
          "indexed": true,
          "internalType": "address",
          "name": "toDelegate",
          "type": "address"
        }
      ],
      "name": "DelegateChanged",
      "type": "event"
    },
    {
      "anonymous": false,
      "inputs": [
        {
          "indexed": true,
          "internalType": "address",
          "name": "delegate",
          "type": "address"
        },
        {
          "indexed": false,
          "internalType": "uint256",
          "name": "previousBalance",
          "type": "uint256"
        },
        {
          "indexed": false,
          "internalType": "uint256",
          "name": "newBalance",
          "type": "uint256"
        }
      ],
      "name": "DelegateVotesChanged",
      "type": "event"
    },
    {
      "anonymous": false,
      "inputs": [
        {
          "indexed": true,
          "internalType": "address",
          "name": "from",
          "type": "address"
        },
        {
          "indexed": true,
          "internalType": "address",
          "name": "to",
          "type": "address"
        },
        {
          "indexed": false,
          "internalType": "uint256",
          "name": "value",
          "type": "uint256"
        }
      ],
      "name": "Transfer",
      "type": "event"
    },
    {
      "inputs": [],
      "name": "DOMAIN_SEPARATOR",
      "outputs": [
        {
          "internalType": "bytes32",
          "name": "",
          "type": "bytes32"
        }
      ],
      "stateMutability": "view",
      "type": "function"
    },
    {
      "inputs": [
        {
          "internalType": "address",
          "name": "owner",
          "type": "address"
        },
        {
          "internalType": "address",
          "name": "spender",
          "type": "address"
        }
      ],
      "name": "allowance",
      "outputs": [
        {
          "internalType": "uint256",
          "name": "",
          "type": "uint256"
        }
      ],
      "stateMutability": "view",
      "type": "function"
    },
    {
      "inputs": [
        {
          "internalType": "address",
          "name": "spender",
          "type": "address"
        },
        {
          "internalType": "uint256",
          "name": "amount",
          "type": "uint256"
        }
      ],
      "name": "approve",
      "outputs": [
        {
          "internalType": "bool",
          "name": "",
          "type": "bool"
        }
      ],
      "stateMutability": "nonpayable",
      "type": "function"
    },
    {
      "inputs": [
        {
          "internalType": "address",
          "name": "account",
          "type": "address"
        }
      ],
      "name": "balanceOf",
      "outputs": [
        {
          "internalType": "uint256",
          "name": "",
          "type": "uint256"
        }
      ],
      "stateMutability": "view",
      "type": "function"
    },
    {
      "inputs": [
        {
          "internalType": "address",
          "name": "account",
          "type": "address"
        },
        {
          "internalType": "uint256",
          "name": "amount",
          "type": "uint256"
        }
      ],
      "name": "burn",
      "outputs": [],
      "stateMutability": "nonpayable",
      "type": "function"
    },
    {
      "inputs": [
        {
          "internalType": "address",
          "name": "account",
          "type": "address"
        },
        {
          "internalType": "uint32",
          "name": "pos",
          "type": "uint32"
        }
      ],
      "name": "checkpoints",
      "outputs": [
        {
          "components": [
            {
              "internalType": "uint32",
              "name": "fromBlock",
              "type": "uint32"
            },
            {
              "internalType": "uint224",
              "name": "votes",
              "type": "uint224"
            }
          ],
          "internalType": "struct ERC20VotesUpgradeable.Checkpoint",
          "name": "",
          "type": "tuple"
        }
      ],
      "stateMutability": "view",
      "type": "function"
    },
    {
      "inputs": [],
      "name": "decimals",
      "outputs": [
        {
          "internalType": "uint8",
          "name": "",
          "type": "uint8"
        }
      ],
      "stateMutability": "view",
      "type": "function"
    },
    {
      "inputs": [
        {
          "internalType": "address",
          "name": "spender",
          "type": "address"
        },
        {
          "internalType": "uint256",
          "name": "subtractedValue",
          "type": "uint256"
        }
      ],
      "name": "decreaseAllowance",
      "outputs": [
        {
          "internalType": "bool",
          "name": "",
          "type": "bool"
        }
      ],
      "stateMutability": "nonpayable",
      "type": "function"
    },
    {
      "inputs": [
        {
          "internalType": "address",
          "name": "delegatee",
          "type": "address"
        }
      ],
      "name": "delegate",
      "outputs": [],
      "stateMutability": "nonpayable",
      "type": "function"
    },
    {
      "inputs": [
        {
          "internalType": "address",
          "name": "delegatee",
          "type": "address"
        },
        {
          "internalType": "uint256",
          "name": "nonce",
          "type": "uint256"
        },
        {
          "internalType": "uint256",
          "name": "expiry",
          "type": "uint256"
        },
        {
          "internalType": "uint8",
          "name": "v",
          "type": "uint8"
        },
        {
          "internalType": "bytes32",
          "name": "r",
          "type": "bytes32"
        },
        {
          "internalType": "bytes32",
          "name": "s",
          "type": "bytes32"
        }
      ],
      "name": "delegateBySig",
      "outputs": [],
      "stateMutability": "nonpayable",
      "type": "function"
    },
    {
      "inputs": [
        {
          "internalType": "address",
          "name": "account",
          "type": "address"
        }
      ],
      "name": "delegates",
      "outputs": [
        {
          "internalType": "address",
          "name": "",
          "type": "address"
        }
      ],
      "stateMutability": "view",
      "type": "function"
    },
    {
      "inputs": [],
      "name": "getChainId",
      "outputs": [
        {
          "internalType": "uint256",
          "name": "",
          "type": "uint256"
        }
      ],
      "stateMutability": "view",
      "type": "function"
    },
    {
      "inputs": [
        {
          "internalType": "address",
          "name": "account",
          "type": "address"
        }
      ],
      "name": "getCurrentVotes",
      "outputs": [
        {
          "internalType": "uint96",
          "name": "",
          "type": "uint96"
        }
      ],
      "stateMutability": "view",
      "type": "function"
    },
    {
      "inputs": [
        {
          "internalType": "uint256",
          "name": "blockNumber",
          "type": "uint256"
        }
      ],
      "name": "getPastTotalSupply",
      "outputs": [
        {
          "internalType": "uint256",
          "name": "",
          "type": "uint256"
        }
      ],
      "stateMutability": "view",
      "type": "function"
    },
    {
      "inputs": [
        {
          "internalType": "address",
          "name": "account",
          "type": "address"
        },
        {
          "internalType": "uint256",
          "name": "blockNumber",
          "type": "uint256"
        }
      ],
      "name": "getPastVotes",
      "outputs": [
        {
          "internalType": "uint256",
          "name": "",
          "type": "uint256"
        }
      ],
      "stateMutability": "view",
      "type": "function"
    },
    {
      "inputs": [
        {
          "internalType": "address",
          "name": "account",
          "type": "address"
        },
        {
          "internalType": "uint256",
          "name": "blockNumber",
          "type": "uint256"
        }
      ],
      "name": "getPriorVotes",
      "outputs": [
        {
          "internalType": "uint96",
          "name": "",
          "type": "uint96"
        }
      ],
      "stateMutability": "view",
      "type": "function"
    },
    {
      "inputs": [
        {
          "internalType": "address",
          "name": "account",
          "type": "address"
        }
      ],
      "name": "getVotes",
      "outputs": [
        {
          "internalType": "uint256",
          "name": "",
          "type": "uint256"
        }
      ],
      "stateMutability": "view",
      "type": "function"
    },
    {
      "inputs": [
        {
          "internalType": "address",
          "name": "spender",
          "type": "address"
        },
        {
          "internalType": "uint256",
          "name": "addedValue",
          "type": "uint256"
        }
      ],
      "name": "increaseAllowance",
      "outputs": [
        {
          "internalType": "bool",
          "name": "",
          "type": "bool"
        }
      ],
      "stateMutability": "nonpayable",
      "type": "function"
    },
    {
      "inputs": [
        {
          "internalType": "address",
          "name": "account",
          "type": "address"
        },
        {
          "internalType": "uint256",
          "name": "amount",
          "type": "uint256"
        }
      ],
      "name": "mint",
      "outputs": [],
      "stateMutability": "nonpayable",
      "type": "function"
    },
    {
      "inputs": [],
      "name": "name",
      "outputs": [
        {
          "internalType": "string",
          "name": "",
          "type": "string"
        }
      ],
      "stateMutability": "view",
      "type": "function"
    },
    {
      "inputs": [
        {
          "internalType": "address",
          "name": "owner",
          "type": "address"
        }
      ],
      "name": "nonces",
      "outputs": [
        {
          "internalType": "uint256",
          "name": "",
          "type": "uint256"
        }
      ],
      "stateMutability": "view",
      "type": "function"
    },
    {
      "inputs": [
        {
          "internalType": "address",
          "name": "account",
          "type": "address"
        }
      ],
      "name": "numCheckpoints",
      "outputs": [
        {
          "internalType": "uint32",
          "name": "",
          "type": "uint32"
        }
      ],
      "stateMutability": "view",
      "type": "function"
    },
    {
      "inputs": [
        {
          "internalType": "address",
          "name": "owner",
          "type": "address"
        },
        {
          "internalType": "address",
          "name": "spender",
          "type": "address"
        },
        {
          "internalType": "uint256",
          "name": "value",
          "type": "uint256"
        },
        {
          "internalType": "uint256",
          "name": "deadline",
          "type": "uint256"
        },
        {
          "internalType": "uint8",
          "name": "v",
          "type": "uint8"
        },
        {
          "internalType": "bytes32",
          "name": "r",
          "type": "bytes32"
        },
        {
          "internalType": "bytes32",
          "name": "s",
          "type": "bytes32"
        }
      ],
      "name": "permit",
      "outputs": [],
      "stateMutability": "nonpayable",
      "type": "function"
    },
    {
      "inputs": [],
      "name": "symbol",
      "outputs": [
        {
          "internalType": "string",
          "name": "",
          "type": "string"
        }
      ],
      "stateMutability": "view",
      "type": "function"
    },
    {
      "inputs": [],
      "name": "totalSupply",
      "outputs": [
        {
          "internalType": "uint256",
          "name": "",
          "type": "uint256"
        }
      ],
      "stateMutability": "view",
      "type": "function"
    },
    {
      "inputs": [
        {
          "internalType": "address",
          "name": "recipient",
          "type": "address"
        },
        {
          "internalType": "uint256",
          "name": "amount",
          "type": "uint256"
        }
      ],
      "name": "transfer",
      "outputs": [
        {
          "internalType": "bool",
          "name": "",
          "type": "bool"
        }
      ],
      "stateMutability": "nonpayable",
      "type": "function"
    },
    {
      "inputs": [
        {
          "internalType": "address",
          "name": "sender",
          "type": "address"
        },
        {
          "internalType": "address",
          "name": "recipient",
          "type": "address"
        },
        {
          "internalType": "uint256",
          "name": "amount",
          "type": "uint256"
        }
      ],
      "name": "transferFrom",
      "outputs": [
        {
          "internalType": "bool",
          "name": "",
          "type": "bool"
        }
      ],
      "stateMutability": "nonpayable",
      "type": "function"
    }
  ],
  "bytecode": "0x60806040526040516200486f3803806200486f833981810160405281019062000029919062000993565b6200003b82826200004360201b60201c565b505062000c1f565b600060019054906101000a900460ff16806200006a575060008054906101000a900460ff16155b620000ac576040517f08c379a0000000000000000000000000000000000000000000000000000000008152600401620000a39062000a2d565b60405180910390fd5b60008060019054906101000a900460ff161590508015620000fd576001600060016101000a81548160ff02191690831515021790555060016000806101000a81548160ff0219169083151502179055505b6200010d620001d060201b60201c565b6200011f8383620002af60201b60201c565b62000166836040518060400160405280600181526020017f3100000000000000000000000000000000000000000000000000000000000000815250620003c260201b60201c565b6200017783620004cb60201b60201c565b62000187620005d260201b60201c565b62000197620006b160201b60201c565b620001a983836200079060201b60201c565b8015620001cb5760008060016101000a81548160ff0219169083151502179055505b505050565b600060019054906101000a900460ff1680620001f7575060008054906101000a900460ff16155b62000239576040517f08c379a0000000000000000000000000000000000000000000000000000000008152600401620002309062000a2d565b60405180910390fd5b60008060019054906101000a900460ff1615905080156200028a576001600060016101000a81548160ff02191690831515021790555060016000806101000a81548160ff0219169083151502179055505b8015620002ac5760008060016101000a81548160ff0219169083151502179055505b50565b600060019054906101000a900460ff1680620002d6575060008054906101000a900460ff16155b62000318576040517f08c379a00000000000000000000000000000000000000000000000000000000081526004016200030f9062000a2d565b60405180910390fd5b60008060019054906101000a900460ff16159050801562000369576001600060016101000a81548160ff02191690831515021790555060016000806101000a81548160ff0219169083151502179055505b82603690805190602001906200038192919062000871565b5081603790805190602001906200039a92919062000871565b508015620003bd5760008060016101000a81548160ff0219169083151502179055505b505050565b600060019054906101000a900460ff1680620003e9575060008054906101000a900460ff16155b6200042b576040517f08c379a0000000000000000000000000000000000000000000000000000000008152600401620004229062000a2d565b60405180910390fd5b60008060019054906101000a900460ff1615905080156200047c576001600060016101000a81548160ff02191690831515021790555060016000806101000a81548160ff0219169083151502179055505b600083805190602001209050600083805190602001209050816065819055508060668190555050508015620004c65760008060016101000a81548160ff0219169083151502179055505b505050565b600060019054906101000a900460ff1680620004f2575060008054906101000a900460ff16155b62000534576040517f08c379a00000000000000000000000000000000000000000000000000000000081526004016200052b9062000a2d565b60405180910390fd5b60008060019054906101000a900460ff16159050801562000585576001600060016101000a81548160ff02191690831515021790555060016000806101000a81548160ff0219169083151502179055505b7f6e71edae12b1b97f4d1f60370fef10105fa2faae0126114a169c64845d6126c9609a819055508015620005ce5760008060016101000a81548160ff0219169083151502179055505b5050565b600060019054906101000a900460ff1680620005f9575060008054906101000a900460ff16155b6200063b576040517f08c379a0000000000000000000000000000000000000000000000000000000008152600401620006329062000a2d565b60405180910390fd5b60008060019054906101000a900460ff1615905080156200068c576001600060016101000a81548160ff02191690831515021790555060016000806101000a81548160ff0219169083151502179055505b8015620006ae5760008060016101000a81548160ff0219169083151502179055505b50565b600060019054906101000a900460ff1680620006d8575060008054906101000a900460ff16155b6200071a576040517f08c379a0000000000000000000000000000000000000000000000000000000008152600401620007119062000a2d565b60405180910390fd5b60008060019054906101000a900460ff1615905080156200076b576001600060016101000a81548160ff02191690831515021790555060016000806101000a81548160ff0219169083151502179055505b80156200078d5760008060016101000a81548160ff0219169083151502179055505b50565b600060019054906101000a900460ff1680620007b7575060008054906101000a900460ff16155b620007f9576040517f08c379a0000000000000000000000000000000000000000000000000000000008152600401620007f09062000a2d565b60405180910390fd5b60008060019054906101000a900460ff1615905080156200084a576001600060016101000a81548160ff02191690831515021790555060016000806101000a81548160ff0219169083151502179055505b80156200086c5760008060016101000a81548160ff0219169083151502179055505b505050565b8280546200087f9062000af5565b90600052602060002090601f016020900481019282620008a35760008555620008ef565b82601f10620008be57805160ff1916838001178555620008ef565b82800160010185558215620008ef579182015b82811115620008ee578251825591602001919060010190620008d1565b5b509050620008fe919062000902565b5090565b5b808211156200091d57600081600090555060010162000903565b5090565b600062000938620009328462000a78565b62000a4f565b9050828152602081018484840111156200095157600080fd5b6200095e84828562000abf565b509392505050565b600082601f8301126200097857600080fd5b81516200098a84826020860162000921565b91505092915050565b60008060408385031215620009a757600080fd5b600083015167ffffffffffffffff811115620009c257600080fd5b620009d08582860162000966565b925050602083015167ffffffffffffffff811115620009ee57600080fd5b620009fc8582860162000966565b9150509250929050565b600062000a15602e8362000aae565b915062000a228262000bd0565b604082019050919050565b6000602082019050818103600083015262000a488162000a06565b9050919050565b600062000a5b62000a6e565b905062000a69828262000b2b565b919050565b6000604051905090565b600067ffffffffffffffff82111562000a965762000a9562000b90565b5b62000aa18262000bbf565b9050602081019050919050565b600082825260208201905092915050565b60005b8381101562000adf57808201518184015260208101905062000ac2565b8381111562000aef576000848401525b50505050565b6000600282049050600182168062000b0e57607f821691505b6020821081141562000b255762000b2462000b61565b5b50919050565b62000b368262000bbf565b810181811067ffffffffffffffff8211171562000b585762000b5762000b90565b5b80604052505050565b7f4e487b7100000000000000000000000000000000000000000000000000000000600052602260045260246000fd5b7f4e487b7100000000000000000000000000000000000000000000000000000000600052604160045260246000fd5b6000601f19601f8301169050919050565b7f496e697469616c697a61626c653a20636f6e747261637420697320616c72656160008201527f647920696e697469616c697a6564000000000000000000000000000000000000602082015250565b613c408062000c2f6000396000f3fe608060405234801561001057600080fd5b50600436106101a95760003560e01c806370a08231116100f9578063a457c2d711610097578063c3cda52011610071578063c3cda52014610556578063d505accf14610572578063dd62ed3e1461058e578063f1127ed8146105be576101a9565b8063a457c2d7146104c6578063a9059cbb146104f6578063b4b5ea5714610526576101a9565b80638e539e8c116100d35780638e539e8c1461042c57806395d89b411461045c5780639ab24eb01461047a5780639dc29fac146104aa576101a9565b806370a082311461039c578063782d6fe1146103cc5780637ecebe00146103fc576101a9565b80633644e5151161016657806340c10f191161014057806340c10f1914610304578063587cde1e146103205780635c19a95c146103505780636fcfff451461036c576101a9565b80633644e5151461028657806339509351146102a45780633a46b1a8146102d4576101a9565b806306fdde03146101ae578063095ea7b3146101cc57806318160ddd146101fc57806323b872dd1461021a578063313ce5671461024a5780633408e47014610268575b600080fd5b6101b66105ee565b6040516101c39190612f4d565b60405180910390f35b6101e660048036038101906101e19190612832565b610680565b6040516101f39190612dd9565b60405180910390f35b61020461069e565b604051610211919061324a565b60405180910390f35b610234600480360381019061022f9190612745565b6106a8565b6040516102419190612dd9565b60405180910390f35b6102526107a0565b60405161025f91906132a9565b60405180910390f35b6102706107a9565b60405161027d919061324a565b60405180910390f35b61028e6107b1565b60405161029b9190612df4565b60405180910390f35b6102be60048036038101906102b99190612832565b6107c0565b6040516102cb9190612dd9565b60405180910390f35b6102ee60048036038101906102e99190612832565b61086c565b6040516102fb919061324a565b60405180910390f35b61031e60048036038101906103199190612832565b610900565b005b61033a600480360381019061033591906126e0565b61090e565b6040516103479190612dbe565b60405180910390f35b61036a600480360381019061036591906126e0565b610977565b005b610386600480360381019061038191906126e0565b61098b565b604051610393919061328e565b60405180910390f35b6103b660048036038101906103b191906126e0565b6109df565b6040516103c3919061324a565b60405180910390f35b6103e660048036038101906103e19190612832565b610a28565b6040516103f391906132c4565b60405180910390f35b610416600480360381019061041191906126e0565b610a44565b604051610423919061324a565b60405180910390f35b61044660048036038101906104419190612933565b610a94565b604051610453919061324a565b60405180910390f35b610464610aea565b6040516104719190612f4d565b60405180910390f35b610494600480360381019061048f91906126e0565b610b7c565b6040516104a1919061324a565b60405180910390f35b6104c460048036038101906104bf9190612832565b610cb3565b005b6104e060048036038101906104db9190612832565b610cc1565b6040516104ed9190612dd9565b60405180910390f35b610510600480360381019061050b9190612832565b610dac565b60405161051d9190612dd9565b60405180910390f35b610540600480360381019061053b91906126e0565b610dca565b60405161054d91906132c4565b60405180910390f35b610570600480360381019061056b919061286e565b610de4565b005b61058c60048036038101906105879190612794565b610ee8565b005b6105a860048036038101906105a39190612709565b61100c565b6040516105b5919061324a565b60405180910390f35b6105d860048036038101906105d391906128f7565b611093565b6040516105e5919061322f565b60405180910390f35b6060603680546105fd906134a3565b80601f0160208091040260200160405190810160405280929190818152602001828054610629906134a3565b80156106765780601f1061064b57610100808354040283529160200191610676565b820191906000526020600020905b81548152906001019060200180831161065957829003601f168201915b5050505050905090565b600061069461068d6111c9565b84846111d1565b6001905092915050565b6000603554905090565b60006106b584848461139c565b6000603460008673ffffffffffffffffffffffffffffffffffffffff1673ffffffffffffffffffffffffffffffffffffffff16815260200190815260200160002060006107006111c9565b73ffffffffffffffffffffffffffffffffffffffff1673ffffffffffffffffffffffffffffffffffffffff16815260200190815260200160002054905082811015610780576040517f08c379a00000000000000000000000000000000000000000000000000000000081526004016107779061310f565b60405180910390fd5b6107948561078c6111c9565b8584036111d1565b60019150509392505050565b60006012905090565b600046905090565b60006107bb611620565b905090565b60006108626107cd6111c9565b8484603460006107db6111c9565b73ffffffffffffffffffffffffffffffffffffffff1673ffffffffffffffffffffffffffffffffffffffff16815260200190815260200160002060008873ffffffffffffffffffffffffffffffffffffffff1673ffffffffffffffffffffffffffffffffffffffff1681526020019081526020016000205461085d9190613306565b6111d1565b6001905092915050565b60004382106108b0576040517f08c379a00000000000000000000000000000000000000000000000000000000081526004016108a790612fcf565b60405180910390fd5b6108f860cd60008573ffffffffffffffffffffffffffffffffffffffff1673ffffffffffffffffffffffffffffffffffffffff16815260200190815260200160002083611660565b905092915050565b61090a82826117b8565b5050565b600060cc60008373ffffffffffffffffffffffffffffffffffffffff1673ffffffffffffffffffffffffffffffffffffffff16815260200190815260200160002060009054906101000a900473ffffffffffffffffffffffffffffffffffffffff169050919050565b6109886109826111c9565b82611845565b50565b60006109d860cd60008473ffffffffffffffffffffffffffffffffffffffff1673ffffffffffffffffffffffffffffffffffffffff1681526020019081526020016000208054905061195f565b9050919050565b6000603360008373ffffffffffffffffffffffffffffffffffffffff1673ffffffffffffffffffffffffffffffffffffffff168152602001908152602001600020549050919050565b6000610a3c610a37848461086c565b6119b2565b905092915050565b6000610a8d609960008473ffffffffffffffffffffffffffffffffffffffff1673ffffffffffffffffffffffffffffffffffffffff168152602001908152602001600020611a0d565b9050919050565b6000438210610ad8576040517f08c379a0000000000000000000000000000000000000000000000000000000008152600401610acf90612fcf565b60405180910390fd5b610ae360ce83611660565b9050919050565b606060378054610af9906134a3565b80601f0160208091040260200160405190810160405280929190818152602001828054610b25906134a3565b8015610b725780601f10610b4757610100808354040283529160200191610b72565b820191906000526020600020905b815481529060010190602001808311610b5557829003601f168201915b5050505050905090565b60008060cd60008473ffffffffffffffffffffffffffffffffffffffff1673ffffffffffffffffffffffffffffffffffffffff16815260200190815260200160002080549050905060008114610c8a5760cd60008473ffffffffffffffffffffffffffffffffffffffff1673ffffffffffffffffffffffffffffffffffffffff168152602001908152602001600020600182610c18919061338d565b81548110610c4f577f4e487b7100000000000000000000000000000000000000000000000000000000600052603260045260246000fd5b9060005260206000200160000160049054906101000a90047bffffffffffffffffffffffffffffffffffffffffffffffffffffffff16610c8d565b60005b7bffffffffffffffffffffffffffffffffffffffffffffffffffffffff16915050919050565b610cbd8282611a1b565b5050565b60008060346000610cd06111c9565b73ffffffffffffffffffffffffffffffffffffffff1673ffffffffffffffffffffffffffffffffffffffff16815260200190815260200160002060008573ffffffffffffffffffffffffffffffffffffffff1673ffffffffffffffffffffffffffffffffffffffff16815260200190815260200160002054905082811015610d8d576040517f08c379a0000000000000000000000000000000000000000000000000000000008152600401610d84906131ef565b60405180910390fd5b610da1610d986111c9565b858584036111d1565b600191505092915050565b6000610dc0610db96111c9565b848461139c565b6001905092915050565b6000610ddd610dd883610b7c565b6119b2565b9050919050565b83421115610e27576040517f08c379a0000000000000000000000000000000000000000000000000000000008152600401610e1e90612fef565b60405180910390fd5b6000610e89610e817fe48329057bfd03d55e49b547132e39cffd9c1820ad7b9d4c5307691425d15adf898989604051602001610e669493929190612e70565b60405160208183030381529060405280519060200120611a39565b858585611a53565b9050610e9481611bde565b8614610ed5576040517f08c379a0000000000000000000000000000000000000000000000000000000008152600401610ecc9061302f565b60405180910390fd5b610edf8188611845565b50505050505050565b83421115610f2b576040517f08c379a0000000000000000000000000000000000000000000000000000000008152600401610f229061306f565b60405180910390fd5b6000609a54888888610f3c8c611bde565b89604051602001610f5296959493929190612e0f565b6040516020818303038152906040528051906020012090506000610f7582611a39565b90506000610f8582878787611a53565b90508973ffffffffffffffffffffffffffffffffffffffff168173ffffffffffffffffffffffffffffffffffffffff1614610ff5576040517f08c379a0000000000000000000000000000000000000000000000000000000008152600401610fec906130ef565b60405180910390fd5b6110008a8a8a6111d1565b50505050505050505050565b6000603460008473ffffffffffffffffffffffffffffffffffffffff1673ffffffffffffffffffffffffffffffffffffffff16815260200190815260200160002060008373ffffffffffffffffffffffffffffffffffffffff1673ffffffffffffffffffffffffffffffffffffffff16815260200190815260200160002054905092915050565b61109b612639565b60cd60008473ffffffffffffffffffffffffffffffffffffffff1673ffffffffffffffffffffffffffffffffffffffff1681526020019081526020016000208263ffffffff1681548110611118577f4e487b7100000000000000000000000000000000000000000000000000000000600052603260045260246000fd5b906000526020600020016040518060400160405290816000820160009054906101000a900463ffffffff1663ffffffff1663ffffffff1681526020016000820160049054906101000a90047bffffffffffffffffffffffffffffffffffffffffffffffffffffffff167bffffffffffffffffffffffffffffffffffffffffffffffffffffffff167bffffffffffffffffffffffffffffffffffffffffffffffffffffffff1681525050905092915050565b600033905090565b600073ffffffffffffffffffffffffffffffffffffffff168373ffffffffffffffffffffffffffffffffffffffff161415611241576040517f08c379a0000000000000000000000000000000000000000000000000000000008152600401611238906131cf565b60405180910390fd5b600073ffffffffffffffffffffffffffffffffffffffff168273ffffffffffffffffffffffffffffffffffffffff1614156112b1576040517f08c379a00000000000000000000000000000000000000000000000000000000081526004016112a89061304f565b60405180910390fd5b80603460008573ffffffffffffffffffffffffffffffffffffffff1673ffffffffffffffffffffffffffffffffffffffff16815260200190815260200160002060008473ffffffffffffffffffffffffffffffffffffffff1673ffffffffffffffffffffffffffffffffffffffff168152602001908152602001600020819055508173ffffffffffffffffffffffffffffffffffffffff168373ffffffffffffffffffffffffffffffffffffffff167f8c5be1e5ebec7d5bd14f71427d1e84f3dd0314c0f7b2291e5b200ac8c7c3b9258360405161138f919061324a565b60405180910390a3505050565b600073ffffffffffffffffffffffffffffffffffffffff168373ffffffffffffffffffffffffffffffffffffffff16141561140c576040517f08c379a00000000000000000000000000000000000000000000000000000000081526004016114039061318f565b60405180910390fd5b600073ffffffffffffffffffffffffffffffffffffffff168273ffffffffffffffffffffffffffffffffffffffff16141561147c576040517f08c379a000000000000000000000000000000000000000000000000000000000815260040161147390612f8f565b60405180910390fd5b611487838383611c3c565b6000603360008573ffffffffffffffffffffffffffffffffffffffff1673ffffffffffffffffffffffffffffffffffffffff1681526020019081526020016000205490508181101561150e576040517f08c379a00000000000000000000000000000000000000000000000000000000081526004016115059061308f565b60405180910390fd5b818103603360008673ffffffffffffffffffffffffffffffffffffffff1673ffffffffffffffffffffffffffffffffffffffff1681526020019081526020016000208190555081603360008573ffffffffffffffffffffffffffffffffffffffff1673ffffffffffffffffffffffffffffffffffffffff16815260200190815260200160002060008282546115a39190613306565b925050819055508273ffffffffffffffffffffffffffffffffffffffff168473ffffffffffffffffffffffffffffffffffffffff167fddf252ad1be2c89b69c2b068fc378daa952ba7f163c4a11628f55a4df523b3ef84604051611607919061324a565b60405180910390a361161a848484611c41565b50505050565b600061165b7f8b73c3c69bb8fe3d512ecc4cf759cc79239f7b179b0ffacaa9a75d522b39400f61164e611c6c565b611656611c76565b611c80565b905090565b6000808380549050905060005b818110156117055760006116818284611cba565b9050848682815481106116bd577f4e487b7100000000000000000000000000000000000000000000000000000000600052603260045260246000fd5b9060005260206000200160000160009054906101000a900463ffffffff1663ffffffff1611156116ef578092506116ff565b6001816116fc9190613306565b91505b5061166d565b6000821461178d578460018361171b919061338d565b81548110611752577f4e487b7100000000000000000000000000000000000000000000000000000000600052603260045260246000fd5b9060005260206000200160000160049054906101000a90047bffffffffffffffffffffffffffffffffffffffffffffffffffffffff16611790565b60005b7bffffffffffffffffffffffffffffffffffffffffffffffffffffffff169250505092915050565b6117c28282611d21565b6117ca611e82565b7bffffffffffffffffffffffffffffffffffffffffffffffffffffffff166117f061069e565b1115611831576040517f08c379a00000000000000000000000000000000000000000000000000000000081526004016118289061312f565b60405180910390fd5b61183f60ce611e9883611eae565b50505050565b60006118508361090e565b9050600061185d846109df565b90508260cc60008673ffffffffffffffffffffffffffffffffffffffff1673ffffffffffffffffffffffffffffffffffffffff16815260200190815260200160002060006101000a81548173ffffffffffffffffffffffffffffffffffffffff021916908373ffffffffffffffffffffffffffffffffffffffff1602179055508273ffffffffffffffffffffffffffffffffffffffff168273ffffffffffffffffffffffffffffffffffffffff168573ffffffffffffffffffffffffffffffffffffffff167f3134e8a2e6d97e929a7e54011ea5485d7d196dd5f0ba4d4ef95803e8e3fc257f60405160405180910390a4611959828483612198565b50505050565b600063ffffffff80168211156119aa576040517f08c379a00000000000000000000000000000000000000000000000000000000081526004016119a1906131af565b60405180910390fd5b819050919050565b60006bffffffffffffffffffffffff8016821115611a05576040517f08c379a00000000000000000000000000000000000000000000000000000000081526004016119fc90612faf565b60405180910390fd5b819050919050565b600081600001549050919050565b611a258282612391565b611a3360ce61256a83611eae565b50505050565b6000611a4c611a46611620565b83612580565b9050919050565b60007f7fffffffffffffffffffffffffffffff5d576e7357a4501ddfe92f46681b20a08260001c1115611abb576040517f08c379a0000000000000000000000000000000000000000000000000000000008152600401611ab2906130af565b60405180910390fd5b601b8460ff161480611ad05750601c8460ff16145b611b0f576040517f08c379a0000000000000000000000000000000000000000000000000000000008152600401611b06906130cf565b60405180910390fd5b600060018686868660405160008152602001604052604051611b349493929190612f08565b6020604051602081039080840390855afa158015611b56573d6000803e3d6000fd5b505050602060405103519050600073ffffffffffffffffffffffffffffffffffffffff168173ffffffffffffffffffffffffffffffffffffffff161415611bd2576040517f08c379a0000000000000000000000000000000000000000000000000000000008152600401611bc990612f6f565b60405180910390fd5b80915050949350505050565b600080609960008473ffffffffffffffffffffffffffffffffffffffff1673ffffffffffffffffffffffffffffffffffffffff1681526020019081526020016000209050611c2b81611a0d565b9150611c36816125b3565b50919050565b505050565b611c4c8383836125c9565b611c67611c588461090e565b611c618461090e565b83612198565b505050565b6000606554905090565b6000606654905090565b60008383834630604051602001611c9b959493929190612eb5565b6040516020818303038152906040528051906020012090509392505050565b600060028083611cca91906134df565b600285611cd791906134df565b611ce19190613306565b611ceb919061335c565b600283611cf8919061335c565b600285611d05919061335c565b611d0f9190613306565b611d199190613306565b905092915050565b600073ffffffffffffffffffffffffffffffffffffffff168273ffffffffffffffffffffffffffffffffffffffff161415611d91576040517f08c379a0000000000000000000000000000000000000000000000000000000008152600401611d889061320f565b60405180910390fd5b611d9d60008383611c3c565b8060356000828254611daf9190613306565b9250508190555080603360008473ffffffffffffffffffffffffffffffffffffffff1673ffffffffffffffffffffffffffffffffffffffff1681526020019081526020016000206000828254611e059190613306565b925050819055508173ffffffffffffffffffffffffffffffffffffffff16600073ffffffffffffffffffffffffffffffffffffffff167fddf252ad1be2c89b69c2b068fc378daa952ba7f163c4a11628f55a4df523b3ef83604051611e6a919061324a565b60405180910390a3611e7e60008383611c41565b5050565b60006bffffffffffffffffffffffff8016905090565b60008183611ea69190613306565b905092915050565b60008060008580549050905060008114611f425785600182611ed0919061338d565b81548110611f07577f4e487b7100000000000000000000000000000000000000000000000000000000600052603260045260246000fd5b9060005260206000200160000160049054906101000a90047bffffffffffffffffffffffffffffffffffffffffffffffffffffffff16611f45565b60005b7bffffffffffffffffffffffffffffffffffffffffffffffffffffffff169250611f7383858763ffffffff16565b9150600081118015611fec57504386600183611f8f919061338d565b81548110611fc6577f4e487b7100000000000000000000000000000000000000000000000000000000600052603260045260246000fd5b9060005260206000200160000160009054906101000a900463ffffffff1663ffffffff16145b1561209f57611ffa826125ce565b86600183612008919061338d565b8154811061203f577f4e487b7100000000000000000000000000000000000000000000000000000000600052603260045260246000fd5b9060005260206000200160000160046101000a8154817bffffffffffffffffffffffffffffffffffffffffffffffffffffffff02191690837bffffffffffffffffffffffffffffffffffffffffffffffffffffffff16021790555061218f565b8560405180604001604052806120b44361195f565b63ffffffff1681526020016120c8856125ce565b7bffffffffffffffffffffffffffffffffffffffffffffffffffffffff168152509080600181540180825580915050600190039060005260206000200160009091909190915060008201518160000160006101000a81548163ffffffff021916908363ffffffff16021790555060208201518160000160046101000a8154817bffffffffffffffffffffffffffffffffffffffffffffffffffffffff02191690837bffffffffffffffffffffffffffffffffffffffffffffffffffffffff16021790555050505b50935093915050565b8173ffffffffffffffffffffffffffffffffffffffff168373ffffffffffffffffffffffffffffffffffffffff16141580156121d45750600081115b1561238c57600073ffffffffffffffffffffffffffffffffffffffff168373ffffffffffffffffffffffffffffffffffffffff16146122b25760008061225b60cd60008773ffffffffffffffffffffffffffffffffffffffff1673ffffffffffffffffffffffffffffffffffffffff16815260200190815260200160002061256a85611eae565b915091508473ffffffffffffffffffffffffffffffffffffffff167fdec2bacdd2f05b59de34da9b523dff8be42e5e38e818c82fdb0bae774387a72483836040516122a7929190613265565b60405180910390a250505b600073ffffffffffffffffffffffffffffffffffffffff168273ffffffffffffffffffffffffffffffffffffffff161461238b5760008061233460cd60008673ffffffffffffffffffffffffffffffffffffffff1673ffffffffffffffffffffffffffffffffffffffff168152602001908152602001600020611e9885611eae565b915091508373ffffffffffffffffffffffffffffffffffffffff167fdec2bacdd2f05b59de34da9b523dff8be42e5e38e818c82fdb0bae774387a7248383604051612380929190613265565b60405180910390a250505b5b505050565b600073ffffffffffffffffffffffffffffffffffffffff168273ffffffffffffffffffffffffffffffffffffffff161415612401576040517f08c379a00000000000000000000000000000000000000000000000000000000081526004016123f89061316f565b60405180910390fd5b61240d82600083611c3c565b6000603360008473ffffffffffffffffffffffffffffffffffffffff1673ffffffffffffffffffffffffffffffffffffffff16815260200190815260200160002054905081811015612494576040517f08c379a000000000000000000000000000000000000000000000000000000000815260040161248b9061300f565b60405180910390fd5b818103603360008573ffffffffffffffffffffffffffffffffffffffff1673ffffffffffffffffffffffffffffffffffffffff1681526020019081526020016000208190555081603560008282546124ec919061338d565b92505081905550600073ffffffffffffffffffffffffffffffffffffffff168373ffffffffffffffffffffffffffffffffffffffff167fddf252ad1be2c89b69c2b068fc378daa952ba7f163c4a11628f55a4df523b3ef84604051612551919061324a565b60405180910390a361256583600084611c41565b505050565b60008183612578919061338d565b905092915050565b60008282604051602001612595929190612d87565b60405160208183030381529060405280519060200120905092915050565b6001816000016000828254019250508190555050565b505050565b60007bffffffffffffffffffffffffffffffffffffffffffffffffffffffff8016821115612631576040517f08c379a00000000000000000000000000000000000000000000000000000000081526004016126289061314f565b60405180910390fd5b819050919050565b6040518060400160405280600063ffffffff16815260200160007bffffffffffffffffffffffffffffffffffffffffffffffffffffffff1681525090565b60008135905061268681613b97565b92915050565b60008135905061269b81613bae565b92915050565b6000813590506126b081613bc5565b92915050565b6000813590506126c581613bdc565b92915050565b6000813590506126da81613bf3565b92915050565b6000602082840312156126f257600080fd5b600061270084828501612677565b91505092915050565b6000806040838503121561271c57600080fd5b600061272a85828601612677565b925050602061273b85828601612677565b9150509250929050565b60008060006060848603121561275a57600080fd5b600061276886828701612677565b935050602061277986828701612677565b925050604061278a868287016126a1565b9150509250925092565b600080600080600080600060e0888a0312156127af57600080fd5b60006127bd8a828b01612677565b97505060206127ce8a828b01612677565b96505060406127df8a828b016126a1565b95505060606127f08a828b016126a1565b94505060806128018a828b016126cb565b93505060a06128128a828b0161268c565b92505060c06128238a828b0161268c565b91505092959891949750929550565b6000806040838503121561284557600080fd5b600061285385828601612677565b9250506020612864858286016126a1565b9150509250929050565b60008060008060008060c0878903121561288757600080fd5b600061289589828a01612677565b96505060206128a689828a016126a1565b95505060406128b789828a016126a1565b94505060606128c889828a016126cb565b93505060806128d989828a0161268c565b92505060a06128ea89828a0161268c565b9150509295509295509295565b6000806040838503121561290a57600080fd5b600061291885828601612677565b9250506020612929858286016126b6565b9150509250929050565b60006020828403121561294557600080fd5b6000612953848285016126a1565b91505092915050565b612965816133c1565b82525050565b612974816133d3565b82525050565b612983816133df565b82525050565b61299a612995826133df565b6134d5565b82525050565b60006129ab826132df565b6129b581856132ea565b93506129c5818560208601613470565b6129ce8161359d565b840191505092915050565b60006129e66018836132ea565b91506129f1826135ae565b602082019050919050565b6000612a096023836132ea565b9150612a14826135d7565b604082019050919050565b6000612a2c6026836132ea565b9150612a3782613626565b604082019050919050565b6000612a4f601f836132ea565b9150612a5a82613675565b602082019050919050565b6000612a72601d836132ea565b9150612a7d8261369e565b602082019050919050565b6000612a956022836132ea565b9150612aa0826136c7565b604082019050919050565b6000612ab86019836132ea565b9150612ac382613716565b602082019050919050565b6000612adb6022836132ea565b9150612ae68261373f565b604082019050919050565b6000612afe6002836132fb565b9150612b098261378e565b600282019050919050565b6000612b21601d836132ea565b9150612b2c826137b7565b602082019050919050565b6000612b446026836132ea565b9150612b4f826137e0565b604082019050919050565b6000612b676022836132ea565b9150612b728261382f565b604082019050919050565b6000612b8a6022836132ea565b9150612b958261387e565b604082019050919050565b6000612bad601e836132ea565b9150612bb8826138cd565b602082019050919050565b6000612bd06028836132ea565b9150612bdb826138f6565b604082019050919050565b6000612bf36030836132ea565b9150612bfe82613945565b604082019050919050565b6000612c166027836132ea565b9150612c2182613994565b604082019050919050565b6000612c396021836132ea565b9150612c44826139e3565b604082019050919050565b6000612c5c6025836132ea565b9150612c6782613a32565b604082019050919050565b6000612c7f6026836132ea565b9150612c8a82613a81565b604082019050919050565b6000612ca26024836132ea565b9150612cad82613ad0565b604082019050919050565b6000612cc56025836132ea565b9150612cd082613b1f565b604082019050919050565b6000612ce8601f836132ea565b9150612cf382613b6e565b602082019050919050565b604082016000820151612d146000850182612d4b565b506020820151612d276020850182612d2d565b50505050565b612d3681613409565b82525050565b612d4581613431565b82525050565b612d548161343b565b82525050565b612d638161343b565b82525050565b612d728161344b565b82525050565b612d8181613458565b82525050565b6000612d9282612af1565b9150612d9e8285612989565b602082019150612dae8284612989565b6020820191508190509392505050565b6000602082019050612dd3600083018461295c565b92915050565b6000602082019050612dee600083018461296b565b92915050565b6000602082019050612e09600083018461297a565b92915050565b600060c082019050612e24600083018961297a565b612e31602083018861295c565b612e3e604083018761295c565b612e4b6060830186612d3c565b612e586080830185612d3c565b612e6560a0830184612d3c565b979650505050505050565b6000608082019050612e85600083018761297a565b612e92602083018661295c565b612e9f6040830185612d3c565b612eac6060830184612d3c565b95945050505050565b600060a082019050612eca600083018861297a565b612ed7602083018761297a565b612ee4604083018661297a565b612ef16060830185612d3c565b612efe608083018461295c565b9695505050505050565b6000608082019050612f1d600083018761297a565b612f2a6020830186612d69565b612f37604083018561297a565b612f44606083018461297a565b95945050505050565b60006020820190508181036000830152612f6781846129a0565b905092915050565b60006020820190508181036000830152612f88816129d9565b9050919050565b60006020820190508181036000830152612fa8816129fc565b9050919050565b60006020820190508181036000830152612fc881612a1f565b9050919050565b60006020820190508181036000830152612fe881612a42565b9050919050565b6000602082019050818103600083015261300881612a65565b9050919050565b6000602082019050818103600083015261302881612a88565b9050919050565b6000602082019050818103600083015261304881612aab565b9050919050565b6000602082019050818103600083015261306881612ace565b9050919050565b6000602082019050818103600083015261308881612b14565b9050919050565b600060208201905081810360008301526130a881612b37565b9050919050565b600060208201905081810360008301526130c881612b5a565b9050919050565b600060208201905081810360008301526130e881612b7d565b9050919050565b6000602082019050818103600083015261310881612ba0565b9050919050565b6000602082019050818103600083015261312881612bc3565b9050919050565b6000602082019050818103600083015261314881612be6565b9050919050565b6000602082019050818103600083015261316881612c09565b9050919050565b6000602082019050818103600083015261318881612c2c565b9050919050565b600060208201905081810360008301526131a881612c4f565b9050919050565b600060208201905081810360008301526131c881612c72565b9050919050565b600060208201905081810360008301526131e881612c95565b9050919050565b6000602082019050818103600083015261320881612cb8565b9050919050565b6000602082019050818103600083015261322881612cdb565b9050919050565b60006040820190506132446000830184612cfe565b92915050565b600060208201905061325f6000830184612d3c565b92915050565b600060408201905061327a6000830185612d3c565b6132876020830184612d3c565b9392505050565b60006020820190506132a36000830184612d5a565b92915050565b60006020820190506132be6000830184612d69565b92915050565b60006020820190506132d96000830184612d78565b92915050565b600081519050919050565b600082825260208201905092915050565b600081905092915050565b600061331182613431565b915061331c83613431565b9250827fffffffffffffffffffffffffffffffffffffffffffffffffffffffffffffffff0382111561335157613350613510565b5b828201905092915050565b600061336782613431565b915061337283613431565b9250826133825761338161353f565b5b828204905092915050565b600061339882613431565b91506133a383613431565b9250828210156133b6576133b5613510565b5b828203905092915050565b60006133cc826133e9565b9050919050565b60008115159050919050565b6000819050919050565b600073ffffffffffffffffffffffffffffffffffffffff82169050919050565b60007bffffffffffffffffffffffffffffffffffffffffffffffffffffffff82169050919050565b6000819050919050565b600063ffffffff82169050919050565b600060ff82169050919050565b60006bffffffffffffffffffffffff82169050919050565b60005b8381101561348e578082015181840152602081019050613473565b8381111561349d576000848401525b50505050565b600060028204905060018216806134bb57607f821691505b602082108114156134cf576134ce61356e565b5b50919050565b6000819050919050565b60006134ea82613431565b91506134f583613431565b9250826135055761350461353f565b5b828206905092915050565b7f4e487b7100000000000000000000000000000000000000000000000000000000600052601160045260246000fd5b7f4e487b7100000000000000000000000000000000000000000000000000000000600052601260045260246000fd5b7f4e487b7100000000000000000000000000000000000000000000000000000000600052602260045260246000fd5b6000601f19601f8301169050919050565b7f45434453413a20696e76616c6964207369676e61747572650000000000000000600082015250565b7f45524332303a207472616e7366657220746f20746865207a65726f206164647260008201527f6573730000000000000000000000000000000000000000000000000000000000602082015250565b7f53616665436173743a2076616c756520646f65736e27742066697420696e203960008201527f3620626974730000000000000000000000000000000000000000000000000000602082015250565b7f4552433230566f7465733a20626c6f636b206e6f7420796574206d696e656400600082015250565b7f4552433230566f7465733a207369676e61747572652065787069726564000000600082015250565b7f45524332303a206275726e20616d6f756e7420657863656564732062616c616e60008201527f6365000000000000000000000000000000000000000000000000000000000000602082015250565b7f4552433230566f7465733a20696e76616c6964206e6f6e636500000000000000600082015250565b7f45524332303a20617070726f766520746f20746865207a65726f20616464726560008201527f7373000000000000000000000000000000000000000000000000000000000000602082015250565b7f1901000000000000000000000000000000000000000000000000000000000000600082015250565b7f45524332305065726d69743a206578706972656420646561646c696e65000000600082015250565b7f45524332303a207472616e7366657220616d6f756e742065786365656473206260008201527f616c616e63650000000000000000000000000000000000000000000000000000602082015250565b7f45434453413a20696e76616c6964207369676e6174757265202773272076616c60008201527f7565000000000000000000000000000000000000000000000000000000000000602082015250565b7f45434453413a20696e76616c6964207369676e6174757265202776272076616c60008201527f7565000000000000000000000000000000000000000000000000000000000000602082015250565b7f45524332305065726d69743a20696e76616c6964207369676e61747572650000600082015250565b7f45524332303a207472616e7366657220616d6f756e742065786365656473206160008201527f6c6c6f77616e6365000000000000000000000000000000000000000000000000602082015250565b7f4552433230566f7465733a20746f74616c20737570706c79207269736b73206f60008201527f766572666c6f77696e6720766f74657300000000000000000000000000000000602082015250565b7f53616665436173743a2076616c756520646f65736e27742066697420696e203260008201527f3234206269747300000000000000000000000000000000000000000000000000602082015250565b7f45524332303a206275726e2066726f6d20746865207a65726f2061646472657360008201527f7300000000000000000000000000000000000000000000000000000000000000602082015250565b7f45524332303a207472616e736665722066726f6d20746865207a65726f20616460008201527f6472657373000000000000000000000000000000000000000000000000000000602082015250565b7f53616665436173743a2076616c756520646f65736e27742066697420696e203360008201527f3220626974730000000000000000000000000000000000000000000000000000602082015250565b7f45524332303a20617070726f76652066726f6d20746865207a65726f2061646460008201527f7265737300000000000000000000000000000000000000000000000000000000602082015250565b7f45524332303a2064656372656173656420616c6c6f77616e63652062656c6f7760008201527f207a65726f000000000000000000000000000000000000000000000000000000602082015250565b7f45524332303a206d696e7420746f20746865207a65726f206164647265737300600082015250565b613ba0816133c1565b8114613bab57600080fd5b50565b613bb7816133df565b8114613bc257600080fd5b50565b613bce81613431565b8114613bd957600080fd5b50565b613be58161343b565b8114613bf057600080fd5b50565b613bfc8161344b565b8114613c0757600080fd5b5056fea264697066735822122009bd084992b300fdab11988f72957e0ab4a8f6049208fe7ed4571194ed69a72664736f6c63430008040033",
  "linkReferences": {},
  "deployedLinkReferences": {}
}