{
  "_format": "hh-sol-artifact-1",
  "contractName": "ERC721PausableMockUpgradeableWithInit",
  "sourceName": "contracts/src/OpenZeppelin/upgradeable/mocks/WithInit.sol",
  "abi": [
    {
      "inputs": [
        {
          "internalType": "string",
          "name": "name",
          "type": "string"
        },
        {
          "internalType": "string",
          "name": "symbol",
          "type": "string"
        }
      ],
      "stateMutability": "payable",
      "type": "constructor"
    },
    {
      "anonymous": false,
      "inputs": [
        {
          "indexed": true,
          "internalType": "address",
          "name": "owner",
          "type": "address"
        },
        {
          "indexed": true,
          "internalType": "address",
          "name": "approved",
          "type": "address"
        },
        {
          "indexed": true,
          "internalType": "uint256",
          "name": "tokenId",
          "type": "uint256"
        }
      ],
      "name": "Approval",
      "type": "event"
    },
    {
      "anonymous": false,
      "inputs": [
        {
          "indexed": true,
          "internalType": "address",
          "name": "owner",
          "type": "address"
        },
        {
          "indexed": true,
          "internalType": "address",
          "name": "operator",
          "type": "address"
        },
        {
          "indexed": false,
          "internalType": "bool",
          "name": "approved",
          "type": "bool"
        }
      ],
      "name": "ApprovalForAll",
      "type": "event"
    },
    {
      "anonymous": false,
      "inputs": [
        {
          "indexed": false,
          "internalType": "address",
          "name": "account",
          "type": "address"
        }
      ],
      "name": "Paused",
      "type": "event"
    },
    {
      "anonymous": false,
      "inputs": [
        {
          "indexed": true,
          "internalType": "address",
          "name": "from",
          "type": "address"
        },
        {
          "indexed": true,
          "internalType": "address",
          "name": "to",
          "type": "address"
        },
        {
          "indexed": true,
          "internalType": "uint256",
          "name": "tokenId",
          "type": "uint256"
        }
      ],
      "name": "Transfer",
      "type": "event"
    },
    {
      "anonymous": false,
      "inputs": [
        {
          "indexed": false,
          "internalType": "address",
          "name": "account",
          "type": "address"
        }
      ],
      "name": "Unpaused",
      "type": "event"
    },
    {
      "inputs": [
        {
          "internalType": "address",
          "name": "to",
          "type": "address"
        },
        {
          "internalType": "uint256",
          "name": "tokenId",
          "type": "uint256"
        }
      ],
      "name": "approve",
      "outputs": [],
      "stateMutability": "nonpayable",
      "type": "function"
    },
    {
      "inputs": [
        {
          "internalType": "address",
          "name": "owner",
          "type": "address"
        }
      ],
      "name": "balanceOf",
      "outputs": [
        {
          "internalType": "uint256",
          "name": "",
          "type": "uint256"
        }
      ],
      "stateMutability": "view",
      "type": "function"
    },
    {
      "inputs": [
        {
          "internalType": "uint256",
          "name": "tokenId",
          "type": "uint256"
        }
      ],
      "name": "burn",
      "outputs": [],
      "stateMutability": "nonpayable",
      "type": "function"
    },
    {
      "inputs": [
        {
          "internalType": "uint256",
          "name": "tokenId",
          "type": "uint256"
        }
      ],
      "name": "exists",
      "outputs": [
        {
          "internalType": "bool",
          "name": "",
          "type": "bool"
        }
      ],
      "stateMutability": "view",
      "type": "function"
    },
    {
      "inputs": [
        {
          "internalType": "uint256",
          "name": "tokenId",
          "type": "uint256"
        }
      ],
      "name": "getApproved",
      "outputs": [
        {
          "internalType": "address",
          "name": "",
          "type": "address"
        }
      ],
      "stateMutability": "view",
      "type": "function"
    },
    {
      "inputs": [
        {
          "internalType": "address",
          "name": "owner",
          "type": "address"
        },
        {
          "internalType": "address",
          "name": "operator",
          "type": "address"
        }
      ],
      "name": "isApprovedForAll",
      "outputs": [
        {
          "internalType": "bool",
          "name": "",
          "type": "bool"
        }
      ],
      "stateMutability": "view",
      "type": "function"
    },
    {
      "inputs": [
        {
          "internalType": "address",
          "name": "to",
          "type": "address"
        },
        {
          "internalType": "uint256",
          "name": "tokenId",
          "type": "uint256"
        }
      ],
      "name": "mint",
      "outputs": [],
      "stateMutability": "nonpayable",
      "type": "function"
    },
    {
      "inputs": [],
      "name": "name",
      "outputs": [
        {
          "internalType": "string",
          "name": "",
          "type": "string"
        }
      ],
      "stateMutability": "view",
      "type": "function"
    },
    {
      "inputs": [
        {
          "internalType": "uint256",
          "name": "tokenId",
          "type": "uint256"
        }
      ],
      "name": "ownerOf",
      "outputs": [
        {
          "internalType": "address",
          "name": "",
          "type": "address"
        }
      ],
      "stateMutability": "view",
      "type": "function"
    },
    {
      "inputs": [],
      "name": "pause",
      "outputs": [],
      "stateMutability": "nonpayable",
      "type": "function"
    },
    {
      "inputs": [],
      "name": "paused",
      "outputs": [
        {
          "internalType": "bool",
          "name": "",
          "type": "bool"
        }
      ],
      "stateMutability": "view",
      "type": "function"
    },
    {
      "inputs": [
        {
          "internalType": "address",
          "name": "to",
          "type": "address"
        },
        {
          "internalType": "uint256",
          "name": "tokenId",
          "type": "uint256"
        },
        {
          "internalType": "bytes",
          "name": "_data",
          "type": "bytes"
        }
      ],
      "name": "safeMint",
      "outputs": [],
      "stateMutability": "nonpayable",
      "type": "function"
    },
    {
      "inputs": [
        {
          "internalType": "address",
          "name": "to",
          "type": "address"
        },
        {
          "internalType": "uint256",
          "name": "tokenId",
          "type": "uint256"
        }
      ],
      "name": "safeMint",
      "outputs": [],
      "stateMutability": "nonpayable",
      "type": "function"
    },
    {
      "inputs": [
        {
          "internalType": "address",
          "name": "from",
          "type": "address"
        },
        {
          "internalType": "address",
          "name": "to",
          "type": "address"
        },
        {
          "internalType": "uint256",
          "name": "tokenId",
          "type": "uint256"
        }
      ],
      "name": "safeTransferFrom",
      "outputs": [],
      "stateMutability": "nonpayable",
      "type": "function"
    },
    {
      "inputs": [
        {
          "internalType": "address",
          "name": "from",
          "type": "address"
        },
        {
          "internalType": "address",
          "name": "to",
          "type": "address"
        },
        {
          "internalType": "uint256",
          "name": "tokenId",
          "type": "uint256"
        },
        {
          "internalType": "bytes",
          "name": "_data",
          "type": "bytes"
        }
      ],
      "name": "safeTransferFrom",
      "outputs": [],
      "stateMutability": "nonpayable",
      "type": "function"
    },
    {
      "inputs": [
        {
          "internalType": "address",
          "name": "operator",
          "type": "address"
        },
        {
          "internalType": "bool",
          "name": "approved",
          "type": "bool"
        }
      ],
      "name": "setApprovalForAll",
      "outputs": [],
      "stateMutability": "nonpayable",
      "type": "function"
    },
    {
      "inputs": [
        {
          "internalType": "bytes4",
          "name": "interfaceId",
          "type": "bytes4"
        }
      ],
      "name": "supportsInterface",
      "outputs": [
        {
          "internalType": "bool",
          "name": "",
          "type": "bool"
        }
      ],
      "stateMutability": "view",
      "type": "function"
    },
    {
      "inputs": [],
      "name": "symbol",
      "outputs": [
        {
          "internalType": "string",
          "name": "",
          "type": "string"
        }
      ],
      "stateMutability": "view",
      "type": "function"
    },
    {
      "inputs": [
        {
          "internalType": "uint256",
          "name": "tokenId",
          "type": "uint256"
        }
      ],
      "name": "tokenURI",
      "outputs": [
        {
          "internalType": "string",
          "name": "",
          "type": "string"
        }
      ],
      "stateMutability": "view",
      "type": "function"
    },
    {
      "inputs": [
        {
          "internalType": "address",
          "name": "from",
          "type": "address"
        },
        {
          "internalType": "address",
          "name": "to",
          "type": "address"
        },
        {
          "internalType": "uint256",
          "name": "tokenId",
          "type": "uint256"
        }
      ],
      "name": "transferFrom",
      "outputs": [],
      "stateMutability": "nonpayable",
      "type": "function"
    },
    {
      "inputs": [],
      "name": "unpause",
      "outputs": [],
      "stateMutability": "nonpayable",
      "type": "function"
    }
  ],
  "bytecode": "0x6080604052604051620037c3380380620037c3833981810160405281019062000029919062000835565b6200003b82826200004360201b60201c565b505062000ac1565b600060019054906101000a900460ff16806200006a575060008054906101000a900460ff16155b620000ac576040517f08c379a0000000000000000000000000000000000000000000000000000000008152600401620000a390620008cf565b60405180910390fd5b60008060019054906101000a900460ff161590508015620000fd576001600060016101000a81548160ff02191690831515021790555060016000806101000a81548160ff0219169083151502179055505b6200010d6200018860201b60201c565b6200011d6200026760201b60201c565b6200012f83836200034660201b60201c565b6200013f6200045960201b60201c565b6200014f6200055360201b60201c565b6200016183836200063260201b60201c565b8015620001835760008060016101000a81548160ff0219169083151502179055505b505050565b600060019054906101000a900460ff1680620001af575060008054906101000a900460ff16155b620001f1576040517f08c379a0000000000000000000000000000000000000000000000000000000008152600401620001e890620008cf565b60405180910390fd5b60008060019054906101000a900460ff16159050801562000242576001600060016101000a81548160ff02191690831515021790555060016000806101000a81548160ff0219169083151502179055505b8015620002645760008060016101000a81548160ff0219169083151502179055505b50565b600060019054906101000a900460ff16806200028e575060008054906101000a900460ff16155b620002d0576040517f08c379a0000000000000000000000000000000000000000000000000000000008152600401620002c790620008cf565b60405180910390fd5b60008060019054906101000a900460ff16159050801562000321576001600060016101000a81548160ff02191690831515021790555060016000806101000a81548160ff0219169083151502179055505b8015620003435760008060016101000a81548160ff0219169083151502179055505b50565b600060019054906101000a900460ff16806200036d575060008054906101000a900460ff16155b620003af576040517f08c379a0000000000000000000000000000000000000000000000000000000008152600401620003a690620008cf565b60405180910390fd5b60008060019054906101000a900460ff16159050801562000400576001600060016101000a81548160ff02191690831515021790555060016000806101000a81548160ff0219169083151502179055505b82606590805190602001906200041892919062000713565b5081606690805190602001906200043192919062000713565b508015620004545760008060016101000a81548160ff0219169083151502179055505b505050565b600060019054906101000a900460ff168062000480575060008054906101000a900460ff16155b620004c2576040517f08c379a0000000000000000000000000000000000000000000000000000000008152600401620004b990620008cf565b60405180910390fd5b60008060019054906101000a900460ff16159050801562000513576001600060016101000a81548160ff02191690831515021790555060016000806101000a81548160ff0219169083151502179055505b6000609760006101000a81548160ff0219169083151502179055508015620005505760008060016101000a81548160ff0219169083151502179055505b50565b600060019054906101000a900460ff16806200057a575060008054906101000a900460ff16155b620005bc576040517f08c379a0000000000000000000000000000000000000000000000000000000008152600401620005b390620008cf565b60405180910390fd5b60008060019054906101000a900460ff1615905080156200060d576001600060016101000a81548160ff02191690831515021790555060016000806101000a81548160ff0219169083151502179055505b80156200062f5760008060016101000a81548160ff0219169083151502179055505b50565b600060019054906101000a900460ff168062000659575060008054906101000a900460ff16155b6200069b576040517f08c379a00000000000000000000000000000000000000000000000000000000081526004016200069290620008cf565b60405180910390fd5b60008060019054906101000a900460ff161590508015620006ec576001600060016101000a81548160ff02191690831515021790555060016000806101000a81548160ff0219169083151502179055505b80156200070e5760008060016101000a81548160ff0219169083151502179055505b505050565b828054620007219062000997565b90600052602060002090601f01602090048101928262000745576000855562000791565b82601f106200076057805160ff191683800117855562000791565b8280016001018555821562000791579182015b828111156200079057825182559160200191906001019062000773565b5b509050620007a09190620007a4565b5090565b5b80821115620007bf576000816000905550600101620007a5565b5090565b6000620007da620007d4846200091a565b620008f1565b905082815260208101848484011115620007f357600080fd5b6200080084828562000961565b509392505050565b600082601f8301126200081a57600080fd5b81516200082c848260208601620007c3565b91505092915050565b600080604083850312156200084957600080fd5b600083015167ffffffffffffffff8111156200086457600080fd5b620008728582860162000808565b925050602083015167ffffffffffffffff8111156200089057600080fd5b6200089e8582860162000808565b9150509250929050565b6000620008b7602e8362000950565b9150620008c48262000a72565b604082019050919050565b60006020820190508181036000830152620008ea81620008a8565b9050919050565b6000620008fd62000910565b90506200090b8282620009cd565b919050565b6000604051905090565b600067ffffffffffffffff82111562000938576200093762000a32565b5b620009438262000a61565b9050602081019050919050565b600082825260208201905092915050565b60005b838110156200098157808201518184015260208101905062000964565b8381111562000991576000848401525b50505050565b60006002820490506001821680620009b057607f821691505b60208210811415620009c757620009c662000a03565b5b50919050565b620009d88262000a61565b810181811067ffffffffffffffff82111715620009fa57620009f962000a32565b5b80604052505050565b7f4e487b7100000000000000000000000000000000000000000000000000000000600052602260045260246000fd5b7f4e487b7100000000000000000000000000000000000000000000000000000000600052604160045260246000fd5b6000601f19601f8301169050919050565b7f496e697469616c697a61626c653a20636f6e747261637420697320616c72656160008201527f647920696e697469616c697a6564000000000000000000000000000000000000602082015250565b612cf28062000ad16000396000f3fe608060405234801561001057600080fd5b50600436106101375760003560e01c80635c975abb116100b857806395d89b411161007c57806395d89b4114610324578063a144819414610342578063a22cb4651461035e578063b88d4fde1461037a578063c87b56dd14610396578063e985e9c5146103c657610137565b80635c975abb146102805780636352211e1461029e57806370a08231146102ce5780638456cb59146102fe5780638832e6e31461030857610137565b80633f4ba83a116100ff5780633f4ba83a146101f257806340c10f19146101fc57806342842e0e1461021857806342966c68146102345780634f558e791461025057610137565b806301ffc9a71461013c57806306fdde031461016c578063081812fc1461018a578063095ea7b3146101ba57806323b872dd146101d6575b600080fd5b61015660048036038101906101519190611d8a565b6103f6565b60405161016391906121b3565b60405180910390f35b6101746104d8565b60405161018191906121ce565b60405180910390f35b6101a4600480360381019061019f9190611ddc565b61056a565b6040516101b1919061214c565b60405180910390f35b6101d460048036038101906101cf9190611ce7565b6105ef565b005b6101f060048036038101906101eb9190611be1565b610707565b005b6101fa610767565b005b61021660048036038101906102119190611ce7565b610771565b005b610232600480360381019061022d9190611be1565b61077f565b005b61024e60048036038101906102499190611ddc565b61079f565b005b61026a60048036038101906102659190611ddc565b6107ab565b60405161027791906121b3565b60405180910390f35b6102886107bd565b60405161029591906121b3565b60405180910390f35b6102b860048036038101906102b39190611ddc565b6107d4565b6040516102c5919061214c565b60405180910390f35b6102e860048036038101906102e39190611b7c565b610886565b6040516102f59190612410565b60405180910390f35b61030661093e565b005b610322600480360381019061031d9190611d23565b610948565b005b61032c610958565b60405161033991906121ce565b60405180910390f35b61035c60048036038101906103579190611ce7565b6109ea565b005b61037860048036038101906103739190611cab565b6109f8565b005b610394600480360381019061038f9190611c30565b610b79565b005b6103b060048036038101906103ab9190611ddc565b610bdb565b6040516103bd91906121ce565b60405180910390f35b6103e060048036038101906103db9190611ba5565b610c82565b6040516103ed91906121b3565b60405180910390f35b60007f80ac58cd000000000000000000000000000000000000000000000000000000007bffffffffffffffffffffffffffffffffffffffffffffffffffffffff1916827bffffffffffffffffffffffffffffffffffffffffffffffffffffffff191614806104c157507f5b5e139f000000000000000000000000000000000000000000000000000000007bffffffffffffffffffffffffffffffffffffffffffffffffffffffff1916827bffffffffffffffffffffffffffffffffffffffffffffffffffffffff1916145b806104d157506104d082610d16565b5b9050919050565b6060606580546104e790612635565b80601f016020809104026020016040519081016040528092919081815260200182805461051390612635565b80156105605780601f1061053557610100808354040283529160200191610560565b820191906000526020600020905b81548152906001019060200180831161054357829003601f168201915b5050505050905090565b600061057582610d80565b6105b4576040517f08c379a00000000000000000000000000000000000000000000000000000000081526004016105ab90612370565b60405180910390fd5b6069600083815260200190815260200160002060009054906101000a900473ffffffffffffffffffffffffffffffffffffffff169050919050565b60006105fa826107d4565b90508073ffffffffffffffffffffffffffffffffffffffff168373ffffffffffffffffffffffffffffffffffffffff16141561066b576040517f08c379a0000000000000000000000000000000000000000000000000000000008152600401610662906123d0565b60405180910390fd5b8073ffffffffffffffffffffffffffffffffffffffff1661068a610dec565b73ffffffffffffffffffffffffffffffffffffffff1614806106b957506106b8816106b3610dec565b610c82565b5b6106f8576040517f08c379a00000000000000000000000000000000000000000000000000000000081526004016106ef906122f0565b60405180910390fd5b6107028383610df4565b505050565b610718610712610dec565b82610ead565b610757576040517f08c379a000000000000000000000000000000000000000000000000000000000815260040161074e906123f0565b60405180910390fd5b610762838383610f8b565b505050565b61076f6111e7565b565b61077b8282611289565b5050565b61079a83838360405180602001604052806000815250610b79565b505050565b6107a881611457565b50565b60006107b682610d80565b9050919050565b6000609760009054906101000a900460ff16905090565b6000806067600084815260200190815260200160002060009054906101000a900473ffffffffffffffffffffffffffffffffffffffff169050600073ffffffffffffffffffffffffffffffffffffffff168173ffffffffffffffffffffffffffffffffffffffff16141561087d576040517f08c379a000000000000000000000000000000000000000000000000000000000815260040161087490612330565b60405180910390fd5b80915050919050565b60008073ffffffffffffffffffffffffffffffffffffffff168273ffffffffffffffffffffffffffffffffffffffff1614156108f7576040517f08c379a00000000000000000000000000000000000000000000000000000000081526004016108ee90612310565b60405180910390fd5b606860008373ffffffffffffffffffffffffffffffffffffffff1673ffffffffffffffffffffffffffffffffffffffff168152602001908152602001600020549050919050565b610946611568565b565b61095383838361160b565b505050565b60606066805461096790612635565b80601f016020809104026020016040519081016040528092919081815260200182805461099390612635565b80156109e05780601f106109b5576101008083540402835291602001916109e0565b820191906000526020600020905b8154815290600101906020018083116109c357829003601f168201915b5050505050905090565b6109f48282611666565b5050565b610a00610dec565b73ffffffffffffffffffffffffffffffffffffffff168273ffffffffffffffffffffffffffffffffffffffff161415610a6e576040517f08c379a0000000000000000000000000000000000000000000000000000000008152600401610a6590612290565b60405180910390fd5b80606a6000610a7b610dec565b73ffffffffffffffffffffffffffffffffffffffff1673ffffffffffffffffffffffffffffffffffffffff16815260200190815260200160002060008473ffffffffffffffffffffffffffffffffffffffff1673ffffffffffffffffffffffffffffffffffffffff16815260200190815260200160002060006101000a81548160ff0219169083151502179055508173ffffffffffffffffffffffffffffffffffffffff16610b28610dec565b73ffffffffffffffffffffffffffffffffffffffff167f17307eab39ab6107e8899845ad3d59bd9653f200f220920489ca2b5937696c3183604051610b6d91906121b3565b60405180910390a35050565b610b8a610b84610dec565b83610ead565b610bc9576040517f08c379a0000000000000000000000000000000000000000000000000000000008152600401610bc0906123f0565b60405180910390fd5b610bd584848484611684565b50505050565b6060610be682610d80565b610c25576040517f08c379a0000000000000000000000000000000000000000000000000000000008152600401610c1c906123b0565b60405180910390fd5b6000610c2f6116e0565b90506000815111610c4f5760405180602001604052806000815250610c7a565b80610c59846116f7565b604051602001610c6a929190612128565b6040516020818303038152906040525b915050919050565b6000606a60008473ffffffffffffffffffffffffffffffffffffffff1673ffffffffffffffffffffffffffffffffffffffff16815260200190815260200160002060008373ffffffffffffffffffffffffffffffffffffffff1673ffffffffffffffffffffffffffffffffffffffff16815260200190815260200160002060009054906101000a900460ff16905092915050565b60007f01ffc9a7000000000000000000000000000000000000000000000000000000007bffffffffffffffffffffffffffffffffffffffffffffffffffffffff1916827bffffffffffffffffffffffffffffffffffffffffffffffffffffffff1916149050919050565b60008073ffffffffffffffffffffffffffffffffffffffff166067600084815260200190815260200160002060009054906101000a900473ffffffffffffffffffffffffffffffffffffffff1673ffffffffffffffffffffffffffffffffffffffff1614159050919050565b600033905090565b816069600083815260200190815260200160002060006101000a81548173ffffffffffffffffffffffffffffffffffffffff021916908373ffffffffffffffffffffffffffffffffffffffff160217905550808273ffffffffffffffffffffffffffffffffffffffff16610e67836107d4565b73ffffffffffffffffffffffffffffffffffffffff167f8c5be1e5ebec7d5bd14f71427d1e84f3dd0314c0f7b2291e5b200ac8c7c3b92560405160405180910390a45050565b6000610eb882610d80565b610ef7576040517f08c379a0000000000000000000000000000000000000000000000000000000008152600401610eee906122b0565b60405180910390fd5b6000610f02836107d4565b90508073ffffffffffffffffffffffffffffffffffffffff168473ffffffffffffffffffffffffffffffffffffffff161480610f7157508373ffffffffffffffffffffffffffffffffffffffff16610f598461056a565b73ffffffffffffffffffffffffffffffffffffffff16145b80610f825750610f818185610c82565b5b91505092915050565b8273ffffffffffffffffffffffffffffffffffffffff16610fab826107d4565b73ffffffffffffffffffffffffffffffffffffffff1614611001576040517f08c379a0000000000000000000000000000000000000000000000000000000008152600401610ff890612390565b60405180910390fd5b600073ffffffffffffffffffffffffffffffffffffffff168273ffffffffffffffffffffffffffffffffffffffff161415611071576040517f08c379a000000000000000000000000000000000000000000000000000000000815260040161106890612270565b60405180910390fd5b61107c8383836118a4565b611087600082610df4565b6001606860008573ffffffffffffffffffffffffffffffffffffffff1673ffffffffffffffffffffffffffffffffffffffff16815260200190815260200160002060008282546110d7919061254b565b925050819055506001606860008473ffffffffffffffffffffffffffffffffffffffff1673ffffffffffffffffffffffffffffffffffffffff168152602001908152602001600020600082825461112e91906124c4565b92505081905550816067600083815260200190815260200160002060006101000a81548173ffffffffffffffffffffffffffffffffffffffff021916908373ffffffffffffffffffffffffffffffffffffffff160217905550808273ffffffffffffffffffffffffffffffffffffffff168473ffffffffffffffffffffffffffffffffffffffff167fddf252ad1be2c89b69c2b068fc378daa952ba7f163c4a11628f55a4df523b3ef60405160405180910390a4505050565b6111ef6107bd565b61122e576040517f08c379a000000000000000000000000000000000000000000000000000000000815260040161122590612210565b60405180910390fd5b6000609760006101000a81548160ff0219169083151502179055507f5db9ee0a495bf2e6ff9c91a7834c1ba4fdd244a5e8aa4e537bd38aeae4b073aa611272610dec565b60405161127f919061214c565b60405180910390a1565b600073ffffffffffffffffffffffffffffffffffffffff168273ffffffffffffffffffffffffffffffffffffffff1614156112f9576040517f08c379a00000000000000000000000000000000000000000000000000000000081526004016112f090612350565b60405180910390fd5b61130281610d80565b15611342576040517f08c379a000000000000000000000000000000000000000000000000000000000815260040161133990612250565b60405180910390fd5b61134e600083836118a4565b6001606860008473ffffffffffffffffffffffffffffffffffffffff1673ffffffffffffffffffffffffffffffffffffffff168152602001908152602001600020600082825461139e91906124c4565b92505081905550816067600083815260200190815260200160002060006101000a81548173ffffffffffffffffffffffffffffffffffffffff021916908373ffffffffffffffffffffffffffffffffffffffff160217905550808273ffffffffffffffffffffffffffffffffffffffff16600073ffffffffffffffffffffffffffffffffffffffff167fddf252ad1be2c89b69c2b068fc378daa952ba7f163c4a11628f55a4df523b3ef60405160405180910390a45050565b6000611462826107d4565b9050611470816000846118a4565b61147b600083610df4565b6001606860008373ffffffffffffffffffffffffffffffffffffffff1673ffffffffffffffffffffffffffffffffffffffff16815260200190815260200160002060008282546114cb919061254b565b925050819055506067600083815260200190815260200160002060006101000a81549073ffffffffffffffffffffffffffffffffffffffff021916905581600073ffffffffffffffffffffffffffffffffffffffff168273ffffffffffffffffffffffffffffffffffffffff167fddf252ad1be2c89b69c2b068fc378daa952ba7f163c4a11628f55a4df523b3ef60405160405180910390a45050565b6115706107bd565b156115b0576040517f08c379a00000000000000000000000000000000000000000000000000000000081526004016115a7906122d0565b60405180910390fd5b6001609760006101000a81548160ff0219169083151502179055507f62e78cea01bee320cd4e420270b5ea74000d11b0c9f74754ebdbfc544b05a2586115f4610dec565b604051611601919061214c565b60405180910390a1565b6116158383611289565b61162260008484846118fc565b611661576040517f08c379a000000000000000000000000000000000000000000000000000000000815260040161165890612230565b60405180910390fd5b505050565b61168082826040518060200160405280600081525061160b565b5050565b61168f848484610f8b565b61169b848484846118fc565b6116da576040517f08c379a00000000000000000000000000000000000000000000000000000000081526004016116d190612230565b60405180910390fd5b50505050565b606060405180602001604052806000815250905090565b6060600082141561173f576040518060400160405280600181526020017f3000000000000000000000000000000000000000000000000000000000000000815250905061189f565b600082905060005b6000821461177157808061175a90612698565b915050600a8261176a919061251a565b9150611747565b60008167ffffffffffffffff8111156117b3577f4e487b7100000000000000000000000000000000000000000000000000000000600052604160045260246000fd5b6040519080825280601f01601f1916602001820160405280156117e55781602001600182028036833780820191505090505b5090505b60008514611898576001826117fe919061254b565b9150600a8561180d91906126e1565b603061181991906124c4565b60f81b818381518110611855577f4e487b7100000000000000000000000000000000000000000000000000000000600052603260045260246000fd5b60200101907effffffffffffffffffffffffffffffffffffffffffffffffffffffffffffff1916908160001a905350600a85611891919061251a565b94506117e9565b8093505050505b919050565b6118af838383611a93565b6118b76107bd565b156118f7576040517f08c379a00000000000000000000000000000000000000000000000000000000081526004016118ee906121f0565b60405180910390fd5b505050565b600061191d8473ffffffffffffffffffffffffffffffffffffffff16611a98565b15611a86578373ffffffffffffffffffffffffffffffffffffffff1663150b7a02611946610dec565b8786866040518563ffffffff1660e01b81526004016119689493929190612167565b602060405180830381600087803b15801561198257600080fd5b505af19250505080156119b357506040513d601f19601f820116820180604052508101906119b09190611db3565b60015b611a36573d80600081146119e3576040519150601f19603f3d011682016040523d82523d6000602084013e6119e8565b606091505b50600081511415611a2e576040517f08c379a0000000000000000000000000000000000000000000000000000000008152600401611a2590612230565b60405180910390fd5b805181602001fd5b63150b7a0260e01b7bffffffffffffffffffffffffffffffffffffffffffffffffffffffff1916817bffffffffffffffffffffffffffffffffffffffffffffffffffffffff191614915050611a8b565b600190505b949350505050565b505050565b600080823b905060008111915050919050565b6000611abe611ab984612450565b61242b565b905082815260208101848484011115611ad657600080fd5b611ae18482856125f3565b509392505050565b600081359050611af881612c60565b92915050565b600081359050611b0d81612c77565b92915050565b600081359050611b2281612c8e565b92915050565b600081519050611b3781612c8e565b92915050565b600082601f830112611b4e57600080fd5b8135611b5e848260208601611aab565b91505092915050565b600081359050611b7681612ca5565b92915050565b600060208284031215611b8e57600080fd5b6000611b9c84828501611ae9565b91505092915050565b60008060408385031215611bb857600080fd5b6000611bc685828601611ae9565b9250506020611bd785828601611ae9565b9150509250929050565b600080600060608486031215611bf657600080fd5b6000611c0486828701611ae9565b9350506020611c1586828701611ae9565b9250506040611c2686828701611b67565b9150509250925092565b60008060008060808587031215611c4657600080fd5b6000611c5487828801611ae9565b9450506020611c6587828801611ae9565b9350506040611c7687828801611b67565b925050606085013567ffffffffffffffff811115611c9357600080fd5b611c9f87828801611b3d565b91505092959194509250565b60008060408385031215611cbe57600080fd5b6000611ccc85828601611ae9565b9250506020611cdd85828601611afe565b9150509250929050565b60008060408385031215611cfa57600080fd5b6000611d0885828601611ae9565b9250506020611d1985828601611b67565b9150509250929050565b600080600060608486031215611d3857600080fd5b6000611d4686828701611ae9565b9350506020611d5786828701611b67565b925050604084013567ffffffffffffffff811115611d7457600080fd5b611d8086828701611b3d565b9150509250925092565b600060208284031215611d9c57600080fd5b6000611daa84828501611b13565b91505092915050565b600060208284031215611dc557600080fd5b6000611dd384828501611b28565b91505092915050565b600060208284031215611dee57600080fd5b6000611dfc84828501611b67565b91505092915050565b611e0e8161257f565b82525050565b611e1d81612591565b82525050565b6000611e2e82612481565b611e388185612497565b9350611e48818560208601612602565b611e51816127ce565b840191505092915050565b6000611e678261248c565b611e7181856124a8565b9350611e81818560208601612602565b611e8a816127ce565b840191505092915050565b6000611ea08261248c565b611eaa81856124b9565b9350611eba818560208601612602565b80840191505092915050565b6000611ed3602b836124a8565b9150611ede826127df565b604082019050919050565b6000611ef66014836124a8565b9150611f018261282e565b602082019050919050565b6000611f196032836124a8565b9150611f2482612857565b604082019050919050565b6000611f3c601c836124a8565b9150611f47826128a6565b602082019050919050565b6000611f5f6024836124a8565b9150611f6a826128cf565b604082019050919050565b6000611f826019836124a8565b9150611f8d8261291e565b602082019050919050565b6000611fa5602c836124a8565b9150611fb082612947565b604082019050919050565b6000611fc86010836124a8565b9150611fd382612996565b602082019050919050565b6000611feb6038836124a8565b9150611ff6826129bf565b604082019050919050565b600061200e602a836124a8565b915061201982612a0e565b604082019050919050565b60006120316029836124a8565b915061203c82612a5d565b604082019050919050565b60006120546020836124a8565b915061205f82612aac565b602082019050919050565b6000612077602c836124a8565b915061208282612ad5565b604082019050919050565b600061209a6029836124a8565b91506120a582612b24565b604082019050919050565b60006120bd602f836124a8565b91506120c882612b73565b604082019050919050565b60006120e06021836124a8565b91506120eb82612bc2565b604082019050919050565b60006121036031836124a8565b915061210e82612c11565b604082019050919050565b612122816125e9565b82525050565b60006121348285611e95565b91506121408284611e95565b91508190509392505050565b60006020820190506121616000830184611e05565b92915050565b600060808201905061217c6000830187611e05565b6121896020830186611e05565b6121966040830185612119565b81810360608301526121a88184611e23565b905095945050505050565b60006020820190506121c86000830184611e14565b92915050565b600060208201905081810360008301526121e88184611e5c565b905092915050565b6000602082019050818103600083015261220981611ec6565b9050919050565b6000602082019050818103600083015261222981611ee9565b9050919050565b6000602082019050818103600083015261224981611f0c565b9050919050565b6000602082019050818103600083015261226981611f2f565b9050919050565b6000602082019050818103600083015261228981611f52565b9050919050565b600060208201905081810360008301526122a981611f75565b9050919050565b600060208201905081810360008301526122c981611f98565b9050919050565b600060208201905081810360008301526122e981611fbb565b9050919050565b6000602082019050818103600083015261230981611fde565b9050919050565b6000602082019050818103600083015261232981612001565b9050919050565b6000602082019050818103600083015261234981612024565b9050919050565b6000602082019050818103600083015261236981612047565b9050919050565b600060208201905081810360008301526123898161206a565b9050919050565b600060208201905081810360008301526123a98161208d565b9050919050565b600060208201905081810360008301526123c9816120b0565b9050919050565b600060208201905081810360008301526123e9816120d3565b9050919050565b60006020820190508181036000830152612409816120f6565b9050919050565b60006020820190506124256000830184612119565b92915050565b6000612435612446565b90506124418282612667565b919050565b6000604051905090565b600067ffffffffffffffff82111561246b5761246a61279f565b5b612474826127ce565b9050602081019050919050565b600081519050919050565b600081519050919050565b600082825260208201905092915050565b600082825260208201905092915050565b600081905092915050565b60006124cf826125e9565b91506124da836125e9565b9250827fffffffffffffffffffffffffffffffffffffffffffffffffffffffffffffffff0382111561250f5761250e612712565b5b828201905092915050565b6000612525826125e9565b9150612530836125e9565b9250826125405761253f612741565b5b828204905092915050565b6000612556826125e9565b9150612561836125e9565b92508282101561257457612573612712565b5b828203905092915050565b600061258a826125c9565b9050919050565b60008115159050919050565b60007fffffffff0000000000000000000000000000000000000000000000000000000082169050919050565b600073ffffffffffffffffffffffffffffffffffffffff82169050919050565b6000819050919050565b82818337600083830152505050565b60005b83811015612620578082015181840152602081019050612605565b8381111561262f576000848401525b50505050565b6000600282049050600182168061264d57607f821691505b6020821081141561266157612660612770565b5b50919050565b612670826127ce565b810181811067ffffffffffffffff8211171561268f5761268e61279f565b5b80604052505050565b60006126a3826125e9565b91507fffffffffffffffffffffffffffffffffffffffffffffffffffffffffffffffff8214156126d6576126d5612712565b5b600182019050919050565b60006126ec826125e9565b91506126f7836125e9565b92508261270757612706612741565b5b828206905092915050565b7f4e487b7100000000000000000000000000000000000000000000000000000000600052601160045260246000fd5b7f4e487b7100000000000000000000000000000000000000000000000000000000600052601260045260246000fd5b7f4e487b7100000000000000000000000000000000000000000000000000000000600052602260045260246000fd5b7f4e487b7100000000000000000000000000000000000000000000000000000000600052604160045260246000fd5b6000601f19601f8301169050919050565b7f4552433732315061757361626c653a20746f6b656e207472616e73666572207760008201527f68696c6520706175736564000000000000000000000000000000000000000000602082015250565b7f5061757361626c653a206e6f7420706175736564000000000000000000000000600082015250565b7f4552433732313a207472616e7366657220746f206e6f6e20455243373231526560008201527f63656976657220696d706c656d656e7465720000000000000000000000000000602082015250565b7f4552433732313a20746f6b656e20616c7265616479206d696e74656400000000600082015250565b7f4552433732313a207472616e7366657220746f20746865207a65726f2061646460008201527f7265737300000000000000000000000000000000000000000000000000000000602082015250565b7f4552433732313a20617070726f766520746f2063616c6c657200000000000000600082015250565b7f4552433732313a206f70657261746f7220717565727920666f72206e6f6e657860008201527f697374656e7420746f6b656e0000000000000000000000000000000000000000602082015250565b7f5061757361626c653a2070617573656400000000000000000000000000000000600082015250565b7f4552433732313a20617070726f76652063616c6c6572206973206e6f74206f7760008201527f6e6572206e6f7220617070726f76656420666f7220616c6c0000000000000000602082015250565b7f4552433732313a2062616c616e636520717565727920666f7220746865207a6560008201527f726f206164647265737300000000000000000000000000000000000000000000602082015250565b7f4552433732313a206f776e657220717565727920666f72206e6f6e657869737460008201527f656e7420746f6b656e0000000000000000000000000000000000000000000000602082015250565b7f4552433732313a206d696e7420746f20746865207a65726f2061646472657373600082015250565b7f4552433732313a20617070726f76656420717565727920666f72206e6f6e657860008201527f697374656e7420746f6b656e0000000000000000000000000000000000000000602082015250565b7f4552433732313a207472616e73666572206f6620746f6b656e2074686174206960008201527f73206e6f74206f776e0000000000000000000000000000000000000000000000602082015250565b7f4552433732314d657461646174613a2055524920717565727920666f72206e6f60008201527f6e6578697374656e7420746f6b656e0000000000000000000000000000000000602082015250565b7f4552433732313a20617070726f76616c20746f2063757272656e74206f776e6560008201527f7200000000000000000000000000000000000000000000000000000000000000602082015250565b7f4552433732313a207472616e736665722063616c6c6572206973206e6f74206f60008201527f776e6572206e6f7220617070726f766564000000000000000000000000000000602082015250565b612c698161257f565b8114612c7457600080fd5b50565b612c8081612591565b8114612c8b57600080fd5b50565b612c978161259d565b8114612ca257600080fd5b50565b612cae816125e9565b8114612cb957600080fd5b5056fea2646970667358221220fe5fd7193212dc95f11c2f92776b2afac89144f92dc76b3fe8e85c44ffb814bd64736f6c63430008040033",
  "linkReferences": {},
  "deployedLinkReferences": {}
}