{
  "_format": "hh-sol-artifact-1",
  "contractName": "ERC777SenderRecipientMockUpgradeableWithInit",
  "sourceName": "contracts/src/OpenZeppelin/upgradeable/mocks/WithInit.sol",
  "abi": [
    {
      "inputs": [],
      "stateMutability": "payable",
      "type": "constructor"
    },
    {
      "anonymous": false,
      "inputs": [],
      "name": "BeforeTokenTransfer",
      "type": "event"
    },
    {
      "anonymous": false,
      "inputs": [
        {
          "indexed": false,
          "internalType": "address",
          "name": "operator",
          "type": "address"
        },
        {
          "indexed": false,
          "internalType": "address",
          "name": "from",
          "type": "address"
        },
        {
          "indexed": false,
          "internalType": "address",
          "name": "to",
          "type": "address"
        },
        {
          "indexed": false,
          "internalType": "uint256",
          "name": "amount",
          "type": "uint256"
        },
        {
          "indexed": false,
          "internalType": "bytes",
          "name": "data",
          "type": "bytes"
        },
        {
          "indexed": false,
          "internalType": "bytes",
          "name": "operatorData",
          "type": "bytes"
        },
        {
          "indexed": false,
          "internalType": "address",
          "name": "token",
          "type": "address"
        },
        {
          "indexed": false,
          "internalType": "uint256",
          "name": "fromBalance",
          "type": "uint256"
        },
        {
          "indexed": false,
          "internalType": "uint256",
          "name": "toBalance",
          "type": "uint256"
        }
      ],
      "name": "TokensReceivedCalled",
      "type": "event"
    },
    {
      "anonymous": false,
      "inputs": [
        {
          "indexed": false,
          "internalType": "address",
          "name": "operator",
          "type": "address"
        },
        {
          "indexed": false,
          "internalType": "address",
          "name": "from",
          "type": "address"
        },
        {
          "indexed": false,
          "internalType": "address",
          "name": "to",
          "type": "address"
        },
        {
          "indexed": false,
          "internalType": "uint256",
          "name": "amount",
          "type": "uint256"
        },
        {
          "indexed": false,
          "internalType": "bytes",
          "name": "data",
          "type": "bytes"
        },
        {
          "indexed": false,
          "internalType": "bytes",
          "name": "operatorData",
          "type": "bytes"
        },
        {
          "indexed": false,
          "internalType": "address",
          "name": "token",
          "type": "address"
        },
        {
          "indexed": false,
          "internalType": "uint256",
          "name": "fromBalance",
          "type": "uint256"
        },
        {
          "indexed": false,
          "internalType": "uint256",
          "name": "toBalance",
          "type": "uint256"
        }
      ],
      "name": "TokensToSendCalled",
      "type": "event"
    },
    {
      "inputs": [
        {
          "internalType": "contract IERC777Upgradeable",
          "name": "token",
          "type": "address"
        },
        {
          "internalType": "uint256",
          "name": "amount",
          "type": "uint256"
        },
        {
          "internalType": "bytes",
          "name": "data",
          "type": "bytes"
        }
      ],
      "name": "burn",
      "outputs": [],
      "stateMutability": "nonpayable",
      "type": "function"
    },
    {
      "inputs": [
        {
          "internalType": "bytes32",
          "name": "interfaceHash",
          "type": "bytes32"
        },
        {
          "internalType": "address",
          "name": "account",
          "type": "address"
        }
      ],
      "name": "canImplementInterfaceForAddress",
      "outputs": [
        {
          "internalType": "bytes32",
          "name": "",
          "type": "bytes32"
        }
      ],
      "stateMutability": "view",
      "type": "function"
    },
    {
      "inputs": [
        {
          "internalType": "address",
          "name": "account",
          "type": "address"
        }
      ],
      "name": "recipientFor",
      "outputs": [],
      "stateMutability": "nonpayable",
      "type": "function"
    },
    {
      "inputs": [
        {
          "internalType": "address",
          "name": "recipient",
          "type": "address"
        }
      ],
      "name": "registerRecipient",
      "outputs": [],
      "stateMutability": "nonpayable",
      "type": "function"
    },
    {
      "inputs": [
        {
          "internalType": "address",
          "name": "sender",
          "type": "address"
        }
      ],
      "name": "registerSender",
      "outputs": [],
      "stateMutability": "nonpayable",
      "type": "function"
    },
    {
      "inputs": [
        {
          "internalType": "contract IERC777Upgradeable",
          "name": "token",
          "type": "address"
        },
        {
          "internalType": "address",
          "name": "to",
          "type": "address"
        },
        {
          "internalType": "uint256",
          "name": "amount",
          "type": "uint256"
        },
        {
          "internalType": "bytes",
          "name": "data",
          "type": "bytes"
        }
      ],
      "name": "send",
      "outputs": [],
      "stateMutability": "nonpayable",
      "type": "function"
    },
    {
      "inputs": [
        {
          "internalType": "address",
          "name": "account",
          "type": "address"
        }
      ],
      "name": "senderFor",
      "outputs": [],
      "stateMutability": "nonpayable",
      "type": "function"
    },
    {
      "inputs": [
        {
          "internalType": "bool",
          "name": "shouldRevert",
          "type": "bool"
        }
      ],
      "name": "setShouldRevertReceive",
      "outputs": [],
      "stateMutability": "nonpayable",
      "type": "function"
    },
    {
      "inputs": [
        {
          "internalType": "bool",
          "name": "shouldRevert",
          "type": "bool"
        }
      ],
      "name": "setShouldRevertSend",
      "outputs": [],
      "stateMutability": "nonpayable",
      "type": "function"
    },
    {
      "inputs": [
        {
          "internalType": "address",
          "name": "operator",
          "type": "address"
        },
        {
          "internalType": "address",
          "name": "from",
          "type": "address"
        },
        {
          "internalType": "address",
          "name": "to",
          "type": "address"
        },
        {
          "internalType": "uint256",
          "name": "amount",
          "type": "uint256"
        },
        {
          "internalType": "bytes",
          "name": "userData",
          "type": "bytes"
        },
        {
          "internalType": "bytes",
          "name": "operatorData",
          "type": "bytes"
        }
      ],
      "name": "tokensReceived",
      "outputs": [],
      "stateMutability": "nonpayable",
      "type": "function"
    },
    {
      "inputs": [
        {
          "internalType": "address",
          "name": "operator",
          "type": "address"
        },
        {
          "internalType": "address",
          "name": "from",
          "type": "address"
        },
        {
          "internalType": "address",
          "name": "to",
          "type": "address"
        },
        {
          "internalType": "uint256",
          "name": "amount",
          "type": "uint256"
        },
        {
          "internalType": "bytes",
          "name": "userData",
          "type": "bytes"
        },
        {
          "internalType": "bytes",
          "name": "operatorData",
          "type": "bytes"
        }
      ],
      "name": "tokensToSend",
      "outputs": [],
      "stateMutability": "nonpayable",
      "type": "function"
    }
  ],
  "bytecode": "0x6080604052620000146200001a60201b60201c565b620004c4565b600060019054906101000a900460ff168062000041575060008054906101000a900460ff16155b62000083576040517f08c379a00000000000000000000000000000000000000000000000000000000081526004016200007a9062000442565b60405180910390fd5b60008060019054906101000a900460ff161590508015620000d4576001600060016101000a81548160ff02191690831515021790555060016000806101000a81548160ff0219169083151502179055505b620000e46200012960201b60201c565b620000f46200020860201b60201c565b62000104620002e760201b60201c565b8015620001265760008060016101000a81548160ff0219169083151502179055505b50565b600060019054906101000a900460ff168062000150575060008054906101000a900460ff16155b62000192576040517f08c379a0000000000000000000000000000000000000000000000000000000008152600401620001899062000442565b60405180910390fd5b60008060019054906101000a900460ff161590508015620001e3576001600060016101000a81548160ff02191690831515021790555060016000806101000a81548160ff0219169083151502179055505b8015620002055760008060016101000a81548160ff0219169083151502179055505b50565b600060019054906101000a900460ff16806200022f575060008054906101000a900460ff16155b62000271576040517f08c379a0000000000000000000000000000000000000000000000000000000008152600401620002689062000442565b60405180910390fd5b60008060019054906101000a900460ff161590508015620002c2576001600060016101000a81548160ff02191690831515021790555060016000806101000a81548160ff0219169083151502179055505b8015620002e45760008060016101000a81548160ff0219169083151502179055505b50565b600060019054906101000a900460ff16806200030e575060008054906101000a900460ff16155b62000350576040517f08c379a0000000000000000000000000000000000000000000000000000000008152600401620003479062000442565b60405180910390fd5b60008060019054906101000a900460ff161590508015620003a1576001600060016101000a81548160ff02191690831515021790555060016000806101000a81548160ff0219169083151502179055505b731820a4b7618bde71dce8cdc73aab6c95905fad24606560026101000a81548173ffffffffffffffffffffffffffffffffffffffff021916908373ffffffffffffffffffffffffffffffffffffffff1602179055508015620004185760008060016101000a81548160ff0219169083151502179055505b50565b60006200042a602e8362000464565b9150620004378262000475565b604082019050919050565b600060208201905081810360008301526200045d816200041b565b9050919050565b600082825260208201905092915050565b7f496e697469616c697a61626c653a20636f6e747261637420697320616c72656160008201527f647920696e697469616c697a6564000000000000000000000000000000000000602082015250565b61116780620004d46000396000f3fe608060405234801561001057600080fd5b50600436106100a85760003560e01c806375ab97821161007157806375ab97821461014d578063a8badaa514610169578063c97e18fc14610185578063d2de6474146101a1578063e0eb2180146101bd578063e1ecbd30146101d9576100a8565b806223de29146100ad578063249cb3fa146100c95780633836ef89146100f957806344d17187146101155780634e4ae5a514610131575b600080fd5b6100c760048036038101906100c29190610af5565b6101f5565b005b6100e360048036038101906100de9190610be1565b61038d565b6040516100f09190610eea565b60405180910390f35b610113600480360381019061010e9190610c1d565b610424565b005b61012f600480360381019061012a9190610c98565b610499565b005b61014b60048036038101906101469190610bb8565b61050b565b005b61016760048036038101906101629190610af5565b610528565b005b610183600480360381019061017e9190610acc565b6106c0565b005b61019f600480360381019061019a9190610bb8565b610774565b005b6101bb60048036038101906101b69190610acc565b610791565b005b6101d760048036038101906101d29190610acc565b610802565b005b6101f360048036038101906101ee9190610acc565b610873565b005b606560019054906101000a900460ff161561020f57600080fd5b6000610219610927565b905060008173ffffffffffffffffffffffffffffffffffffffff166370a082318a6040518263ffffffff1660e01b81526004016102569190610dbb565b60206040518083038186803b15801561026e57600080fd5b505afa158015610282573d6000803e3d6000fd5b505050506040513d601f19601f820116820180604052508101906102a69190610cff565b905060008273ffffffffffffffffffffffffffffffffffffffff166370a082318a6040518263ffffffff1660e01b81526004016102e39190610dbb565b60206040518083038186803b1580156102fb57600080fd5b505afa15801561030f573d6000803e3d6000fd5b505050506040513d601f19601f820116820180604052508101906103339190610cff565b90507f47e915878c47f3ec4d7ff646a2becb229f64fd2abe4d2b5e2bb4275b0cf50d4e8b8b8b8b8b8b8b8b8b8b8b6040516103789b9a99989796959493929190610dd6565b60405180910390a15050505050505050505050565b60006033600084815260200190815260200160002060008373ffffffffffffffffffffffffffffffffffffffff1673ffffffffffffffffffffffffffffffffffffffff16815260200190815260200160002060009054906101000a900460ff166103fa576000801b61041c565b7fa2ef4600d742022d532d4747cb3547474667d6f13804902513b2ec01c848f4b45b905092915050565b8373ffffffffffffffffffffffffffffffffffffffff16639bd9bbc68484846040518463ffffffff1660e01b815260040161046193929190610eac565b600060405180830381600087803b15801561047b57600080fd5b505af115801561048f573d6000803e3d6000fd5b5050505050505050565b8273ffffffffffffffffffffffffffffffffffffffff1663fe9d930383836040518363ffffffff1660e01b81526004016104d4929190610f05565b600060405180830381600087803b1580156104ee57600080fd5b505af1158015610502573d6000803e3d6000fd5b50505050505050565b80606560006101000a81548160ff02191690831515021790555050565b606560009054906101000a900460ff161561054257600080fd5b600061054c610927565b905060008173ffffffffffffffffffffffffffffffffffffffff166370a082318a6040518263ffffffff1660e01b81526004016105899190610dbb565b60206040518083038186803b1580156105a157600080fd5b505afa1580156105b5573d6000803e3d6000fd5b505050506040513d601f19601f820116820180604052508101906105d99190610cff565b905060008273ffffffffffffffffffffffffffffffffffffffff166370a082318a6040518263ffffffff1660e01b81526004016106169190610dbb565b60206040518083038186803b15801561062e57600080fd5b505afa158015610642573d6000803e3d6000fd5b505050506040513d601f19601f820116820180604052508101906106669190610cff565b90507faa3e88aca472e90221daf7d3d601abafb62b120319089d7a2c2f63588da855298b8b8b8b8b8b8b8b8b8b8b6040516106ab9b9a99989796959493929190610dd6565b60405180910390a15050505050505050505050565b606560029054906101000a900473ffffffffffffffffffffffffffffffffffffffff1673ffffffffffffffffffffffffffffffffffffffff166329965a1d307fb281fc8c12954d22544db45de3159a39272895b169a852b314f9cc762e44c53b846040518463ffffffff1660e01b815260040161073f93929190610e75565b600060405180830381600087803b15801561075957600080fd5b505af115801561076d573d6000803e3d6000fd5b5050505050565b80606560016101000a81548160ff02191690831515021790555050565b6107bb7f29ddb589b1fb5fc7cf394961c1adf5f8c6454761adf795e67fe149f658abe8958261092f565b60003090508073ffffffffffffffffffffffffffffffffffffffff168273ffffffffffffffffffffffffffffffffffffffff1614156107fe576107fd81610873565b5b5050565b61082c7fb281fc8c12954d22544db45de3159a39272895b169a852b314f9cc762e44c53b8261092f565b60003090508073ffffffffffffffffffffffffffffffffffffffff168273ffffffffffffffffffffffffffffffffffffffff16141561086f5761086e816106c0565b5b5050565b606560029054906101000a900473ffffffffffffffffffffffffffffffffffffffff1673ffffffffffffffffffffffffffffffffffffffff166329965a1d307f29ddb589b1fb5fc7cf394961c1adf5f8c6454761adf795e67fe149f658abe895846040518463ffffffff1660e01b81526004016108f293929190610e75565b600060405180830381600087803b15801561090c57600080fd5b505af1158015610920573d6000803e3d6000fd5b5050505050565b600033905090565b60016033600084815260200190815260200160002060008373ffffffffffffffffffffffffffffffffffffffff1673ffffffffffffffffffffffffffffffffffffffff16815260200190815260200160002060006101000a81548160ff0219169083151502179055505050565b60006109af6109aa84610f5a565b610f35565b9050828152602081018484840111156109c757600080fd5b6109d284828561100b565b509392505050565b6000813590506109e9816110be565b92915050565b6000813590506109fe816110d5565b92915050565b600081359050610a13816110ec565b92915050565b60008083601f840112610a2b57600080fd5b8235905067ffffffffffffffff811115610a4457600080fd5b602083019150836001820283011115610a5c57600080fd5b9250929050565b600082601f830112610a7457600080fd5b8135610a8484826020860161099c565b91505092915050565b600081359050610a9c81611103565b92915050565b600081359050610ab18161111a565b92915050565b600081519050610ac68161111a565b92915050565b600060208284031215610ade57600080fd5b6000610aec848285016109da565b91505092915050565b60008060008060008060008060c0898b031215610b1157600080fd5b6000610b1f8b828c016109da565b9850506020610b308b828c016109da565b9750506040610b418b828c016109da565b9650506060610b528b828c01610aa2565b955050608089013567ffffffffffffffff811115610b6f57600080fd5b610b7b8b828c01610a19565b945094505060a089013567ffffffffffffffff811115610b9a57600080fd5b610ba68b828c01610a19565b92509250509295985092959890939650565b600060208284031215610bca57600080fd5b6000610bd8848285016109ef565b91505092915050565b60008060408385031215610bf457600080fd5b6000610c0285828601610a04565b9250506020610c13858286016109da565b9150509250929050565b60008060008060808587031215610c3357600080fd5b6000610c4187828801610a8d565b9450506020610c52878288016109da565b9350506040610c6387828801610aa2565b925050606085013567ffffffffffffffff811115610c8057600080fd5b610c8c87828801610a63565b91505092959194509250565b600080600060608486031215610cad57600080fd5b6000610cbb86828701610a8d565b9350506020610ccc86828701610aa2565b925050604084013567ffffffffffffffff811115610ce957600080fd5b610cf586828701610a63565b9150509250925092565b600060208284031215610d1157600080fd5b6000610d1f84828501610ab7565b91505092915050565b610d3181610fa7565b82525050565b610d4081610fc5565b82525050565b6000610d528385610f96565b9350610d5f83858461100b565b610d68836110ad565b840190509392505050565b6000610d7e82610f8b565b610d888185610f96565b9350610d9881856020860161101a565b610da1816110ad565b840191505092915050565b610db581611001565b82525050565b6000602082019050610dd06000830184610d28565b92915050565b600061012082019050610dec600083018e610d28565b610df9602083018d610d28565b610e06604083018c610d28565b610e13606083018b610dac565b8181036080830152610e2681898b610d46565b905081810360a0830152610e3b818789610d46565b9050610e4a60c0830186610d28565b610e5760e0830185610dac565b610e65610100830184610dac565b9c9b505050505050505050505050565b6000606082019050610e8a6000830186610d28565b610e976020830185610d37565b610ea46040830184610d28565b949350505050565b6000606082019050610ec16000830186610d28565b610ece6020830185610dac565b8181036040830152610ee08184610d73565b9050949350505050565b6000602082019050610eff6000830184610d37565b92915050565b6000604082019050610f1a6000830185610dac565b8181036020830152610f2c8184610d73565b90509392505050565b6000610f3f610f50565b9050610f4b828261104d565b919050565b6000604051905090565b600067ffffffffffffffff821115610f7557610f7461107e565b5b610f7e826110ad565b9050602081019050919050565b600081519050919050565b600082825260208201905092915050565b6000610fb282610fe1565b9050919050565b60008115159050919050565b6000819050919050565b6000610fda82610fa7565b9050919050565b600073ffffffffffffffffffffffffffffffffffffffff82169050919050565b6000819050919050565b82818337600083830152505050565b60005b8381101561103857808201518184015260208101905061101d565b83811115611047576000848401525b50505050565b611056826110ad565b810181811067ffffffffffffffff821117156110755761107461107e565b5b80604052505050565b7f4e487b7100000000000000000000000000000000000000000000000000000000600052604160045260246000fd5b6000601f19601f8301169050919050565b6110c781610fa7565b81146110d257600080fd5b50565b6110de81610fb9565b81146110e957600080fd5b50565b6110f581610fc5565b811461110057600080fd5b50565b61110c81610fcf565b811461111757600080fd5b50565b61112381611001565b811461112e57600080fd5b5056fea26469706673582212203aace1d25ccffbf06ac7f35d7a843bf0bc27996f1ec32eb085d7c47b2a49f7e164736f6c63430008040033",
  "linkReferences": {},
  "deployedLinkReferences": {}
}