{
  "_format": "hh-sol-artifact-1",
  "contractName": "ERC721PresetMinterPauserAutoIdUpgradeableWithInit",
  "sourceName": "contracts/src/OpenZeppelin/upgradeable/mocks/WithInit.sol",
  "abi": [
    {
      "inputs": [
        {
          "internalType": "string",
          "name": "name",
          "type": "string"
        },
        {
          "internalType": "string",
          "name": "symbol",
          "type": "string"
        },
        {
          "internalType": "string",
          "name": "baseTokenURI",
          "type": "string"
        }
      ],
      "stateMutability": "payable",
      "type": "constructor"
    },
    {
      "anonymous": false,
      "inputs": [
        {
          "indexed": true,
          "internalType": "address",
          "name": "owner",
          "type": "address"
        },
        {
          "indexed": true,
          "internalType": "address",
          "name": "approved",
          "type": "address"
        },
        {
          "indexed": true,
          "internalType": "uint256",
          "name": "tokenId",
          "type": "uint256"
        }
      ],
      "name": "Approval",
      "type": "event"
    },
    {
      "anonymous": false,
      "inputs": [
        {
          "indexed": true,
          "internalType": "address",
          "name": "owner",
          "type": "address"
        },
        {
          "indexed": true,
          "internalType": "address",
          "name": "operator",
          "type": "address"
        },
        {
          "indexed": false,
          "internalType": "bool",
          "name": "approved",
          "type": "bool"
        }
      ],
      "name": "ApprovalForAll",
      "type": "event"
    },
    {
      "anonymous": false,
      "inputs": [
        {
          "indexed": false,
          "internalType": "address",
          "name": "account",
          "type": "address"
        }
      ],
      "name": "Paused",
      "type": "event"
    },
    {
      "anonymous": false,
      "inputs": [
        {
          "indexed": true,
          "internalType": "bytes32",
          "name": "role",
          "type": "bytes32"
        },
        {
          "indexed": true,
          "internalType": "bytes32",
          "name": "previousAdminRole",
          "type": "bytes32"
        },
        {
          "indexed": true,
          "internalType": "bytes32",
          "name": "newAdminRole",
          "type": "bytes32"
        }
      ],
      "name": "RoleAdminChanged",
      "type": "event"
    },
    {
      "anonymous": false,
      "inputs": [
        {
          "indexed": true,
          "internalType": "bytes32",
          "name": "role",
          "type": "bytes32"
        },
        {
          "indexed": true,
          "internalType": "address",
          "name": "account",
          "type": "address"
        },
        {
          "indexed": true,
          "internalType": "address",
          "name": "sender",
          "type": "address"
        }
      ],
      "name": "RoleGranted",
      "type": "event"
    },
    {
      "anonymous": false,
      "inputs": [
        {
          "indexed": true,
          "internalType": "bytes32",
          "name": "role",
          "type": "bytes32"
        },
        {
          "indexed": true,
          "internalType": "address",
          "name": "account",
          "type": "address"
        },
        {
          "indexed": true,
          "internalType": "address",
          "name": "sender",
          "type": "address"
        }
      ],
      "name": "RoleRevoked",
      "type": "event"
    },
    {
      "anonymous": false,
      "inputs": [
        {
          "indexed": true,
          "internalType": "address",
          "name": "from",
          "type": "address"
        },
        {
          "indexed": true,
          "internalType": "address",
          "name": "to",
          "type": "address"
        },
        {
          "indexed": true,
          "internalType": "uint256",
          "name": "tokenId",
          "type": "uint256"
        }
      ],
      "name": "Transfer",
      "type": "event"
    },
    {
      "anonymous": false,
      "inputs": [
        {
          "indexed": false,
          "internalType": "address",
          "name": "account",
          "type": "address"
        }
      ],
      "name": "Unpaused",
      "type": "event"
    },
    {
      "inputs": [],
      "name": "DEFAULT_ADMIN_ROLE",
      "outputs": [
        {
          "internalType": "bytes32",
          "name": "",
          "type": "bytes32"
        }
      ],
      "stateMutability": "view",
      "type": "function"
    },
    {
      "inputs": [],
      "name": "MINTER_ROLE",
      "outputs": [
        {
          "internalType": "bytes32",
          "name": "",
          "type": "bytes32"
        }
      ],
      "stateMutability": "view",
      "type": "function"
    },
    {
      "inputs": [],
      "name": "PAUSER_ROLE",
      "outputs": [
        {
          "internalType": "bytes32",
          "name": "",
          "type": "bytes32"
        }
      ],
      "stateMutability": "view",
      "type": "function"
    },
    {
      "inputs": [
        {
          "internalType": "address",
          "name": "to",
          "type": "address"
        },
        {
          "internalType": "uint256",
          "name": "tokenId",
          "type": "uint256"
        }
      ],
      "name": "approve",
      "outputs": [],
      "stateMutability": "nonpayable",
      "type": "function"
    },
    {
      "inputs": [
        {
          "internalType": "address",
          "name": "owner",
          "type": "address"
        }
      ],
      "name": "balanceOf",
      "outputs": [
        {
          "internalType": "uint256",
          "name": "",
          "type": "uint256"
        }
      ],
      "stateMutability": "view",
      "type": "function"
    },
    {
      "inputs": [
        {
          "internalType": "uint256",
          "name": "tokenId",
          "type": "uint256"
        }
      ],
      "name": "burn",
      "outputs": [],
      "stateMutability": "nonpayable",
      "type": "function"
    },
    {
      "inputs": [
        {
          "internalType": "uint256",
          "name": "tokenId",
          "type": "uint256"
        }
      ],
      "name": "getApproved",
      "outputs": [
        {
          "internalType": "address",
          "name": "",
          "type": "address"
        }
      ],
      "stateMutability": "view",
      "type": "function"
    },
    {
      "inputs": [
        {
          "internalType": "bytes32",
          "name": "role",
          "type": "bytes32"
        }
      ],
      "name": "getRoleAdmin",
      "outputs": [
        {
          "internalType": "bytes32",
          "name": "",
          "type": "bytes32"
        }
      ],
      "stateMutability": "view",
      "type": "function"
    },
    {
      "inputs": [
        {
          "internalType": "bytes32",
          "name": "role",
          "type": "bytes32"
        },
        {
          "internalType": "uint256",
          "name": "index",
          "type": "uint256"
        }
      ],
      "name": "getRoleMember",
      "outputs": [
        {
          "internalType": "address",
          "name": "",
          "type": "address"
        }
      ],
      "stateMutability": "view",
      "type": "function"
    },
    {
      "inputs": [
        {
          "internalType": "bytes32",
          "name": "role",
          "type": "bytes32"
        }
      ],
      "name": "getRoleMemberCount",
      "outputs": [
        {
          "internalType": "uint256",
          "name": "",
          "type": "uint256"
        }
      ],
      "stateMutability": "view",
      "type": "function"
    },
    {
      "inputs": [
        {
          "internalType": "bytes32",
          "name": "role",
          "type": "bytes32"
        },
        {
          "internalType": "address",
          "name": "account",
          "type": "address"
        }
      ],
      "name": "grantRole",
      "outputs": [],
      "stateMutability": "nonpayable",
      "type": "function"
    },
    {
      "inputs": [
        {
          "internalType": "bytes32",
          "name": "role",
          "type": "bytes32"
        },
        {
          "internalType": "address",
          "name": "account",
          "type": "address"
        }
      ],
      "name": "hasRole",
      "outputs": [
        {
          "internalType": "bool",
          "name": "",
          "type": "bool"
        }
      ],
      "stateMutability": "view",
      "type": "function"
    },
    {
      "inputs": [
        {
          "internalType": "string",
          "name": "name",
          "type": "string"
        },
        {
          "internalType": "string",
          "name": "symbol",
          "type": "string"
        },
        {
          "internalType": "string",
          "name": "baseTokenURI",
          "type": "string"
        }
      ],
      "name": "initialize",
      "outputs": [],
      "stateMutability": "nonpayable",
      "type": "function"
    },
    {
      "inputs": [
        {
          "internalType": "address",
          "name": "owner",
          "type": "address"
        },
        {
          "internalType": "address",
          "name": "operator",
          "type": "address"
        }
      ],
      "name": "isApprovedForAll",
      "outputs": [
        {
          "internalType": "bool",
          "name": "",
          "type": "bool"
        }
      ],
      "stateMutability": "view",
      "type": "function"
    },
    {
      "inputs": [
        {
          "internalType": "address",
          "name": "to",
          "type": "address"
        }
      ],
      "name": "mint",
      "outputs": [],
      "stateMutability": "nonpayable",
      "type": "function"
    },
    {
      "inputs": [],
      "name": "name",
      "outputs": [
        {
          "internalType": "string",
          "name": "",
          "type": "string"
        }
      ],
      "stateMutability": "view",
      "type": "function"
    },
    {
      "inputs": [
        {
          "internalType": "uint256",
          "name": "tokenId",
          "type": "uint256"
        }
      ],
      "name": "ownerOf",
      "outputs": [
        {
          "internalType": "address",
          "name": "",
          "type": "address"
        }
      ],
      "stateMutability": "view",
      "type": "function"
    },
    {
      "inputs": [],
      "name": "pause",
      "outputs": [],
      "stateMutability": "nonpayable",
      "type": "function"
    },
    {
      "inputs": [],
      "name": "paused",
      "outputs": [
        {
          "internalType": "bool",
          "name": "",
          "type": "bool"
        }
      ],
      "stateMutability": "view",
      "type": "function"
    },
    {
      "inputs": [
        {
          "internalType": "bytes32",
          "name": "role",
          "type": "bytes32"
        },
        {
          "internalType": "address",
          "name": "account",
          "type": "address"
        }
      ],
      "name": "renounceRole",
      "outputs": [],
      "stateMutability": "nonpayable",
      "type": "function"
    },
    {
      "inputs": [
        {
          "internalType": "bytes32",
          "name": "role",
          "type": "bytes32"
        },
        {
          "internalType": "address",
          "name": "account",
          "type": "address"
        }
      ],
      "name": "revokeRole",
      "outputs": [],
      "stateMutability": "nonpayable",
      "type": "function"
    },
    {
      "inputs": [
        {
          "internalType": "address",
          "name": "from",
          "type": "address"
        },
        {
          "internalType": "address",
          "name": "to",
          "type": "address"
        },
        {
          "internalType": "uint256",
          "name": "tokenId",
          "type": "uint256"
        }
      ],
      "name": "safeTransferFrom",
      "outputs": [],
      "stateMutability": "nonpayable",
      "type": "function"
    },
    {
      "inputs": [
        {
          "internalType": "address",
          "name": "from",
          "type": "address"
        },
        {
          "internalType": "address",
          "name": "to",
          "type": "address"
        },
        {
          "internalType": "uint256",
          "name": "tokenId",
          "type": "uint256"
        },
        {
          "internalType": "bytes",
          "name": "_data",
          "type": "bytes"
        }
      ],
      "name": "safeTransferFrom",
      "outputs": [],
      "stateMutability": "nonpayable",
      "type": "function"
    },
    {
      "inputs": [
        {
          "internalType": "address",
          "name": "operator",
          "type": "address"
        },
        {
          "internalType": "bool",
          "name": "approved",
          "type": "bool"
        }
      ],
      "name": "setApprovalForAll",
      "outputs": [],
      "stateMutability": "nonpayable",
      "type": "function"
    },
    {
      "inputs": [
        {
          "internalType": "bytes4",
          "name": "interfaceId",
          "type": "bytes4"
        }
      ],
      "name": "supportsInterface",
      "outputs": [
        {
          "internalType": "bool",
          "name": "",
          "type": "bool"
        }
      ],
      "stateMutability": "view",
      "type": "function"
    },
    {
      "inputs": [],
      "name": "symbol",
      "outputs": [
        {
          "internalType": "string",
          "name": "",
          "type": "string"
        }
      ],
      "stateMutability": "view",
      "type": "function"
    },
    {
      "inputs": [
        {
          "internalType": "uint256",
          "name": "index",
          "type": "uint256"
        }
      ],
      "name": "tokenByIndex",
      "outputs": [
        {
          "internalType": "uint256",
          "name": "",
          "type": "uint256"
        }
      ],
      "stateMutability": "view",
      "type": "function"
    },
    {
      "inputs": [
        {
          "internalType": "address",
          "name": "owner",
          "type": "address"
        },
        {
          "internalType": "uint256",
          "name": "index",
          "type": "uint256"
        }
      ],
      "name": "tokenOfOwnerByIndex",
      "outputs": [
        {
          "internalType": "uint256",
          "name": "",
          "type": "uint256"
        }
      ],
      "stateMutability": "view",
      "type": "function"
    },
    {
      "inputs": [
        {
          "internalType": "uint256",
          "name": "tokenId",
          "type": "uint256"
        }
      ],
      "name": "tokenURI",
      "outputs": [
        {
          "internalType": "string",
          "name": "",
          "type": "string"
        }
      ],
      "stateMutability": "view",
      "type": "function"
    },
    {
      "inputs": [],
      "name": "totalSupply",
      "outputs": [
        {
          "internalType": "uint256",
          "name": "",
          "type": "uint256"
        }
      ],
      "stateMutability": "view",
      "type": "function"
    },
    {
      "inputs": [
        {
          "internalType": "address",
          "name": "from",
          "type": "address"
        },
        {
          "internalType": "address",
          "name": "to",
          "type": "address"
        },
        {
          "internalType": "uint256",
          "name": "tokenId",
          "type": "uint256"
        }
      ],
      "name": "transferFrom",
      "outputs": [],
      "stateMutability": "nonpayable",
      "type": "function"
    },
    {
      "inputs": [],
      "name": "unpause",
      "outputs": [],
      "stateMutability": "nonpayable",
      "type": "function"
    }
  ],
  "bytecode": "0x6080604052604051620069e9380380620069e9833981810160405281019062000029919062000f4f565b6200003c8383836200004560201b60201c565b50505062001209565b600060019054906101000a900460ff16806200006c575060008054906101000a900460ff16155b620000ae576040517f08c379a0000000000000000000000000000000000000000000000000000000008152600401620000a59062001017565b60405180910390fd5b60008060019054906101000a900460ff161590508015620000ff576001600060016101000a81548160ff02191690831515021790555060016000806101000a81548160ff0219169083151502179055505b6200010f620001cc60201b60201c565b6200011f620002ab60201b60201c565b6200012f6200038a60201b60201c565b6200013f6200046960201b60201c565b6200015184846200054860201b60201c565b620001616200065b60201b60201c565b620001716200073a60201b60201c565b620001816200081960201b60201c565b620001916200091460201b60201c565b620001a4848484620009f360201b60201c565b8015620001c65760008060016101000a81548160ff0219169083151502179055505b50505050565b600060019054906101000a900460ff1680620001f3575060008054906101000a900460ff16155b62000235576040517f08c379a00000000000000000000000000000000000000000000000000000000081526004016200022c9062001017565b60405180910390fd5b60008060019054906101000a900460ff16159050801562000286576001600060016101000a81548160ff02191690831515021790555060016000806101000a81548160ff0219169083151502179055505b8015620002a85760008060016101000a81548160ff0219169083151502179055505b50565b600060019054906101000a900460ff1680620002d2575060008054906101000a900460ff16155b62000314576040517f08c379a00000000000000000000000000000000000000000000000000000000081526004016200030b9062001017565b60405180910390fd5b60008060019054906101000a900460ff16159050801562000365576001600060016101000a81548160ff02191690831515021790555060016000806101000a81548160ff0219169083151502179055505b8015620003875760008060016101000a81548160ff0219169083151502179055505b50565b600060019054906101000a900460ff1680620003b1575060008054906101000a900460ff16155b620003f3576040517f08c379a0000000000000000000000000000000000000000000000000000000008152600401620003ea9062001017565b60405180910390fd5b60008060019054906101000a900460ff16159050801562000444576001600060016101000a81548160ff02191690831515021790555060016000806101000a81548160ff0219169083151502179055505b8015620004665760008060016101000a81548160ff0219169083151502179055505b50565b600060019054906101000a900460ff168062000490575060008054906101000a900460ff16155b620004d2576040517f08c379a0000000000000000000000000000000000000000000000000000000008152600401620004c99062001017565b60405180910390fd5b60008060019054906101000a900460ff16159050801562000523576001600060016101000a81548160ff02191690831515021790555060016000806101000a81548160ff0219169083151502179055505b8015620005455760008060016101000a81548160ff0219169083151502179055505b50565b600060019054906101000a900460ff16806200056f575060008054906101000a900460ff16155b620005b1576040517f08c379a0000000000000000000000000000000000000000000000000000000008152600401620005a89062001017565b60405180910390fd5b60008060019054906101000a900460ff16159050801562000602576001600060016101000a81548160ff02191690831515021790555060016000806101000a81548160ff0219169083151502179055505b8260c990805190602001906200061a92919062000e2d565b508160ca90805190602001906200063392919062000e2d565b508015620006565760008060016101000a81548160ff0219169083151502179055505b505050565b600060019054906101000a900460ff168062000682575060008054906101000a900460ff16155b620006c4576040517f08c379a0000000000000000000000000000000000000000000000000000000008152600401620006bb9062001017565b60405180910390fd5b60008060019054906101000a900460ff16159050801562000715576001600060016101000a81548160ff02191690831515021790555060016000806101000a81548160ff0219169083151502179055505b8015620007375760008060016101000a81548160ff0219169083151502179055505b50565b600060019054906101000a900460ff168062000761575060008054906101000a900460ff16155b620007a3576040517f08c379a00000000000000000000000000000000000000000000000000000000081526004016200079a9062001017565b60405180910390fd5b60008060019054906101000a900460ff161590508015620007f4576001600060016101000a81548160ff02191690831515021790555060016000806101000a81548160ff0219169083151502179055505b8015620008165760008060016101000a81548160ff0219169083151502179055505b50565b600060019054906101000a900460ff168062000840575060008054906101000a900460ff16155b62000882576040517f08c379a0000000000000000000000000000000000000000000000000000000008152600401620008799062001017565b60405180910390fd5b60008060019054906101000a900460ff161590508015620008d3576001600060016101000a81548160ff02191690831515021790555060016000806101000a81548160ff0219169083151502179055505b600061015f60006101000a81548160ff0219169083151502179055508015620009115760008060016101000a81548160ff0219169083151502179055505b50565b600060019054906101000a900460ff16806200093b575060008054906101000a900460ff16155b6200097d576040517f08c379a0000000000000000000000000000000000000000000000000000000008152600401620009749062001017565b60405180910390fd5b60008060019054906101000a900460ff161590508015620009ce576001600060016101000a81548160ff02191690831515021790555060016000806101000a81548160ff0219169083151502179055505b8015620009f05760008060016101000a81548160ff0219169083151502179055505b50565b600060019054906101000a900460ff168062000a1a575060008054906101000a900460ff16155b62000a5c576040517f08c379a000000000000000000000000000000000000000000000000000000000815260040162000a539062001017565b60405180910390fd5b60008060019054906101000a900460ff16159050801562000aad576001600060016101000a81548160ff02191690831515021790555060016000806101000a81548160ff0219169083151502179055505b816101c4908051906020019062000ac692919062000e2d565b5062000aeb6000801b62000adf62000b9560201b60201c565b62000b9d60201b60201c565b62000b2c7f9f2df0fed2c77648de5860a4cc508cd0818c85b8b8a1ab4ceeef8d981c8956a662000b2062000b9560201b60201c565b62000b9d60201b60201c565b62000b6d7f65d7a28e3265b37a6474929f336521b332c1681b933f6cb9f3376673440d862a62000b6162000b9560201b60201c565b62000b9d60201b60201c565b801562000b8f5760008060016101000a81548160ff0219169083151502179055505b50505050565b600033905090565b62000bb4828262000be560201b6200141d1760201c565b62000be0816097600085815260200190815260200160002062000bfb60201b6200142b1790919060201c565b505050565b62000bf7828262000c3360201b60201c565b5050565b600062000c2b836000018373ffffffffffffffffffffffffffffffffffffffff1660001b62000d2560201b60201c565b905092915050565b62000c45828262000d9f60201b60201c565b62000d215760016065600084815260200190815260200160002060000160008373ffffffffffffffffffffffffffffffffffffffff1673ffffffffffffffffffffffffffffffffffffffff16815260200190815260200160002060006101000a81548160ff02191690831515021790555062000cc662000b9560201b60201c565b73ffffffffffffffffffffffffffffffffffffffff168173ffffffffffffffffffffffffffffffffffffffff16837f2f8788117e7eff1d82e926ec794901d17c78024a50270940304540a733656f0d60405160405180910390a45b5050565b600062000d39838362000e0a60201b60201c565b62000d9457826000018290806001815401808255809150506001900390600052602060002001600090919091909150558260000180549050836001016000848152602001908152602001600020819055506001905062000d99565b600090505b92915050565b60006065600084815260200190815260200160002060000160008373ffffffffffffffffffffffffffffffffffffffff1673ffffffffffffffffffffffffffffffffffffffff16815260200190815260200160002060009054906101000a900460ff16905092915050565b600080836001016000848152602001908152602001600020541415905092915050565b82805462000e3b90620010df565b90600052602060002090601f01602090048101928262000e5f576000855562000eab565b82601f1062000e7a57805160ff191683800117855562000eab565b8280016001018555821562000eab579182015b8281111562000eaa57825182559160200191906001019062000e8d565b5b50905062000eba919062000ebe565b5090565b5b8082111562000ed957600081600090555060010162000ebf565b5090565b600062000ef462000eee8462001062565b62001039565b90508281526020810184848401111562000f0d57600080fd5b62000f1a848285620010a9565b509392505050565b600082601f83011262000f3457600080fd5b815162000f4684826020860162000edd565b91505092915050565b60008060006060848603121562000f6557600080fd5b600084015167ffffffffffffffff81111562000f8057600080fd5b62000f8e8682870162000f22565b935050602084015167ffffffffffffffff81111562000fac57600080fd5b62000fba8682870162000f22565b925050604084015167ffffffffffffffff81111562000fd857600080fd5b62000fe68682870162000f22565b9150509250925092565b600062000fff602e8362001098565b91506200100c82620011ba565b604082019050919050565b60006020820190508181036000830152620010328162000ff0565b9050919050565b60006200104562001058565b905062001053828262001115565b919050565b6000604051905090565b600067ffffffffffffffff82111562001080576200107f6200117a565b5b6200108b82620011a9565b9050602081019050919050565b600082825260208201905092915050565b60005b83811015620010c9578082015181840152602081019050620010ac565b83811115620010d9576000848401525b50505050565b60006002820490506001821680620010f857607f821691505b602082108114156200110f576200110e6200114b565b5b50919050565b6200112082620011a9565b810181811067ffffffffffffffff821117156200114257620011416200117a565b5b80604052505050565b7f4e487b7100000000000000000000000000000000000000000000000000000000600052602260045260246000fd5b7f4e487b7100000000000000000000000000000000000000000000000000000000600052604160045260246000fd5b6000601f19601f8301169050919050565b7f496e697469616c697a61626c653a20636f6e747261637420697320616c72656160008201527f647920696e697469616c697a6564000000000000000000000000000000000000602082015250565b6157d080620012196000396000f3fe608060405234801561001057600080fd5b50600436106101f05760003560e01c80636a6278421161010f578063a6487c53116100a2578063d539139311610071578063d5391393146105c7578063d547741f146105e5578063e63ab1e914610601578063e985e9c51461061f576101f0565b8063a6487c531461052f578063b88d4fde1461054b578063c87b56dd14610567578063ca15c87314610597576101f0565b806391d14854116100de57806391d14854146104a757806395d89b41146104d7578063a217fddf146104f5578063a22cb46514610513576101f0565b80636a6278421461042157806370a082311461043d5780638456cb591461046d5780639010d07c14610477576101f0565b80632f745c591161018757806342966c681161015657806342966c68146103875780634f6ccce7146103a35780635c975abb146103d35780636352211e146103f1576101f0565b80632f745c591461031557806336568abe146103455780633f4ba83a1461036157806342842e0e1461036b576101f0565b806318160ddd116101c357806318160ddd1461028f57806323b872dd146102ad578063248a9ca3146102c95780632f2ff15d146102f9576101f0565b806301ffc9a7146101f557806306fdde0314610225578063081812fc14610243578063095ea7b314610273575b600080fd5b61020f600480360381019061020a9190614103565b61064f565b60405161021c919061478d565b60405180910390f35b61022d610661565b60405161023a91906147c3565b60405180910390f35b61025d600480360381019061025891906141ec565b6106f3565b60405161026a9190614726565b60405180910390f35b61028d60048036038101906102889190614026565b610778565b005b610297610890565b6040516102a49190614b25565b60405180910390f35b6102c760048036038101906102c29190613f20565b61089d565b005b6102e360048036038101906102de9190614062565b6108fd565b6040516102f091906147a8565b60405180910390f35b610313600480360381019061030e919061408b565b61091d565b005b61032f600480360381019061032a9190614026565b610951565b60405161033c9190614b25565b60405180910390f35b61035f600480360381019061035a919061408b565b6109f6565b005b610369610a2a565b005b61038560048036038101906103809190613f20565b610aa4565b005b6103a1600480360381019061039c91906141ec565b610ac4565b005b6103bd60048036038101906103b891906141ec565b610b20565b6040516103ca9190614b25565b60405180910390f35b6103db610bb7565b6040516103e8919061478d565b60405180910390f35b61040b600480360381019061040691906141ec565b610bcf565b6040516104189190614726565b60405180910390f35b61043b60048036038101906104369190613ebb565b610c81565b005b61045760048036038101906104529190613ebb565b610d13565b6040516104649190614b25565b60405180910390f35b610475610dcb565b005b610491600480360381019061048c91906140c7565b610e45565b60405161049e9190614726565b60405180910390f35b6104c160048036038101906104bc919061408b565b610e74565b6040516104ce919061478d565b60405180910390f35b6104df610edf565b6040516104ec91906147c3565b60405180910390f35b6104fd610f71565b60405161050a91906147a8565b60405180910390f35b61052d60048036038101906105289190613fea565b610f78565b005b61054960048036038101906105449190614155565b6110f9565b005b61056560048036038101906105609190613f6f565b6111e0565b005b610581600480360381019061057c91906141ec565b611242565b60405161058e91906147c3565b60405180910390f35b6105b160048036038101906105ac9190614062565b6112e9565b6040516105be9190614b25565b60405180910390f35b6105cf61130d565b6040516105dc91906147a8565b60405180910390f35b6105ff60048036038101906105fa919061408b565b611331565b005b610609611365565b60405161061691906147a8565b60405180910390f35b61063960048036038101906106349190613ee4565b611389565b604051610646919061478d565b60405180910390f35b600061065a8261145b565b9050919050565b606060c9805461067090614e09565b80601f016020809104026020016040519081016040528092919081815260200182805461069c90614e09565b80156106e95780601f106106be576101008083540402835291602001916106e9565b820191906000526020600020905b8154815290600101906020018083116106cc57829003601f168201915b5050505050905090565b60006106fe826114d5565b61073d576040517f08c379a0000000000000000000000000000000000000000000000000000000008152600401610734906149e5565b60405180910390fd5b60cd600083815260200190815260200160002060009054906101000a900473ffffffffffffffffffffffffffffffffffffffff169050919050565b600061078382610bcf565b90508073ffffffffffffffffffffffffffffffffffffffff168373ffffffffffffffffffffffffffffffffffffffff1614156107f4576040517f08c379a00000000000000000000000000000000000000000000000000000000081526004016107eb90614a45565b60405180910390fd5b8073ffffffffffffffffffffffffffffffffffffffff16610813611541565b73ffffffffffffffffffffffffffffffffffffffff16148061084257506108418161083c611541565b611389565b5b610881576040517f08c379a000000000000000000000000000000000000000000000000000000000815260040161087890614945565b60405180910390fd5b61088b8383611549565b505050565b600060fd80549050905090565b6108ae6108a8611541565b82611602565b6108ed576040517f08c379a00000000000000000000000000000000000000000000000000000000081526004016108e490614a65565b60405180910390fd5b6108f88383836116e0565b505050565b600060656000838152602001908152602001600020600101549050919050565b610927828261193c565b61094c816097600085815260200190815260200160002061142b90919063ffffffff16565b505050565b600061095c83610d13565b821061099d576040517f08c379a000000000000000000000000000000000000000000000000000000000815260040161099490614845565b60405180910390fd5b60fb60008473ffffffffffffffffffffffffffffffffffffffff1673ffffffffffffffffffffffffffffffffffffffff168152602001908152602001600020600083815260200190815260200160002054905092915050565b610a008282611965565b610a2581609760008581526020019081526020016000206119e890919063ffffffff16565b505050565b610a5b7f65d7a28e3265b37a6474929f336521b332c1681b933f6cb9f3376673440d862a610a56611541565b610e74565b610a9a576040517f08c379a0000000000000000000000000000000000000000000000000000000008152600401610a9190614ae5565b60405180910390fd5b610aa2611a18565b565b610abf838383604051806020016040528060008152506111e0565b505050565b610ad5610acf611541565b82611602565b610b14576040517f08c379a0000000000000000000000000000000000000000000000000000000008152600401610b0b90614ac5565b60405180910390fd5b610b1d81611abb565b50565b6000610b2a610890565b8210610b6b576040517f08c379a0000000000000000000000000000000000000000000000000000000008152600401610b6290614a85565b60405180910390fd5b60fd8281548110610ba5577f4e487b7100000000000000000000000000000000000000000000000000000000600052603260045260246000fd5b90600052602060002001549050919050565b600061015f60009054906101000a900460ff16905090565b60008060cb600084815260200190815260200160002060009054906101000a900473ffffffffffffffffffffffffffffffffffffffff169050600073ffffffffffffffffffffffffffffffffffffffff168173ffffffffffffffffffffffffffffffffffffffff161415610c78576040517f08c379a0000000000000000000000000000000000000000000000000000000008152600401610c6f90614985565b60405180910390fd5b80915050919050565b610cb27f9f2df0fed2c77648de5860a4cc508cd0818c85b8b8a1ab4ceeef8d981c8956a6610cad611541565b610e74565b610cf1576040517f08c379a0000000000000000000000000000000000000000000000000000000008152600401610ce890614aa5565b60405180910390fd5b610d0581610d006101c3611bcc565b611bda565b610d106101c3611da8565b50565b60008073ffffffffffffffffffffffffffffffffffffffff168273ffffffffffffffffffffffffffffffffffffffff161415610d84576040517f08c379a0000000000000000000000000000000000000000000000000000000008152600401610d7b90614965565b60405180910390fd5b60cc60008373ffffffffffffffffffffffffffffffffffffffff1673ffffffffffffffffffffffffffffffffffffffff168152602001908152602001600020549050919050565b610dfc7f65d7a28e3265b37a6474929f336521b332c1681b933f6cb9f3376673440d862a610df7611541565b610e74565b610e3b576040517f08c379a0000000000000000000000000000000000000000000000000000000008152600401610e32906148a5565b60405180910390fd5b610e43611dbe565b565b6000610e6c8260976000868152602001908152602001600020611e6290919063ffffffff16565b905092915050565b60006065600084815260200190815260200160002060000160008373ffffffffffffffffffffffffffffffffffffffff1673ffffffffffffffffffffffffffffffffffffffff16815260200190815260200160002060009054906101000a900460ff16905092915050565b606060ca8054610eee90614e09565b80601f0160208091040260200160405190810160405280929190818152602001828054610f1a90614e09565b8015610f675780601f10610f3c57610100808354040283529160200191610f67565b820191906000526020600020905b815481529060010190602001808311610f4a57829003601f168201915b5050505050905090565b6000801b81565b610f80611541565b73ffffffffffffffffffffffffffffffffffffffff168273ffffffffffffffffffffffffffffffffffffffff161415610fee576040517f08c379a0000000000000000000000000000000000000000000000000000000008152600401610fe5906148e5565b60405180910390fd5b8060ce6000610ffb611541565b73ffffffffffffffffffffffffffffffffffffffff1673ffffffffffffffffffffffffffffffffffffffff16815260200190815260200160002060008473ffffffffffffffffffffffffffffffffffffffff1673ffffffffffffffffffffffffffffffffffffffff16815260200190815260200160002060006101000a81548160ff0219169083151502179055508173ffffffffffffffffffffffffffffffffffffffff166110a8611541565b73ffffffffffffffffffffffffffffffffffffffff167f17307eab39ab6107e8899845ad3d59bd9653f200f220920489ca2b5937696c31836040516110ed919061478d565b60405180910390a35050565b600060019054906101000a900460ff168061111f575060008054906101000a900460ff16155b61115e576040517f08c379a0000000000000000000000000000000000000000000000000000000008152600401611155906149a5565b60405180910390fd5b60008060019054906101000a900460ff1615905080156111ae576001600060016101000a81548160ff02191690831515021790555060016000806101000a81548160ff0219169083151502179055505b6111b9848484611e7c565b80156111da5760008060016101000a81548160ff0219169083151502179055505b50505050565b6111f16111eb611541565b83611602565b611230576040517f08c379a000000000000000000000000000000000000000000000000000000000815260040161122790614a65565b60405180910390fd5b61123c84848484611fad565b50505050565b606061124d826114d5565b61128c576040517f08c379a000000000000000000000000000000000000000000000000000000000815260040161128390614a25565b60405180910390fd5b6000611296612009565b905060008151116112b657604051806020016040528060008152506112e1565b806112c08461209c565b6040516020016112d19291906146c8565b6040516020818303038152906040525b915050919050565b600061130660976000848152602001908152602001600020612249565b9050919050565b7f9f2df0fed2c77648de5860a4cc508cd0818c85b8b8a1ab4ceeef8d981c8956a681565b61133b828261225e565b61136081609760008581526020019081526020016000206119e890919063ffffffff16565b505050565b7f65d7a28e3265b37a6474929f336521b332c1681b933f6cb9f3376673440d862a81565b600060ce60008473ffffffffffffffffffffffffffffffffffffffff1673ffffffffffffffffffffffffffffffffffffffff16815260200190815260200160002060008373ffffffffffffffffffffffffffffffffffffffff1673ffffffffffffffffffffffffffffffffffffffff16815260200190815260200160002060009054906101000a900460ff16905092915050565b6114278282612287565b5050565b6000611453836000018373ffffffffffffffffffffffffffffffffffffffff1660001b612368565b905092915050565b60007f780e9d63000000000000000000000000000000000000000000000000000000007bffffffffffffffffffffffffffffffffffffffffffffffffffffffff1916827bffffffffffffffffffffffffffffffffffffffffffffffffffffffff191614806114ce57506114cd826123d8565b5b9050919050565b60008073ffffffffffffffffffffffffffffffffffffffff1660cb600084815260200190815260200160002060009054906101000a900473ffffffffffffffffffffffffffffffffffffffff1673ffffffffffffffffffffffffffffffffffffffff1614159050919050565b600033905090565b8160cd600083815260200190815260200160002060006101000a81548173ffffffffffffffffffffffffffffffffffffffff021916908373ffffffffffffffffffffffffffffffffffffffff160217905550808273ffffffffffffffffffffffffffffffffffffffff166115bc83610bcf565b73ffffffffffffffffffffffffffffffffffffffff167f8c5be1e5ebec7d5bd14f71427d1e84f3dd0314c0f7b2291e5b200ac8c7c3b92560405160405180910390a45050565b600061160d826114d5565b61164c576040517f08c379a000000000000000000000000000000000000000000000000000000000815260040161164390614905565b60405180910390fd5b600061165783610bcf565b90508073ffffffffffffffffffffffffffffffffffffffff168473ffffffffffffffffffffffffffffffffffffffff1614806116c657508373ffffffffffffffffffffffffffffffffffffffff166116ae846106f3565b73ffffffffffffffffffffffffffffffffffffffff16145b806116d757506116d68185611389565b5b91505092915050565b8273ffffffffffffffffffffffffffffffffffffffff1661170082610bcf565b73ffffffffffffffffffffffffffffffffffffffff1614611756576040517f08c379a000000000000000000000000000000000000000000000000000000000815260040161174d90614a05565b60405180910390fd5b600073ffffffffffffffffffffffffffffffffffffffff168273ffffffffffffffffffffffffffffffffffffffff1614156117c6576040517f08c379a00000000000000000000000000000000000000000000000000000000081526004016117bd906148c5565b60405180910390fd5b6117d18383836124ba565b6117dc600082611549565b600160cc60008573ffffffffffffffffffffffffffffffffffffffff1673ffffffffffffffffffffffffffffffffffffffff168152602001908152602001600020600082825461182c9190614ceb565b92505081905550600160cc60008473ffffffffffffffffffffffffffffffffffffffff1673ffffffffffffffffffffffffffffffffffffffff16815260200190815260200160002060008282546118839190614c0a565b925050819055508160cb600083815260200190815260200160002060006101000a81548173ffffffffffffffffffffffffffffffffffffffff021916908373ffffffffffffffffffffffffffffffffffffffff160217905550808273ffffffffffffffffffffffffffffffffffffffff168473ffffffffffffffffffffffffffffffffffffffff167fddf252ad1be2c89b69c2b068fc378daa952ba7f163c4a11628f55a4df523b3ef60405160405180910390a4505050565b611945826108fd565b61195681611951611541565b6124ca565b6119608383612287565b505050565b61196d611541565b73ffffffffffffffffffffffffffffffffffffffff168173ffffffffffffffffffffffffffffffffffffffff16146119da576040517f08c379a00000000000000000000000000000000000000000000000000000000081526004016119d190614b05565b60405180910390fd5b6119e48282612567565b5050565b6000611a10836000018373ffffffffffffffffffffffffffffffffffffffff1660001b612649565b905092915050565b611a20610bb7565b611a5f576040517f08c379a0000000000000000000000000000000000000000000000000000000008152600401611a5690614825565b60405180910390fd5b600061015f60006101000a81548160ff0219169083151502179055507f5db9ee0a495bf2e6ff9c91a7834c1ba4fdd244a5e8aa4e537bd38aeae4b073aa611aa4611541565b604051611ab19190614726565b60405180910390a1565b6000611ac682610bcf565b9050611ad4816000846124ba565b611adf600083611549565b600160cc60008373ffffffffffffffffffffffffffffffffffffffff1673ffffffffffffffffffffffffffffffffffffffff1681526020019081526020016000206000828254611b2f9190614ceb565b9250508190555060cb600083815260200190815260200160002060006101000a81549073ffffffffffffffffffffffffffffffffffffffff021916905581600073ffffffffffffffffffffffffffffffffffffffff168273ffffffffffffffffffffffffffffffffffffffff167fddf252ad1be2c89b69c2b068fc378daa952ba7f163c4a11628f55a4df523b3ef60405160405180910390a45050565b600081600001549050919050565b600073ffffffffffffffffffffffffffffffffffffffff168273ffffffffffffffffffffffffffffffffffffffff161415611c4a576040517f08c379a0000000000000000000000000000000000000000000000000000000008152600401611c41906149c5565b60405180910390fd5b611c53816114d5565b15611c93576040517f08c379a0000000000000000000000000000000000000000000000000000000008152600401611c8a90614885565b60405180910390fd5b611c9f600083836124ba565b600160cc60008473ffffffffffffffffffffffffffffffffffffffff1673ffffffffffffffffffffffffffffffffffffffff1681526020019081526020016000206000828254611cef9190614c0a565b925050819055508160cb600083815260200190815260200160002060006101000a81548173ffffffffffffffffffffffffffffffffffffffff021916908373ffffffffffffffffffffffffffffffffffffffff160217905550808273ffffffffffffffffffffffffffffffffffffffff16600073ffffffffffffffffffffffffffffffffffffffff167fddf252ad1be2c89b69c2b068fc378daa952ba7f163c4a11628f55a4df523b3ef60405160405180910390a45050565b6001816000016000828254019250508190555050565b611dc6610bb7565b15611e06576040517f08c379a0000000000000000000000000000000000000000000000000000000008152600401611dfd90614925565b60405180910390fd5b600161015f60006101000a81548160ff0219169083151502179055507f62e78cea01bee320cd4e420270b5ea74000d11b0c9f74754ebdbfc544b05a258611e4b611541565b604051611e589190614726565b60405180910390a1565b6000611e7183600001836127cf565b60001c905092915050565b600060019054906101000a900460ff1680611ea2575060008054906101000a900460ff16155b611ee1576040517f08c379a0000000000000000000000000000000000000000000000000000000008152600401611ed8906149a5565b60405180910390fd5b60008060019054906101000a900460ff161590508015611f31576001600060016101000a81548160ff02191690831515021790555060016000806101000a81548160ff0219169083151502179055505b611f39612820565b611f416128f9565b611f496129d2565b611f51612aab565b611f5b8484612b84565b611f63612c8d565b611f6b612d66565b611f73612e3f565b611f7b612f34565b611f8684848461300d565b8015611fa75760008060016101000a81548160ff0219169083151502179055505b50505050565b611fb88484846116e0565b611fc484848484613177565b612003576040517f08c379a0000000000000000000000000000000000000000000000000000000008152600401611ffa90614865565b60405180910390fd5b50505050565b60606101c4805461201990614e09565b80601f016020809104026020016040519081016040528092919081815260200182805461204590614e09565b80156120925780601f1061206757610100808354040283529160200191612092565b820191906000526020600020905b81548152906001019060200180831161207557829003601f168201915b5050505050905090565b606060008214156120e4576040518060400160405280600181526020017f30000000000000000000000000000000000000000000000000000000000000008152509050612244565b600082905060005b600082146121165780806120ff90614e6c565b915050600a8261210f9190614c60565b91506120ec565b60008167ffffffffffffffff811115612158577f4e487b7100000000000000000000000000000000000000000000000000000000600052604160045260246000fd5b6040519080825280601f01601f19166020018201604052801561218a5781602001600182028036833780820191505090505b5090505b6000851461223d576001826121a39190614ceb565b9150600a856121b29190614eb5565b60306121be9190614c0a565b60f81b8183815181106121fa577f4e487b7100000000000000000000000000000000000000000000000000000000600052603260045260246000fd5b60200101907effffffffffffffffffffffffffffffffffffffffffffffffffffffffffffff1916908160001a905350600a856122369190614c60565b945061218e565b8093505050505b919050565b60006122578260000161330e565b9050919050565b612267826108fd565b61227881612273611541565b6124ca565b6122828383612567565b505050565b6122918282610e74565b6123645760016065600084815260200190815260200160002060000160008373ffffffffffffffffffffffffffffffffffffffff1673ffffffffffffffffffffffffffffffffffffffff16815260200190815260200160002060006101000a81548160ff021916908315150217905550612309611541565b73ffffffffffffffffffffffffffffffffffffffff168173ffffffffffffffffffffffffffffffffffffffff16837f2f8788117e7eff1d82e926ec794901d17c78024a50270940304540a733656f0d60405160405180910390a45b5050565b6000612374838361331f565b6123cd5782600001829080600181540180825580915050600190039060005260206000200160009091909190915055826000018054905083600101600084815260200190815260200160002081905550600190506123d2565b600090505b92915050565b60007f80ac58cd000000000000000000000000000000000000000000000000000000007bffffffffffffffffffffffffffffffffffffffffffffffffffffffff1916827bffffffffffffffffffffffffffffffffffffffffffffffffffffffff191614806124a357507f5b5e139f000000000000000000000000000000000000000000000000000000007bffffffffffffffffffffffffffffffffffffffffffffffffffffffff1916827bffffffffffffffffffffffffffffffffffffffffffffffffffffffff1916145b806124b357506124b282613342565b5b9050919050565b6124c58383836133bc565b505050565b6124d48282610e74565b612563576124f98173ffffffffffffffffffffffffffffffffffffffff166014613414565b6125078360001c6020613414565b6040516020016125189291906146ec565b6040516020818303038152906040526040517f08c379a000000000000000000000000000000000000000000000000000000000815260040161255a91906147c3565b60405180910390fd5b5050565b6125718282610e74565b156126455760006065600084815260200190815260200160002060000160008373ffffffffffffffffffffffffffffffffffffffff1673ffffffffffffffffffffffffffffffffffffffff16815260200190815260200160002060006101000a81548160ff0219169083151502179055506125ea611541565b73ffffffffffffffffffffffffffffffffffffffff168173ffffffffffffffffffffffffffffffffffffffff16837ff6391f5c32d9c69d2a47ea670b442974b53935d1edc7fd64eb21e047a839171b60405160405180910390a45b5050565b600080836001016000848152602001908152602001600020549050600081146127c357600060018261267b9190614ceb565b90506000600186600001805490506126939190614ceb565b905081811461274e5760008660000182815481106126da577f4e487b7100000000000000000000000000000000000000000000000000000000600052603260045260246000fd5b9060005260206000200154905080876000018481548110612724577f4e487b7100000000000000000000000000000000000000000000000000000000600052603260045260246000fd5b90600052602060002001819055508387600101600083815260200190815260200160002081905550505b85600001805480612788577f4e487b7100000000000000000000000000000000000000000000000000000000600052603160045260246000fd5b6001900381819060005260206000200160009055905585600101600086815260200190815260200160002060009055600193505050506127c9565b60009150505b92915050565b600082600001828154811061280d577f4e487b7100000000000000000000000000000000000000000000000000000000600052603260045260246000fd5b9060005260206000200154905092915050565b600060019054906101000a900460ff1680612846575060008054906101000a900460ff16155b612885576040517f08c379a000000000000000000000000000000000000000000000000000000000815260040161287c906149a5565b60405180910390fd5b60008060019054906101000a900460ff1615905080156128d5576001600060016101000a81548160ff02191690831515021790555060016000806101000a81548160ff0219169083151502179055505b80156128f65760008060016101000a81548160ff0219169083151502179055505b50565b600060019054906101000a900460ff168061291f575060008054906101000a900460ff16155b61295e576040517f08c379a0000000000000000000000000000000000000000000000000000000008152600401612955906149a5565b60405180910390fd5b60008060019054906101000a900460ff1615905080156129ae576001600060016101000a81548160ff02191690831515021790555060016000806101000a81548160ff0219169083151502179055505b80156129cf5760008060016101000a81548160ff0219169083151502179055505b50565b600060019054906101000a900460ff16806129f8575060008054906101000a900460ff16155b612a37576040517f08c379a0000000000000000000000000000000000000000000000000000000008152600401612a2e906149a5565b60405180910390fd5b60008060019054906101000a900460ff161590508015612a87576001600060016101000a81548160ff02191690831515021790555060016000806101000a81548160ff0219169083151502179055505b8015612aa85760008060016101000a81548160ff0219169083151502179055505b50565b600060019054906101000a900460ff1680612ad1575060008054906101000a900460ff16155b612b10576040517f08c379a0000000000000000000000000000000000000000000000000000000008152600401612b07906149a5565b60405180910390fd5b60008060019054906101000a900460ff161590508015612b60576001600060016101000a81548160ff02191690831515021790555060016000806101000a81548160ff0219169083151502179055505b8015612b815760008060016101000a81548160ff0219169083151502179055505b50565b600060019054906101000a900460ff1680612baa575060008054906101000a900460ff16155b612be9576040517f08c379a0000000000000000000000000000000000000000000000000000000008152600401612be0906149a5565b60405180910390fd5b60008060019054906101000a900460ff161590508015612c39576001600060016101000a81548160ff02191690831515021790555060016000806101000a81548160ff0219169083151502179055505b8260c99080519060200190612c4f929190613cca565b508160ca9080519060200190612c66929190613cca565b508015612c885760008060016101000a81548160ff0219169083151502179055505b505050565b600060019054906101000a900460ff1680612cb3575060008054906101000a900460ff16155b612cf2576040517f08c379a0000000000000000000000000000000000000000000000000000000008152600401612ce9906149a5565b60405180910390fd5b60008060019054906101000a900460ff161590508015612d42576001600060016101000a81548160ff02191690831515021790555060016000806101000a81548160ff0219169083151502179055505b8015612d635760008060016101000a81548160ff0219169083151502179055505b50565b600060019054906101000a900460ff1680612d8c575060008054906101000a900460ff16155b612dcb576040517f08c379a0000000000000000000000000000000000000000000000000000000008152600401612dc2906149a5565b60405180910390fd5b60008060019054906101000a900460ff161590508015612e1b576001600060016101000a81548160ff02191690831515021790555060016000806101000a81548160ff0219169083151502179055505b8015612e3c5760008060016101000a81548160ff0219169083151502179055505b50565b600060019054906101000a900460ff1680612e65575060008054906101000a900460ff16155b612ea4576040517f08c379a0000000000000000000000000000000000000000000000000000000008152600401612e9b906149a5565b60405180910390fd5b60008060019054906101000a900460ff161590508015612ef4576001600060016101000a81548160ff02191690831515021790555060016000806101000a81548160ff0219169083151502179055505b600061015f60006101000a81548160ff0219169083151502179055508015612f315760008060016101000a81548160ff0219169083151502179055505b50565b600060019054906101000a900460ff1680612f5a575060008054906101000a900460ff16155b612f99576040517f08c379a0000000000000000000000000000000000000000000000000000000008152600401612f90906149a5565b60405180910390fd5b60008060019054906101000a900460ff161590508015612fe9576001600060016101000a81548160ff02191690831515021790555060016000806101000a81548160ff0219169083151502179055505b801561300a5760008060016101000a81548160ff0219169083151502179055505b50565b600060019054906101000a900460ff1680613033575060008054906101000a900460ff16155b613072576040517f08c379a0000000000000000000000000000000000000000000000000000000008152600401613069906149a5565b60405180910390fd5b60008060019054906101000a900460ff1615905080156130c2576001600060016101000a81548160ff02191690831515021790555060016000806101000a81548160ff0219169083151502179055505b816101c490805190602001906130d9929190613cca565b506130ee6000801b6130e9611541565b61370e565b61311f7f9f2df0fed2c77648de5860a4cc508cd0818c85b8b8a1ab4ceeef8d981c8956a661311a611541565b61370e565b6131507f65d7a28e3265b37a6474929f336521b332c1681b933f6cb9f3376673440d862a61314b611541565b61370e565b80156131715760008060016101000a81548160ff0219169083151502179055505b50505050565b60006131988473ffffffffffffffffffffffffffffffffffffffff16613742565b15613301578373ffffffffffffffffffffffffffffffffffffffff1663150b7a026131c1611541565b8786866040518563ffffffff1660e01b81526004016131e39493929190614741565b602060405180830381600087803b1580156131fd57600080fd5b505af192505050801561322e57506040513d601f19601f8201168201806040525081019061322b919061412c565b60015b6132b1573d806000811461325e576040519150601f19603f3d011682016040523d82523d6000602084013e613263565b606091505b506000815114156132a9576040517f08c379a00000000000000000000000000000000000000000000000000000000081526004016132a090614865565b60405180910390fd5b805181602001fd5b63150b7a0260e01b7bffffffffffffffffffffffffffffffffffffffffffffffffffffffff1916817bffffffffffffffffffffffffffffffffffffffffffffffffffffffff191614915050613306565b600190505b949350505050565b600081600001805490509050919050565b600080836001016000848152602001908152602001600020541415905092915050565b60007f5a05180f000000000000000000000000000000000000000000000000000000007bffffffffffffffffffffffffffffffffffffffffffffffffffffffff1916827bffffffffffffffffffffffffffffffffffffffffffffffffffffffff191614806133b557506133b482613755565b5b9050919050565b6133c78383836137cf565b6133cf610bb7565b1561340f576040517f08c379a000000000000000000000000000000000000000000000000000000000815260040161340690614805565b60405180910390fd5b505050565b6060600060028360026134279190614c91565b6134319190614c0a565b67ffffffffffffffff811115613470577f4e487b7100000000000000000000000000000000000000000000000000000000600052604160045260246000fd5b6040519080825280601f01601f1916602001820160405280156134a25781602001600182028036833780820191505090505b5090507f300000000000000000000000000000000000000000000000000000000000000081600081518110613500577f4e487b7100000000000000000000000000000000000000000000000000000000600052603260045260246000fd5b60200101907effffffffffffffffffffffffffffffffffffffffffffffffffffffffffffff1916908160001a9053507f78000000000000000000000000000000000000000000000000000000000000008160018151811061358a577f4e487b7100000000000000000000000000000000000000000000000000000000600052603260045260246000fd5b60200101907effffffffffffffffffffffffffffffffffffffffffffffffffffffffffffff1916908160001a905350600060018460026135ca9190614c91565b6135d49190614c0a565b90505b60018111156136c0577f3031323334353637383961626364656600000000000000000000000000000000600f86166010811061363c577f4e487b7100000000000000000000000000000000000000000000000000000000600052603260045260246000fd5b1a60f81b828281518110613679577f4e487b7100000000000000000000000000000000000000000000000000000000600052603260045260246000fd5b60200101907effffffffffffffffffffffffffffffffffffffffffffffffffffffffffffff1916908160001a905350600485901c9450806136b990614ddf565b90506135d7565b5060008414613704576040517f08c379a00000000000000000000000000000000000000000000000000000000081526004016136fb906147e5565b60405180910390fd5b8091505092915050565b613718828261141d565b61373d816097600085815260200190815260200160002061142b90919063ffffffff16565b505050565b600080823b905060008111915050919050565b60007f7965db0b000000000000000000000000000000000000000000000000000000007bffffffffffffffffffffffffffffffffffffffffffffffffffffffff1916827bffffffffffffffffffffffffffffffffffffffffffffffffffffffff191614806137c857506137c7826138e3565b5b9050919050565b6137da83838361394d565b600073ffffffffffffffffffffffffffffffffffffffff168373ffffffffffffffffffffffffffffffffffffffff16141561381d5761381881613952565b61385c565b8173ffffffffffffffffffffffffffffffffffffffff168373ffffffffffffffffffffffffffffffffffffffff161461385b5761385a838261399b565b5b5b600073ffffffffffffffffffffffffffffffffffffffff168273ffffffffffffffffffffffffffffffffffffffff16141561389f5761389a81613b08565b6138de565b8273ffffffffffffffffffffffffffffffffffffffff168273ffffffffffffffffffffffffffffffffffffffff16146138dd576138dc8282613c4b565b5b5b505050565b60007f01ffc9a7000000000000000000000000000000000000000000000000000000007bffffffffffffffffffffffffffffffffffffffffffffffffffffffff1916827bffffffffffffffffffffffffffffffffffffffffffffffffffffffff1916149050919050565b505050565b60fd8054905060fe60008381526020019081526020016000208190555060fd81908060018154018082558091505060019003906000526020600020016000909190919091505550565b600060016139a884610d13565b6139b29190614ceb565b9050600060fc6000848152602001908152602001600020549050818114613a9757600060fb60008673ffffffffffffffffffffffffffffffffffffffff1673ffffffffffffffffffffffffffffffffffffffff16815260200190815260200160002060008481526020019081526020016000205490508060fb60008773ffffffffffffffffffffffffffffffffffffffff1673ffffffffffffffffffffffffffffffffffffffff1681526020019081526020016000206000848152602001908152602001600020819055508160fc600083815260200190815260200160002081905550505b60fc60008481526020019081526020016000206000905560fb60008573ffffffffffffffffffffffffffffffffffffffff1673ffffffffffffffffffffffffffffffffffffffff16815260200190815260200160002060008381526020019081526020016000206000905550505050565b6000600160fd80549050613b1c9190614ceb565b9050600060fe6000848152602001908152602001600020549050600060fd8381548110613b72577f4e487b7100000000000000000000000000000000000000000000000000000000600052603260045260246000fd5b906000526020600020015490508060fd8381548110613bba577f4e487b7100000000000000000000000000000000000000000000000000000000600052603260045260246000fd5b90600052602060002001819055508160fe60008381526020019081526020016000208190555060fe60008581526020019081526020016000206000905560fd805480613c2f577f4e487b7100000000000000000000000000000000000000000000000000000000600052603160045260246000fd5b6001900381819060005260206000200160009055905550505050565b6000613c5683610d13565b90508160fb60008573ffffffffffffffffffffffffffffffffffffffff1673ffffffffffffffffffffffffffffffffffffffff1681526020019081526020016000206000838152602001908152602001600020819055508060fc600084815260200190815260200160002081905550505050565b828054613cd690614e09565b90600052602060002090601f016020900481019282613cf85760008555613d3f565b82601f10613d1157805160ff1916838001178555613d3f565b82800160010185558215613d3f579182015b82811115613d3e578251825591602001919060010190613d23565b5b509050613d4c9190613d50565b5090565b5b80821115613d69576000816000905550600101613d51565b5090565b6000613d80613d7b84614b65565b614b40565b905082815260208101848484011115613d9857600080fd5b613da3848285614d9d565b509392505050565b6000613dbe613db984614b96565b614b40565b905082815260208101848484011115613dd657600080fd5b613de1848285614d9d565b509392505050565b600081359050613df881615727565b92915050565b600081359050613e0d8161573e565b92915050565b600081359050613e2281615755565b92915050565b600081359050613e378161576c565b92915050565b600081519050613e4c8161576c565b92915050565b600082601f830112613e6357600080fd5b8135613e73848260208601613d6d565b91505092915050565b600082601f830112613e8d57600080fd5b8135613e9d848260208601613dab565b91505092915050565b600081359050613eb581615783565b92915050565b600060208284031215613ecd57600080fd5b6000613edb84828501613de9565b91505092915050565b60008060408385031215613ef757600080fd5b6000613f0585828601613de9565b9250506020613f1685828601613de9565b9150509250929050565b600080600060608486031215613f3557600080fd5b6000613f4386828701613de9565b9350506020613f5486828701613de9565b9250506040613f6586828701613ea6565b9150509250925092565b60008060008060808587031215613f8557600080fd5b6000613f9387828801613de9565b9450506020613fa487828801613de9565b9350506040613fb587828801613ea6565b925050606085013567ffffffffffffffff811115613fd257600080fd5b613fde87828801613e52565b91505092959194509250565b60008060408385031215613ffd57600080fd5b600061400b85828601613de9565b925050602061401c85828601613dfe565b9150509250929050565b6000806040838503121561403957600080fd5b600061404785828601613de9565b925050602061405885828601613ea6565b9150509250929050565b60006020828403121561407457600080fd5b600061408284828501613e13565b91505092915050565b6000806040838503121561409e57600080fd5b60006140ac85828601613e13565b92505060206140bd85828601613de9565b9150509250929050565b600080604083850312156140da57600080fd5b60006140e885828601613e13565b92505060206140f985828601613ea6565b9150509250929050565b60006020828403121561411557600080fd5b600061412384828501613e28565b91505092915050565b60006020828403121561413e57600080fd5b600061414c84828501613e3d565b91505092915050565b60008060006060848603121561416a57600080fd5b600084013567ffffffffffffffff81111561418457600080fd5b61419086828701613e7c565b935050602084013567ffffffffffffffff8111156141ad57600080fd5b6141b986828701613e7c565b925050604084013567ffffffffffffffff8111156141d657600080fd5b6141e286828701613e7c565b9150509250925092565b6000602082840312156141fe57600080fd5b600061420c84828501613ea6565b91505092915050565b61421e81614d1f565b82525050565b61422d81614d31565b82525050565b61423c81614d3d565b82525050565b600061424d82614bc7565b6142578185614bdd565b9350614267818560208601614dac565b61427081614fa2565b840191505092915050565b600061428682614bd2565b6142908185614bee565b93506142a0818560208601614dac565b6142a981614fa2565b840191505092915050565b60006142bf82614bd2565b6142c98185614bff565b93506142d9818560208601614dac565b80840191505092915050565b60006142f2602083614bee565b91506142fd82614fb3565b602082019050919050565b6000614315602b83614bee565b915061432082614fdc565b604082019050919050565b6000614338601483614bee565b91506143438261502b565b602082019050919050565b600061435b602b83614bee565b915061436682615054565b604082019050919050565b600061437e603283614bee565b9150614389826150a3565b604082019050919050565b60006143a1601c83614bee565b91506143ac826150f2565b602082019050919050565b60006143c4603e83614bee565b91506143cf8261511b565b604082019050919050565b60006143e7602483614bee565b91506143f28261516a565b604082019050919050565b600061440a601983614bee565b9150614415826151b9565b602082019050919050565b600061442d602c83614bee565b9150614438826151e2565b604082019050919050565b6000614450601083614bee565b915061445b82615231565b602082019050919050565b6000614473603883614bee565b915061447e8261525a565b604082019050919050565b6000614496602a83614bee565b91506144a1826152a9565b604082019050919050565b60006144b9602983614bee565b91506144c4826152f8565b604082019050919050565b60006144dc602e83614bee565b91506144e782615347565b604082019050919050565b60006144ff602083614bee565b915061450a82615396565b602082019050919050565b6000614522602c83614bee565b915061452d826153bf565b604082019050919050565b6000614545602983614bee565b91506145508261540e565b604082019050919050565b6000614568602f83614bee565b91506145738261545d565b604082019050919050565b600061458b602183614bee565b9150614596826154ac565b604082019050919050565b60006145ae603183614bee565b91506145b9826154fb565b604082019050919050565b60006145d1602c83614bee565b91506145dc8261554a565b604082019050919050565b60006145f4601783614bff565b91506145ff82615599565b601782019050919050565b6000614617603d83614bee565b9150614622826155c2565b604082019050919050565b600061463a603083614bee565b915061464582615611565b604082019050919050565b600061465d604083614bee565b915061466882615660565b604082019050919050565b6000614680601183614bff565b915061468b826156af565b601182019050919050565b60006146a3602f83614bee565b91506146ae826156d8565b604082019050919050565b6146c281614d93565b82525050565b60006146d482856142b4565b91506146e082846142b4565b91508190509392505050565b60006146f7826145e7565b915061470382856142b4565b915061470e82614673565b915061471a82846142b4565b91508190509392505050565b600060208201905061473b6000830184614215565b92915050565b60006080820190506147566000830187614215565b6147636020830186614215565b61477060408301856146b9565b81810360608301526147828184614242565b905095945050505050565b60006020820190506147a26000830184614224565b92915050565b60006020820190506147bd6000830184614233565b92915050565b600060208201905081810360008301526147dd818461427b565b905092915050565b600060208201905081810360008301526147fe816142e5565b9050919050565b6000602082019050818103600083015261481e81614308565b9050919050565b6000602082019050818103600083015261483e8161432b565b9050919050565b6000602082019050818103600083015261485e8161434e565b9050919050565b6000602082019050818103600083015261487e81614371565b9050919050565b6000602082019050818103600083015261489e81614394565b9050919050565b600060208201905081810360008301526148be816143b7565b9050919050565b600060208201905081810360008301526148de816143da565b9050919050565b600060208201905081810360008301526148fe816143fd565b9050919050565b6000602082019050818103600083015261491e81614420565b9050919050565b6000602082019050818103600083015261493e81614443565b9050919050565b6000602082019050818103600083015261495e81614466565b9050919050565b6000602082019050818103600083015261497e81614489565b9050919050565b6000602082019050818103600083015261499e816144ac565b9050919050565b600060208201905081810360008301526149be816144cf565b9050919050565b600060208201905081810360008301526149de816144f2565b9050919050565b600060208201905081810360008301526149fe81614515565b9050919050565b60006020820190508181036000830152614a1e81614538565b9050919050565b60006020820190508181036000830152614a3e8161455b565b9050919050565b60006020820190508181036000830152614a5e8161457e565b9050919050565b60006020820190508181036000830152614a7e816145a1565b9050919050565b60006020820190508181036000830152614a9e816145c4565b9050919050565b60006020820190508181036000830152614abe8161460a565b9050919050565b60006020820190508181036000830152614ade8161462d565b9050919050565b60006020820190508181036000830152614afe81614650565b9050919050565b60006020820190508181036000830152614b1e81614696565b9050919050565b6000602082019050614b3a60008301846146b9565b92915050565b6000614b4a614b5b565b9050614b568282614e3b565b919050565b6000604051905090565b600067ffffffffffffffff821115614b8057614b7f614f73565b5b614b8982614fa2565b9050602081019050919050565b600067ffffffffffffffff821115614bb157614bb0614f73565b5b614bba82614fa2565b9050602081019050919050565b600081519050919050565b600081519050919050565b600082825260208201905092915050565b600082825260208201905092915050565b600081905092915050565b6000614c1582614d93565b9150614c2083614d93565b9250827fffffffffffffffffffffffffffffffffffffffffffffffffffffffffffffffff03821115614c5557614c54614ee6565b5b828201905092915050565b6000614c6b82614d93565b9150614c7683614d93565b925082614c8657614c85614f15565b5b828204905092915050565b6000614c9c82614d93565b9150614ca783614d93565b9250817fffffffffffffffffffffffffffffffffffffffffffffffffffffffffffffffff0483118215151615614ce057614cdf614ee6565b5b828202905092915050565b6000614cf682614d93565b9150614d0183614d93565b925082821015614d1457614d13614ee6565b5b828203905092915050565b6000614d2a82614d73565b9050919050565b60008115159050919050565b6000819050919050565b60007fffffffff0000000000000000000000000000000000000000000000000000000082169050919050565b600073ffffffffffffffffffffffffffffffffffffffff82169050919050565b6000819050919050565b82818337600083830152505050565b60005b83811015614dca578082015181840152602081019050614daf565b83811115614dd9576000848401525b50505050565b6000614dea82614d93565b91506000821415614dfe57614dfd614ee6565b5b600182039050919050565b60006002820490506001821680614e2157607f821691505b60208210811415614e3557614e34614f44565b5b50919050565b614e4482614fa2565b810181811067ffffffffffffffff82111715614e6357614e62614f73565b5b80604052505050565b6000614e7782614d93565b91507fffffffffffffffffffffffffffffffffffffffffffffffffffffffffffffffff821415614eaa57614ea9614ee6565b5b600182019050919050565b6000614ec082614d93565b9150614ecb83614d93565b925082614edb57614eda614f15565b5b828206905092915050565b7f4e487b7100000000000000000000000000000000000000000000000000000000600052601160045260246000fd5b7f4e487b7100000000000000000000000000000000000000000000000000000000600052601260045260246000fd5b7f4e487b7100000000000000000000000000000000000000000000000000000000600052602260045260246000fd5b7f4e487b7100000000000000000000000000000000000000000000000000000000600052604160045260246000fd5b6000601f19601f8301169050919050565b7f537472696e67733a20686578206c656e67746820696e73756666696369656e74600082015250565b7f4552433732315061757361626c653a20746f6b656e207472616e73666572207760008201527f68696c6520706175736564000000000000000000000000000000000000000000602082015250565b7f5061757361626c653a206e6f7420706175736564000000000000000000000000600082015250565b7f455243373231456e756d657261626c653a206f776e657220696e646578206f7560008201527f74206f6620626f756e6473000000000000000000000000000000000000000000602082015250565b7f4552433732313a207472616e7366657220746f206e6f6e20455243373231526560008201527f63656976657220696d706c656d656e7465720000000000000000000000000000602082015250565b7f4552433732313a20746f6b656e20616c7265616479206d696e74656400000000600082015250565b7f4552433732315072657365744d696e7465725061757365724175746f49643a2060008201527f6d75737420686176652070617573657220726f6c6520746f2070617573650000602082015250565b7f4552433732313a207472616e7366657220746f20746865207a65726f2061646460008201527f7265737300000000000000000000000000000000000000000000000000000000602082015250565b7f4552433732313a20617070726f766520746f2063616c6c657200000000000000600082015250565b7f4552433732313a206f70657261746f7220717565727920666f72206e6f6e657860008201527f697374656e7420746f6b656e0000000000000000000000000000000000000000602082015250565b7f5061757361626c653a2070617573656400000000000000000000000000000000600082015250565b7f4552433732313a20617070726f76652063616c6c6572206973206e6f74206f7760008201527f6e6572206e6f7220617070726f76656420666f7220616c6c0000000000000000602082015250565b7f4552433732313a2062616c616e636520717565727920666f7220746865207a6560008201527f726f206164647265737300000000000000000000000000000000000000000000602082015250565b7f4552433732313a206f776e657220717565727920666f72206e6f6e657869737460008201527f656e7420746f6b656e0000000000000000000000000000000000000000000000602082015250565b7f496e697469616c697a61626c653a20636f6e747261637420697320616c72656160008201527f647920696e697469616c697a6564000000000000000000000000000000000000602082015250565b7f4552433732313a206d696e7420746f20746865207a65726f2061646472657373600082015250565b7f4552433732313a20617070726f76656420717565727920666f72206e6f6e657860008201527f697374656e7420746f6b656e0000000000000000000000000000000000000000602082015250565b7f4552433732313a207472616e73666572206f6620746f6b656e2074686174206960008201527f73206e6f74206f776e0000000000000000000000000000000000000000000000602082015250565b7f4552433732314d657461646174613a2055524920717565727920666f72206e6f60008201527f6e6578697374656e7420746f6b656e0000000000000000000000000000000000602082015250565b7f4552433732313a20617070726f76616c20746f2063757272656e74206f776e6560008201527f7200000000000000000000000000000000000000000000000000000000000000602082015250565b7f4552433732313a207472616e736665722063616c6c6572206973206e6f74206f60008201527f776e6572206e6f7220617070726f766564000000000000000000000000000000602082015250565b7f455243373231456e756d657261626c653a20676c6f62616c20696e646578206f60008201527f7574206f6620626f756e64730000000000000000000000000000000000000000602082015250565b7f416363657373436f6e74726f6c3a206163636f756e7420000000000000000000600082015250565b7f4552433732315072657365744d696e7465725061757365724175746f49643a2060008201527f6d7573742068617665206d696e74657220726f6c6520746f206d696e74000000602082015250565b7f4552433732314275726e61626c653a2063616c6c6572206973206e6f74206f7760008201527f6e6572206e6f7220617070726f76656400000000000000000000000000000000602082015250565b7f4552433732315072657365744d696e7465725061757365724175746f49643a2060008201527f6d75737420686176652070617573657220726f6c6520746f20756e7061757365602082015250565b7f206973206d697373696e6720726f6c6520000000000000000000000000000000600082015250565b7f416363657373436f6e74726f6c3a2063616e206f6e6c792072656e6f756e636560008201527f20726f6c657320666f722073656c660000000000000000000000000000000000602082015250565b61573081614d1f565b811461573b57600080fd5b50565b61574781614d31565b811461575257600080fd5b50565b61575e81614d3d565b811461576957600080fd5b50565b61577581614d47565b811461578057600080fd5b50565b61578c81614d93565b811461579757600080fd5b5056fea26469706673582212204fae3dac548dd3d9cc1122f7408f0ea01c1cc50d3daf4fbd367c49196698153e64736f6c63430008040033",
  "linkReferences": {},
  "deployedLinkReferences": {}
}