{
  "_format": "hh-sol-artifact-1",
  "contractName": "ERC721MockUpgradeableWithInit",
  "sourceName": "contracts/src/OpenZeppelin/upgradeable/mocks/WithInit.sol",
  "abi": [
    {
      "inputs": [
        {
          "internalType": "string",
          "name": "name",
          "type": "string"
        },
        {
          "internalType": "string",
          "name": "symbol",
          "type": "string"
        }
      ],
      "stateMutability": "payable",
      "type": "constructor"
    },
    {
      "anonymous": false,
      "inputs": [
        {
          "indexed": true,
          "internalType": "address",
          "name": "owner",
          "type": "address"
        },
        {
          "indexed": true,
          "internalType": "address",
          "name": "approved",
          "type": "address"
        },
        {
          "indexed": true,
          "internalType": "uint256",
          "name": "tokenId",
          "type": "uint256"
        }
      ],
      "name": "Approval",
      "type": "event"
    },
    {
      "anonymous": false,
      "inputs": [
        {
          "indexed": true,
          "internalType": "address",
          "name": "owner",
          "type": "address"
        },
        {
          "indexed": true,
          "internalType": "address",
          "name": "operator",
          "type": "address"
        },
        {
          "indexed": false,
          "internalType": "bool",
          "name": "approved",
          "type": "bool"
        }
      ],
      "name": "ApprovalForAll",
      "type": "event"
    },
    {
      "anonymous": false,
      "inputs": [
        {
          "indexed": true,
          "internalType": "address",
          "name": "from",
          "type": "address"
        },
        {
          "indexed": true,
          "internalType": "address",
          "name": "to",
          "type": "address"
        },
        {
          "indexed": true,
          "internalType": "uint256",
          "name": "tokenId",
          "type": "uint256"
        }
      ],
      "name": "Transfer",
      "type": "event"
    },
    {
      "inputs": [
        {
          "internalType": "address",
          "name": "to",
          "type": "address"
        },
        {
          "internalType": "uint256",
          "name": "tokenId",
          "type": "uint256"
        }
      ],
      "name": "approve",
      "outputs": [],
      "stateMutability": "nonpayable",
      "type": "function"
    },
    {
      "inputs": [
        {
          "internalType": "address",
          "name": "owner",
          "type": "address"
        }
      ],
      "name": "balanceOf",
      "outputs": [
        {
          "internalType": "uint256",
          "name": "",
          "type": "uint256"
        }
      ],
      "stateMutability": "view",
      "type": "function"
    },
    {
      "inputs": [],
      "name": "baseURI",
      "outputs": [
        {
          "internalType": "string",
          "name": "",
          "type": "string"
        }
      ],
      "stateMutability": "view",
      "type": "function"
    },
    {
      "inputs": [
        {
          "internalType": "uint256",
          "name": "tokenId",
          "type": "uint256"
        }
      ],
      "name": "burn",
      "outputs": [],
      "stateMutability": "nonpayable",
      "type": "function"
    },
    {
      "inputs": [
        {
          "internalType": "uint256",
          "name": "tokenId",
          "type": "uint256"
        }
      ],
      "name": "exists",
      "outputs": [
        {
          "internalType": "bool",
          "name": "",
          "type": "bool"
        }
      ],
      "stateMutability": "view",
      "type": "function"
    },
    {
      "inputs": [
        {
          "internalType": "uint256",
          "name": "tokenId",
          "type": "uint256"
        }
      ],
      "name": "getApproved",
      "outputs": [
        {
          "internalType": "address",
          "name": "",
          "type": "address"
        }
      ],
      "stateMutability": "view",
      "type": "function"
    },
    {
      "inputs": [
        {
          "internalType": "address",
          "name": "owner",
          "type": "address"
        },
        {
          "internalType": "address",
          "name": "operator",
          "type": "address"
        }
      ],
      "name": "isApprovedForAll",
      "outputs": [
        {
          "internalType": "bool",
          "name": "",
          "type": "bool"
        }
      ],
      "stateMutability": "view",
      "type": "function"
    },
    {
      "inputs": [
        {
          "internalType": "address",
          "name": "to",
          "type": "address"
        },
        {
          "internalType": "uint256",
          "name": "tokenId",
          "type": "uint256"
        }
      ],
      "name": "mint",
      "outputs": [],
      "stateMutability": "nonpayable",
      "type": "function"
    },
    {
      "inputs": [],
      "name": "name",
      "outputs": [
        {
          "internalType": "string",
          "name": "",
          "type": "string"
        }
      ],
      "stateMutability": "view",
      "type": "function"
    },
    {
      "inputs": [
        {
          "internalType": "uint256",
          "name": "tokenId",
          "type": "uint256"
        }
      ],
      "name": "ownerOf",
      "outputs": [
        {
          "internalType": "address",
          "name": "",
          "type": "address"
        }
      ],
      "stateMutability": "view",
      "type": "function"
    },
    {
      "inputs": [
        {
          "internalType": "address",
          "name": "to",
          "type": "address"
        },
        {
          "internalType": "uint256",
          "name": "tokenId",
          "type": "uint256"
        },
        {
          "internalType": "bytes",
          "name": "_data",
          "type": "bytes"
        }
      ],
      "name": "safeMint",
      "outputs": [],
      "stateMutability": "nonpayable",
      "type": "function"
    },
    {
      "inputs": [
        {
          "internalType": "address",
          "name": "to",
          "type": "address"
        },
        {
          "internalType": "uint256",
          "name": "tokenId",
          "type": "uint256"
        }
      ],
      "name": "safeMint",
      "outputs": [],
      "stateMutability": "nonpayable",
      "type": "function"
    },
    {
      "inputs": [
        {
          "internalType": "address",
          "name": "from",
          "type": "address"
        },
        {
          "internalType": "address",
          "name": "to",
          "type": "address"
        },
        {
          "internalType": "uint256",
          "name": "tokenId",
          "type": "uint256"
        }
      ],
      "name": "safeTransferFrom",
      "outputs": [],
      "stateMutability": "nonpayable",
      "type": "function"
    },
    {
      "inputs": [
        {
          "internalType": "address",
          "name": "from",
          "type": "address"
        },
        {
          "internalType": "address",
          "name": "to",
          "type": "address"
        },
        {
          "internalType": "uint256",
          "name": "tokenId",
          "type": "uint256"
        },
        {
          "internalType": "bytes",
          "name": "_data",
          "type": "bytes"
        }
      ],
      "name": "safeTransferFrom",
      "outputs": [],
      "stateMutability": "nonpayable",
      "type": "function"
    },
    {
      "inputs": [
        {
          "internalType": "address",
          "name": "operator",
          "type": "address"
        },
        {
          "internalType": "bool",
          "name": "approved",
          "type": "bool"
        }
      ],
      "name": "setApprovalForAll",
      "outputs": [],
      "stateMutability": "nonpayable",
      "type": "function"
    },
    {
      "inputs": [
        {
          "internalType": "bytes4",
          "name": "interfaceId",
          "type": "bytes4"
        }
      ],
      "name": "supportsInterface",
      "outputs": [
        {
          "internalType": "bool",
          "name": "",
          "type": "bool"
        }
      ],
      "stateMutability": "view",
      "type": "function"
    },
    {
      "inputs": [],
      "name": "symbol",
      "outputs": [
        {
          "internalType": "string",
          "name": "",
          "type": "string"
        }
      ],
      "stateMutability": "view",
      "type": "function"
    },
    {
      "inputs": [
        {
          "internalType": "uint256",
          "name": "tokenId",
          "type": "uint256"
        }
      ],
      "name": "tokenURI",
      "outputs": [
        {
          "internalType": "string",
          "name": "",
          "type": "string"
        }
      ],
      "stateMutability": "view",
      "type": "function"
    },
    {
      "inputs": [
        {
          "internalType": "address",
          "name": "from",
          "type": "address"
        },
        {
          "internalType": "address",
          "name": "to",
          "type": "address"
        },
        {
          "internalType": "uint256",
          "name": "tokenId",
          "type": "uint256"
        }
      ],
      "name": "transferFrom",
      "outputs": [],
      "stateMutability": "nonpayable",
      "type": "function"
    }
  ],
  "bytecode": "0x60806040526040516200327d3803806200327d83398181016040528101906200002991906200063c565b6200003b82826200004360201b60201c565b5050620008c8565b600060019054906101000a900460ff16806200006a575060008054906101000a900460ff16155b620000ac576040517f08c379a0000000000000000000000000000000000000000000000000000000008152600401620000a390620006d6565b60405180910390fd5b60008060019054906101000a900460ff161590508015620000fd576001600060016101000a81548160ff02191690831515021790555060016000806101000a81548160ff0219169083151502179055505b6200010d6200016860201b60201c565b6200011d6200024760201b60201c565b6200012f83836200032660201b60201c565b6200014183836200043960201b60201c565b8015620001635760008060016101000a81548160ff0219169083151502179055505b505050565b600060019054906101000a900460ff16806200018f575060008054906101000a900460ff16155b620001d1576040517f08c379a0000000000000000000000000000000000000000000000000000000008152600401620001c890620006d6565b60405180910390fd5b60008060019054906101000a900460ff16159050801562000222576001600060016101000a81548160ff02191690831515021790555060016000806101000a81548160ff0219169083151502179055505b8015620002445760008060016101000a81548160ff0219169083151502179055505b50565b600060019054906101000a900460ff16806200026e575060008054906101000a900460ff16155b620002b0576040517f08c379a0000000000000000000000000000000000000000000000000000000008152600401620002a790620006d6565b60405180910390fd5b60008060019054906101000a900460ff16159050801562000301576001600060016101000a81548160ff02191690831515021790555060016000806101000a81548160ff0219169083151502179055505b8015620003235760008060016101000a81548160ff0219169083151502179055505b50565b600060019054906101000a900460ff16806200034d575060008054906101000a900460ff16155b6200038f576040517f08c379a00000000000000000000000000000000000000000000000000000000081526004016200038690620006d6565b60405180910390fd5b60008060019054906101000a900460ff161590508015620003e0576001600060016101000a81548160ff02191690831515021790555060016000806101000a81548160ff0219169083151502179055505b8260659080519060200190620003f89291906200051a565b508160669080519060200190620004119291906200051a565b508015620004345760008060016101000a81548160ff0219169083151502179055505b505050565b600060019054906101000a900460ff168062000460575060008054906101000a900460ff16155b620004a2576040517f08c379a00000000000000000000000000000000000000000000000000000000081526004016200049990620006d6565b60405180910390fd5b60008060019054906101000a900460ff161590508015620004f3576001600060016101000a81548160ff02191690831515021790555060016000806101000a81548160ff0219169083151502179055505b8015620005155760008060016101000a81548160ff0219169083151502179055505b505050565b82805462000528906200079e565b90600052602060002090601f0160209004810192826200054c576000855562000598565b82601f106200056757805160ff191683800117855562000598565b8280016001018555821562000598579182015b82811115620005975782518255916020019190600101906200057a565b5b509050620005a79190620005ab565b5090565b5b80821115620005c6576000816000905550600101620005ac565b5090565b6000620005e1620005db8462000721565b620006f8565b905082815260208101848484011115620005fa57600080fd5b6200060784828562000768565b509392505050565b600082601f8301126200062157600080fd5b815162000633848260208601620005ca565b91505092915050565b600080604083850312156200065057600080fd5b600083015167ffffffffffffffff8111156200066b57600080fd5b62000679858286016200060f565b925050602083015167ffffffffffffffff8111156200069757600080fd5b620006a5858286016200060f565b9150509250929050565b6000620006be602e8362000757565b9150620006cb8262000879565b604082019050919050565b60006020820190508181036000830152620006f181620006af565b9050919050565b60006200070462000717565b9050620007128282620007d4565b919050565b6000604051905090565b600067ffffffffffffffff8211156200073f576200073e62000839565b5b6200074a8262000868565b9050602081019050919050565b600082825260208201905092915050565b60005b83811015620007885780820151818401526020810190506200076b565b8381111562000798576000848401525b50505050565b60006002820490506001821680620007b757607f821691505b60208210811415620007ce57620007cd6200080a565b5b50919050565b620007df8262000868565b810181811067ffffffffffffffff8211171562000801576200080062000839565b5b80604052505050565b7f4e487b7100000000000000000000000000000000000000000000000000000000600052602260045260246000fd5b7f4e487b7100000000000000000000000000000000000000000000000000000000600052604160045260246000fd5b6000601f19601f8301169050919050565b7f496e697469616c697a61626c653a20636f6e747261637420697320616c72656160008201527f647920696e697469616c697a6564000000000000000000000000000000000000602082015250565b6129a580620008d86000396000f3fe608060405234801561001057600080fd5b50600436106101215760003560e01c80636352211e116100ad578063a144819411610071578063a144819414610318578063a22cb46514610334578063b88d4fde14610350578063c87b56dd1461036c578063e985e9c51461039c57610121565b80636352211e146102605780636c0360eb1461029057806370a08231146102ae5780638832e6e3146102de57806395d89b41146102fa57610121565b806323b872dd116100f457806323b872dd146101c057806340c10f19146101dc57806342842e0e146101f857806342966c68146102145780634f558e791461023057610121565b806301ffc9a71461012657806306fdde0314610156578063081812fc14610174578063095ea7b3146101a4575b600080fd5b610140600480360381019061013b9190611ba7565b6103cc565b60405161014d9190611f67565b60405180910390f35b61015e6104ae565b60405161016b9190611f82565b60405180910390f35b61018e60048036038101906101899190611bf9565b610540565b60405161019b9190611f00565b60405180910390f35b6101be60048036038101906101b99190611b04565b6105c5565b005b6101da60048036038101906101d591906119fe565b6106dd565b005b6101f660048036038101906101f19190611b04565b61073d565b005b610212600480360381019061020d91906119fe565b61074b565b005b61022e60048036038101906102299190611bf9565b61076b565b005b61024a60048036038101906102459190611bf9565b610777565b6040516102579190611f67565b60405180910390f35b61027a60048036038101906102759190611bf9565b610789565b6040516102879190611f00565b60405180910390f35b61029861083b565b6040516102a59190611f82565b60405180910390f35b6102c860048036038101906102c39190611999565b61084a565b6040516102d59190612164565b60405180910390f35b6102f860048036038101906102f39190611b40565b610902565b005b610302610912565b60405161030f9190611f82565b60405180910390f35b610332600480360381019061032d9190611b04565b6109a4565b005b61034e60048036038101906103499190611ac8565b6109b2565b005b61036a60048036038101906103659190611a4d565b610b33565b005b61038660048036038101906103819190611bf9565b610b95565b6040516103939190611f82565b60405180910390f35b6103b660048036038101906103b191906119c2565b610c3c565b6040516103c39190611f67565b60405180910390f35b60007f80ac58cd000000000000000000000000000000000000000000000000000000007bffffffffffffffffffffffffffffffffffffffffffffffffffffffff1916827bffffffffffffffffffffffffffffffffffffffffffffffffffffffff1916148061049757507f5b5e139f000000000000000000000000000000000000000000000000000000007bffffffffffffffffffffffffffffffffffffffffffffffffffffffff1916827bffffffffffffffffffffffffffffffffffffffffffffffffffffffff1916145b806104a757506104a682610cd0565b5b9050919050565b6060606580546104bd90612389565b80601f01602080910402602001604051908101604052809291908181526020018280546104e990612389565b80156105365780601f1061050b57610100808354040283529160200191610536565b820191906000526020600020905b81548152906001019060200180831161051957829003601f168201915b5050505050905090565b600061054b82610d3a565b61058a576040517f08c379a0000000000000000000000000000000000000000000000000000000008152600401610581906120c4565b60405180910390fd5b6069600083815260200190815260200160002060009054906101000a900473ffffffffffffffffffffffffffffffffffffffff169050919050565b60006105d082610789565b90508073ffffffffffffffffffffffffffffffffffffffff168373ffffffffffffffffffffffffffffffffffffffff161415610641576040517f08c379a000000000000000000000000000000000000000000000000000000000815260040161063890612124565b60405180910390fd5b8073ffffffffffffffffffffffffffffffffffffffff16610660610da6565b73ffffffffffffffffffffffffffffffffffffffff16148061068f575061068e81610689610da6565b610c3c565b5b6106ce576040517f08c379a00000000000000000000000000000000000000000000000000000000081526004016106c590612044565b60405180910390fd5b6106d88383610dae565b505050565b6106ee6106e8610da6565b82610e67565b61072d576040517f08c379a000000000000000000000000000000000000000000000000000000000815260040161072490612144565b60405180910390fd5b610738838383610f45565b505050565b61074782826111a1565b5050565b61076683838360405180602001604052806000815250610b33565b505050565b6107748161136f565b50565b600061078282610d3a565b9050919050565b6000806067600084815260200190815260200160002060009054906101000a900473ffffffffffffffffffffffffffffffffffffffff169050600073ffffffffffffffffffffffffffffffffffffffff168173ffffffffffffffffffffffffffffffffffffffff161415610832576040517f08c379a000000000000000000000000000000000000000000000000000000000815260040161082990612084565b60405180910390fd5b80915050919050565b6060610845611480565b905090565b60008073ffffffffffffffffffffffffffffffffffffffff168273ffffffffffffffffffffffffffffffffffffffff1614156108bb576040517f08c379a00000000000000000000000000000000000000000000000000000000081526004016108b290612064565b60405180910390fd5b606860008373ffffffffffffffffffffffffffffffffffffffff1673ffffffffffffffffffffffffffffffffffffffff168152602001908152602001600020549050919050565b61090d838383611497565b505050565b60606066805461092190612389565b80601f016020809104026020016040519081016040528092919081815260200182805461094d90612389565b801561099a5780601f1061096f5761010080835404028352916020019161099a565b820191906000526020600020905b81548152906001019060200180831161097d57829003601f168201915b5050505050905090565b6109ae82826114f2565b5050565b6109ba610da6565b73ffffffffffffffffffffffffffffffffffffffff168273ffffffffffffffffffffffffffffffffffffffff161415610a28576040517f08c379a0000000000000000000000000000000000000000000000000000000008152600401610a1f90612004565b60405180910390fd5b80606a6000610a35610da6565b73ffffffffffffffffffffffffffffffffffffffff1673ffffffffffffffffffffffffffffffffffffffff16815260200190815260200160002060008473ffffffffffffffffffffffffffffffffffffffff1673ffffffffffffffffffffffffffffffffffffffff16815260200190815260200160002060006101000a81548160ff0219169083151502179055508173ffffffffffffffffffffffffffffffffffffffff16610ae2610da6565b73ffffffffffffffffffffffffffffffffffffffff167f17307eab39ab6107e8899845ad3d59bd9653f200f220920489ca2b5937696c3183604051610b279190611f67565b60405180910390a35050565b610b44610b3e610da6565b83610e67565b610b83576040517f08c379a0000000000000000000000000000000000000000000000000000000008152600401610b7a90612144565b60405180910390fd5b610b8f84848484611510565b50505050565b6060610ba082610d3a565b610bdf576040517f08c379a0000000000000000000000000000000000000000000000000000000008152600401610bd690612104565b60405180910390fd5b6000610be9611480565b90506000815111610c095760405180602001604052806000815250610c34565b80610c138461156c565b604051602001610c24929190611edc565b6040516020818303038152906040525b915050919050565b6000606a60008473ffffffffffffffffffffffffffffffffffffffff1673ffffffffffffffffffffffffffffffffffffffff16815260200190815260200160002060008373ffffffffffffffffffffffffffffffffffffffff1673ffffffffffffffffffffffffffffffffffffffff16815260200190815260200160002060009054906101000a900460ff16905092915050565b60007f01ffc9a7000000000000000000000000000000000000000000000000000000007bffffffffffffffffffffffffffffffffffffffffffffffffffffffff1916827bffffffffffffffffffffffffffffffffffffffffffffffffffffffff1916149050919050565b60008073ffffffffffffffffffffffffffffffffffffffff166067600084815260200190815260200160002060009054906101000a900473ffffffffffffffffffffffffffffffffffffffff1673ffffffffffffffffffffffffffffffffffffffff1614159050919050565b600033905090565b816069600083815260200190815260200160002060006101000a81548173ffffffffffffffffffffffffffffffffffffffff021916908373ffffffffffffffffffffffffffffffffffffffff160217905550808273ffffffffffffffffffffffffffffffffffffffff16610e2183610789565b73ffffffffffffffffffffffffffffffffffffffff167f8c5be1e5ebec7d5bd14f71427d1e84f3dd0314c0f7b2291e5b200ac8c7c3b92560405160405180910390a45050565b6000610e7282610d3a565b610eb1576040517f08c379a0000000000000000000000000000000000000000000000000000000008152600401610ea890612024565b60405180910390fd5b6000610ebc83610789565b90508073ffffffffffffffffffffffffffffffffffffffff168473ffffffffffffffffffffffffffffffffffffffff161480610f2b57508373ffffffffffffffffffffffffffffffffffffffff16610f1384610540565b73ffffffffffffffffffffffffffffffffffffffff16145b80610f3c5750610f3b8185610c3c565b5b91505092915050565b8273ffffffffffffffffffffffffffffffffffffffff16610f6582610789565b73ffffffffffffffffffffffffffffffffffffffff1614610fbb576040517f08c379a0000000000000000000000000000000000000000000000000000000008152600401610fb2906120e4565b60405180910390fd5b600073ffffffffffffffffffffffffffffffffffffffff168273ffffffffffffffffffffffffffffffffffffffff16141561102b576040517f08c379a000000000000000000000000000000000000000000000000000000000815260040161102290611fe4565b60405180910390fd5b611036838383611719565b611041600082610dae565b6001606860008573ffffffffffffffffffffffffffffffffffffffff1673ffffffffffffffffffffffffffffffffffffffff1681526020019081526020016000206000828254611091919061229f565b925050819055506001606860008473ffffffffffffffffffffffffffffffffffffffff1673ffffffffffffffffffffffffffffffffffffffff16815260200190815260200160002060008282546110e89190612218565b92505081905550816067600083815260200190815260200160002060006101000a81548173ffffffffffffffffffffffffffffffffffffffff021916908373ffffffffffffffffffffffffffffffffffffffff160217905550808273ffffffffffffffffffffffffffffffffffffffff168473ffffffffffffffffffffffffffffffffffffffff167fddf252ad1be2c89b69c2b068fc378daa952ba7f163c4a11628f55a4df523b3ef60405160405180910390a4505050565b600073ffffffffffffffffffffffffffffffffffffffff168273ffffffffffffffffffffffffffffffffffffffff161415611211576040517f08c379a0000000000000000000000000000000000000000000000000000000008152600401611208906120a4565b60405180910390fd5b61121a81610d3a565b1561125a576040517f08c379a000000000000000000000000000000000000000000000000000000000815260040161125190611fc4565b60405180910390fd5b61126660008383611719565b6001606860008473ffffffffffffffffffffffffffffffffffffffff1673ffffffffffffffffffffffffffffffffffffffff16815260200190815260200160002060008282546112b69190612218565b92505081905550816067600083815260200190815260200160002060006101000a81548173ffffffffffffffffffffffffffffffffffffffff021916908373ffffffffffffffffffffffffffffffffffffffff160217905550808273ffffffffffffffffffffffffffffffffffffffff16600073ffffffffffffffffffffffffffffffffffffffff167fddf252ad1be2c89b69c2b068fc378daa952ba7f163c4a11628f55a4df523b3ef60405160405180910390a45050565b600061137a82610789565b905061138881600084611719565b611393600083610dae565b6001606860008373ffffffffffffffffffffffffffffffffffffffff1673ffffffffffffffffffffffffffffffffffffffff16815260200190815260200160002060008282546113e3919061229f565b925050819055506067600083815260200190815260200160002060006101000a81549073ffffffffffffffffffffffffffffffffffffffff021916905581600073ffffffffffffffffffffffffffffffffffffffff168273ffffffffffffffffffffffffffffffffffffffff167fddf252ad1be2c89b69c2b068fc378daa952ba7f163c4a11628f55a4df523b3ef60405160405180910390a45050565b606060405180602001604052806000815250905090565b6114a183836111a1565b6114ae600084848461171e565b6114ed576040517f08c379a00000000000000000000000000000000000000000000000000000000081526004016114e490611fa4565b60405180910390fd5b505050565b61150c828260405180602001604052806000815250611497565b5050565b61151b848484610f45565b6115278484848461171e565b611566576040517f08c379a000000000000000000000000000000000000000000000000000000000815260040161155d90611fa4565b60405180910390fd5b50505050565b606060008214156115b4576040518060400160405280600181526020017f30000000000000000000000000000000000000000000000000000000000000008152509050611714565b600082905060005b600082146115e65780806115cf906123ec565b915050600a826115df919061226e565b91506115bc565b60008167ffffffffffffffff811115611628577f4e487b7100000000000000000000000000000000000000000000000000000000600052604160045260246000fd5b6040519080825280601f01601f19166020018201604052801561165a5781602001600182028036833780820191505090505b5090505b6000851461170d57600182611673919061229f565b9150600a856116829190612435565b603061168e9190612218565b60f81b8183815181106116ca577f4e487b7100000000000000000000000000000000000000000000000000000000600052603260045260246000fd5b60200101907effffffffffffffffffffffffffffffffffffffffffffffffffffffffffffff1916908160001a905350600a85611706919061226e565b945061165e565b8093505050505b919050565b505050565b600061173f8473ffffffffffffffffffffffffffffffffffffffff166118b5565b156118a8578373ffffffffffffffffffffffffffffffffffffffff1663150b7a02611768610da6565b8786866040518563ffffffff1660e01b815260040161178a9493929190611f1b565b602060405180830381600087803b1580156117a457600080fd5b505af19250505080156117d557506040513d601f19601f820116820180604052508101906117d29190611bd0565b60015b611858573d8060008114611805576040519150601f19603f3d011682016040523d82523d6000602084013e61180a565b606091505b50600081511415611850576040517f08c379a000000000000000000000000000000000000000000000000000000000815260040161184790611fa4565b60405180910390fd5b805181602001fd5b63150b7a0260e01b7bffffffffffffffffffffffffffffffffffffffffffffffffffffffff1916817bffffffffffffffffffffffffffffffffffffffffffffffffffffffff1916149150506118ad565b600190505b949350505050565b600080823b905060008111915050919050565b60006118db6118d6846121a4565b61217f565b9050828152602081018484840111156118f357600080fd5b6118fe848285612347565b509392505050565b60008135905061191581612913565b92915050565b60008135905061192a8161292a565b92915050565b60008135905061193f81612941565b92915050565b60008151905061195481612941565b92915050565b600082601f83011261196b57600080fd5b813561197b8482602086016118c8565b91505092915050565b60008135905061199381612958565b92915050565b6000602082840312156119ab57600080fd5b60006119b984828501611906565b91505092915050565b600080604083850312156119d557600080fd5b60006119e385828601611906565b92505060206119f485828601611906565b9150509250929050565b600080600060608486031215611a1357600080fd5b6000611a2186828701611906565b9350506020611a3286828701611906565b9250506040611a4386828701611984565b9150509250925092565b60008060008060808587031215611a6357600080fd5b6000611a7187828801611906565b9450506020611a8287828801611906565b9350506040611a9387828801611984565b925050606085013567ffffffffffffffff811115611ab057600080fd5b611abc8782880161195a565b91505092959194509250565b60008060408385031215611adb57600080fd5b6000611ae985828601611906565b9250506020611afa8582860161191b565b9150509250929050565b60008060408385031215611b1757600080fd5b6000611b2585828601611906565b9250506020611b3685828601611984565b9150509250929050565b600080600060608486031215611b5557600080fd5b6000611b6386828701611906565b9350506020611b7486828701611984565b925050604084013567ffffffffffffffff811115611b9157600080fd5b611b9d8682870161195a565b9150509250925092565b600060208284031215611bb957600080fd5b6000611bc784828501611930565b91505092915050565b600060208284031215611be257600080fd5b6000611bf084828501611945565b91505092915050565b600060208284031215611c0b57600080fd5b6000611c1984828501611984565b91505092915050565b611c2b816122d3565b82525050565b611c3a816122e5565b82525050565b6000611c4b826121d5565b611c5581856121eb565b9350611c65818560208601612356565b611c6e81612522565b840191505092915050565b6000611c84826121e0565b611c8e81856121fc565b9350611c9e818560208601612356565b611ca781612522565b840191505092915050565b6000611cbd826121e0565b611cc7818561220d565b9350611cd7818560208601612356565b80840191505092915050565b6000611cf06032836121fc565b9150611cfb82612533565b604082019050919050565b6000611d13601c836121fc565b9150611d1e82612582565b602082019050919050565b6000611d366024836121fc565b9150611d41826125ab565b604082019050919050565b6000611d596019836121fc565b9150611d64826125fa565b602082019050919050565b6000611d7c602c836121fc565b9150611d8782612623565b604082019050919050565b6000611d9f6038836121fc565b9150611daa82612672565b604082019050919050565b6000611dc2602a836121fc565b9150611dcd826126c1565b604082019050919050565b6000611de56029836121fc565b9150611df082612710565b604082019050919050565b6000611e086020836121fc565b9150611e138261275f565b602082019050919050565b6000611e2b602c836121fc565b9150611e3682612788565b604082019050919050565b6000611e4e6029836121fc565b9150611e59826127d7565b604082019050919050565b6000611e71602f836121fc565b9150611e7c82612826565b604082019050919050565b6000611e946021836121fc565b9150611e9f82612875565b604082019050919050565b6000611eb76031836121fc565b9150611ec2826128c4565b604082019050919050565b611ed68161233d565b82525050565b6000611ee88285611cb2565b9150611ef48284611cb2565b91508190509392505050565b6000602082019050611f156000830184611c22565b92915050565b6000608082019050611f306000830187611c22565b611f3d6020830186611c22565b611f4a6040830185611ecd565b8181036060830152611f5c8184611c40565b905095945050505050565b6000602082019050611f7c6000830184611c31565b92915050565b60006020820190508181036000830152611f9c8184611c79565b905092915050565b60006020820190508181036000830152611fbd81611ce3565b9050919050565b60006020820190508181036000830152611fdd81611d06565b9050919050565b60006020820190508181036000830152611ffd81611d29565b9050919050565b6000602082019050818103600083015261201d81611d4c565b9050919050565b6000602082019050818103600083015261203d81611d6f565b9050919050565b6000602082019050818103600083015261205d81611d92565b9050919050565b6000602082019050818103600083015261207d81611db5565b9050919050565b6000602082019050818103600083015261209d81611dd8565b9050919050565b600060208201905081810360008301526120bd81611dfb565b9050919050565b600060208201905081810360008301526120dd81611e1e565b9050919050565b600060208201905081810360008301526120fd81611e41565b9050919050565b6000602082019050818103600083015261211d81611e64565b9050919050565b6000602082019050818103600083015261213d81611e87565b9050919050565b6000602082019050818103600083015261215d81611eaa565b9050919050565b60006020820190506121796000830184611ecd565b92915050565b600061218961219a565b905061219582826123bb565b919050565b6000604051905090565b600067ffffffffffffffff8211156121bf576121be6124f3565b5b6121c882612522565b9050602081019050919050565b600081519050919050565b600081519050919050565b600082825260208201905092915050565b600082825260208201905092915050565b600081905092915050565b60006122238261233d565b915061222e8361233d565b9250827fffffffffffffffffffffffffffffffffffffffffffffffffffffffffffffffff0382111561226357612262612466565b5b828201905092915050565b60006122798261233d565b91506122848361233d565b92508261229457612293612495565b5b828204905092915050565b60006122aa8261233d565b91506122b58361233d565b9250828210156122c8576122c7612466565b5b828203905092915050565b60006122de8261231d565b9050919050565b60008115159050919050565b60007fffffffff0000000000000000000000000000000000000000000000000000000082169050919050565b600073ffffffffffffffffffffffffffffffffffffffff82169050919050565b6000819050919050565b82818337600083830152505050565b60005b83811015612374578082015181840152602081019050612359565b83811115612383576000848401525b50505050565b600060028204905060018216806123a157607f821691505b602082108114156123b5576123b46124c4565b5b50919050565b6123c482612522565b810181811067ffffffffffffffff821117156123e3576123e26124f3565b5b80604052505050565b60006123f78261233d565b91507fffffffffffffffffffffffffffffffffffffffffffffffffffffffffffffffff82141561242a57612429612466565b5b600182019050919050565b60006124408261233d565b915061244b8361233d565b92508261245b5761245a612495565b5b828206905092915050565b7f4e487b7100000000000000000000000000000000000000000000000000000000600052601160045260246000fd5b7f4e487b7100000000000000000000000000000000000000000000000000000000600052601260045260246000fd5b7f4e487b7100000000000000000000000000000000000000000000000000000000600052602260045260246000fd5b7f4e487b7100000000000000000000000000000000000000000000000000000000600052604160045260246000fd5b6000601f19601f8301169050919050565b7f4552433732313a207472616e7366657220746f206e6f6e20455243373231526560008201527f63656976657220696d706c656d656e7465720000000000000000000000000000602082015250565b7f4552433732313a20746f6b656e20616c7265616479206d696e74656400000000600082015250565b7f4552433732313a207472616e7366657220746f20746865207a65726f2061646460008201527f7265737300000000000000000000000000000000000000000000000000000000602082015250565b7f4552433732313a20617070726f766520746f2063616c6c657200000000000000600082015250565b7f4552433732313a206f70657261746f7220717565727920666f72206e6f6e657860008201527f697374656e7420746f6b656e0000000000000000000000000000000000000000602082015250565b7f4552433732313a20617070726f76652063616c6c6572206973206e6f74206f7760008201527f6e6572206e6f7220617070726f76656420666f7220616c6c0000000000000000602082015250565b7f4552433732313a2062616c616e636520717565727920666f7220746865207a6560008201527f726f206164647265737300000000000000000000000000000000000000000000602082015250565b7f4552433732313a206f776e657220717565727920666f72206e6f6e657869737460008201527f656e7420746f6b656e0000000000000000000000000000000000000000000000602082015250565b7f4552433732313a206d696e7420746f20746865207a65726f2061646472657373600082015250565b7f4552433732313a20617070726f76656420717565727920666f72206e6f6e657860008201527f697374656e7420746f6b656e0000000000000000000000000000000000000000602082015250565b7f4552433732313a207472616e73666572206f6620746f6b656e2074686174206960008201527f73206e6f74206f776e0000000000000000000000000000000000000000000000602082015250565b7f4552433732314d657461646174613a2055524920717565727920666f72206e6f60008201527f6e6578697374656e7420746f6b656e0000000000000000000000000000000000602082015250565b7f4552433732313a20617070726f76616c20746f2063757272656e74206f776e6560008201527f7200000000000000000000000000000000000000000000000000000000000000602082015250565b7f4552433732313a207472616e736665722063616c6c6572206973206e6f74206f60008201527f776e6572206e6f7220617070726f766564000000000000000000000000000000602082015250565b61291c816122d3565b811461292757600080fd5b50565b612933816122e5565b811461293e57600080fd5b50565b61294a816122f1565b811461295557600080fd5b50565b6129618161233d565b811461296c57600080fd5b5056fea26469706673582212201d8ef2c9cd410f268bab93dfea4cf548034c0e1715d06bb5d609cd9ad48f213764736f6c63430008040033",
  "linkReferences": {},
  "deployedLinkReferences": {}
}