{
  "_format": "hh-sol-artifact-1",
  "contractName": "ERC721ReceiverMockUpgradeableWithInit",
  "sourceName": "contracts/src/OpenZeppelin/upgradeable/mocks/WithInit.sol",
  "abi": [
    {
      "inputs": [
        {
          "internalType": "bytes4",
          "name": "retval",
          "type": "bytes4"
        },
        {
          "internalType": "enum ERC721ReceiverMockUpgradeable.Error",
          "name": "error",
          "type": "uint8"
        }
      ],
      "stateMutability": "payable",
      "type": "constructor"
    },
    {
      "anonymous": false,
      "inputs": [
        {
          "indexed": false,
          "internalType": "address",
          "name": "operator",
          "type": "address"
        },
        {
          "indexed": false,
          "internalType": "address",
          "name": "from",
          "type": "address"
        },
        {
          "indexed": false,
          "internalType": "uint256",
          "name": "tokenId",
          "type": "uint256"
        },
        {
          "indexed": false,
          "internalType": "bytes",
          "name": "data",
          "type": "bytes"
        },
        {
          "indexed": false,
          "internalType": "uint256",
          "name": "gas",
          "type": "uint256"
        }
      ],
      "name": "Received",
      "type": "event"
    },
    {
      "inputs": [
        {
          "internalType": "address",
          "name": "operator",
          "type": "address"
        },
        {
          "internalType": "address",
          "name": "from",
          "type": "address"
        },
        {
          "internalType": "uint256",
          "name": "tokenId",
          "type": "uint256"
        },
        {
          "internalType": "bytes",
          "name": "data",
          "type": "bytes"
        }
      ],
      "name": "onERC721Received",
      "outputs": [
        {
          "internalType": "bytes4",
          "name": "",
          "type": "bytes4"
        }
      ],
      "stateMutability": "nonpayable",
      "type": "function"
    }
  ],
  "bytecode": "0x608060405260405162000b6038038062000b608339818101604052810190620000299190620002b4565b6200003b82826200004360201b60201c565b5050620003f5565b600060019054906101000a900460ff16806200006a575060008054906101000a900460ff16155b620000ac576040517f08c379a0000000000000000000000000000000000000000000000000000000008152600401620000a3906200031c565b60405180910390fd5b60008060019054906101000a900460ff161590508015620000fd576001600060016101000a81548160ff02191690831515021790555060016000806101000a81548160ff0219169083151502179055505b6200010f83836200013660201b60201c565b8015620001315760008060016101000a81548160ff0219169083151502179055505b505050565b600060019054906101000a900460ff16806200015d575060008054906101000a900460ff16155b6200019f576040517f08c379a000000000000000000000000000000000000000000000000000000000815260040162000196906200031c565b60405180910390fd5b60008060019054906101000a900460ff161590508015620001f0576001600060016101000a81548160ff02191690831515021790555060016000806101000a81548160ff0219169083151502179055505b82600060026101000a81548163ffffffff021916908360e01c021790555081600060066101000a81548160ff021916908360038111156200025a577f4e487b7100000000000000000000000000000000000000000000000000000000600052602160045260246000fd5b02179055508015620002815760008060016101000a81548160ff0219169083151502179055505b505050565b6000815190506200029781620003ca565b92915050565b600081519050620002ae81620003e4565b92915050565b60008060408385031215620002c857600080fd5b6000620002d88582860162000286565b9250506020620002eb858286016200029d565b9150509250929050565b600062000304602e836200033e565b915062000311826200037b565b604082019050919050565b600060208201905081810360008301526200033781620002f5565b9050919050565b600082825260208201905092915050565b60007fffffffff0000000000000000000000000000000000000000000000000000000082169050919050565b7f496e697469616c697a61626c653a20636f6e747261637420697320616c72656160008201527f647920696e697469616c697a6564000000000000000000000000000000000000602082015250565b620003d5816200034f565b8114620003e157600080fd5b50565b60048110620003f257600080fd5b50565b61075b80620004056000396000f3fe608060405234801561001057600080fd5b506004361061002b5760003560e01c8063150b7a0214610030575b600080fd5b61004a60048036038101906100459190610337565b610060565b6040516100579190610495565b60405180910390f35b60006001600381111561009c577f4e487b7100000000000000000000000000000000000000000000000000000000600052602160045260246000fd5b600060069054906101000a900460ff1660038111156100e4577f4e487b7100000000000000000000000000000000000000000000000000000000600052602160045260246000fd5b1415610125576040517f08c379a000000000000000000000000000000000000000000000000000000000815260040161011c906104b0565b60405180910390fd5b6002600381111561015f577f4e487b7100000000000000000000000000000000000000000000000000000000600052602160045260246000fd5b600060069054906101000a900460ff1660038111156101a7577f4e487b7100000000000000000000000000000000000000000000000000000000600052602160045260246000fd5b14156101b257600080fd5b6003808111156101eb577f4e487b7100000000000000000000000000000000000000000000000000000000600052602160045260246000fd5b600060069054906101000a900460ff166003811115610233577f4e487b7100000000000000000000000000000000000000000000000000000000600052602160045260246000fd5b141561024c5760008060006102489190610553565b9050505b7f28fa6e16458f9c24aa59ddd4085264573006dbe30304837873c7deafc702b038858585855a60405161028395949392919061043b565b60405180910390a1600060029054906101000a900460e01b9050949350505050565b60006102b86102b3846104f5565b6104d0565b9050828152602081018484840111156102d057600080fd5b6102db8482856105ec565b509392505050565b6000813590506102f2816106f7565b92915050565b600082601f83011261030957600080fd5b81356103198482602086016102a5565b91505092915050565b6000813590506103318161070e565b92915050565b6000806000806080858703121561034d57600080fd5b600061035b878288016102e3565b945050602061036c878288016102e3565b935050604061037d87828801610322565b925050606085013567ffffffffffffffff81111561039a57600080fd5b6103a6878288016102f8565b91505092959194509250565b6103bb81610584565b82525050565b6103ca81610596565b82525050565b60006103db82610526565b6103e58185610531565b93506103f58185602086016105fb565b6103fe816106bd565b840191505092915050565b6000610416601d83610542565b9150610421826106ce565b602082019050919050565b610435816105e2565b82525050565b600060a08201905061045060008301886103b2565b61045d60208301876103b2565b61046a604083018661042c565b818103606083015261047c81856103d0565b905061048b608083018461042c565b9695505050505050565b60006020820190506104aa60008301846103c1565b92915050565b600060208201905081810360008301526104c981610409565b9050919050565b60006104da6104eb565b90506104e6828261062e565b919050565b6000604051905090565b600067ffffffffffffffff8211156105105761050f61068e565b5b610519826106bd565b9050602081019050919050565b600081519050919050565b600082825260208201905092915050565b600082825260208201905092915050565b600061055e826105e2565b9150610569836105e2565b9250826105795761057861065f565b5b828204905092915050565b600061058f826105c2565b9050919050565b60007fffffffff0000000000000000000000000000000000000000000000000000000082169050919050565b600073ffffffffffffffffffffffffffffffffffffffff82169050919050565b6000819050919050565b82818337600083830152505050565b60005b838110156106195780820151818401526020810190506105fe565b83811115610628576000848401525b50505050565b610637826106bd565b810181811067ffffffffffffffff821117156106565761065561068e565b5b80604052505050565b7f4e487b7100000000000000000000000000000000000000000000000000000000600052601260045260246000fd5b7f4e487b7100000000000000000000000000000000000000000000000000000000600052604160045260246000fd5b6000601f19601f8301169050919050565b7f45524337323152656365697665724d6f636b3a20726576657274696e67000000600082015250565b61070081610584565b811461070b57600080fd5b50565b610717816105e2565b811461072257600080fd5b5056fea264697066735822122053c17bc8af31a221dbb15d069cad64dc6f034da5893693964f2f392741d749c964736f6c63430008040033",
  "linkReferences": {},
  "deployedLinkReferences": {}
}