{
  "_format": "hh-sol-artifact-1",
  "contractName": "MathMockUpgradeableWithInit",
  "sourceName": "contracts/src/OpenZeppelin/upgradeable/mocks/WithInit.sol",
  "abi": [
    {
      "inputs": [],
      "stateMutability": "payable",
      "type": "constructor"
    },
    {
      "inputs": [
        {
          "internalType": "uint256",
          "name": "a",
          "type": "uint256"
        },
        {
          "internalType": "uint256",
          "name": "b",
          "type": "uint256"
        }
      ],
      "name": "average",
      "outputs": [
        {
          "internalType": "uint256",
          "name": "",
          "type": "uint256"
        }
      ],
      "stateMutability": "pure",
      "type": "function"
    },
    {
      "inputs": [
        {
          "internalType": "uint256",
          "name": "a",
          "type": "uint256"
        },
        {
          "internalType": "uint256",
          "name": "b",
          "type": "uint256"
        }
      ],
      "name": "ceilDiv",
      "outputs": [
        {
          "internalType": "uint256",
          "name": "",
          "type": "uint256"
        }
      ],
      "stateMutability": "pure",
      "type": "function"
    },
    {
      "inputs": [
        {
          "internalType": "uint256",
          "name": "a",
          "type": "uint256"
        },
        {
          "internalType": "uint256",
          "name": "b",
          "type": "uint256"
        }
      ],
      "name": "max",
      "outputs": [
        {
          "internalType": "uint256",
          "name": "",
          "type": "uint256"
        }
      ],
      "stateMutability": "pure",
      "type": "function"
    },
    {
      "inputs": [
        {
          "internalType": "uint256",
          "name": "a",
          "type": "uint256"
        },
        {
          "internalType": "uint256",
          "name": "b",
          "type": "uint256"
        }
      ],
      "name": "min",
      "outputs": [
        {
          "internalType": "uint256",
          "name": "",
          "type": "uint256"
        }
      ],
      "stateMutability": "pure",
      "type": "function"
    }
  ],
  "bytecode": "0x608060405261001261001760201b60201c565b61027a565b600060019054906101000a900460ff168061003d575060008054906101000a900460ff16155b61007c576040517f08c379a0000000000000000000000000000000000000000000000000000000008152600401610073906101fa565b60405180910390fd5b60008060019054906101000a900460ff1615905080156100cc576001600060016101000a81548160ff02191690831515021790555060016000806101000a81548160ff0219169083151502179055505b6100da6100fe60201b60201c565b80156100fb5760008060016101000a81548160ff0219169083151502179055505b50565b600060019054906101000a900460ff1680610124575060008054906101000a900460ff16155b610163576040517f08c379a000000000000000000000000000000000000000000000000000000000815260040161015a906101fa565b60405180910390fd5b60008060019054906101000a900460ff1615905080156101b3576001600060016101000a81548160ff02191690831515021790555060016000806101000a81548160ff0219169083151502179055505b80156101d45760008060016101000a81548160ff0219169083151502179055505b50565b60006101e4602e8361021a565b91506101ef8261022b565b604082019050919050565b60006020820190508181036000830152610213816101d7565b9050919050565b600082825260208201905092915050565b7f496e697469616c697a61626c653a20636f6e747261637420697320616c72656160008201527f647920696e697469616c697a6564000000000000000000000000000000000000602082015250565b610422806102896000396000f3fe608060405234801561001057600080fd5b506004361061004c5760003560e01c80632b7423ab146100515780636d5433e6146100815780637ae2b5c7146100b15780639cb35327146100e1575b600080fd5b61006b6004803603810190610066919061024f565b610111565b604051610078919061029a565b60405180910390f35b61009b6004803603810190610096919061024f565b610125565b6040516100a8919061029a565b60405180910390f35b6100cb60048036038101906100c6919061024f565b610139565b6040516100d8919061029a565b60405180910390f35b6100fb60048036038101906100f6919061024f565b61014d565b604051610108919061029a565b60405180910390f35b600061011d8383610161565b905092915050565b600061013183836101c8565b905092915050565b600061014583836101e2565b905092915050565b600061015983836101fb565b905092915050565b6000600280836101719190610346565b60028561017e9190610346565b61018891906102b5565b610192919061030b565b60028361019f919061030b565b6002856101ac919061030b565b6101b691906102b5565b6101c091906102b5565b905092915050565b6000818310156101d857816101da565b825b905092915050565b60008183106101f157816101f3565b825b905092915050565b600080828461020a9190610346565b14610216576001610219565b60005b60ff168284610228919061030b565b61023291906102b5565b905092915050565b600081359050610249816103d5565b92915050565b6000806040838503121561026257600080fd5b60006102708582860161023a565b92505060206102818582860161023a565b9150509250929050565b6102948161033c565b82525050565b60006020820190506102af600083018461028b565b92915050565b60006102c08261033c565b91506102cb8361033c565b9250827fffffffffffffffffffffffffffffffffffffffffffffffffffffffffffffffff03821115610300576102ff610377565b5b828201905092915050565b60006103168261033c565b91506103218361033c565b925082610331576103306103a6565b5b828204905092915050565b6000819050919050565b60006103518261033c565b915061035c8361033c565b92508261036c5761036b6103a6565b5b828206905092915050565b7f4e487b7100000000000000000000000000000000000000000000000000000000600052601160045260246000fd5b7f4e487b7100000000000000000000000000000000000000000000000000000000600052601260045260246000fd5b6103de8161033c565b81146103e957600080fd5b5056fea26469706673582212209171fcc9eed1fe1509ad5b81646cdc85d2e8d2b2cb1e89c804cd8a10282f1b9f64736f6c63430008040033",
  "linkReferences": {},
  "deployedLinkReferences": {}
}