{
  "_format": "hh-sol-artifact-1",
  "contractName": "MulticallTokenMockUpgradeableWithInit",
  "sourceName": "contracts/src/OpenZeppelin/upgradeable/mocks/WithInit.sol",
  "abi": [
    {
      "inputs": [
        {
          "internalType": "uint256",
          "name": "initialBalance",
          "type": "uint256"
        }
      ],
      "stateMutability": "payable",
      "type": "constructor"
    },
    {
      "anonymous": false,
      "inputs": [
        {
          "indexed": true,
          "internalType": "address",
          "name": "owner",
          "type": "address"
        },
        {
          "indexed": true,
          "internalType": "address",
          "name": "spender",
          "type": "address"
        },
        {
          "indexed": false,
          "internalType": "uint256",
          "name": "value",
          "type": "uint256"
        }
      ],
      "name": "Approval",
      "type": "event"
    },
    {
      "anonymous": false,
      "inputs": [
        {
          "indexed": true,
          "internalType": "address",
          "name": "from",
          "type": "address"
        },
        {
          "indexed": true,
          "internalType": "address",
          "name": "to",
          "type": "address"
        },
        {
          "indexed": false,
          "internalType": "uint256",
          "name": "value",
          "type": "uint256"
        }
      ],
      "name": "Transfer",
      "type": "event"
    },
    {
      "inputs": [
        {
          "internalType": "address",
          "name": "owner",
          "type": "address"
        },
        {
          "internalType": "address",
          "name": "spender",
          "type": "address"
        }
      ],
      "name": "allowance",
      "outputs": [
        {
          "internalType": "uint256",
          "name": "",
          "type": "uint256"
        }
      ],
      "stateMutability": "view",
      "type": "function"
    },
    {
      "inputs": [
        {
          "internalType": "address",
          "name": "spender",
          "type": "address"
        },
        {
          "internalType": "uint256",
          "name": "amount",
          "type": "uint256"
        }
      ],
      "name": "approve",
      "outputs": [
        {
          "internalType": "bool",
          "name": "",
          "type": "bool"
        }
      ],
      "stateMutability": "nonpayable",
      "type": "function"
    },
    {
      "inputs": [
        {
          "internalType": "address",
          "name": "owner",
          "type": "address"
        },
        {
          "internalType": "address",
          "name": "spender",
          "type": "address"
        },
        {
          "internalType": "uint256",
          "name": "value",
          "type": "uint256"
        }
      ],
      "name": "approveInternal",
      "outputs": [],
      "stateMutability": "nonpayable",
      "type": "function"
    },
    {
      "inputs": [
        {
          "internalType": "address",
          "name": "account",
          "type": "address"
        }
      ],
      "name": "balanceOf",
      "outputs": [
        {
          "internalType": "uint256",
          "name": "",
          "type": "uint256"
        }
      ],
      "stateMutability": "view",
      "type": "function"
    },
    {
      "inputs": [
        {
          "internalType": "address",
          "name": "account",
          "type": "address"
        },
        {
          "internalType": "uint256",
          "name": "amount",
          "type": "uint256"
        }
      ],
      "name": "burn",
      "outputs": [],
      "stateMutability": "nonpayable",
      "type": "function"
    },
    {
      "inputs": [],
      "name": "decimals",
      "outputs": [
        {
          "internalType": "uint8",
          "name": "",
          "type": "uint8"
        }
      ],
      "stateMutability": "view",
      "type": "function"
    },
    {
      "inputs": [
        {
          "internalType": "address",
          "name": "spender",
          "type": "address"
        },
        {
          "internalType": "uint256",
          "name": "subtractedValue",
          "type": "uint256"
        }
      ],
      "name": "decreaseAllowance",
      "outputs": [
        {
          "internalType": "bool",
          "name": "",
          "type": "bool"
        }
      ],
      "stateMutability": "nonpayable",
      "type": "function"
    },
    {
      "inputs": [
        {
          "internalType": "address",
          "name": "spender",
          "type": "address"
        },
        {
          "internalType": "uint256",
          "name": "addedValue",
          "type": "uint256"
        }
      ],
      "name": "increaseAllowance",
      "outputs": [
        {
          "internalType": "bool",
          "name": "",
          "type": "bool"
        }
      ],
      "stateMutability": "nonpayable",
      "type": "function"
    },
    {
      "inputs": [
        {
          "internalType": "address",
          "name": "account",
          "type": "address"
        },
        {
          "internalType": "uint256",
          "name": "amount",
          "type": "uint256"
        }
      ],
      "name": "mint",
      "outputs": [],
      "stateMutability": "nonpayable",
      "type": "function"
    },
    {
      "inputs": [
        {
          "internalType": "bytes[]",
          "name": "data",
          "type": "bytes[]"
        }
      ],
      "name": "multicall",
      "outputs": [
        {
          "internalType": "bytes[]",
          "name": "results",
          "type": "bytes[]"
        }
      ],
      "stateMutability": "nonpayable",
      "type": "function"
    },
    {
      "inputs": [],
      "name": "name",
      "outputs": [
        {
          "internalType": "string",
          "name": "",
          "type": "string"
        }
      ],
      "stateMutability": "view",
      "type": "function"
    },
    {
      "inputs": [],
      "name": "symbol",
      "outputs": [
        {
          "internalType": "string",
          "name": "",
          "type": "string"
        }
      ],
      "stateMutability": "view",
      "type": "function"
    },
    {
      "inputs": [],
      "name": "totalSupply",
      "outputs": [
        {
          "internalType": "uint256",
          "name": "",
          "type": "uint256"
        }
      ],
      "stateMutability": "view",
      "type": "function"
    },
    {
      "inputs": [
        {
          "internalType": "address",
          "name": "recipient",
          "type": "address"
        },
        {
          "internalType": "uint256",
          "name": "amount",
          "type": "uint256"
        }
      ],
      "name": "transfer",
      "outputs": [
        {
          "internalType": "bool",
          "name": "",
          "type": "bool"
        }
      ],
      "stateMutability": "nonpayable",
      "type": "function"
    },
    {
      "inputs": [
        {
          "internalType": "address",
          "name": "sender",
          "type": "address"
        },
        {
          "internalType": "address",
          "name": "recipient",
          "type": "address"
        },
        {
          "internalType": "uint256",
          "name": "amount",
          "type": "uint256"
        }
      ],
      "name": "transferFrom",
      "outputs": [
        {
          "internalType": "bool",
          "name": "",
          "type": "bool"
        }
      ],
      "stateMutability": "nonpayable",
      "type": "function"
    },
    {
      "inputs": [
        {
          "internalType": "address",
          "name": "from",
          "type": "address"
        },
        {
          "internalType": "address",
          "name": "to",
          "type": "address"
        },
        {
          "internalType": "uint256",
          "name": "value",
          "type": "uint256"
        }
      ],
      "name": "transferInternal",
      "outputs": [],
      "stateMutability": "nonpayable",
      "type": "function"
    }
  ],
  "bytecode": "0x608060405260405162002bf138038062002bf183398181016040528101906200002991906200093d565b6200003a816200004160201b60201c565b5062000bc7565b600060019054906101000a900460ff168062000068575060008054906101000a900460ff16155b620000aa576040517f08c379a0000000000000000000000000000000000000000000000000000000008152600401620000a190620009c8565b60405180910390fd5b60008060019054906101000a900460ff161590508015620000fb576001600060016101000a81548160ff02191690831515021790555060016000806101000a81548160ff0219169083151502179055505b6200010b6200024c60201b60201c565b620001876040518060400160405280600e81526020017f4d756c746963616c6c546f6b656e0000000000000000000000000000000000008152506040518060400160405280600381526020017f42435400000000000000000000000000000000000000000000000000000000008152506200032b60201b60201c565b620002056040518060400160405280600e81526020017f4d756c746963616c6c546f6b656e0000000000000000000000000000000000008152506040518060400160405280600381526020017f424354000000000000000000000000000000000000000000000000000000000081525033856200043e60201b60201c565b620002156200053360201b60201c565b62000226826200061260201b60201c565b8015620002485760008060016101000a81548160ff0219169083151502179055505b5050565b600060019054906101000a900460ff168062000273575060008054906101000a900460ff16155b620002b5576040517f08c379a0000000000000000000000000000000000000000000000000000000008152600401620002ac90620009c8565b60405180910390fd5b60008060019054906101000a900460ff16159050801562000306576001600060016101000a81548160ff02191690831515021790555060016000806101000a81548160ff0219169083151502179055505b8015620003285760008060016101000a81548160ff0219169083151502179055505b50565b600060019054906101000a900460ff168062000352575060008054906101000a900460ff16155b62000394576040517f08c379a00000000000000000000000000000000000000000000000000000000081526004016200038b90620009c8565b60405180910390fd5b60008060019054906101000a900460ff161590508015620003e5576001600060016101000a81548160ff02191690831515021790555060016000806101000a81548160ff0219169083151502179055505b8260369080519060200190620003fd92919062000876565b5081603790805190602001906200041692919062000876565b508015620004395760008060016101000a81548160ff0219169083151502179055505b505050565b600060019054906101000a900460ff168062000465575060008054906101000a900460ff16155b620004a7576040517f08c379a00000000000000000000000000000000000000000000000000000000081526004016200049e90620009c8565b60405180910390fd5b60008060019054906101000a900460ff161590508015620004f8576001600060016101000a81548160ff02191690831515021790555060016000806101000a81548160ff0219169083151502179055505b6200050a8383620006f260201b60201c565b80156200052c5760008060016101000a81548160ff0219169083151502179055505b5050505050565b600060019054906101000a900460ff16806200055a575060008054906101000a900460ff16155b6200059c576040517f08c379a00000000000000000000000000000000000000000000000000000000081526004016200059390620009c8565b60405180910390fd5b60008060019054906101000a900460ff161590508015620005ed576001600060016101000a81548160ff02191690831515021790555060016000806101000a81548160ff0219169083151502179055505b80156200060f5760008060016101000a81548160ff0219169083151502179055505b50565b600060019054906101000a900460ff168062000639575060008054906101000a900460ff16155b6200067b576040517f08c379a00000000000000000000000000000000000000000000000000000000081526004016200067290620009c8565b60405180910390fd5b60008060019054906101000a900460ff161590508015620006cc576001600060016101000a81548160ff02191690831515021790555060016000806101000a81548160ff0219169083151502179055505b8015620006ee5760008060016101000a81548160ff0219169083151502179055505b5050565b600073ffffffffffffffffffffffffffffffffffffffff168273ffffffffffffffffffffffffffffffffffffffff16141562000765576040517f08c379a00000000000000000000000000000000000000000000000000000000081526004016200075c90620009ea565b60405180910390fd5b62000779600083836200086c60201b60201c565b80603560008282546200078d919062000a3a565b9250508190555080603360008473ffffffffffffffffffffffffffffffffffffffff1673ffffffffffffffffffffffffffffffffffffffff1681526020019081526020016000206000828254620007e5919062000a3a565b925050819055508173ffffffffffffffffffffffffffffffffffffffff16600073ffffffffffffffffffffffffffffffffffffffff167fddf252ad1be2c89b69c2b068fc378daa952ba7f163c4a11628f55a4df523b3ef836040516200084c919062000a0c565b60405180910390a362000868600083836200087160201b60201c565b5050565b505050565b505050565b828054620008849062000aa1565b90600052602060002090601f016020900481019282620008a85760008555620008f4565b82601f10620008c357805160ff1916838001178555620008f4565b82800160010185558215620008f4579182015b82811115620008f3578251825591602001919060010190620008d6565b5b50905062000903919062000907565b5090565b5b808211156200092257600081600090555060010162000908565b5090565b600081519050620009378162000bad565b92915050565b6000602082840312156200095057600080fd5b6000620009608482850162000926565b91505092915050565b600062000978602e8362000a29565b9150620009858262000b35565b604082019050919050565b60006200099f601f8362000a29565b9150620009ac8262000b84565b602082019050919050565b620009c28162000a97565b82525050565b60006020820190508181036000830152620009e38162000969565b9050919050565b6000602082019050818103600083015262000a058162000990565b9050919050565b600060208201905062000a236000830184620009b7565b92915050565b600082825260208201905092915050565b600062000a478262000a97565b915062000a548362000a97565b9250827fffffffffffffffffffffffffffffffffffffffffffffffffffffffffffffffff0382111562000a8c5762000a8b62000ad7565b5b828201905092915050565b6000819050919050565b6000600282049050600182168062000aba57607f821691505b6020821081141562000ad15762000ad062000b06565b5b50919050565b7f4e487b7100000000000000000000000000000000000000000000000000000000600052601160045260246000fd5b7f4e487b7100000000000000000000000000000000000000000000000000000000600052602260045260246000fd5b7f496e697469616c697a61626c653a20636f6e747261637420697320616c72656160008201527f647920696e697469616c697a6564000000000000000000000000000000000000602082015250565b7f45524332303a206d696e7420746f20746865207a65726f206164647265737300600082015250565b62000bb88162000a97565b811462000bc457600080fd5b50565b61201a8062000bd76000396000f3fe608060405234801561001057600080fd5b50600436106101005760003560e01c806356189cb411610097578063a457c2d711610066578063a457c2d7146102ad578063a9059cbb146102dd578063ac9650d81461030d578063dd62ed3e1461033d57610100565b806356189cb41461022757806370a082311461024357806395d89b41146102735780639dc29fac1461029157610100565b806323b872dd116100d357806323b872dd1461018d578063313ce567146101bd57806339509351146101db57806340c10f191461020b57610100565b806306fdde0314610105578063095ea7b31461012357806318160ddd14610153578063222f5be014610171575b600080fd5b61010d61036d565b60405161011a91906117c9565b60405180910390f35b61013d6004803603810190610138919061141a565b6103ff565b60405161014a91906117ae565b60405180910390f35b61015b61041d565b604051610168919061194b565b60405180910390f35b61018b600480360381019061018691906113cb565b610427565b005b6101a760048036038101906101a291906113cb565b610437565b6040516101b491906117ae565b60405180910390f35b6101c561052f565b6040516101d29190611966565b60405180910390f35b6101f560048036038101906101f0919061141a565b610538565b60405161020291906117ae565b60405180910390f35b6102256004803603810190610220919061141a565b6105e4565b005b610241600480360381019061023c91906113cb565b6105f2565b005b61025d60048036038101906102589190611366565b610602565b60405161026a919061194b565b60405180910390f35b61027b61064b565b60405161028891906117c9565b60405180910390f35b6102ab60048036038101906102a6919061141a565b6106dd565b005b6102c760048036038101906102c2919061141a565b6106eb565b6040516102d491906117ae565b60405180910390f35b6102f760048036038101906102f2919061141a565b6107d6565b60405161030491906117ae565b60405180910390f35b61032760048036038101906103229190611456565b6107f4565b604051610334919061178c565b60405180910390f35b6103576004803603810190610352919061138f565b610972565b604051610364919061194b565b60405180910390f35b60606036805461037c90611b66565b80601f01602080910402602001604051908101604052809291908181526020018280546103a890611b66565b80156103f55780601f106103ca576101008083540402835291602001916103f5565b820191906000526020600020905b8154815290600101906020018083116103d857829003601f168201915b5050505050905090565b600061041361040c6109f9565b8484610a01565b6001905092915050565b6000603554905090565b610432838383610bcc565b505050565b6000610444848484610bcc565b6000603460008673ffffffffffffffffffffffffffffffffffffffff1673ffffffffffffffffffffffffffffffffffffffff168152602001908152602001600020600061048f6109f9565b73ffffffffffffffffffffffffffffffffffffffff1673ffffffffffffffffffffffffffffffffffffffff1681526020019081526020016000205490508281101561050f576040517f08c379a00000000000000000000000000000000000000000000000000000000081526004016105069061186b565b60405180910390fd5b6105238561051b6109f9565b858403610a01565b60019150509392505050565b60006012905090565b60006105da6105456109f9565b8484603460006105536109f9565b73ffffffffffffffffffffffffffffffffffffffff1673ffffffffffffffffffffffffffffffffffffffff16815260200190815260200160002060008873ffffffffffffffffffffffffffffffffffffffff1673ffffffffffffffffffffffffffffffffffffffff168152602001908152602001600020546105d59190611a54565b610a01565b6001905092915050565b6105ee8282610e50565b5050565b6105fd838383610a01565b505050565b6000603360008373ffffffffffffffffffffffffffffffffffffffff1673ffffffffffffffffffffffffffffffffffffffff168152602001908152602001600020549050919050565b60606037805461065a90611b66565b80601f016020809104026020016040519081016040528092919081815260200182805461068690611b66565b80156106d35780601f106106a8576101008083540402835291602001916106d3565b820191906000526020600020905b8154815290600101906020018083116106b657829003601f168201915b5050505050905090565b6106e78282610fb1565b5050565b600080603460006106fa6109f9565b73ffffffffffffffffffffffffffffffffffffffff1673ffffffffffffffffffffffffffffffffffffffff16815260200190815260200160002060008573ffffffffffffffffffffffffffffffffffffffff1673ffffffffffffffffffffffffffffffffffffffff168152602001908152602001600020549050828110156107b7576040517f08c379a00000000000000000000000000000000000000000000000000000000081526004016107ae9061190b565b60405180910390fd5b6107cb6107c26109f9565b85858403610a01565b600191505092915050565b60006107ea6107e36109f9565b8484610bcc565b6001905092915050565b60608282905067ffffffffffffffff811115610839577f4e487b7100000000000000000000000000000000000000000000000000000000600052604160045260246000fd5b60405190808252806020026020018201604052801561086c57816020015b60608152602001906001900390816108575790505b50905060005b8383905081101561096b57610914308585848181106108ba577f4e487b7100000000000000000000000000000000000000000000000000000000600052603260045260246000fd5b90506020028101906108cc9190611981565b8080601f016020809104026020016040519081016040528093929190818152602001838380828437600081840152601f19601f8201169050808301925050505050505061118a565b82828151811061094d577f4e487b7100000000000000000000000000000000000000000000000000000000600052603260045260246000fd5b6020026020010181905250808061096390611b98565b915050610872565b5092915050565b6000603460008473ffffffffffffffffffffffffffffffffffffffff1673ffffffffffffffffffffffffffffffffffffffff16815260200190815260200160002060008373ffffffffffffffffffffffffffffffffffffffff1673ffffffffffffffffffffffffffffffffffffffff16815260200190815260200160002054905092915050565b600033905090565b600073ffffffffffffffffffffffffffffffffffffffff168373ffffffffffffffffffffffffffffffffffffffff161415610a71576040517f08c379a0000000000000000000000000000000000000000000000000000000008152600401610a68906118eb565b60405180910390fd5b600073ffffffffffffffffffffffffffffffffffffffff168273ffffffffffffffffffffffffffffffffffffffff161415610ae1576040517f08c379a0000000000000000000000000000000000000000000000000000000008152600401610ad89061182b565b60405180910390fd5b80603460008573ffffffffffffffffffffffffffffffffffffffff1673ffffffffffffffffffffffffffffffffffffffff16815260200190815260200160002060008473ffffffffffffffffffffffffffffffffffffffff1673ffffffffffffffffffffffffffffffffffffffff168152602001908152602001600020819055508173ffffffffffffffffffffffffffffffffffffffff168373ffffffffffffffffffffffffffffffffffffffff167f8c5be1e5ebec7d5bd14f71427d1e84f3dd0314c0f7b2291e5b200ac8c7c3b92583604051610bbf919061194b565b60405180910390a3505050565b600073ffffffffffffffffffffffffffffffffffffffff168373ffffffffffffffffffffffffffffffffffffffff161415610c3c576040517f08c379a0000000000000000000000000000000000000000000000000000000008152600401610c33906118cb565b60405180910390fd5b600073ffffffffffffffffffffffffffffffffffffffff168273ffffffffffffffffffffffffffffffffffffffff161415610cac576040517f08c379a0000000000000000000000000000000000000000000000000000000008152600401610ca3906117eb565b60405180910390fd5b610cb783838361126e565b6000603360008573ffffffffffffffffffffffffffffffffffffffff1673ffffffffffffffffffffffffffffffffffffffff16815260200190815260200160002054905081811015610d3e576040517f08c379a0000000000000000000000000000000000000000000000000000000008152600401610d359061184b565b60405180910390fd5b818103603360008673ffffffffffffffffffffffffffffffffffffffff1673ffffffffffffffffffffffffffffffffffffffff1681526020019081526020016000208190555081603360008573ffffffffffffffffffffffffffffffffffffffff1673ffffffffffffffffffffffffffffffffffffffff1681526020019081526020016000206000828254610dd39190611a54565b925050819055508273ffffffffffffffffffffffffffffffffffffffff168473ffffffffffffffffffffffffffffffffffffffff167fddf252ad1be2c89b69c2b068fc378daa952ba7f163c4a11628f55a4df523b3ef84604051610e37919061194b565b60405180910390a3610e4a848484611273565b50505050565b600073ffffffffffffffffffffffffffffffffffffffff168273ffffffffffffffffffffffffffffffffffffffff161415610ec0576040517f08c379a0000000000000000000000000000000000000000000000000000000008152600401610eb79061192b565b60405180910390fd5b610ecc6000838361126e565b8060356000828254610ede9190611a54565b9250508190555080603360008473ffffffffffffffffffffffffffffffffffffffff1673ffffffffffffffffffffffffffffffffffffffff1681526020019081526020016000206000828254610f349190611a54565b925050819055508173ffffffffffffffffffffffffffffffffffffffff16600073ffffffffffffffffffffffffffffffffffffffff167fddf252ad1be2c89b69c2b068fc378daa952ba7f163c4a11628f55a4df523b3ef83604051610f99919061194b565b60405180910390a3610fad60008383611273565b5050565b600073ffffffffffffffffffffffffffffffffffffffff168273ffffffffffffffffffffffffffffffffffffffff161415611021576040517f08c379a00000000000000000000000000000000000000000000000000000000081526004016110189061188b565b60405180910390fd5b61102d8260008361126e565b6000603360008473ffffffffffffffffffffffffffffffffffffffff1673ffffffffffffffffffffffffffffffffffffffff168152602001908152602001600020549050818110156110b4576040517f08c379a00000000000000000000000000000000000000000000000000000000081526004016110ab9061180b565b60405180910390fd5b818103603360008573ffffffffffffffffffffffffffffffffffffffff1673ffffffffffffffffffffffffffffffffffffffff16815260200190815260200160002081905550816035600082825461110c9190611aaa565b92505081905550600073ffffffffffffffffffffffffffffffffffffffff168373ffffffffffffffffffffffffffffffffffffffff167fddf252ad1be2c89b69c2b068fc378daa952ba7f163c4a11628f55a4df523b3ef84604051611171919061194b565b60405180910390a361118583600084611273565b505050565b606061119583611278565b6111d4576040517f08c379a00000000000000000000000000000000000000000000000000000000081526004016111cb906118ab565b60405180910390fd5b6000808473ffffffffffffffffffffffffffffffffffffffff16846040516111fc9190611775565b600060405180830381855af49150503d8060008114611237576040519150601f19603f3d011682016040523d82523d6000602084013e61123c565b606091505b50915091506112648282604051806060016040528060278152602001611fbe6027913961128b565b9250505092915050565b505050565b505050565b600080823b905060008111915050919050565b6060831561129b578290506112eb565b6000835111156112ae5782518084602001fd5b816040517f08c379a00000000000000000000000000000000000000000000000000000000081526004016112e291906117c9565b60405180910390fd5b9392505050565b60008135905061130181611f8f565b92915050565b60008083601f84011261131957600080fd5b8235905067ffffffffffffffff81111561133257600080fd5b60208301915083602082028301111561134a57600080fd5b9250929050565b60008135905061136081611fa6565b92915050565b60006020828403121561137857600080fd5b6000611386848285016112f2565b91505092915050565b600080604083850312156113a257600080fd5b60006113b0858286016112f2565b92505060206113c1858286016112f2565b9150509250929050565b6000806000606084860312156113e057600080fd5b60006113ee868287016112f2565b93505060206113ff868287016112f2565b925050604061141086828701611351565b9150509250925092565b6000806040838503121561142d57600080fd5b600061143b858286016112f2565b925050602061144c85828601611351565b9150509250929050565b6000806020838503121561146957600080fd5b600083013567ffffffffffffffff81111561148357600080fd5b61148f85828601611307565b92509250509250929050565b60006114a78383611533565b905092915050565b60006114ba826119e8565b6114c48185611a16565b9350836020820285016114d6856119d8565b8060005b8581101561151257848403895281516114f3858261149b565b94506114fe83611a09565b925060208a019950506001810190506114da565b50829750879550505050505092915050565b61152d81611af0565b82525050565b600061153e826119f3565b6115488185611a27565b9350611558818560208601611b33565b61156181611c3f565b840191505092915050565b6000611577826119f3565b6115818185611a38565b9350611591818560208601611b33565b80840191505092915050565b60006115a8826119fe565b6115b28185611a43565b93506115c2818560208601611b33565b6115cb81611c3f565b840191505092915050565b60006115e3602383611a43565b91506115ee82611c50565b604082019050919050565b6000611606602283611a43565b915061161182611c9f565b604082019050919050565b6000611629602283611a43565b915061163482611cee565b604082019050919050565b600061164c602683611a43565b915061165782611d3d565b604082019050919050565b600061166f602883611a43565b915061167a82611d8c565b604082019050919050565b6000611692602183611a43565b915061169d82611ddb565b604082019050919050565b60006116b5602683611a43565b91506116c082611e2a565b604082019050919050565b60006116d8602583611a43565b91506116e382611e79565b604082019050919050565b60006116fb602483611a43565b915061170682611ec8565b604082019050919050565b600061171e602583611a43565b915061172982611f17565b604082019050919050565b6000611741601f83611a43565b915061174c82611f66565b602082019050919050565b61176081611b1c565b82525050565b61176f81611b26565b82525050565b6000611781828461156c565b915081905092915050565b600060208201905081810360008301526117a681846114af565b905092915050565b60006020820190506117c36000830184611524565b92915050565b600060208201905081810360008301526117e3818461159d565b905092915050565b60006020820190508181036000830152611804816115d6565b9050919050565b60006020820190508181036000830152611824816115f9565b9050919050565b600060208201905081810360008301526118448161161c565b9050919050565b600060208201905081810360008301526118648161163f565b9050919050565b6000602082019050818103600083015261188481611662565b9050919050565b600060208201905081810360008301526118a481611685565b9050919050565b600060208201905081810360008301526118c4816116a8565b9050919050565b600060208201905081810360008301526118e4816116cb565b9050919050565b60006020820190508181036000830152611904816116ee565b9050919050565b6000602082019050818103600083015261192481611711565b9050919050565b6000602082019050818103600083015261194481611734565b9050919050565b60006020820190506119606000830184611757565b92915050565b600060208201905061197b6000830184611766565b92915050565b6000808335600160200384360303811261199a57600080fd5b80840192508235915067ffffffffffffffff8211156119b857600080fd5b6020830192506001820236038313156119d057600080fd5b509250929050565b6000819050602082019050919050565b600081519050919050565b600081519050919050565b600081519050919050565b6000602082019050919050565b600082825260208201905092915050565b600082825260208201905092915050565b600081905092915050565b600082825260208201905092915050565b6000611a5f82611b1c565b9150611a6a83611b1c565b9250827fffffffffffffffffffffffffffffffffffffffffffffffffffffffffffffffff03821115611a9f57611a9e611be1565b5b828201905092915050565b6000611ab582611b1c565b9150611ac083611b1c565b925082821015611ad357611ad2611be1565b5b828203905092915050565b6000611ae982611afc565b9050919050565b60008115159050919050565b600073ffffffffffffffffffffffffffffffffffffffff82169050919050565b6000819050919050565b600060ff82169050919050565b60005b83811015611b51578082015181840152602081019050611b36565b83811115611b60576000848401525b50505050565b60006002820490506001821680611b7e57607f821691505b60208210811415611b9257611b91611c10565b5b50919050565b6000611ba382611b1c565b91507fffffffffffffffffffffffffffffffffffffffffffffffffffffffffffffffff821415611bd657611bd5611be1565b5b600182019050919050565b7f4e487b7100000000000000000000000000000000000000000000000000000000600052601160045260246000fd5b7f4e487b7100000000000000000000000000000000000000000000000000000000600052602260045260246000fd5b6000601f19601f8301169050919050565b7f45524332303a207472616e7366657220746f20746865207a65726f206164647260008201527f6573730000000000000000000000000000000000000000000000000000000000602082015250565b7f45524332303a206275726e20616d6f756e7420657863656564732062616c616e60008201527f6365000000000000000000000000000000000000000000000000000000000000602082015250565b7f45524332303a20617070726f766520746f20746865207a65726f20616464726560008201527f7373000000000000000000000000000000000000000000000000000000000000602082015250565b7f45524332303a207472616e7366657220616d6f756e742065786365656473206260008201527f616c616e63650000000000000000000000000000000000000000000000000000602082015250565b7f45524332303a207472616e7366657220616d6f756e742065786365656473206160008201527f6c6c6f77616e6365000000000000000000000000000000000000000000000000602082015250565b7f45524332303a206275726e2066726f6d20746865207a65726f2061646472657360008201527f7300000000000000000000000000000000000000000000000000000000000000602082015250565b7f416464726573733a2064656c65676174652063616c6c20746f206e6f6e2d636f60008201527f6e74726163740000000000000000000000000000000000000000000000000000602082015250565b7f45524332303a207472616e736665722066726f6d20746865207a65726f20616460008201527f6472657373000000000000000000000000000000000000000000000000000000602082015250565b7f45524332303a20617070726f76652066726f6d20746865207a65726f2061646460008201527f7265737300000000000000000000000000000000000000000000000000000000602082015250565b7f45524332303a2064656372656173656420616c6c6f77616e63652062656c6f7760008201527f207a65726f000000000000000000000000000000000000000000000000000000602082015250565b7f45524332303a206d696e7420746f20746865207a65726f206164647265737300600082015250565b611f9881611ade565b8114611fa357600080fd5b50565b611faf81611b1c565b8114611fba57600080fd5b5056fe416464726573733a206c6f772d6c6576656c2064656c65676174652063616c6c206661696c6564a2646970667358221220023fa33566dd2719e3489eef544c6d125f3447308264f42869efdd5e293b2e0064736f6c63430008040033",
  "linkReferences": {},
  "deployedLinkReferences": {}
}