{
  "_format": "hh-sol-artifact-1",
  "contractName": "SafeERC20WrapperUpgradeableWithInit",
  "sourceName": "contracts/src/OpenZeppelin/upgradeable/mocks/WithInit.sol",
  "abi": [
    {
      "inputs": [
        {
          "internalType": "contract IERC20Upgradeable",
          "name": "token",
          "type": "address"
        }
      ],
      "stateMutability": "payable",
      "type": "constructor"
    },
    {
      "inputs": [],
      "name": "allowance",
      "outputs": [
        {
          "internalType": "uint256",
          "name": "",
          "type": "uint256"
        }
      ],
      "stateMutability": "view",
      "type": "function"
    },
    {
      "inputs": [
        {
          "internalType": "uint256",
          "name": "amount",
          "type": "uint256"
        }
      ],
      "name": "approve",
      "outputs": [],
      "stateMutability": "nonpayable",
      "type": "function"
    },
    {
      "inputs": [
        {
          "internalType": "uint256",
          "name": "amount",
          "type": "uint256"
        }
      ],
      "name": "decreaseAllowance",
      "outputs": [],
      "stateMutability": "nonpayable",
      "type": "function"
    },
    {
      "inputs": [
        {
          "internalType": "uint256",
          "name": "amount",
          "type": "uint256"
        }
      ],
      "name": "increaseAllowance",
      "outputs": [],
      "stateMutability": "nonpayable",
      "type": "function"
    },
    {
      "inputs": [
        {
          "internalType": "uint256",
          "name": "allowance_",
          "type": "uint256"
        }
      ],
      "name": "setAllowance",
      "outputs": [],
      "stateMutability": "nonpayable",
      "type": "function"
    },
    {
      "inputs": [],
      "name": "transfer",
      "outputs": [],
      "stateMutability": "nonpayable",
      "type": "function"
    },
    {
      "inputs": [],
      "name": "transferFrom",
      "outputs": [],
      "stateMutability": "nonpayable",
      "type": "function"
    }
  ],
  "bytecode": "0x60806040526040516200167538038062001675833981810160405281019062000029919062000359565b6200003a816200004160201b60201c565b5062000490565b600060019054906101000a900460ff168062000068575060008054906101000a900460ff16155b620000aa576040517f08c379a0000000000000000000000000000000000000000000000000000000008152600401620000a190620003ac565b60405180910390fd5b60008060019054906101000a900460ff161590508015620000fb576001600060016101000a81548160ff02191690831515021790555060016000806101000a81548160ff0219169083151502179055505b6200010b6200014260201b60201c565b6200011c826200022160201b60201c565b80156200013e5760008060016101000a81548160ff0219169083151502179055505b5050565b600060019054906101000a900460ff168062000169575060008054906101000a900460ff16155b620001ab576040517f08c379a0000000000000000000000000000000000000000000000000000000008152600401620001a290620003ac565b60405180910390fd5b60008060019054906101000a900460ff161590508015620001fc576001600060016101000a81548160ff02191690831515021790555060016000806101000a81548160ff0219169083151502179055505b80156200021e5760008060016101000a81548160ff0219169083151502179055505b50565b600060019054906101000a900460ff168062000248575060008054906101000a900460ff16155b6200028a576040517f08c379a00000000000000000000000000000000000000000000000000000000081526004016200028190620003ac565b60405180910390fd5b60008060019054906101000a900460ff161590508015620002db576001600060016101000a81548160ff02191690831515021790555060016000806101000a81548160ff0219169083151502179055505b81603360006101000a81548173ffffffffffffffffffffffffffffffffffffffff021916908373ffffffffffffffffffffffffffffffffffffffff16021790555080156200033e5760008060016101000a81548160ff0219169083151502179055505b5050565b600081519050620003538162000476565b92915050565b6000602082840312156200036c57600080fd5b60006200037c8482850162000342565b91505092915050565b600062000394602e83620003ce565b9150620003a18262000427565b604082019050919050565b60006020820190508181036000830152620003c78162000385565b9050919050565b600082825260208201905092915050565b6000620003ec8262000407565b9050919050565b60006200040082620003df565b9050919050565b600073ffffffffffffffffffffffffffffffffffffffff82169050919050565b7f496e697469616c697a61626c653a20636f6e747261637420697320616c72656160008201527f647920696e697469616c697a6564000000000000000000000000000000000000602082015250565b6200048181620003f3565b81146200048d57600080fd5b50565b6111d580620004a06000396000f3fe608060405234801561001057600080fd5b506004361061007d5760003560e01c8063811c34d31161005b578063811c34d3146100d65780638a4068dd146100e0578063b759f954146100ea578063de242ff4146101065761007d565b806310bad4cf1461008257806311e330b21461009e5780633ba93f26146100ba575b600080fd5b61009c60048036038101906100979190610bc3565b610124565b005b6100b860048036038101906100b39190610bc3565b610175565b005b6100d460048036038101906100cf9190610bc3565b6101c6565b005b6100de610256565b005b6100e86102a9565b005b61010460048036038101906100ff9190610bc3565b6102f9565b005b61010e61034a565b60405161011b9190610eae565b60405180910390f35b610172600082603360009054906101000a900473ffffffffffffffffffffffffffffffffffffffff1673ffffffffffffffffffffffffffffffffffffffff166103ff9092919063ffffffff16565b50565b6101c3600082603360009054906101000a900473ffffffffffffffffffffffffffffffffffffffff1673ffffffffffffffffffffffffffffffffffffffff166105609092919063ffffffff16565b50565b603360009054906101000a900473ffffffffffffffffffffffffffffffffffffffff1673ffffffffffffffffffffffffffffffffffffffff16633ba93f26826040518263ffffffff1660e01b81526004016102219190610eae565b600060405180830381600087803b15801561023b57600080fd5b505af115801561024f573d6000803e3d6000fd5b5050505050565b6102a76000806000603360009054906101000a900473ffffffffffffffffffffffffffffffffffffffff1673ffffffffffffffffffffffffffffffffffffffff16610681909392919063ffffffff16565b565b6102f7600080603360009054906101000a900473ffffffffffffffffffffffffffffffffffffffff1673ffffffffffffffffffffffffffffffffffffffff1661070a9092919063ffffffff16565b565b610347600082603360009054906101000a900473ffffffffffffffffffffffffffffffffffffffff1673ffffffffffffffffffffffffffffffffffffffff166107909092919063ffffffff16565b50565b6000603360009054906101000a900473ffffffffffffffffffffffffffffffffffffffff1673ffffffffffffffffffffffffffffffffffffffff1663dd62ed3e6000806040518363ffffffff1660e01b81526004016103aa929190610d63565b60206040518083038186803b1580156103c257600080fd5b505afa1580156103d6573d6000803e3d6000fd5b505050506040513d601f19601f820116820180604052508101906103fa9190610bec565b905090565b60008373ffffffffffffffffffffffffffffffffffffffff1663dd62ed3e30856040518363ffffffff1660e01b815260040161043c929190610d63565b60206040518083038186803b15801561045457600080fd5b505afa158015610468573d6000803e3d6000fd5b505050506040513d601f19601f8201168201806040525081019061048c9190610bec565b9050818110156104d1576040517f08c379a00000000000000000000000000000000000000000000000000000000081526004016104c890610e0e565b60405180910390fd5b600082820390506105598563095ea7b360e01b86846040516024016104f7929190610dc3565b604051602081830303815290604052907bffffffffffffffffffffffffffffffffffffffffffffffffffffffff19166020820180517bffffffffffffffffffffffffffffffffffffffffffffffffffffffff83818316178352505050506108ee565b5050505050565b6000818473ffffffffffffffffffffffffffffffffffffffff1663dd62ed3e30866040518363ffffffff1660e01b815260040161059e929190610d63565b60206040518083038186803b1580156105b657600080fd5b505afa1580156105ca573d6000803e3d6000fd5b505050506040513d601f19601f820116820180604052508101906105ee9190610bec565b6105f89190610efb565b905061067b8463095ea7b360e01b8584604051602401610619929190610dc3565b604051602081830303815290604052907bffffffffffffffffffffffffffffffffffffffffffffffffffffffff19166020820180517bffffffffffffffffffffffffffffffffffffffffffffffffffffffff83818316178352505050506108ee565b50505050565b610704846323b872dd60e01b8585856040516024016106a293929190610d8c565b604051602081830303815290604052907bffffffffffffffffffffffffffffffffffffffffffffffffffffffff19166020820180517bffffffffffffffffffffffffffffffffffffffffffffffffffffffff83818316178352505050506108ee565b50505050565b61078b8363a9059cbb60e01b8484604051602401610729929190610dc3565b604051602081830303815290604052907bffffffffffffffffffffffffffffffffffffffffffffffffffffffff19166020820180517bffffffffffffffffffffffffffffffffffffffffffffffffffffffff83818316178352505050506108ee565b505050565b6000811480610829575060008373ffffffffffffffffffffffffffffffffffffffff1663dd62ed3e30856040518363ffffffff1660e01b81526004016107d7929190610d63565b60206040518083038186803b1580156107ef57600080fd5b505afa158015610803573d6000803e3d6000fd5b505050506040513d601f19601f820116820180604052508101906108279190610bec565b145b610868576040517f08c379a000000000000000000000000000000000000000000000000000000000815260040161085f90610e8e565b60405180910390fd5b6108e98363095ea7b360e01b8484604051602401610887929190610dc3565b604051602081830303815290604052907bffffffffffffffffffffffffffffffffffffffffffffffffffffffff19166020820180517bffffffffffffffffffffffffffffffffffffffffffffffffffffffff83818316178352505050506108ee565b505050565b6000610950826040518060400160405280602081526020017f5361666545524332303a206c6f772d6c6576656c2063616c6c206661696c65648152508573ffffffffffffffffffffffffffffffffffffffff166109b59092919063ffffffff16565b90506000815111156109b057808060200190518101906109709190610b9a565b6109af576040517f08c379a00000000000000000000000000000000000000000000000000000000081526004016109a690610e6e565b60405180910390fd5b5b505050565b60606109c484846000856109cd565b90509392505050565b606082471015610a12576040517f08c379a0000000000000000000000000000000000000000000000000000000008152600401610a0990610e2e565b60405180910390fd5b610a1b85610ae1565b610a5a576040517f08c379a0000000000000000000000000000000000000000000000000000000008152600401610a5190610e4e565b60405180910390fd5b6000808673ffffffffffffffffffffffffffffffffffffffff168587604051610a839190610d4c565b60006040518083038185875af1925050503d8060008114610ac0576040519150601f19603f3d011682016040523d82523d6000602084013e610ac5565b606091505b5091509150610ad5828286610af4565b92505050949350505050565b600080823b905060008111915050919050565b60608315610b0457829050610b54565b600083511115610b175782518084602001fd5b816040517f08c379a0000000000000000000000000000000000000000000000000000000008152600401610b4b9190610dec565b60405180910390fd5b9392505050565b600081519050610b6a81611171565b92915050565b600081359050610b7f81611188565b92915050565b600081519050610b9481611188565b92915050565b600060208284031215610bac57600080fd5b6000610bba84828501610b5b565b91505092915050565b600060208284031215610bd557600080fd5b6000610be384828501610b70565b91505092915050565b600060208284031215610bfe57600080fd5b6000610c0c84828501610b85565b91505092915050565b610c1e81610f51565b82525050565b6000610c2f82610ec9565b610c398185610edf565b9350610c49818560208601610f99565b80840191505092915050565b6000610c6082610ed4565b610c6a8185610eea565b9350610c7a818560208601610f99565b610c8381610ffb565b840191505092915050565b6000610c9b602983610eea565b9150610ca68261100c565b604082019050919050565b6000610cbe602683610eea565b9150610cc98261105b565b604082019050919050565b6000610ce1601d83610eea565b9150610cec826110aa565b602082019050919050565b6000610d04602a83610eea565b9150610d0f826110d3565b604082019050919050565b6000610d27603683610eea565b9150610d3282611122565b604082019050919050565b610d4681610f8f565b82525050565b6000610d588284610c24565b915081905092915050565b6000604082019050610d786000830185610c15565b610d856020830184610c15565b9392505050565b6000606082019050610da16000830186610c15565b610dae6020830185610c15565b610dbb6040830184610d3d565b949350505050565b6000604082019050610dd86000830185610c15565b610de56020830184610d3d565b9392505050565b60006020820190508181036000830152610e068184610c55565b905092915050565b60006020820190508181036000830152610e2781610c8e565b9050919050565b60006020820190508181036000830152610e4781610cb1565b9050919050565b60006020820190508181036000830152610e6781610cd4565b9050919050565b60006020820190508181036000830152610e8781610cf7565b9050919050565b60006020820190508181036000830152610ea781610d1a565b9050919050565b6000602082019050610ec36000830184610d3d565b92915050565b600081519050919050565b600081519050919050565b600081905092915050565b600082825260208201905092915050565b6000610f0682610f8f565b9150610f1183610f8f565b9250827fffffffffffffffffffffffffffffffffffffffffffffffffffffffffffffffff03821115610f4657610f45610fcc565b5b828201905092915050565b6000610f5c82610f6f565b9050919050565b60008115159050919050565b600073ffffffffffffffffffffffffffffffffffffffff82169050919050565b6000819050919050565b60005b83811015610fb7578082015181840152602081019050610f9c565b83811115610fc6576000848401525b50505050565b7f4e487b7100000000000000000000000000000000000000000000000000000000600052601160045260246000fd5b6000601f19601f8301169050919050565b7f5361666545524332303a2064656372656173656420616c6c6f77616e6365206260008201527f656c6f77207a65726f0000000000000000000000000000000000000000000000602082015250565b7f416464726573733a20696e73756666696369656e742062616c616e636520666f60008201527f722063616c6c0000000000000000000000000000000000000000000000000000602082015250565b7f416464726573733a2063616c6c20746f206e6f6e2d636f6e7472616374000000600082015250565b7f5361666545524332303a204552433230206f7065726174696f6e20646964206e60008201527f6f74207375636365656400000000000000000000000000000000000000000000602082015250565b7f5361666545524332303a20617070726f76652066726f6d206e6f6e2d7a65726f60008201527f20746f206e6f6e2d7a65726f20616c6c6f77616e636500000000000000000000602082015250565b61117a81610f63565b811461118557600080fd5b50565b61119181610f8f565b811461119c57600080fd5b5056fea2646970667358221220117e5229ed0decb522bc4d571810b499a27c49345b2841dc15aee9a76c8f860964736f6c63430008040033",
  "linkReferences": {},
  "deployedLinkReferences": {}
}