{
  "_format": "hh-sol-artifact-1",
  "contractName": "SignatureCheckerMockUpgradeableWithInit",
  "sourceName": "contracts/src/OpenZeppelin/upgradeable/mocks/WithInit.sol",
  "abi": [
    {
      "inputs": [],
      "stateMutability": "payable",
      "type": "constructor"
    },
    {
      "inputs": [
        {
          "internalType": "address",
          "name": "signer",
          "type": "address"
        },
        {
          "internalType": "bytes32",
          "name": "hash",
          "type": "bytes32"
        },
        {
          "internalType": "bytes",
          "name": "signature",
          "type": "bytes"
        }
      ],
      "name": "isValidSignatureNow",
      "outputs": [
        {
          "internalType": "bool",
          "name": "",
          "type": "bool"
        }
      ],
      "stateMutability": "view",
      "type": "function"
    }
  ],
  "bytecode": "0x608060405261001261001760201b60201c565b61027a565b600060019054906101000a900460ff168061003d575060008054906101000a900460ff16155b61007c576040517f08c379a0000000000000000000000000000000000000000000000000000000008152600401610073906101fa565b60405180910390fd5b60008060019054906101000a900460ff1615905080156100cc576001600060016101000a81548160ff02191690831515021790555060016000806101000a81548160ff0219169083151502179055505b6100da6100fe60201b60201c565b80156100fb5760008060016101000a81548160ff0219169083151502179055505b50565b600060019054906101000a900460ff1680610124575060008054906101000a900460ff16155b610163576040517f08c379a000000000000000000000000000000000000000000000000000000000815260040161015a906101fa565b60405180910390fd5b60008060019054906101000a900460ff1615905080156101b3576001600060016101000a81548160ff02191690831515021790555060016000806101000a81548160ff0219169083151502179055505b80156101d45760008060016101000a81548160ff0219169083151502179055505b50565b60006101e4602e8361021a565b91506101ef8261022b565b604082019050919050565b60006020820190508181036000830152610213816101d7565b9050919050565b600082825260208201905092915050565b7f496e697469616c697a61626c653a20636f6e747261637420697320616c72656160008201527f647920696e697469616c697a6564000000000000000000000000000000000000602082015250565b610abb806200028a6000396000f3fe608060405234801561001057600080fd5b506004361061002b5760003560e01c80636ccea65214610030575b600080fd5b61004a60048036038101906100459190610507565b610060565b6040516100579190610689565b60405180910390f35b600061008d83838673ffffffffffffffffffffffffffffffffffffffff166100969092919063ffffffff16565b90509392505050565b60006100a1846101c9565b15610187578373ffffffffffffffffffffffffffffffffffffffff16631626ba7e84846040518363ffffffff1660e01b81526004016100e19291906106a4565b60206040518083038186803b1580156100f957600080fd5b505afa92505050801561012a57506040513d601f19601f82011682018060405250810190610127919061056e565b60015b61013757600090506101c2565b631626ba7e60e01b7bffffffffffffffffffffffffffffffffffffffffffffffffffffffff1916817bffffffffffffffffffffffffffffffffffffffffffffffffffffffff1916149150506101c2565b8373ffffffffffffffffffffffffffffffffffffffff166101a884846101dc565b73ffffffffffffffffffffffffffffffffffffffff161490505b9392505050565b600080823b905060008111915050919050565b600060418251141561021b5760008060006020850151925060408501519150606085015160001a90506102118682858561028b565b9350505050610285565b60408251141561024a576000806020840151915060408401519050610241858383610416565b92505050610285565b6040517f08c379a000000000000000000000000000000000000000000000000000000000815260040161027c90610739565b60405180910390fd5b92915050565b60007f7fffffffffffffffffffffffffffffff5d576e7357a4501ddfe92f46681b20a08260001c11156102f3576040517f08c379a00000000000000000000000000000000000000000000000000000000081526004016102ea90610759565b60405180910390fd5b601b8460ff1614806103085750601c8460ff16145b610347576040517f08c379a000000000000000000000000000000000000000000000000000000000815260040161033e90610779565b60405180910390fd5b60006001868686866040516000815260200160405260405161036c94939291906106d4565b6020604051602081039080840390855afa15801561038e573d6000803e3d6000fd5b505050602060405103519050600073ffffffffffffffffffffffffffffffffffffffff168173ffffffffffffffffffffffffffffffffffffffff16141561040a576040517f08c379a000000000000000000000000000000000000000000000000000000000815260040161040190610719565b60405180910390fd5b80915050949350505050565b60008060007f7fffffffffffffffffffffffffffffffffffffffffffffffffffffffffffffff84169150601b8460ff1c0190506104558682878561028b565b925050509392505050565b600061047361046e846107be565b610799565b90508281526020810184848401111561048b57600080fd5b61049684828561089d565b509392505050565b6000813590506104ad81610a40565b92915050565b6000813590506104c281610a57565b92915050565b6000815190506104d781610a6e565b92915050565b600082601f8301126104ee57600080fd5b81356104fe848260208601610460565b91505092915050565b60008060006060848603121561051c57600080fd5b600061052a8682870161049e565b935050602061053b868287016104b3565b925050604084013567ffffffffffffffff81111561055857600080fd5b610564868287016104dd565b9150509250925092565b60006020828403121561058057600080fd5b600061058e848285016104c8565b91505092915050565b6105a08161082e565b82525050565b6105af8161083a565b82525050565b60006105c0826107ef565b6105ca81856107fa565b93506105da8185602086016108ac565b6105e38161093f565b840191505092915050565b60006105fb60188361080b565b915061060682610950565b602082019050919050565b600061061e601f8361080b565b915061062982610979565b602082019050919050565b600061064160228361080b565b915061064c826109a2565b604082019050919050565b600061066460228361080b565b915061066f826109f1565b604082019050919050565b61068381610890565b82525050565b600060208201905061069e6000830184610597565b92915050565b60006040820190506106b960008301856105a6565b81810360208301526106cb81846105b5565b90509392505050565b60006080820190506106e960008301876105a6565b6106f6602083018661067a565b61070360408301856105a6565b61071060608301846105a6565b95945050505050565b60006020820190508181036000830152610732816105ee565b9050919050565b6000602082019050818103600083015261075281610611565b9050919050565b6000602082019050818103600083015261077281610634565b9050919050565b6000602082019050818103600083015261079281610657565b9050919050565b60006107a36107b4565b90506107af82826108df565b919050565b6000604051905090565b600067ffffffffffffffff8211156107d9576107d8610910565b5b6107e28261093f565b9050602081019050919050565b600081519050919050565b600082825260208201905092915050565b600082825260208201905092915050565b600061082782610870565b9050919050565b60008115159050919050565b6000819050919050565b60007fffffffff0000000000000000000000000000000000000000000000000000000082169050919050565b600073ffffffffffffffffffffffffffffffffffffffff82169050919050565b600060ff82169050919050565b82818337600083830152505050565b60005b838110156108ca5780820151818401526020810190506108af565b838111156108d9576000848401525b50505050565b6108e88261093f565b810181811067ffffffffffffffff8211171561090757610906610910565b5b80604052505050565b7f4e487b7100000000000000000000000000000000000000000000000000000000600052604160045260246000fd5b6000601f19601f8301169050919050565b7f45434453413a20696e76616c6964207369676e61747572650000000000000000600082015250565b7f45434453413a20696e76616c6964207369676e6174757265206c656e67746800600082015250565b7f45434453413a20696e76616c6964207369676e6174757265202773272076616c60008201527f7565000000000000000000000000000000000000000000000000000000000000602082015250565b7f45434453413a20696e76616c6964207369676e6174757265202776272076616c60008201527f7565000000000000000000000000000000000000000000000000000000000000602082015250565b610a498161081c565b8114610a5457600080fd5b50565b610a608161083a565b8114610a6b57600080fd5b50565b610a7781610844565b8114610a8257600080fd5b5056fea264697066735822122002cc42ec9d46a2e9ba8f26e90aa4bb1e10b011fd53a7d09b2e9ea91bb1675e8d64736f6c63430008040033",
  "linkReferences": {},
  "deployedLinkReferences": {}
}