{
  "_format": "hh-sol-artifact-1",
  "contractName": "TimelockControllerUpgradeableWithInit",
  "sourceName": "contracts/src/OpenZeppelin/upgradeable/mocks/WithInit.sol",
  "abi": [
    {
      "inputs": [
        {
          "internalType": "uint256",
          "name": "minDelay",
          "type": "uint256"
        },
        {
          "internalType": "address[]",
          "name": "proposers",
          "type": "address[]"
        },
        {
          "internalType": "address[]",
          "name": "executors",
          "type": "address[]"
        }
      ],
      "stateMutability": "payable",
      "type": "constructor"
    },
    {
      "anonymous": false,
      "inputs": [
        {
          "indexed": true,
          "internalType": "bytes32",
          "name": "id",
          "type": "bytes32"
        },
        {
          "indexed": true,
          "internalType": "uint256",
          "name": "index",
          "type": "uint256"
        },
        {
          "indexed": false,
          "internalType": "address",
          "name": "target",
          "type": "address"
        },
        {
          "indexed": false,
          "internalType": "uint256",
          "name": "value",
          "type": "uint256"
        },
        {
          "indexed": false,
          "internalType": "bytes",
          "name": "data",
          "type": "bytes"
        }
      ],
      "name": "CallExecuted",
      "type": "event"
    },
    {
      "anonymous": false,
      "inputs": [
        {
          "indexed": true,
          "internalType": "bytes32",
          "name": "id",
          "type": "bytes32"
        },
        {
          "indexed": true,
          "internalType": "uint256",
          "name": "index",
          "type": "uint256"
        },
        {
          "indexed": false,
          "internalType": "address",
          "name": "target",
          "type": "address"
        },
        {
          "indexed": false,
          "internalType": "uint256",
          "name": "value",
          "type": "uint256"
        },
        {
          "indexed": false,
          "internalType": "bytes",
          "name": "data",
          "type": "bytes"
        },
        {
          "indexed": false,
          "internalType": "bytes32",
          "name": "predecessor",
          "type": "bytes32"
        },
        {
          "indexed": false,
          "internalType": "uint256",
          "name": "delay",
          "type": "uint256"
        }
      ],
      "name": "CallScheduled",
      "type": "event"
    },
    {
      "anonymous": false,
      "inputs": [
        {
          "indexed": true,
          "internalType": "bytes32",
          "name": "id",
          "type": "bytes32"
        }
      ],
      "name": "Cancelled",
      "type": "event"
    },
    {
      "anonymous": false,
      "inputs": [
        {
          "indexed": false,
          "internalType": "uint256",
          "name": "oldDuration",
          "type": "uint256"
        },
        {
          "indexed": false,
          "internalType": "uint256",
          "name": "newDuration",
          "type": "uint256"
        }
      ],
      "name": "MinDelayChange",
      "type": "event"
    },
    {
      "anonymous": false,
      "inputs": [
        {
          "indexed": true,
          "internalType": "bytes32",
          "name": "role",
          "type": "bytes32"
        },
        {
          "indexed": true,
          "internalType": "bytes32",
          "name": "previousAdminRole",
          "type": "bytes32"
        },
        {
          "indexed": true,
          "internalType": "bytes32",
          "name": "newAdminRole",
          "type": "bytes32"
        }
      ],
      "name": "RoleAdminChanged",
      "type": "event"
    },
    {
      "anonymous": false,
      "inputs": [
        {
          "indexed": true,
          "internalType": "bytes32",
          "name": "role",
          "type": "bytes32"
        },
        {
          "indexed": true,
          "internalType": "address",
          "name": "account",
          "type": "address"
        },
        {
          "indexed": true,
          "internalType": "address",
          "name": "sender",
          "type": "address"
        }
      ],
      "name": "RoleGranted",
      "type": "event"
    },
    {
      "anonymous": false,
      "inputs": [
        {
          "indexed": true,
          "internalType": "bytes32",
          "name": "role",
          "type": "bytes32"
        },
        {
          "indexed": true,
          "internalType": "address",
          "name": "account",
          "type": "address"
        },
        {
          "indexed": true,
          "internalType": "address",
          "name": "sender",
          "type": "address"
        }
      ],
      "name": "RoleRevoked",
      "type": "event"
    },
    {
      "inputs": [],
      "name": "DEFAULT_ADMIN_ROLE",
      "outputs": [
        {
          "internalType": "bytes32",
          "name": "",
          "type": "bytes32"
        }
      ],
      "stateMutability": "view",
      "type": "function"
    },
    {
      "inputs": [],
      "name": "EXECUTOR_ROLE",
      "outputs": [
        {
          "internalType": "bytes32",
          "name": "",
          "type": "bytes32"
        }
      ],
      "stateMutability": "view",
      "type": "function"
    },
    {
      "inputs": [],
      "name": "PROPOSER_ROLE",
      "outputs": [
        {
          "internalType": "bytes32",
          "name": "",
          "type": "bytes32"
        }
      ],
      "stateMutability": "view",
      "type": "function"
    },
    {
      "inputs": [],
      "name": "TIMELOCK_ADMIN_ROLE",
      "outputs": [
        {
          "internalType": "bytes32",
          "name": "",
          "type": "bytes32"
        }
      ],
      "stateMutability": "view",
      "type": "function"
    },
    {
      "inputs": [
        {
          "internalType": "bytes32",
          "name": "id",
          "type": "bytes32"
        }
      ],
      "name": "cancel",
      "outputs": [],
      "stateMutability": "nonpayable",
      "type": "function"
    },
    {
      "inputs": [
        {
          "internalType": "address",
          "name": "target",
          "type": "address"
        },
        {
          "internalType": "uint256",
          "name": "value",
          "type": "uint256"
        },
        {
          "internalType": "bytes",
          "name": "data",
          "type": "bytes"
        },
        {
          "internalType": "bytes32",
          "name": "predecessor",
          "type": "bytes32"
        },
        {
          "internalType": "bytes32",
          "name": "salt",
          "type": "bytes32"
        }
      ],
      "name": "execute",
      "outputs": [],
      "stateMutability": "payable",
      "type": "function"
    },
    {
      "inputs": [
        {
          "internalType": "address[]",
          "name": "targets",
          "type": "address[]"
        },
        {
          "internalType": "uint256[]",
          "name": "values",
          "type": "uint256[]"
        },
        {
          "internalType": "bytes[]",
          "name": "datas",
          "type": "bytes[]"
        },
        {
          "internalType": "bytes32",
          "name": "predecessor",
          "type": "bytes32"
        },
        {
          "internalType": "bytes32",
          "name": "salt",
          "type": "bytes32"
        }
      ],
      "name": "executeBatch",
      "outputs": [],
      "stateMutability": "payable",
      "type": "function"
    },
    {
      "inputs": [],
      "name": "getMinDelay",
      "outputs": [
        {
          "internalType": "uint256",
          "name": "duration",
          "type": "uint256"
        }
      ],
      "stateMutability": "view",
      "type": "function"
    },
    {
      "inputs": [
        {
          "internalType": "bytes32",
          "name": "role",
          "type": "bytes32"
        }
      ],
      "name": "getRoleAdmin",
      "outputs": [
        {
          "internalType": "bytes32",
          "name": "",
          "type": "bytes32"
        }
      ],
      "stateMutability": "view",
      "type": "function"
    },
    {
      "inputs": [
        {
          "internalType": "bytes32",
          "name": "id",
          "type": "bytes32"
        }
      ],
      "name": "getTimestamp",
      "outputs": [
        {
          "internalType": "uint256",
          "name": "timestamp",
          "type": "uint256"
        }
      ],
      "stateMutability": "view",
      "type": "function"
    },
    {
      "inputs": [
        {
          "internalType": "bytes32",
          "name": "role",
          "type": "bytes32"
        },
        {
          "internalType": "address",
          "name": "account",
          "type": "address"
        }
      ],
      "name": "grantRole",
      "outputs": [],
      "stateMutability": "nonpayable",
      "type": "function"
    },
    {
      "inputs": [
        {
          "internalType": "bytes32",
          "name": "role",
          "type": "bytes32"
        },
        {
          "internalType": "address",
          "name": "account",
          "type": "address"
        }
      ],
      "name": "hasRole",
      "outputs": [
        {
          "internalType": "bool",
          "name": "",
          "type": "bool"
        }
      ],
      "stateMutability": "view",
      "type": "function"
    },
    {
      "inputs": [
        {
          "internalType": "address",
          "name": "target",
          "type": "address"
        },
        {
          "internalType": "uint256",
          "name": "value",
          "type": "uint256"
        },
        {
          "internalType": "bytes",
          "name": "data",
          "type": "bytes"
        },
        {
          "internalType": "bytes32",
          "name": "predecessor",
          "type": "bytes32"
        },
        {
          "internalType": "bytes32",
          "name": "salt",
          "type": "bytes32"
        }
      ],
      "name": "hashOperation",
      "outputs": [
        {
          "internalType": "bytes32",
          "name": "hash",
          "type": "bytes32"
        }
      ],
      "stateMutability": "pure",
      "type": "function"
    },
    {
      "inputs": [
        {
          "internalType": "address[]",
          "name": "targets",
          "type": "address[]"
        },
        {
          "internalType": "uint256[]",
          "name": "values",
          "type": "uint256[]"
        },
        {
          "internalType": "bytes[]",
          "name": "datas",
          "type": "bytes[]"
        },
        {
          "internalType": "bytes32",
          "name": "predecessor",
          "type": "bytes32"
        },
        {
          "internalType": "bytes32",
          "name": "salt",
          "type": "bytes32"
        }
      ],
      "name": "hashOperationBatch",
      "outputs": [
        {
          "internalType": "bytes32",
          "name": "hash",
          "type": "bytes32"
        }
      ],
      "stateMutability": "pure",
      "type": "function"
    },
    {
      "inputs": [
        {
          "internalType": "bytes32",
          "name": "id",
          "type": "bytes32"
        }
      ],
      "name": "isOperation",
      "outputs": [
        {
          "internalType": "bool",
          "name": "pending",
          "type": "bool"
        }
      ],
      "stateMutability": "view",
      "type": "function"
    },
    {
      "inputs": [
        {
          "internalType": "bytes32",
          "name": "id",
          "type": "bytes32"
        }
      ],
      "name": "isOperationDone",
      "outputs": [
        {
          "internalType": "bool",
          "name": "done",
          "type": "bool"
        }
      ],
      "stateMutability": "view",
      "type": "function"
    },
    {
      "inputs": [
        {
          "internalType": "bytes32",
          "name": "id",
          "type": "bytes32"
        }
      ],
      "name": "isOperationPending",
      "outputs": [
        {
          "internalType": "bool",
          "name": "pending",
          "type": "bool"
        }
      ],
      "stateMutability": "view",
      "type": "function"
    },
    {
      "inputs": [
        {
          "internalType": "bytes32",
          "name": "id",
          "type": "bytes32"
        }
      ],
      "name": "isOperationReady",
      "outputs": [
        {
          "internalType": "bool",
          "name": "ready",
          "type": "bool"
        }
      ],
      "stateMutability": "view",
      "type": "function"
    },
    {
      "inputs": [
        {
          "internalType": "bytes32",
          "name": "role",
          "type": "bytes32"
        },
        {
          "internalType": "address",
          "name": "account",
          "type": "address"
        }
      ],
      "name": "renounceRole",
      "outputs": [],
      "stateMutability": "nonpayable",
      "type": "function"
    },
    {
      "inputs": [
        {
          "internalType": "bytes32",
          "name": "role",
          "type": "bytes32"
        },
        {
          "internalType": "address",
          "name": "account",
          "type": "address"
        }
      ],
      "name": "revokeRole",
      "outputs": [],
      "stateMutability": "nonpayable",
      "type": "function"
    },
    {
      "inputs": [
        {
          "internalType": "address",
          "name": "target",
          "type": "address"
        },
        {
          "internalType": "uint256",
          "name": "value",
          "type": "uint256"
        },
        {
          "internalType": "bytes",
          "name": "data",
          "type": "bytes"
        },
        {
          "internalType": "bytes32",
          "name": "predecessor",
          "type": "bytes32"
        },
        {
          "internalType": "bytes32",
          "name": "salt",
          "type": "bytes32"
        },
        {
          "internalType": "uint256",
          "name": "delay",
          "type": "uint256"
        }
      ],
      "name": "schedule",
      "outputs": [],
      "stateMutability": "nonpayable",
      "type": "function"
    },
    {
      "inputs": [
        {
          "internalType": "address[]",
          "name": "targets",
          "type": "address[]"
        },
        {
          "internalType": "uint256[]",
          "name": "values",
          "type": "uint256[]"
        },
        {
          "internalType": "bytes[]",
          "name": "datas",
          "type": "bytes[]"
        },
        {
          "internalType": "bytes32",
          "name": "predecessor",
          "type": "bytes32"
        },
        {
          "internalType": "bytes32",
          "name": "salt",
          "type": "bytes32"
        },
        {
          "internalType": "uint256",
          "name": "delay",
          "type": "uint256"
        }
      ],
      "name": "scheduleBatch",
      "outputs": [],
      "stateMutability": "nonpayable",
      "type": "function"
    },
    {
      "inputs": [
        {
          "internalType": "bytes4",
          "name": "interfaceId",
          "type": "bytes4"
        }
      ],
      "name": "supportsInterface",
      "outputs": [
        {
          "internalType": "bool",
          "name": "",
          "type": "bool"
        }
      ],
      "stateMutability": "view",
      "type": "function"
    },
    {
      "inputs": [
        {
          "internalType": "uint256",
          "name": "newDelay",
          "type": "uint256"
        }
      ],
      "name": "updateDelay",
      "outputs": [],
      "stateMutability": "nonpayable",
      "type": "function"
    },
    {
      "stateMutability": "payable",
      "type": "receive"
    }
  ],
  "bytecode": "0x608060405260405162003a8438038062003a84833981810160405281019062000029919062000a6e565b6200003c8383836200004560201b60201c565b50505062000dbf565b600060019054906101000a900460ff16806200006c575060008054906101000a900460ff16155b620000ae576040517f08c379a0000000000000000000000000000000000000000000000000000000008152600401620000a59062000b6c565b60405180910390fd5b60008060019054906101000a900460ff161590508015620000ff576001600060016101000a81548160ff02191690831515021790555060016000806101000a81548160ff0219169083151502179055505b6200010f6200016a60201b60201c565b6200011f6200024960201b60201c565b6200012f6200032860201b60201c565b620001428484846200040760201b60201c565b8015620001645760008060016101000a81548160ff0219169083151502179055505b50505050565b600060019054906101000a900460ff168062000191575060008054906101000a900460ff16155b620001d3576040517f08c379a0000000000000000000000000000000000000000000000000000000008152600401620001ca9062000b6c565b60405180910390fd5b60008060019054906101000a900460ff16159050801562000224576001600060016101000a81548160ff02191690831515021790555060016000806101000a81548160ff0219169083151502179055505b8015620002465760008060016101000a81548160ff0219169083151502179055505b50565b600060019054906101000a900460ff168062000270575060008054906101000a900460ff16155b620002b2576040517f08c379a0000000000000000000000000000000000000000000000000000000008152600401620002a99062000b6c565b60405180910390fd5b60008060019054906101000a900460ff16159050801562000303576001600060016101000a81548160ff02191690831515021790555060016000806101000a81548160ff0219169083151502179055505b8015620003255760008060016101000a81548160ff0219169083151502179055505b50565b600060019054906101000a900460ff16806200034f575060008054906101000a900460ff16155b62000391576040517f08c379a0000000000000000000000000000000000000000000000000000000008152600401620003889062000b6c565b60405180910390fd5b60008060019054906101000a900460ff161590508015620003e2576001600060016101000a81548160ff02191690831515021790555060016000806101000a81548160ff0219169083151502179055505b8015620004045760008060016101000a81548160ff0219169083151502179055505b50565b600060019054906101000a900460ff16806200042e575060008054906101000a900460ff16155b62000470576040517f08c379a0000000000000000000000000000000000000000000000000000000008152600401620004679062000b6c565b60405180910390fd5b60008060019054906101000a900460ff161590508015620004c1576001600060016101000a81548160ff02191690831515021790555060016000806101000a81548160ff0219169083151502179055505b620004f37f5f58e3a2316349923ce3780f8d587db2d72378aed66a8261c916544fa6846ca5806200079f60201b60201c565b620005457fb09aa5aeb3702cfd50b6b62bc4532604938f21248a27a1d5ca736082b6819cc17f5f58e3a2316349923ce3780f8d587db2d72378aed66a8261c916544fa6846ca56200079f60201b60201c565b620005977fd8aa0f3194971a2a116679f7c2090f6939c8d4e01a2a8d7e41d55e5351469e637f5f58e3a2316349923ce3780f8d587db2d72378aed66a8261c916544fa6846ca56200079f60201b60201c565b620005d87f5f58e3a2316349923ce3780f8d587db2d72378aed66a8261c916544fa6846ca5620005cc6200080360201b60201c565b6200080b60201b60201c565b6200060a7f5f58e3a2316349923ce3780f8d587db2d72378aed66a8261c916544fa6846ca5306200080b60201b60201c565b60005b83518110156200069e576200068a7fb09aa5aeb3702cfd50b6b62bc4532604938f21248a27a1d5ca736082b6819cc185838151811062000676577f4e487b7100000000000000000000000000000000000000000000000000000000600052603260045260246000fd5b60200260200101516200080b60201b60201c565b80620006969062000c7f565b90506200060d565b5060005b825181101562000733576200071f7fd8aa0f3194971a2a116679f7c2090f6939c8d4e01a2a8d7e41d55e5351469e638483815181106200070b577f4e487b7100000000000000000000000000000000000000000000000000000000600052603260045260246000fd5b60200260200101516200080b60201b60201c565b806200072b9062000c7f565b9050620006a2565b50836098819055507f11c24f4ead16507c69ac467fbd5e4eed5fb5c699626d2cc6d66421df253886d56000856040516200076f92919062000b3f565b60405180910390a18015620007995760008060016101000a81548160ff0219169083151502179055505b50505050565b6000620007b2836200082160201b60201c565b90508160656000858152602001908152602001600020600101819055508181847fbd79b86ffe0ab8e8776151514217cd7cacd52c909f66475c3af44e129f0b00ff60405160405180910390a4505050565b600033905090565b6200081d82826200084160201b60201c565b5050565b600060656000838152602001908152602001600020600101549050919050565b6200085382826200093360201b60201c565b6200092f5760016065600084815260200190815260200160002060000160008373ffffffffffffffffffffffffffffffffffffffff1673ffffffffffffffffffffffffffffffffffffffff16815260200190815260200160002060006101000a81548160ff021916908315150217905550620008d46200080360201b60201c565b73ffffffffffffffffffffffffffffffffffffffff168173ffffffffffffffffffffffffffffffffffffffff16837f2f8788117e7eff1d82e926ec794901d17c78024a50270940304540a733656f0d60405160405180910390a45b5050565b60006065600084815260200190815260200160002060000160008373ffffffffffffffffffffffffffffffffffffffff1673ffffffffffffffffffffffffffffffffffffffff16815260200190815260200160002060009054906101000a900460ff16905092915050565b6000620009b5620009af8462000bb7565b62000b8e565b90508083825260208201905082856020860282011115620009d557600080fd5b60005b8581101562000a095781620009ee888262000a13565b845260208401935060208301925050600181019050620009d8565b5050509392505050565b60008151905062000a248162000d8b565b92915050565b600082601f83011262000a3c57600080fd5b815162000a4e8482602086016200099e565b91505092915050565b60008151905062000a688162000da5565b92915050565b60008060006060848603121562000a8457600080fd5b600062000a948682870162000a57565b935050602084015167ffffffffffffffff81111562000ab257600080fd5b62000ac08682870162000a2a565b925050604084015167ffffffffffffffff81111562000ade57600080fd5b62000aec8682870162000a2a565b9150509250925092565b62000b018162000c35565b82525050565b600062000b16602e8362000be6565b915062000b238262000d3c565b604082019050919050565b62000b398162000c2b565b82525050565b600060408201905062000b56600083018562000af6565b62000b65602083018462000b2e565b9392505050565b6000602082019050818103600083015262000b878162000b07565b9050919050565b600062000b9a62000bad565b905062000ba8828262000c49565b919050565b6000604051905090565b600067ffffffffffffffff82111562000bd55762000bd462000cfc565b5b602082029050602081019050919050565b600082825260208201905092915050565b600062000c048262000c0b565b9050919050565b600073ffffffffffffffffffffffffffffffffffffffff82169050919050565b6000819050919050565b600062000c428262000c2b565b9050919050565b62000c548262000d2b565b810181811067ffffffffffffffff8211171562000c765762000c7562000cfc565b5b80604052505050565b600062000c8c8262000c2b565b91507fffffffffffffffffffffffffffffffffffffffffffffffffffffffffffffffff82141562000cc25762000cc162000ccd565b5b600182019050919050565b7f4e487b7100000000000000000000000000000000000000000000000000000000600052601160045260246000fd5b7f4e487b7100000000000000000000000000000000000000000000000000000000600052604160045260246000fd5b6000601f19601f8301169050919050565b7f496e697469616c697a61626c653a20636f6e747261637420697320616c72656160008201527f647920696e697469616c697a6564000000000000000000000000000000000000602082015250565b62000d968162000bf7565b811462000da257600080fd5b50565b62000db08162000c2b565b811462000dbc57600080fd5b50565b612cb58062000dcf6000396000f3fe60806040526004361061014f5760003560e01c806364d62353116100b6578063b1c5f4271161006f578063b1c5f427146104d8578063c4d252f514610515578063d45c44351461053e578063d547741f1461057b578063e38335e5146105a4578063f27a0c92146105c057610156565b806364d62353146103b65780638065657f146103df5780638f2a0bb01461041c5780638f61f4f51461044557806391d1485414610470578063a217fddf146104ad57610156565b8063248a9ca311610108578063248a9ca3146102705780632ab0f529146102ad5780632f2ff15d146102ea57806331d507501461031357806336568abe14610350578063584b153e1461037957610156565b806301d5062a1461015b57806301ffc9a71461018457806307bd0265146101c15780630d3cf6fc146101ec578063134008d31461021757806313bc9f201461023357610156565b3661015657005b600080fd5b34801561016757600080fd5b50610182600480360381019061017d9190611a75565b6105eb565b005b34801561019057600080fd5b506101ab60048036038101906101a69190611d2c565b610688565b6040516101b89190612368565b60405180910390f35b3480156101cd57600080fd5b506101d6610702565b6040516101e39190612383565b60405180910390f35b3480156101f857600080fd5b50610201610726565b60405161020e9190612383565b60405180910390f35b610231600480360381019061022c91906119e3565b61074a565b005b34801561023f57600080fd5b5061025a60048036038101906102559190611cc7565b6107c9565b6040516102679190612368565b60405180910390f35b34801561027c57600080fd5b5061029760048036038101906102929190611cc7565b6107ef565b6040516102a49190612383565b60405180910390f35b3480156102b957600080fd5b506102d460048036038101906102cf9190611cc7565b61080f565b6040516102e19190612368565b60405180910390f35b3480156102f657600080fd5b50610311600480360381019061030c9190611cf0565b610824565b005b34801561031f57600080fd5b5061033a60048036038101906103359190611cc7565b61084d565b6040516103479190612368565b60405180910390f35b34801561035c57600080fd5b5061037760048036038101906103729190611cf0565b610861565b005b34801561038557600080fd5b506103a0600480360381019061039b9190611cc7565b6108e4565b6040516103ad9190612368565b60405180910390f35b3480156103c257600080fd5b506103dd60048036038101906103d89190611d55565b6108f9565b005b3480156103eb57600080fd5b50610406600480360381019061040191906119e3565b6109ac565b6040516104139190612383565b60405180910390f35b34801561042857600080fd5b50610443600480360381019061043e9190611be8565b6109eb565b005b34801561045157600080fd5b5061045a610c10565b6040516104679190612383565b60405180910390f35b34801561047c57600080fd5b5061049760048036038101906104929190611cf0565b610c34565b6040516104a49190612368565b60405180910390f35b3480156104b957600080fd5b506104c2610c9f565b6040516104cf9190612383565b60405180910390f35b3480156104e457600080fd5b506104ff60048036038101906104fa9190611b1c565b610ca6565b60405161050c9190612383565b60405180910390f35b34801561052157600080fd5b5061053c60048036038101906105379190611cc7565b610ceb565b005b34801561054a57600080fd5b5061056560048036038101906105609190611cc7565b610dad565b6040516105729190612500565b60405180910390f35b34801561058757600080fd5b506105a2600480360381019061059d9190611cf0565b610dca565b005b6105be60048036038101906105b99190611b1c565b610df3565b005b3480156105cc57600080fd5b506105d5610ffa565b6040516105e29190612500565b60405180910390f35b7fb09aa5aeb3702cfd50b6b62bc4532604938f21248a27a1d5ca736082b6819cc161061d81610618611004565b61100c565b600061062d8989898989896109ac565b905061063981846110a9565b6000817f4cf4410cc57040e44862ef0f45f3dd5a5e02db8eb8add648d4b0e236f1d07dca8b8b8b8b8b8a6040516106759695949392919061229e565b60405180910390a3505050505050505050565b60007f7965db0b000000000000000000000000000000000000000000000000000000007bffffffffffffffffffffffffffffffffffffffffffffffffffffffff1916827bffffffffffffffffffffffffffffffffffffffffffffffffffffffff191614806106fb57506106fa82611163565b5b9050919050565b7fd8aa0f3194971a2a116679f7c2090f6939c8d4e01a2a8d7e41d55e5351469e6381565b7f5f58e3a2316349923ce3780f8d587db2d72378aed66a8261c916544fa6846ca581565b7fd8aa0f3194971a2a116679f7c2090f6939c8d4e01a2a8d7e41d55e5351469e63610776816000610c34565b61078c5761078b81610786611004565b61100c565b5b600061079c8888888888886109ac565b90506107a7846111cd565b6107b68160008a8a8a8a611225565b6107bf8161131d565b5050505050505050565b6000806107d583610dad565b90506001811180156107e75750428111155b915050919050565b600060656000838152602001908152602001600020600101549050919050565b6000600161081c83610dad565b149050919050565b61082d826107ef565b61083e81610839611004565b61100c565b6108488383611381565b505050565b60008061085983610dad565b119050919050565b610869611004565b73ffffffffffffffffffffffffffffffffffffffff168173ffffffffffffffffffffffffffffffffffffffff16146108d6576040517f08c379a00000000000000000000000000000000000000000000000000000000081526004016108cd906124c0565b60405180910390fd5b6108e08282611462565b5050565b600060016108f183610dad565b119050919050565b3073ffffffffffffffffffffffffffffffffffffffff163373ffffffffffffffffffffffffffffffffffffffff1614610967576040517f08c379a000000000000000000000000000000000000000000000000000000000815260040161095e906124a0565b60405180910390fd5b7f11c24f4ead16507c69ac467fbd5e4eed5fb5c699626d2cc6d66421df253886d56098548260405161099a92919061251b565b60405180910390a18060988190555050565b60008686868686866040516020016109c996959493929190612242565b6040516020818303038152906040528051906020012090509695505050505050565b7fb09aa5aeb3702cfd50b6b62bc4532604938f21248a27a1d5ca736082b6819cc1610a1d81610a18611004565b61100c565b878790508a8a905014610a65576040517f08c379a0000000000000000000000000000000000000000000000000000000008152600401610a5c90612400565b60405180910390fd5b858590508a8a905014610aad576040517f08c379a0000000000000000000000000000000000000000000000000000000008152600401610aa490612400565b60405180910390fd5b6000610abf8b8b8b8b8b8b8b8b610ca6565b9050610acb81846110a9565b60005b8b8b9050811015610c025780827f4cf4410cc57040e44862ef0f45f3dd5a5e02db8eb8add648d4b0e236f1d07dca8e8e85818110610b35577f4e487b7100000000000000000000000000000000000000000000000000000000600052603260045260246000fd5b9050602002016020810190610b4a91906119ba565b8d8d86818110610b83577f4e487b7100000000000000000000000000000000000000000000000000000000600052603260045260246000fd5b905060200201358c8c87818110610bc3577f4e487b7100000000000000000000000000000000000000000000000000000000600052603260045260246000fd5b9050602002810190610bd59190612544565b8c8b604051610be99695949392919061229e565b60405180910390a380610bfb90612858565b9050610ace565b505050505050505050505050565b7fb09aa5aeb3702cfd50b6b62bc4532604938f21248a27a1d5ca736082b6819cc181565b60006065600084815260200190815260200160002060000160008373ffffffffffffffffffffffffffffffffffffffff1673ffffffffffffffffffffffffffffffffffffffff16815260200190815260200160002060009054906101000a900460ff16905092915050565b6000801b81565b60008888888888888888604051602001610cc79897969594939291906122fa565b60405160208183030381529060405280519060200120905098975050505050505050565b7fb09aa5aeb3702cfd50b6b62bc4532604938f21248a27a1d5ca736082b6819cc1610d1d81610d18611004565b61100c565b610d26826108e4565b610d65576040517f08c379a0000000000000000000000000000000000000000000000000000000008152600401610d5c90612480565b60405180910390fd5b6097600083815260200190815260200160002060009055817fbaa1eb22f2a492ba1a5fea61b8df4d27c6c8b5f3971e63bb58fa14ff72eedb7060405160405180910390a25050565b600060976000838152602001908152602001600020549050919050565b610dd3826107ef565b610de481610ddf611004565b61100c565b610dee8383611462565b505050565b7fd8aa0f3194971a2a116679f7c2090f6939c8d4e01a2a8d7e41d55e5351469e63610e1f816000610c34565b610e3557610e3481610e2f611004565b61100c565b5b868690508989905014610e7d576040517f08c379a0000000000000000000000000000000000000000000000000000000008152600401610e7490612400565b60405180910390fd5b848490508989905014610ec5576040517f08c379a0000000000000000000000000000000000000000000000000000000008152600401610ebc90612400565b60405180910390fd5b6000610ed78a8a8a8a8a8a8a8a610ca6565b9050610ee2846111cd565b60005b8a8a9050811015610fe457610fd382828d8d85818110610f2e577f4e487b7100000000000000000000000000000000000000000000000000000000600052603260045260246000fd5b9050602002016020810190610f4391906119ba565b8c8c86818110610f7c577f4e487b7100000000000000000000000000000000000000000000000000000000600052603260045260246000fd5b905060200201358b8b87818110610fbc577f4e487b7100000000000000000000000000000000000000000000000000000000600052603260045260246000fd5b9050602002810190610fce9190612544565b611225565b80610fdd90612858565b9050610ee5565b50610fee8161131d565b50505050505050505050565b6000609854905090565b600033905090565b6110168282610c34565b6110a55761103b8173ffffffffffffffffffffffffffffffffffffffff166014611544565b6110498360001c6020611544565b60405160200161105a9291906121c8565b6040516020818303038152906040526040517f08c379a000000000000000000000000000000000000000000000000000000000815260040161109c919061239e565b60405180910390fd5b5050565b6110b28261084d565b156110f2576040517f08c379a00000000000000000000000000000000000000000000000000000000081526004016110e990612440565b60405180910390fd5b6110fa610ffa565b81101561113c576040517f08c379a000000000000000000000000000000000000000000000000000000000815260040161113390612420565b60405180910390fd5b804261114891906126be565b60976000848152602001908152602001600020819055505050565b60007f01ffc9a7000000000000000000000000000000000000000000000000000000007bffffffffffffffffffffffffffffffffffffffffffffffffffffffff1916827bffffffffffffffffffffffffffffffffffffffffffffffffffffffff1916149050919050565b6000801b8114806111e357506111e28161080f565b5b611222576040517f08c379a0000000000000000000000000000000000000000000000000000000008152600401611219906123e0565b60405180910390fd5b50565b60008473ffffffffffffffffffffffffffffffffffffffff1684848460405161124f9291906121af565b60006040518083038185875af1925050503d806000811461128c576040519150601f19603f3d011682016040523d82523d6000602084013e611291565b606091505b50509050806112d5576040517f08c379a00000000000000000000000000000000000000000000000000000000081526004016112cc906124e0565b60405180910390fd5b85877fc2617efa69bab66782fa219543714338489c4e9e178271560a91b82c3f612b588787878760405161130c9493929190612202565b60405180910390a350505050505050565b611326816107c9565b611365576040517f08c379a000000000000000000000000000000000000000000000000000000000815260040161135c90612460565b60405180910390fd5b6001609760008381526020019081526020016000208190555050565b61138b8282610c34565b61145e5760016065600084815260200190815260200160002060000160008373ffffffffffffffffffffffffffffffffffffffff1673ffffffffffffffffffffffffffffffffffffffff16815260200190815260200160002060006101000a81548160ff021916908315150217905550611403611004565b73ffffffffffffffffffffffffffffffffffffffff168173ffffffffffffffffffffffffffffffffffffffff16837f2f8788117e7eff1d82e926ec794901d17c78024a50270940304540a733656f0d60405160405180910390a45b5050565b61146c8282610c34565b156115405760006065600084815260200190815260200160002060000160008373ffffffffffffffffffffffffffffffffffffffff1673ffffffffffffffffffffffffffffffffffffffff16815260200190815260200160002060006101000a81548160ff0219169083151502179055506114e5611004565b73ffffffffffffffffffffffffffffffffffffffff168173ffffffffffffffffffffffffffffffffffffffff16837ff6391f5c32d9c69d2a47ea670b442974b53935d1edc7fd64eb21e047a839171b60405160405180910390a45b5050565b6060600060028360026115579190612714565b61156191906126be565b67ffffffffffffffff8111156115a0577f4e487b7100000000000000000000000000000000000000000000000000000000600052604160045260246000fd5b6040519080825280601f01601f1916602001820160405280156115d25781602001600182028036833780820191505090505b5090507f300000000000000000000000000000000000000000000000000000000000000081600081518110611630577f4e487b7100000000000000000000000000000000000000000000000000000000600052603260045260246000fd5b60200101907effffffffffffffffffffffffffffffffffffffffffffffffffffffffffffff1916908160001a9053507f7800000000000000000000000000000000000000000000000000000000000000816001815181106116ba577f4e487b7100000000000000000000000000000000000000000000000000000000600052603260045260246000fd5b60200101907effffffffffffffffffffffffffffffffffffffffffffffffffffffffffffff1916908160001a905350600060018460026116fa9190612714565b61170491906126be565b90505b60018111156117f0577f3031323334353637383961626364656600000000000000000000000000000000600f86166010811061176c577f4e487b7100000000000000000000000000000000000000000000000000000000600052603260045260246000fd5b1a60f81b8282815181106117a9577f4e487b7100000000000000000000000000000000000000000000000000000000600052603260045260246000fd5b60200101907effffffffffffffffffffffffffffffffffffffffffffffffffffffffffffff1916908160001a905350600485901c9450806117e99061282e565b9050611707565b5060008414611834576040517f08c379a000000000000000000000000000000000000000000000000000000000815260040161182b906123c0565b60405180910390fd5b8091505092915050565b60008135905061184d81612c23565b92915050565b60008083601f84011261186557600080fd5b8235905067ffffffffffffffff81111561187e57600080fd5b60208301915083602082028301111561189657600080fd5b9250929050565b60008083601f8401126118af57600080fd5b8235905067ffffffffffffffff8111156118c857600080fd5b6020830191508360208202830111156118e057600080fd5b9250929050565b60008083601f8401126118f957600080fd5b8235905067ffffffffffffffff81111561191257600080fd5b60208301915083602082028301111561192a57600080fd5b9250929050565b60008135905061194081612c3a565b92915050565b60008135905061195581612c51565b92915050565b60008083601f84011261196d57600080fd5b8235905067ffffffffffffffff81111561198657600080fd5b60208301915083600182028301111561199e57600080fd5b9250929050565b6000813590506119b481612c68565b92915050565b6000602082840312156119cc57600080fd5b60006119da8482850161183e565b91505092915050565b60008060008060008060a087890312156119fc57600080fd5b6000611a0a89828a0161183e565b9650506020611a1b89828a016119a5565b955050604087013567ffffffffffffffff811115611a3857600080fd5b611a4489828a0161195b565b94509450506060611a5789828a01611931565b9250506080611a6889828a01611931565b9150509295509295509295565b600080600080600080600060c0888a031215611a9057600080fd5b6000611a9e8a828b0161183e565b9750506020611aaf8a828b016119a5565b965050604088013567ffffffffffffffff811115611acc57600080fd5b611ad88a828b0161195b565b95509550506060611aeb8a828b01611931565b9350506080611afc8a828b01611931565b92505060a0611b0d8a828b016119a5565b91505092959891949750929550565b60008060008060008060008060a0898b031215611b3857600080fd5b600089013567ffffffffffffffff811115611b5257600080fd5b611b5e8b828c01611853565b9850985050602089013567ffffffffffffffff811115611b7d57600080fd5b611b898b828c016118e7565b9650965050604089013567ffffffffffffffff811115611ba857600080fd5b611bb48b828c0161189d565b94509450506060611bc78b828c01611931565b9250506080611bd88b828c01611931565b9150509295985092959890939650565b600080600080600080600080600060c08a8c031215611c0657600080fd5b60008a013567ffffffffffffffff811115611c2057600080fd5b611c2c8c828d01611853565b995099505060208a013567ffffffffffffffff811115611c4b57600080fd5b611c578c828d016118e7565b975097505060408a013567ffffffffffffffff811115611c7657600080fd5b611c828c828d0161189d565b95509550506060611c958c828d01611931565b9350506080611ca68c828d01611931565b92505060a0611cb78c828d016119a5565b9150509295985092959850929598565b600060208284031215611cd957600080fd5b6000611ce784828501611931565b91505092915050565b60008060408385031215611d0357600080fd5b6000611d1185828601611931565b9250506020611d228582860161183e565b9150509250929050565b600060208284031215611d3e57600080fd5b6000611d4c84828501611946565b91505092915050565b600060208284031215611d6757600080fd5b6000611d75848285016119a5565b91505092915050565b6000611d8a8383611dac565b60208301905092915050565b6000611da3848484611f13565b90509392505050565b611db58161276e565b82525050565b611dc48161276e565b82525050565b6000611dd683856125d4565b9350611de18261259b565b8060005b85811015611e1a57611df78284612650565b611e018882611d7e565b9750611e0c836125ba565b925050600181019050611de5565b5085925050509392505050565b6000611e3383856125e5565b935083602084028501611e45846125a5565b8060005b87811015611e8b578484038952611e608284612667565b611e6b868284611d96565b9550611e76846125c7565b935060208b019a505050600181019050611e49565b50829750879450505050509392505050565b6000611ea983856125f6565b93507f07ffffffffffffffffffffffffffffffffffffffffffffffffffffffffffffff831115611ed857600080fd5b602083029250611ee98385846127ec565b82840190509392505050565b611efe81612780565b82525050565b611f0d8161278c565b82525050565b6000611f1f8385612607565b9350611f2c8385846127ec565b611f35836128d0565b840190509392505050565b6000611f4c8385612618565b9350611f598385846127ec565b611f62836128d0565b840190509392505050565b6000611f798385612629565b9350611f868385846127ec565b82840190509392505050565b6000611f9d826125af565b611fa78185612634565b9350611fb78185602086016127fb565b611fc0816128d0565b840191505092915050565b6000611fd6826125af565b611fe08185612645565b9350611ff08185602086016127fb565b80840191505092915050565b6000612009602083612634565b9150612014826128e1565b602082019050919050565b600061202c602683612634565b91506120378261290a565b604082019050919050565b600061204f602383612634565b915061205a82612959565b604082019050919050565b6000612072602683612634565b915061207d826129a8565b604082019050919050565b6000612095602f83612634565b91506120a0826129f7565b604082019050919050565b60006120b8602a83612634565b91506120c382612a46565b604082019050919050565b60006120db601783612645565b91506120e682612a95565b601782019050919050565b60006120fe603183612634565b915061210982612abe565b604082019050919050565b6000612121601183612645565b915061212c82612b0d565b601182019050919050565b6000612144602b83612634565b915061214f82612b36565b604082019050919050565b6000612167602f83612634565b915061217282612b85565b604082019050919050565b600061218a603383612634565b915061219582612bd4565b604082019050919050565b6121a9816127e2565b82525050565b60006121bc828486611f6d565b91508190509392505050565b60006121d3826120ce565b91506121df8285611fcb565b91506121ea82612114565b91506121f68284611fcb565b91508190509392505050565b60006060820190506122176000830187611dbb565b61222460208301866121a0565b8181036040830152612237818486611f40565b905095945050505050565b600060a0820190506122576000830189611dbb565b61226460208301886121a0565b8181036040830152612277818688611f40565b90506122866060830185611f04565b6122936080830184611f04565b979650505050505050565b600060a0820190506122b36000830189611dbb565b6122c060208301886121a0565b81810360408301526122d3818688611f40565b90506122e26060830185611f04565b6122ef60808301846121a0565b979650505050505050565b600060a0820190508181036000830152612315818a8c611dca565b9050818103602083015261232a81888a611e9d565b9050818103604083015261233f818688611e27565b905061234e6060830185611f04565b61235b6080830184611f04565b9998505050505050505050565b600060208201905061237d6000830184611ef5565b92915050565b60006020820190506123986000830184611f04565b92915050565b600060208201905081810360008301526123b88184611f92565b905092915050565b600060208201905081810360008301526123d981611ffc565b9050919050565b600060208201905081810360008301526123f98161201f565b9050919050565b6000602082019050818103600083015261241981612042565b9050919050565b6000602082019050818103600083015261243981612065565b9050919050565b6000602082019050818103600083015261245981612088565b9050919050565b60006020820190508181036000830152612479816120ab565b9050919050565b60006020820190508181036000830152612499816120f1565b9050919050565b600060208201905081810360008301526124b981612137565b9050919050565b600060208201905081810360008301526124d98161215a565b9050919050565b600060208201905081810360008301526124f98161217d565b9050919050565b600060208201905061251560008301846121a0565b92915050565b600060408201905061253060008301856121a0565b61253d60208301846121a0565b9392505050565b6000808335600160200384360303811261255d57600080fd5b80840192508235915067ffffffffffffffff82111561257b57600080fd5b60208301925060018202360383131561259357600080fd5b509250929050565b6000819050919050565b6000819050919050565b600081519050919050565b6000602082019050919050565b6000602082019050919050565b600082825260208201905092915050565b600082825260208201905092915050565b600082825260208201905092915050565b600082825260208201905092915050565b600082825260208201905092915050565b600081905092915050565b600082825260208201905092915050565b600081905092915050565b600061265f602084018461183e565b905092915050565b6000808335600160200384360303811261268057600080fd5b83810192508235915060208301925067ffffffffffffffff8211156126a457600080fd5b6001820236038413156126b657600080fd5b509250929050565b60006126c9826127e2565b91506126d4836127e2565b9250827fffffffffffffffffffffffffffffffffffffffffffffffffffffffffffffffff03821115612709576127086128a1565b5b828201905092915050565b600061271f826127e2565b915061272a836127e2565b9250817fffffffffffffffffffffffffffffffffffffffffffffffffffffffffffffffff0483118215151615612763576127626128a1565b5b828202905092915050565b6000612779826127c2565b9050919050565b60008115159050919050565b6000819050919050565b60007fffffffff0000000000000000000000000000000000000000000000000000000082169050919050565b600073ffffffffffffffffffffffffffffffffffffffff82169050919050565b6000819050919050565b82818337600083830152505050565b60005b838110156128195780820151818401526020810190506127fe565b83811115612828576000848401525b50505050565b6000612839826127e2565b9150600082141561284d5761284c6128a1565b5b600182039050919050565b6000612863826127e2565b91507fffffffffffffffffffffffffffffffffffffffffffffffffffffffffffffffff821415612896576128956128a1565b5b600182019050919050565b7f4e487b7100000000000000000000000000000000000000000000000000000000600052601160045260246000fd5b6000601f19601f8301169050919050565b7f537472696e67733a20686578206c656e67746820696e73756666696369656e74600082015250565b7f54696d656c6f636b436f6e74726f6c6c65723a206d697373696e67206465706560008201527f6e64656e63790000000000000000000000000000000000000000000000000000602082015250565b7f54696d656c6f636b436f6e74726f6c6c65723a206c656e677468206d69736d6160008201527f7463680000000000000000000000000000000000000000000000000000000000602082015250565b7f54696d656c6f636b436f6e74726f6c6c65723a20696e73756666696369656e7460008201527f2064656c61790000000000000000000000000000000000000000000000000000602082015250565b7f54696d656c6f636b436f6e74726f6c6c65723a206f7065726174696f6e20616c60008201527f7265616479207363686564756c65640000000000000000000000000000000000602082015250565b7f54696d656c6f636b436f6e74726f6c6c65723a206f7065726174696f6e20697360008201527f206e6f7420726561647900000000000000000000000000000000000000000000602082015250565b7f416363657373436f6e74726f6c3a206163636f756e7420000000000000000000600082015250565b7f54696d656c6f636b436f6e74726f6c6c65723a206f7065726174696f6e20636160008201527f6e6e6f742062652063616e63656c6c6564000000000000000000000000000000602082015250565b7f206973206d697373696e6720726f6c6520000000000000000000000000000000600082015250565b7f54696d656c6f636b436f6e74726f6c6c65723a2063616c6c6572206d7573742060008201527f62652074696d656c6f636b000000000000000000000000000000000000000000602082015250565b7f416363657373436f6e74726f6c3a2063616e206f6e6c792072656e6f756e636560008201527f20726f6c657320666f722073656c660000000000000000000000000000000000602082015250565b7f54696d656c6f636b436f6e74726f6c6c65723a20756e6465726c79696e67207460008201527f72616e73616374696f6e20726576657274656400000000000000000000000000602082015250565b612c2c8161276e565b8114612c3757600080fd5b50565b612c438161278c565b8114612c4e57600080fd5b50565b612c5a81612796565b8114612c6557600080fd5b50565b612c71816127e2565b8114612c7c57600080fd5b5056fea264697066735822122085f8698faf690801cc1d19214b05ca18e4e577109216ffe4b618b8fb5dfa8d3e64736f6c63430008040033",
  "linkReferences": {},
  "deployedLinkReferences": {}
}