{
  "_format": "hh-sol-artifact-1",
  "contractName": "UUPSUpgradeableUnsafeMockUpgradeableWithInit",
  "sourceName": "contracts/src/OpenZeppelin/upgradeable/mocks/WithInit.sol",
  "abi": [
    {
      "inputs": [],
      "stateMutability": "payable",
      "type": "constructor"
    },
    {
      "anonymous": false,
      "inputs": [
        {
          "indexed": false,
          "internalType": "address",
          "name": "previousAdmin",
          "type": "address"
        },
        {
          "indexed": false,
          "internalType": "address",
          "name": "newAdmin",
          "type": "address"
        }
      ],
      "name": "AdminChanged",
      "type": "event"
    },
    {
      "anonymous": false,
      "inputs": [
        {
          "indexed": true,
          "internalType": "address",
          "name": "beacon",
          "type": "address"
        }
      ],
      "name": "BeaconUpgraded",
      "type": "event"
    },
    {
      "anonymous": false,
      "inputs": [
        {
          "indexed": true,
          "internalType": "address",
          "name": "implementation",
          "type": "address"
        }
      ],
      "name": "Upgraded",
      "type": "event"
    },
    {
      "inputs": [],
      "name": "current",
      "outputs": [
        {
          "internalType": "uint256",
          "name": "",
          "type": "uint256"
        }
      ],
      "stateMutability": "view",
      "type": "function"
    },
    {
      "inputs": [],
      "name": "decrement",
      "outputs": [],
      "stateMutability": "nonpayable",
      "type": "function"
    },
    {
      "inputs": [],
      "name": "increment",
      "outputs": [],
      "stateMutability": "nonpayable",
      "type": "function"
    },
    {
      "inputs": [],
      "name": "reset",
      "outputs": [],
      "stateMutability": "nonpayable",
      "type": "function"
    },
    {
      "inputs": [
        {
          "internalType": "address",
          "name": "newImplementation",
          "type": "address"
        }
      ],
      "name": "upgradeTo",
      "outputs": [],
      "stateMutability": "nonpayable",
      "type": "function"
    },
    {
      "inputs": [
        {
          "internalType": "address",
          "name": "newImplementation",
          "type": "address"
        },
        {
          "internalType": "bytes",
          "name": "data",
          "type": "bytes"
        }
      ],
      "name": "upgradeToAndCall",
      "outputs": [],
      "stateMutability": "payable",
      "type": "function"
    }
  ],
  "bytecode": "0x6080604052620000146200001a60201b60201c565b6200064d565b600060019054906101000a900460ff168062000041575060008054906101000a900460ff16155b62000083576040517f08c379a00000000000000000000000000000000000000000000000000000000081526004016200007a90620005cb565b60405180910390fd5b60008060019054906101000a900460ff161590508015620000d4576001600060016101000a81548160ff02191690831515021790555060016000806101000a81548160ff0219169083151502179055505b620000e46200014960201b60201c565b620000f46200022860201b60201c565b620001046200030760201b60201c565b62000114620003e660201b60201c565b62000124620004c560201b60201c565b8015620001465760008060016101000a81548160ff0219169083151502179055505b50565b600060019054906101000a900460ff168062000170575060008054906101000a900460ff16155b620001b2576040517f08c379a0000000000000000000000000000000000000000000000000000000008152600401620001a990620005cb565b60405180910390fd5b60008060019054906101000a900460ff16159050801562000203576001600060016101000a81548160ff02191690831515021790555060016000806101000a81548160ff0219169083151502179055505b8015620002255760008060016101000a81548160ff0219169083151502179055505b50565b600060019054906101000a900460ff16806200024f575060008054906101000a900460ff16155b62000291576040517f08c379a00000000000000000000000000000000000000000000000000000000081526004016200028890620005cb565b60405180910390fd5b60008060019054906101000a900460ff161590508015620002e2576001600060016101000a81548160ff02191690831515021790555060016000806101000a81548160ff0219169083151502179055505b8015620003045760008060016101000a81548160ff0219169083151502179055505b50565b600060019054906101000a900460ff16806200032e575060008054906101000a900460ff16155b62000370576040517f08c379a00000000000000000000000000000000000000000000000000000000081526004016200036790620005cb565b60405180910390fd5b60008060019054906101000a900460ff161590508015620003c1576001600060016101000a81548160ff02191690831515021790555060016000806101000a81548160ff0219169083151502179055505b8015620003e35760008060016101000a81548160ff0219169083151502179055505b50565b600060019054906101000a900460ff16806200040d575060008054906101000a900460ff16155b6200044f576040517f08c379a00000000000000000000000000000000000000000000000000000000081526004016200044690620005cb565b60405180910390fd5b60008060019054906101000a900460ff161590508015620004a0576001600060016101000a81548160ff02191690831515021790555060016000806101000a81548160ff0219169083151502179055505b8015620004c25760008060016101000a81548160ff0219169083151502179055505b50565b600060019054906101000a900460ff1680620004ec575060008054906101000a900460ff16155b6200052e576040517f08c379a00000000000000000000000000000000000000000000000000000000081526004016200052590620005cb565b60405180910390fd5b60008060019054906101000a900460ff1615905080156200057f576001600060016101000a81548160ff02191690831515021790555060016000806101000a81548160ff0219169083151502179055505b8015620005a15760008060016101000a81548160ff0219169083151502179055505b50565b6000620005b3602e83620005ed565b9150620005c082620005fe565b604082019050919050565b60006020820190508181036000830152620005e681620005a4565b9050919050565b600082825260208201905092915050565b7f496e697469616c697a61626c653a20636f6e747261637420697320616c72656160008201527f647920696e697469616c697a6564000000000000000000000000000000000000602082015250565b6109dd806200065d6000396000f3fe6080604052600436106100555760003560e01c80632baeceb71461005a5780633659cfe6146100715780634f1ef2861461009a5780639fa6a6e3146100b6578063d09de08a146100e1578063d826f88f146100f8575b600080fd5b34801561006657600080fd5b5061006f61010f565b005b34801561007d57600080fd5b5061009860048036038101906100939190610518565b61011b565b005b6100b460048036038101906100af9190610541565b610139565b005b3480156100c257600080fd5b506100cb610149565b6040516100d89190610710565b60405180910390f35b3480156100ed57600080fd5b506100f661015a565b005b34801561010457600080fd5b5061010d610166565b005b6101196001610172565b565b610136816040518060200160405280600081525060006101ce565b50565b610145828260006101ce565b5050565b600061015560016101fa565b905090565b6101646001610208565b565b610170600161021e565b565b600081600001549050600081116101be576040517f08c379a00000000000000000000000000000000000000000000000000000000081526004016101b5906106b0565b60405180910390fd5b6001810382600001819055505050565b6101d78361022b565b6000825111806101e45750805b156101f5576101f3838361027a565b505b505050565b600081600001549050919050565b6001816000016000828254019250508190555050565b6000816000018190555050565b6102348161035e565b8073ffffffffffffffffffffffffffffffffffffffff167fbc7cd75a20ee27fd9adebab32041f755214dbc6bffa90cc0225b39da2e5c2d3b60405160405180910390a250565b606061028583610417565b6102c4576040517f08c379a00000000000000000000000000000000000000000000000000000000081526004016102bb906106f0565b60405180910390fd5b6000808473ffffffffffffffffffffffffffffffffffffffff16846040516102ec9190610677565b600060405180830381855af49150503d8060008114610327576040519150601f19603f3d011682016040523d82523d6000602084013e61032c565b606091505b509150915061035482826040518060600160405280602781526020016109816027913961042a565b9250505092915050565b61036781610417565b6103a6576040517f08c379a000000000000000000000000000000000000000000000000000000000815260040161039d906106d0565b60405180910390fd5b806103d37f360894a13ba1a3210667c828492db98dca3e2076cc3735a920a3ca505d382bbc60001b610491565b60000160006101000a81548173ffffffffffffffffffffffffffffffffffffffff021916908373ffffffffffffffffffffffffffffffffffffffff16021790555050565b600080823b905060008111915050919050565b6060831561043a5782905061048a565b60008351111561044d5782518084602001fd5b816040517f08c379a0000000000000000000000000000000000000000000000000000000008152600401610481919061068e565b60405180910390fd5b9392505050565b6000819050919050565b60006104ae6104a984610750565b61072b565b9050828152602081018484840111156104c657600080fd5b6104d18482856107ef565b509392505050565b6000813590506104e881610969565b92915050565b600082601f8301126104ff57600080fd5b813561050f84826020860161049b565b91505092915050565b60006020828403121561052a57600080fd5b6000610538848285016104d9565b91505092915050565b6000806040838503121561055457600080fd5b6000610562858286016104d9565b925050602083013567ffffffffffffffff81111561057f57600080fd5b61058b858286016104ee565b9150509250929050565b60006105a082610781565b6105aa8185610797565b93506105ba8185602086016107fe565b80840191505092915050565b60006105d18261078c565b6105db81856107a2565b93506105eb8185602086016107fe565b6105f481610891565b840191505092915050565b600061060c601b836107a2565b9150610617826108a2565b602082019050919050565b600061062f602d836107a2565b915061063a826108cb565b604082019050919050565b60006106526026836107a2565b915061065d8261091a565b604082019050919050565b610671816107e5565b82525050565b60006106838284610595565b915081905092915050565b600060208201905081810360008301526106a881846105c6565b905092915050565b600060208201905081810360008301526106c9816105ff565b9050919050565b600060208201905081810360008301526106e981610622565b9050919050565b6000602082019050818103600083015261070981610645565b9050919050565b60006020820190506107256000830184610668565b92915050565b6000610735610746565b90506107418282610831565b919050565b6000604051905090565b600067ffffffffffffffff82111561076b5761076a610862565b5b61077482610891565b9050602081019050919050565b600081519050919050565b600081519050919050565b600081905092915050565b600082825260208201905092915050565b60006107be826107c5565b9050919050565b600073ffffffffffffffffffffffffffffffffffffffff82169050919050565b6000819050919050565b82818337600083830152505050565b60005b8381101561081c578082015181840152602081019050610801565b8381111561082b576000848401525b50505050565b61083a82610891565b810181811067ffffffffffffffff8211171561085957610858610862565b5b80604052505050565b7f4e487b7100000000000000000000000000000000000000000000000000000000600052604160045260246000fd5b6000601f19601f8301169050919050565b7f436f756e7465723a2064656372656d656e74206f766572666c6f770000000000600082015250565b7f455243313936373a206e657720696d706c656d656e746174696f6e206973206e60008201527f6f74206120636f6e747261637400000000000000000000000000000000000000602082015250565b7f416464726573733a2064656c65676174652063616c6c20746f206e6f6e2d636f60008201527f6e74726163740000000000000000000000000000000000000000000000000000602082015250565b610972816107b3565b811461097d57600080fd5b5056fe416464726573733a206c6f772d6c6576656c2064656c65676174652063616c6c206661696c6564a2646970667358221220d569c41769edb67653d305f6cc58fb31b26262d13b9ac4364478f5bac5ef97e564736f6c63430008040033",
  "linkReferences": {},
  "deployedLinkReferences": {}
}