{
  "_format": "hh-sol-artifact-1",
  "contractName": "EscrowUpgradeable",
  "sourceName": "contracts/src/OpenZeppelin/upgradeable/utils/escrow/EscrowUpgradeable.sol",
  "abi": [
    {
      "anonymous": false,
      "inputs": [
        {
          "indexed": true,
          "internalType": "address",
          "name": "payee",
          "type": "address"
        },
        {
          "indexed": false,
          "internalType": "uint256",
          "name": "weiAmount",
          "type": "uint256"
        }
      ],
      "name": "Deposited",
      "type": "event"
    },
    {
      "anonymous": false,
      "inputs": [
        {
          "indexed": true,
          "internalType": "address",
          "name": "previousOwner",
          "type": "address"
        },
        {
          "indexed": true,
          "internalType": "address",
          "name": "newOwner",
          "type": "address"
        }
      ],
      "name": "OwnershipTransferred",
      "type": "event"
    },
    {
      "anonymous": false,
      "inputs": [
        {
          "indexed": true,
          "internalType": "address",
          "name": "payee",
          "type": "address"
        },
        {
          "indexed": false,
          "internalType": "uint256",
          "name": "weiAmount",
          "type": "uint256"
        }
      ],
      "name": "Withdrawn",
      "type": "event"
    },
    {
      "inputs": [
        {
          "internalType": "address",
          "name": "payee",
          "type": "address"
        }
      ],
      "name": "deposit",
      "outputs": [],
      "stateMutability": "payable",
      "type": "function"
    },
    {
      "inputs": [
        {
          "internalType": "address",
          "name": "payee",
          "type": "address"
        }
      ],
      "name": "depositsOf",
      "outputs": [
        {
          "internalType": "uint256",
          "name": "",
          "type": "uint256"
        }
      ],
      "stateMutability": "view",
      "type": "function"
    },
    {
      "inputs": [],
      "name": "initialize",
      "outputs": [],
      "stateMutability": "nonpayable",
      "type": "function"
    },
    {
      "inputs": [],
      "name": "owner",
      "outputs": [
        {
          "internalType": "address",
          "name": "",
          "type": "address"
        }
      ],
      "stateMutability": "view",
      "type": "function"
    },
    {
      "inputs": [],
      "name": "renounceOwnership",
      "outputs": [],
      "stateMutability": "nonpayable",
      "type": "function"
    },
    {
      "inputs": [
        {
          "internalType": "address",
          "name": "newOwner",
          "type": "address"
        }
      ],
      "name": "transferOwnership",
      "outputs": [],
      "stateMutability": "nonpayable",
      "type": "function"
    },
    {
      "inputs": [
        {
          "internalType": "address payable",
          "name": "payee",
          "type": "address"
        }
      ],
      "name": "withdraw",
      "outputs": [],
      "stateMutability": "nonpayable",
      "type": "function"
    }
  ],
  "bytecode": "0x608060405234801561001057600080fd5b50611130806100206000396000f3fe6080604052600436106100705760003560e01c80638da5cb5b1161004e5780638da5cb5b146100cc578063e3a9db1a146100f7578063f2fde38b14610134578063f340fa011461015d57610070565b806351cff8d914610075578063715018a61461009e5780638129fc1c146100b5575b600080fd5b34801561008157600080fd5b5061009c60048036038101906100979190610c97565b610179565b005b3480156100aa57600080fd5b506100b36102f9565b005b3480156100c157600080fd5b506100ca610381565b005b3480156100d857600080fd5b506100e1610462565b6040516100ee9190610dc5565b60405180910390f35b34801561010357600080fd5b5061011e60048036038101906101199190610c6e565b61048c565b60405161012b9190610e80565b60405180910390f35b34801561014057600080fd5b5061015b60048036038101906101569190610c6e565b6104d5565b005b61017760048036038101906101729190610c6e565b6105cd565b005b6101816106f6565b73ffffffffffffffffffffffffffffffffffffffff1661019f610462565b73ffffffffffffffffffffffffffffffffffffffff16146101f5576040517f08c379a00000000000000000000000000000000000000000000000000000000081526004016101ec90610e60565b60405180910390fd5b6000606560008373ffffffffffffffffffffffffffffffffffffffff1673ffffffffffffffffffffffffffffffffffffffff1681526020019081526020016000205490506000606560008473ffffffffffffffffffffffffffffffffffffffff1673ffffffffffffffffffffffffffffffffffffffff168152602001908152602001600020819055506102a7818373ffffffffffffffffffffffffffffffffffffffff166106fe90919063ffffffff16565b8173ffffffffffffffffffffffffffffffffffffffff167f7084f5476618d8e60b11ef0d7d3f06914655adb8793e28ff7f018d4c76d505d5826040516102ed9190610e80565b60405180910390a25050565b6103016106f6565b73ffffffffffffffffffffffffffffffffffffffff1661031f610462565b73ffffffffffffffffffffffffffffffffffffffff1614610375576040517f08c379a000000000000000000000000000000000000000000000000000000000815260040161036c90610e60565b60405180910390fd5b61037f60006107f2565b565b600060019054906101000a900460ff16806103a7575060008054906101000a900460ff16155b6103e6576040517f08c379a00000000000000000000000000000000000000000000000000000000081526004016103dd90610e40565b60405180910390fd5b60008060019054906101000a900460ff161590508015610436576001600060016101000a81548160ff02191690831515021790555060016000806101000a81548160ff0219169083151502179055505b61043e6108b8565b801561045f5760008060016101000a81548160ff0219169083151502179055505b50565b6000603360009054906101000a900473ffffffffffffffffffffffffffffffffffffffff16905090565b6000606560008373ffffffffffffffffffffffffffffffffffffffff1673ffffffffffffffffffffffffffffffffffffffff168152602001908152602001600020549050919050565b6104dd6106f6565b73ffffffffffffffffffffffffffffffffffffffff166104fb610462565b73ffffffffffffffffffffffffffffffffffffffff1614610551576040517f08c379a000000000000000000000000000000000000000000000000000000000815260040161054890610e60565b60405180910390fd5b600073ffffffffffffffffffffffffffffffffffffffff168173ffffffffffffffffffffffffffffffffffffffff1614156105c1576040517f08c379a00000000000000000000000000000000000000000000000000000000081526004016105b890610de0565b60405180910390fd5b6105ca816107f2565b50565b6105d56106f6565b73ffffffffffffffffffffffffffffffffffffffff166105f3610462565b73ffffffffffffffffffffffffffffffffffffffff1614610649576040517f08c379a000000000000000000000000000000000000000000000000000000000815260040161064090610e60565b60405180910390fd5b600034905080606560008473ffffffffffffffffffffffffffffffffffffffff1673ffffffffffffffffffffffffffffffffffffffff168152602001908152602001600020600082825461069d9190610eb7565b925050819055508173ffffffffffffffffffffffffffffffffffffffff167f2da466a7b24304f47e87fa2e1e5a81b9831ce54fec19055ce277ca2f39ba42c4826040516106ea9190610e80565b60405180910390a25050565b600033905090565b80471015610741576040517f08c379a000000000000000000000000000000000000000000000000000000000815260040161073890610e20565b60405180910390fd5b60008273ffffffffffffffffffffffffffffffffffffffff168260405161076790610db0565b60006040518083038185875af1925050503d80600081146107a4576040519150601f19603f3d011682016040523d82523d6000602084013e6107a9565b606091505b50509050806107ed576040517f08c379a00000000000000000000000000000000000000000000000000000000081526004016107e490610e00565b60405180910390fd5b505050565b6000603360009054906101000a900473ffffffffffffffffffffffffffffffffffffffff16905081603360006101000a81548173ffffffffffffffffffffffffffffffffffffffff021916908373ffffffffffffffffffffffffffffffffffffffff1602179055508173ffffffffffffffffffffffffffffffffffffffff168173ffffffffffffffffffffffffffffffffffffffff167f8be0079c531659141344cd1fd0a4f28419497f9722a3daafe3b4186f6b6457e060405160405180910390a35050565b600060019054906101000a900460ff16806108de575060008054906101000a900460ff16155b61091d576040517f08c379a000000000000000000000000000000000000000000000000000000000815260040161091490610e40565b60405180910390fd5b60008060019054906101000a900460ff16159050801561096d576001600060016101000a81548160ff02191690831515021790555060016000806101000a81548160ff0219169083151502179055505b6109756109a9565b61097d610a82565b610985610b6b565b80156109a65760008060016101000a81548160ff0219169083151502179055505b50565b600060019054906101000a900460ff16806109cf575060008054906101000a900460ff16155b610a0e576040517f08c379a0000000000000000000000000000000000000000000000000000000008152600401610a0590610e40565b60405180910390fd5b60008060019054906101000a900460ff161590508015610a5e576001600060016101000a81548160ff02191690831515021790555060016000806101000a81548160ff0219169083151502179055505b8015610a7f5760008060016101000a81548160ff0219169083151502179055505b50565b600060019054906101000a900460ff1680610aa8575060008054906101000a900460ff16155b610ae7576040517f08c379a0000000000000000000000000000000000000000000000000000000008152600401610ade90610e40565b60405180910390fd5b60008060019054906101000a900460ff161590508015610b37576001600060016101000a81548160ff02191690831515021790555060016000806101000a81548160ff0219169083151502179055505b610b47610b426106f6565b6107f2565b8015610b685760008060016101000a81548160ff0219169083151502179055505b50565b600060019054906101000a900460ff1680610b91575060008054906101000a900460ff16155b610bd0576040517f08c379a0000000000000000000000000000000000000000000000000000000008152600401610bc790610e40565b60405180910390fd5b60008060019054906101000a900460ff161590508015610c20576001600060016101000a81548160ff02191690831515021790555060016000806101000a81548160ff0219169083151502179055505b8015610c415760008060016101000a81548160ff0219169083151502179055505b50565b600081359050610c53816110cc565b92915050565b600081359050610c68816110e3565b92915050565b600060208284031215610c8057600080fd5b6000610c8e84828501610c44565b91505092915050565b600060208284031215610ca957600080fd5b6000610cb784828501610c59565b91505092915050565b610cc981610f0d565b82525050565b6000610cdc602683610ea6565b9150610ce782610f8a565b604082019050919050565b6000610cff603a83610ea6565b9150610d0a82610fd9565b604082019050919050565b6000610d22601d83610ea6565b9150610d2d82611028565b602082019050919050565b6000610d45602e83610ea6565b9150610d5082611051565b604082019050919050565b6000610d68602083610ea6565b9150610d73826110a0565b602082019050919050565b6000610d8b600083610e9b565b9150610d96826110c9565b600082019050919050565b610daa81610f51565b82525050565b6000610dbb82610d7e565b9150819050919050565b6000602082019050610dda6000830184610cc0565b92915050565b60006020820190508181036000830152610df981610ccf565b9050919050565b60006020820190508181036000830152610e1981610cf2565b9050919050565b60006020820190508181036000830152610e3981610d15565b9050919050565b60006020820190508181036000830152610e5981610d38565b9050919050565b60006020820190508181036000830152610e7981610d5b565b9050919050565b6000602082019050610e956000830184610da1565b92915050565b600081905092915050565b600082825260208201905092915050565b6000610ec282610f51565b9150610ecd83610f51565b9250827fffffffffffffffffffffffffffffffffffffffffffffffffffffffffffffffff03821115610f0257610f01610f5b565b5b828201905092915050565b6000610f1882610f31565b9050919050565b6000610f2a82610f31565b9050919050565b600073ffffffffffffffffffffffffffffffffffffffff82169050919050565b6000819050919050565b7f4e487b7100000000000000000000000000000000000000000000000000000000600052601160045260246000fd5b7f4f776e61626c653a206e6577206f776e657220697320746865207a65726f206160008201527f6464726573730000000000000000000000000000000000000000000000000000602082015250565b7f416464726573733a20756e61626c6520746f2073656e642076616c75652c207260008201527f6563697069656e74206d61792068617665207265766572746564000000000000602082015250565b7f416464726573733a20696e73756666696369656e742062616c616e6365000000600082015250565b7f496e697469616c697a61626c653a20636f6e747261637420697320616c72656160008201527f647920696e697469616c697a6564000000000000000000000000000000000000602082015250565b7f4f776e61626c653a2063616c6c6572206973206e6f7420746865206f776e6572600082015250565b50565b6110d581610f0d565b81146110e057600080fd5b50565b6110ec81610f1f565b81146110f757600080fd5b5056fea26469706673582212207fdfb0aaf72d11bb5d68e82e475fdb194415d4dd59ba8a76c60ea6d19529d0b464736f6c63430008040033",
  "linkReferences": {},
  "deployedLinkReferences": {}
}