{
  "_format": "hh-sol-artifact-1",
  "contractName": "EnumerableUintSetMockUpgradeable",
  "sourceName": "contracts/src/OpenZeppelin/upgradeable/mocks/EnumerableSetMockUpgradeable.sol",
  "abi": [
    {
      "anonymous": false,
      "inputs": [
        {
          "indexed": false,
          "internalType": "bool",
          "name": "result",
          "type": "bool"
        }
      ],
      "name": "OperationResult",
      "type": "event"
    },
    {
      "inputs": [
        {
          "internalType": "uint256",
          "name": "value",
          "type": "uint256"
        }
      ],
      "name": "add",
      "outputs": [],
      "stateMutability": "nonpayable",
      "type": "function"
    },
    {
      "inputs": [
        {
          "internalType": "uint256",
          "name": "index",
          "type": "uint256"
        }
      ],
      "name": "at",
      "outputs": [
        {
          "internalType": "uint256",
          "name": "",
          "type": "uint256"
        }
      ],
      "stateMutability": "view",
      "type": "function"
    },
    {
      "inputs": [
        {
          "internalType": "uint256",
          "name": "value",
          "type": "uint256"
        }
      ],
      "name": "contains",
      "outputs": [
        {
          "internalType": "bool",
          "name": "",
          "type": "bool"
        }
      ],
      "stateMutability": "view",
      "type": "function"
    },
    {
      "inputs": [],
      "name": "length",
      "outputs": [
        {
          "internalType": "uint256",
          "name": "",
          "type": "uint256"
        }
      ],
      "stateMutability": "view",
      "type": "function"
    },
    {
      "inputs": [
        {
          "internalType": "uint256",
          "name": "value",
          "type": "uint256"
        }
      ],
      "name": "remove",
      "outputs": [],
      "stateMutability": "nonpayable",
      "type": "function"
    }
  ],
  "bytecode": "0x608060405234801561001057600080fd5b50610653806100206000396000f3fe608060405234801561001057600080fd5b50600436106100575760003560e01c80631003e2d21461005c5780631f7b6d32146100785780634cc8221514610096578063c34052e0146100b2578063e0886f90146100e2575b600080fd5b61007660048036038101906100719190610510565b610112565b005b610080610165565b60405161008d9190610572565b60405180910390f35b6100b060048036038101906100ab9190610510565b610176565b005b6100cc60048036038101906100c79190610510565b6101c9565b6040516100d99190610557565b60405180910390f35b6100fc60048036038101906100f79190610510565b6101e6565b6040516101099190610572565b60405180910390f35b600061012882600161020390919063ffffffff16565b90507fed9840e0775590557ad736875d96c95cf1458b766335f74339951a32c82a9e33816040516101599190610557565b60405180910390a15050565b6000610171600161021d565b905090565b600061018c82600161023290919063ffffffff16565b90507fed9840e0775590557ad736875d96c95cf1458b766335f74339951a32c82a9e33816040516101bd9190610557565b60405180910390a15050565b60006101df82600161024c90919063ffffffff16565b9050919050565b60006101fc82600161026690919063ffffffff16565b9050919050565b6000610215836000018360001b610280565b905092915050565b600061022b826000016102f0565b9050919050565b6000610244836000018360001b610301565b905092915050565b600061025e836000018360001b610487565b905092915050565b600061027583600001836104aa565b60001c905092915050565b600061028c8383610487565b6102e55782600001829080600181540180825580915050600190039060005260206000200160009091909190915055826000018054905083600101600084815260200190815260200160002081905550600190506102ea565b600090505b92915050565b600081600001805490509050919050565b6000808360010160008481526020019081526020016000205490506000811461047b576000600182610333919061058d565b905060006001866000018054905061034b919061058d565b9050818114610406576000866000018281548110610392577f4e487b7100000000000000000000000000000000000000000000000000000000600052603260045260246000fd5b90600052602060002001549050808760000184815481106103dc577f4e487b7100000000000000000000000000000000000000000000000000000000600052603260045260246000fd5b90600052602060002001819055508387600101600083815260200190815260200160002081905550505b85600001805480610440577f4e487b7100000000000000000000000000000000000000000000000000000000600052603160045260246000fd5b600190038181906000526020600020016000905590558560010160008681526020019081526020016000206000905560019350505050610481565b60009150505b92915050565b600080836001016000848152602001908152602001600020541415905092915050565b60008260000182815481106104e8577f4e487b7100000000000000000000000000000000000000000000000000000000600052603260045260246000fd5b9060005260206000200154905092915050565b60008135905061050a81610606565b92915050565b60006020828403121561052257600080fd5b6000610530848285016104fb565b91505092915050565b610542816105c1565b82525050565b610551816105cd565b82525050565b600060208201905061056c6000830184610539565b92915050565b60006020820190506105876000830184610548565b92915050565b6000610598826105cd565b91506105a3836105cd565b9250828210156105b6576105b56105d7565b5b828203905092915050565b60008115159050919050565b6000819050919050565b7f4e487b7100000000000000000000000000000000000000000000000000000000600052601160045260246000fd5b61060f816105cd565b811461061a57600080fd5b5056fea26469706673582212203c787af2d50a0dcd47581f9ca415abd2a096ffd38c1b5ea4759a6b4109baa83e64736f6c63430008040033",
  "linkReferences": {},
  "deployedLinkReferences": {}
}