{
  "_format": "hh-sol-artifact-1",
  "contractName": "ERC20PermitMock",
  "sourceName": "contracts/src/OpenZeppelin/mocks/ERC20PermitMock.sol",
  "abi": [
    {
      "inputs": [
        {
          "internalType": "string",
          "name": "name",
          "type": "string"
        },
        {
          "internalType": "string",
          "name": "symbol",
          "type": "string"
        },
        {
          "internalType": "address",
          "name": "initialAccount",
          "type": "address"
        },
        {
          "internalType": "uint256",
          "name": "initialBalance",
          "type": "uint256"
        }
      ],
      "stateMutability": "payable",
      "type": "constructor"
    },
    {
      "anonymous": false,
      "inputs": [
        {
          "indexed": true,
          "internalType": "address",
          "name": "owner",
          "type": "address"
        },
        {
          "indexed": true,
          "internalType": "address",
          "name": "spender",
          "type": "address"
        },
        {
          "indexed": false,
          "internalType": "uint256",
          "name": "value",
          "type": "uint256"
        }
      ],
      "name": "Approval",
      "type": "event"
    },
    {
      "anonymous": false,
      "inputs": [
        {
          "indexed": true,
          "internalType": "address",
          "name": "from",
          "type": "address"
        },
        {
          "indexed": true,
          "internalType": "address",
          "name": "to",
          "type": "address"
        },
        {
          "indexed": false,
          "internalType": "uint256",
          "name": "value",
          "type": "uint256"
        }
      ],
      "name": "Transfer",
      "type": "event"
    },
    {
      "inputs": [],
      "name": "DOMAIN_SEPARATOR",
      "outputs": [
        {
          "internalType": "bytes32",
          "name": "",
          "type": "bytes32"
        }
      ],
      "stateMutability": "view",
      "type": "function"
    },
    {
      "inputs": [
        {
          "internalType": "address",
          "name": "owner",
          "type": "address"
        },
        {
          "internalType": "address",
          "name": "spender",
          "type": "address"
        }
      ],
      "name": "allowance",
      "outputs": [
        {
          "internalType": "uint256",
          "name": "",
          "type": "uint256"
        }
      ],
      "stateMutability": "view",
      "type": "function"
    },
    {
      "inputs": [
        {
          "internalType": "address",
          "name": "spender",
          "type": "address"
        },
        {
          "internalType": "uint256",
          "name": "amount",
          "type": "uint256"
        }
      ],
      "name": "approve",
      "outputs": [
        {
          "internalType": "bool",
          "name": "",
          "type": "bool"
        }
      ],
      "stateMutability": "nonpayable",
      "type": "function"
    },
    {
      "inputs": [
        {
          "internalType": "address",
          "name": "account",
          "type": "address"
        }
      ],
      "name": "balanceOf",
      "outputs": [
        {
          "internalType": "uint256",
          "name": "",
          "type": "uint256"
        }
      ],
      "stateMutability": "view",
      "type": "function"
    },
    {
      "inputs": [],
      "name": "decimals",
      "outputs": [
        {
          "internalType": "uint8",
          "name": "",
          "type": "uint8"
        }
      ],
      "stateMutability": "view",
      "type": "function"
    },
    {
      "inputs": [
        {
          "internalType": "address",
          "name": "spender",
          "type": "address"
        },
        {
          "internalType": "uint256",
          "name": "subtractedValue",
          "type": "uint256"
        }
      ],
      "name": "decreaseAllowance",
      "outputs": [
        {
          "internalType": "bool",
          "name": "",
          "type": "bool"
        }
      ],
      "stateMutability": "nonpayable",
      "type": "function"
    },
    {
      "inputs": [],
      "name": "getChainId",
      "outputs": [
        {
          "internalType": "uint256",
          "name": "",
          "type": "uint256"
        }
      ],
      "stateMutability": "view",
      "type": "function"
    },
    {
      "inputs": [
        {
          "internalType": "address",
          "name": "spender",
          "type": "address"
        },
        {
          "internalType": "uint256",
          "name": "addedValue",
          "type": "uint256"
        }
      ],
      "name": "increaseAllowance",
      "outputs": [
        {
          "internalType": "bool",
          "name": "",
          "type": "bool"
        }
      ],
      "stateMutability": "nonpayable",
      "type": "function"
    },
    {
      "inputs": [],
      "name": "name",
      "outputs": [
        {
          "internalType": "string",
          "name": "",
          "type": "string"
        }
      ],
      "stateMutability": "view",
      "type": "function"
    },
    {
      "inputs": [
        {
          "internalType": "address",
          "name": "owner",
          "type": "address"
        }
      ],
      "name": "nonces",
      "outputs": [
        {
          "internalType": "uint256",
          "name": "",
          "type": "uint256"
        }
      ],
      "stateMutability": "view",
      "type": "function"
    },
    {
      "inputs": [
        {
          "internalType": "address",
          "name": "owner",
          "type": "address"
        },
        {
          "internalType": "address",
          "name": "spender",
          "type": "address"
        },
        {
          "internalType": "uint256",
          "name": "value",
          "type": "uint256"
        },
        {
          "internalType": "uint256",
          "name": "deadline",
          "type": "uint256"
        },
        {
          "internalType": "uint8",
          "name": "v",
          "type": "uint8"
        },
        {
          "internalType": "bytes32",
          "name": "r",
          "type": "bytes32"
        },
        {
          "internalType": "bytes32",
          "name": "s",
          "type": "bytes32"
        }
      ],
      "name": "permit",
      "outputs": [],
      "stateMutability": "nonpayable",
      "type": "function"
    },
    {
      "inputs": [],
      "name": "symbol",
      "outputs": [
        {
          "internalType": "string",
          "name": "",
          "type": "string"
        }
      ],
      "stateMutability": "view",
      "type": "function"
    },
    {
      "inputs": [],
      "name": "totalSupply",
      "outputs": [
        {
          "internalType": "uint256",
          "name": "",
          "type": "uint256"
        }
      ],
      "stateMutability": "view",
      "type": "function"
    },
    {
      "inputs": [
        {
          "internalType": "address",
          "name": "recipient",
          "type": "address"
        },
        {
          "internalType": "uint256",
          "name": "amount",
          "type": "uint256"
        }
      ],
      "name": "transfer",
      "outputs": [
        {
          "internalType": "bool",
          "name": "",
          "type": "bool"
        }
      ],
      "stateMutability": "nonpayable",
      "type": "function"
    },
    {
      "inputs": [
        {
          "internalType": "address",
          "name": "sender",
          "type": "address"
        },
        {
          "internalType": "address",
          "name": "recipient",
          "type": "address"
        },
        {
          "internalType": "uint256",
          "name": "amount",
          "type": "uint256"
        }
      ],
      "name": "transferFrom",
      "outputs": [
        {
          "internalType": "bool",
          "name": "",
          "type": "bool"
        }
      ],
      "stateMutability": "nonpayable",
      "type": "function"
    }
  ],
  "bytecode": "0x6101406040527f6e71edae12b1b97f4d1f60370fef10105fa2faae0126114a169c64845d6126c961012090815250604051620027ea380380620027ea833981810160405281019062000052919062000450565b83806040518060400160405280600181526020017f310000000000000000000000000000000000000000000000000000000000000081525086868160039080519060200190620000a492919062000300565b508060049080519060200190620000bd92919062000300565b50505060008280519060200120905060008280519060200120905060007f8b73c3c69bb8fe3d512ecc4cf759cc79239f7b179b0ffacaa9a75d522b39400f90508260c081815250508160e081815250504660a08181525050620001288184846200015a60201b60201c565b608081815250508061010081815250505050505050506200015082826200019660201b60201c565b5050505062000896565b600083838346306040516020016200017795949392919062000548565b6040516020818303038152906040528051906020012090509392505050565b600073ffffffffffffffffffffffffffffffffffffffff168273ffffffffffffffffffffffffffffffffffffffff16141562000209576040517f08c379a00000000000000000000000000000000000000000000000000000000081526004016200020090620005a5565b60405180910390fd5b6200021d60008383620002fb60201b60201c565b806002600082825462000231919062000654565b92505081905550806000808473ffffffffffffffffffffffffffffffffffffffff1673ffffffffffffffffffffffffffffffffffffffff168152602001908152602001600020600082825462000288919062000654565b925050819055508173ffffffffffffffffffffffffffffffffffffffff16600073ffffffffffffffffffffffffffffffffffffffff167fddf252ad1be2c89b69c2b068fc378daa952ba7f163c4a11628f55a4df523b3ef83604051620002ef9190620005c7565b60405180910390a35050565b505050565b8280546200030e906200072f565b90600052602060002090601f0160209004810192826200033257600085556200037e565b82601f106200034d57805160ff19168380011785556200037e565b828001600101855582156200037e579182015b828111156200037d57825182559160200191906001019062000360565b5b5090506200038d919062000391565b5090565b5b80821115620003ac57600081600090555060010162000392565b5090565b6000620003c7620003c1846200060d565b620005e4565b905082815260208101848484011115620003e057600080fd5b620003ed848285620006f9565b509392505050565b600081519050620004068162000862565b92915050565b600082601f8301126200041e57600080fd5b815162000430848260208601620003b0565b91505092915050565b6000815190506200044a816200087c565b92915050565b600080600080608085870312156200046757600080fd5b600085015167ffffffffffffffff8111156200048257600080fd5b62000490878288016200040c565b945050602085015167ffffffffffffffff811115620004ae57600080fd5b620004bc878288016200040c565b9350506040620004cf87828801620003f5565b9250506060620004e28782880162000439565b91505092959194509250565b620004f981620006b1565b82525050565b6200050a81620006c5565b82525050565b60006200051f601f8362000643565b91506200052c8262000839565b602082019050919050565b6200054281620006ef565b82525050565b600060a0820190506200055f6000830188620004ff565b6200056e6020830187620004ff565b6200057d6040830186620004ff565b6200058c606083018562000537565b6200059b6080830184620004ee565b9695505050505050565b60006020820190508181036000830152620005c08162000510565b9050919050565b6000602082019050620005de600083018462000537565b92915050565b6000620005f062000603565b9050620005fe828262000765565b919050565b6000604051905090565b600067ffffffffffffffff8211156200062b576200062a620007f9565b5b620006368262000828565b9050602081019050919050565b600082825260208201905092915050565b60006200066182620006ef565b91506200066e83620006ef565b9250827fffffffffffffffffffffffffffffffffffffffffffffffffffffffffffffffff03821115620006a657620006a56200079b565b5b828201905092915050565b6000620006be82620006cf565b9050919050565b6000819050919050565b600073ffffffffffffffffffffffffffffffffffffffff82169050919050565b6000819050919050565b60005b8381101562000719578082015181840152602081019050620006fc565b8381111562000729576000848401525b50505050565b600060028204905060018216806200074857607f821691505b602082108114156200075f576200075e620007ca565b5b50919050565b620007708262000828565b810181811067ffffffffffffffff82111715620007925762000791620007f9565b5b80604052505050565b7f4e487b7100000000000000000000000000000000000000000000000000000000600052601160045260246000fd5b7f4e487b7100000000000000000000000000000000000000000000000000000000600052602260045260246000fd5b7f4e487b7100000000000000000000000000000000000000000000000000000000600052604160045260246000fd5b6000601f19601f8301169050919050565b7f45524332303a206d696e7420746f20746865207a65726f206164647265737300600082015250565b6200086d81620006b1565b81146200087957600080fd5b50565b6200088781620006ef565b81146200089357600080fd5b50565b60805160a05160c05160e0516101005161012051611f04620008e6600039600061085401526000610f0401526000610f4601526000610f2501526000610eb101526000610ed90152611f046000f3fe608060405234801561001057600080fd5b50600436106100f55760003560e01c80633950935111610097578063a457c2d711610066578063a457c2d71461029e578063a9059cbb146102ce578063d505accf146102fe578063dd62ed3e1461031a576100f5565b806339509351146101f057806370a08231146102205780637ecebe001461025057806395d89b4114610280576100f5565b806323b872dd116100d357806323b872dd14610166578063313ce567146101965780633408e470146101b45780633644e515146101d2576100f5565b806306fdde03146100fa578063095ea7b31461011857806318160ddd14610148575b600080fd5b61010261034a565b60405161010f9190611741565b60405180910390f35b610132600480360381019061012d919061133d565b6103dc565b60405161013f9190611612565b60405180910390f35b6101506103fa565b60405161015d91906118e3565b60405180910390f35b610180600480360381019061017b9190611250565b610404565b60405161018d9190611612565b60405180910390f35b61019e610505565b6040516101ab91906118fe565b60405180910390f35b6101bc61050e565b6040516101c991906118e3565b60405180910390f35b6101da610516565b6040516101e7919061162d565b60405180910390f35b61020a6004803603810190610205919061133d565b610525565b6040516102179190611612565b60405180910390f35b61023a600480360381019061023591906111eb565b6105d1565b60405161024791906118e3565b60405180910390f35b61026a600480360381019061026591906111eb565b610619565b60405161027791906118e3565b60405180910390f35b610288610669565b6040516102959190611741565b60405180910390f35b6102b860048036038101906102b3919061133d565b6106fb565b6040516102c59190611612565b60405180910390f35b6102e860048036038101906102e3919061133d565b6107ef565b6040516102f59190611612565b60405180910390f35b6103186004803603810190610313919061129f565b61080d565b005b610334600480360381019061032f9190611214565b6109d4565b60405161034191906118e3565b60405180910390f35b60606003805461035990611a5c565b80601f016020809104026020016040519081016040528092919081815260200182805461038590611a5c565b80156103d25780601f106103a7576101008083540402835291602001916103d2565b820191906000526020600020905b8154815290600101906020018083116103b557829003601f168201915b5050505050905090565b60006103f06103e9610a5b565b8484610a63565b6001905092915050565b6000600254905090565b6000610411848484610c2e565b6000600160008673ffffffffffffffffffffffffffffffffffffffff1673ffffffffffffffffffffffffffffffffffffffff168152602001908152602001600020600061045c610a5b565b73ffffffffffffffffffffffffffffffffffffffff1673ffffffffffffffffffffffffffffffffffffffff168152602001908152602001600020549050828110156104dc576040517f08c379a00000000000000000000000000000000000000000000000000000000081526004016104d390611863565b60405180910390fd5b6104f9856104e8610a5b565b85846104f49190611996565b610a63565b60019150509392505050565b60006012905090565b600046905090565b6000610520610ead565b905090565b60006105c7610532610a5b565b848460016000610540610a5b565b73ffffffffffffffffffffffffffffffffffffffff1673ffffffffffffffffffffffffffffffffffffffff16815260200190815260200160002060008873ffffffffffffffffffffffffffffffffffffffff1673ffffffffffffffffffffffffffffffffffffffff168152602001908152602001600020546105c29190611940565b610a63565b6001905092915050565b60008060008373ffffffffffffffffffffffffffffffffffffffff1673ffffffffffffffffffffffffffffffffffffffff168152602001908152602001600020549050919050565b6000610662600560008473ffffffffffffffffffffffffffffffffffffffff1673ffffffffffffffffffffffffffffffffffffffff168152602001908152602001600020610f70565b9050919050565b60606004805461067890611a5c565b80601f01602080910402602001604051908101604052809291908181526020018280546106a490611a5c565b80156106f15780601f106106c6576101008083540402835291602001916106f1565b820191906000526020600020905b8154815290600101906020018083116106d457829003601f168201915b5050505050905090565b6000806001600061070a610a5b565b73ffffffffffffffffffffffffffffffffffffffff1673ffffffffffffffffffffffffffffffffffffffff16815260200190815260200160002060008573ffffffffffffffffffffffffffffffffffffffff1673ffffffffffffffffffffffffffffffffffffffff168152602001908152602001600020549050828110156107c7576040517f08c379a00000000000000000000000000000000000000000000000000000000081526004016107be906118c3565b60405180910390fd5b6107e46107d2610a5b565b8585846107df9190611996565b610a63565b600191505092915050565b60006108036107fc610a5b565b8484610c2e565b6001905092915050565b83421115610850576040517f08c379a0000000000000000000000000000000000000000000000000000000008152600401610847906117c3565b60405180910390fd5b60007f00000000000000000000000000000000000000000000000000000000000000008888886108bd600560008e73ffffffffffffffffffffffffffffffffffffffff1673ffffffffffffffffffffffffffffffffffffffff168152602001908152602001600020610f70565b896040516020016108d396959493929190611648565b60405160208183030381529060405280519060200120905060006108f682610f7e565b9050600061090682878787610fb7565b90508973ffffffffffffffffffffffffffffffffffffffff168173ffffffffffffffffffffffffffffffffffffffff1614610976576040517f08c379a000000000000000000000000000000000000000000000000000000000815260040161096d90611843565b60405180910390fd5b6109bd600560008c73ffffffffffffffffffffffffffffffffffffffff1673ffffffffffffffffffffffffffffffffffffffff168152602001908152602001600020611142565b6109c88a8a8a610a63565b50505050505050505050565b6000600160008473ffffffffffffffffffffffffffffffffffffffff1673ffffffffffffffffffffffffffffffffffffffff16815260200190815260200160002060008373ffffffffffffffffffffffffffffffffffffffff1673ffffffffffffffffffffffffffffffffffffffff16815260200190815260200160002054905092915050565b600033905090565b600073ffffffffffffffffffffffffffffffffffffffff168373ffffffffffffffffffffffffffffffffffffffff161415610ad3576040517f08c379a0000000000000000000000000000000000000000000000000000000008152600401610aca906118a3565b60405180910390fd5b600073ffffffffffffffffffffffffffffffffffffffff168273ffffffffffffffffffffffffffffffffffffffff161415610b43576040517f08c379a0000000000000000000000000000000000000000000000000000000008152600401610b3a906117a3565b60405180910390fd5b80600160008573ffffffffffffffffffffffffffffffffffffffff1673ffffffffffffffffffffffffffffffffffffffff16815260200190815260200160002060008473ffffffffffffffffffffffffffffffffffffffff1673ffffffffffffffffffffffffffffffffffffffff168152602001908152602001600020819055508173ffffffffffffffffffffffffffffffffffffffff168373ffffffffffffffffffffffffffffffffffffffff167f8c5be1e5ebec7d5bd14f71427d1e84f3dd0314c0f7b2291e5b200ac8c7c3b92583604051610c2191906118e3565b60405180910390a3505050565b600073ffffffffffffffffffffffffffffffffffffffff168373ffffffffffffffffffffffffffffffffffffffff161415610c9e576040517f08c379a0000000000000000000000000000000000000000000000000000000008152600401610c9590611883565b60405180910390fd5b600073ffffffffffffffffffffffffffffffffffffffff168273ffffffffffffffffffffffffffffffffffffffff161415610d0e576040517f08c379a0000000000000000000000000000000000000000000000000000000008152600401610d0590611783565b60405180910390fd5b610d19838383611158565b60008060008573ffffffffffffffffffffffffffffffffffffffff1673ffffffffffffffffffffffffffffffffffffffff16815260200190815260200160002054905081811015610d9f576040517f08c379a0000000000000000000000000000000000000000000000000000000008152600401610d96906117e3565b60405180910390fd5b8181610dab9190611996565b6000808673ffffffffffffffffffffffffffffffffffffffff1673ffffffffffffffffffffffffffffffffffffffff16815260200190815260200160002081905550816000808573ffffffffffffffffffffffffffffffffffffffff1673ffffffffffffffffffffffffffffffffffffffff1681526020019081526020016000206000828254610e3b9190611940565b925050819055508273ffffffffffffffffffffffffffffffffffffffff168473ffffffffffffffffffffffffffffffffffffffff167fddf252ad1be2c89b69c2b068fc378daa952ba7f163c4a11628f55a4df523b3ef84604051610e9f91906118e3565b60405180910390a350505050565b60007f0000000000000000000000000000000000000000000000000000000000000000461415610eff577f00000000000000000000000000000000000000000000000000000000000000009050610f6d565b610f6a7f00000000000000000000000000000000000000000000000000000000000000007f00000000000000000000000000000000000000000000000000000000000000007f000000000000000000000000000000000000000000000000000000000000000061115d565b90505b90565b600081600001549050919050565b6000610f88610ead565b82604051602001610f9a9291906115db565b604051602081830303815290604052805190602001209050919050565b60007f7fffffffffffffffffffffffffffffff5d576e7357a4501ddfe92f46681b20a08260001c111561101f576040517f08c379a000000000000000000000000000000000000000000000000000000000815260040161101690611803565b60405180910390fd5b601b8460ff1614806110345750601c8460ff16145b611073576040517f08c379a000000000000000000000000000000000000000000000000000000000815260040161106a90611823565b60405180910390fd5b60006001868686866040516000815260200160405260405161109894939291906116fc565b6020604051602081039080840390855afa1580156110ba573d6000803e3d6000fd5b505050602060405103519050600073ffffffffffffffffffffffffffffffffffffffff168173ffffffffffffffffffffffffffffffffffffffff161415611136576040517f08c379a000000000000000000000000000000000000000000000000000000000815260040161112d90611763565b60405180910390fd5b80915050949350505050565b6001816000016000828254019250508190555050565b505050565b600083838346306040516020016111789594939291906116a9565b6040516020818303038152906040528051906020012090509392505050565b6000813590506111a681611e72565b92915050565b6000813590506111bb81611e89565b92915050565b6000813590506111d081611ea0565b92915050565b6000813590506111e581611eb7565b92915050565b6000602082840312156111fd57600080fd5b600061120b84828501611197565b91505092915050565b6000806040838503121561122757600080fd5b600061123585828601611197565b925050602061124685828601611197565b9150509250929050565b60008060006060848603121561126557600080fd5b600061127386828701611197565b935050602061128486828701611197565b9250506040611295868287016111c1565b9150509250925092565b600080600080600080600060e0888a0312156112ba57600080fd5b60006112c88a828b01611197565b97505060206112d98a828b01611197565b96505060406112ea8a828b016111c1565b95505060606112fb8a828b016111c1565b945050608061130c8a828b016111d6565b93505060a061131d8a828b016111ac565b92505060c061132e8a828b016111ac565b91505092959891949750929550565b6000806040838503121561135057600080fd5b600061135e85828601611197565b925050602061136f858286016111c1565b9150509250929050565b611382816119ca565b82525050565b611391816119dc565b82525050565b6113a0816119e8565b82525050565b6113b76113b2826119e8565b611a8e565b82525050565b60006113c882611919565b6113d28185611924565b93506113e2818560208601611a29565b6113eb81611af6565b840191505092915050565b6000611403601883611924565b915061140e82611b07565b602082019050919050565b6000611426602383611924565b915061143182611b30565b604082019050919050565b6000611449602283611924565b915061145482611b7f565b604082019050919050565b600061146c600283611935565b915061147782611bce565b600282019050919050565b600061148f601d83611924565b915061149a82611bf7565b602082019050919050565b60006114b2602683611924565b91506114bd82611c20565b604082019050919050565b60006114d5602283611924565b91506114e082611c6f565b604082019050919050565b60006114f8602283611924565b915061150382611cbe565b604082019050919050565b600061151b601e83611924565b915061152682611d0d565b602082019050919050565b600061153e602883611924565b915061154982611d36565b604082019050919050565b6000611561602583611924565b915061156c82611d85565b604082019050919050565b6000611584602483611924565b915061158f82611dd4565b604082019050919050565b60006115a7602583611924565b91506115b282611e23565b604082019050919050565b6115c681611a12565b82525050565b6115d581611a1c565b82525050565b60006115e68261145f565b91506115f282856113a6565b60208201915061160282846113a6565b6020820191508190509392505050565b60006020820190506116276000830184611388565b92915050565b60006020820190506116426000830184611397565b92915050565b600060c08201905061165d6000830189611397565b61166a6020830188611379565b6116776040830187611379565b61168460608301866115bd565b61169160808301856115bd565b61169e60a08301846115bd565b979650505050505050565b600060a0820190506116be6000830188611397565b6116cb6020830187611397565b6116d86040830186611397565b6116e560608301856115bd565b6116f26080830184611379565b9695505050505050565b60006080820190506117116000830187611397565b61171e60208301866115cc565b61172b6040830185611397565b6117386060830184611397565b95945050505050565b6000602082019050818103600083015261175b81846113bd565b905092915050565b6000602082019050818103600083015261177c816113f6565b9050919050565b6000602082019050818103600083015261179c81611419565b9050919050565b600060208201905081810360008301526117bc8161143c565b9050919050565b600060208201905081810360008301526117dc81611482565b9050919050565b600060208201905081810360008301526117fc816114a5565b9050919050565b6000602082019050818103600083015261181c816114c8565b9050919050565b6000602082019050818103600083015261183c816114eb565b9050919050565b6000602082019050818103600083015261185c8161150e565b9050919050565b6000602082019050818103600083015261187c81611531565b9050919050565b6000602082019050818103600083015261189c81611554565b9050919050565b600060208201905081810360008301526118bc81611577565b9050919050565b600060208201905081810360008301526118dc8161159a565b9050919050565b60006020820190506118f860008301846115bd565b92915050565b600060208201905061191360008301846115cc565b92915050565b600081519050919050565b600082825260208201905092915050565b600081905092915050565b600061194b82611a12565b915061195683611a12565b9250827fffffffffffffffffffffffffffffffffffffffffffffffffffffffffffffffff0382111561198b5761198a611a98565b5b828201905092915050565b60006119a182611a12565b91506119ac83611a12565b9250828210156119bf576119be611a98565b5b828203905092915050565b60006119d5826119f2565b9050919050565b60008115159050919050565b6000819050919050565b600073ffffffffffffffffffffffffffffffffffffffff82169050919050565b6000819050919050565b600060ff82169050919050565b60005b83811015611a47578082015181840152602081019050611a2c565b83811115611a56576000848401525b50505050565b60006002820490506001821680611a7457607f821691505b60208210811415611a8857611a87611ac7565b5b50919050565b6000819050919050565b7f4e487b7100000000000000000000000000000000000000000000000000000000600052601160045260246000fd5b7f4e487b7100000000000000000000000000000000000000000000000000000000600052602260045260246000fd5b6000601f19601f8301169050919050565b7f45434453413a20696e76616c6964207369676e61747572650000000000000000600082015250565b7f45524332303a207472616e7366657220746f20746865207a65726f206164647260008201527f6573730000000000000000000000000000000000000000000000000000000000602082015250565b7f45524332303a20617070726f766520746f20746865207a65726f20616464726560008201527f7373000000000000000000000000000000000000000000000000000000000000602082015250565b7f1901000000000000000000000000000000000000000000000000000000000000600082015250565b7f45524332305065726d69743a206578706972656420646561646c696e65000000600082015250565b7f45524332303a207472616e7366657220616d6f756e742065786365656473206260008201527f616c616e63650000000000000000000000000000000000000000000000000000602082015250565b7f45434453413a20696e76616c6964207369676e6174757265202773272076616c60008201527f7565000000000000000000000000000000000000000000000000000000000000602082015250565b7f45434453413a20696e76616c6964207369676e6174757265202776272076616c60008201527f7565000000000000000000000000000000000000000000000000000000000000602082015250565b7f45524332305065726d69743a20696e76616c6964207369676e61747572650000600082015250565b7f45524332303a207472616e7366657220616d6f756e742065786365656473206160008201527f6c6c6f77616e6365000000000000000000000000000000000000000000000000602082015250565b7f45524332303a207472616e736665722066726f6d20746865207a65726f20616460008201527f6472657373000000000000000000000000000000000000000000000000000000602082015250565b7f45524332303a20617070726f76652066726f6d20746865207a65726f2061646460008201527f7265737300000000000000000000000000000000000000000000000000000000602082015250565b7f45524332303a2064656372656173656420616c6c6f77616e63652062656c6f7760008201527f207a65726f000000000000000000000000000000000000000000000000000000602082015250565b611e7b816119ca565b8114611e8657600080fd5b50565b611e92816119e8565b8114611e9d57600080fd5b50565b611ea981611a12565b8114611eb457600080fd5b50565b611ec081611a1c565b8114611ecb57600080fd5b5056fea2646970667358221220ea888a6c9c29eddb2fdf55e5042a6751a736b896f0c17f381bc6d361986691a264736f6c63430008040033",
  "linkReferences": {},
  "deployedLinkReferences": {}
}