{
  "_format": "hh-sol-artifact-1",
  "contractName": "ERC721GSNRecipientMock",
  "sourceName": "contracts/src/OpenZeppelin/mocks/ERC721GSNRecipientMock.sol",
  "abi": [
    {
      "inputs": [
        {
          "internalType": "string",
          "name": "name",
          "type": "string"
        },
        {
          "internalType": "string",
          "name": "symbol",
          "type": "string"
        },
        {
          "internalType": "address",
          "name": "trustedSigner",
          "type": "address"
        }
      ],
      "stateMutability": "nonpayable",
      "type": "constructor"
    },
    {
      "anonymous": false,
      "inputs": [
        {
          "indexed": true,
          "internalType": "address",
          "name": "owner",
          "type": "address"
        },
        {
          "indexed": true,
          "internalType": "address",
          "name": "approved",
          "type": "address"
        },
        {
          "indexed": true,
          "internalType": "uint256",
          "name": "tokenId",
          "type": "uint256"
        }
      ],
      "name": "Approval",
      "type": "event"
    },
    {
      "anonymous": false,
      "inputs": [
        {
          "indexed": true,
          "internalType": "address",
          "name": "owner",
          "type": "address"
        },
        {
          "indexed": true,
          "internalType": "address",
          "name": "operator",
          "type": "address"
        },
        {
          "indexed": false,
          "internalType": "bool",
          "name": "approved",
          "type": "bool"
        }
      ],
      "name": "ApprovalForAll",
      "type": "event"
    },
    {
      "anonymous": false,
      "inputs": [
        {
          "indexed": true,
          "internalType": "address",
          "name": "oldRelayHub",
          "type": "address"
        },
        {
          "indexed": true,
          "internalType": "address",
          "name": "newRelayHub",
          "type": "address"
        }
      ],
      "name": "RelayHubChanged",
      "type": "event"
    },
    {
      "anonymous": false,
      "inputs": [
        {
          "indexed": true,
          "internalType": "address",
          "name": "from",
          "type": "address"
        },
        {
          "indexed": true,
          "internalType": "address",
          "name": "to",
          "type": "address"
        },
        {
          "indexed": true,
          "internalType": "uint256",
          "name": "tokenId",
          "type": "uint256"
        }
      ],
      "name": "Transfer",
      "type": "event"
    },
    {
      "inputs": [
        {
          "internalType": "address",
          "name": "relay",
          "type": "address"
        },
        {
          "internalType": "address",
          "name": "from",
          "type": "address"
        },
        {
          "internalType": "bytes",
          "name": "encodedFunction",
          "type": "bytes"
        },
        {
          "internalType": "uint256",
          "name": "transactionFee",
          "type": "uint256"
        },
        {
          "internalType": "uint256",
          "name": "gasPrice",
          "type": "uint256"
        },
        {
          "internalType": "uint256",
          "name": "gasLimit",
          "type": "uint256"
        },
        {
          "internalType": "uint256",
          "name": "nonce",
          "type": "uint256"
        },
        {
          "internalType": "bytes",
          "name": "approvalData",
          "type": "bytes"
        },
        {
          "internalType": "uint256",
          "name": "",
          "type": "uint256"
        }
      ],
      "name": "acceptRelayedCall",
      "outputs": [
        {
          "internalType": "uint256",
          "name": "",
          "type": "uint256"
        },
        {
          "internalType": "bytes",
          "name": "",
          "type": "bytes"
        }
      ],
      "stateMutability": "view",
      "type": "function"
    },
    {
      "inputs": [
        {
          "internalType": "address",
          "name": "to",
          "type": "address"
        },
        {
          "internalType": "uint256",
          "name": "tokenId",
          "type": "uint256"
        }
      ],
      "name": "approve",
      "outputs": [],
      "stateMutability": "nonpayable",
      "type": "function"
    },
    {
      "inputs": [
        {
          "internalType": "address",
          "name": "owner",
          "type": "address"
        }
      ],
      "name": "balanceOf",
      "outputs": [
        {
          "internalType": "uint256",
          "name": "",
          "type": "uint256"
        }
      ],
      "stateMutability": "view",
      "type": "function"
    },
    {
      "inputs": [],
      "name": "baseURI",
      "outputs": [
        {
          "internalType": "string",
          "name": "",
          "type": "string"
        }
      ],
      "stateMutability": "view",
      "type": "function"
    },
    {
      "inputs": [
        {
          "internalType": "uint256",
          "name": "tokenId",
          "type": "uint256"
        }
      ],
      "name": "getApproved",
      "outputs": [
        {
          "internalType": "address",
          "name": "",
          "type": "address"
        }
      ],
      "stateMutability": "view",
      "type": "function"
    },
    {
      "inputs": [],
      "name": "getHubAddr",
      "outputs": [
        {
          "internalType": "address",
          "name": "",
          "type": "address"
        }
      ],
      "stateMutability": "view",
      "type": "function"
    },
    {
      "inputs": [
        {
          "internalType": "address",
          "name": "owner",
          "type": "address"
        },
        {
          "internalType": "address",
          "name": "operator",
          "type": "address"
        }
      ],
      "name": "isApprovedForAll",
      "outputs": [
        {
          "internalType": "bool",
          "name": "",
          "type": "bool"
        }
      ],
      "stateMutability": "view",
      "type": "function"
    },
    {
      "inputs": [
        {
          "internalType": "uint256",
          "name": "tokenId",
          "type": "uint256"
        }
      ],
      "name": "mint",
      "outputs": [],
      "stateMutability": "nonpayable",
      "type": "function"
    },
    {
      "inputs": [],
      "name": "name",
      "outputs": [
        {
          "internalType": "string",
          "name": "",
          "type": "string"
        }
      ],
      "stateMutability": "view",
      "type": "function"
    },
    {
      "inputs": [
        {
          "internalType": "uint256",
          "name": "tokenId",
          "type": "uint256"
        }
      ],
      "name": "ownerOf",
      "outputs": [
        {
          "internalType": "address",
          "name": "",
          "type": "address"
        }
      ],
      "stateMutability": "view",
      "type": "function"
    },
    {
      "inputs": [
        {
          "internalType": "bytes",
          "name": "context",
          "type": "bytes"
        },
        {
          "internalType": "bool",
          "name": "success",
          "type": "bool"
        },
        {
          "internalType": "uint256",
          "name": "actualCharge",
          "type": "uint256"
        },
        {
          "internalType": "bytes32",
          "name": "preRetVal",
          "type": "bytes32"
        }
      ],
      "name": "postRelayedCall",
      "outputs": [],
      "stateMutability": "nonpayable",
      "type": "function"
    },
    {
      "inputs": [
        {
          "internalType": "bytes",
          "name": "context",
          "type": "bytes"
        }
      ],
      "name": "preRelayedCall",
      "outputs": [
        {
          "internalType": "bytes32",
          "name": "",
          "type": "bytes32"
        }
      ],
      "stateMutability": "nonpayable",
      "type": "function"
    },
    {
      "inputs": [],
      "name": "relayHubVersion",
      "outputs": [
        {
          "internalType": "string",
          "name": "",
          "type": "string"
        }
      ],
      "stateMutability": "view",
      "type": "function"
    },
    {
      "inputs": [
        {
          "internalType": "address",
          "name": "from",
          "type": "address"
        },
        {
          "internalType": "address",
          "name": "to",
          "type": "address"
        },
        {
          "internalType": "uint256",
          "name": "tokenId",
          "type": "uint256"
        }
      ],
      "name": "safeTransferFrom",
      "outputs": [],
      "stateMutability": "nonpayable",
      "type": "function"
    },
    {
      "inputs": [
        {
          "internalType": "address",
          "name": "from",
          "type": "address"
        },
        {
          "internalType": "address",
          "name": "to",
          "type": "address"
        },
        {
          "internalType": "uint256",
          "name": "tokenId",
          "type": "uint256"
        },
        {
          "internalType": "bytes",
          "name": "_data",
          "type": "bytes"
        }
      ],
      "name": "safeTransferFrom",
      "outputs": [],
      "stateMutability": "nonpayable",
      "type": "function"
    },
    {
      "inputs": [
        {
          "internalType": "address",
          "name": "operator",
          "type": "address"
        },
        {
          "internalType": "bool",
          "name": "approved",
          "type": "bool"
        }
      ],
      "name": "setApprovalForAll",
      "outputs": [],
      "stateMutability": "nonpayable",
      "type": "function"
    },
    {
      "inputs": [
        {
          "internalType": "bytes4",
          "name": "interfaceId",
          "type": "bytes4"
        }
      ],
      "name": "supportsInterface",
      "outputs": [
        {
          "internalType": "bool",
          "name": "",
          "type": "bool"
        }
      ],
      "stateMutability": "view",
      "type": "function"
    },
    {
      "inputs": [],
      "name": "symbol",
      "outputs": [
        {
          "internalType": "string",
          "name": "",
          "type": "string"
        }
      ],
      "stateMutability": "view",
      "type": "function"
    },
    {
      "inputs": [
        {
          "internalType": "uint256",
          "name": "index",
          "type": "uint256"
        }
      ],
      "name": "tokenByIndex",
      "outputs": [
        {
          "internalType": "uint256",
          "name": "",
          "type": "uint256"
        }
      ],
      "stateMutability": "view",
      "type": "function"
    },
    {
      "inputs": [
        {
          "internalType": "address",
          "name": "owner",
          "type": "address"
        },
        {
          "internalType": "uint256",
          "name": "index",
          "type": "uint256"
        }
      ],
      "name": "tokenOfOwnerByIndex",
      "outputs": [
        {
          "internalType": "uint256",
          "name": "",
          "type": "uint256"
        }
      ],
      "stateMutability": "view",
      "type": "function"
    },
    {
      "inputs": [
        {
          "internalType": "uint256",
          "name": "tokenId",
          "type": "uint256"
        }
      ],
      "name": "tokenURI",
      "outputs": [
        {
          "internalType": "string",
          "name": "",
          "type": "string"
        }
      ],
      "stateMutability": "view",
      "type": "function"
    },
    {
      "inputs": [],
      "name": "totalSupply",
      "outputs": [
        {
          "internalType": "uint256",
          "name": "",
          "type": "uint256"
        }
      ],
      "stateMutability": "view",
      "type": "function"
    },
    {
      "inputs": [
        {
          "internalType": "address",
          "name": "from",
          "type": "address"
        },
        {
          "internalType": "address",
          "name": "to",
          "type": "address"
        },
        {
          "internalType": "uint256",
          "name": "tokenId",
          "type": "uint256"
        }
      ],
      "name": "transferFrom",
      "outputs": [],
      "stateMutability": "nonpayable",
      "type": "function"
    }
  ],
  "bytecode": "0x608060405273d216153c06e857cd7f72665e0af1d7d82172f494600a60006101000a81548173ffffffffffffffffffffffffffffffffffffffff021916908373ffffffffffffffffffffffffffffffffffffffff1602179055503480156200006657600080fd5b50604051620043a9380380620043a983398181016040528101906200008c919062000456565b808383620000c07f01ffc9a7000000000000000000000000000000000000000000000000000000006200024560201b60201c565b8160069080519060200190620000d89291906200031d565b508060079080519060200190620000f19291906200031d565b50620001237f80ac58cd000000000000000000000000000000000000000000000000000000006200024560201b60201c565b620001547f5b5e139f000000000000000000000000000000000000000000000000000000006200024560201b60201c565b620001857f780e9d63000000000000000000000000000000000000000000000000000000006200024560201b60201c565b5050600073ffffffffffffffffffffffffffffffffffffffff168173ffffffffffffffffffffffffffffffffffffffff161415620001fa576040517f08c379a0000000000000000000000000000000000000000000000000000000008152600401620001f1906200054e565b60405180910390fd5b80600b60006101000a81548173ffffffffffffffffffffffffffffffffffffffff021916908373ffffffffffffffffffffffffffffffffffffffff16021790555050505050620007b7565b63ffffffff60e01b817bffffffffffffffffffffffffffffffffffffffffffffffffffffffff19161415620002b1576040517f08c379a0000000000000000000000000000000000000000000000000000000008152600401620002a8906200052c565b60405180910390fd5b6001600080837bffffffffffffffffffffffffffffffffffffffffffffffffffffffff19167bffffffffffffffffffffffffffffffffffffffffffffffffffffffff1916815260200190815260200160002060006101000a81548160ff02191690831515021790555050565b8280546200032b906200064a565b90600052602060002090601f0160209004810192826200034f57600085556200039b565b82601f106200036a57805160ff19168380011785556200039b565b828001600101855582156200039b579182015b828111156200039a5782518255916020019190600101906200037d565b5b509050620003aa9190620003ae565b5090565b5b80821115620003c9576000816000905550600101620003af565b5090565b6000620003e4620003de8462000599565b62000570565b905082815260208101848484011115620003fd57600080fd5b6200040a84828562000614565b509392505050565b60008151905062000423816200079d565b92915050565b600082601f8301126200043b57600080fd5b81516200044d848260208601620003cd565b91505092915050565b6000806000606084860312156200046c57600080fd5b600084015167ffffffffffffffff8111156200048757600080fd5b620004958682870162000429565b935050602084015167ffffffffffffffff811115620004b357600080fd5b620004c18682870162000429565b9250506040620004d48682870162000412565b9150509250925092565b6000620004ed601c83620005cf565b9150620004fa8262000725565b602082019050919050565b600062000514603983620005cf565b915062000521826200074e565b604082019050919050565b600060208201905081810360008301526200054781620004de565b9050919050565b60006020820190508181036000830152620005698162000505565b9050919050565b60006200057c6200058f565b90506200058a828262000680565b919050565b6000604051905090565b600067ffffffffffffffff821115620005b757620005b6620006e5565b5b620005c28262000714565b9050602081019050919050565b600082825260208201905092915050565b6000620005ed82620005f4565b9050919050565b600073ffffffffffffffffffffffffffffffffffffffff82169050919050565b60005b838110156200063457808201518184015260208101905062000617565b8381111562000644576000848401525b50505050565b600060028204905060018216806200066357607f821691505b602082108114156200067a5762000679620006b6565b5b50919050565b6200068b8262000714565b810181811067ffffffffffffffff82111715620006ad57620006ac620006e5565b5b80604052505050565b7f4e487b7100000000000000000000000000000000000000000000000000000000600052602260045260246000fd5b7f4e487b7100000000000000000000000000000000000000000000000000000000600052604160045260246000fd5b6000601f19601f8301169050919050565b7f4552433136353a20696e76616c696420696e7465726661636520696400000000600082015250565b7f47534e526563697069656e745369676e61747572653a2074727573746564207360008201527f69676e657220697320746865207a65726f206164647265737300000000000000602082015250565b620007a881620005e0565b8114620007b457600080fd5b50565b613be280620007c76000396000f3fe608060405234801561001057600080fd5b506004361061014d5760003560e01c806370a08231116100c3578063a22cb4651161007c578063a22cb465146103d9578063ad61ccd5146103f5578063b88d4fde14610413578063c87b56dd1461042f578063e06e0e221461045f578063e985e9c51461047b5761014d565b806370a08231146102f057806374e861d61461032057806380274db71461033e57806383947ea01461036e57806395d89b411461039f578063a0712d68146103bd5761014d565b806323b872dd1161011557806323b872dd1461020a5780632f745c591461022657806342842e0e146102565780634f6ccce7146102725780636352211e146102a25780636c0360eb146102d25761014d565b806301ffc9a71461015257806306fdde0314610182578063081812fc146101a0578063095ea7b3146101d057806318160ddd146101ec575b600080fd5b61016c6004803603810190610167919061272c565b6104ab565b6040516101799190612df6565b60405180910390f35b61018a610512565b6040516101979190612e71565b60405180910390f35b6101ba60048036038101906101b5919061283a565b6105a4565b6040516101c79190612d8f565b60405180910390f35b6101ea60048036038101906101e591906126f0565b610629565b005b6101f4610741565b6040516102019190613113565b60405180910390f35b610224600480360381019061021f91906125ea565b610752565b005b610240600480360381019061023b91906126f0565b6107b2565b60405161024d9190613113565b60405180910390f35b610270600480360381019061026b91906125ea565b61080d565b005b61028c6004803603810190610287919061283a565b61082d565b6040516102999190613113565b60405180910390f35b6102bc60048036038101906102b7919061283a565b610850565b6040516102c99190612d8f565b60405180910390f35b6102da610887565b6040516102e79190612e71565b60405180910390f35b61030a6004803603810190610305919061248f565b610919565b6040516103179190613113565b60405180910390f35b6103286109d8565b6040516103359190612d8f565b60405180910390f35b6103586004803603810190610353919061277e565b610a02565b6040516103659190612e11565b60405180910390f35b610388600480360381019061038391906124f4565b610a89565b60405161039692919061312e565b60405180910390f35b6103a7610ba6565b6040516103b49190612e71565b60405180910390f35b6103d760048036038101906103d2919061283a565b610c38565b005b6103f360048036038101906103ee91906126b4565b610c4c565b005b6103fd610dcd565b60405161040a9190612e71565b60405180910390f35b61042d60048036038101906104289190612639565b610e0a565b005b6104496004803603810190610444919061283a565b610e6c565b6040516104569190612e71565b60405180910390f35b610479600480360381019061047491906127bf565b610fdf565b005b610495600480360381019061049091906124b8565b611066565b6040516104a29190612df6565b60405180910390f35b6000806000837bffffffffffffffffffffffffffffffffffffffffffffffffffffffff19167bffffffffffffffffffffffffffffffffffffffffffffffffffffffff1916815260200190815260200160002060009054906101000a900460ff169050919050565b6060600680546105219061338a565b80601f016020809104026020016040519081016040528092919081815260200182805461054d9061338a565b801561059a5780601f1061056f5761010080835404028352916020019161059a565b820191906000526020600020905b81548152906001019060200180831161057d57829003601f168201915b5050505050905090565b60006105af826110fa565b6105ee576040517f08c379a00000000000000000000000000000000000000000000000000000000081526004016105e590613053565b60405180910390fd5b6004600083815260200190815260200160002060009054906101000a900473ffffffffffffffffffffffffffffffffffffffff169050919050565b600061063482610850565b90508073ffffffffffffffffffffffffffffffffffffffff168373ffffffffffffffffffffffffffffffffffffffff1614156106a5576040517f08c379a000000000000000000000000000000000000000000000000000000000815260040161069c906130b3565b60405180910390fd5b8073ffffffffffffffffffffffffffffffffffffffff166106c4611117565b73ffffffffffffffffffffffffffffffffffffffff1614806106f357506106f2816106ed611117565b611066565b5b610732576040517f08c379a000000000000000000000000000000000000000000000000000000000815260040161072990612fb3565b60405180910390fd5b61073c8383611126565b505050565b600061074d60026111df565b905090565b61076361075d611117565b826111f4565b6107a2576040517f08c379a0000000000000000000000000000000000000000000000000000000008152600401610799906130f3565b60405180910390fd5b6107ad8383836112d2565b505050565b600061080582600160008673ffffffffffffffffffffffffffffffffffffffff1673ffffffffffffffffffffffffffffffffffffffff1681526020019081526020016000206114e990919063ffffffff16565b905092915050565b61082883838360405180602001604052806000815250610e0a565b505050565b60008061084483600261150390919063ffffffff16565b50905080915050919050565b600061088082604051806060016040528060298152602001613b8460299139600261152f9092919063ffffffff16565b9050919050565b6060600980546108969061338a565b80601f01602080910402602001604051908101604052809291908181526020018280546108c29061338a565b801561090f5780601f106108e45761010080835404028352916020019161090f565b820191906000526020600020905b8154815290600101906020018083116108f257829003601f168201915b5050505050905090565b60008073ffffffffffffffffffffffffffffffffffffffff168273ffffffffffffffffffffffffffffffffffffffff16141561098a576040517f08c379a000000000000000000000000000000000000000000000000000000000815260040161098190612fd3565b60405180910390fd5b6109d1600160008473ffffffffffffffffffffffffffffffffffffffff1673ffffffffffffffffffffffffffffffffffffffff16815260200190815260200160002061154e565b9050919050565b6000600a60009054906101000a900473ffffffffffffffffffffffffffffffffffffffff16905090565b6000610a0c6109d8565b73ffffffffffffffffffffffffffffffffffffffff163373ffffffffffffffffffffffffffffffffffffffff1614610a79576040517f08c379a0000000000000000000000000000000000000000000000000000000008152600401610a70906130d3565b60405180910390fd5b610a8282611563565b9050919050565b6000606060008b8b8b8b8b8b8b610a9e6109d8565b30604051602001610ab799989796959493929190612ca6565b6040516020818303038152906040529050600b60009054906101000a900473ffffffffffffffffffffffffffffffffffffffff1673ffffffffffffffffffffffffffffffffffffffff16610b2386610b15848051906020012061156a565b61159a90919063ffffffff16565b73ffffffffffffffffffffffffffffffffffffffff161415610b5157610b47611614565b9250925050610b98565b610b92600080811115610b8d577f4e487b7100000000000000000000000000000000000000000000000000000000600052602160045260246000fd5b611638565b92509250505b995099975050505050505050565b606060078054610bb59061338a565b80601f0160208091040260200160405190810160405280929190818152602001828054610be19061338a565b8015610c2e5780601f10610c0357610100808354040283529160200191610c2e565b820191906000526020600020905b815481529060010190602001808311610c1157829003601f168201915b5050505050905090565b610c49610c43611117565b82611662565b50565b610c54611117565b73ffffffffffffffffffffffffffffffffffffffff168273ffffffffffffffffffffffffffffffffffffffff161415610cc2576040517f08c379a0000000000000000000000000000000000000000000000000000000008152600401610cb990612f53565b60405180910390fd5b8060056000610ccf611117565b73ffffffffffffffffffffffffffffffffffffffff1673ffffffffffffffffffffffffffffffffffffffff16815260200190815260200160002060008473ffffffffffffffffffffffffffffffffffffffff1673ffffffffffffffffffffffffffffffffffffffff16815260200190815260200160002060006101000a81548160ff0219169083151502179055508173ffffffffffffffffffffffffffffffffffffffff16610d7c611117565b73ffffffffffffffffffffffffffffffffffffffff167f17307eab39ab6107e8899845ad3d59bd9653f200f220920489ca2b5937696c3183604051610dc19190612df6565b60405180910390a35050565b60606040518060400160405280600581526020017f312e302e30000000000000000000000000000000000000000000000000000000815250905090565b610e1b610e15611117565b836111f4565b610e5a576040517f08c379a0000000000000000000000000000000000000000000000000000000008152600401610e51906130f3565b60405180910390fd5b610e66848484846117f0565b50505050565b6060610e77826110fa565b610eb6576040517f08c379a0000000000000000000000000000000000000000000000000000000008152600401610ead90613093565b60405180910390fd5b6000600860008481526020019081526020016000208054610ed69061338a565b80601f0160208091040260200160405190810160405280929190818152602001828054610f029061338a565b8015610f4f5780601f10610f2457610100808354040283529160200191610f4f565b820191906000526020600020905b815481529060010190602001808311610f3257829003601f168201915b505050505090506000610f60610887565b9050600081511415610f76578192505050610fda565b600082511115610fab578082604051602001610f93929190612d45565b60405160208183030381529060405292505050610fda565b80610fb58561184c565b604051602001610fc6929190612d45565b604051602081830303815290604052925050505b919050565b610fe76109d8565b73ffffffffffffffffffffffffffffffffffffffff163373ffffffffffffffffffffffffffffffffffffffff1614611054576040517f08c379a000000000000000000000000000000000000000000000000000000000815260040161104b906130d3565b60405180910390fd5b611060848484846119f9565b50505050565b6000600560008473ffffffffffffffffffffffffffffffffffffffff1673ffffffffffffffffffffffffffffffffffffffff16815260200190815260200160002060008373ffffffffffffffffffffffffffffffffffffffff1673ffffffffffffffffffffffffffffffffffffffff16815260200190815260200160002060009054906101000a900460ff16905092915050565b60006111108260026119ff90919063ffffffff16565b9050919050565b6000611121611a19565b905090565b816004600083815260200190815260200160002060006101000a81548173ffffffffffffffffffffffffffffffffffffffff021916908373ffffffffffffffffffffffffffffffffffffffff160217905550808273ffffffffffffffffffffffffffffffffffffffff1661119983610850565b73ffffffffffffffffffffffffffffffffffffffff167f8c5be1e5ebec7d5bd14f71427d1e84f3dd0314c0f7b2291e5b200ac8c7c3b92560405160405180910390a45050565b60006111ed82600001611a71565b9050919050565b60006111ff826110fa565b61123e576040517f08c379a000000000000000000000000000000000000000000000000000000000815260040161123590612f93565b60405180910390fd5b600061124983610850565b90508073ffffffffffffffffffffffffffffffffffffffff168473ffffffffffffffffffffffffffffffffffffffff1614806112b857508373ffffffffffffffffffffffffffffffffffffffff166112a0846105a4565b73ffffffffffffffffffffffffffffffffffffffff16145b806112c957506112c88185611066565b5b91505092915050565b8273ffffffffffffffffffffffffffffffffffffffff166112f282610850565b73ffffffffffffffffffffffffffffffffffffffff1614611348576040517f08c379a000000000000000000000000000000000000000000000000000000000815260040161133f90613073565b60405180910390fd5b600073ffffffffffffffffffffffffffffffffffffffff168273ffffffffffffffffffffffffffffffffffffffff1614156113b8576040517f08c379a00000000000000000000000000000000000000000000000000000000081526004016113af90612f33565b60405180910390fd5b6113c3838383611a82565b6113ce600082611126565b61141f81600160008673ffffffffffffffffffffffffffffffffffffffff1673ffffffffffffffffffffffffffffffffffffffff168152602001908152602001600020611a8790919063ffffffff16565b5061147181600160008573ffffffffffffffffffffffffffffffffffffffff1673ffffffffffffffffffffffffffffffffffffffff168152602001908152602001600020611aa190919063ffffffff16565b5061148881836002611abb9092919063ffffffff16565b50808273ffffffffffffffffffffffffffffffffffffffff168473ffffffffffffffffffffffffffffffffffffffff167fddf252ad1be2c89b69c2b068fc378daa952ba7f163c4a11628f55a4df523b3ef60405160405180910390a4505050565b60006114f88360000183611af0565b60001c905092915050565b6000806000806115168660000186611b8a565b915091508160001c8160001c9350935050509250929050565b6000611542846000018460001b84611c3a565b60001c90509392505050565b600061155c82600001611d01565b9050919050565b6000919050565b60008160405160200161157d9190612d69565b604051602081830303815290604052805190602001209050919050565b600060418251146115e0576040517f08c379a00000000000000000000000000000000000000000000000000000000081526004016115d790612ed3565b60405180910390fd5b60008060006020850151925060408501519150606085015160001a905061160986828585611d12565b935050505092915050565b6000606061163060405180602001604052806000815250611e9d565b915091509091565b6000606082600b6116499190613202565b6040518060200160405280600081525091509150915091565b600073ffffffffffffffffffffffffffffffffffffffff168273ffffffffffffffffffffffffffffffffffffffff1614156116d2576040517f08c379a00000000000000000000000000000000000000000000000000000000081526004016116c990613033565b60405180910390fd5b6116db816110fa565b1561171b576040517f08c379a000000000000000000000000000000000000000000000000000000000815260040161171290612f13565b60405180910390fd5b61172760008383611a82565b61177881600160008573ffffffffffffffffffffffffffffffffffffffff1673ffffffffffffffffffffffffffffffffffffffff168152602001908152602001600020611aa190919063ffffffff16565b5061178f81836002611abb9092919063ffffffff16565b50808273ffffffffffffffffffffffffffffffffffffffff16600073ffffffffffffffffffffffffffffffffffffffff167fddf252ad1be2c89b69c2b068fc378daa952ba7f163c4a11628f55a4df523b3ef60405160405180910390a45050565b6117fb8484846112d2565b61180784848484611ead565b611846576040517f08c379a000000000000000000000000000000000000000000000000000000000815260040161183d90612ef3565b60405180910390fd5b50505050565b60606000821415611894576040518060400160405280600181526020017f300000000000000000000000000000000000000000000000000000000000000081525090506119f4565b600082905060005b600082146118c65780806118af906133ed565b915050600a826118bf9190613258565b915061189c565b60008167ffffffffffffffff811115611908577f4e487b7100000000000000000000000000000000000000000000000000000000600052604160045260246000fd5b6040519080825280601f01601f19166020018201604052801561193a5781602001600182028036833780820191505090505b5090505b600085146119ed576001826119539190613289565b9150600a85611962919061346e565b603061196e9190613202565b60f81b8183815181106119aa577f4e487b7100000000000000000000000000000000000000000000000000000000600052603260045260246000fd5b60200101907effffffffffffffffffffffffffffffffffffffffffffffffffffffffffffff1916908160001a905350600a856119e69190613258565b945061193e565b8093505050505b919050565b50505050565b6000611a11836000018360001b612044565b905092915050565b6000611a236109d8565b73ffffffffffffffffffffffffffffffffffffffff163373ffffffffffffffffffffffffffffffffffffffff161415611a6557601436033560601c9050611a6d565b339050611a6e565b5b90565b600081600001805490509050919050565b505050565b6000611a99836000018360001b612067565b905092915050565b6000611ab3836000018360001b6121f1565b905092915050565b6000611ae7846000018460001b8473ffffffffffffffffffffffffffffffffffffffff1660001b612261565b90509392505050565b600081836000018054905011611b3b576040517f08c379a0000000000000000000000000000000000000000000000000000000008152600401611b3290612eb3565b60405180910390fd5b826000018281548110611b77577f4e487b7100000000000000000000000000000000000000000000000000000000600052603260045260246000fd5b9060005260206000200154905092915050565b60008082846000018054905011611bd6576040517f08c379a0000000000000000000000000000000000000000000000000000000008152600401611bcd90613013565b60405180910390fd5b6000846000018481548110611c14577f4e487b7100000000000000000000000000000000000000000000000000000000600052603260045260246000fd5b906000526020600020906002020190508060000154816001015492509250509250929050565b60008084600101600085815260200190815260200160002054905060008114158390611c9c576040517f08c379a0000000000000000000000000000000000000000000000000000000008152600401611c939190612e71565b60405180910390fd5b5084600001600182611cae9190613289565b81548110611ce5577f4e487b7100000000000000000000000000000000000000000000000000000000600052603260045260246000fd5b9060005260206000209060020201600101549150509392505050565b600081600001805490509050919050565b60007f7fffffffffffffffffffffffffffffff5d576e7357a4501ddfe92f46681b20a08260001c1115611d7a576040517f08c379a0000000000000000000000000000000000000000000000000000000008152600401611d7190612f73565b60405180910390fd5b601b8460ff161480611d8f5750601c8460ff16145b611dce576040517f08c379a0000000000000000000000000000000000000000000000000000000008152600401611dc590612ff3565b60405180910390fd5b600060018686868660405160008152602001604052604051611df39493929190612e2c565b6020604051602081039080840390855afa158015611e15573d6000803e3d6000fd5b505050602060405103519050600073ffffffffffffffffffffffffffffffffffffffff168173ffffffffffffffffffffffffffffffffffffffff161415611e91576040517f08c379a0000000000000000000000000000000000000000000000000000000008152600401611e8890612e93565b60405180910390fd5b80915050949350505050565b6000606060008391509150915091565b6000611ece8473ffffffffffffffffffffffffffffffffffffffff16612373565b15612037578373ffffffffffffffffffffffffffffffffffffffff1663150b7a02611ef7611117565b8786866040518563ffffffff1660e01b8152600401611f199493929190612daa565b602060405180830381600087803b158015611f3357600080fd5b505af1925050508015611f6457506040513d601f19601f82011682018060405250810190611f619190612755565b60015b611fe7573d8060008114611f94576040519150601f19603f3d011682016040523d82523d6000602084013e611f99565b606091505b50600081511415611fdf576040517f08c379a0000000000000000000000000000000000000000000000000000000008152600401611fd690612ef3565b60405180910390fd5b805181602001fd5b63150b7a0260e01b7bffffffffffffffffffffffffffffffffffffffffffffffffffffffff1916817bffffffffffffffffffffffffffffffffffffffffffffffffffffffff19161491505061203c565b600190505b949350505050565b600080836001016000848152602001908152602001600020541415905092915050565b600080836001016000848152602001908152602001600020549050600081146121e55760006001826120999190613289565b90506000600186600001805490506120b19190613289565b905060008660000182815481106120f1577f4e487b7100000000000000000000000000000000000000000000000000000000600052603260045260246000fd5b906000526020600020015490508087600001848154811061213b577f4e487b7100000000000000000000000000000000000000000000000000000000600052603260045260246000fd5b90600052602060002001819055506001836121569190613202565b87600101600083815260200190815260200160002081905550866000018054806121a9577f4e487b7100000000000000000000000000000000000000000000000000000000600052603160045260246000fd5b600190038181906000526020600020016000905590558660010160008781526020019081526020016000206000905560019450505050506121eb565b60009150505b92915050565b60006121fd8383612386565b61225657826000018290806001815401808255809150506001900390600052602060002001600090919091909150558260000180549050836001016000848152602001908152602001600020819055506001905061225b565b600090505b92915050565b60008084600101600085815260200190815260200160002054905060008114156123085784600001604051806040016040528086815260200185815250908060018154018082558091505060019003906000526020600020906002020160009091909190915060008201518160000155602082015181600101555050846000018054905085600101600086815260200190815260200160002081905550600191505061236c565b828560000160018361231a9190613289565b81548110612351577f4e487b7100000000000000000000000000000000000000000000000000000000600052603260045260246000fd5b90600052602060002090600202016001018190555060009150505b9392505050565b600080823b905060008111915050919050565b600080836001016000848152602001908152602001600020541415905092915050565b60006123bc6123b784613183565b61315e565b9050828152602081018484840111156123d457600080fd5b6123df848285613348565b509392505050565b6000813590506123f681613b10565b92915050565b60008135905061240b81613b27565b92915050565b60008135905061242081613b3e565b92915050565b60008135905061243581613b55565b92915050565b60008151905061244a81613b55565b92915050565b600082601f83011261246157600080fd5b81356124718482602086016123a9565b91505092915050565b60008135905061248981613b6c565b92915050565b6000602082840312156124a157600080fd5b60006124af848285016123e7565b91505092915050565b600080604083850312156124cb57600080fd5b60006124d9858286016123e7565b92505060206124ea858286016123e7565b9150509250929050565b60008060008060008060008060006101208a8c03121561251357600080fd5b60006125218c828d016123e7565b99505060206125328c828d016123e7565b98505060408a013567ffffffffffffffff81111561254f57600080fd5b61255b8c828d01612450565b975050606061256c8c828d0161247a565b965050608061257d8c828d0161247a565b95505060a061258e8c828d0161247a565b94505060c061259f8c828d0161247a565b93505060e08a013567ffffffffffffffff8111156125bc57600080fd5b6125c88c828d01612450565b9250506101006125da8c828d0161247a565b9150509295985092959850929598565b6000806000606084860312156125ff57600080fd5b600061260d868287016123e7565b935050602061261e868287016123e7565b925050604061262f8682870161247a565b9150509250925092565b6000806000806080858703121561264f57600080fd5b600061265d878288016123e7565b945050602061266e878288016123e7565b935050604061267f8782880161247a565b925050606085013567ffffffffffffffff81111561269c57600080fd5b6126a887828801612450565b91505092959194509250565b600080604083850312156126c757600080fd5b60006126d5858286016123e7565b92505060206126e6858286016123fc565b9150509250929050565b6000806040838503121561270357600080fd5b6000612711858286016123e7565b92505060206127228582860161247a565b9150509250929050565b60006020828403121561273e57600080fd5b600061274c84828501612426565b91505092915050565b60006020828403121561276757600080fd5b60006127758482850161243b565b91505092915050565b60006020828403121561279057600080fd5b600082013567ffffffffffffffff8111156127aa57600080fd5b6127b684828501612450565b91505092915050565b600080600080608085870312156127d557600080fd5b600085013567ffffffffffffffff8111156127ef57600080fd5b6127fb87828801612450565b945050602061280c878288016123fc565b935050604061281d8782880161247a565b925050606061282e87828801612411565b91505092959194509250565b60006020828403121561284c57600080fd5b600061285a8482850161247a565b91505092915050565b61286c816132bd565b82525050565b61288361287e826132bd565b613436565b82525050565b612892816132cf565b82525050565b6128a1816132db565b82525050565b6128b86128b3826132db565b613448565b82525050565b60006128c9826131b4565b6128d381856131ca565b93506128e3818560208601613357565b6128ec8161355b565b840191505092915050565b6000612902826131b4565b61290c81856131db565b935061291c818560208601613357565b80840191505092915050565b6000612933826131bf565b61293d81856131e6565b935061294d818560208601613357565b6129568161355b565b840191505092915050565b600061296c826131bf565b61297681856131f7565b9350612986818560208601613357565b80840191505092915050565b600061299f6018836131e6565b91506129aa82613579565b602082019050919050565b60006129c26022836131e6565b91506129cd826135a2565b604082019050919050565b60006129e5601f836131e6565b91506129f0826135f1565b602082019050919050565b6000612a08601c836131f7565b9150612a138261361a565b601c82019050919050565b6000612a2b6032836131e6565b9150612a3682613643565b604082019050919050565b6000612a4e601c836131e6565b9150612a5982613692565b602082019050919050565b6000612a716024836131e6565b9150612a7c826136bb565b604082019050919050565b6000612a946019836131e6565b9150612a9f8261370a565b602082019050919050565b6000612ab76022836131e6565b9150612ac282613733565b604082019050919050565b6000612ada602c836131e6565b9150612ae582613782565b604082019050919050565b6000612afd6038836131e6565b9150612b08826137d1565b604082019050919050565b6000612b20602a836131e6565b9150612b2b82613820565b604082019050919050565b6000612b436022836131e6565b9150612b4e8261386f565b604082019050919050565b6000612b666022836131e6565b9150612b71826138be565b604082019050919050565b6000612b896020836131e6565b9150612b948261390d565b602082019050919050565b6000612bac602c836131e6565b9150612bb782613936565b604082019050919050565b6000612bcf6029836131e6565b9150612bda82613985565b604082019050919050565b6000612bf2602f836131e6565b9150612bfd826139d4565b604082019050919050565b6000612c156021836131e6565b9150612c2082613a23565b604082019050919050565b6000612c386024836131e6565b9150612c4382613a72565b604082019050919050565b6000612c5b6031836131e6565b9150612c6682613ac1565b604082019050919050565b612c7a81613331565b82525050565b612c91612c8c82613331565b613464565b82525050565b612ca08161333b565b82525050565b6000612cb2828c612872565b601482019150612cc2828b612872565b601482019150612cd2828a6128f7565b9150612cde8289612c80565b602082019150612cee8288612c80565b602082019150612cfe8287612c80565b602082019150612d0e8286612c80565b602082019150612d1e8285612872565b601482019150612d2e8284612872565b6014820191508190509a9950505050505050505050565b6000612d518285612961565b9150612d5d8284612961565b91508190509392505050565b6000612d74826129fb565b9150612d8082846128a7565b60208201915081905092915050565b6000602082019050612da46000830184612863565b92915050565b6000608082019050612dbf6000830187612863565b612dcc6020830186612863565b612dd96040830185612c71565b8181036060830152612deb81846128be565b905095945050505050565b6000602082019050612e0b6000830184612889565b92915050565b6000602082019050612e266000830184612898565b92915050565b6000608082019050612e416000830187612898565b612e4e6020830186612c97565b612e5b6040830185612898565b612e686060830184612898565b95945050505050565b60006020820190508181036000830152612e8b8184612928565b905092915050565b60006020820190508181036000830152612eac81612992565b9050919050565b60006020820190508181036000830152612ecc816129b5565b9050919050565b60006020820190508181036000830152612eec816129d8565b9050919050565b60006020820190508181036000830152612f0c81612a1e565b9050919050565b60006020820190508181036000830152612f2c81612a41565b9050919050565b60006020820190508181036000830152612f4c81612a64565b9050919050565b60006020820190508181036000830152612f6c81612a87565b9050919050565b60006020820190508181036000830152612f8c81612aaa565b9050919050565b60006020820190508181036000830152612fac81612acd565b9050919050565b60006020820190508181036000830152612fcc81612af0565b9050919050565b60006020820190508181036000830152612fec81612b13565b9050919050565b6000602082019050818103600083015261300c81612b36565b9050919050565b6000602082019050818103600083015261302c81612b59565b9050919050565b6000602082019050818103600083015261304c81612b7c565b9050919050565b6000602082019050818103600083015261306c81612b9f565b9050919050565b6000602082019050818103600083015261308c81612bc2565b9050919050565b600060208201905081810360008301526130ac81612be5565b9050919050565b600060208201905081810360008301526130cc81612c08565b9050919050565b600060208201905081810360008301526130ec81612c2b565b9050919050565b6000602082019050818103600083015261310c81612c4e565b9050919050565b60006020820190506131286000830184612c71565b92915050565b60006040820190506131436000830185612c71565b818103602083015261315581846128be565b90509392505050565b6000613168613179565b905061317482826133bc565b919050565b6000604051905090565b600067ffffffffffffffff82111561319e5761319d61352c565b5b6131a78261355b565b9050602081019050919050565b600081519050919050565b600081519050919050565b600082825260208201905092915050565b600081905092915050565b600082825260208201905092915050565b600081905092915050565b600061320d82613331565b915061321883613331565b9250827fffffffffffffffffffffffffffffffffffffffffffffffffffffffffffffffff0382111561324d5761324c61349f565b5b828201905092915050565b600061326382613331565b915061326e83613331565b92508261327e5761327d6134ce565b5b828204905092915050565b600061329482613331565b915061329f83613331565b9250828210156132b2576132b161349f565b5b828203905092915050565b60006132c882613311565b9050919050565b60008115159050919050565b6000819050919050565b60007fffffffff0000000000000000000000000000000000000000000000000000000082169050919050565b600073ffffffffffffffffffffffffffffffffffffffff82169050919050565b6000819050919050565b600060ff82169050919050565b82818337600083830152505050565b60005b8381101561337557808201518184015260208101905061335a565b83811115613384576000848401525b50505050565b600060028204905060018216806133a257607f821691505b602082108114156133b6576133b56134fd565b5b50919050565b6133c58261355b565b810181811067ffffffffffffffff821117156133e4576133e361352c565b5b80604052505050565b60006133f882613331565b91507fffffffffffffffffffffffffffffffffffffffffffffffffffffffffffffffff82141561342b5761342a61349f565b5b600182019050919050565b600061344182613452565b9050919050565b6000819050919050565b600061345d8261356c565b9050919050565b6000819050919050565b600061347982613331565b915061348483613331565b925082613494576134936134ce565b5b828206905092915050565b7f4e487b7100000000000000000000000000000000000000000000000000000000600052601160045260246000fd5b7f4e487b7100000000000000000000000000000000000000000000000000000000600052601260045260246000fd5b7f4e487b7100000000000000000000000000000000000000000000000000000000600052602260045260246000fd5b7f4e487b7100000000000000000000000000000000000000000000000000000000600052604160045260246000fd5b6000601f19601f8301169050919050565b60008160601b9050919050565b7f45434453413a20696e76616c6964207369676e61747572650000000000000000600082015250565b7f456e756d657261626c655365743a20696e646578206f7574206f6620626f756e60008201527f6473000000000000000000000000000000000000000000000000000000000000602082015250565b7f45434453413a20696e76616c6964207369676e6174757265206c656e67746800600082015250565b7f19457468657265756d205369676e6564204d6573736167653a0a333200000000600082015250565b7f4552433732313a207472616e7366657220746f206e6f6e20455243373231526560008201527f63656976657220696d706c656d656e7465720000000000000000000000000000602082015250565b7f4552433732313a20746f6b656e20616c7265616479206d696e74656400000000600082015250565b7f4552433732313a207472616e7366657220746f20746865207a65726f2061646460008201527f7265737300000000000000000000000000000000000000000000000000000000602082015250565b7f4552433732313a20617070726f766520746f2063616c6c657200000000000000600082015250565b7f45434453413a20696e76616c6964207369676e6174757265202773272076616c60008201527f7565000000000000000000000000000000000000000000000000000000000000602082015250565b7f4552433732313a206f70657261746f7220717565727920666f72206e6f6e657860008201527f697374656e7420746f6b656e0000000000000000000000000000000000000000602082015250565b7f4552433732313a20617070726f76652063616c6c6572206973206e6f74206f7760008201527f6e6572206e6f7220617070726f76656420666f7220616c6c0000000000000000602082015250565b7f4552433732313a2062616c616e636520717565727920666f7220746865207a6560008201527f726f206164647265737300000000000000000000000000000000000000000000602082015250565b7f45434453413a20696e76616c6964207369676e6174757265202776272076616c60008201527f7565000000000000000000000000000000000000000000000000000000000000602082015250565b7f456e756d657261626c654d61703a20696e646578206f7574206f6620626f756e60008201527f6473000000000000000000000000000000000000000000000000000000000000602082015250565b7f4552433732313a206d696e7420746f20746865207a65726f2061646472657373600082015250565b7f4552433732313a20617070726f76656420717565727920666f72206e6f6e657860008201527f697374656e7420746f6b656e0000000000000000000000000000000000000000602082015250565b7f4552433732313a207472616e73666572206f6620746f6b656e2074686174206960008201527f73206e6f74206f776e0000000000000000000000000000000000000000000000602082015250565b7f4552433732314d657461646174613a2055524920717565727920666f72206e6f60008201527f6e6578697374656e7420746f6b656e0000000000000000000000000000000000602082015250565b7f4552433732313a20617070726f76616c20746f2063757272656e74206f776e6560008201527f7200000000000000000000000000000000000000000000000000000000000000602082015250565b7f47534e526563697069656e743a2063616c6c6572206973206e6f742052656c6160008201527f7948756200000000000000000000000000000000000000000000000000000000602082015250565b7f4552433732313a207472616e736665722063616c6c6572206973206e6f74206f60008201527f776e6572206e6f7220617070726f766564000000000000000000000000000000602082015250565b613b19816132bd565b8114613b2457600080fd5b50565b613b30816132cf565b8114613b3b57600080fd5b50565b613b47816132db565b8114613b5257600080fd5b50565b613b5e816132e5565b8114613b6957600080fd5b50565b613b7581613331565b8114613b8057600080fd5b5056fe4552433732313a206f776e657220717565727920666f72206e6f6e6578697374656e7420746f6b656ea2646970667358221220848f355b2f180a8c5af82b7bb5d3d21db85bf36623093b2c4e83de7a0c41e0b264736f6c63430008040033",
  "linkReferences": {},
  "deployedLinkReferences": {}
}