{
  "_format": "hh-sol-artifact-1",
  "contractName": "AccessControlEnumerableMockUpgradeable",
  "sourceName": "contracts/src/OpenZeppelin/upgradeable/mocks/AccessControlEnumerableMockUpgradeable.sol",
  "abi": [
    {
      "anonymous": false,
      "inputs": [
        {
          "indexed": true,
          "internalType": "bytes32",
          "name": "role",
          "type": "bytes32"
        },
        {
          "indexed": true,
          "internalType": "bytes32",
          "name": "previousAdminRole",
          "type": "bytes32"
        },
        {
          "indexed": true,
          "internalType": "bytes32",
          "name": "newAdminRole",
          "type": "bytes32"
        }
      ],
      "name": "RoleAdminChanged",
      "type": "event"
    },
    {
      "anonymous": false,
      "inputs": [
        {
          "indexed": true,
          "internalType": "bytes32",
          "name": "role",
          "type": "bytes32"
        },
        {
          "indexed": true,
          "internalType": "address",
          "name": "account",
          "type": "address"
        },
        {
          "indexed": true,
          "internalType": "address",
          "name": "sender",
          "type": "address"
        }
      ],
      "name": "RoleGranted",
      "type": "event"
    },
    {
      "anonymous": false,
      "inputs": [
        {
          "indexed": true,
          "internalType": "bytes32",
          "name": "role",
          "type": "bytes32"
        },
        {
          "indexed": true,
          "internalType": "address",
          "name": "account",
          "type": "address"
        },
        {
          "indexed": true,
          "internalType": "address",
          "name": "sender",
          "type": "address"
        }
      ],
      "name": "RoleRevoked",
      "type": "event"
    },
    {
      "inputs": [],
      "name": "DEFAULT_ADMIN_ROLE",
      "outputs": [
        {
          "internalType": "bytes32",
          "name": "",
          "type": "bytes32"
        }
      ],
      "stateMutability": "view",
      "type": "function"
    },
    {
      "inputs": [
        {
          "internalType": "bytes32",
          "name": "role",
          "type": "bytes32"
        }
      ],
      "name": "getRoleAdmin",
      "outputs": [
        {
          "internalType": "bytes32",
          "name": "",
          "type": "bytes32"
        }
      ],
      "stateMutability": "view",
      "type": "function"
    },
    {
      "inputs": [
        {
          "internalType": "bytes32",
          "name": "role",
          "type": "bytes32"
        },
        {
          "internalType": "uint256",
          "name": "index",
          "type": "uint256"
        }
      ],
      "name": "getRoleMember",
      "outputs": [
        {
          "internalType": "address",
          "name": "",
          "type": "address"
        }
      ],
      "stateMutability": "view",
      "type": "function"
    },
    {
      "inputs": [
        {
          "internalType": "bytes32",
          "name": "role",
          "type": "bytes32"
        }
      ],
      "name": "getRoleMemberCount",
      "outputs": [
        {
          "internalType": "uint256",
          "name": "",
          "type": "uint256"
        }
      ],
      "stateMutability": "view",
      "type": "function"
    },
    {
      "inputs": [
        {
          "internalType": "bytes32",
          "name": "role",
          "type": "bytes32"
        },
        {
          "internalType": "address",
          "name": "account",
          "type": "address"
        }
      ],
      "name": "grantRole",
      "outputs": [],
      "stateMutability": "nonpayable",
      "type": "function"
    },
    {
      "inputs": [
        {
          "internalType": "bytes32",
          "name": "role",
          "type": "bytes32"
        },
        {
          "internalType": "address",
          "name": "account",
          "type": "address"
        }
      ],
      "name": "hasRole",
      "outputs": [
        {
          "internalType": "bool",
          "name": "",
          "type": "bool"
        }
      ],
      "stateMutability": "view",
      "type": "function"
    },
    {
      "inputs": [
        {
          "internalType": "bytes32",
          "name": "role",
          "type": "bytes32"
        },
        {
          "internalType": "address",
          "name": "account",
          "type": "address"
        }
      ],
      "name": "renounceRole",
      "outputs": [],
      "stateMutability": "nonpayable",
      "type": "function"
    },
    {
      "inputs": [
        {
          "internalType": "bytes32",
          "name": "role",
          "type": "bytes32"
        },
        {
          "internalType": "address",
          "name": "account",
          "type": "address"
        }
      ],
      "name": "revokeRole",
      "outputs": [],
      "stateMutability": "nonpayable",
      "type": "function"
    },
    {
      "inputs": [
        {
          "internalType": "bytes32",
          "name": "roleId",
          "type": "bytes32"
        }
      ],
      "name": "senderProtected",
      "outputs": [],
      "stateMutability": "nonpayable",
      "type": "function"
    },
    {
      "inputs": [
        {
          "internalType": "bytes32",
          "name": "roleId",
          "type": "bytes32"
        },
        {
          "internalType": "bytes32",
          "name": "adminRoleId",
          "type": "bytes32"
        }
      ],
      "name": "setRoleAdmin",
      "outputs": [],
      "stateMutability": "nonpayable",
      "type": "function"
    },
    {
      "inputs": [
        {
          "internalType": "bytes4",
          "name": "interfaceId",
          "type": "bytes4"
        }
      ],
      "name": "supportsInterface",
      "outputs": [
        {
          "internalType": "bool",
          "name": "",
          "type": "bool"
        }
      ],
      "stateMutability": "view",
      "type": "function"
    }
  ],
  "bytecode": "0x608060405234801561001057600080fd5b506115fe806100206000396000f3fe608060405234801561001057600080fd5b50600436106100a95760003560e01c80634b9304a4116100715780634b9304a4146101625780639010d07c1461017e57806391d14854146101ae578063a217fddf146101de578063ca15c873146101fc578063d547741f1461022c576100a9565b806301ffc9a7146100ae5780631e4e0091146100de578063248a9ca3146100fa5780632f2ff15d1461012a57806336568abe14610146575b600080fd5b6100c860048036038101906100c39190611019565b610248565b6040516100d591906111c9565b60405180910390f35b6100f860048036038101906100f39190610fa1565b6102c2565b005b610114600480360381019061010f9190610f3c565b6102d0565b60405161012191906111e4565b60405180910390f35b610144600480360381019061013f9190610f65565b6102f0565b005b610160600480360381019061015b9190610f65565b610324565b005b61017c60048036038101906101779190610f3c565b610358565b005b61019860048036038101906101939190610fdd565b61036e565b6040516101a591906111ae565b60405180910390f35b6101c860048036038101906101c39190610f65565b61039d565b6040516101d591906111c9565b60405180910390f35b6101e6610408565b6040516101f391906111e4565b60405180910390f35b61021660048036038101906102119190610f3c565b61040f565b6040516102239190611261565b60405180910390f35b61024660048036038101906102419190610f65565b610433565b005b60007f5a05180f000000000000000000000000000000000000000000000000000000007bffffffffffffffffffffffffffffffffffffffffffffffffffffffff1916827bffffffffffffffffffffffffffffffffffffffffffffffffffffffff191614806102bb57506102ba82610467565b5b9050919050565b6102cc82826104e1565b5050565b600060656000838152602001908152602001600020600101549050919050565b6102fa828261053d565b61031f816097600085815260200190815260200160002061056690919063ffffffff16565b505050565b61032e8282610596565b610353816097600085815260200190815260200160002061061990919063ffffffff16565b505050565b8061036a81610365610649565b610651565b5050565b600061039582609760008681526020019081526020016000206106ee90919063ffffffff16565b905092915050565b60006065600084815260200190815260200160002060000160008373ffffffffffffffffffffffffffffffffffffffff1673ffffffffffffffffffffffffffffffffffffffff16815260200190815260200160002060009054906101000a900460ff16905092915050565b6000801b81565b600061042c60976000848152602001908152602001600020610708565b9050919050565b61043d828261071d565b610462816097600085815260200190815260200160002061061990919063ffffffff16565b505050565b60007f7965db0b000000000000000000000000000000000000000000000000000000007bffffffffffffffffffffffffffffffffffffffffffffffffffffffff1916827bffffffffffffffffffffffffffffffffffffffffffffffffffffffff191614806104da57506104d982610746565b5b9050919050565b60006104ec836102d0565b90508160656000858152602001908152602001600020600101819055508181847fbd79b86ffe0ab8e8776151514217cd7cacd52c909f66475c3af44e129f0b00ff60405160405180910390a4505050565b610546826102d0565b61055781610552610649565b610651565b61056183836107b0565b505050565b600061058e836000018373ffffffffffffffffffffffffffffffffffffffff1660001b610891565b905092915050565b61059e610649565b73ffffffffffffffffffffffffffffffffffffffff168173ffffffffffffffffffffffffffffffffffffffff161461060b576040517f08c379a000000000000000000000000000000000000000000000000000000000815260040161060290611241565b60405180910390fd5b6106158282610901565b5050565b6000610641836000018373ffffffffffffffffffffffffffffffffffffffff1660001b6109e3565b905092915050565b600033905090565b61065b828261039d565b6106ea576106808173ffffffffffffffffffffffffffffffffffffffff166014610b69565b61068e8360001c6020610b69565b60405160200161069f929190611174565b6040516020818303038152906040526040517f08c379a00000000000000000000000000000000000000000000000000000000081526004016106e191906111ff565b60405180910390fd5b5050565b60006106fd8360000183610e63565b60001c905092915050565b600061071682600001610eb4565b9050919050565b610726826102d0565b61073781610732610649565b610651565b6107418383610901565b505050565b60007f01ffc9a7000000000000000000000000000000000000000000000000000000007bffffffffffffffffffffffffffffffffffffffffffffffffffffffff1916827bffffffffffffffffffffffffffffffffffffffffffffffffffffffff1916149050919050565b6107ba828261039d565b61088d5760016065600084815260200190815260200160002060000160008373ffffffffffffffffffffffffffffffffffffffff1673ffffffffffffffffffffffffffffffffffffffff16815260200190815260200160002060006101000a81548160ff021916908315150217905550610832610649565b73ffffffffffffffffffffffffffffffffffffffff168173ffffffffffffffffffffffffffffffffffffffff16837f2f8788117e7eff1d82e926ec794901d17c78024a50270940304540a733656f0d60405160405180910390a45b5050565b600061089d8383610ec5565b6108f65782600001829080600181540180825580915050600190039060005260206000200160009091909190915055826000018054905083600101600084815260200190815260200160002081905550600190506108fb565b600090505b92915050565b61090b828261039d565b156109df5760006065600084815260200190815260200160002060000160008373ffffffffffffffffffffffffffffffffffffffff1673ffffffffffffffffffffffffffffffffffffffff16815260200190815260200160002060006101000a81548160ff021916908315150217905550610984610649565b73ffffffffffffffffffffffffffffffffffffffff168173ffffffffffffffffffffffffffffffffffffffff16837ff6391f5c32d9c69d2a47ea670b442974b53935d1edc7fd64eb21e047a839171b60405160405180910390a45b5050565b60008083600101600084815260200190815260200160002054905060008114610b5d576000600182610a159190611353565b9050600060018660000180549050610a2d9190611353565b9050818114610ae8576000866000018281548110610a74577f4e487b7100000000000000000000000000000000000000000000000000000000600052603260045260246000fd5b9060005260206000200154905080876000018481548110610abe577f4e487b7100000000000000000000000000000000000000000000000000000000600052603260045260246000fd5b90600052602060002001819055508387600101600083815260200190815260200160002081905550505b85600001805480610b22577f4e487b7100000000000000000000000000000000000000000000000000000000600052603160045260246000fd5b600190038181906000526020600020016000905590558560010160008681526020019081526020016000206000905560019350505050610b63565b60009150505b92915050565b606060006002836002610b7c91906112f9565b610b8691906112a3565b67ffffffffffffffff811115610bc5577f4e487b7100000000000000000000000000000000000000000000000000000000600052604160045260246000fd5b6040519080825280601f01601f191660200182016040528015610bf75781602001600182028036833780820191505090505b5090507f300000000000000000000000000000000000000000000000000000000000000081600081518110610c55577f4e487b7100000000000000000000000000000000000000000000000000000000600052603260045260246000fd5b60200101907effffffffffffffffffffffffffffffffffffffffffffffffffffffffffffff1916908160001a9053507f780000000000000000000000000000000000000000000000000000000000000081600181518110610cdf577f4e487b7100000000000000000000000000000000000000000000000000000000600052603260045260246000fd5b60200101907effffffffffffffffffffffffffffffffffffffffffffffffffffffffffffff1916908160001a90535060006001846002610d1f91906112f9565b610d2991906112a3565b90505b6001811115610e15577f3031323334353637383961626364656600000000000000000000000000000000600f861660108110610d91577f4e487b7100000000000000000000000000000000000000000000000000000000600052603260045260246000fd5b1a60f81b828281518110610dce577f4e487b7100000000000000000000000000000000000000000000000000000000600052603260045260246000fd5b60200101907effffffffffffffffffffffffffffffffffffffffffffffffffffffffffffff1916908160001a905350600485901c945080610e0e90611438565b9050610d2c565b5060008414610e59576040517f08c379a0000000000000000000000000000000000000000000000000000000008152600401610e5090611221565b60405180910390fd5b8091505092915050565b6000826000018281548110610ea1577f4e487b7100000000000000000000000000000000000000000000000000000000600052603260045260246000fd5b9060005260206000200154905092915050565b600081600001805490509050919050565b600080836001016000848152602001908152602001600020541415905092915050565b600081359050610ef78161156c565b92915050565b600081359050610f0c81611583565b92915050565b600081359050610f218161159a565b92915050565b600081359050610f36816115b1565b92915050565b600060208284031215610f4e57600080fd5b6000610f5c84828501610efd565b91505092915050565b60008060408385031215610f7857600080fd5b6000610f8685828601610efd565b9250506020610f9785828601610ee8565b9150509250929050565b60008060408385031215610fb457600080fd5b6000610fc285828601610efd565b9250506020610fd385828601610efd565b9150509250929050565b60008060408385031215610ff057600080fd5b6000610ffe85828601610efd565b925050602061100f85828601610f27565b9150509250929050565b60006020828403121561102b57600080fd5b600061103984828501610f12565b91505092915050565b61104b81611387565b82525050565b61105a81611399565b82525050565b611069816113a5565b82525050565b600061107a8261127c565b6110848185611287565b9350611094818560208601611405565b61109d81611491565b840191505092915050565b60006110b38261127c565b6110bd8185611298565b93506110cd818560208601611405565b80840191505092915050565b60006110e6602083611287565b91506110f1826114a2565b602082019050919050565b6000611109601783611298565b9150611114826114cb565b601782019050919050565b600061112c601183611298565b9150611137826114f4565b601182019050919050565b600061114f602f83611287565b915061115a8261151d565b604082019050919050565b61116e816113fb565b82525050565b600061117f826110fc565b915061118b82856110a8565b91506111968261111f565b91506111a282846110a8565b91508190509392505050565b60006020820190506111c36000830184611042565b92915050565b60006020820190506111de6000830184611051565b92915050565b60006020820190506111f96000830184611060565b92915050565b60006020820190508181036000830152611219818461106f565b905092915050565b6000602082019050818103600083015261123a816110d9565b9050919050565b6000602082019050818103600083015261125a81611142565b9050919050565b60006020820190506112766000830184611165565b92915050565b600081519050919050565b600082825260208201905092915050565b600081905092915050565b60006112ae826113fb565b91506112b9836113fb565b9250827fffffffffffffffffffffffffffffffffffffffffffffffffffffffffffffffff038211156112ee576112ed611462565b5b828201905092915050565b6000611304826113fb565b915061130f836113fb565b9250817fffffffffffffffffffffffffffffffffffffffffffffffffffffffffffffffff048311821515161561134857611347611462565b5b828202905092915050565b600061135e826113fb565b9150611369836113fb565b92508282101561137c5761137b611462565b5b828203905092915050565b6000611392826113db565b9050919050565b60008115159050919050565b6000819050919050565b60007fffffffff0000000000000000000000000000000000000000000000000000000082169050919050565b600073ffffffffffffffffffffffffffffffffffffffff82169050919050565b6000819050919050565b60005b83811015611423578082015181840152602081019050611408565b83811115611432576000848401525b50505050565b6000611443826113fb565b9150600082141561145757611456611462565b5b600182039050919050565b7f4e487b7100000000000000000000000000000000000000000000000000000000600052601160045260246000fd5b6000601f19601f8301169050919050565b7f537472696e67733a20686578206c656e67746820696e73756666696369656e74600082015250565b7f416363657373436f6e74726f6c3a206163636f756e7420000000000000000000600082015250565b7f206973206d697373696e6720726f6c6520000000000000000000000000000000600082015250565b7f416363657373436f6e74726f6c3a2063616e206f6e6c792072656e6f756e636560008201527f20726f6c657320666f722073656c660000000000000000000000000000000000602082015250565b61157581611387565b811461158057600080fd5b50565b61158c816113a5565b811461159757600080fd5b50565b6115a3816113af565b81146115ae57600080fd5b50565b6115ba816113fb565b81146115c557600080fd5b5056fea264697066735822122068be0e3b7c9fdc7d12e1c8846efc28314f16cb88bb943ace66f94e2908ee0b1f64736f6c63430008040033",
  "linkReferences": {},
  "deployedLinkReferences": {}
}