{
  "_format": "hh-sol-artifact-1",
  "contractName": "ERC1155MockUpgradeable",
  "sourceName": "contracts/src/OpenZeppelin/upgradeable/mocks/ERC1155MockUpgradeable.sol",
  "abi": [
    {
      "anonymous": false,
      "inputs": [
        {
          "indexed": true,
          "internalType": "address",
          "name": "account",
          "type": "address"
        },
        {
          "indexed": true,
          "internalType": "address",
          "name": "operator",
          "type": "address"
        },
        {
          "indexed": false,
          "internalType": "bool",
          "name": "approved",
          "type": "bool"
        }
      ],
      "name": "ApprovalForAll",
      "type": "event"
    },
    {
      "anonymous": false,
      "inputs": [
        {
          "indexed": true,
          "internalType": "address",
          "name": "operator",
          "type": "address"
        },
        {
          "indexed": true,
          "internalType": "address",
          "name": "from",
          "type": "address"
        },
        {
          "indexed": true,
          "internalType": "address",
          "name": "to",
          "type": "address"
        },
        {
          "indexed": false,
          "internalType": "uint256[]",
          "name": "ids",
          "type": "uint256[]"
        },
        {
          "indexed": false,
          "internalType": "uint256[]",
          "name": "values",
          "type": "uint256[]"
        }
      ],
      "name": "TransferBatch",
      "type": "event"
    },
    {
      "anonymous": false,
      "inputs": [
        {
          "indexed": true,
          "internalType": "address",
          "name": "operator",
          "type": "address"
        },
        {
          "indexed": true,
          "internalType": "address",
          "name": "from",
          "type": "address"
        },
        {
          "indexed": true,
          "internalType": "address",
          "name": "to",
          "type": "address"
        },
        {
          "indexed": false,
          "internalType": "uint256",
          "name": "id",
          "type": "uint256"
        },
        {
          "indexed": false,
          "internalType": "uint256",
          "name": "value",
          "type": "uint256"
        }
      ],
      "name": "TransferSingle",
      "type": "event"
    },
    {
      "anonymous": false,
      "inputs": [
        {
          "indexed": false,
          "internalType": "string",
          "name": "value",
          "type": "string"
        },
        {
          "indexed": true,
          "internalType": "uint256",
          "name": "id",
          "type": "uint256"
        }
      ],
      "name": "URI",
      "type": "event"
    },
    {
      "inputs": [
        {
          "internalType": "address",
          "name": "account",
          "type": "address"
        },
        {
          "internalType": "uint256",
          "name": "id",
          "type": "uint256"
        }
      ],
      "name": "balanceOf",
      "outputs": [
        {
          "internalType": "uint256",
          "name": "",
          "type": "uint256"
        }
      ],
      "stateMutability": "view",
      "type": "function"
    },
    {
      "inputs": [
        {
          "internalType": "address[]",
          "name": "accounts",
          "type": "address[]"
        },
        {
          "internalType": "uint256[]",
          "name": "ids",
          "type": "uint256[]"
        }
      ],
      "name": "balanceOfBatch",
      "outputs": [
        {
          "internalType": "uint256[]",
          "name": "",
          "type": "uint256[]"
        }
      ],
      "stateMutability": "view",
      "type": "function"
    },
    {
      "inputs": [
        {
          "internalType": "address",
          "name": "owner",
          "type": "address"
        },
        {
          "internalType": "uint256",
          "name": "id",
          "type": "uint256"
        },
        {
          "internalType": "uint256",
          "name": "value",
          "type": "uint256"
        }
      ],
      "name": "burn",
      "outputs": [],
      "stateMutability": "nonpayable",
      "type": "function"
    },
    {
      "inputs": [
        {
          "internalType": "address",
          "name": "owner",
          "type": "address"
        },
        {
          "internalType": "uint256[]",
          "name": "ids",
          "type": "uint256[]"
        },
        {
          "internalType": "uint256[]",
          "name": "values",
          "type": "uint256[]"
        }
      ],
      "name": "burnBatch",
      "outputs": [],
      "stateMutability": "nonpayable",
      "type": "function"
    },
    {
      "inputs": [
        {
          "internalType": "address",
          "name": "account",
          "type": "address"
        },
        {
          "internalType": "address",
          "name": "operator",
          "type": "address"
        }
      ],
      "name": "isApprovedForAll",
      "outputs": [
        {
          "internalType": "bool",
          "name": "",
          "type": "bool"
        }
      ],
      "stateMutability": "view",
      "type": "function"
    },
    {
      "inputs": [
        {
          "internalType": "address",
          "name": "to",
          "type": "address"
        },
        {
          "internalType": "uint256",
          "name": "id",
          "type": "uint256"
        },
        {
          "internalType": "uint256",
          "name": "value",
          "type": "uint256"
        },
        {
          "internalType": "bytes",
          "name": "data",
          "type": "bytes"
        }
      ],
      "name": "mint",
      "outputs": [],
      "stateMutability": "nonpayable",
      "type": "function"
    },
    {
      "inputs": [
        {
          "internalType": "address",
          "name": "to",
          "type": "address"
        },
        {
          "internalType": "uint256[]",
          "name": "ids",
          "type": "uint256[]"
        },
        {
          "internalType": "uint256[]",
          "name": "values",
          "type": "uint256[]"
        },
        {
          "internalType": "bytes",
          "name": "data",
          "type": "bytes"
        }
      ],
      "name": "mintBatch",
      "outputs": [],
      "stateMutability": "nonpayable",
      "type": "function"
    },
    {
      "inputs": [
        {
          "internalType": "address",
          "name": "from",
          "type": "address"
        },
        {
          "internalType": "address",
          "name": "to",
          "type": "address"
        },
        {
          "internalType": "uint256[]",
          "name": "ids",
          "type": "uint256[]"
        },
        {
          "internalType": "uint256[]",
          "name": "amounts",
          "type": "uint256[]"
        },
        {
          "internalType": "bytes",
          "name": "data",
          "type": "bytes"
        }
      ],
      "name": "safeBatchTransferFrom",
      "outputs": [],
      "stateMutability": "nonpayable",
      "type": "function"
    },
    {
      "inputs": [
        {
          "internalType": "address",
          "name": "from",
          "type": "address"
        },
        {
          "internalType": "address",
          "name": "to",
          "type": "address"
        },
        {
          "internalType": "uint256",
          "name": "id",
          "type": "uint256"
        },
        {
          "internalType": "uint256",
          "name": "amount",
          "type": "uint256"
        },
        {
          "internalType": "bytes",
          "name": "data",
          "type": "bytes"
        }
      ],
      "name": "safeTransferFrom",
      "outputs": [],
      "stateMutability": "nonpayable",
      "type": "function"
    },
    {
      "inputs": [
        {
          "internalType": "address",
          "name": "operator",
          "type": "address"
        },
        {
          "internalType": "bool",
          "name": "approved",
          "type": "bool"
        }
      ],
      "name": "setApprovalForAll",
      "outputs": [],
      "stateMutability": "nonpayable",
      "type": "function"
    },
    {
      "inputs": [
        {
          "internalType": "string",
          "name": "newuri",
          "type": "string"
        }
      ],
      "name": "setURI",
      "outputs": [],
      "stateMutability": "nonpayable",
      "type": "function"
    },
    {
      "inputs": [
        {
          "internalType": "bytes4",
          "name": "interfaceId",
          "type": "bytes4"
        }
      ],
      "name": "supportsInterface",
      "outputs": [
        {
          "internalType": "bool",
          "name": "",
          "type": "bool"
        }
      ],
      "stateMutability": "view",
      "type": "function"
    },
    {
      "inputs": [
        {
          "internalType": "uint256",
          "name": "",
          "type": "uint256"
        }
      ],
      "name": "uri",
      "outputs": [
        {
          "internalType": "string",
          "name": "",
          "type": "string"
        }
      ],
      "stateMutability": "view",
      "type": "function"
    }
  ],
  "bytecode": "0x608060405234801561001057600080fd5b506135cb806100206000396000f3fe608060405234801561001057600080fd5b50600436106100ce5760003560e01c80634e1273f41161008c578063a22cb46511610066578063a22cb4651461021f578063e985e9c51461023b578063f242432a1461026b578063f5298aca14610287576100ce565b80634e1273f4146101b75780636b20c454146101e7578063731133e914610203576100ce565b8062fdd58e146100d357806301ffc9a71461010357806302fe5305146101335780630e89341c1461014f5780631f7fdffa1461017f5780632eb2c2d61461019b575b600080fd5b6100ed60048036038101906100e89190612476565b6102a3565b6040516100fa9190612c87565b60405180910390f35b61011d600480360381019061011891906125e8565b61036d565b60405161012a9190612aaa565b60405180910390f35b61014d6004803603810190610148919061263a565b61044f565b005b6101696004803603810190610164919061267b565b61045b565b6040516101769190612ac5565b60405180910390f35b6101996004803603810190610194919061238f565b6104ef565b005b6101b560048036038101906101b091906121c2565b610501565b005b6101d160048036038101906101cc919061257c565b6105a2565b6040516101de9190612a51565b60405180910390f35b61020160048036038101906101fc9190612310565b610753565b005b61021d60048036038101906102189190612501565b610763565b005b6102396004803603810190610234919061243a565b610775565b005b61025560048036038101906102509190612186565b6108f6565b6040516102629190612aaa565b60405180910390f35b61028560048036038101906102809190612281565b61098a565b005b6102a1600480360381019061029c91906124b2565b610a2b565b005b60008073ffffffffffffffffffffffffffffffffffffffff168373ffffffffffffffffffffffffffffffffffffffff161415610314576040517f08c379a000000000000000000000000000000000000000000000000000000000815260040161030b90612b27565b60405180910390fd5b6065600083815260200190815260200160002060008473ffffffffffffffffffffffffffffffffffffffff1673ffffffffffffffffffffffffffffffffffffffff16815260200190815260200160002054905092915050565b60007fd9b67a26000000000000000000000000000000000000000000000000000000007bffffffffffffffffffffffffffffffffffffffffffffffffffffffff1916827bffffffffffffffffffffffffffffffffffffffffffffffffffffffff1916148061043857507f0e89341c000000000000000000000000000000000000000000000000000000007bffffffffffffffffffffffffffffffffffffffffffffffffffffffff1916827bffffffffffffffffffffffffffffffffffffffffffffffffffffffff1916145b80610448575061044782610a3b565b5b9050919050565b61045881610aa5565b50565b60606067805461046a90612f27565b80601f016020809104026020016040519081016040528092919081815260200182805461049690612f27565b80156104e35780601f106104b8576101008083540402835291602001916104e3565b820191906000526020600020905b8154815290600101906020018083116104c657829003601f168201915b50505050509050919050565b6104fb84848484610abf565b50505050565b610509610d2a565b73ffffffffffffffffffffffffffffffffffffffff168573ffffffffffffffffffffffffffffffffffffffff16148061054f575061054e85610549610d2a565b6108f6565b5b61058e576040517f08c379a000000000000000000000000000000000000000000000000000000000815260040161058590612ba7565b60405180910390fd5b61059b8585858585610d32565b5050505050565b606081518351146105e8576040517f08c379a00000000000000000000000000000000000000000000000000000000081526004016105df90612c27565b60405180910390fd5b6000835167ffffffffffffffff81111561062b577f4e487b7100000000000000000000000000000000000000000000000000000000600052604160045260246000fd5b6040519080825280602002602001820160405280156106595781602001602082028036833780820191505090505b50905060005b8451811015610748576106f28582815181106106a4577f4e487b7100000000000000000000000000000000000000000000000000000000600052603260045260246000fd5b60200260200101518583815181106106e5577f4e487b7100000000000000000000000000000000000000000000000000000000600052603260045260246000fd5b60200260200101516102a3565b82828151811061072b577f4e487b7100000000000000000000000000000000000000000000000000000000600052603260045260246000fd5b6020026020010181815250508061074190612f8a565b905061065f565b508091505092915050565b61075e838383611095565b505050565b61076f84848484611394565b50505050565b8173ffffffffffffffffffffffffffffffffffffffff16610794610d2a565b73ffffffffffffffffffffffffffffffffffffffff1614156107eb576040517f08c379a00000000000000000000000000000000000000000000000000000000081526004016107e290612c07565b60405180910390fd5b80606660006107f8610d2a565b73ffffffffffffffffffffffffffffffffffffffff1673ffffffffffffffffffffffffffffffffffffffff16815260200190815260200160002060008473ffffffffffffffffffffffffffffffffffffffff1673ffffffffffffffffffffffffffffffffffffffff16815260200190815260200160002060006101000a81548160ff0219169083151502179055508173ffffffffffffffffffffffffffffffffffffffff166108a5610d2a565b73ffffffffffffffffffffffffffffffffffffffff167f17307eab39ab6107e8899845ad3d59bd9653f200f220920489ca2b5937696c31836040516108ea9190612aaa565b60405180910390a35050565b6000606660008473ffffffffffffffffffffffffffffffffffffffff1673ffffffffffffffffffffffffffffffffffffffff16815260200190815260200160002060008373ffffffffffffffffffffffffffffffffffffffff1673ffffffffffffffffffffffffffffffffffffffff16815260200190815260200160002060009054906101000a900460ff16905092915050565b610992610d2a565b73ffffffffffffffffffffffffffffffffffffffff168573ffffffffffffffffffffffffffffffffffffffff1614806109d857506109d7856109d2610d2a565b6108f6565b5b610a17576040517f08c379a0000000000000000000000000000000000000000000000000000000008152600401610a0e90612b67565b60405180910390fd5b610a24858585858561152b565b5050505050565b610a368383836117b0565b505050565b60007f01ffc9a7000000000000000000000000000000000000000000000000000000007bffffffffffffffffffffffffffffffffffffffffffffffffffffffff1916827bffffffffffffffffffffffffffffffffffffffffffffffffffffffff1916149050919050565b8060679080519060200190610abb929190611e7e565b5050565b600073ffffffffffffffffffffffffffffffffffffffff168473ffffffffffffffffffffffffffffffffffffffff161415610b2f576040517f08c379a0000000000000000000000000000000000000000000000000000000008152600401610b2690612c67565b60405180910390fd5b8151835114610b73576040517f08c379a0000000000000000000000000000000000000000000000000000000008152600401610b6a90612c47565b60405180910390fd5b6000610b7d610d2a565b9050610b8e816000878787876119cf565b60005b8451811015610c9457838181518110610bd3577f4e487b7100000000000000000000000000000000000000000000000000000000600052603260045260246000fd5b602002602001015160656000878481518110610c18577f4e487b7100000000000000000000000000000000000000000000000000000000600052603260045260246000fd5b6020026020010151815260200190815260200160002060008873ffffffffffffffffffffffffffffffffffffffff1673ffffffffffffffffffffffffffffffffffffffff1681526020019081526020016000206000828254610c7a9190612e1b565b925050819055508080610c8c90612f8a565b915050610b91565b508473ffffffffffffffffffffffffffffffffffffffff16600073ffffffffffffffffffffffffffffffffffffffff168273ffffffffffffffffffffffffffffffffffffffff167f4a39dc06d4c0dbc64b70af90fd698a233a518aa5d07e595d983b8c0526c8f7fb8787604051610d0c929190612a73565b60405180910390a4610d23816000878787876119d7565b5050505050565b600033905090565b8151835114610d76576040517f08c379a0000000000000000000000000000000000000000000000000000000008152600401610d6d90612c47565b60405180910390fd5b600073ffffffffffffffffffffffffffffffffffffffff168473ffffffffffffffffffffffffffffffffffffffff161415610de6576040517f08c379a0000000000000000000000000000000000000000000000000000000008152600401610ddd90612b87565b60405180910390fd5b6000610df0610d2a565b9050610e008187878787876119cf565b60005b8451811015611000576000858281518110610e47577f4e487b7100000000000000000000000000000000000000000000000000000000600052603260045260246000fd5b602002602001015190506000858381518110610e8c577f4e487b7100000000000000000000000000000000000000000000000000000000600052603260045260246000fd5b6020026020010151905060006065600084815260200190815260200160002060008b73ffffffffffffffffffffffffffffffffffffffff1673ffffffffffffffffffffffffffffffffffffffff16815260200190815260200160002054905081811015610f2e576040517f08c379a0000000000000000000000000000000000000000000000000000000008152600401610f2590612be7565b60405180910390fd5b8181036065600085815260200190815260200160002060008c73ffffffffffffffffffffffffffffffffffffffff1673ffffffffffffffffffffffffffffffffffffffff16815260200190815260200160002081905550816065600085815260200190815260200160002060008b73ffffffffffffffffffffffffffffffffffffffff1673ffffffffffffffffffffffffffffffffffffffff1681526020019081526020016000206000828254610fe59190612e1b565b9250508190555050505080610ff990612f8a565b9050610e03565b508473ffffffffffffffffffffffffffffffffffffffff168673ffffffffffffffffffffffffffffffffffffffff168273ffffffffffffffffffffffffffffffffffffffff167f4a39dc06d4c0dbc64b70af90fd698a233a518aa5d07e595d983b8c0526c8f7fb8787604051611077929190612a73565b60405180910390a461108d8187878787876119d7565b505050505050565b600073ffffffffffffffffffffffffffffffffffffffff168373ffffffffffffffffffffffffffffffffffffffff161415611105576040517f08c379a00000000000000000000000000000000000000000000000000000000081526004016110fc90612bc7565b60405180910390fd5b8051825114611149576040517f08c379a000000000000000000000000000000000000000000000000000000000815260040161114090612c47565b60405180910390fd5b6000611153610d2a565b9050611173818560008686604051806020016040528060008152506119cf565b60005b835181101561130e5760008482815181106111ba577f4e487b7100000000000000000000000000000000000000000000000000000000600052603260045260246000fd5b6020026020010151905060008483815181106111ff577f4e487b7100000000000000000000000000000000000000000000000000000000600052603260045260246000fd5b6020026020010151905060006065600084815260200190815260200160002060008973ffffffffffffffffffffffffffffffffffffffff1673ffffffffffffffffffffffffffffffffffffffff168152602001908152602001600020549050818110156112a1576040517f08c379a000000000000000000000000000000000000000000000000000000000815260040161129890612b47565b60405180910390fd5b8181036065600085815260200190815260200160002060008a73ffffffffffffffffffffffffffffffffffffffff1673ffffffffffffffffffffffffffffffffffffffff16815260200190815260200160002081905550505050808061130690612f8a565b915050611176565b50600073ffffffffffffffffffffffffffffffffffffffff168473ffffffffffffffffffffffffffffffffffffffff168273ffffffffffffffffffffffffffffffffffffffff167f4a39dc06d4c0dbc64b70af90fd698a233a518aa5d07e595d983b8c0526c8f7fb8686604051611386929190612a73565b60405180910390a450505050565b600073ffffffffffffffffffffffffffffffffffffffff168473ffffffffffffffffffffffffffffffffffffffff161415611404576040517f08c379a00000000000000000000000000000000000000000000000000000000081526004016113fb90612c67565b60405180910390fd5b600061140e610d2a565b905061142f8160008761142088611bbe565b61142988611bbe565b876119cf565b826065600086815260200190815260200160002060008773ffffffffffffffffffffffffffffffffffffffff1673ffffffffffffffffffffffffffffffffffffffff168152602001908152602001600020600082825461148f9190612e1b565b925050819055508473ffffffffffffffffffffffffffffffffffffffff16600073ffffffffffffffffffffffffffffffffffffffff168273ffffffffffffffffffffffffffffffffffffffff167fc3d58168c5ae7397731d063d5bbf3d657854427343f4c083240f7aacaa2d0f62878760405161150d929190612ca2565b60405180910390a461152481600087878787611c84565b5050505050565b600073ffffffffffffffffffffffffffffffffffffffff168473ffffffffffffffffffffffffffffffffffffffff16141561159b576040517f08c379a000000000000000000000000000000000000000000000000000000000815260040161159290612b87565b60405180910390fd5b60006115a5610d2a565b90506115c58187876115b688611bbe565b6115bf88611bbe565b876119cf565b60006065600086815260200190815260200160002060008873ffffffffffffffffffffffffffffffffffffffff1673ffffffffffffffffffffffffffffffffffffffff1681526020019081526020016000205490508381101561165d576040517f08c379a000000000000000000000000000000000000000000000000000000000815260040161165490612be7565b60405180910390fd5b8381036065600087815260200190815260200160002060008973ffffffffffffffffffffffffffffffffffffffff1673ffffffffffffffffffffffffffffffffffffffff16815260200190815260200160002081905550836065600087815260200190815260200160002060008873ffffffffffffffffffffffffffffffffffffffff1673ffffffffffffffffffffffffffffffffffffffff16815260200190815260200160002060008282546117149190612e1b565b925050819055508573ffffffffffffffffffffffffffffffffffffffff168773ffffffffffffffffffffffffffffffffffffffff168373ffffffffffffffffffffffffffffffffffffffff167fc3d58168c5ae7397731d063d5bbf3d657854427343f4c083240f7aacaa2d0f628888604051611791929190612ca2565b60405180910390a46117a7828888888888611c84565b50505050505050565b600073ffffffffffffffffffffffffffffffffffffffff168373ffffffffffffffffffffffffffffffffffffffff161415611820576040517f08c379a000000000000000000000000000000000000000000000000000000000815260040161181790612bc7565b60405180910390fd5b600061182a610d2a565b905061185a8185600061183c87611bbe565b61184587611bbe565b604051806020016040528060008152506119cf565b60006065600085815260200190815260200160002060008673ffffffffffffffffffffffffffffffffffffffff1673ffffffffffffffffffffffffffffffffffffffff168152602001908152602001600020549050828110156118f2576040517f08c379a00000000000000000000000000000000000000000000000000000000081526004016118e990612b47565b60405180910390fd5b8281036065600086815260200190815260200160002060008773ffffffffffffffffffffffffffffffffffffffff1673ffffffffffffffffffffffffffffffffffffffff16815260200190815260200160002081905550600073ffffffffffffffffffffffffffffffffffffffff168573ffffffffffffffffffffffffffffffffffffffff168373ffffffffffffffffffffffffffffffffffffffff167fc3d58168c5ae7397731d063d5bbf3d657854427343f4c083240f7aacaa2d0f6287876040516119c0929190612ca2565b60405180910390a45050505050565b505050505050565b6119f68473ffffffffffffffffffffffffffffffffffffffff16611e6b565b15611bb6578373ffffffffffffffffffffffffffffffffffffffff1663bc197c8187878686866040518663ffffffff1660e01b8152600401611a3c95949392919061298f565b602060405180830381600087803b158015611a5657600080fd5b505af1925050508015611a8757506040513d601f19601f82011682018060405250810190611a849190612611565b60015b611b2d57611a93613060565b806308c379a01415611af05750611aa86134a3565b80611ab35750611af2565b806040517f08c379a0000000000000000000000000000000000000000000000000000000008152600401611ae79190612ac5565b60405180910390fd5b505b6040517f08c379a0000000000000000000000000000000000000000000000000000000008152600401611b2490612ae7565b60405180910390fd5b63bc197c8160e01b7bffffffffffffffffffffffffffffffffffffffffffffffffffffffff1916817bffffffffffffffffffffffffffffffffffffffffffffffffffffffff191614611bb4576040517f08c379a0000000000000000000000000000000000000000000000000000000008152600401611bab90612b07565b60405180910390fd5b505b505050505050565b60606000600167ffffffffffffffff811115611c03577f4e487b7100000000000000000000000000000000000000000000000000000000600052604160045260246000fd5b604051908082528060200260200182016040528015611c315781602001602082028036833780820191505090505b5090508281600081518110611c6f577f4e487b7100000000000000000000000000000000000000000000000000000000600052603260045260246000fd5b60200260200101818152505080915050919050565b611ca38473ffffffffffffffffffffffffffffffffffffffff16611e6b565b15611e63578373ffffffffffffffffffffffffffffffffffffffff1663f23a6e6187878686866040518663ffffffff1660e01b8152600401611ce99594939291906129f7565b602060405180830381600087803b158015611d0357600080fd5b505af1925050508015611d3457506040513d601f19601f82011682018060405250810190611d319190612611565b60015b611dda57611d40613060565b806308c379a01415611d9d5750611d556134a3565b80611d605750611d9f565b806040517f08c379a0000000000000000000000000000000000000000000000000000000008152600401611d949190612ac5565b60405180910390fd5b505b6040517f08c379a0000000000000000000000000000000000000000000000000000000008152600401611dd190612ae7565b60405180910390fd5b63f23a6e6160e01b7bffffffffffffffffffffffffffffffffffffffffffffffffffffffff1916817bffffffffffffffffffffffffffffffffffffffffffffffffffffffff191614611e61576040517f08c379a0000000000000000000000000000000000000000000000000000000008152600401611e5890612b07565b60405180910390fd5b505b505050505050565b600080823b905060008111915050919050565b828054611e8a90612f27565b90600052602060002090601f016020900481019282611eac5760008555611ef3565b82601f10611ec557805160ff1916838001178555611ef3565b82800160010185558215611ef3579182015b82811115611ef2578251825591602001919060010190611ed7565b5b509050611f009190611f04565b5090565b5b80821115611f1d576000816000905550600101611f05565b5090565b6000611f34611f2f84612cf0565b612ccb565b90508083825260208201905082856020860282011115611f5357600080fd5b60005b85811015611f835781611f698882612075565b845260208401935060208301925050600181019050611f56565b5050509392505050565b6000611fa0611f9b84612d1c565b612ccb565b90508083825260208201905082856020860282011115611fbf57600080fd5b60005b85811015611fef5781611fd58882612171565b845260208401935060208301925050600181019050611fc2565b5050509392505050565b600061200c61200784612d48565b612ccb565b90508281526020810184848401111561202457600080fd5b61202f848285612ee5565b509392505050565b600061204a61204584612d79565b612ccb565b90508281526020810184848401111561206257600080fd5b61206d848285612ee5565b509392505050565b60008135905061208481613539565b92915050565b600082601f83011261209b57600080fd5b81356120ab848260208601611f21565b91505092915050565b600082601f8301126120c557600080fd5b81356120d5848260208601611f8d565b91505092915050565b6000813590506120ed81613550565b92915050565b60008135905061210281613567565b92915050565b60008151905061211781613567565b92915050565b600082601f83011261212e57600080fd5b813561213e848260208601611ff9565b91505092915050565b600082601f83011261215857600080fd5b8135612168848260208601612037565b91505092915050565b6000813590506121808161357e565b92915050565b6000806040838503121561219957600080fd5b60006121a785828601612075565b92505060206121b885828601612075565b9150509250929050565b600080600080600060a086880312156121da57600080fd5b60006121e888828901612075565b95505060206121f988828901612075565b945050604086013567ffffffffffffffff81111561221657600080fd5b612222888289016120b4565b935050606086013567ffffffffffffffff81111561223f57600080fd5b61224b888289016120b4565b925050608086013567ffffffffffffffff81111561226857600080fd5b6122748882890161211d565b9150509295509295909350565b600080600080600060a0868803121561229957600080fd5b60006122a788828901612075565b95505060206122b888828901612075565b94505060406122c988828901612171565b93505060606122da88828901612171565b925050608086013567ffffffffffffffff8111156122f757600080fd5b6123038882890161211d565b9150509295509295909350565b60008060006060848603121561232557600080fd5b600061233386828701612075565b935050602084013567ffffffffffffffff81111561235057600080fd5b61235c868287016120b4565b925050604084013567ffffffffffffffff81111561237957600080fd5b612385868287016120b4565b9150509250925092565b600080600080608085870312156123a557600080fd5b60006123b387828801612075565b945050602085013567ffffffffffffffff8111156123d057600080fd5b6123dc878288016120b4565b935050604085013567ffffffffffffffff8111156123f957600080fd5b612405878288016120b4565b925050606085013567ffffffffffffffff81111561242257600080fd5b61242e8782880161211d565b91505092959194509250565b6000806040838503121561244d57600080fd5b600061245b85828601612075565b925050602061246c858286016120de565b9150509250929050565b6000806040838503121561248957600080fd5b600061249785828601612075565b92505060206124a885828601612171565b9150509250929050565b6000806000606084860312156124c757600080fd5b60006124d586828701612075565b93505060206124e686828701612171565b92505060406124f786828701612171565b9150509250925092565b6000806000806080858703121561251757600080fd5b600061252587828801612075565b945050602061253687828801612171565b935050604061254787828801612171565b925050606085013567ffffffffffffffff81111561256457600080fd5b6125708782880161211d565b91505092959194509250565b6000806040838503121561258f57600080fd5b600083013567ffffffffffffffff8111156125a957600080fd5b6125b58582860161208a565b925050602083013567ffffffffffffffff8111156125d257600080fd5b6125de858286016120b4565b9150509250929050565b6000602082840312156125fa57600080fd5b6000612608848285016120f3565b91505092915050565b60006020828403121561262357600080fd5b600061263184828501612108565b91505092915050565b60006020828403121561264c57600080fd5b600082013567ffffffffffffffff81111561266657600080fd5b61267284828501612147565b91505092915050565b60006020828403121561268d57600080fd5b600061269b84828501612171565b91505092915050565b60006126b08383612971565b60208301905092915050565b6126c581612e71565b82525050565b60006126d682612dba565b6126e08185612de8565b93506126eb83612daa565b8060005b8381101561271c57815161270388826126a4565b975061270e83612ddb565b9250506001810190506126ef565b5085935050505092915050565b61273281612e83565b82525050565b600061274382612dc5565b61274d8185612df9565b935061275d818560208601612ef4565b61276681613082565b840191505092915050565b600061277c82612dd0565b6127868185612e0a565b9350612796818560208601612ef4565b61279f81613082565b840191505092915050565b60006127b7603483612e0a565b91506127c2826130a0565b604082019050919050565b60006127da602883612e0a565b91506127e5826130ef565b604082019050919050565b60006127fd602b83612e0a565b91506128088261313e565b604082019050919050565b6000612820602483612e0a565b915061282b8261318d565b604082019050919050565b6000612843602983612e0a565b915061284e826131dc565b604082019050919050565b6000612866602583612e0a565b91506128718261322b565b604082019050919050565b6000612889603283612e0a565b91506128948261327a565b604082019050919050565b60006128ac602383612e0a565b91506128b7826132c9565b604082019050919050565b60006128cf602a83612e0a565b91506128da82613318565b604082019050919050565b60006128f2602983612e0a565b91506128fd82613367565b604082019050919050565b6000612915602983612e0a565b9150612920826133b6565b604082019050919050565b6000612938602883612e0a565b915061294382613405565b604082019050919050565b600061295b602183612e0a565b915061296682613454565b604082019050919050565b61297a81612edb565b82525050565b61298981612edb565b82525050565b600060a0820190506129a460008301886126bc565b6129b160208301876126bc565b81810360408301526129c381866126cb565b905081810360608301526129d781856126cb565b905081810360808301526129eb8184612738565b90509695505050505050565b600060a082019050612a0c60008301886126bc565b612a1960208301876126bc565b612a266040830186612980565b612a336060830185612980565b8181036080830152612a458184612738565b90509695505050505050565b60006020820190508181036000830152612a6b81846126cb565b905092915050565b60006040820190508181036000830152612a8d81856126cb565b90508181036020830152612aa181846126cb565b90509392505050565b6000602082019050612abf6000830184612729565b92915050565b60006020820190508181036000830152612adf8184612771565b905092915050565b60006020820190508181036000830152612b00816127aa565b9050919050565b60006020820190508181036000830152612b20816127cd565b9050919050565b60006020820190508181036000830152612b40816127f0565b9050919050565b60006020820190508181036000830152612b6081612813565b9050919050565b60006020820190508181036000830152612b8081612836565b9050919050565b60006020820190508181036000830152612ba081612859565b9050919050565b60006020820190508181036000830152612bc08161287c565b9050919050565b60006020820190508181036000830152612be08161289f565b9050919050565b60006020820190508181036000830152612c00816128c2565b9050919050565b60006020820190508181036000830152612c20816128e5565b9050919050565b60006020820190508181036000830152612c4081612908565b9050919050565b60006020820190508181036000830152612c608161292b565b9050919050565b60006020820190508181036000830152612c808161294e565b9050919050565b6000602082019050612c9c6000830184612980565b92915050565b6000604082019050612cb76000830185612980565b612cc46020830184612980565b9392505050565b6000612cd5612ce6565b9050612ce18282612f59565b919050565b6000604051905090565b600067ffffffffffffffff821115612d0b57612d0a613031565b5b602082029050602081019050919050565b600067ffffffffffffffff821115612d3757612d36613031565b5b602082029050602081019050919050565b600067ffffffffffffffff821115612d6357612d62613031565b5b612d6c82613082565b9050602081019050919050565b600067ffffffffffffffff821115612d9457612d93613031565b5b612d9d82613082565b9050602081019050919050565b6000819050602082019050919050565b600081519050919050565b600081519050919050565b600081519050919050565b6000602082019050919050565b600082825260208201905092915050565b600082825260208201905092915050565b600082825260208201905092915050565b6000612e2682612edb565b9150612e3183612edb565b9250827fffffffffffffffffffffffffffffffffffffffffffffffffffffffffffffffff03821115612e6657612e65612fd3565b5b828201905092915050565b6000612e7c82612ebb565b9050919050565b60008115159050919050565b60007fffffffff0000000000000000000000000000000000000000000000000000000082169050919050565b600073ffffffffffffffffffffffffffffffffffffffff82169050919050565b6000819050919050565b82818337600083830152505050565b60005b83811015612f12578082015181840152602081019050612ef7565b83811115612f21576000848401525b50505050565b60006002820490506001821680612f3f57607f821691505b60208210811415612f5357612f52613002565b5b50919050565b612f6282613082565b810181811067ffffffffffffffff82111715612f8157612f80613031565b5b80604052505050565b6000612f9582612edb565b91507fffffffffffffffffffffffffffffffffffffffffffffffffffffffffffffffff821415612fc857612fc7612fd3565b5b600182019050919050565b7f4e487b7100000000000000000000000000000000000000000000000000000000600052601160045260246000fd5b7f4e487b7100000000000000000000000000000000000000000000000000000000600052602260045260246000fd5b7f4e487b7100000000000000000000000000000000000000000000000000000000600052604160045260246000fd5b600060033d111561307f5760046000803e61307c600051613093565b90505b90565b6000601f19601f8301169050919050565b60008160e01c9050919050565b7f455243313135353a207472616e7366657220746f206e6f6e204552433131353560008201527f526563656976657220696d706c656d656e746572000000000000000000000000602082015250565b7f455243313135353a204552433131353552656365697665722072656a6563746560008201527f6420746f6b656e73000000000000000000000000000000000000000000000000602082015250565b7f455243313135353a2062616c616e636520717565727920666f7220746865207a60008201527f65726f2061646472657373000000000000000000000000000000000000000000602082015250565b7f455243313135353a206275726e20616d6f756e7420657863656564732062616c60008201527f616e636500000000000000000000000000000000000000000000000000000000602082015250565b7f455243313135353a2063616c6c6572206973206e6f74206f776e6572206e6f7260008201527f20617070726f7665640000000000000000000000000000000000000000000000602082015250565b7f455243313135353a207472616e7366657220746f20746865207a65726f20616460008201527f6472657373000000000000000000000000000000000000000000000000000000602082015250565b7f455243313135353a207472616e736665722063616c6c6572206973206e6f742060008201527f6f776e6572206e6f7220617070726f7665640000000000000000000000000000602082015250565b7f455243313135353a206275726e2066726f6d20746865207a65726f206164647260008201527f6573730000000000000000000000000000000000000000000000000000000000602082015250565b7f455243313135353a20696e73756666696369656e742062616c616e636520666f60008201527f72207472616e7366657200000000000000000000000000000000000000000000602082015250565b7f455243313135353a2073657474696e6720617070726f76616c2073746174757360008201527f20666f722073656c660000000000000000000000000000000000000000000000602082015250565b7f455243313135353a206163636f756e747320616e6420696473206c656e67746860008201527f206d69736d617463680000000000000000000000000000000000000000000000602082015250565b7f455243313135353a2069647320616e6420616d6f756e7473206c656e6774682060008201527f6d69736d61746368000000000000000000000000000000000000000000000000602082015250565b7f455243313135353a206d696e7420746f20746865207a65726f2061646472657360008201527f7300000000000000000000000000000000000000000000000000000000000000602082015250565b600060443d10156134b357613536565b6134bb612ce6565b60043d036004823e80513d602482011167ffffffffffffffff821117156134e3575050613536565b808201805167ffffffffffffffff8111156135015750505050613536565b80602083010160043d03850181111561351e575050505050613536565b61352d82602001850186612f59565b82955050505050505b90565b61354281612e71565b811461354d57600080fd5b50565b61355981612e83565b811461356457600080fd5b50565b61357081612e8f565b811461357b57600080fd5b50565b61358781612edb565b811461359257600080fd5b5056fea26469706673582212201d3917aaeb98e1dcdd15c43f68d1fa90eceefa9b0688e3f906ae821cf9a891da64736f6c63430008040033",
  "linkReferences": {},
  "deployedLinkReferences": {}
}