{
  "_format": "hh-sol-artifact-1",
  "contractName": "ERC165Mock",
  "sourceName": "contracts/src/OpenZeppelin/mocks/ERC165Mock.sol",
  "abi": [
    {
      "inputs": [
        {
          "internalType": "bytes4",
          "name": "interfaceId",
          "type": "bytes4"
        }
      ],
      "name": "registerInterface",
      "outputs": [],
      "stateMutability": "nonpayable",
      "type": "function"
    },
    {
      "inputs": [
        {
          "internalType": "bytes4",
          "name": "interfaceId",
          "type": "bytes4"
        }
      ],
      "name": "supportsInterface",
      "outputs": [
        {
          "internalType": "bool",
          "name": "",
          "type": "bool"
        }
      ],
      "stateMutability": "view",
      "type": "function"
    }
  ],
  "bytecode": "0x608060405234801561001057600080fd5b506100407f01ffc9a70000000000000000000000000000000000000000000000000000000061004560201b60201c565b610197565b63ffffffff60e01b817bffffffffffffffffffffffffffffffffffffffffffffffffffffffff191614156100ae576040517f08c379a00000000000000000000000000000000000000000000000000000000081526004016100a59061013d565b60405180910390fd5b6001600080837bffffffffffffffffffffffffffffffffffffffffffffffffffffffff19167bffffffffffffffffffffffffffffffffffffffffffffffffffffffff1916815260200190815260200160002060006101000a81548160ff02191690831515021790555050565b6000610127601c8361015d565b91506101328261016e565b602082019050919050565b600060208201905081810360008301526101568161011a565b9050919050565b600082825260208201905092915050565b7f4552433136353a20696e76616c696420696e7465726661636520696400000000600082015250565b610339806101a66000396000f3fe608060405234801561001057600080fd5b50600436106100365760003560e01c806301ffc9a71461003b578063214cdb801461006b575b600080fd5b610055600480360381019061005091906101e4565b610087565b604051610062919061023f565b60405180910390f35b610085600480360381019061008091906101e4565b6100ee565b005b6000806000837bffffffffffffffffffffffffffffffffffffffffffffffffffffffff19167bffffffffffffffffffffffffffffffffffffffffffffffffffffffff1916815260200190815260200160002060009054906101000a900460ff169050919050565b6100f7816100fa565b50565b63ffffffff60e01b817bffffffffffffffffffffffffffffffffffffffffffffffffffffffff19161415610163576040517f08c379a000000000000000000000000000000000000000000000000000000000815260040161015a9061025a565b60405180910390fd5b6001600080837bffffffffffffffffffffffffffffffffffffffffffffffffffffffff19167bffffffffffffffffffffffffffffffffffffffffffffffffffffffff1916815260200190815260200160002060006101000a81548160ff02191690831515021790555050565b6000813590506101de816102ec565b92915050565b6000602082840312156101f657600080fd5b6000610204848285016101cf565b91505092915050565b6102168161028b565b82525050565b6000610229601c8361027a565b9150610234826102c3565b602082019050919050565b6000602082019050610254600083018461020d565b92915050565b600060208201905081810360008301526102738161021c565b9050919050565b600082825260208201905092915050565b60008115159050919050565b60007fffffffff0000000000000000000000000000000000000000000000000000000082169050919050565b7f4552433136353a20696e76616c696420696e7465726661636520696400000000600082015250565b6102f581610297565b811461030057600080fd5b5056fea2646970667358221220f851e536c2023287bab3b80c33f93fc97f964a53a6cb6cbd26319a4103167b9d64736f6c63430008040033",
  "linkReferences": {},
  "deployedLinkReferences": {}
}