{
  "_format": "hh-sol-artifact-1",
  "contractName": "EnumerableBytes32SetMock",
  "sourceName": "contracts/src/OpenZeppelin/mocks/EnumerableSetMock.sol",
  "abi": [
    {
      "anonymous": false,
      "inputs": [
        {
          "indexed": false,
          "internalType": "bool",
          "name": "result",
          "type": "bool"
        }
      ],
      "name": "OperationResult",
      "type": "event"
    },
    {
      "inputs": [
        {
          "internalType": "bytes32",
          "name": "value",
          "type": "bytes32"
        }
      ],
      "name": "add",
      "outputs": [],
      "stateMutability": "nonpayable",
      "type": "function"
    },
    {
      "inputs": [
        {
          "internalType": "uint256",
          "name": "index",
          "type": "uint256"
        }
      ],
      "name": "at",
      "outputs": [
        {
          "internalType": "bytes32",
          "name": "",
          "type": "bytes32"
        }
      ],
      "stateMutability": "view",
      "type": "function"
    },
    {
      "inputs": [
        {
          "internalType": "bytes32",
          "name": "value",
          "type": "bytes32"
        }
      ],
      "name": "contains",
      "outputs": [
        {
          "internalType": "bool",
          "name": "",
          "type": "bool"
        }
      ],
      "stateMutability": "view",
      "type": "function"
    },
    {
      "inputs": [],
      "name": "length",
      "outputs": [
        {
          "internalType": "uint256",
          "name": "",
          "type": "uint256"
        }
      ],
      "stateMutability": "view",
      "type": "function"
    },
    {
      "inputs": [
        {
          "internalType": "bytes32",
          "name": "value",
          "type": "bytes32"
        }
      ],
      "name": "remove",
      "outputs": [],
      "stateMutability": "nonpayable",
      "type": "function"
    }
  ],
  "bytecode": "0x608060405234801561001057600080fd5b50610816806100206000396000f3fe608060405234801561001057600080fd5b50600436106100575760003560e01c80631d1a696d1461005c5780631f7b6d321461008c578063446bffba146100aa57806395bc2673146100c6578063e0886f90146100e2575b600080fd5b61007660048036038101906100719190610566565b610112565b6040516100839190610608565b60405180910390f35b61009461012f565b6040516100a1919061065e565b60405180910390f35b6100c460048036038101906100bf9190610566565b610140565b005b6100e060048036038101906100db9190610566565b610193565b005b6100fc60048036038101906100f7919061058f565b6101e6565b6040516101099190610623565b60405180910390f35b600061012882600061020390919063ffffffff16565b9050919050565b600061013b600061021a565b905090565b600061015682600061022f90919063ffffffff16565b90507fed9840e0775590557ad736875d96c95cf1458b766335f74339951a32c82a9e33816040516101879190610608565b60405180910390a15050565b60006101a982600061024690919063ffffffff16565b90507fed9840e0775590557ad736875d96c95cf1458b766335f74339951a32c82a9e33816040516101da9190610608565b60405180910390a15050565b60006101fc82600061025d90919063ffffffff16565b9050919050565b60006102128360000183610274565b905092915050565b600061022882600001610297565b9050919050565b600061023e83600001836102a8565b905092915050565b60006102558360000183610318565b905092915050565b600061026c83600001836104a2565b905092915050565b600080836001016000848152602001908152602001600020541415905092915050565b600081600001805490509050919050565b60006102b48383610274565b61030d578260000182908060018154018082558091505060019003906000526020600020016000909190919091505582600001805490508360010160008481526020019081526020016000208190555060019050610312565b600090505b92915050565b6000808360010160008481526020019081526020016000205490506000811461049657600060018261034a91906106e0565b905060006001866000018054905061036291906106e0565b905060008660000182815481106103a2577f4e487b7100000000000000000000000000000000000000000000000000000000600052603260045260246000fd5b90600052602060002001549050808760000184815481106103ec577f4e487b7100000000000000000000000000000000000000000000000000000000600052603260045260246000fd5b9060005260206000200181905550600183610407919061068a565b876001016000838152602001908152602001600020819055508660000180548061045a577f4e487b7100000000000000000000000000000000000000000000000000000000600052603160045260246000fd5b6001900381819060005260206000200160009055905586600101600087815260200190815260200160002060009055600194505050505061049c565b60009150505b92915050565b6000818360000180549050116104ed576040517f08c379a00000000000000000000000000000000000000000000000000000000081526004016104e49061063e565b60405180910390fd5b826000018281548110610529577f4e487b7100000000000000000000000000000000000000000000000000000000600052603260045260246000fd5b9060005260206000200154905092915050565b60008135905061054b816107b2565b92915050565b600081359050610560816107c9565b92915050565b60006020828403121561057857600080fd5b60006105868482850161053c565b91505092915050565b6000602082840312156105a157600080fd5b60006105af84828501610551565b91505092915050565b6105c181610714565b82525050565b6105d081610720565b82525050565b60006105e3602283610679565b91506105ee82610763565b604082019050919050565b6106028161072a565b82525050565b600060208201905061061d60008301846105b8565b92915050565b600060208201905061063860008301846105c7565b92915050565b60006020820190508181036000830152610657816105d6565b9050919050565b600060208201905061067360008301846105f9565b92915050565b600082825260208201905092915050565b60006106958261072a565b91506106a08361072a565b9250827fffffffffffffffffffffffffffffffffffffffffffffffffffffffffffffffff038211156106d5576106d4610734565b5b828201905092915050565b60006106eb8261072a565b91506106f68361072a565b92508282101561070957610708610734565b5b828203905092915050565b60008115159050919050565b6000819050919050565b6000819050919050565b7f4e487b7100000000000000000000000000000000000000000000000000000000600052601160045260246000fd5b7f456e756d657261626c655365743a20696e646578206f7574206f6620626f756e60008201527f6473000000000000000000000000000000000000000000000000000000000000602082015250565b6107bb81610720565b81146107c657600080fd5b50565b6107d28161072a565b81146107dd57600080fd5b5056fea26469706673582212203091a2540bdffa31f95d9d998b5d58e92ca11997d8e4b440fdea2173f8a56c1f64736f6c63430008040033",
  "linkReferences": {},
  "deployedLinkReferences": {}
}