{
  "_format": "hh-sol-artifact-1",
  "contractName": "EnumerableUintSetMock",
  "sourceName": "contracts/src/OpenZeppelin/mocks/EnumerableSetMock.sol",
  "abi": [
    {
      "anonymous": false,
      "inputs": [
        {
          "indexed": false,
          "internalType": "bool",
          "name": "result",
          "type": "bool"
        }
      ],
      "name": "OperationResult",
      "type": "event"
    },
    {
      "inputs": [
        {
          "internalType": "uint256",
          "name": "value",
          "type": "uint256"
        }
      ],
      "name": "add",
      "outputs": [],
      "stateMutability": "nonpayable",
      "type": "function"
    },
    {
      "inputs": [
        {
          "internalType": "uint256",
          "name": "index",
          "type": "uint256"
        }
      ],
      "name": "at",
      "outputs": [
        {
          "internalType": "uint256",
          "name": "",
          "type": "uint256"
        }
      ],
      "stateMutability": "view",
      "type": "function"
    },
    {
      "inputs": [
        {
          "internalType": "uint256",
          "name": "value",
          "type": "uint256"
        }
      ],
      "name": "contains",
      "outputs": [
        {
          "internalType": "bool",
          "name": "",
          "type": "bool"
        }
      ],
      "stateMutability": "view",
      "type": "function"
    },
    {
      "inputs": [],
      "name": "length",
      "outputs": [
        {
          "internalType": "uint256",
          "name": "",
          "type": "uint256"
        }
      ],
      "stateMutability": "view",
      "type": "function"
    },
    {
      "inputs": [
        {
          "internalType": "uint256",
          "name": "value",
          "type": "uint256"
        }
      ],
      "name": "remove",
      "outputs": [],
      "stateMutability": "nonpayable",
      "type": "function"
    }
  ],
  "bytecode": "0x608060405234801561001057600080fd5b50610799806100206000396000f3fe608060405234801561001057600080fd5b50600436106100575760003560e01c80631003e2d21461005c5780631f7b6d32146100785780634cc8221514610096578063c34052e0146100b2578063e0886f90146100e2575b600080fd5b6100766004803603810190610071919061055d565b610112565b005b610080610165565b60405161008d9190610602565b60405180910390f35b6100b060048036038101906100ab919061055d565b610176565b005b6100cc60048036038101906100c7919061055d565b6101c9565b6040516100d991906105c7565b60405180910390f35b6100fc60048036038101906100f7919061055d565b6101e6565b6040516101099190610602565b60405180910390f35b600061012882600061020390919063ffffffff16565b90507fed9840e0775590557ad736875d96c95cf1458b766335f74339951a32c82a9e338160405161015991906105c7565b60405180910390a15050565b6000610171600061021d565b905090565b600061018c82600061023290919063ffffffff16565b90507fed9840e0775590557ad736875d96c95cf1458b766335f74339951a32c82a9e33816040516101bd91906105c7565b60405180910390a15050565b60006101df82600061024c90919063ffffffff16565b9050919050565b60006101fc82600061026690919063ffffffff16565b9050919050565b6000610215836000018360001b610280565b905092915050565b600061022b826000016102f0565b9050919050565b6000610244836000018360001b610301565b905092915050565b600061025e836000018360001b61048b565b905092915050565b600061027583600001836104ae565b60001c905092915050565b600061028c838361048b565b6102e55782600001829080600181540180825580915050600190039060005260206000200160009091909190915055826000018054905083600101600084815260200190815260200160002081905550600190506102ea565b600090505b92915050565b600081600001805490509050919050565b6000808360010160008481526020019081526020016000205490506000811461047f5760006001826103339190610684565b905060006001866000018054905061034b9190610684565b9050600086600001828154811061038b577f4e487b7100000000000000000000000000000000000000000000000000000000600052603260045260246000fd5b90600052602060002001549050808760000184815481106103d5577f4e487b7100000000000000000000000000000000000000000000000000000000600052603260045260246000fd5b90600052602060002001819055506001836103f0919061062e565b8760010160008381526020019081526020016000208190555086600001805480610443577f4e487b7100000000000000000000000000000000000000000000000000000000600052603160045260246000fd5b60019003818190600052602060002001600090559055866001016000878152602001908152602001600020600090556001945050505050610485565b60009150505b92915050565b600080836001016000848152602001908152602001600020541415905092915050565b6000818360000180549050116104f9576040517f08c379a00000000000000000000000000000000000000000000000000000000081526004016104f0906105e2565b60405180910390fd5b826000018281548110610535577f4e487b7100000000000000000000000000000000000000000000000000000000600052603260045260246000fd5b9060005260206000200154905092915050565b6000813590506105578161074c565b92915050565b60006020828403121561056f57600080fd5b600061057d84828501610548565b91505092915050565b61058f816106b8565b82525050565b60006105a260228361061d565b91506105ad826106fd565b604082019050919050565b6105c1816106c4565b82525050565b60006020820190506105dc6000830184610586565b92915050565b600060208201905081810360008301526105fb81610595565b9050919050565b600060208201905061061760008301846105b8565b92915050565b600082825260208201905092915050565b6000610639826106c4565b9150610644836106c4565b9250827fffffffffffffffffffffffffffffffffffffffffffffffffffffffffffffffff03821115610679576106786106ce565b5b828201905092915050565b600061068f826106c4565b915061069a836106c4565b9250828210156106ad576106ac6106ce565b5b828203905092915050565b60008115159050919050565b6000819050919050565b7f4e487b7100000000000000000000000000000000000000000000000000000000600052601160045260246000fd5b7f456e756d657261626c655365743a20696e646578206f7574206f6620626f756e60008201527f6473000000000000000000000000000000000000000000000000000000000000602082015250565b610755816106c4565b811461076057600080fd5b5056fea26469706673582212207cfb5c5f1adfe8eead8aff0e0579b8d36d0515b1563c0bc2ea11fbea81bc2f5364736f6c63430008040033",
  "linkReferences": {},
  "deployedLinkReferences": {}
}