{
  "_format": "hh-sol-artifact-1",
  "contractName": "ERC165StorageMockUpgradeable",
  "sourceName": "contracts/src/OpenZeppelin/upgradeable/mocks/ERC165StorageMockUpgradeable.sol",
  "abi": [
    {
      "inputs": [
        {
          "internalType": "bytes4",
          "name": "interfaceId",
          "type": "bytes4"
        }
      ],
      "name": "registerInterface",
      "outputs": [],
      "stateMutability": "nonpayable",
      "type": "function"
    },
    {
      "inputs": [
        {
          "internalType": "bytes4",
          "name": "interfaceId",
          "type": "bytes4"
        }
      ],
      "name": "supportsInterface",
      "outputs": [
        {
          "internalType": "bool",
          "name": "",
          "type": "bool"
        }
      ],
      "stateMutability": "view",
      "type": "function"
    }
  ],
  "bytecode": "0x608060405234801561001057600080fd5b506103b5806100206000396000f3fe608060405234801561001057600080fd5b50600436106100365760003560e01c806301ffc9a71461003b578063214cdb801461006b575b600080fd5b61005560048036038101906100509190610260565b610087565b60405161006291906102bb565b60405180910390f35b61008560048036038101906100809190610260565b6100ff565b005b60006100928261010b565b806100f8575060336000837bffffffffffffffffffffffffffffffffffffffffffffffffffffffff19167bffffffffffffffffffffffffffffffffffffffffffffffffffffffff1916815260200190815260200160002060009054906101000a900460ff165b9050919050565b61010881610175565b50565b60007f01ffc9a7000000000000000000000000000000000000000000000000000000007bffffffffffffffffffffffffffffffffffffffffffffffffffffffff1916827bffffffffffffffffffffffffffffffffffffffffffffffffffffffff1916149050919050565b63ffffffff60e01b817bffffffffffffffffffffffffffffffffffffffffffffffffffffffff191614156101de576040517f08c379a00000000000000000000000000000000000000000000000000000000081526004016101d5906102d6565b60405180910390fd5b600160336000837bffffffffffffffffffffffffffffffffffffffffffffffffffffffff19167bffffffffffffffffffffffffffffffffffffffffffffffffffffffff1916815260200190815260200160002060006101000a81548160ff02191690831515021790555050565b60008135905061025a81610368565b92915050565b60006020828403121561027257600080fd5b60006102808482850161024b565b91505092915050565b61029281610307565b82525050565b60006102a5601c836102f6565b91506102b08261033f565b602082019050919050565b60006020820190506102d06000830184610289565b92915050565b600060208201905081810360008301526102ef81610298565b9050919050565b600082825260208201905092915050565b60008115159050919050565b60007fffffffff0000000000000000000000000000000000000000000000000000000082169050919050565b7f4552433136353a20696e76616c696420696e7465726661636520696400000000600082015250565b61037181610313565b811461037c57600080fd5b5056fea26469706673582212205114e56df9fe149f7f84fa34c673f0108288d20badbcbc927890a69a9b1f7e2664736f6c63430008040033",
  "linkReferences": {},
  "deployedLinkReferences": {}
}