{
  "_format": "hh-sol-artifact-1",
  "contractName": "ERC1155BurnableMock",
  "sourceName": "contracts/src/OpenZeppelin/mocks/ERC1155BurnableMock.sol",
  "abi": [
    {
      "inputs": [
        {
          "internalType": "string",
          "name": "uri",
          "type": "string"
        }
      ],
      "stateMutability": "nonpayable",
      "type": "constructor"
    },
    {
      "anonymous": false,
      "inputs": [
        {
          "indexed": true,
          "internalType": "address",
          "name": "account",
          "type": "address"
        },
        {
          "indexed": true,
          "internalType": "address",
          "name": "operator",
          "type": "address"
        },
        {
          "indexed": false,
          "internalType": "bool",
          "name": "approved",
          "type": "bool"
        }
      ],
      "name": "ApprovalForAll",
      "type": "event"
    },
    {
      "anonymous": false,
      "inputs": [
        {
          "indexed": true,
          "internalType": "address",
          "name": "operator",
          "type": "address"
        },
        {
          "indexed": true,
          "internalType": "address",
          "name": "from",
          "type": "address"
        },
        {
          "indexed": true,
          "internalType": "address",
          "name": "to",
          "type": "address"
        },
        {
          "indexed": false,
          "internalType": "uint256[]",
          "name": "ids",
          "type": "uint256[]"
        },
        {
          "indexed": false,
          "internalType": "uint256[]",
          "name": "values",
          "type": "uint256[]"
        }
      ],
      "name": "TransferBatch",
      "type": "event"
    },
    {
      "anonymous": false,
      "inputs": [
        {
          "indexed": true,
          "internalType": "address",
          "name": "operator",
          "type": "address"
        },
        {
          "indexed": true,
          "internalType": "address",
          "name": "from",
          "type": "address"
        },
        {
          "indexed": true,
          "internalType": "address",
          "name": "to",
          "type": "address"
        },
        {
          "indexed": false,
          "internalType": "uint256",
          "name": "id",
          "type": "uint256"
        },
        {
          "indexed": false,
          "internalType": "uint256",
          "name": "value",
          "type": "uint256"
        }
      ],
      "name": "TransferSingle",
      "type": "event"
    },
    {
      "anonymous": false,
      "inputs": [
        {
          "indexed": false,
          "internalType": "string",
          "name": "value",
          "type": "string"
        },
        {
          "indexed": true,
          "internalType": "uint256",
          "name": "id",
          "type": "uint256"
        }
      ],
      "name": "URI",
      "type": "event"
    },
    {
      "inputs": [
        {
          "internalType": "address",
          "name": "account",
          "type": "address"
        },
        {
          "internalType": "uint256",
          "name": "id",
          "type": "uint256"
        }
      ],
      "name": "balanceOf",
      "outputs": [
        {
          "internalType": "uint256",
          "name": "",
          "type": "uint256"
        }
      ],
      "stateMutability": "view",
      "type": "function"
    },
    {
      "inputs": [
        {
          "internalType": "address[]",
          "name": "accounts",
          "type": "address[]"
        },
        {
          "internalType": "uint256[]",
          "name": "ids",
          "type": "uint256[]"
        }
      ],
      "name": "balanceOfBatch",
      "outputs": [
        {
          "internalType": "uint256[]",
          "name": "",
          "type": "uint256[]"
        }
      ],
      "stateMutability": "view",
      "type": "function"
    },
    {
      "inputs": [
        {
          "internalType": "address",
          "name": "account",
          "type": "address"
        },
        {
          "internalType": "uint256",
          "name": "id",
          "type": "uint256"
        },
        {
          "internalType": "uint256",
          "name": "value",
          "type": "uint256"
        }
      ],
      "name": "burn",
      "outputs": [],
      "stateMutability": "nonpayable",
      "type": "function"
    },
    {
      "inputs": [
        {
          "internalType": "address",
          "name": "account",
          "type": "address"
        },
        {
          "internalType": "uint256[]",
          "name": "ids",
          "type": "uint256[]"
        },
        {
          "internalType": "uint256[]",
          "name": "values",
          "type": "uint256[]"
        }
      ],
      "name": "burnBatch",
      "outputs": [],
      "stateMutability": "nonpayable",
      "type": "function"
    },
    {
      "inputs": [
        {
          "internalType": "address",
          "name": "account",
          "type": "address"
        },
        {
          "internalType": "address",
          "name": "operator",
          "type": "address"
        }
      ],
      "name": "isApprovedForAll",
      "outputs": [
        {
          "internalType": "bool",
          "name": "",
          "type": "bool"
        }
      ],
      "stateMutability": "view",
      "type": "function"
    },
    {
      "inputs": [
        {
          "internalType": "address",
          "name": "to",
          "type": "address"
        },
        {
          "internalType": "uint256",
          "name": "id",
          "type": "uint256"
        },
        {
          "internalType": "uint256",
          "name": "value",
          "type": "uint256"
        },
        {
          "internalType": "bytes",
          "name": "data",
          "type": "bytes"
        }
      ],
      "name": "mint",
      "outputs": [],
      "stateMutability": "nonpayable",
      "type": "function"
    },
    {
      "inputs": [
        {
          "internalType": "address",
          "name": "from",
          "type": "address"
        },
        {
          "internalType": "address",
          "name": "to",
          "type": "address"
        },
        {
          "internalType": "uint256[]",
          "name": "ids",
          "type": "uint256[]"
        },
        {
          "internalType": "uint256[]",
          "name": "amounts",
          "type": "uint256[]"
        },
        {
          "internalType": "bytes",
          "name": "data",
          "type": "bytes"
        }
      ],
      "name": "safeBatchTransferFrom",
      "outputs": [],
      "stateMutability": "nonpayable",
      "type": "function"
    },
    {
      "inputs": [
        {
          "internalType": "address",
          "name": "from",
          "type": "address"
        },
        {
          "internalType": "address",
          "name": "to",
          "type": "address"
        },
        {
          "internalType": "uint256",
          "name": "id",
          "type": "uint256"
        },
        {
          "internalType": "uint256",
          "name": "amount",
          "type": "uint256"
        },
        {
          "internalType": "bytes",
          "name": "data",
          "type": "bytes"
        }
      ],
      "name": "safeTransferFrom",
      "outputs": [],
      "stateMutability": "nonpayable",
      "type": "function"
    },
    {
      "inputs": [
        {
          "internalType": "address",
          "name": "operator",
          "type": "address"
        },
        {
          "internalType": "bool",
          "name": "approved",
          "type": "bool"
        }
      ],
      "name": "setApprovalForAll",
      "outputs": [],
      "stateMutability": "nonpayable",
      "type": "function"
    },
    {
      "inputs": [
        {
          "internalType": "bytes4",
          "name": "interfaceId",
          "type": "bytes4"
        }
      ],
      "name": "supportsInterface",
      "outputs": [
        {
          "internalType": "bool",
          "name": "",
          "type": "bool"
        }
      ],
      "stateMutability": "view",
      "type": "function"
    },
    {
      "inputs": [
        {
          "internalType": "uint256",
          "name": "",
          "type": "uint256"
        }
      ],
      "name": "uri",
      "outputs": [
        {
          "internalType": "string",
          "name": "",
          "type": "string"
        }
      ],
      "stateMutability": "view",
      "type": "function"
    }
  ],
  "bytecode": "0x60806040523480156200001157600080fd5b5060405162003649380380620036498339818101604052810190620000379190620002fa565b80620000697f01ffc9a700000000000000000000000000000000000000000000000000000000620000e460201b60201c565b6200007a81620001bc60201b60201c565b620000ab7fd9b67a2600000000000000000000000000000000000000000000000000000000620000e460201b60201c565b620000dc7f0e89341c00000000000000000000000000000000000000000000000000000000620000e460201b60201c565b505062000532565b63ffffffff60e01b817bffffffffffffffffffffffffffffffffffffffffffffffffffffffff1916141562000150576040517f08c379a0000000000000000000000000000000000000000000000000000000008152600401620001479062000366565b60405180910390fd5b6001600080837bffffffffffffffffffffffffffffffffffffffffffffffffffffffff19167bffffffffffffffffffffffffffffffffffffffffffffffffffffffff1916815260200190815260200160002060006101000a81548160ff02191690831515021790555050565b8060039080519060200190620001d4929190620001d8565b5050565b828054620001e6906200042e565b90600052602060002090601f0160209004810192826200020a576000855562000256565b82601f106200022557805160ff191683800117855562000256565b8280016001018555821562000256579182015b828111156200025557825182559160200191906001019062000238565b5b50905062000265919062000269565b5090565b5b80821115620002845760008160009055506001016200026a565b5090565b60006200029f6200029984620003b1565b62000388565b905082815260208101848484011115620002b857600080fd5b620002c5848285620003f8565b509392505050565b600082601f830112620002df57600080fd5b8151620002f184826020860162000288565b91505092915050565b6000602082840312156200030d57600080fd5b600082015167ffffffffffffffff8111156200032857600080fd5b6200033684828501620002cd565b91505092915050565b60006200034e601c83620003e7565b91506200035b8262000509565b602082019050919050565b6000602082019050818103600083015262000381816200033f565b9050919050565b600062000394620003a7565b9050620003a2828262000464565b919050565b6000604051905090565b600067ffffffffffffffff821115620003cf57620003ce620004c9565b5b620003da82620004f8565b9050602081019050919050565b600082825260208201905092915050565b60005b8381101562000418578082015181840152602081019050620003fb565b8381111562000428576000848401525b50505050565b600060028204905060018216806200044757607f821691505b602082108114156200045e576200045d6200049a565b5b50919050565b6200046f82620004f8565b810181811067ffffffffffffffff82111715620004915762000490620004c9565b5b80604052505050565b7f4e487b7100000000000000000000000000000000000000000000000000000000600052602260045260246000fd5b7f4e487b7100000000000000000000000000000000000000000000000000000000600052604160045260246000fd5b6000601f19601f8301169050919050565b7f4552433136353a20696e76616c696420696e7465726661636520696400000000600082015250565b61310780620005426000396000f3fe608060405234801561001057600080fd5b50600436106100a85760003560e01c80636b20c454116100715780636b20c45414610189578063731133e9146101a5578063a22cb465146101c1578063e985e9c5146101dd578063f242432a1461020d578063f5298aca14610229576100a8565b8062fdd58e146100ad57806301ffc9a7146100dd5780630e89341c1461010d5780632eb2c2d61461013d5780634e1273f414610159575b600080fd5b6100c760048036038101906100c29190611ff0565b610245565b6040516100d491906127c0565b60405180910390f35b6100f760048036038101906100f29190612162565b61030f565b60405161010491906125e3565b60405180910390f35b610127600480360381019061012291906121b4565b610376565b60405161013491906125fe565b60405180910390f35b61015760048036038101906101529190611de7565b61040a565b005b610173600480360381019061016e91906120f6565b610803565b604051610180919061258a565b60405180910390f35b6101a3600480360381019061019e9190611f35565b6109b4565b005b6101bf60048036038101906101ba919061207b565b610a51565b005b6101db60048036038101906101d69190611fb4565b610a63565b005b6101f760048036038101906101f29190611dab565b610be4565b60405161020491906125e3565b60405180910390f35b61022760048036038101906102229190611ea6565b610c78565b005b610243600480360381019061023e919061202c565b610f93565b005b60008073ffffffffffffffffffffffffffffffffffffffff168373ffffffffffffffffffffffffffffffffffffffff1614156102b6576040517f08c379a00000000000000000000000000000000000000000000000000000000081526004016102ad90612660565b60405180910390fd5b6001600083815260200190815260200160002060008473ffffffffffffffffffffffffffffffffffffffff1673ffffffffffffffffffffffffffffffffffffffff16815260200190815260200160002054905092915050565b6000806000837bffffffffffffffffffffffffffffffffffffffffffffffffffffffff19167bffffffffffffffffffffffffffffffffffffffffffffffffffffffff1916815260200190815260200160002060009054906101000a900460ff169050919050565b60606003805461038590612a63565b80601f01602080910402602001604051908101604052809291908181526020018280546103b190612a63565b80156103fe5780601f106103d3576101008083540402835291602001916103fe565b820191906000526020600020905b8154815290600101906020018083116103e157829003601f168201915b50505050509050919050565b815183511461044e576040517f08c379a000000000000000000000000000000000000000000000000000000000815260040161044590612780565b60405180910390fd5b600073ffffffffffffffffffffffffffffffffffffffff168473ffffffffffffffffffffffffffffffffffffffff1614156104be576040517f08c379a00000000000000000000000000000000000000000000000000000000081526004016104b5906126c0565b60405180910390fd5b6104c6611030565b73ffffffffffffffffffffffffffffffffffffffff168573ffffffffffffffffffffffffffffffffffffffff16148061050c575061050b85610506611030565b610be4565b5b61054b576040517f08c379a0000000000000000000000000000000000000000000000000000000008152600401610542906126e0565b60405180910390fd5b6000610555611030565b9050610565818787878787611038565b60005b845181101561076e5760008582815181106105ac577f4e487b7100000000000000000000000000000000000000000000000000000000600052603260045260246000fd5b6020026020010151905060008583815181106105f1577f4e487b7100000000000000000000000000000000000000000000000000000000600052603260045260246000fd5b6020026020010151905060006001600084815260200190815260200160002060008b73ffffffffffffffffffffffffffffffffffffffff1673ffffffffffffffffffffffffffffffffffffffff16815260200190815260200160002054905081811015610693576040517f08c379a000000000000000000000000000000000000000000000000000000000815260040161068a90612720565b60405180910390fd5b818161069f9190612979565b6001600085815260200190815260200160002060008c73ffffffffffffffffffffffffffffffffffffffff1673ffffffffffffffffffffffffffffffffffffffff16815260200190815260200160002081905550816001600085815260200190815260200160002060008b73ffffffffffffffffffffffffffffffffffffffff1673ffffffffffffffffffffffffffffffffffffffff16815260200190815260200160002060008282546107539190612923565b925050819055505050508061076790612ac6565b9050610568565b508473ffffffffffffffffffffffffffffffffffffffff168673ffffffffffffffffffffffffffffffffffffffff168273ffffffffffffffffffffffffffffffffffffffff167f4a39dc06d4c0dbc64b70af90fd698a233a518aa5d07e595d983b8c0526c8f7fb87876040516107e59291906125ac565b60405180910390a46107fb818787878787611040565b505050505050565b60608151835114610849576040517f08c379a000000000000000000000000000000000000000000000000000000000815260040161084090612760565b60405180910390fd5b6000835167ffffffffffffffff81111561088c577f4e487b7100000000000000000000000000000000000000000000000000000000600052604160045260246000fd5b6040519080825280602002602001820160405280156108ba5781602001602082028036833780820191505090505b50905060005b84518110156109a957610953858281518110610905577f4e487b7100000000000000000000000000000000000000000000000000000000600052603260045260246000fd5b6020026020010151858381518110610946577f4e487b7100000000000000000000000000000000000000000000000000000000600052603260045260246000fd5b6020026020010151610245565b82828151811061098c577f4e487b7100000000000000000000000000000000000000000000000000000000600052603260045260246000fd5b602002602001018181525050806109a290612ac6565b90506108c0565b508091505092915050565b6109bc611030565b73ffffffffffffffffffffffffffffffffffffffff168373ffffffffffffffffffffffffffffffffffffffff161480610a025750610a01836109fc611030565b610be4565b5b610a41576040517f08c379a0000000000000000000000000000000000000000000000000000000008152600401610a38906126a0565b60405180910390fd5b610a4c838383611227565b505050565b610a5d8484848461152f565b50505050565b8173ffffffffffffffffffffffffffffffffffffffff16610a82611030565b73ffffffffffffffffffffffffffffffffffffffff161415610ad9576040517f08c379a0000000000000000000000000000000000000000000000000000000008152600401610ad090612740565b60405180910390fd5b8060026000610ae6611030565b73ffffffffffffffffffffffffffffffffffffffff1673ffffffffffffffffffffffffffffffffffffffff16815260200190815260200160002060008473ffffffffffffffffffffffffffffffffffffffff1673ffffffffffffffffffffffffffffffffffffffff16815260200190815260200160002060006101000a81548160ff0219169083151502179055508173ffffffffffffffffffffffffffffffffffffffff16610b93611030565b73ffffffffffffffffffffffffffffffffffffffff167f17307eab39ab6107e8899845ad3d59bd9653f200f220920489ca2b5937696c3183604051610bd891906125e3565b60405180910390a35050565b6000600260008473ffffffffffffffffffffffffffffffffffffffff1673ffffffffffffffffffffffffffffffffffffffff16815260200190815260200160002060008373ffffffffffffffffffffffffffffffffffffffff1673ffffffffffffffffffffffffffffffffffffffff16815260200190815260200160002060009054906101000a900460ff16905092915050565b600073ffffffffffffffffffffffffffffffffffffffff168473ffffffffffffffffffffffffffffffffffffffff161415610ce8576040517f08c379a0000000000000000000000000000000000000000000000000000000008152600401610cdf906126c0565b60405180910390fd5b610cf0611030565b73ffffffffffffffffffffffffffffffffffffffff168573ffffffffffffffffffffffffffffffffffffffff161480610d365750610d3585610d30611030565b610be4565b5b610d75576040517f08c379a0000000000000000000000000000000000000000000000000000000008152600401610d6c906126a0565b60405180910390fd5b6000610d7f611030565b9050610d9f818787610d90886116c6565b610d99886116c6565b87611038565b60006001600086815260200190815260200160002060008873ffffffffffffffffffffffffffffffffffffffff1673ffffffffffffffffffffffffffffffffffffffff16815260200190815260200160002054905083811015610e37576040517f08c379a0000000000000000000000000000000000000000000000000000000008152600401610e2e90612720565b60405180910390fd5b8381610e439190612979565b6001600087815260200190815260200160002060008973ffffffffffffffffffffffffffffffffffffffff1673ffffffffffffffffffffffffffffffffffffffff16815260200190815260200160002081905550836001600087815260200190815260200160002060008873ffffffffffffffffffffffffffffffffffffffff1673ffffffffffffffffffffffffffffffffffffffff1681526020019081526020016000206000828254610ef79190612923565b925050819055508573ffffffffffffffffffffffffffffffffffffffff168773ffffffffffffffffffffffffffffffffffffffff168373ffffffffffffffffffffffffffffffffffffffff167fc3d58168c5ae7397731d063d5bbf3d657854427343f4c083240f7aacaa2d0f628888604051610f749291906127db565b60405180910390a4610f8a82888888888861178c565b50505050505050565b610f9b611030565b73ffffffffffffffffffffffffffffffffffffffff168373ffffffffffffffffffffffffffffffffffffffff161480610fe15750610fe083610fdb611030565b610be4565b5b611020576040517f08c379a0000000000000000000000000000000000000000000000000000000008152600401611017906126a0565b60405180910390fd5b61102b838383611973565b505050565b600033905090565b505050505050565b61105f8473ffffffffffffffffffffffffffffffffffffffff16611b9b565b1561121f578373ffffffffffffffffffffffffffffffffffffffff1663bc197c8187878686866040518663ffffffff1660e01b81526004016110a59594939291906124c8565b602060405180830381600087803b1580156110bf57600080fd5b505af19250505080156110f057506040513d601f19601f820116820180604052508101906110ed919061218b565b60015b611196576110fc612b9c565b806308c379a014156111595750611111612fdf565b8061111c575061115b565b806040517f08c379a000000000000000000000000000000000000000000000000000000000815260040161115091906125fe565b60405180910390fd5b505b6040517f08c379a000000000000000000000000000000000000000000000000000000000815260040161118d90612620565b60405180910390fd5b63bc197c8160e01b7bffffffffffffffffffffffffffffffffffffffffffffffffffffffff1916817bffffffffffffffffffffffffffffffffffffffffffffffffffffffff19161461121d576040517f08c379a000000000000000000000000000000000000000000000000000000000815260040161121490612640565b60405180910390fd5b505b505050505050565b600073ffffffffffffffffffffffffffffffffffffffff168373ffffffffffffffffffffffffffffffffffffffff161415611297576040517f08c379a000000000000000000000000000000000000000000000000000000000815260040161128e90612700565b60405180910390fd5b80518251146112db576040517f08c379a00000000000000000000000000000000000000000000000000000000081526004016112d290612780565b60405180910390fd5b60006112e5611030565b905061130581856000868660405180602001604052806000815250611038565b60005b83518110156114a957600084828151811061134c577f4e487b7100000000000000000000000000000000000000000000000000000000600052603260045260246000fd5b602002602001015190506000848381518110611391577f4e487b7100000000000000000000000000000000000000000000000000000000600052603260045260246000fd5b6020026020010151905060006001600084815260200190815260200160002060008973ffffffffffffffffffffffffffffffffffffffff1673ffffffffffffffffffffffffffffffffffffffff16815260200190815260200160002054905081811015611433576040517f08c379a000000000000000000000000000000000000000000000000000000000815260040161142a90612680565b60405180910390fd5b818161143f9190612979565b6001600085815260200190815260200160002060008a73ffffffffffffffffffffffffffffffffffffffff1673ffffffffffffffffffffffffffffffffffffffff1681526020019081526020016000208190555050505080806114a190612ac6565b915050611308565b50600073ffffffffffffffffffffffffffffffffffffffff168473ffffffffffffffffffffffffffffffffffffffff168273ffffffffffffffffffffffffffffffffffffffff167f4a39dc06d4c0dbc64b70af90fd698a233a518aa5d07e595d983b8c0526c8f7fb86866040516115219291906125ac565b60405180910390a450505050565b600073ffffffffffffffffffffffffffffffffffffffff168473ffffffffffffffffffffffffffffffffffffffff16141561159f576040517f08c379a0000000000000000000000000000000000000000000000000000000008152600401611596906127a0565b60405180910390fd5b60006115a9611030565b90506115ca816000876115bb886116c6565b6115c4886116c6565b87611038565b826001600086815260200190815260200160002060008773ffffffffffffffffffffffffffffffffffffffff1673ffffffffffffffffffffffffffffffffffffffff168152602001908152602001600020600082825461162a9190612923565b925050819055508473ffffffffffffffffffffffffffffffffffffffff16600073ffffffffffffffffffffffffffffffffffffffff168273ffffffffffffffffffffffffffffffffffffffff167fc3d58168c5ae7397731d063d5bbf3d657854427343f4c083240f7aacaa2d0f6287876040516116a89291906127db565b60405180910390a46116bf8160008787878761178c565b5050505050565b60606000600167ffffffffffffffff81111561170b577f4e487b7100000000000000000000000000000000000000000000000000000000600052604160045260246000fd5b6040519080825280602002602001820160405280156117395781602001602082028036833780820191505090505b5090508281600081518110611777577f4e487b7100000000000000000000000000000000000000000000000000000000600052603260045260246000fd5b60200260200101818152505080915050919050565b6117ab8473ffffffffffffffffffffffffffffffffffffffff16611b9b565b1561196b578373ffffffffffffffffffffffffffffffffffffffff1663f23a6e6187878686866040518663ffffffff1660e01b81526004016117f1959493929190612530565b602060405180830381600087803b15801561180b57600080fd5b505af192505050801561183c57506040513d601f19601f82011682018060405250810190611839919061218b565b60015b6118e257611848612b9c565b806308c379a014156118a5575061185d612fdf565b8061186857506118a7565b806040517f08c379a000000000000000000000000000000000000000000000000000000000815260040161189c91906125fe565b60405180910390fd5b505b6040517f08c379a00000000000000000000000000000000000000000000000000000000081526004016118d990612620565b60405180910390fd5b63f23a6e6160e01b7bffffffffffffffffffffffffffffffffffffffffffffffffffffffff1916817bffffffffffffffffffffffffffffffffffffffffffffffffffffffff191614611969576040517f08c379a000000000000000000000000000000000000000000000000000000000815260040161196090612640565b60405180910390fd5b505b505050505050565b600073ffffffffffffffffffffffffffffffffffffffff168373ffffffffffffffffffffffffffffffffffffffff1614156119e3576040517f08c379a00000000000000000000000000000000000000000000000000000000081526004016119da90612700565b60405180910390fd5b60006119ed611030565b9050611a1d818560006119ff876116c6565b611a08876116c6565b60405180602001604052806000815250611038565b60006001600085815260200190815260200160002060008673ffffffffffffffffffffffffffffffffffffffff1673ffffffffffffffffffffffffffffffffffffffff16815260200190815260200160002054905082811015611ab5576040517f08c379a0000000000000000000000000000000000000000000000000000000008152600401611aac90612680565b60405180910390fd5b8281611ac19190612979565b6001600086815260200190815260200160002060008773ffffffffffffffffffffffffffffffffffffffff1673ffffffffffffffffffffffffffffffffffffffff16815260200190815260200160002081905550600073ffffffffffffffffffffffffffffffffffffffff168573ffffffffffffffffffffffffffffffffffffffff168373ffffffffffffffffffffffffffffffffffffffff167fc3d58168c5ae7397731d063d5bbf3d657854427343f4c083240f7aacaa2d0f628787604051611b8c9291906127db565b60405180910390a45050505050565b600080823b905060008111915050919050565b6000611bc1611bbc84612829565b612804565b90508083825260208201905082856020860282011115611be057600080fd5b60005b85811015611c105781611bf68882611cc4565b845260208401935060208301925050600181019050611be3565b5050509392505050565b6000611c2d611c2884612855565b612804565b90508083825260208201905082856020860282011115611c4c57600080fd5b60005b85811015611c7c5781611c628882611d96565b845260208401935060208301925050600181019050611c4f565b5050509392505050565b6000611c99611c9484612881565b612804565b905082815260208101848484011115611cb157600080fd5b611cbc848285612a21565b509392505050565b600081359050611cd381613075565b92915050565b600082601f830112611cea57600080fd5b8135611cfa848260208601611bae565b91505092915050565b600082601f830112611d1457600080fd5b8135611d24848260208601611c1a565b91505092915050565b600081359050611d3c8161308c565b92915050565b600081359050611d51816130a3565b92915050565b600081519050611d66816130a3565b92915050565b600082601f830112611d7d57600080fd5b8135611d8d848260208601611c86565b91505092915050565b600081359050611da5816130ba565b92915050565b60008060408385031215611dbe57600080fd5b6000611dcc85828601611cc4565b9250506020611ddd85828601611cc4565b9150509250929050565b600080600080600060a08688031215611dff57600080fd5b6000611e0d88828901611cc4565b9550506020611e1e88828901611cc4565b945050604086013567ffffffffffffffff811115611e3b57600080fd5b611e4788828901611d03565b935050606086013567ffffffffffffffff811115611e6457600080fd5b611e7088828901611d03565b925050608086013567ffffffffffffffff811115611e8d57600080fd5b611e9988828901611d6c565b9150509295509295909350565b600080600080600060a08688031215611ebe57600080fd5b6000611ecc88828901611cc4565b9550506020611edd88828901611cc4565b9450506040611eee88828901611d96565b9350506060611eff88828901611d96565b925050608086013567ffffffffffffffff811115611f1c57600080fd5b611f2888828901611d6c565b9150509295509295909350565b600080600060608486031215611f4a57600080fd5b6000611f5886828701611cc4565b935050602084013567ffffffffffffffff811115611f7557600080fd5b611f8186828701611d03565b925050604084013567ffffffffffffffff811115611f9e57600080fd5b611faa86828701611d03565b9150509250925092565b60008060408385031215611fc757600080fd5b6000611fd585828601611cc4565b9250506020611fe685828601611d2d565b9150509250929050565b6000806040838503121561200357600080fd5b600061201185828601611cc4565b925050602061202285828601611d96565b9150509250929050565b60008060006060848603121561204157600080fd5b600061204f86828701611cc4565b935050602061206086828701611d96565b925050604061207186828701611d96565b9150509250925092565b6000806000806080858703121561209157600080fd5b600061209f87828801611cc4565b94505060206120b087828801611d96565b93505060406120c187828801611d96565b925050606085013567ffffffffffffffff8111156120de57600080fd5b6120ea87828801611d6c565b91505092959194509250565b6000806040838503121561210957600080fd5b600083013567ffffffffffffffff81111561212357600080fd5b61212f85828601611cd9565b925050602083013567ffffffffffffffff81111561214c57600080fd5b61215885828601611d03565b9150509250929050565b60006020828403121561217457600080fd5b600061218284828501611d42565b91505092915050565b60006020828403121561219d57600080fd5b60006121ab84828501611d57565b91505092915050565b6000602082840312156121c657600080fd5b60006121d484828501611d96565b91505092915050565b60006121e983836124aa565b60208301905092915050565b6121fe816129ad565b82525050565b600061220f826128c2565b61221981856128f0565b9350612224836128b2565b8060005b8381101561225557815161223c88826121dd565b9750612247836128e3565b925050600181019050612228565b5085935050505092915050565b61226b816129bf565b82525050565b600061227c826128cd565b6122868185612901565b9350612296818560208601612a30565b61229f81612bbe565b840191505092915050565b60006122b5826128d8565b6122bf8185612912565b93506122cf818560208601612a30565b6122d881612bbe565b840191505092915050565b60006122f0603483612912565b91506122fb82612bdc565b604082019050919050565b6000612313602883612912565b915061231e82612c2b565b604082019050919050565b6000612336602b83612912565b915061234182612c7a565b604082019050919050565b6000612359602483612912565b915061236482612cc9565b604082019050919050565b600061237c602983612912565b915061238782612d18565b604082019050919050565b600061239f602583612912565b91506123aa82612d67565b604082019050919050565b60006123c2603283612912565b91506123cd82612db6565b604082019050919050565b60006123e5602383612912565b91506123f082612e05565b604082019050919050565b6000612408602a83612912565b915061241382612e54565b604082019050919050565b600061242b602983612912565b915061243682612ea3565b604082019050919050565b600061244e602983612912565b915061245982612ef2565b604082019050919050565b6000612471602883612912565b915061247c82612f41565b604082019050919050565b6000612494602183612912565b915061249f82612f90565b604082019050919050565b6124b381612a17565b82525050565b6124c281612a17565b82525050565b600060a0820190506124dd60008301886121f5565b6124ea60208301876121f5565b81810360408301526124fc8186612204565b905081810360608301526125108185612204565b905081810360808301526125248184612271565b90509695505050505050565b600060a08201905061254560008301886121f5565b61255260208301876121f5565b61255f60408301866124b9565b61256c60608301856124b9565b818103608083015261257e8184612271565b90509695505050505050565b600060208201905081810360008301526125a48184612204565b905092915050565b600060408201905081810360008301526125c68185612204565b905081810360208301526125da8184612204565b90509392505050565b60006020820190506125f86000830184612262565b92915050565b6000602082019050818103600083015261261881846122aa565b905092915050565b60006020820190508181036000830152612639816122e3565b9050919050565b6000602082019050818103600083015261265981612306565b9050919050565b6000602082019050818103600083015261267981612329565b9050919050565b600060208201905081810360008301526126998161234c565b9050919050565b600060208201905081810360008301526126b98161236f565b9050919050565b600060208201905081810360008301526126d981612392565b9050919050565b600060208201905081810360008301526126f9816123b5565b9050919050565b60006020820190508181036000830152612719816123d8565b9050919050565b60006020820190508181036000830152612739816123fb565b9050919050565b600060208201905081810360008301526127598161241e565b9050919050565b6000602082019050818103600083015261277981612441565b9050919050565b6000602082019050818103600083015261279981612464565b9050919050565b600060208201905081810360008301526127b981612487565b9050919050565b60006020820190506127d560008301846124b9565b92915050565b60006040820190506127f060008301856124b9565b6127fd60208301846124b9565b9392505050565b600061280e61281f565b905061281a8282612a95565b919050565b6000604051905090565b600067ffffffffffffffff82111561284457612843612b6d565b5b602082029050602081019050919050565b600067ffffffffffffffff8211156128705761286f612b6d565b5b602082029050602081019050919050565b600067ffffffffffffffff82111561289c5761289b612b6d565b5b6128a582612bbe565b9050602081019050919050565b6000819050602082019050919050565b600081519050919050565b600081519050919050565b600081519050919050565b6000602082019050919050565b600082825260208201905092915050565b600082825260208201905092915050565b600082825260208201905092915050565b600061292e82612a17565b915061293983612a17565b9250827fffffffffffffffffffffffffffffffffffffffffffffffffffffffffffffffff0382111561296e5761296d612b0f565b5b828201905092915050565b600061298482612a17565b915061298f83612a17565b9250828210156129a2576129a1612b0f565b5b828203905092915050565b60006129b8826129f7565b9050919050565b60008115159050919050565b60007fffffffff0000000000000000000000000000000000000000000000000000000082169050919050565b600073ffffffffffffffffffffffffffffffffffffffff82169050919050565b6000819050919050565b82818337600083830152505050565b60005b83811015612a4e578082015181840152602081019050612a33565b83811115612a5d576000848401525b50505050565b60006002820490506001821680612a7b57607f821691505b60208210811415612a8f57612a8e612b3e565b5b50919050565b612a9e82612bbe565b810181811067ffffffffffffffff82111715612abd57612abc612b6d565b5b80604052505050565b6000612ad182612a17565b91507fffffffffffffffffffffffffffffffffffffffffffffffffffffffffffffffff821415612b0457612b03612b0f565b5b600182019050919050565b7f4e487b7100000000000000000000000000000000000000000000000000000000600052601160045260246000fd5b7f4e487b7100000000000000000000000000000000000000000000000000000000600052602260045260246000fd5b7f4e487b7100000000000000000000000000000000000000000000000000000000600052604160045260246000fd5b600060033d1115612bbb5760046000803e612bb8600051612bcf565b90505b90565b6000601f19601f8301169050919050565b60008160e01c9050919050565b7f455243313135353a207472616e7366657220746f206e6f6e204552433131353560008201527f526563656976657220696d706c656d656e746572000000000000000000000000602082015250565b7f455243313135353a204552433131353552656365697665722072656a6563746560008201527f6420746f6b656e73000000000000000000000000000000000000000000000000602082015250565b7f455243313135353a2062616c616e636520717565727920666f7220746865207a60008201527f65726f2061646472657373000000000000000000000000000000000000000000602082015250565b7f455243313135353a206275726e20616d6f756e7420657863656564732062616c60008201527f616e636500000000000000000000000000000000000000000000000000000000602082015250565b7f455243313135353a2063616c6c6572206973206e6f74206f776e6572206e6f7260008201527f20617070726f7665640000000000000000000000000000000000000000000000602082015250565b7f455243313135353a207472616e7366657220746f20746865207a65726f20616460008201527f6472657373000000000000000000000000000000000000000000000000000000602082015250565b7f455243313135353a207472616e736665722063616c6c6572206973206e6f742060008201527f6f776e6572206e6f7220617070726f7665640000000000000000000000000000602082015250565b7f455243313135353a206275726e2066726f6d20746865207a65726f206164647260008201527f6573730000000000000000000000000000000000000000000000000000000000602082015250565b7f455243313135353a20696e73756666696369656e742062616c616e636520666f60008201527f72207472616e7366657200000000000000000000000000000000000000000000602082015250565b7f455243313135353a2073657474696e6720617070726f76616c2073746174757360008201527f20666f722073656c660000000000000000000000000000000000000000000000602082015250565b7f455243313135353a206163636f756e747320616e6420696473206c656e67746860008201527f206d69736d617463680000000000000000000000000000000000000000000000602082015250565b7f455243313135353a2069647320616e6420616d6f756e7473206c656e6774682060008201527f6d69736d61746368000000000000000000000000000000000000000000000000602082015250565b7f455243313135353a206d696e7420746f20746865207a65726f2061646472657360008201527f7300000000000000000000000000000000000000000000000000000000000000602082015250565b600060443d1015612fef57613072565b612ff761281f565b60043d036004823e80513d602482011167ffffffffffffffff8211171561301f575050613072565b808201805167ffffffffffffffff81111561303d5750505050613072565b80602083010160043d03850181111561305a575050505050613072565b61306982602001850186612a95565b82955050505050505b90565b61307e816129ad565b811461308957600080fd5b50565b613095816129bf565b81146130a057600080fd5b50565b6130ac816129cb565b81146130b757600080fd5b50565b6130c381612a17565b81146130ce57600080fd5b5056fea2646970667358221220f70e1e54694173de2722ea22b91f571f64ab3e0628e93a5d486bbc718ed196bb64736f6c63430008040033",
  "linkReferences": {},
  "deployedLinkReferences": {}
}