{
  "_format": "hh-sol-artifact-1",
  "contractName": "ERC20PausableMockUpgradeable",
  "sourceName": "contracts/src/OpenZeppelin/upgradeable/mocks/ERC20PausableMockUpgradeable.sol",
  "abi": [
    {
      "anonymous": false,
      "inputs": [
        {
          "indexed": true,
          "internalType": "address",
          "name": "owner",
          "type": "address"
        },
        {
          "indexed": true,
          "internalType": "address",
          "name": "spender",
          "type": "address"
        },
        {
          "indexed": false,
          "internalType": "uint256",
          "name": "value",
          "type": "uint256"
        }
      ],
      "name": "Approval",
      "type": "event"
    },
    {
      "anonymous": false,
      "inputs": [
        {
          "indexed": false,
          "internalType": "address",
          "name": "account",
          "type": "address"
        }
      ],
      "name": "Paused",
      "type": "event"
    },
    {
      "anonymous": false,
      "inputs": [
        {
          "indexed": true,
          "internalType": "address",
          "name": "from",
          "type": "address"
        },
        {
          "indexed": true,
          "internalType": "address",
          "name": "to",
          "type": "address"
        },
        {
          "indexed": false,
          "internalType": "uint256",
          "name": "value",
          "type": "uint256"
        }
      ],
      "name": "Transfer",
      "type": "event"
    },
    {
      "anonymous": false,
      "inputs": [
        {
          "indexed": false,
          "internalType": "address",
          "name": "account",
          "type": "address"
        }
      ],
      "name": "Unpaused",
      "type": "event"
    },
    {
      "inputs": [
        {
          "internalType": "address",
          "name": "owner",
          "type": "address"
        },
        {
          "internalType": "address",
          "name": "spender",
          "type": "address"
        }
      ],
      "name": "allowance",
      "outputs": [
        {
          "internalType": "uint256",
          "name": "",
          "type": "uint256"
        }
      ],
      "stateMutability": "view",
      "type": "function"
    },
    {
      "inputs": [
        {
          "internalType": "address",
          "name": "spender",
          "type": "address"
        },
        {
          "internalType": "uint256",
          "name": "amount",
          "type": "uint256"
        }
      ],
      "name": "approve",
      "outputs": [
        {
          "internalType": "bool",
          "name": "",
          "type": "bool"
        }
      ],
      "stateMutability": "nonpayable",
      "type": "function"
    },
    {
      "inputs": [
        {
          "internalType": "address",
          "name": "account",
          "type": "address"
        }
      ],
      "name": "balanceOf",
      "outputs": [
        {
          "internalType": "uint256",
          "name": "",
          "type": "uint256"
        }
      ],
      "stateMutability": "view",
      "type": "function"
    },
    {
      "inputs": [
        {
          "internalType": "address",
          "name": "from",
          "type": "address"
        },
        {
          "internalType": "uint256",
          "name": "amount",
          "type": "uint256"
        }
      ],
      "name": "burn",
      "outputs": [],
      "stateMutability": "nonpayable",
      "type": "function"
    },
    {
      "inputs": [],
      "name": "decimals",
      "outputs": [
        {
          "internalType": "uint8",
          "name": "",
          "type": "uint8"
        }
      ],
      "stateMutability": "view",
      "type": "function"
    },
    {
      "inputs": [
        {
          "internalType": "address",
          "name": "spender",
          "type": "address"
        },
        {
          "internalType": "uint256",
          "name": "subtractedValue",
          "type": "uint256"
        }
      ],
      "name": "decreaseAllowance",
      "outputs": [
        {
          "internalType": "bool",
          "name": "",
          "type": "bool"
        }
      ],
      "stateMutability": "nonpayable",
      "type": "function"
    },
    {
      "inputs": [
        {
          "internalType": "address",
          "name": "spender",
          "type": "address"
        },
        {
          "internalType": "uint256",
          "name": "addedValue",
          "type": "uint256"
        }
      ],
      "name": "increaseAllowance",
      "outputs": [
        {
          "internalType": "bool",
          "name": "",
          "type": "bool"
        }
      ],
      "stateMutability": "nonpayable",
      "type": "function"
    },
    {
      "inputs": [
        {
          "internalType": "address",
          "name": "to",
          "type": "address"
        },
        {
          "internalType": "uint256",
          "name": "amount",
          "type": "uint256"
        }
      ],
      "name": "mint",
      "outputs": [],
      "stateMutability": "nonpayable",
      "type": "function"
    },
    {
      "inputs": [],
      "name": "name",
      "outputs": [
        {
          "internalType": "string",
          "name": "",
          "type": "string"
        }
      ],
      "stateMutability": "view",
      "type": "function"
    },
    {
      "inputs": [],
      "name": "pause",
      "outputs": [],
      "stateMutability": "nonpayable",
      "type": "function"
    },
    {
      "inputs": [],
      "name": "paused",
      "outputs": [
        {
          "internalType": "bool",
          "name": "",
          "type": "bool"
        }
      ],
      "stateMutability": "view",
      "type": "function"
    },
    {
      "inputs": [],
      "name": "symbol",
      "outputs": [
        {
          "internalType": "string",
          "name": "",
          "type": "string"
        }
      ],
      "stateMutability": "view",
      "type": "function"
    },
    {
      "inputs": [],
      "name": "totalSupply",
      "outputs": [
        {
          "internalType": "uint256",
          "name": "",
          "type": "uint256"
        }
      ],
      "stateMutability": "view",
      "type": "function"
    },
    {
      "inputs": [
        {
          "internalType": "address",
          "name": "recipient",
          "type": "address"
        },
        {
          "internalType": "uint256",
          "name": "amount",
          "type": "uint256"
        }
      ],
      "name": "transfer",
      "outputs": [
        {
          "internalType": "bool",
          "name": "",
          "type": "bool"
        }
      ],
      "stateMutability": "nonpayable",
      "type": "function"
    },
    {
      "inputs": [
        {
          "internalType": "address",
          "name": "sender",
          "type": "address"
        },
        {
          "internalType": "address",
          "name": "recipient",
          "type": "address"
        },
        {
          "internalType": "uint256",
          "name": "amount",
          "type": "uint256"
        }
      ],
      "name": "transferFrom",
      "outputs": [
        {
          "internalType": "bool",
          "name": "",
          "type": "bool"
        }
      ],
      "stateMutability": "nonpayable",
      "type": "function"
    },
    {
      "inputs": [],
      "name": "unpause",
      "outputs": [],
      "stateMutability": "nonpayable",
      "type": "function"
    }
  ],
  "bytecode": "0x608060405234801561001057600080fd5b50611cd0806100206000396000f3fe608060405234801561001057600080fd5b50600436106101005760003560e01c80635c975abb116100975780639dc29fac116100665780639dc29fac1461028b578063a457c2d7146102a7578063a9059cbb146102d7578063dd62ed3e1461030757610100565b80635c975abb1461021557806370a08231146102335780638456cb591461026357806395d89b411461026d57610100565b8063313ce567116100d3578063313ce567146101a157806339509351146101bf5780633f4ba83a146101ef57806340c10f19146101f957610100565b806306fdde0314610105578063095ea7b31461012357806318160ddd1461015357806323b872dd14610171575b600080fd5b61010d610337565b60405161011a9190611514565b60405180910390f35b61013d60048036038101906101389190611266565b6103c9565b60405161014a91906114f9565b60405180910390f35b61015b6103e7565b60405161016891906116d6565b60405180910390f35b61018b60048036038101906101869190611217565b6103f1565b60405161019891906114f9565b60405180910390f35b6101a96104e9565b6040516101b691906116f1565b60405180910390f35b6101d960048036038101906101d49190611266565b6104f2565b6040516101e691906114f9565b60405180910390f35b6101f761059e565b005b610213600480360381019061020e9190611266565b6105a8565b005b61021d6105b6565b60405161022a91906114f9565b60405180910390f35b61024d600480360381019061024891906111b2565b6105cd565b60405161025a91906116d6565b60405180910390f35b61026b610616565b005b610275610620565b6040516102829190611514565b60405180910390f35b6102a560048036038101906102a09190611266565b6106b2565b005b6102c160048036038101906102bc9190611266565b6106c0565b6040516102ce91906114f9565b60405180910390f35b6102f160048036038101906102ec9190611266565b6107ab565b6040516102fe91906114f9565b60405180910390f35b610321600480360381019061031c91906111db565b6107c9565b60405161032e91906116d6565b60405180910390f35b6060603680546103469061183a565b80601f01602080910402602001604051908101604052809291908181526020018280546103729061183a565b80156103bf5780601f10610394576101008083540402835291602001916103bf565b820191906000526020600020905b8154815290600101906020018083116103a257829003601f168201915b5050505050905090565b60006103dd6103d6610850565b8484610858565b6001905092915050565b6000603554905090565b60006103fe848484610a23565b6000603460008673ffffffffffffffffffffffffffffffffffffffff1673ffffffffffffffffffffffffffffffffffffffff1681526020019081526020016000206000610449610850565b73ffffffffffffffffffffffffffffffffffffffff1673ffffffffffffffffffffffffffffffffffffffff168152602001908152602001600020549050828110156104c9576040517f08c379a00000000000000000000000000000000000000000000000000000000081526004016104c0906115f6565b60405180910390fd5b6104dd856104d5610850565b858403610858565b60019150509392505050565b60006012905090565b60006105946104ff610850565b84846034600061050d610850565b73ffffffffffffffffffffffffffffffffffffffff1673ffffffffffffffffffffffffffffffffffffffff16815260200190815260200160002060008873ffffffffffffffffffffffffffffffffffffffff1673ffffffffffffffffffffffffffffffffffffffff1681526020019081526020016000205461058f9190611728565b610858565b6001905092915050565b6105a6610ca7565b565b6105b28282610d49565b5050565b6000606560009054906101000a900460ff16905090565b6000603360008373ffffffffffffffffffffffffffffffffffffffff1673ffffffffffffffffffffffffffffffffffffffff168152602001908152602001600020549050919050565b61061e610eaa565b565b60606037805461062f9061183a565b80601f016020809104026020016040519081016040528092919081815260200182805461065b9061183a565b80156106a85780601f1061067d576101008083540402835291602001916106a8565b820191906000526020600020905b81548152906001019060200180831161068b57829003601f168201915b5050505050905090565b6106bc8282610f4d565b5050565b600080603460006106cf610850565b73ffffffffffffffffffffffffffffffffffffffff1673ffffffffffffffffffffffffffffffffffffffff16815260200190815260200160002060008573ffffffffffffffffffffffffffffffffffffffff1673ffffffffffffffffffffffffffffffffffffffff1681526020019081526020016000205490508281101561078c576040517f08c379a000000000000000000000000000000000000000000000000000000000815260040161078390611676565b60405180910390fd5b6107a0610797610850565b85858403610858565b600191505092915050565b60006107bf6107b8610850565b8484610a23565b6001905092915050565b6000603460008473ffffffffffffffffffffffffffffffffffffffff1673ffffffffffffffffffffffffffffffffffffffff16815260200190815260200160002060008373ffffffffffffffffffffffffffffffffffffffff1673ffffffffffffffffffffffffffffffffffffffff16815260200190815260200160002054905092915050565b600033905090565b600073ffffffffffffffffffffffffffffffffffffffff168373ffffffffffffffffffffffffffffffffffffffff1614156108c8576040517f08c379a00000000000000000000000000000000000000000000000000000000081526004016108bf90611656565b60405180910390fd5b600073ffffffffffffffffffffffffffffffffffffffff168273ffffffffffffffffffffffffffffffffffffffff161415610938576040517f08c379a000000000000000000000000000000000000000000000000000000000815260040161092f90611596565b60405180910390fd5b80603460008573ffffffffffffffffffffffffffffffffffffffff1673ffffffffffffffffffffffffffffffffffffffff16815260200190815260200160002060008473ffffffffffffffffffffffffffffffffffffffff1673ffffffffffffffffffffffffffffffffffffffff168152602001908152602001600020819055508173ffffffffffffffffffffffffffffffffffffffff168373ffffffffffffffffffffffffffffffffffffffff167f8c5be1e5ebec7d5bd14f71427d1e84f3dd0314c0f7b2291e5b200ac8c7c3b92583604051610a1691906116d6565b60405180910390a3505050565b600073ffffffffffffffffffffffffffffffffffffffff168373ffffffffffffffffffffffffffffffffffffffff161415610a93576040517f08c379a0000000000000000000000000000000000000000000000000000000008152600401610a8a90611636565b60405180910390fd5b600073ffffffffffffffffffffffffffffffffffffffff168273ffffffffffffffffffffffffffffffffffffffff161415610b03576040517f08c379a0000000000000000000000000000000000000000000000000000000008152600401610afa90611536565b60405180910390fd5b610b0e838383611126565b6000603360008573ffffffffffffffffffffffffffffffffffffffff1673ffffffffffffffffffffffffffffffffffffffff16815260200190815260200160002054905081811015610b95576040517f08c379a0000000000000000000000000000000000000000000000000000000008152600401610b8c906115b6565b60405180910390fd5b818103603360008673ffffffffffffffffffffffffffffffffffffffff1673ffffffffffffffffffffffffffffffffffffffff1681526020019081526020016000208190555081603360008573ffffffffffffffffffffffffffffffffffffffff1673ffffffffffffffffffffffffffffffffffffffff1681526020019081526020016000206000828254610c2a9190611728565b925050819055508273ffffffffffffffffffffffffffffffffffffffff168473ffffffffffffffffffffffffffffffffffffffff167fddf252ad1be2c89b69c2b068fc378daa952ba7f163c4a11628f55a4df523b3ef84604051610c8e91906116d6565b60405180910390a3610ca184848461117e565b50505050565b610caf6105b6565b610cee576040517f08c379a0000000000000000000000000000000000000000000000000000000008152600401610ce590611556565b60405180910390fd5b6000606560006101000a81548160ff0219169083151502179055507f5db9ee0a495bf2e6ff9c91a7834c1ba4fdd244a5e8aa4e537bd38aeae4b073aa610d32610850565b604051610d3f91906114de565b60405180910390a1565b600073ffffffffffffffffffffffffffffffffffffffff168273ffffffffffffffffffffffffffffffffffffffff161415610db9576040517f08c379a0000000000000000000000000000000000000000000000000000000008152600401610db090611696565b60405180910390fd5b610dc560008383611126565b8060356000828254610dd79190611728565b9250508190555080603360008473ffffffffffffffffffffffffffffffffffffffff1673ffffffffffffffffffffffffffffffffffffffff1681526020019081526020016000206000828254610e2d9190611728565b925050819055508173ffffffffffffffffffffffffffffffffffffffff16600073ffffffffffffffffffffffffffffffffffffffff167fddf252ad1be2c89b69c2b068fc378daa952ba7f163c4a11628f55a4df523b3ef83604051610e9291906116d6565b60405180910390a3610ea66000838361117e565b5050565b610eb26105b6565b15610ef2576040517f08c379a0000000000000000000000000000000000000000000000000000000008152600401610ee9906115d6565b60405180910390fd5b6001606560006101000a81548160ff0219169083151502179055507f62e78cea01bee320cd4e420270b5ea74000d11b0c9f74754ebdbfc544b05a258610f36610850565b604051610f4391906114de565b60405180910390a1565b600073ffffffffffffffffffffffffffffffffffffffff168273ffffffffffffffffffffffffffffffffffffffff161415610fbd576040517f08c379a0000000000000000000000000000000000000000000000000000000008152600401610fb490611616565b60405180910390fd5b610fc982600083611126565b6000603360008473ffffffffffffffffffffffffffffffffffffffff1673ffffffffffffffffffffffffffffffffffffffff16815260200190815260200160002054905081811015611050576040517f08c379a000000000000000000000000000000000000000000000000000000000815260040161104790611576565b60405180910390fd5b818103603360008573ffffffffffffffffffffffffffffffffffffffff1673ffffffffffffffffffffffffffffffffffffffff1681526020019081526020016000208190555081603560008282546110a8919061177e565b92505081905550600073ffffffffffffffffffffffffffffffffffffffff168373ffffffffffffffffffffffffffffffffffffffff167fddf252ad1be2c89b69c2b068fc378daa952ba7f163c4a11628f55a4df523b3ef8460405161110d91906116d6565b60405180910390a36111218360008461117e565b505050565b611131838383611183565b6111396105b6565b15611179576040517f08c379a0000000000000000000000000000000000000000000000000000000008152600401611170906116b6565b60405180910390fd5b505050565b505050565b505050565b60008135905061119781611c6c565b92915050565b6000813590506111ac81611c83565b92915050565b6000602082840312156111c457600080fd5b60006111d284828501611188565b91505092915050565b600080604083850312156111ee57600080fd5b60006111fc85828601611188565b925050602061120d85828601611188565b9150509250929050565b60008060006060848603121561122c57600080fd5b600061123a86828701611188565b935050602061124b86828701611188565b925050604061125c8682870161119d565b9150509250925092565b6000806040838503121561127957600080fd5b600061128785828601611188565b92505060206112988582860161119d565b9150509250929050565b6112ab816117b2565b82525050565b6112ba816117c4565b82525050565b60006112cb8261170c565b6112d58185611717565b93506112e5818560208601611807565b6112ee816118ca565b840191505092915050565b6000611306602383611717565b9150611311826118db565b604082019050919050565b6000611329601483611717565b91506113348261192a565b602082019050919050565b600061134c602283611717565b915061135782611953565b604082019050919050565b600061136f602283611717565b915061137a826119a2565b604082019050919050565b6000611392602683611717565b915061139d826119f1565b604082019050919050565b60006113b5601083611717565b91506113c082611a40565b602082019050919050565b60006113d8602883611717565b91506113e382611a69565b604082019050919050565b60006113fb602183611717565b915061140682611ab8565b604082019050919050565b600061141e602583611717565b915061142982611b07565b604082019050919050565b6000611441602483611717565b915061144c82611b56565b604082019050919050565b6000611464602583611717565b915061146f82611ba5565b604082019050919050565b6000611487601f83611717565b915061149282611bf4565b602082019050919050565b60006114aa602a83611717565b91506114b582611c1d565b604082019050919050565b6114c9816117f0565b82525050565b6114d8816117fa565b82525050565b60006020820190506114f360008301846112a2565b92915050565b600060208201905061150e60008301846112b1565b92915050565b6000602082019050818103600083015261152e81846112c0565b905092915050565b6000602082019050818103600083015261154f816112f9565b9050919050565b6000602082019050818103600083015261156f8161131c565b9050919050565b6000602082019050818103600083015261158f8161133f565b9050919050565b600060208201905081810360008301526115af81611362565b9050919050565b600060208201905081810360008301526115cf81611385565b9050919050565b600060208201905081810360008301526115ef816113a8565b9050919050565b6000602082019050818103600083015261160f816113cb565b9050919050565b6000602082019050818103600083015261162f816113ee565b9050919050565b6000602082019050818103600083015261164f81611411565b9050919050565b6000602082019050818103600083015261166f81611434565b9050919050565b6000602082019050818103600083015261168f81611457565b9050919050565b600060208201905081810360008301526116af8161147a565b9050919050565b600060208201905081810360008301526116cf8161149d565b9050919050565b60006020820190506116eb60008301846114c0565b92915050565b600060208201905061170660008301846114cf565b92915050565b600081519050919050565b600082825260208201905092915050565b6000611733826117f0565b915061173e836117f0565b9250827fffffffffffffffffffffffffffffffffffffffffffffffffffffffffffffffff038211156117735761177261186c565b5b828201905092915050565b6000611789826117f0565b9150611794836117f0565b9250828210156117a7576117a661186c565b5b828203905092915050565b60006117bd826117d0565b9050919050565b60008115159050919050565b600073ffffffffffffffffffffffffffffffffffffffff82169050919050565b6000819050919050565b600060ff82169050919050565b60005b8381101561182557808201518184015260208101905061180a565b83811115611834576000848401525b50505050565b6000600282049050600182168061185257607f821691505b602082108114156118665761186561189b565b5b50919050565b7f4e487b7100000000000000000000000000000000000000000000000000000000600052601160045260246000fd5b7f4e487b7100000000000000000000000000000000000000000000000000000000600052602260045260246000fd5b6000601f19601f8301169050919050565b7f45524332303a207472616e7366657220746f20746865207a65726f206164647260008201527f6573730000000000000000000000000000000000000000000000000000000000602082015250565b7f5061757361626c653a206e6f7420706175736564000000000000000000000000600082015250565b7f45524332303a206275726e20616d6f756e7420657863656564732062616c616e60008201527f6365000000000000000000000000000000000000000000000000000000000000602082015250565b7f45524332303a20617070726f766520746f20746865207a65726f20616464726560008201527f7373000000000000000000000000000000000000000000000000000000000000602082015250565b7f45524332303a207472616e7366657220616d6f756e742065786365656473206260008201527f616c616e63650000000000000000000000000000000000000000000000000000602082015250565b7f5061757361626c653a2070617573656400000000000000000000000000000000600082015250565b7f45524332303a207472616e7366657220616d6f756e742065786365656473206160008201527f6c6c6f77616e6365000000000000000000000000000000000000000000000000602082015250565b7f45524332303a206275726e2066726f6d20746865207a65726f2061646472657360008201527f7300000000000000000000000000000000000000000000000000000000000000602082015250565b7f45524332303a207472616e736665722066726f6d20746865207a65726f20616460008201527f6472657373000000000000000000000000000000000000000000000000000000602082015250565b7f45524332303a20617070726f76652066726f6d20746865207a65726f2061646460008201527f7265737300000000000000000000000000000000000000000000000000000000602082015250565b7f45524332303a2064656372656173656420616c6c6f77616e63652062656c6f7760008201527f207a65726f000000000000000000000000000000000000000000000000000000602082015250565b7f45524332303a206d696e7420746f20746865207a65726f206164647265737300600082015250565b7f45524332305061757361626c653a20746f6b656e207472616e7366657220776860008201527f696c652070617573656400000000000000000000000000000000000000000000602082015250565b611c75816117b2565b8114611c8057600080fd5b50565b611c8c816117f0565b8114611c9757600080fd5b5056fea2646970667358221220f869b9c4cd9e8fcf2f187795028aa4ab2651d7c958da8691331c90b14cc5088264736f6c63430008040033",
  "linkReferences": {},
  "deployedLinkReferences": {}
}