{
  "_format": "hh-sol-artifact-1",
  "contractName": "TokenVault",
  "sourceName": "contracts/src/ERC721TokenVault.sol",
  "abi": [
    {
      "inputs": [
        {
          "internalType": "address",
          "name": "_settings",
          "type": "address"
        }
      ],
      "stateMutability": "nonpayable",
      "type": "constructor"
    },
    {
      "anonymous": false,
      "inputs": [
        {
          "indexed": true,
          "internalType": "address",
          "name": "owner",
          "type": "address"
        },
        {
          "indexed": true,
          "internalType": "address",
          "name": "spender",
          "type": "address"
        },
        {
          "indexed": false,
          "internalType": "uint256",
          "name": "value",
          "type": "uint256"
        }
      ],
      "name": "Approval",
      "type": "event"
    },
    {
      "anonymous": false,
      "inputs": [
        {
          "indexed": true,
          "internalType": "address",
          "name": "buyer",
          "type": "address"
        },
        {
          "indexed": false,
          "internalType": "uint256",
          "name": "price",
          "type": "uint256"
        }
      ],
      "name": "Bid",
      "type": "event"
    },
    {
      "anonymous": false,
      "inputs": [
        {
          "indexed": true,
          "internalType": "address",
          "name": "owner",
          "type": "address"
        },
        {
          "indexed": false,
          "internalType": "uint256",
          "name": "shares",
          "type": "uint256"
        }
      ],
      "name": "Cash",
      "type": "event"
    },
    {
      "anonymous": false,
      "inputs": [
        {
          "indexed": true,
          "internalType": "address",
          "name": "user",
          "type": "address"
        },
        {
          "indexed": false,
          "internalType": "uint256",
          "name": "price",
          "type": "uint256"
        }
      ],
      "name": "PriceUpdate",
      "type": "event"
    },
    {
      "anonymous": false,
      "inputs": [
        {
          "indexed": true,
          "internalType": "address",
          "name": "redeemer",
          "type": "address"
        }
      ],
      "name": "Redeem",
      "type": "event"
    },
    {
      "anonymous": false,
      "inputs": [
        {
          "indexed": true,
          "internalType": "address",
          "name": "buyer",
          "type": "address"
        },
        {
          "indexed": false,
          "internalType": "uint256",
          "name": "price",
          "type": "uint256"
        }
      ],
      "name": "Start",
      "type": "event"
    },
    {
      "anonymous": false,
      "inputs": [
        {
          "indexed": true,
          "internalType": "address",
          "name": "from",
          "type": "address"
        },
        {
          "indexed": true,
          "internalType": "address",
          "name": "to",
          "type": "address"
        },
        {
          "indexed": false,
          "internalType": "uint256",
          "name": "value",
          "type": "uint256"
        }
      ],
      "name": "Transfer",
      "type": "event"
    },
    {
      "anonymous": false,
      "inputs": [
        {
          "indexed": true,
          "internalType": "address",
          "name": "buyer",
          "type": "address"
        },
        {
          "indexed": false,
          "internalType": "uint256",
          "name": "price",
          "type": "uint256"
        }
      ],
      "name": "Won",
      "type": "event"
    },
    {
      "inputs": [
        {
          "internalType": "address",
          "name": "owner",
          "type": "address"
        },
        {
          "internalType": "address",
          "name": "spender",
          "type": "address"
        }
      ],
      "name": "allowance",
      "outputs": [
        {
          "internalType": "uint256",
          "name": "",
          "type": "uint256"
        }
      ],
      "stateMutability": "view",
      "type": "function"
    },
    {
      "inputs": [
        {
          "internalType": "address",
          "name": "spender",
          "type": "address"
        },
        {
          "internalType": "uint256",
          "name": "amount",
          "type": "uint256"
        }
      ],
      "name": "approve",
      "outputs": [
        {
          "internalType": "bool",
          "name": "",
          "type": "bool"
        }
      ],
      "stateMutability": "nonpayable",
      "type": "function"
    },
    {
      "inputs": [],
      "name": "auctionEnd",
      "outputs": [
        {
          "internalType": "uint256",
          "name": "",
          "type": "uint256"
        }
      ],
      "stateMutability": "view",
      "type": "function"
    },
    {
      "inputs": [],
      "name": "auctionLength",
      "outputs": [
        {
          "internalType": "uint256",
          "name": "",
          "type": "uint256"
        }
      ],
      "stateMutability": "view",
      "type": "function"
    },
    {
      "inputs": [],
      "name": "auctionState",
      "outputs": [
        {
          "internalType": "enum TokenVault.State",
          "name": "",
          "type": "uint8"
        }
      ],
      "stateMutability": "view",
      "type": "function"
    },
    {
      "inputs": [
        {
          "internalType": "address",
          "name": "account",
          "type": "address"
        }
      ],
      "name": "balanceOf",
      "outputs": [
        {
          "internalType": "uint256",
          "name": "",
          "type": "uint256"
        }
      ],
      "stateMutability": "view",
      "type": "function"
    },
    {
      "inputs": [],
      "name": "bid",
      "outputs": [],
      "stateMutability": "payable",
      "type": "function"
    },
    {
      "inputs": [],
      "name": "cash",
      "outputs": [],
      "stateMutability": "nonpayable",
      "type": "function"
    },
    {
      "inputs": [],
      "name": "claimFees",
      "outputs": [],
      "stateMutability": "nonpayable",
      "type": "function"
    },
    {
      "inputs": [],
      "name": "curator",
      "outputs": [
        {
          "internalType": "address",
          "name": "",
          "type": "address"
        }
      ],
      "stateMutability": "view",
      "type": "function"
    },
    {
      "inputs": [],
      "name": "decimals",
      "outputs": [
        {
          "internalType": "uint8",
          "name": "",
          "type": "uint8"
        }
      ],
      "stateMutability": "view",
      "type": "function"
    },
    {
      "inputs": [
        {
          "internalType": "address",
          "name": "spender",
          "type": "address"
        },
        {
          "internalType": "uint256",
          "name": "subtractedValue",
          "type": "uint256"
        }
      ],
      "name": "decreaseAllowance",
      "outputs": [
        {
          "internalType": "bool",
          "name": "",
          "type": "bool"
        }
      ],
      "stateMutability": "nonpayable",
      "type": "function"
    },
    {
      "inputs": [],
      "name": "end",
      "outputs": [],
      "stateMutability": "nonpayable",
      "type": "function"
    },
    {
      "inputs": [],
      "name": "fee",
      "outputs": [
        {
          "internalType": "uint256",
          "name": "",
          "type": "uint256"
        }
      ],
      "stateMutability": "view",
      "type": "function"
    },
    {
      "inputs": [],
      "name": "id",
      "outputs": [
        {
          "internalType": "uint256",
          "name": "",
          "type": "uint256"
        }
      ],
      "stateMutability": "view",
      "type": "function"
    },
    {
      "inputs": [
        {
          "internalType": "address",
          "name": "spender",
          "type": "address"
        },
        {
          "internalType": "uint256",
          "name": "addedValue",
          "type": "uint256"
        }
      ],
      "name": "increaseAllowance",
      "outputs": [
        {
          "internalType": "bool",
          "name": "",
          "type": "bool"
        }
      ],
      "stateMutability": "nonpayable",
      "type": "function"
    },
    {
      "inputs": [
        {
          "internalType": "address",
          "name": "_curator",
          "type": "address"
        },
        {
          "internalType": "address",
          "name": "_token",
          "type": "address"
        },
        {
          "internalType": "uint256",
          "name": "_id",
          "type": "uint256"
        },
        {
          "internalType": "uint256",
          "name": "_supply",
          "type": "uint256"
        },
        {
          "internalType": "uint256",
          "name": "_listPrice",
          "type": "uint256"
        },
        {
          "internalType": "uint256",
          "name": "_fee",
          "type": "uint256"
        },
        {
          "internalType": "string",
          "name": "_name",
          "type": "string"
        },
        {
          "internalType": "string",
          "name": "_symbol",
          "type": "string"
        }
      ],
      "name": "initialize",
      "outputs": [],
      "stateMutability": "nonpayable",
      "type": "function"
    },
    {
      "inputs": [
        {
          "internalType": "address",
          "name": "_curator",
          "type": "address"
        }
      ],
      "name": "kickCurator",
      "outputs": [],
      "stateMutability": "nonpayable",
      "type": "function"
    },
    {
      "inputs": [],
      "name": "lastClaimed",
      "outputs": [
        {
          "internalType": "uint256",
          "name": "",
          "type": "uint256"
        }
      ],
      "stateMutability": "view",
      "type": "function"
    },
    {
      "inputs": [],
      "name": "livePrice",
      "outputs": [
        {
          "internalType": "uint256",
          "name": "",
          "type": "uint256"
        }
      ],
      "stateMutability": "view",
      "type": "function"
    },
    {
      "inputs": [],
      "name": "name",
      "outputs": [
        {
          "internalType": "string",
          "name": "",
          "type": "string"
        }
      ],
      "stateMutability": "view",
      "type": "function"
    },
    {
      "inputs": [],
      "name": "nft",
      "outputs": [
        {
          "internalType": "contract FNFT",
          "name": "",
          "type": "address"
        }
      ],
      "stateMutability": "view",
      "type": "function"
    },
    {
      "inputs": [
        {
          "internalType": "address",
          "name": "",
          "type": "address"
        },
        {
          "internalType": "address",
          "name": "",
          "type": "address"
        },
        {
          "internalType": "uint256",
          "name": "",
          "type": "uint256"
        },
        {
          "internalType": "bytes",
          "name": "",
          "type": "bytes"
        }
      ],
      "name": "onERC721Received",
      "outputs": [
        {
          "internalType": "bytes4",
          "name": "",
          "type": "bytes4"
        }
      ],
      "stateMutability": "nonpayable",
      "type": "function"
    },
    {
      "inputs": [],
      "name": "redeem",
      "outputs": [],
      "stateMutability": "nonpayable",
      "type": "function"
    },
    {
      "inputs": [
        {
          "internalType": "address",
          "name": "_user",
          "type": "address"
        }
      ],
      "name": "removeReserve",
      "outputs": [],
      "stateMutability": "nonpayable",
      "type": "function"
    },
    {
      "inputs": [],
      "name": "reservePrice",
      "outputs": [
        {
          "internalType": "uint256",
          "name": "",
          "type": "uint256"
        }
      ],
      "stateMutability": "view",
      "type": "function"
    },
    {
      "inputs": [],
      "name": "reserveTotal",
      "outputs": [
        {
          "internalType": "uint256",
          "name": "",
          "type": "uint256"
        }
      ],
      "stateMutability": "view",
      "type": "function"
    },
    {
      "inputs": [],
      "name": "settings",
      "outputs": [
        {
          "internalType": "address",
          "name": "",
          "type": "address"
        }
      ],
      "stateMutability": "view",
      "type": "function"
    },
    {
      "inputs": [],
      "name": "start",
      "outputs": [],
      "stateMutability": "payable",
      "type": "function"
    },
    {
      "inputs": [],
      "name": "symbol",
      "outputs": [
        {
          "internalType": "string",
          "name": "",
          "type": "string"
        }
      ],
      "stateMutability": "view",
      "type": "function"
    },
    {
      "inputs": [],
      "name": "token",
      "outputs": [
        {
          "internalType": "address",
          "name": "",
          "type": "address"
        }
      ],
      "stateMutability": "view",
      "type": "function"
    },
    {
      "inputs": [],
      "name": "totalSupply",
      "outputs": [
        {
          "internalType": "uint256",
          "name": "",
          "type": "uint256"
        }
      ],
      "stateMutability": "view",
      "type": "function"
    },
    {
      "inputs": [
        {
          "internalType": "address",
          "name": "recipient",
          "type": "address"
        },
        {
          "internalType": "uint256",
          "name": "amount",
          "type": "uint256"
        }
      ],
      "name": "transfer",
      "outputs": [
        {
          "internalType": "bool",
          "name": "",
          "type": "bool"
        }
      ],
      "stateMutability": "nonpayable",
      "type": "function"
    },
    {
      "inputs": [
        {
          "internalType": "address",
          "name": "sender",
          "type": "address"
        },
        {
          "internalType": "address",
          "name": "recipient",
          "type": "address"
        },
        {
          "internalType": "uint256",
          "name": "amount",
          "type": "uint256"
        }
      ],
      "name": "transferFrom",
      "outputs": [
        {
          "internalType": "bool",
          "name": "",
          "type": "bool"
        }
      ],
      "stateMutability": "nonpayable",
      "type": "function"
    },
    {
      "inputs": [
        {
          "internalType": "uint256",
          "name": "_length",
          "type": "uint256"
        }
      ],
      "name": "updateAuctionLength",
      "outputs": [],
      "stateMutability": "nonpayable",
      "type": "function"
    },
    {
      "inputs": [
        {
          "internalType": "address",
          "name": "_curator",
          "type": "address"
        }
      ],
      "name": "updateCurator",
      "outputs": [],
      "stateMutability": "nonpayable",
      "type": "function"
    },
    {
      "inputs": [
        {
          "internalType": "uint256",
          "name": "_fee",
          "type": "uint256"
        }
      ],
      "name": "updateFee",
      "outputs": [],
      "stateMutability": "nonpayable",
      "type": "function"
    },
    {
      "inputs": [
        {
          "internalType": "uint256",
          "name": "_new",
          "type": "uint256"
        }
      ],
      "name": "updateUserPrice",
      "outputs": [],
      "stateMutability": "nonpayable",
      "type": "function"
    },
    {
      "inputs": [
        {
          "internalType": "address",
          "name": "",
          "type": "address"
        }
      ],
      "name": "userPrices",
      "outputs": [
        {
          "internalType": "uint256",
          "name": "",
          "type": "uint256"
        }
      ],
      "stateMutability": "view",
      "type": "function"
    },
    {
      "inputs": [],
      "name": "vaultClosed",
      "outputs": [
        {
          "internalType": "bool",
          "name": "",
          "type": "bool"
        }
      ],
      "stateMutability": "view",
      "type": "function"
    },
    {
      "inputs": [],
      "name": "votingTokens",
      "outputs": [
        {
          "internalType": "uint256",
          "name": "",
          "type": "uint256"
        }
      ],
      "stateMutability": "view",
      "type": "function"
    },
    {
      "inputs": [],
      "name": "weth",
      "outputs": [
        {
          "internalType": "address",
          "name": "",
          "type": "address"
        }
      ],
      "stateMutability": "view",
      "type": "function"
    },
    {
      "inputs": [],
      "name": "winning",
      "outputs": [
        {
          "internalType": "address payable",
          "name": "",
          "type": "address"
        }
      ],
      "stateMutability": "view",
      "type": "function"
    }
  ],
  "bytecode": "0x60a06040523480156200001157600080fd5b50604051620085ca380380620085ca83398181016040528101906200003791906200008c565b8073ffffffffffffffffffffffffffffffffffffffff1660808173ffffffffffffffffffffffffffffffffffffffff1660601b815250505062000106565b6000815190506200008681620000ec565b92915050565b6000602082840312156200009f57600080fd5b6000620000af8482850162000075565b91505092915050565b6000620000c582620000cc565b9050919050565b600073ffffffffffffffffffffffffffffffffffffffff82169050919050565b620000f781620000b8565b81146200010357600080fd5b50565b60805160601c61844a6200018060003960008181610d3001528181611098015281816112810152818161133001528181611a0501528181611b0f01528181611cf501528181611dff015281816120490152818161245301528181612bec01528181612ed101528181613c900152613d38015261844a6000f3fe608060405260043610620002965760003560e01c80637fb450991162000163578063be040fb011620000c7578063dd62ed3e1162000085578063dd62ed3e1462000993578063ddca3f4314620009d7578063e06174e41462000a07578063e66f53b71462000a37578063efbe1c1c1462000a67578063fc0c546a1462000a815762000296565b8063be040fb014620008df578063be9a655514620008f9578063c91de6491462000905578063d294f0931462000949578063db2e1eed14620009635762000296565b8063961be3911162000121578063961be39114620007ad5780639a4e6d3414620007c7578063a457c2d714620007f7578063a9059cbb146200083b578063adc1b956146200087f578063af640d0f14620008af5762000296565b80637fb4509914620006c157806380436fe014620006f1578063853a1b90146200071f5780639012c4a8146200074f57806395d89b41146200077d5762000296565b8063313ce567116200020b5780635c9920fc11620001c95780635c9920fc1462000591578063626fb2f014620005c15780636a77571414620005ef5780636da84e6c146200061d57806370a08231146200064d5780637b5581ed14620006915762000296565b8063313ce567146200048d578063325c25a214620004bd5780633950935114620004ed5780633fc8cef3146200053157806347ccca0214620005615762000296565b80631998aeef11620002595780631998aeef14620003b157806323b872dd14620003bd5780632a24f46c14620004015780632a44f12014620004315780632bf33bd9146200045f5762000296565b806306fdde03146200029b578063095ea7b314620002cb5780630c6a62dd146200030f578063150b7a02146200033d57806318160ddd1462000381575b600080fd5b348015620002a857600080fd5b50620002b362000ab1565b604051620002c29190620055d0565b60405180910390f35b348015620002d857600080fd5b50620002f76004803603810190620002f1919062004dce565b62000b4b565b6040516200030691906200553f565b60405180910390f35b3480156200031c57600080fd5b506200033b600480360381019062000335919062004b39565b62000b6d565b005b3480156200034a57600080fd5b5062000369600480360381019062000363919062004c54565b62000c44565b6040516200037891906200555c565b60405180910390f35b3480156200038e57600080fd5b506200039962000c58565b604051620003a8919062005a6f565b60405180910390f35b620003bb62000c62565b005b348015620003ca57600080fd5b50620003e96004803603810190620003e3919062004bfe565b62000f8d565b604051620003f891906200553f565b60405180910390f35b3480156200040e57600080fd5b506200041962001090565b60405162000428919062005a6f565b60405180910390f35b3480156200043e57600080fd5b506200045d600480360381019062000457919062004b39565b62001096565b005b3480156200046c57600080fd5b506200048b600480360381019062000485919062004e3b565b620011ec565b005b3480156200049a57600080fd5b50620004a562001422565b604051620004b4919062005a8c565b60405180910390f35b348015620004ca57600080fd5b50620004d56200142b565b604051620004e4919062005a6f565b60405180910390f35b348015620004fa57600080fd5b5062000519600480360381019062000513919062004dce565b62001431565b6040516200052891906200553f565b60405180910390f35b3480156200053e57600080fd5b5062000549620014e5565b6040516200055891906200545e565b60405180910390f35b3480156200056e57600080fd5b5062000579620014fd565b60405162000588919062005579565b60405180910390f35b3480156200059e57600080fd5b50620005a962001523565b604051620005b891906200553f565b60405180910390f35b348015620005ce57600080fd5b50620005ed6004803603810190620005e7919062004cd9565b62001536565b005b348015620005fc57600080fd5b506200061b600480360381019062000615919062004e3b565b6200181e565b005b3480156200062a57600080fd5b506200063562001fdf565b60405162000644919062005a6f565b60405180910390f35b3480156200065a57600080fd5b5062000679600480360381019062000673919062004b39565b62001fe5565b60405162000688919062005a6f565b60405180910390f35b3480156200069e57600080fd5b50620006a96200202e565b604051620006b8919062005a6f565b60405180910390f35b348015620006ce57600080fd5b50620006d962002034565b604051620006e8919062005596565b60405180910390f35b348015620006fe57600080fd5b506200071d600480360381019062000717919062004b39565b62002047565b005b3480156200072c57600080fd5b506200073762002398565b6040516200074691906200547b565b60405180910390f35b3480156200075c57600080fd5b506200077b600480360381019062000775919062004e3b565b620023be565b005b3480156200078a57600080fd5b50620007956200254e565b604051620007a49190620055d0565b60405180910390f35b348015620007ba57600080fd5b50620007c5620025e8565b005b348015620007d457600080fd5b50620007df62002798565b604051620007ee919062005a6f565b60405180910390f35b3480156200080457600080fd5b506200082360048036038101906200081d919062004dce565b6200279e565b6040516200083291906200553f565b60405180910390f35b3480156200084857600080fd5b5062000867600480360381019062000861919062004dce565b62002892565b6040516200087691906200553f565b60405180910390f35b3480156200088c57600080fd5b5062000897620028b4565b604051620008a6919062005a6f565b60405180910390f35b348015620008bc57600080fd5b50620008c7620028ba565b604051620008d6919062005a6f565b60405180910390f35b348015620008ec57600080fd5b50620008f7620028c0565b005b6200090362002aca565b005b3480156200091257600080fd5b506200093160048036038101906200092b919062004b39565b62002df2565b60405162000940919062005a6f565b60405180910390f35b3480156200095657600080fd5b506200096162002e0a565b005b3480156200097057600080fd5b506200097b62002e16565b6040516200098a919062005a6f565b60405180910390f35b348015620009a057600080fd5b50620009bf6004803603810190620009b9919062004bbd565b62002e42565b604051620009ce919062005a6f565b60405180910390f35b348015620009e457600080fd5b50620009ef62002ec9565b604051620009fe919062005a6f565b60405180910390f35b34801562000a1457600080fd5b5062000a1f62002ecf565b60405162000a2e91906200545e565b60405180910390f35b34801562000a4457600080fd5b5062000a4f62002ef3565b60405162000a5e91906200545e565b60405180910390f35b34801562000a7457600080fd5b5062000a7f62002f19565b005b34801562000a8e57600080fd5b5062000a99620031b3565b60405162000aa891906200545e565b60405180910390f35b60606036805462000ac29062005e08565b80601f016020809104026020016040519081016040528092919081815260200182805462000af09062005e08565b801562000b415780601f1062000b155761010080835404028352916020019162000b41565b820191906000526020600020905b81548152906001019060200180831162000b2357829003601f168201915b5050505050905090565b600062000b6362000b5b620031d9565b8484620031e1565b6001905092915050565b609e60009054906101000a900473ffffffffffffffffffffffffffffffffffffffff1673ffffffffffffffffffffffffffffffffffffffff163373ffffffffffffffffffffffffffffffffffffffff161462000c00576040517f08c379a000000000000000000000000000000000000000000000000000000000815260040162000bf790620057e9565b60405180910390fd5b80609e60006101000a81548173ffffffffffffffffffffffffffffffffffffffff021916908373ffffffffffffffffffffffffffffffffffffffff16021790555050565b600063150b7a0260e01b9050949350505050565b6000603554905090565b6001600381111562000c9d577f4e487b7100000000000000000000000000000000000000000000000000000000600052602160045260246000fd5b609d60149054906101000a900460ff16600381111562000ce6577f4e487b7100000000000000000000000000000000000000000000000000000000600052602160045260246000fd5b1462000d29576040517f08c379a000000000000000000000000000000000000000000000000000000000815260040162000d2090620056d9565b60405180910390fd5b60006103e87f000000000000000000000000000000000000000000000000000000000000000073ffffffffffffffffffffffffffffffffffffffff16637c513c0f6040518163ffffffff1660e01b8152600401602060405180830381600087803b15801562000d9757600080fd5b505af115801562000dac573d6000803e3d6000fd5b505050506040513d601f19601f8201168201806040525081019062000dd2919062004e67565b62000dde919062005b5a565b905080609c5462000df0919062005bef565b6103e83462000e00919062005bef565b101562000e44576040517f08c379a000000000000000000000000000000000000000000000000000000000815260040162000e3b9062005981565b60405180910390fd5b609954421062000e8b576040517f08c379a000000000000000000000000000000000000000000000000000000000815260040162000e829062005871565b60405180910390fd5b6103844260995462000e9e919062005c50565b1162000ec2576103846099600082825462000eba919062005b5a565b925050819055505b62000ef2609d60009054906101000a900473ffffffffffffffffffffffffffffffffffffffff16609c54620033b4565b34609c8190555033609d60006101000a81548173ffffffffffffffffffffffffffffffffffffffff021916908373ffffffffffffffffffffffffffffffffffffffff1602179055503373ffffffffffffffffffffffffffffffffffffffff167fe684a55f31b79eca403df938249029212a5925ec6be8012e099b45bc1019e5d23460405162000f82919062005a6f565b60405180910390a250565b600062000f9c84848462003579565b6000603460008673ffffffffffffffffffffffffffffffffffffffff1673ffffffffffffffffffffffffffffffffffffffff168152602001908152602001600020600062000fe9620031d9565b73ffffffffffffffffffffffffffffffffffffffff1673ffffffffffffffffffffffffffffffffffffffff168152602001908152602001600020549050828110156200106c576040517f08c379a000000000000000000000000000000000000000000000000000000000815260040162001063906200584f565b60405180910390fd5b62001084856200107b620031d9565b858403620031e1565b60019150509392505050565b60995481565b7f000000000000000000000000000000000000000000000000000000000000000073ffffffffffffffffffffffffffffffffffffffff16638da5cb5b6040518163ffffffff1660e01b815260040160206040518083038186803b158015620010fd57600080fd5b505afa15801562001112573d6000803e3d6000fd5b505050506040513d601f19601f8201168201806040525081019062001138919062004b65565b73ffffffffffffffffffffffffffffffffffffffff163373ffffffffffffffffffffffffffffffffffffffff1614620011a8576040517f08c379a00000000000000000000000000000000000000000000000000000000081526004016200119f906200573f565b60405180910390fd5b80609e60006101000a81548173ffffffffffffffffffffffffffffffffffffffff021916908373ffffffffffffffffffffffffffffffffffffffff16021790555050565b609e60009054906101000a900473ffffffffffffffffffffffffffffffffffffffff1673ffffffffffffffffffffffffffffffffffffffff163373ffffffffffffffffffffffffffffffffffffffff16146200127f576040517f08c379a00000000000000000000000000000000000000000000000000000000081526004016200127690620057e9565b60405180910390fd5b7f000000000000000000000000000000000000000000000000000000000000000073ffffffffffffffffffffffffffffffffffffffff1663a0b335e36040518163ffffffff1660e01b8152600401602060405180830381600087803b158015620012e857600080fd5b505af1158015620012fd573d6000803e3d6000fd5b505050506040513d601f19601f8201168201806040525081019062001323919062004e67565b8110158015620013d657507f000000000000000000000000000000000000000000000000000000000000000073ffffffffffffffffffffffffffffffffffffffff16630e519ef96040518163ffffffff1660e01b8152600401602060405180830381600087803b1580156200139757600080fd5b505af1158015620013ac573d6000803e3d6000fd5b505050506040513d601f19601f82011682018060405250810190620013d2919062004e67565b8111155b62001418576040517f08c379a00000000000000000000000000000000000000000000000000000000081526004016200140f906200582d565b60405180910390fd5b80609a8190555050565b60006012905090565b609a5481565b6000620014db62001441620031d9565b84846034600062001451620031d9565b73ffffffffffffffffffffffffffffffffffffffff1673ffffffffffffffffffffffffffffffffffffffff16815260200190815260200160002060008873ffffffffffffffffffffffffffffffffffffffff1673ffffffffffffffffffffffffffffffffffffffff16815260200190815260200160002054620014d5919062005b5a565b620031e1565b6001905092915050565b73c02aaa39b223fe8d0a0e5c4f27ead9083c756cc281565b60a460009054906101000a900473ffffffffffffffffffffffffffffffffffffffff1681565b60a160009054906101000a900460ff1681565b600060019054906101000a900460ff16806200155d575060008054906101000a900460ff16155b6200159f576040517f08c379a000000000000000000000000000000000000000000000000000000000815260040162001596906200580b565b60405180910390fd5b60008060019054906101000a900460ff161590508015620015f0576001600060016101000a81548160ff02191690831515021790555060016000806101000a81548160ff0219169083151502179055505b620015fc83836200380e565b6200160662003905565b828260405162001616906200490d565b62001623929190620055f4565b604051809103906000f08015801562001640573d6000803e3d6000fd5b5060a460006101000a81548173ffffffffffffffffffffffffffffffffffffffff021916908373ffffffffffffffffffffffffffffffffffffffff16021790555087609760006101000a81548173ffffffffffffffffffffffffffffffffffffffff021916908373ffffffffffffffffffffffffffffffffffffffff160217905550866098819055508585620016d7919062005bef565b609b8190555062093a80609a8190555088609e60006101000a81548173ffffffffffffffffffffffffffffffffffffffff021916908373ffffffffffffffffffffffffffffffffffffffff16021790555083609f819055504260a0819055506000851462001746578562001749565b60005b60a2819055506000609d60146101000a81548160ff021916908360038111156200179c577f4e487b7100000000000000000000000000000000000000000000000000000000600052602160045260246000fd5b0217905550620017ad8987620039ee565b8460a360008b73ffffffffffffffffffffffffffffffffffffffff1673ffffffffffffffffffffffffffffffffffffffff168152602001908152602001600020819055508015620018135760008060016101000a81548160ff0219169083151502179055505b505050505050505050565b6000600381111562001859577f4e487b7100000000000000000000000000000000000000000000000000000000600052602160045260246000fd5b609d60149054906101000a900460ff166003811115620018a2577f4e487b7100000000000000000000000000000000000000000000000000000000600052602160045260246000fd5b14620018e5576040517f08c379a0000000000000000000000000000000000000000000000000000000008152600401620018dc90620059c5565b60405180910390fd5b600060a360003373ffffffffffffffffffffffffffffffffffffffff1673ffffffffffffffffffffffffffffffffffffffff168152602001908152602001600020549050808214156200196f576040517f08c379a00000000000000000000000000000000000000000000000000000000081526004016200196690620059e7565b60405180910390fd5b60006200197c3362001fe5565b9050600060a2541415620019ab578060a28190555082816200199f919062005bef565b609b8190555062001f46565b60a25481148015620019be575060008214155b15620019de578281620019d2919062005bef565b609b8190555062001f45565b600082141562001c5e57600060a254609b54620019fc919062005bb7565b905060006103e87f000000000000000000000000000000000000000000000000000000000000000073ffffffffffffffffffffffffffffffffffffffff166309990a966040518163ffffffff1660e01b8152600401602060405180830381600087803b15801562001a6c57600080fd5b505af115801562001a81573d6000803e3d6000fd5b505050506040513d601f19601f8201168201806040525081019062001aa7919062004e67565b8362001ab4919062005bef565b62001ac0919062005bb7565b90508085101562001b08576040517f08c379a000000000000000000000000000000000000000000000000000000000815260040162001aff9062005673565b60405180910390fd5b60006103e87f000000000000000000000000000000000000000000000000000000000000000073ffffffffffffffffffffffffffffffffffffffff16635410bfc96040518163ffffffff1660e01b8152600401602060405180830381600087803b15801562001b7657600080fd5b505af115801562001b8b573d6000803e3d6000fd5b505050506040513d601f19601f8201168201806040525081019062001bb1919062004e67565b8462001bbe919062005bef565b62001bca919062005bb7565b90508086111562001c12576040517f08c379a000000000000000000000000000000000000000000000000000000000815260040162001c0990620059a3565b60405180910390fd5b8360a2600082825462001c26919062005b5a565b92505081905550858462001c3b919062005bef565b609b600082825462001c4e919062005b5a565b9250508190555050505062001f44565b600083141562001cb1578060a2600082825462001c7c919062005c50565b92505081905550818162001c91919062005bef565b609b600082825462001ca4919062005c50565b9250508190555062001f43565b60008160a25462001cc3919062005c50565b828462001cd1919062005bef565b609b5462001ce0919062005c50565b62001cec919062005bb7565b905060006103e87f000000000000000000000000000000000000000000000000000000000000000073ffffffffffffffffffffffffffffffffffffffff166309990a966040518163ffffffff1660e01b8152600401602060405180830381600087803b15801562001d5c57600080fd5b505af115801562001d71573d6000803e3d6000fd5b505050506040513d601f19601f8201168201806040525081019062001d97919062004e67565b8362001da4919062005bef565b62001db0919062005bb7565b90508085101562001df8576040517f08c379a000000000000000000000000000000000000000000000000000000000815260040162001def9062005673565b60405180910390fd5b60006103e87f000000000000000000000000000000000000000000000000000000000000000073ffffffffffffffffffffffffffffffffffffffff16635410bfc96040518163ffffffff1660e01b8152600401602060405180830381600087803b15801562001e6657600080fd5b505af115801562001e7b573d6000803e3d6000fd5b505050506040513d601f19601f8201168201806040525081019062001ea1919062004e67565b8462001eae919062005bef565b62001eba919062005bb7565b90508086111562001f02576040517f08c379a000000000000000000000000000000000000000000000000000000000815260040162001ef990620059a3565b60405180910390fd5b848462001f10919062005bef565b868562001f1e919062005bef565b609b5462001f2d919062005b5a565b62001f39919062005c50565b609b819055505050505b5b5b5b8260a360003373ffffffffffffffffffffffffffffffffffffffff1673ffffffffffffffffffffffffffffffffffffffff168152602001908152602001600020819055503373ffffffffffffffffffffffffffffffffffffffff167f64e6e7bd72b853c4e62fd6ceaca05a104700c70a4cb567c75c7f2242ba7f037c8460405162001fd2919062005a6f565b60405180910390a2505050565b609c5481565b6000603360008373ffffffffffffffffffffffffffffffffffffffff1673ffffffffffffffffffffffffffffffffffffffff168152602001908152602001600020549050919050565b609b5481565b609d60149054906101000a900460ff1681565b7f000000000000000000000000000000000000000000000000000000000000000073ffffffffffffffffffffffffffffffffffffffff16638da5cb5b6040518163ffffffff1660e01b815260040160206040518083038186803b158015620020ae57600080fd5b505afa158015620020c3573d6000803e3d6000fd5b505050506040513d601f19601f82011682018060405250810190620020e9919062004b65565b73ffffffffffffffffffffffffffffffffffffffff163373ffffffffffffffffffffffffffffffffffffffff161462002159576040517f08c379a00000000000000000000000000000000000000000000000000000000081526004016200215090620058f9565b60405180910390fd5b6000600381111562002194577f4e487b7100000000000000000000000000000000000000000000000000000000600052602160045260246000fd5b609d60149054906101000a900460ff166003811115620021dd577f4e487b7100000000000000000000000000000000000000000000000000000000600052602160045260246000fd5b1462002220576040517f08c379a00000000000000000000000000000000000000000000000000000000081526004016200221790620059c5565b60405180910390fd5b600060a360008373ffffffffffffffffffffffffffffffffffffffff1673ffffffffffffffffffffffffffffffffffffffff1681526020019081526020016000205490508060001415620022ab576040517f08c379a0000000000000000000000000000000000000000000000000000000008152600401620022a290620059e7565b60405180910390fd5b6000620022b88362001fe5565b90508060a26000828254620022ce919062005c50565b925050819055508181620022e3919062005bef565b609b6000828254620022f6919062005c50565b92505081905550600060a360008573ffffffffffffffffffffffffffffffffffffffff1673ffffffffffffffffffffffffffffffffffffffff168152602001908152602001600020819055508273ffffffffffffffffffffffffffffffffffffffff167f64e6e7bd72b853c4e62fd6ceaca05a104700c70a4cb567c75c7f2242ba7f037c60006040516200238b9190620055b3565b60405180910390a2505050565b609d60009054906101000a900473ffffffffffffffffffffffffffffffffffffffff1681565b609e60009054906101000a900473ffffffffffffffffffffffffffffffffffffffff1673ffffffffffffffffffffffffffffffffffffffff163373ffffffffffffffffffffffffffffffffffffffff161462002451576040517f08c379a00000000000000000000000000000000000000000000000000000000081526004016200244890620057e9565b60405180910390fd5b7f000000000000000000000000000000000000000000000000000000000000000073ffffffffffffffffffffffffffffffffffffffff16638a364bc16040518163ffffffff1660e01b8152600401602060405180830381600087803b158015620024ba57600080fd5b505af1158015620024cf573d6000803e3d6000fd5b505050506040513d601f19601f82011682018060405250810190620024f5919062004e67565b8111156200253a576040517f08c379a0000000000000000000000000000000000000000000000000000000008152600401620025319062005893565b60405180910390fd5b6200254462003b5c565b80609f8190555050565b6060603780546200255f9062005e08565b80601f01602080910402602001604051908101604052809291908181526020018280546200258d9062005e08565b8015620025de5780601f10620025b257610100808354040283529160200191620025de565b820191906000526020600020905b815481529060010190602001808311620025c057829003601f168201915b5050505050905090565b6002600381111562002623577f4e487b7100000000000000000000000000000000000000000000000000000000600052602160045260246000fd5b609d60149054906101000a900460ff1660038111156200266c577f4e487b7100000000000000000000000000000000000000000000000000000000600052602160045260246000fd5b14620026af576040517f08c379a0000000000000000000000000000000000000000000000000000000008152600401620026a69062005a4d565b60405180910390fd5b6000620026bc3362001fe5565b90506000811162002704576040517f08c379a0000000000000000000000000000000000000000000000000000000008152600401620026fb90620056fb565b60405180910390fd5b60006200271062000c58565b47836200271e919062005bef565b6200272a919062005bb7565b905062002738338362003e74565b6200274433826200405b565b3373ffffffffffffffffffffffffffffffffffffffff167f730831a1e4aa2d187ddd8e03d7beeac760a3927da5f112d645e0f8df7494b367826040516200278c919062005a6f565b60405180910390a25050565b60a25481565b60008060346000620027af620031d9565b73ffffffffffffffffffffffffffffffffffffffff1673ffffffffffffffffffffffffffffffffffffffff16815260200190815260200160002060008573ffffffffffffffffffffffffffffffffffffffff1673ffffffffffffffffffffffffffffffffffffffff168152602001908152602001600020549050828110156200286f576040517f08c379a0000000000000000000000000000000000000000000000000000000008152600401620028669062005a09565b60405180910390fd5b620028876200287d620031d9565b85858403620031e1565b600191505092915050565b6000620028aa620028a2620031d9565b848462003579565b6001905092915050565b60a05481565b60985481565b60006003811115620028fb577f4e487b7100000000000000000000000000000000000000000000000000000000600052602160045260246000fd5b609d60149054906101000a900460ff16600381111562002944577f4e487b7100000000000000000000000000000000000000000000000000000000600052602160045260246000fd5b1462002987576040517f08c379a00000000000000000000000000000000000000000000000000000000081526004016200297e906200571d565b60405180910390fd5b6200299c336200299662000c58565b62003e74565b609760009054906101000a900473ffffffffffffffffffffffffffffffffffffffff1673ffffffffffffffffffffffffffffffffffffffff166323b872dd30336098546040518463ffffffff1660e01b8152600401620029ff93929190620054d5565b600060405180830381600087803b15801562002a1a57600080fd5b505af115801562002a2f573d6000803e3d6000fd5b505050506003609d60146101000a81548160ff0219169083600381111562002a80577f4e487b7100000000000000000000000000000000000000000000000000000000600052602160045260246000fd5b02179055503373ffffffffffffffffffffffffffffffffffffffff167fd1b5ea7fe0f1c2fa09d49c2aa9b2200664ba57a734f1d95481d95b7f99af991c60405160405180910390a2565b6000600381111562002b05577f4e487b7100000000000000000000000000000000000000000000000000000000600052602160045260246000fd5b609d60149054906101000a900460ff16600381111562002b4e577f4e487b7100000000000000000000000000000000000000000000000000000000600052602160045260246000fd5b1462002b91576040517f08c379a000000000000000000000000000000000000000000000000000000000815260040162002b889062005651565b60405180910390fd5b62002b9b62002e16565b34101562002be0576040517f08c379a000000000000000000000000000000000000000000000000000000000815260040162002bd79062005783565b60405180910390fd5b62002bea62000c58565b7f000000000000000000000000000000000000000000000000000000000000000073ffffffffffffffffffffffffffffffffffffffff166332977c736040518163ffffffff1660e01b8152600401602060405180830381600087803b15801562002c5357600080fd5b505af115801562002c68573d6000803e3d6000fd5b505050506040513d601f19601f8201168201806040525081019062002c8e919062004e67565b62002c9a919062005bef565b6103e860a25462002cac919062005bef565b101562002cf0576040517f08c379a000000000000000000000000000000000000000000000000000000000815260040162002ce790620057c7565b60405180910390fd5b609a544262002d00919062005b5a565b6099819055506001609d60146101000a81548160ff0219169083600381111562002d53577f4e487b7100000000000000000000000000000000000000000000000000000000600052602160045260246000fd5b021790555034609c8190555033609d60006101000a81548173ffffffffffffffffffffffffffffffffffffffff021916908373ffffffffffffffffffffffffffffffffffffffff1602179055503373ffffffffffffffffffffffffffffffffffffffff167fcfb9c5312b25ec7b809d61e638df25f749eae5d5c25399e1c93d1d319bfd58213460405162002de8919062005a6f565b60405180910390a2565b60a36020528060005260406000206000915090505481565b62002e1462003b5c565b565b60008060a2541462002e3a5760a254609b5462002e34919062005bb7565b62002e3d565b60005b905090565b6000603460008473ffffffffffffffffffffffffffffffffffffffff1673ffffffffffffffffffffffffffffffffffffffff16815260200190815260200160002060008373ffffffffffffffffffffffffffffffffffffffff1673ffffffffffffffffffffffffffffffffffffffff16815260200190815260200160002054905092915050565b609f5481565b7f000000000000000000000000000000000000000000000000000000000000000081565b609e60009054906101000a900473ffffffffffffffffffffffffffffffffffffffff1681565b6001600381111562002f54577f4e487b7100000000000000000000000000000000000000000000000000000000600052602160045260246000fd5b609d60149054906101000a900460ff16600381111562002f9d577f4e487b7100000000000000000000000000000000000000000000000000000000600052602160045260246000fd5b1462002fe0576040517f08c379a000000000000000000000000000000000000000000000000000000000815260040162002fd7906200593d565b60405180910390fd5b60995442101562003028576040517f08c379a00000000000000000000000000000000000000000000000000000000081526004016200301f90620057a5565b60405180910390fd5b6200303262003b5c565b609760009054906101000a900473ffffffffffffffffffffffffffffffffffffffff1673ffffffffffffffffffffffffffffffffffffffff166323b872dd30609d60009054906101000a900473ffffffffffffffffffffffffffffffffffffffff166098546040518463ffffffff1660e01b8152600401620030b79392919062005498565b600060405180830381600087803b158015620030d257600080fd5b505af1158015620030e7573d6000803e3d6000fd5b505050506002609d60146101000a81548160ff0219169083600381111562003138577f4e487b7100000000000000000000000000000000000000000000000000000000600052602160045260246000fd5b0217905550609d60009054906101000a900473ffffffffffffffffffffffffffffffffffffffff1673ffffffffffffffffffffffffffffffffffffffff167f8b01f9dd0400d6a1e84369a5fb8f6033934856ffa8ebadd707dca302ab551695609c54604051620031a9919062005a6f565b60405180910390a2565b609760009054906101000a900473ffffffffffffffffffffffffffffffffffffffff1681565b600033905090565b600073ffffffffffffffffffffffffffffffffffffffff168373ffffffffffffffffffffffffffffffffffffffff16141562003254576040517f08c379a00000000000000000000000000000000000000000000000000000000081526004016200324b906200591b565b60405180910390fd5b600073ffffffffffffffffffffffffffffffffffffffff168273ffffffffffffffffffffffffffffffffffffffff161415620032c7576040517f08c379a0000000000000000000000000000000000000000000000000000000008152600401620032be90620056b7565b60405180910390fd5b80603460008573ffffffffffffffffffffffffffffffffffffffff1673ffffffffffffffffffffffffffffffffffffffff16815260200190815260200160002060008473ffffffffffffffffffffffffffffffffffffffff1673ffffffffffffffffffffffffffffffffffffffff168152602001908152602001600020819055508173ffffffffffffffffffffffffffffffffffffffff168373ffffffffffffffffffffffffffffffffffffffff167f8c5be1e5ebec7d5bd14f71427d1e84f3dd0314c0f7b2291e5b200ac8c7c3b92583604051620033a7919062005a6f565b60405180910390a3505050565b73c02aaa39b223fe8d0a0e5c4f27ead9083c756cc273ffffffffffffffffffffffffffffffffffffffff1663d0e30db0826040518263ffffffff1660e01b81526004016000604051808303818588803b1580156200341157600080fd5b505af115801562003426573d6000803e3d6000fd5b505050505073c02aaa39b223fe8d0a0e5c4f27ead9083c756cc273ffffffffffffffffffffffffffffffffffffffff1663a9059cbb8373c02aaa39b223fe8d0a0e5c4f27ead9083c756cc273ffffffffffffffffffffffffffffffffffffffff166370a08231306040518263ffffffff1660e01b8152600401620034ab91906200545e565b60206040518083038186803b158015620034c457600080fd5b505afa158015620034d9573d6000803e3d6000fd5b505050506040513d601f19601f82011682018060405250810190620034ff919062004e67565b6040518363ffffffff1660e01b81526004016200351e92919062005512565b602060405180830381600087803b1580156200353957600080fd5b505af11580156200354e573d6000803e3d6000fd5b505050506040513d601f19601f8201168201806040525081019062003574919062004e0f565b505050565b600073ffffffffffffffffffffffffffffffffffffffff168373ffffffffffffffffffffffffffffffffffffffff161415620035ec576040517f08c379a0000000000000000000000000000000000000000000000000000000008152600401620035e390620058d7565b60405180910390fd5b600073ffffffffffffffffffffffffffffffffffffffff168273ffffffffffffffffffffffffffffffffffffffff1614156200365f576040517f08c379a000000000000000000000000000000000000000000000000000000000815260040162003656906200562f565b60405180910390fd5b6200366c83838362004296565b6000603360008573ffffffffffffffffffffffffffffffffffffffff1673ffffffffffffffffffffffffffffffffffffffff16815260200190815260200160002054905081811015620036f6576040517f08c379a0000000000000000000000000000000000000000000000000000000008152600401620036ed9062005761565b60405180910390fd5b818103603360008673ffffffffffffffffffffffffffffffffffffffff1673ffffffffffffffffffffffffffffffffffffffff1681526020019081526020016000208190555081603360008573ffffffffffffffffffffffffffffffffffffffff1673ffffffffffffffffffffffffffffffffffffffff16815260200190815260200160002060008282546200378d919062005b5a565b925050819055508273ffffffffffffffffffffffffffffffffffffffff168473ffffffffffffffffffffffffffffffffffffffff167fddf252ad1be2c89b69c2b068fc378daa952ba7f163c4a11628f55a4df523b3ef84604051620037f3919062005a6f565b60405180910390a36200380884848462004624565b50505050565b600060019054906101000a900460ff168062003835575060008054906101000a900460ff16155b62003877576040517f08c379a00000000000000000000000000000000000000000000000000000000081526004016200386e906200580b565b60405180910390fd5b60008060019054906101000a900460ff161590508015620038c8576001600060016101000a81548160ff02191690831515021790555060016000806101000a81548160ff0219169083151502179055505b620038d262004629565b620038de838362004708565b8015620039005760008060016101000a81548160ff0219169083151502179055505b505050565b600060019054906101000a900460ff16806200392c575060008054906101000a900460ff16155b6200396e576040517f08c379a000000000000000000000000000000000000000000000000000000000815260040162003965906200580b565b60405180910390fd5b60008060019054906101000a900460ff161590508015620039bf576001600060016101000a81548160ff02191690831515021790555060016000806101000a81548160ff0219169083151502179055505b620039c96200481b565b8015620039eb5760008060016101000a81548160ff0219169083151502179055505b50565b600073ffffffffffffffffffffffffffffffffffffffff168273ffffffffffffffffffffffffffffffffffffffff16141562003a61576040517f08c379a000000000000000000000000000000000000000000000000000000000815260040162003a589062005a2b565b60405180910390fd5b62003a6f6000838362004296565b806035600082825462003a83919062005b5a565b9250508190555080603360008473ffffffffffffffffffffffffffffffffffffffff1673ffffffffffffffffffffffffffffffffffffffff168152602001908152602001600020600082825462003adb919062005b5a565b925050819055508173ffffffffffffffffffffffffffffffffffffffff16600073ffffffffffffffffffffffffffffffffffffffff167fddf252ad1be2c89b69c2b068fc378daa952ba7f163c4a11628f55a4df523b3ef8360405162003b42919062005a6f565b60405180910390a362003b586000838362004624565b5050565b6002600381111562003b97577f4e487b7100000000000000000000000000000000000000000000000000000000600052602160045260246000fd5b609d60149054906101000a900460ff16600381111562003be0577f4e487b7100000000000000000000000000000000000000000000000000000000600052602160045260246000fd5b141562003c24576040517f08c379a000000000000000000000000000000000000000000000000000000000815260040162003c1b906200595f565b60405180910390fd5b60006103e862003c3362000c58565b609f5462003c42919062005bef565b62003c4e919062005bb7565b905060006301e133808262003c64919062005bb7565b9050600060a0544262003c78919062005c50565b90506000828262003c8a919062005bef565b905060007f000000000000000000000000000000000000000000000000000000000000000073ffffffffffffffffffffffffffffffffffffffff1663b3f006746040518163ffffffff1660e01b8152600401602060405180830381600087803b15801562003cf757600080fd5b505af115801562003d0c573d6000803e3d6000fd5b505050506040513d601f19601f8201168201806040525081019062003d32919062004b91565b905060007f000000000000000000000000000000000000000000000000000000000000000073ffffffffffffffffffffffffffffffffffffffff16630ea90a126040518163ffffffff1660e01b8152600401602060405180830381600087803b15801562003d9f57600080fd5b505af115801562003db4573d6000803e3d6000fd5b505050506040513d601f19601f8201168201806040525081019062003dda919062004e67565b90506103e862003de962000c58565b8262003df6919062005bef565b62003e02919062005bb7565b95506301e133808662003e16919062005bb7565b94506000858562003e28919062005bef565b90504260a08190555062003e5f609e60009054906101000a900473ffffffffffffffffffffffffffffffffffffffff1685620039ee565b62003e6b8382620039ee565b50505050505050565b600073ffffffffffffffffffffffffffffffffffffffff168273ffffffffffffffffffffffffffffffffffffffff16141562003ee7576040517f08c379a000000000000000000000000000000000000000000000000000000000815260040162003ede90620058b5565b60405180910390fd5b62003ef58260008362004296565b6000603360008473ffffffffffffffffffffffffffffffffffffffff1673ffffffffffffffffffffffffffffffffffffffff1681526020019081526020016000205490508181101562003f7f576040517f08c379a000000000000000000000000000000000000000000000000000000000815260040162003f769062005695565b60405180910390fd5b818103603360008573ffffffffffffffffffffffffffffffffffffffff1673ffffffffffffffffffffffffffffffffffffffff16815260200190815260200160002081905550816035600082825462003fd9919062005c50565b92505081905550600073ffffffffffffffffffffffffffffffffffffffff168373ffffffffffffffffffffffffffffffffffffffff167fddf252ad1be2c89b69c2b068fc378daa952ba7f163c4a11628f55a4df523b3ef8460405162004040919062005a6f565b60405180910390a3620040568360008462004624565b505050565b6200407c8273ffffffffffffffffffffffffffffffffffffffff16620048fa565b15620042495773c02aaa39b223fe8d0a0e5c4f27ead9083c756cc273ffffffffffffffffffffffffffffffffffffffff1663d0e30db0826040518263ffffffff1660e01b81526004016000604051808303818588803b158015620040df57600080fd5b505af1158015620040f4573d6000803e3d6000fd5b505050505073c02aaa39b223fe8d0a0e5c4f27ead9083c756cc273ffffffffffffffffffffffffffffffffffffffff1663a9059cbb8373c02aaa39b223fe8d0a0e5c4f27ead9083c756cc273ffffffffffffffffffffffffffffffffffffffff166370a08231306040518263ffffffff1660e01b81526004016200417991906200545e565b60206040518083038186803b1580156200419257600080fd5b505afa158015620041a7573d6000803e3d6000fd5b505050506040513d601f19601f82011682018060405250810190620041cd919062004e67565b6040518363ffffffff1660e01b8152600401620041ec92919062005512565b602060405180830381600087803b1580156200420757600080fd5b505af11580156200421c573d6000803e3d6000fd5b505050506040513d601f19601f8201168201806040525081019062004242919062004e0f565b5062004292565b8173ffffffffffffffffffffffffffffffffffffffff166108fc829081150290604051600060405180830381858888f1935050505015801562004290573d6000803e3d6000fd5b505b5050565b80620042a28462001fe5565b14156200433b5760a460009054906101000a900473ffffffffffffffffffffffffffffffffffffffff1673ffffffffffffffffffffffffffffffffffffffff166389afcb44846040518263ffffffff1660e01b81526004016200430691906200545e565b600060405180830381600087803b1580156200432157600080fd5b505af115801562004336573d6000803e3d6000fd5b505050505b6000620043488362001fe5565b1415620043e15760a460009054906101000a900473ffffffffffffffffffffffffffffffffffffffff1673ffffffffffffffffffffffffffffffffffffffff16636a627842836040518263ffffffff1660e01b8152600401620043ac91906200545e565b600060405180830381600087803b158015620043c757600080fd5b505af1158015620043dc573d6000803e3d6000fd5b505050505b600073ffffffffffffffffffffffffffffffffffffffff168373ffffffffffffffffffffffffffffffffffffffff1614158015620044a057506000600381111562004455577f4e487b7100000000000000000000000000000000000000000000000000000000600052602160045260246000fd5b609d60149054906101000a900460ff1660038111156200449e577f4e487b7100000000000000000000000000000000000000000000000000000000600052602160045260246000fd5b145b156200461f57600060a360008573ffffffffffffffffffffffffffffffffffffffff1673ffffffffffffffffffffffffffffffffffffffff168152602001908152602001600020549050600060a360008573ffffffffffffffffffffffffffffffffffffffff1673ffffffffffffffffffffffffffffffffffffffff1681526020019081526020016000205490508181146200461c57600081141562004589578260a2600082825462004554919062005c50565b92505081905550818362004569919062005bef565b609b60008282546200457c919062005c50565b925050819055506200461b565b6000821415620045dc578260a26000828254620045a7919062005b5a565b925050819055508083620045bc919062005bef565b609b6000828254620045cf919062005b5a565b925050819055506200461a565b8183620045ea919062005bef565b8184620045f8919062005bef565b609b5462004607919062005b5a565b62004613919062005c50565b609b819055505b5b5b50505b505050565b505050565b600060019054906101000a900460ff168062004650575060008054906101000a900460ff16155b62004692576040517f08c379a000000000000000000000000000000000000000000000000000000000815260040162004689906200580b565b60405180910390fd5b60008060019054906101000a900460ff161590508015620046e3576001600060016101000a81548160ff02191690831515021790555060016000806101000a81548160ff0219169083151502179055505b8015620047055760008060016101000a81548160ff0219169083151502179055505b50565b600060019054906101000a900460ff16806200472f575060008054906101000a900460ff16155b62004771576040517f08c379a000000000000000000000000000000000000000000000000000000000815260040162004768906200580b565b60405180910390fd5b60008060019054906101000a900460ff161590508015620047c2576001600060016101000a81548160ff02191690831515021790555060016000806101000a81548160ff0219169083151502179055505b8260369080519060200190620047da9291906200491b565b508160379080519060200190620047f39291906200491b565b508015620048165760008060016101000a81548160ff0219169083151502179055505b505050565b600060019054906101000a900460ff168062004842575060008054906101000a900460ff16155b62004884576040517f08c379a00000000000000000000000000000000000000000000000000000000081526004016200487b906200580b565b60405180910390fd5b60008060019054906101000a900460ff161590508015620048d5576001600060016101000a81548160ff02191690831515021790555060016000806101000a81548160ff0219169083151502179055505b8015620048f75760008060016101000a81548160ff0219169083151502179055505b50565b600080823b905060008111915050919050565b611d1780620066fe83390190565b828054620049299062005e08565b90600052602060002090601f0160209004810192826200494d576000855562004999565b82601f106200496857805160ff191683800117855562004999565b8280016001018555821562004999579182015b82811115620049985782518255916020019190600101906200497b565b5b509050620049a89190620049ac565b5090565b5b80821115620049c7576000816000905550600101620049ad565b5090565b6000620049e2620049dc8462005ad2565b62005aa9565b905082815260208101848484011115620049fb57600080fd5b62004a0884828562005dc3565b509392505050565b600062004a2762004a218462005b08565b62005aa9565b90508281526020810184848401111562004a4057600080fd5b62004a4d84828562005dc3565b509392505050565b60008135905062004a668162006695565b92915050565b60008151905062004a7d8162006695565b92915050565b60008151905062004a9481620066af565b92915050565b60008151905062004aab81620066c9565b92915050565b600082601f83011262004ac357600080fd5b813562004ad5848260208601620049cb565b91505092915050565b600082601f83011262004af057600080fd5b813562004b0284826020860162004a10565b91505092915050565b60008135905062004b1c81620066e3565b92915050565b60008151905062004b3381620066e3565b92915050565b60006020828403121562004b4c57600080fd5b600062004b5c8482850162004a55565b91505092915050565b60006020828403121562004b7857600080fd5b600062004b888482850162004a6c565b91505092915050565b60006020828403121562004ba457600080fd5b600062004bb48482850162004a83565b91505092915050565b6000806040838503121562004bd157600080fd5b600062004be18582860162004a55565b925050602062004bf48582860162004a55565b9150509250929050565b60008060006060848603121562004c1457600080fd5b600062004c248682870162004a55565b935050602062004c378682870162004a55565b925050604062004c4a8682870162004b0b565b9150509250925092565b6000806000806080858703121562004c6b57600080fd5b600062004c7b8782880162004a55565b945050602062004c8e8782880162004a55565b935050604062004ca18782880162004b0b565b925050606085013567ffffffffffffffff81111562004cbf57600080fd5b62004ccd8782880162004ab1565b91505092959194509250565b600080600080600080600080610100898b03121562004cf757600080fd5b600062004d078b828c0162004a55565b985050602062004d1a8b828c0162004a55565b975050604062004d2d8b828c0162004b0b565b965050606062004d408b828c0162004b0b565b955050608062004d538b828c0162004b0b565b94505060a062004d668b828c0162004b0b565b93505060c089013567ffffffffffffffff81111562004d8457600080fd5b62004d928b828c0162004ade565b92505060e089013567ffffffffffffffff81111562004db057600080fd5b62004dbe8b828c0162004ade565b9150509295985092959890939650565b6000806040838503121562004de257600080fd5b600062004df28582860162004a55565b925050602062004e058582860162004b0b565b9150509250929050565b60006020828403121562004e2257600080fd5b600062004e328482850162004a9a565b91505092915050565b60006020828403121562004e4e57600080fd5b600062004e5e8482850162004b0b565b91505092915050565b60006020828403121562004e7a57600080fd5b600062004e8a8482850162004b22565b91505092915050565b62004e9e8162005d37565b82525050565b62004eaf8162005c9f565b82525050565b62004ec08162005c8b565b82525050565b62004ed18162005cb3565b82525050565b62004ee28162005cbf565b82525050565b62004ef38162005d4b565b82525050565b62004f048162005d73565b82525050565b62004f158162005d87565b82525050565b600062004f288262005b3e565b62004f34818562005b49565b935062004f4681856020860162005dd2565b62004f518162005f5f565b840191505092915050565b600062004f6b60238362005b49565b915062004f788262005f70565b604082019050919050565b600062004f9260178362005b49565b915062004f9f8262005fbf565b602082019050919050565b600062004fb9601c8362005b49565b915062004fc68262005fe8565b602082019050919050565b600062004fe060228362005b49565b915062004fed8262006011565b604082019050919050565b60006200500760228362005b49565b9150620050148262006060565b604082019050919050565b60006200502e60178362005b49565b91506200503b82620060af565b602082019050919050565b600062005055601a8362005b49565b91506200506282620060d8565b602082019050919050565b60006200507c60138362005b49565b9150620050898262006101565b602082019050919050565b6000620050a3600c8362005b49565b9150620050b0826200612a565b602082019050919050565b6000620050ca60268362005b49565b9150620050d78262006153565b604082019050919050565b6000620050f160118362005b49565b9150620050fe82620061a2565b602082019050919050565b60006200511860108362005b49565b91506200512582620061cb565b602082019050919050565b60006200513f60178362005b49565b91506200514c82620061f4565b602082019050919050565b60006200516660128362005b49565b915062005173826200621d565b602082019050919050565b60006200518d602e8362005b49565b91506200519a8262006246565b604082019050919050565b6000620051b4601d8362005b49565b9150620051c18262006295565b602082019050919050565b6000620051db60288362005b49565b9150620051e882620062be565b604082019050919050565b60006200520260118362005b49565b91506200520f826200630d565b602082019050919050565b60006200522960248362005b49565b9150620052368262006336565b604082019050919050565b60006200525060218362005b49565b91506200525d8262006385565b604082019050919050565b60006200527760258362005b49565b91506200528482620063d4565b604082019050919050565b60006200529e600e8362005b49565b9150620052ab8262006423565b602082019050919050565b6000620052c560248362005b49565b9150620052d2826200644c565b604082019050919050565b6000620052ec601c8362005b49565b9150620052f9826200649b565b602082019050919050565b60006200531360258362005b49565b91506200532082620064c4565b604082019050919050565b60006200533a600f8362005b49565b9150620053478262006513565b602082019050919050565b600062005361601d8362005b49565b91506200536e826200653c565b602082019050919050565b60006200538860278362005b49565b9150620053958262006565565b604082019050919050565b6000620053af60148362005b49565b9150620053bc82620065b4565b602082019050919050565b6000620053d660258362005b49565b9150620053e382620065dd565b604082019050919050565b6000620053fd601f8362005b49565b91506200540a826200662c565b602082019050919050565b60006200542460198362005b49565b9150620054318262006655565b602082019050919050565b620054478162005d20565b82525050565b620054588162005d2a565b82525050565b600060208201905062005475600083018462004eb5565b92915050565b600060208201905062005492600083018462004ea4565b92915050565b6000606082019050620054af600083018662004eb5565b620054be602083018562004e93565b620054cd60408301846200543c565b949350505050565b6000606082019050620054ec600083018662004eb5565b620054fb602083018562004eb5565b6200550a60408301846200543c565b949350505050565b600060408201905062005529600083018562004eb5565b6200553860208301846200543c565b9392505050565b600060208201905062005556600083018462004ec6565b92915050565b600060208201905062005573600083018462004ed7565b92915050565b600060208201905062005590600083018462004ee8565b92915050565b6000602082019050620055ad600083018462004ef9565b92915050565b6000602082019050620055ca600083018462004f0a565b92915050565b60006020820190508181036000830152620055ec818462004f1b565b905092915050565b6000604082019050818103600083015262005610818562004f1b565b9050818103602083015262005626818462004f1b565b90509392505050565b600060208201905081810360008301526200564a8162004f5c565b9050919050565b600060208201905081810360008301526200566c8162004f83565b9050919050565b600060208201905081810360008301526200568e8162004faa565b9050919050565b60006020820190508181036000830152620056b08162004fd1565b9050919050565b60006020820190508181036000830152620056d28162004ff8565b9050919050565b60006020820190508181036000830152620056f4816200501f565b9050919050565b60006020820190508181036000830152620057168162005046565b9050919050565b6000602082019050818103600083015262005738816200506d565b9050919050565b600060208201905081810360008301526200575a8162005094565b9050919050565b600060208201905081810360008301526200577c81620050bb565b9050919050565b600060208201905081810360008301526200579e81620050e2565b9050919050565b60006020820190508181036000830152620057c08162005109565b9050919050565b60006020820190508181036000830152620057e28162005130565b9050919050565b60006020820190508181036000830152620058048162005157565b9050919050565b6000602082019050818103600083015262005826816200517e565b9050919050565b600060208201905081810360008301526200584881620051a5565b9050919050565b600060208201905081810360008301526200586a81620051cc565b9050919050565b600060208201905081810360008301526200588c81620051f3565b9050919050565b60006020820190508181036000830152620058ae816200521a565b9050919050565b60006020820190508181036000830152620058d08162005241565b9050919050565b60006020820190508181036000830152620058f28162005268565b9050919050565b6000602082019050818103600083015262005914816200528f565b9050919050565b600060208201905081810360008301526200593681620052b6565b9050919050565b600060208201905081810360008301526200595881620052dd565b9050919050565b600060208201905081810360008301526200597a8162005304565b9050919050565b600060208201905081810360008301526200599c816200532b565b9050919050565b60006020820190508181036000830152620059be8162005352565b9050919050565b60006020820190508181036000830152620059e08162005379565b9050919050565b6000602082019050818103600083015262005a0281620053a0565b9050919050565b6000602082019050818103600083015262005a2481620053c7565b9050919050565b6000602082019050818103600083015262005a4681620053ee565b9050919050565b6000602082019050818103600083015262005a688162005415565b9050919050565b600060208201905062005a8660008301846200543c565b92915050565b600060208201905062005aa360008301846200544d565b92915050565b600062005ab562005ac8565b905062005ac3828262005e3e565b919050565b6000604051905090565b600067ffffffffffffffff82111562005af05762005aef62005f30565b5b62005afb8262005f5f565b9050602081019050919050565b600067ffffffffffffffff82111562005b265762005b2562005f30565b5b62005b318262005f5f565b9050602081019050919050565b600081519050919050565b600082825260208201905092915050565b600062005b678262005d20565b915062005b748362005d20565b9250827fffffffffffffffffffffffffffffffffffffffffffffffffffffffffffffffff0382111562005bac5762005bab62005e74565b5b828201905092915050565b600062005bc48262005d20565b915062005bd18362005d20565b92508262005be45762005be362005ea3565b5b828204905092915050565b600062005bfc8262005d20565b915062005c098362005d20565b9250817fffffffffffffffffffffffffffffffffffffffffffffffffffffffffffffffff048311821515161562005c455762005c4462005e74565b5b828202905092915050565b600062005c5d8262005d20565b915062005c6a8362005d20565b92508282101562005c805762005c7f62005e74565b5b828203905092915050565b600062005c988262005d00565b9050919050565b600062005cac8262005d00565b9050919050565b60008115159050919050565b60007fffffffff0000000000000000000000000000000000000000000000000000000082169050919050565b600081905062005cfb826200667e565b919050565b600073ffffffffffffffffffffffffffffffffffffffff82169050919050565b6000819050919050565b600060ff82169050919050565b600062005d448262005d9b565b9050919050565b600062005d588262005d5f565b9050919050565b600062005d6c8262005d00565b9050919050565b600062005d808262005ceb565b9050919050565b600062005d948262005d20565b9050919050565b600062005da88262005daf565b9050919050565b600062005dbc8262005d00565b9050919050565b82818337600083830152505050565b60005b8381101562005df257808201518184015260208101905062005dd5565b8381111562005e02576000848401525b50505050565b6000600282049050600182168062005e2157607f821691505b6020821081141562005e385762005e3762005f01565b5b50919050565b62005e498262005f5f565b810181811067ffffffffffffffff8211171562005e6b5762005e6a62005f30565b5b80604052505050565b7f4e487b7100000000000000000000000000000000000000000000000000000000600052601160045260246000fd5b7f4e487b7100000000000000000000000000000000000000000000000000000000600052601260045260246000fd5b7f4e487b7100000000000000000000000000000000000000000000000000000000600052602160045260246000fd5b7f4e487b7100000000000000000000000000000000000000000000000000000000600052602260045260246000fd5b7f4e487b7100000000000000000000000000000000000000000000000000000000600052604160045260246000fd5b6000601f19601f8301169050919050565b7f45524332303a207472616e7366657220746f20746865207a65726f206164647260008201527f6573730000000000000000000000000000000000000000000000000000000000602082015250565b7f73746172743a6e6f2061756374696f6e20737461727473000000000000000000600082015250565b7f7570646174653a7265736572766520707269636520746f6f206c6f7700000000600082015250565b7f45524332303a206275726e20616d6f756e7420657863656564732062616c616e60008201527f6365000000000000000000000000000000000000000000000000000000000000602082015250565b7f45524332303a20617070726f766520746f20746865207a65726f20616464726560008201527f7373000000000000000000000000000000000000000000000000000000000000602082015250565b7f6269643a61756374696f6e206973206e6f74206c697665000000000000000000600082015250565b7f636173683a6e6f20746f6b656e7320746f2063617368206f7574000000000000600082015250565b7f72656465656d3a6e6f2072656465656d696e6700000000000000000000000000600082015250565b7f6b69636b3a6e6f7420676f760000000000000000000000000000000000000000600082015250565b7f45524332303a207472616e7366657220616d6f756e742065786365656473206260008201527f616c616e63650000000000000000000000000000000000000000000000000000602082015250565b7f73746172743a746f6f206c6f7720626964000000000000000000000000000000600082015250565b7f656e643a61756374696f6e206c69766500000000000000000000000000000000600082015250565b7f73746172743a6e6f7420656e6f75676820766f74657273000000000000000000600082015250565b7f7570646174653a6e6f742063757261746f720000000000000000000000000000600082015250565b7f496e697469616c697a61626c653a20636f6e747261637420697320616c72656160008201527f647920696e697469616c697a6564000000000000000000000000000000000000602082015250565b7f7570646174653a696e76616c69642061756374696f6e206c656e677468000000600082015250565b7f45524332303a207472616e7366657220616d6f756e742065786365656473206160008201527f6c6c6f77616e6365000000000000000000000000000000000000000000000000602082015250565b7f6269643a61756374696f6e20656e646564000000000000000000000000000000600082015250565b7f7570646174653a63616e6e6f7420696e6372656173652066656520746869732060008201527f6869676800000000000000000000000000000000000000000000000000000000602082015250565b7f45524332303a206275726e2066726f6d20746865207a65726f2061646472657360008201527f7300000000000000000000000000000000000000000000000000000000000000602082015250565b7f45524332303a207472616e736665722066726f6d20746865207a65726f20616460008201527f6472657373000000000000000000000000000000000000000000000000000000602082015250565b7f72656d6f76653a6e6f7420676f76000000000000000000000000000000000000600082015250565b7f45524332303a20617070726f76652066726f6d20746865207a65726f2061646460008201527f7265737300000000000000000000000000000000000000000000000000000000602082015250565b7f656e643a7661756c742068617320616c726561647920636c6f73656400000000600082015250565b7f636c61696d3a63616e6e6f7420636c61696d2061667465722061756374696f6e60008201527f20656e6473000000000000000000000000000000000000000000000000000000602082015250565b7f6269643a746f6f206c6f77206269640000000000000000000000000000000000600082015250565b7f7570646174653a7265736572766520707269636520746f6f2068696768000000600082015250565b7f7570646174653a61756374696f6e206c6976652063616e6e6f7420757064617460008201527f6520707269636500000000000000000000000000000000000000000000000000602082015250565b7f7570646174653a6e6f7420616e20757064617465000000000000000000000000600082015250565b7f45524332303a2064656372656173656420616c6c6f77616e63652062656c6f7760008201527f207a65726f000000000000000000000000000000000000000000000000000000602082015250565b7f45524332303a206d696e7420746f20746865207a65726f206164647265737300600082015250565b7f636173683a7661756c74206e6f7420636c6f7365642079657400000000000000600082015250565b6004811062006692576200669162005ed2565b5b50565b620066a08162005c8b565b8114620066ac57600080fd5b50565b620066ba8162005c9f565b8114620066c657600080fd5b50565b620066d48162005cb3565b8114620066e057600080fd5b50565b620066ee8162005d20565b8114620066fa57600080fd5b5056fe60a06040526040518060400160405280601b81526020017f68747470733a2f2f7572692e6672616374696f6e616c2e6172742f0000000000815250600790805190602001906200005192919062000261565b503480156200005f57600080fd5b5060405162001d1738038062001d17833981810160405281019062000085919062000383565b620000b67f01ffc9a7000000000000000000000000000000000000000000000000000000006200018960201b60201c565b8160049080519060200190620000ce92919062000261565b508060059080519060200190620000e792919062000261565b503373ffffffffffffffffffffffffffffffffffffffff1660808173ffffffffffffffffffffffffffffffffffffffff1660601b81525050620001507f80ac58cd000000000000000000000000000000000000000000000000000000006200018960201b60201c565b620001817f5b5e139f000000000000000000000000000000000000000000000000000000006200018960201b60201c565b5050620005e9565b63ffffffff60e01b817bffffffffffffffffffffffffffffffffffffffffffffffffffffffff19161415620001f5576040517f08c379a0000000000000000000000000000000000000000000000000000000008152600401620001ec906200041d565b60405180910390fd5b6001600080837bffffffffffffffffffffffffffffffffffffffffffffffffffffffff19167bffffffffffffffffffffffffffffffffffffffffffffffffffffffff1916815260200190815260200160002060006101000a81548160ff02191690831515021790555050565b8280546200026f90620004e5565b90600052602060002090601f016020900481019282620002935760008555620002df565b82601f10620002ae57805160ff1916838001178555620002df565b82800160010185558215620002df579182015b82811115620002de578251825591602001919060010190620002c1565b5b509050620002ee9190620002f2565b5090565b5b808211156200030d576000816000905550600101620002f3565b5090565b600062000328620003228462000468565b6200043f565b9050828152602081018484840111156200034157600080fd5b6200034e848285620004af565b509392505050565b600082601f8301126200036857600080fd5b81516200037a84826020860162000311565b91505092915050565b600080604083850312156200039757600080fd5b600083015167ffffffffffffffff811115620003b257600080fd5b620003c08582860162000356565b925050602083015167ffffffffffffffff811115620003de57600080fd5b620003ec8582860162000356565b9150509250929050565b600062000405601c836200049e565b91506200041282620005c0565b602082019050919050565b600060208201905081810360008301526200043881620003f6565b9050919050565b60006200044b6200045e565b90506200045982826200051b565b919050565b6000604051905090565b600067ffffffffffffffff82111562000486576200048562000580565b5b6200049182620005af565b9050602081019050919050565b600082825260208201905092915050565b60005b83811015620004cf578082015181840152602081019050620004b2565b83811115620004df576000848401525b50505050565b60006002820490506001821680620004fe57607f821691505b6020821081141562000515576200051462000551565b5b50919050565b6200052682620005af565b810181811067ffffffffffffffff8211171562000548576200054762000580565b5b80604052505050565b7f4e487b7100000000000000000000000000000000000000000000000000000000600052602260045260246000fd5b7f4e487b7100000000000000000000000000000000000000000000000000000000600052604160045260246000fd5b6000601f19601f8301169050919050565b7f4552433136353a20696e76616c696420696e7465726661636520696400000000600082015250565b60805160601c61170162000616600039600081816104eb015281816106c8015261096301526117016000f3fe608060405234801561001057600080fd5b506004361061010b5760003560e01c80636c0360eb116100a2578063a22cb46511610071578063a22cb465146102b6578063b88d4fde146102d2578063c87b56dd146102ee578063e985e9c51461031e578063fbfa77cf1461034e5761010b565b80636c0360eb1461022e57806370a082311461024c57806389afcb441461027c57806395d89b41146102985761010b565b806323b872dd116100de57806323b872dd146101aa57806342842e0e146101c65780636352211e146101e25780636a627842146102125761010b565b806301ffc9a71461011057806306fdde0314610140578063081812fc1461015e578063095ea7b31461018e575b600080fd5b61012a60048036038101906101259190611033565b61036c565b60405161013791906111a1565b60405180910390f35b6101486103d3565b60405161015591906111bc565b60405180910390f35b6101786004803603810190610173919061105c565b610461565b6040516101859190611186565b60405180910390f35b6101a860048036038101906101a39190610ff7565b610468565b005b6101c460048036038101906101bf9190610ef1565b61047e565b005b6101e060048036038101906101db9190610ef1565b610495565b005b6101fc60048036038101906101f7919061105c565b6104ac565b6040516102099190611186565b60405180910390f35b61022c60048036038101906102279190610e8c565b6104e9565b005b610236610568565b60405161024391906111bc565b60405180910390f35b61026660048036038101906102619190610e8c565b6105fa565b604051610273919061121e565b60405180910390f35b61029660048036038101906102919190610e8c565b6106c6565b005b6102a061072a565b6040516102ad91906111bc565b60405180910390f35b6102d060048036038101906102cb9190610fbb565b6107b8565b005b6102ec60048036038101906102e79190610f40565b6107ce565b005b6103086004803603810190610303919061105c565b6107e6565b60405161031591906111bc565b60405180910390f35b61033860048036038101906103339190610eb5565b610959565b60405161034591906111a1565b60405180910390f35b610356610961565b6040516103639190611186565b60405180910390f35b6000806000837bffffffffffffffffffffffffffffffffffffffffffffffffffffffff19167bffffffffffffffffffffffffffffffffffffffffffffffffffffffff1916815260200190815260200160002060009054906101000a900460ff169050919050565b600480546103e090611427565b80601f016020809104026020016040519081016040528092919081815260200182805461040c90611427565b80156104595780601f1061042e57610100808354040283529160200191610459565b820191906000526020600020905b81548152906001019060200180831161043c57829003601f168201915b505050505081565b6000919050565b60001515600115151461047a57600080fd5b5050565b60001515600115151461049057600080fd5b505050565b6000151560011515146104a757600080fd5b505050565b60006003600083815260200190815260200160002060009054906101000a900473ffffffffffffffffffffffffffffffffffffffff169050919050565b7f000000000000000000000000000000000000000000000000000000000000000073ffffffffffffffffffffffffffffffffffffffff163373ffffffffffffffffffffffffffffffffffffffff161461054157600080fd5b600160008154809291906105549061148a565b919050555061056581600154610985565b50565b60606007805461057790611427565b80601f01602080910402602001604051908101604052809291908181526020018280546105a390611427565b80156105f05780601f106105c5576101008083540402835291602001916105f0565b820191906000526020600020905b8154815290600101906020018083116105d357829003601f168201915b5050505050905090565b60008073ffffffffffffffffffffffffffffffffffffffff168273ffffffffffffffffffffffffffffffffffffffff16141561066b576040517f08c379a0000000000000000000000000000000000000000000000000000000008152600401610662906111de565b60405180910390fd5b6000600260008473ffffffffffffffffffffffffffffffffffffffff1673ffffffffffffffffffffffffffffffffffffffff16815260200190815260200160002054146106b95760016106bc565b60005b60ff169050919050565b7f000000000000000000000000000000000000000000000000000000000000000073ffffffffffffffffffffffffffffffffffffffff163373ffffffffffffffffffffffffffffffffffffffff161461071e57600080fd5b61072781610a7b565b50565b6005805461073790611427565b80601f016020809104026020016040519081016040528092919081815260200182805461076390611427565b80156107b05780601f10610785576101008083540402835291602001916107b0565b820191906000526020600020905b81548152906001019060200180831161079357829003601f168201915b505050505081565b6000151560011515146107ca57600080fd5b5050565b6000151560011515146107e057600080fd5b50505050565b60606107f182610bb7565b610830576040517f08c379a0000000000000000000000000000000000000000000000000000000008152600401610827906111fe565b60405180910390fd5b600060066000848152602001908152602001600020805461085090611427565b80601f016020809104026020016040519081016040528092919081815260200182805461087c90611427565b80156108c95780601f1061089e576101008083540402835291602001916108c9565b820191906000526020600020905b8154815290600101906020018083116108ac57829003601f168201915b5050505050905060006108da610568565b90506000815114156108f0578192505050610954565b60008251111561092557808260405160200161090d929190611162565b60405160208183030381529060405292505050610954565b8061092f85610c23565b604051602001610940929190611162565b604051602081830303815290604052925050505b919050565b600092915050565b7f000000000000000000000000000000000000000000000000000000000000000081565b80600260008473ffffffffffffffffffffffffffffffffffffffff1673ffffffffffffffffffffffffffffffffffffffff16815260200190815260200160002081905550816003600083815260200190815260200160002060006101000a81548173ffffffffffffffffffffffffffffffffffffffff021916908373ffffffffffffffffffffffffffffffffffffffff160217905550808273ffffffffffffffffffffffffffffffffffffffff16600073ffffffffffffffffffffffffffffffffffffffff167fddf252ad1be2c89b69c2b068fc378daa952ba7f163c4a11628f55a4df523b3ef60405160405180910390a45050565b6000600260008373ffffffffffffffffffffffffffffffffffffffff1673ffffffffffffffffffffffffffffffffffffffff1681526020019081526020016000205490506000600260008473ffffffffffffffffffffffffffffffffffffffff1673ffffffffffffffffffffffffffffffffffffffff1681526020019081526020016000208190555060006003600083815260200190815260200160002060006101000a81548173ffffffffffffffffffffffffffffffffffffffff021916908373ffffffffffffffffffffffffffffffffffffffff16021790555080600073ffffffffffffffffffffffffffffffffffffffff168373ffffffffffffffffffffffffffffffffffffffff167fddf252ad1be2c89b69c2b068fc378daa952ba7f163c4a11628f55a4df523b3ef60405160405180910390a45050565b60008073ffffffffffffffffffffffffffffffffffffffff166003600084815260200190815260200160002060009054906101000a900473ffffffffffffffffffffffffffffffffffffffff1673ffffffffffffffffffffffffffffffffffffffff1614159050919050565b60606000821415610c6b576040518060400160405280600181526020017f30000000000000000000000000000000000000000000000000000000000000008152509050610dcb565b600082905060005b60008214610c9d578080610c869061148a565b915050600a82610c96919061130c565b9150610c73565b60008167ffffffffffffffff811115610cdf577f4e487b7100000000000000000000000000000000000000000000000000000000600052604160045260246000fd5b6040519080825280601f01601f191660200182016040528015610d115781602001600182028036833780820191505090505b5090505b60008514610dc457600182610d2a919061133d565b9150600a85610d3991906114d3565b6030610d4591906112b6565b60f81b818381518110610d81577f4e487b7100000000000000000000000000000000000000000000000000000000600052603260045260246000fd5b60200101907effffffffffffffffffffffffffffffffffffffffffffffffffffffffffffff1916908160001a905350600a85610dbd919061130c565b9450610d15565b8093505050505b919050565b6000610de3610dde8461125e565b611239565b905082815260208101848484011115610dfb57600080fd5b610e068482856113e5565b509392505050565b600081359050610e1d8161166f565b92915050565b600081359050610e3281611686565b92915050565b600081359050610e478161169d565b92915050565b600082601f830112610e5e57600080fd5b8135610e6e848260208601610dd0565b91505092915050565b600081359050610e86816116b4565b92915050565b600060208284031215610e9e57600080fd5b6000610eac84828501610e0e565b91505092915050565b60008060408385031215610ec857600080fd5b6000610ed685828601610e0e565b9250506020610ee785828601610e0e565b9150509250929050565b600080600060608486031215610f0657600080fd5b6000610f1486828701610e0e565b9350506020610f2586828701610e0e565b9250506040610f3686828701610e77565b9150509250925092565b60008060008060808587031215610f5657600080fd5b6000610f6487828801610e0e565b9450506020610f7587828801610e0e565b9350506040610f8687828801610e77565b925050606085013567ffffffffffffffff811115610fa357600080fd5b610faf87828801610e4d565b91505092959194509250565b60008060408385031215610fce57600080fd5b6000610fdc85828601610e0e565b9250506020610fed85828601610e23565b9150509250929050565b6000806040838503121561100a57600080fd5b600061101885828601610e0e565b925050602061102985828601610e77565b9150509250929050565b60006020828403121561104557600080fd5b600061105384828501610e38565b91505092915050565b60006020828403121561106e57600080fd5b600061107c84828501610e77565b91505092915050565b61108e81611371565b82525050565b61109d81611383565b82525050565b60006110ae8261128f565b6110b8818561129a565b93506110c88185602086016113f4565b6110d1816115c0565b840191505092915050565b60006110e78261128f565b6110f181856112ab565b93506111018185602086016113f4565b80840191505092915050565b600061111a602a8361129a565b9150611125826115d1565b604082019050919050565b600061113d602f8361129a565b915061114882611620565b604082019050919050565b61115c816113db565b82525050565b600061116e82856110dc565b915061117a82846110dc565b91508190509392505050565b600060208201905061119b6000830184611085565b92915050565b60006020820190506111b66000830184611094565b92915050565b600060208201905081810360008301526111d681846110a3565b905092915050565b600060208201905081810360008301526111f78161110d565b9050919050565b6000602082019050818103600083015261121781611130565b9050919050565b60006020820190506112336000830184611153565b92915050565b6000611243611254565b905061124f8282611459565b919050565b6000604051905090565b600067ffffffffffffffff82111561127957611278611591565b5b611282826115c0565b9050602081019050919050565b600081519050919050565b600082825260208201905092915050565b600081905092915050565b60006112c1826113db565b91506112cc836113db565b9250827fffffffffffffffffffffffffffffffffffffffffffffffffffffffffffffffff0382111561130157611300611504565b5b828201905092915050565b6000611317826113db565b9150611322836113db565b92508261133257611331611533565b5b828204905092915050565b6000611348826113db565b9150611353836113db565b92508282101561136657611365611504565b5b828203905092915050565b600061137c826113bb565b9050919050565b60008115159050919050565b60007fffffffff0000000000000000000000000000000000000000000000000000000082169050919050565b600073ffffffffffffffffffffffffffffffffffffffff82169050919050565b6000819050919050565b82818337600083830152505050565b60005b838110156114125780820151818401526020810190506113f7565b83811115611421576000848401525b50505050565b6000600282049050600182168061143f57607f821691505b6020821081141561145357611452611562565b5b50919050565b611462826115c0565b810181811067ffffffffffffffff8211171561148157611480611591565b5b80604052505050565b6000611495826113db565b91507fffffffffffffffffffffffffffffffffffffffffffffffffffffffffffffffff8214156114c8576114c7611504565b5b600182019050919050565b60006114de826113db565b91506114e9836113db565b9250826114f9576114f8611533565b5b828206905092915050565b7f4e487b7100000000000000000000000000000000000000000000000000000000600052601160045260246000fd5b7f4e487b7100000000000000000000000000000000000000000000000000000000600052601260045260246000fd5b7f4e487b7100000000000000000000000000000000000000000000000000000000600052602260045260246000fd5b7f4e487b7100000000000000000000000000000000000000000000000000000000600052604160045260246000fd5b6000601f19601f8301169050919050565b7f4552433732313a2062616c616e636520717565727920666f7220746865207a6560008201527f726f206164647265737300000000000000000000000000000000000000000000602082015250565b7f4552433732314d657461646174613a2055524920717565727920666f72206e6f60008201527f6e6578697374656e7420746f6b656e0000000000000000000000000000000000602082015250565b61167881611371565b811461168357600080fd5b50565b61168f81611383565b811461169a57600080fd5b50565b6116a68161138f565b81146116b157600080fd5b50565b6116bd816113db565b81146116c857600080fd5b5056fea2646970667358221220780930102f95a68cb58120fc3b1d062c9ff92d10a61d5b55b652ebc35df5cd9164736f6c63430008040033a2646970667358221220de33749cc5d6d9af32d39e463b320bebe493ab1f69862fea2c381ab3297f5d4f64736f6c63430008040033",
  "linkReferences": {},
  "deployedLinkReferences": {}
}