{
  "_format": "hh-sol-artifact-1",
  "contractName": "EnumerableMapMock",
  "sourceName": "contracts/src/OpenZeppelin/mocks/EnumerableMapMock.sol",
  "abi": [
    {
      "anonymous": false,
      "inputs": [
        {
          "indexed": false,
          "internalType": "bool",
          "name": "result",
          "type": "bool"
        }
      ],
      "name": "OperationResult",
      "type": "event"
    },
    {
      "inputs": [
        {
          "internalType": "uint256",
          "name": "index",
          "type": "uint256"
        }
      ],
      "name": "at",
      "outputs": [
        {
          "internalType": "uint256",
          "name": "key",
          "type": "uint256"
        },
        {
          "internalType": "address",
          "name": "value",
          "type": "address"
        }
      ],
      "stateMutability": "view",
      "type": "function"
    },
    {
      "inputs": [
        {
          "internalType": "uint256",
          "name": "key",
          "type": "uint256"
        }
      ],
      "name": "contains",
      "outputs": [
        {
          "internalType": "bool",
          "name": "",
          "type": "bool"
        }
      ],
      "stateMutability": "view",
      "type": "function"
    },
    {
      "inputs": [
        {
          "internalType": "uint256",
          "name": "key",
          "type": "uint256"
        }
      ],
      "name": "get",
      "outputs": [
        {
          "internalType": "address",
          "name": "",
          "type": "address"
        }
      ],
      "stateMutability": "view",
      "type": "function"
    },
    {
      "inputs": [
        {
          "internalType": "uint256",
          "name": "key",
          "type": "uint256"
        },
        {
          "internalType": "string",
          "name": "errorMessage",
          "type": "string"
        }
      ],
      "name": "getWithMessage",
      "outputs": [
        {
          "internalType": "address",
          "name": "",
          "type": "address"
        }
      ],
      "stateMutability": "view",
      "type": "function"
    },
    {
      "inputs": [],
      "name": "length",
      "outputs": [
        {
          "internalType": "uint256",
          "name": "",
          "type": "uint256"
        }
      ],
      "stateMutability": "view",
      "type": "function"
    },
    {
      "inputs": [
        {
          "internalType": "uint256",
          "name": "key",
          "type": "uint256"
        }
      ],
      "name": "remove",
      "outputs": [],
      "stateMutability": "nonpayable",
      "type": "function"
    },
    {
      "inputs": [
        {
          "internalType": "uint256",
          "name": "key",
          "type": "uint256"
        },
        {
          "internalType": "address",
          "name": "value",
          "type": "address"
        }
      ],
      "name": "set",
      "outputs": [],
      "stateMutability": "nonpayable",
      "type": "function"
    },
    {
      "inputs": [
        {
          "internalType": "uint256",
          "name": "key",
          "type": "uint256"
        }
      ],
      "name": "tryGet",
      "outputs": [
        {
          "internalType": "bool",
          "name": "",
          "type": "bool"
        },
        {
          "internalType": "address",
          "name": "",
          "type": "address"
        }
      ],
      "stateMutability": "view",
      "type": "function"
    }
  ],
  "bytecode": "0x608060405234801561001057600080fd5b50610f7b806100206000396000f3fe608060405234801561001057600080fd5b50600436106100885760003560e01c80639507d39a1161005b5780639507d39a14610114578063c051a3a614610144578063c34052e014610174578063e0886f90146101a457610088565b80631f7b6d321461008d5780632f30c6f6146100ab5780634cc82215146100c7578063871394d9146100e3575b600080fd5b6100956101d5565b6040516100a29190610cfa565b60405180910390f35b6100c560048036038101906100c09190610af9565b6101e6565b005b6100e160048036038101906100dc9190610ad0565b61023c565b005b6100fd60048036038101906100f89190610ad0565b61028f565b60405161010b929190610c6f565b60405180910390f35b61012e60048036038101906101299190610ad0565b6102af565b60405161013b9190610c39565b60405180910390f35b61015e60048036038101906101599190610b35565b6102cc565b60405161016b9190610c39565b60405180910390f35b61018e60048036038101906101899190610ad0565b610331565b60405161019b9190610c54565b60405180910390f35b6101be60048036038101906101b99190610ad0565b61034e565b6040516101cc929190610d15565b60405180910390f35b60006101e1600061036e565b905090565b60006101fe838360006103839092919063ffffffff16565b90507fed9840e0775590557ad736875d96c95cf1458b766335f74339951a32c82a9e338160405161022f9190610c54565b60405180910390a1505050565b60006102528260006103b890919063ffffffff16565b90507fed9840e0775590557ad736875d96c95cf1458b766335f74339951a32c82a9e33816040516102839190610c54565b60405180910390a15050565b6000806102a68360006103d290919063ffffffff16565b91509150915091565b60006102c58260006103fe90919063ffffffff16565b9050919050565b60006103288484848080601f016020809104026020016040519081016040528093929190818152602001838380828437600081840152601f19601f82011690508083019250505050505050600061041b9092919063ffffffff16565b90509392505050565b600061034782600061043a90919063ffffffff16565b9050919050565b60008061036583600061045490919063ffffffff16565b91509150915091565b600061037c82600001610480565b9050919050565b60006103af846000018460001b8473ffffffffffffffffffffffffffffffffffffffff1660001b610491565b90509392505050565b60006103ca836000018360001b6105a3565b905092915050565b6000806000806103e8866000018660001b61075e565b91509150818160001c9350935050509250929050565b6000610410836000018360001b610800565b60001c905092915050565b600061042e846000018460001b846108c2565b60001c90509392505050565b600061044c836000018360001b610989565b905092915050565b60008060008061046786600001866109ac565b915091508160001c8160001c9350935050509250929050565b600081600001805490509050919050565b60008084600101600085815260200190815260200160002054905060008114156105385784600001604051806040016040528086815260200185815250908060018154018082558091505060019003906000526020600020906002020160009091909190915060008201518160000155602082015181600101555050846000018054905085600101600086815260200190815260200160002081905550600191505061059c565b828560000160018361054a9190610db0565b81548110610581577f4e487b7100000000000000000000000000000000000000000000000000000000600052603260045260246000fd5b90600052602060002090600202016001018190555060009150505b9392505050565b600080836001016000848152602001908152602001600020549050600081146107525760006001826105d59190610db0565b90506000600186600001805490506105ed9190610db0565b9050600086600001828154811061062d577f4e487b7100000000000000000000000000000000000000000000000000000000600052603260045260246000fd5b906000526020600020906002020190508087600001848154811061067a577f4e487b7100000000000000000000000000000000000000000000000000000000600052603260045260246000fd5b906000526020600020906002020160008201548160000155600182015481600101559050506001836106ac9190610d5a565b876001016000836000015481526020019081526020016000208190555086600001805480610703577f4e487b7100000000000000000000000000000000000000000000000000000000600052603160045260246000fd5b6001900381819060005260206000209060020201600080820160009055600182016000905550509055866001016000878152602001908152602001600020600090556001945050505050610758565b60009150505b92915050565b60008060008460010160008581526020019081526020016000205490506000811415610797576000808060001b905092509250506107f9565b6001856000016001836107aa9190610db0565b815481106107e1577f4e487b7100000000000000000000000000000000000000000000000000000000600052603260045260246000fd5b90600052602060002090600202016001015492509250505b9250929050565b600080836001016000848152602001908152602001600020549050600081141561085f576040517f08c379a000000000000000000000000000000000000000000000000000000000815260040161085690610cda565b60405180910390fd5b836000016001826108709190610db0565b815481106108a7577f4e487b7100000000000000000000000000000000000000000000000000000000600052603260045260246000fd5b90600052602060002090600202016001015491505092915050565b60008084600101600085815260200190815260200160002054905060008114158390610924576040517f08c379a000000000000000000000000000000000000000000000000000000000815260040161091b9190610c98565b60405180910390fd5b50846000016001826109369190610db0565b8154811061096d577f4e487b7100000000000000000000000000000000000000000000000000000000600052603260045260246000fd5b9060005260206000209060020201600101549150509392505050565b600080836001016000848152602001908152602001600020541415905092915050565b600080828460000180549050116109f8576040517f08c379a00000000000000000000000000000000000000000000000000000000081526004016109ef90610cba565b60405180910390fd5b6000846000018481548110610a36577f4e487b7100000000000000000000000000000000000000000000000000000000600052603260045260246000fd5b906000526020600020906002020190508060000154816001015492509250509250929050565b600081359050610a6b81610f17565b92915050565b60008083601f840112610a8357600080fd5b8235905067ffffffffffffffff811115610a9c57600080fd5b602083019150836001820283011115610ab457600080fd5b9250929050565b600081359050610aca81610f2e565b92915050565b600060208284031215610ae257600080fd5b6000610af084828501610abb565b91505092915050565b60008060408385031215610b0c57600080fd5b6000610b1a85828601610abb565b9250506020610b2b85828601610a5c565b9150509250929050565b600080600060408486031215610b4a57600080fd5b6000610b5886828701610abb565b935050602084013567ffffffffffffffff811115610b7557600080fd5b610b8186828701610a71565b92509250509250925092565b610b9681610de4565b82525050565b610ba581610df6565b82525050565b6000610bb682610d3e565b610bc08185610d49565b9350610bd0818560208601610e2c565b610bd981610e8e565b840191505092915050565b6000610bf1602283610d49565b9150610bfc82610e9f565b604082019050919050565b6000610c14601e83610d49565b9150610c1f82610eee565b602082019050919050565b610c3381610e22565b82525050565b6000602082019050610c4e6000830184610b8d565b92915050565b6000602082019050610c696000830184610b9c565b92915050565b6000604082019050610c846000830185610b9c565b610c916020830184610b8d565b9392505050565b60006020820190508181036000830152610cb28184610bab565b905092915050565b60006020820190508181036000830152610cd381610be4565b9050919050565b60006020820190508181036000830152610cf381610c07565b9050919050565b6000602082019050610d0f6000830184610c2a565b92915050565b6000604082019050610d2a6000830185610c2a565b610d376020830184610b8d565b9392505050565b600081519050919050565b600082825260208201905092915050565b6000610d6582610e22565b9150610d7083610e22565b9250827fffffffffffffffffffffffffffffffffffffffffffffffffffffffffffffffff03821115610da557610da4610e5f565b5b828201905092915050565b6000610dbb82610e22565b9150610dc683610e22565b925082821015610dd957610dd8610e5f565b5b828203905092915050565b6000610def82610e02565b9050919050565b60008115159050919050565b600073ffffffffffffffffffffffffffffffffffffffff82169050919050565b6000819050919050565b60005b83811015610e4a578082015181840152602081019050610e2f565b83811115610e59576000848401525b50505050565b7f4e487b7100000000000000000000000000000000000000000000000000000000600052601160045260246000fd5b6000601f19601f8301169050919050565b7f456e756d657261626c654d61703a20696e646578206f7574206f6620626f756e60008201527f6473000000000000000000000000000000000000000000000000000000000000602082015250565b7f456e756d657261626c654d61703a206e6f6e6578697374656e74206b65790000600082015250565b610f2081610de4565b8114610f2b57600080fd5b50565b610f3781610e22565b8114610f4257600080fd5b5056fea26469706673582212200951d948e5c6de5825b37813897e644b96a3f2c85e26228cc952f67eda24f25164736f6c63430008040033",
  "linkReferences": {},
  "deployedLinkReferences": {}
}