{
  "_format": "hh-sol-artifact-1",
  "contractName": "RefundEscrowUpgradeable",
  "sourceName": "contracts/src/OpenZeppelin/upgradeable/utils/escrow/RefundEscrowUpgradeable.sol",
  "abi": [
    {
      "anonymous": false,
      "inputs": [
        {
          "indexed": true,
          "internalType": "address",
          "name": "payee",
          "type": "address"
        },
        {
          "indexed": false,
          "internalType": "uint256",
          "name": "weiAmount",
          "type": "uint256"
        }
      ],
      "name": "Deposited",
      "type": "event"
    },
    {
      "anonymous": false,
      "inputs": [
        {
          "indexed": true,
          "internalType": "address",
          "name": "previousOwner",
          "type": "address"
        },
        {
          "indexed": true,
          "internalType": "address",
          "name": "newOwner",
          "type": "address"
        }
      ],
      "name": "OwnershipTransferred",
      "type": "event"
    },
    {
      "anonymous": false,
      "inputs": [],
      "name": "RefundsClosed",
      "type": "event"
    },
    {
      "anonymous": false,
      "inputs": [],
      "name": "RefundsEnabled",
      "type": "event"
    },
    {
      "anonymous": false,
      "inputs": [
        {
          "indexed": true,
          "internalType": "address",
          "name": "payee",
          "type": "address"
        },
        {
          "indexed": false,
          "internalType": "uint256",
          "name": "weiAmount",
          "type": "uint256"
        }
      ],
      "name": "Withdrawn",
      "type": "event"
    },
    {
      "inputs": [],
      "name": "beneficiary",
      "outputs": [
        {
          "internalType": "address payable",
          "name": "",
          "type": "address"
        }
      ],
      "stateMutability": "view",
      "type": "function"
    },
    {
      "inputs": [],
      "name": "beneficiaryWithdraw",
      "outputs": [],
      "stateMutability": "nonpayable",
      "type": "function"
    },
    {
      "inputs": [],
      "name": "close",
      "outputs": [],
      "stateMutability": "nonpayable",
      "type": "function"
    },
    {
      "inputs": [
        {
          "internalType": "address",
          "name": "refundee",
          "type": "address"
        }
      ],
      "name": "deposit",
      "outputs": [],
      "stateMutability": "payable",
      "type": "function"
    },
    {
      "inputs": [
        {
          "internalType": "address",
          "name": "payee",
          "type": "address"
        }
      ],
      "name": "depositsOf",
      "outputs": [
        {
          "internalType": "uint256",
          "name": "",
          "type": "uint256"
        }
      ],
      "stateMutability": "view",
      "type": "function"
    },
    {
      "inputs": [],
      "name": "enableRefunds",
      "outputs": [],
      "stateMutability": "nonpayable",
      "type": "function"
    },
    {
      "inputs": [],
      "name": "initialize",
      "outputs": [],
      "stateMutability": "nonpayable",
      "type": "function"
    },
    {
      "inputs": [],
      "name": "owner",
      "outputs": [
        {
          "internalType": "address",
          "name": "",
          "type": "address"
        }
      ],
      "stateMutability": "view",
      "type": "function"
    },
    {
      "inputs": [],
      "name": "renounceOwnership",
      "outputs": [],
      "stateMutability": "nonpayable",
      "type": "function"
    },
    {
      "inputs": [],
      "name": "state",
      "outputs": [
        {
          "internalType": "enum RefundEscrowUpgradeable.State",
          "name": "",
          "type": "uint8"
        }
      ],
      "stateMutability": "view",
      "type": "function"
    },
    {
      "inputs": [
        {
          "internalType": "address",
          "name": "newOwner",
          "type": "address"
        }
      ],
      "name": "transferOwnership",
      "outputs": [],
      "stateMutability": "nonpayable",
      "type": "function"
    },
    {
      "inputs": [
        {
          "internalType": "address payable",
          "name": "payee",
          "type": "address"
        }
      ],
      "name": "withdraw",
      "outputs": [],
      "stateMutability": "nonpayable",
      "type": "function"
    },
    {
      "inputs": [
        {
          "internalType": "address",
          "name": "",
          "type": "address"
        }
      ],
      "name": "withdrawalAllowed",
      "outputs": [
        {
          "internalType": "bool",
          "name": "",
          "type": "bool"
        }
      ],
      "stateMutability": "view",
      "type": "function"
    }
  ],
  "bytecode": "0x608060405234801561001057600080fd5b50611c5a806100206000396000f3fe6080604052600436106100c25760003560e01c80638c52dc411161007f578063c19d93fb11610059578063c19d93fb146101f6578063e3a9db1a14610221578063f2fde38b1461025e578063f340fa0114610287576100c2565b80638c52dc411461019d5780638da5cb5b146101b45780639af6549a146101df576100c2565b806338af3eed146100c757806343d726d6146100f257806351cff8d914610109578063685ca19414610132578063715018a61461016f5780638129fc1c14610186575b600080fd5b3480156100d357600080fd5b506100dc6102a3565b6040516100e9919061161a565b60405180910390f35b3480156100fe57600080fd5b506101076102cd565b005b34801561011557600080fd5b50610130600480360381019061012b91906113f5565b610482565b005b34801561013e57600080fd5b50610159600480360381019061015491906113cc565b6104d6565b6040516101669190611635565b60405180910390f35b34801561017b57600080fd5b5061018461055a565b005b34801561019257600080fd5b5061019b6105e2565b005b3480156101a957600080fd5b506101b26106c3565b005b3480156101c057600080fd5b506101c9610878565b6040516101d691906115ff565b60405180910390f35b3480156101eb57600080fd5b506101f46108a2565b005b34801561020257600080fd5b5061020b61098d565b6040516102189190611650565b60405180910390f35b34801561022d57600080fd5b50610248600480360381019061024391906113cc565b6109a4565b60405161025591906117ab565b60405180910390f35b34801561026a57600080fd5b50610285600480360381019061028091906113cc565b6109ed565b005b6102a1600480360381019061029c91906113cc565b610ae5565b005b600060c960019054906101000a900473ffffffffffffffffffffffffffffffffffffffff16905090565b6102d5610bab565b73ffffffffffffffffffffffffffffffffffffffff166102f3610878565b73ffffffffffffffffffffffffffffffffffffffff1614610349576040517f08c379a00000000000000000000000000000000000000000000000000000000081526004016103409061176b565b60405180910390fd5b60006002811115610383577f4e487b7100000000000000000000000000000000000000000000000000000000600052602160045260246000fd5b61038b61098d565b60028111156103c3577f4e487b7100000000000000000000000000000000000000000000000000000000600052602160045260246000fd5b14610403576040517f08c379a00000000000000000000000000000000000000000000000000000000081526004016103fa9061174b565b60405180910390fd5b600260c960006101000a81548160ff0219169083600281111561044f577f4e487b7100000000000000000000000000000000000000000000000000000000600052602160045260246000fd5b02179055507f088672c3a6e342f7cd94a65ba63b79df24a8973927b4d05d803c44bbf787d12f60405160405180910390a1565b61048b816104d6565b6104ca576040517f08c379a00000000000000000000000000000000000000000000000000000000081526004016104c19061172b565b60405180910390fd5b6104d381610bb3565b50565b600060016002811115610512577f4e487b7100000000000000000000000000000000000000000000000000000000600052602160045260246000fd5b61051a61098d565b6002811115610552577f4e487b7100000000000000000000000000000000000000000000000000000000600052602160045260246000fd5b149050919050565b610562610bab565b73ffffffffffffffffffffffffffffffffffffffff16610580610878565b73ffffffffffffffffffffffffffffffffffffffff16146105d6576040517f08c379a00000000000000000000000000000000000000000000000000000000081526004016105cd9061176b565b60405180910390fd5b6105e06000610d33565b565b600060019054906101000a900460ff1680610608575060008054906101000a900460ff16155b610647576040517f08c379a000000000000000000000000000000000000000000000000000000000815260040161063e9061170b565b60405180910390fd5b60008060019054906101000a900460ff161590508015610697576001600060016101000a81548160ff02191690831515021790555060016000806101000a81548160ff0219169083151502179055505b61069f610df9565b80156106c05760008060016101000a81548160ff0219169083151502179055505b50565b6106cb610bab565b73ffffffffffffffffffffffffffffffffffffffff166106e9610878565b73ffffffffffffffffffffffffffffffffffffffff161461073f576040517f08c379a00000000000000000000000000000000000000000000000000000000081526004016107369061176b565b60405180910390fd5b60006002811115610779577f4e487b7100000000000000000000000000000000000000000000000000000000600052602160045260246000fd5b61078161098d565b60028111156107b9577f4e487b7100000000000000000000000000000000000000000000000000000000600052602160045260246000fd5b146107f9576040517f08c379a00000000000000000000000000000000000000000000000000000000081526004016107f09061178b565b60405180910390fd5b600160c960006101000a81548160ff02191690836002811115610845577f4e487b7100000000000000000000000000000000000000000000000000000000600052602160045260246000fd5b02179055507f599d8e5a83cffb867d051598c4d70e805d59802d8081c1c7d6dffc5b6aca2b8960405160405180910390a1565b6000603360009054906101000a900473ffffffffffffffffffffffffffffffffffffffff16905090565b6002808111156108db577f4e487b7100000000000000000000000000000000000000000000000000000000600052602160045260246000fd5b6108e361098d565b600281111561091b577f4e487b7100000000000000000000000000000000000000000000000000000000600052602160045260246000fd5b1461095b576040517f08c379a00000000000000000000000000000000000000000000000000000000081526004016109529061166b565b60405180910390fd5b61098b476109676102a3565b73ffffffffffffffffffffffffffffffffffffffff16610eea90919063ffffffff16565b565b600060c960009054906101000a900460ff16905090565b6000606560008373ffffffffffffffffffffffffffffffffffffffff1673ffffffffffffffffffffffffffffffffffffffff168152602001908152602001600020549050919050565b6109f5610bab565b73ffffffffffffffffffffffffffffffffffffffff16610a13610878565b73ffffffffffffffffffffffffffffffffffffffff1614610a69576040517f08c379a0000000000000000000000000000000000000000000000000000000008152600401610a609061176b565b60405180910390fd5b600073ffffffffffffffffffffffffffffffffffffffff168173ffffffffffffffffffffffffffffffffffffffff161415610ad9576040517f08c379a0000000000000000000000000000000000000000000000000000000008152600401610ad09061168b565b60405180910390fd5b610ae281610d33565b50565b60006002811115610b1f577f4e487b7100000000000000000000000000000000000000000000000000000000600052602160045260246000fd5b610b2761098d565b6002811115610b5f577f4e487b7100000000000000000000000000000000000000000000000000000000600052602160045260246000fd5b14610b9f576040517f08c379a0000000000000000000000000000000000000000000000000000000008152600401610b96906116eb565b60405180910390fd5b610ba881610fde565b50565b600033905090565b610bbb610bab565b73ffffffffffffffffffffffffffffffffffffffff16610bd9610878565b73ffffffffffffffffffffffffffffffffffffffff1614610c2f576040517f08c379a0000000000000000000000000000000000000000000000000000000008152600401610c269061176b565b60405180910390fd5b6000606560008373ffffffffffffffffffffffffffffffffffffffff1673ffffffffffffffffffffffffffffffffffffffff1681526020019081526020016000205490506000606560008473ffffffffffffffffffffffffffffffffffffffff1673ffffffffffffffffffffffffffffffffffffffff16815260200190815260200160002081905550610ce1818373ffffffffffffffffffffffffffffffffffffffff16610eea90919063ffffffff16565b8173ffffffffffffffffffffffffffffffffffffffff167f7084f5476618d8e60b11ef0d7d3f06914655adb8793e28ff7f018d4c76d505d582604051610d2791906117ab565b60405180910390a25050565b6000603360009054906101000a900473ffffffffffffffffffffffffffffffffffffffff16905081603360006101000a81548173ffffffffffffffffffffffffffffffffffffffff021916908373ffffffffffffffffffffffffffffffffffffffff1602179055508173ffffffffffffffffffffffffffffffffffffffff168173ffffffffffffffffffffffffffffffffffffffff167f8be0079c531659141344cd1fd0a4f28419497f9722a3daafe3b4186f6b6457e060405160405180910390a35050565b600060019054906101000a900460ff1680610e1f575060008054906101000a900460ff16155b610e5e576040517f08c379a0000000000000000000000000000000000000000000000000000000008152600401610e559061170b565b60405180910390fd5b60008060019054906101000a900460ff161590508015610eae576001600060016101000a81548160ff02191690831515021790555060016000806101000a81548160ff0219169083151502179055505b610eb6611107565b610ebe6111e0565b610ec66112c9565b8015610ee75760008060016101000a81548160ff0219169083151502179055505b50565b80471015610f2d576040517f08c379a0000000000000000000000000000000000000000000000000000000008152600401610f24906116cb565b60405180910390fd5b60008273ffffffffffffffffffffffffffffffffffffffff1682604051610f53906115ea565b60006040518083038185875af1925050503d8060008114610f90576040519150601f19603f3d011682016040523d82523d6000602084013e610f95565b606091505b5050905080610fd9576040517f08c379a0000000000000000000000000000000000000000000000000000000008152600401610fd0906116ab565b60405180910390fd5b505050565b610fe6610bab565b73ffffffffffffffffffffffffffffffffffffffff16611004610878565b73ffffffffffffffffffffffffffffffffffffffff161461105a576040517f08c379a00000000000000000000000000000000000000000000000000000000081526004016110519061176b565b60405180910390fd5b600034905080606560008473ffffffffffffffffffffffffffffffffffffffff1673ffffffffffffffffffffffffffffffffffffffff16815260200190815260200160002060008282546110ae91906117e2565b925050819055508173ffffffffffffffffffffffffffffffffffffffff167f2da466a7b24304f47e87fa2e1e5a81b9831ce54fec19055ce277ca2f39ba42c4826040516110fb91906117ab565b60405180910390a25050565b600060019054906101000a900460ff168061112d575060008054906101000a900460ff16155b61116c576040517f08c379a00000000000000000000000000000000000000000000000000000000081526004016111639061170b565b60405180910390fd5b60008060019054906101000a900460ff1615905080156111bc576001600060016101000a81548160ff02191690831515021790555060016000806101000a81548160ff0219169083151502179055505b80156111dd5760008060016101000a81548160ff0219169083151502179055505b50565b600060019054906101000a900460ff1680611206575060008054906101000a900460ff16155b611245576040517f08c379a000000000000000000000000000000000000000000000000000000000815260040161123c9061170b565b60405180910390fd5b60008060019054906101000a900460ff161590508015611295576001600060016101000a81548160ff02191690831515021790555060016000806101000a81548160ff0219169083151502179055505b6112a56112a0610bab565b610d33565b80156112c65760008060016101000a81548160ff0219169083151502179055505b50565b600060019054906101000a900460ff16806112ef575060008054906101000a900460ff16155b61132e576040517f08c379a00000000000000000000000000000000000000000000000000000000081526004016113259061170b565b60405180910390fd5b60008060019054906101000a900460ff16159050801561137e576001600060016101000a81548160ff02191690831515021790555060016000806101000a81548160ff0219169083151502179055505b801561139f5760008060016101000a81548160ff0219169083151502179055505b50565b6000813590506113b181611bf6565b92915050565b6000813590506113c681611c0d565b92915050565b6000602082840312156113de57600080fd5b60006113ec848285016113a2565b91505092915050565b60006020828403121561140757600080fd5b6000611415848285016113b7565b91505092915050565b6114278161184a565b82525050565b61143681611838565b82525050565b6114458161185c565b82525050565b611454816118a5565b82525050565b60006114676038836117d1565b915061147282611915565b604082019050919050565b600061148a6026836117d1565b915061149582611964565b604082019050919050565b60006114ad603a836117d1565b91506114b8826119b3565b604082019050919050565b60006114d0601d836117d1565b91506114db82611a02565b602082019050919050565b60006114f3602b836117d1565b91506114fe82611a2b565b604082019050919050565b6000611516602e836117d1565b915061152182611a7a565b604082019050919050565b60006115396033836117d1565b915061154482611ac9565b604082019050919050565b600061155c6029836117d1565b915061156782611b18565b604082019050919050565b600061157f6020836117d1565b915061158a82611b67565b602082019050919050565b60006115a26000836117c6565b91506115ad82611b90565b600082019050919050565b60006115c56032836117d1565b91506115d082611b93565b604082019050919050565b6115e48161189b565b82525050565b60006115f582611595565b9150819050919050565b6000602082019050611614600083018461142d565b92915050565b600060208201905061162f600083018461141e565b92915050565b600060208201905061164a600083018461143c565b92915050565b6000602082019050611665600083018461144b565b92915050565b600060208201905081810360008301526116848161145a565b9050919050565b600060208201905081810360008301526116a48161147d565b9050919050565b600060208201905081810360008301526116c4816114a0565b9050919050565b600060208201905081810360008301526116e4816114c3565b9050919050565b60006020820190508181036000830152611704816114e6565b9050919050565b6000602082019050818103600083015261172481611509565b9050919050565b600060208201905081810360008301526117448161152c565b9050919050565b600060208201905081810360008301526117648161154f565b9050919050565b6000602082019050818103600083015261178481611572565b9050919050565b600060208201905081810360008301526117a4816115b8565b9050919050565b60006020820190506117c060008301846115db565b92915050565b600081905092915050565b600082825260208201905092915050565b60006117ed8261189b565b91506117f88361189b565b9250827fffffffffffffffffffffffffffffffffffffffffffffffffffffffffffffffff0382111561182d5761182c6118b7565b5b828201905092915050565b60006118438261187b565b9050919050565b60006118558261187b565b9050919050565b60008115159050919050565b600081905061187682611be2565b919050565b600073ffffffffffffffffffffffffffffffffffffffff82169050919050565b6000819050919050565b60006118b082611868565b9050919050565b7f4e487b7100000000000000000000000000000000000000000000000000000000600052601160045260246000fd5b7f4e487b7100000000000000000000000000000000000000000000000000000000600052602160045260246000fd5b7f526566756e64457363726f773a2062656e65666963696172792063616e206f6e60008201527f6c79207769746864726177207768696c6520636c6f7365640000000000000000602082015250565b7f4f776e61626c653a206e6577206f776e657220697320746865207a65726f206160008201527f6464726573730000000000000000000000000000000000000000000000000000602082015250565b7f416464726573733a20756e61626c6520746f2073656e642076616c75652c207260008201527f6563697069656e74206d61792068617665207265766572746564000000000000602082015250565b7f416464726573733a20696e73756666696369656e742062616c616e6365000000600082015250565b7f526566756e64457363726f773a2063616e206f6e6c79206465706f736974207760008201527f68696c6520616374697665000000000000000000000000000000000000000000602082015250565b7f496e697469616c697a61626c653a20636f6e747261637420697320616c72656160008201527f647920696e697469616c697a6564000000000000000000000000000000000000602082015250565b7f436f6e646974696f6e616c457363726f773a207061796565206973206e6f742060008201527f616c6c6f77656420746f20776974686472617700000000000000000000000000602082015250565b7f526566756e64457363726f773a2063616e206f6e6c7920636c6f73652077686960008201527f6c65206163746976650000000000000000000000000000000000000000000000602082015250565b7f4f776e61626c653a2063616c6c6572206973206e6f7420746865206f776e6572600082015250565b50565b7f526566756e64457363726f773a2063616e206f6e6c7920656e61626c6520726560008201527f66756e6473207768696c65206163746976650000000000000000000000000000602082015250565b60038110611bf357611bf26118e6565b5b50565b611bff81611838565b8114611c0a57600080fd5b50565b611c168161184a565b8114611c2157600080fd5b5056fea2646970667358221220ecbde10e37bec9a921cf10368cb34574102c125ef4b294a3493c4ccf6c9025b764736f6c63430008040033",
  "linkReferences": {},
  "deployedLinkReferences": {}
}