{
  "_format": "hh-sol-artifact-1",
  "contractName": "ERC20CappedMock",
  "sourceName": "contracts/src/OpenZeppelin/mocks/ERC20CappedMock.sol",
  "abi": [
    {
      "inputs": [
        {
          "internalType": "string",
          "name": "name",
          "type": "string"
        },
        {
          "internalType": "string",
          "name": "symbol",
          "type": "string"
        },
        {
          "internalType": "uint256",
          "name": "cap",
          "type": "uint256"
        }
      ],
      "stateMutability": "nonpayable",
      "type": "constructor"
    },
    {
      "anonymous": false,
      "inputs": [
        {
          "indexed": true,
          "internalType": "address",
          "name": "owner",
          "type": "address"
        },
        {
          "indexed": true,
          "internalType": "address",
          "name": "spender",
          "type": "address"
        },
        {
          "indexed": false,
          "internalType": "uint256",
          "name": "value",
          "type": "uint256"
        }
      ],
      "name": "Approval",
      "type": "event"
    },
    {
      "anonymous": false,
      "inputs": [
        {
          "indexed": true,
          "internalType": "address",
          "name": "from",
          "type": "address"
        },
        {
          "indexed": true,
          "internalType": "address",
          "name": "to",
          "type": "address"
        },
        {
          "indexed": false,
          "internalType": "uint256",
          "name": "value",
          "type": "uint256"
        }
      ],
      "name": "Transfer",
      "type": "event"
    },
    {
      "inputs": [
        {
          "internalType": "address",
          "name": "owner",
          "type": "address"
        },
        {
          "internalType": "address",
          "name": "spender",
          "type": "address"
        }
      ],
      "name": "allowance",
      "outputs": [
        {
          "internalType": "uint256",
          "name": "",
          "type": "uint256"
        }
      ],
      "stateMutability": "view",
      "type": "function"
    },
    {
      "inputs": [
        {
          "internalType": "address",
          "name": "spender",
          "type": "address"
        },
        {
          "internalType": "uint256",
          "name": "amount",
          "type": "uint256"
        }
      ],
      "name": "approve",
      "outputs": [
        {
          "internalType": "bool",
          "name": "",
          "type": "bool"
        }
      ],
      "stateMutability": "nonpayable",
      "type": "function"
    },
    {
      "inputs": [
        {
          "internalType": "address",
          "name": "account",
          "type": "address"
        }
      ],
      "name": "balanceOf",
      "outputs": [
        {
          "internalType": "uint256",
          "name": "",
          "type": "uint256"
        }
      ],
      "stateMutability": "view",
      "type": "function"
    },
    {
      "inputs": [],
      "name": "cap",
      "outputs": [
        {
          "internalType": "uint256",
          "name": "",
          "type": "uint256"
        }
      ],
      "stateMutability": "view",
      "type": "function"
    },
    {
      "inputs": [],
      "name": "decimals",
      "outputs": [
        {
          "internalType": "uint8",
          "name": "",
          "type": "uint8"
        }
      ],
      "stateMutability": "view",
      "type": "function"
    },
    {
      "inputs": [
        {
          "internalType": "address",
          "name": "spender",
          "type": "address"
        },
        {
          "internalType": "uint256",
          "name": "subtractedValue",
          "type": "uint256"
        }
      ],
      "name": "decreaseAllowance",
      "outputs": [
        {
          "internalType": "bool",
          "name": "",
          "type": "bool"
        }
      ],
      "stateMutability": "nonpayable",
      "type": "function"
    },
    {
      "inputs": [
        {
          "internalType": "address",
          "name": "spender",
          "type": "address"
        },
        {
          "internalType": "uint256",
          "name": "addedValue",
          "type": "uint256"
        }
      ],
      "name": "increaseAllowance",
      "outputs": [
        {
          "internalType": "bool",
          "name": "",
          "type": "bool"
        }
      ],
      "stateMutability": "nonpayable",
      "type": "function"
    },
    {
      "inputs": [
        {
          "internalType": "address",
          "name": "to",
          "type": "address"
        },
        {
          "internalType": "uint256",
          "name": "tokenId",
          "type": "uint256"
        }
      ],
      "name": "mint",
      "outputs": [],
      "stateMutability": "nonpayable",
      "type": "function"
    },
    {
      "inputs": [],
      "name": "name",
      "outputs": [
        {
          "internalType": "string",
          "name": "",
          "type": "string"
        }
      ],
      "stateMutability": "view",
      "type": "function"
    },
    {
      "inputs": [],
      "name": "symbol",
      "outputs": [
        {
          "internalType": "string",
          "name": "",
          "type": "string"
        }
      ],
      "stateMutability": "view",
      "type": "function"
    },
    {
      "inputs": [],
      "name": "totalSupply",
      "outputs": [
        {
          "internalType": "uint256",
          "name": "",
          "type": "uint256"
        }
      ],
      "stateMutability": "view",
      "type": "function"
    },
    {
      "inputs": [
        {
          "internalType": "address",
          "name": "recipient",
          "type": "address"
        },
        {
          "internalType": "uint256",
          "name": "amount",
          "type": "uint256"
        }
      ],
      "name": "transfer",
      "outputs": [
        {
          "internalType": "bool",
          "name": "",
          "type": "bool"
        }
      ],
      "stateMutability": "nonpayable",
      "type": "function"
    },
    {
      "inputs": [
        {
          "internalType": "address",
          "name": "sender",
          "type": "address"
        },
        {
          "internalType": "address",
          "name": "recipient",
          "type": "address"
        },
        {
          "internalType": "uint256",
          "name": "amount",
          "type": "uint256"
        }
      ],
      "name": "transferFrom",
      "outputs": [
        {
          "internalType": "bool",
          "name": "",
          "type": "bool"
        }
      ],
      "stateMutability": "nonpayable",
      "type": "function"
    }
  ],
  "bytecode": "0x60806040523480156200001157600080fd5b5060405162001bc738038062001bc78339818101604052810190620000379190620001fe565b808383816003908051906020019062000052929190620000c5565b5080600490805190602001906200006b929190620000c5565b50505060008111620000b4576040517f08c379a0000000000000000000000000000000000000000000000000000000008152600401620000ab90620002ad565b60405180910390fd5b80600581905550505050506200049d565b828054620000d3906200037f565b90600052602060002090601f016020900481019282620000f7576000855562000143565b82601f106200011257805160ff191683800117855562000143565b8280016001018555821562000143579182015b828111156200014257825182559160200191906001019062000125565b5b50905062000152919062000156565b5090565b5b808211156200017157600081600090555060010162000157565b5090565b60006200018c6200018684620002f8565b620002cf565b905082815260208101848484011115620001a557600080fd5b620001b284828562000349565b509392505050565b600082601f830112620001cc57600080fd5b8151620001de84826020860162000175565b91505092915050565b600081519050620001f88162000483565b92915050565b6000806000606084860312156200021457600080fd5b600084015167ffffffffffffffff8111156200022f57600080fd5b6200023d86828701620001ba565b935050602084015167ffffffffffffffff8111156200025b57600080fd5b6200026986828701620001ba565b92505060406200027c86828701620001e7565b9150509250925092565b6000620002956015836200032e565b9150620002a2826200045a565b602082019050919050565b60006020820190508181036000830152620002c88162000286565b9050919050565b6000620002db620002ee565b9050620002e98282620003b5565b919050565b6000604051905090565b600067ffffffffffffffff8211156200031657620003156200041a565b5b620003218262000449565b9050602081019050919050565b600082825260208201905092915050565b6000819050919050565b60005b83811015620003695780820151818401526020810190506200034c565b8381111562000379576000848401525b50505050565b600060028204905060018216806200039857607f821691505b60208210811415620003af57620003ae620003eb565b5b50919050565b620003c08262000449565b810181811067ffffffffffffffff82111715620003e257620003e16200041a565b5b80604052505050565b7f4e487b7100000000000000000000000000000000000000000000000000000000600052602260045260246000fd5b7f4e487b7100000000000000000000000000000000000000000000000000000000600052604160045260246000fd5b6000601f19601f8301169050919050565b7f45524332304361707065643a2063617020697320300000000000000000000000600082015250565b6200048e816200033f565b81146200049a57600080fd5b50565b61171a80620004ad6000396000f3fe608060405234801561001057600080fd5b50600436106100cf5760003560e01c8063395093511161008c57806395d89b411161006657806395d89b4114610228578063a457c2d714610246578063a9059cbb14610276578063dd62ed3e146102a6576100cf565b806339509351146101ac57806340c10f19146101dc57806370a08231146101f8576100cf565b806306fdde03146100d4578063095ea7b3146100f257806318160ddd1461012257806323b872dd14610140578063313ce56714610170578063355274ea1461018e575b600080fd5b6100dc6102d6565b6040516100e991906110f4565b60405180910390f35b61010c60048036038101906101079190610efc565b610368565b60405161011991906110d9565b60405180910390f35b61012a610386565b6040516101379190611236565b60405180910390f35b61015a60048036038101906101559190610ead565b610390565b60405161016791906110d9565b60405180910390f35b610178610491565b6040516101859190611251565b60405180910390f35b61019661049a565b6040516101a39190611236565b60405180910390f35b6101c660048036038101906101c19190610efc565b6104a4565b6040516101d391906110d9565b60405180910390f35b6101f660048036038101906101f19190610efc565b610550565b005b610212600480360381019061020d9190610e48565b61055e565b60405161021f9190611236565b60405180910390f35b6102306105a6565b60405161023d91906110f4565b60405180910390f35b610260600480360381019061025b9190610efc565b610638565b60405161026d91906110d9565b60405180910390f35b610290600480360381019061028b9190610efc565b61072c565b60405161029d91906110d9565b60405180910390f35b6102c060048036038101906102bb9190610e71565b61074a565b6040516102cd9190611236565b60405180910390f35b6060600380546102e59061139a565b80601f01602080910402602001604051908101604052809291908181526020018280546103119061139a565b801561035e5780601f106103335761010080835404028352916020019161035e565b820191906000526020600020905b81548152906001019060200180831161034157829003601f168201915b5050505050905090565b600061037c6103756107d1565b84846107d9565b6001905092915050565b6000600254905090565b600061039d8484846109a4565b6000600160008673ffffffffffffffffffffffffffffffffffffffff1673ffffffffffffffffffffffffffffffffffffffff16815260200190815260200160002060006103e86107d1565b73ffffffffffffffffffffffffffffffffffffffff1673ffffffffffffffffffffffffffffffffffffffff16815260200190815260200160002054905082811015610468576040517f08c379a000000000000000000000000000000000000000000000000000000000815260040161045f90611176565b60405180910390fd5b610485856104746107d1565b858461048091906112de565b6107d9565b60019150509392505050565b60006012905090565b6000600554905090565b60006105466104b16107d1565b8484600160006104bf6107d1565b73ffffffffffffffffffffffffffffffffffffffff1673ffffffffffffffffffffffffffffffffffffffff16815260200190815260200160002060008873ffffffffffffffffffffffffffffffffffffffff1673ffffffffffffffffffffffffffffffffffffffff168152602001908152602001600020546105419190611288565b6107d9565b6001905092915050565b61055a8282610c23565b5050565b60008060008373ffffffffffffffffffffffffffffffffffffffff1673ffffffffffffffffffffffffffffffffffffffff168152602001908152602001600020549050919050565b6060600480546105b59061139a565b80601f01602080910402602001604051908101604052809291908181526020018280546105e19061139a565b801561062e5780601f106106035761010080835404028352916020019161062e565b820191906000526020600020905b81548152906001019060200180831161061157829003601f168201915b5050505050905090565b600080600160006106476107d1565b73ffffffffffffffffffffffffffffffffffffffff1673ffffffffffffffffffffffffffffffffffffffff16815260200190815260200160002060008573ffffffffffffffffffffffffffffffffffffffff1673ffffffffffffffffffffffffffffffffffffffff16815260200190815260200160002054905082811015610704576040517f08c379a00000000000000000000000000000000000000000000000000000000081526004016106fb906111f6565b60405180910390fd5b61072161070f6107d1565b85858461071c91906112de565b6107d9565b600191505092915050565b60006107406107396107d1565b84846109a4565b6001905092915050565b6000600160008473ffffffffffffffffffffffffffffffffffffffff1673ffffffffffffffffffffffffffffffffffffffff16815260200190815260200160002060008373ffffffffffffffffffffffffffffffffffffffff1673ffffffffffffffffffffffffffffffffffffffff16815260200190815260200160002054905092915050565b600033905090565b600073ffffffffffffffffffffffffffffffffffffffff168373ffffffffffffffffffffffffffffffffffffffff161415610849576040517f08c379a0000000000000000000000000000000000000000000000000000000008152600401610840906111d6565b60405180910390fd5b600073ffffffffffffffffffffffffffffffffffffffff168273ffffffffffffffffffffffffffffffffffffffff1614156108b9576040517f08c379a00000000000000000000000000000000000000000000000000000000081526004016108b090611136565b60405180910390fd5b80600160008573ffffffffffffffffffffffffffffffffffffffff1673ffffffffffffffffffffffffffffffffffffffff16815260200190815260200160002060008473ffffffffffffffffffffffffffffffffffffffff1673ffffffffffffffffffffffffffffffffffffffff168152602001908152602001600020819055508173ffffffffffffffffffffffffffffffffffffffff168373ffffffffffffffffffffffffffffffffffffffff167f8c5be1e5ebec7d5bd14f71427d1e84f3dd0314c0f7b2291e5b200ac8c7c3b925836040516109979190611236565b60405180910390a3505050565b600073ffffffffffffffffffffffffffffffffffffffff168373ffffffffffffffffffffffffffffffffffffffff161415610a14576040517f08c379a0000000000000000000000000000000000000000000000000000000008152600401610a0b90611196565b60405180910390fd5b600073ffffffffffffffffffffffffffffffffffffffff168273ffffffffffffffffffffffffffffffffffffffff161415610a84576040517f08c379a0000000000000000000000000000000000000000000000000000000008152600401610a7b90611116565b60405180910390fd5b610a8f838383610d77565b60008060008573ffffffffffffffffffffffffffffffffffffffff1673ffffffffffffffffffffffffffffffffffffffff16815260200190815260200160002054905081811015610b15576040517f08c379a0000000000000000000000000000000000000000000000000000000008152600401610b0c90611156565b60405180910390fd5b8181610b2191906112de565b6000808673ffffffffffffffffffffffffffffffffffffffff1673ffffffffffffffffffffffffffffffffffffffff16815260200190815260200160002081905550816000808573ffffffffffffffffffffffffffffffffffffffff1673ffffffffffffffffffffffffffffffffffffffff1681526020019081526020016000206000828254610bb19190611288565b925050819055508273ffffffffffffffffffffffffffffffffffffffff168473ffffffffffffffffffffffffffffffffffffffff167fddf252ad1be2c89b69c2b068fc378daa952ba7f163c4a11628f55a4df523b3ef84604051610c159190611236565b60405180910390a350505050565b600073ffffffffffffffffffffffffffffffffffffffff168273ffffffffffffffffffffffffffffffffffffffff161415610c93576040517f08c379a0000000000000000000000000000000000000000000000000000000008152600401610c8a90611216565b60405180910390fd5b610c9f60008383610d77565b8060026000828254610cb19190611288565b92505081905550806000808473ffffffffffffffffffffffffffffffffffffffff1673ffffffffffffffffffffffffffffffffffffffff1681526020019081526020016000206000828254610d069190611288565b925050819055508173ffffffffffffffffffffffffffffffffffffffff16600073ffffffffffffffffffffffffffffffffffffffff167fddf252ad1be2c89b69c2b068fc378daa952ba7f163c4a11628f55a4df523b3ef83604051610d6b9190611236565b60405180910390a35050565b610d82838383610e19565b600073ffffffffffffffffffffffffffffffffffffffff168373ffffffffffffffffffffffffffffffffffffffff161415610e1457610dbf61049a565b81610dc8610386565b610dd29190611288565b1115610e13576040517f08c379a0000000000000000000000000000000000000000000000000000000008152600401610e0a906111b6565b60405180910390fd5b5b505050565b505050565b600081359050610e2d816116b6565b92915050565b600081359050610e42816116cd565b92915050565b600060208284031215610e5a57600080fd5b6000610e6884828501610e1e565b91505092915050565b60008060408385031215610e8457600080fd5b6000610e9285828601610e1e565b9250506020610ea385828601610e1e565b9150509250929050565b600080600060608486031215610ec257600080fd5b6000610ed086828701610e1e565b9350506020610ee186828701610e1e565b9250506040610ef286828701610e33565b9150509250925092565b60008060408385031215610f0f57600080fd5b6000610f1d85828601610e1e565b9250506020610f2e85828601610e33565b9150509250929050565b610f4181611324565b82525050565b6000610f528261126c565b610f5c8185611277565b9350610f6c818560208601611367565b610f758161142a565b840191505092915050565b6000610f8d602383611277565b9150610f988261143b565b604082019050919050565b6000610fb0602283611277565b9150610fbb8261148a565b604082019050919050565b6000610fd3602683611277565b9150610fde826114d9565b604082019050919050565b6000610ff6602883611277565b915061100182611528565b604082019050919050565b6000611019602583611277565b915061102482611577565b604082019050919050565b600061103c601983611277565b9150611047826115c6565b602082019050919050565b600061105f602483611277565b915061106a826115ef565b604082019050919050565b6000611082602583611277565b915061108d8261163e565b604082019050919050565b60006110a5601f83611277565b91506110b08261168d565b602082019050919050565b6110c481611350565b82525050565b6110d38161135a565b82525050565b60006020820190506110ee6000830184610f38565b92915050565b6000602082019050818103600083015261110e8184610f47565b905092915050565b6000602082019050818103600083015261112f81610f80565b9050919050565b6000602082019050818103600083015261114f81610fa3565b9050919050565b6000602082019050818103600083015261116f81610fc6565b9050919050565b6000602082019050818103600083015261118f81610fe9565b9050919050565b600060208201905081810360008301526111af8161100c565b9050919050565b600060208201905081810360008301526111cf8161102f565b9050919050565b600060208201905081810360008301526111ef81611052565b9050919050565b6000602082019050818103600083015261120f81611075565b9050919050565b6000602082019050818103600083015261122f81611098565b9050919050565b600060208201905061124b60008301846110bb565b92915050565b600060208201905061126660008301846110ca565b92915050565b600081519050919050565b600082825260208201905092915050565b600061129382611350565b915061129e83611350565b9250827fffffffffffffffffffffffffffffffffffffffffffffffffffffffffffffffff038211156112d3576112d26113cc565b5b828201905092915050565b60006112e982611350565b91506112f483611350565b925082821015611307576113066113cc565b5b828203905092915050565b600061131d82611330565b9050919050565b60008115159050919050565b600073ffffffffffffffffffffffffffffffffffffffff82169050919050565b6000819050919050565b600060ff82169050919050565b60005b8381101561138557808201518184015260208101905061136a565b83811115611394576000848401525b50505050565b600060028204905060018216806113b257607f821691505b602082108114156113c6576113c56113fb565b5b50919050565b7f4e487b7100000000000000000000000000000000000000000000000000000000600052601160045260246000fd5b7f4e487b7100000000000000000000000000000000000000000000000000000000600052602260045260246000fd5b6000601f19601f8301169050919050565b7f45524332303a207472616e7366657220746f20746865207a65726f206164647260008201527f6573730000000000000000000000000000000000000000000000000000000000602082015250565b7f45524332303a20617070726f766520746f20746865207a65726f20616464726560008201527f7373000000000000000000000000000000000000000000000000000000000000602082015250565b7f45524332303a207472616e7366657220616d6f756e742065786365656473206260008201527f616c616e63650000000000000000000000000000000000000000000000000000602082015250565b7f45524332303a207472616e7366657220616d6f756e742065786365656473206160008201527f6c6c6f77616e6365000000000000000000000000000000000000000000000000602082015250565b7f45524332303a207472616e736665722066726f6d20746865207a65726f20616460008201527f6472657373000000000000000000000000000000000000000000000000000000602082015250565b7f45524332304361707065643a2063617020657863656564656400000000000000600082015250565b7f45524332303a20617070726f76652066726f6d20746865207a65726f2061646460008201527f7265737300000000000000000000000000000000000000000000000000000000602082015250565b7f45524332303a2064656372656173656420616c6c6f77616e63652062656c6f7760008201527f207a65726f000000000000000000000000000000000000000000000000000000602082015250565b7f45524332303a206d696e7420746f20746865207a65726f206164647265737300600082015250565b6116bf81611312565b81146116ca57600080fd5b50565b6116d681611350565b81146116e157600080fd5b5056fea2646970667358221220e8aff01a94666f0aefd3e6ed2250f759c87731ed8d728a35883c6c8587b4837964736f6c63430008040033",
  "linkReferences": {},
  "deployedLinkReferences": {}
}