{
  "_format": "hh-sol-artifact-1",
  "contractName": "GSNRecipientMock",
  "sourceName": "contracts/src/OpenZeppelin/mocks/GSNRecipientMock.sol",
  "abi": [
    {
      "anonymous": false,
      "inputs": [
        {
          "indexed": false,
          "internalType": "bytes",
          "name": "data",
          "type": "bytes"
        },
        {
          "indexed": false,
          "internalType": "uint256",
          "name": "integerValue",
          "type": "uint256"
        },
        {
          "indexed": false,
          "internalType": "string",
          "name": "stringValue",
          "type": "string"
        }
      ],
      "name": "Data",
      "type": "event"
    },
    {
      "anonymous": false,
      "inputs": [
        {
          "indexed": true,
          "internalType": "address",
          "name": "oldRelayHub",
          "type": "address"
        },
        {
          "indexed": true,
          "internalType": "address",
          "name": "newRelayHub",
          "type": "address"
        }
      ],
      "name": "RelayHubChanged",
      "type": "event"
    },
    {
      "anonymous": false,
      "inputs": [
        {
          "indexed": false,
          "internalType": "address",
          "name": "sender",
          "type": "address"
        }
      ],
      "name": "Sender",
      "type": "event"
    },
    {
      "inputs": [
        {
          "internalType": "address",
          "name": "",
          "type": "address"
        },
        {
          "internalType": "address",
          "name": "",
          "type": "address"
        },
        {
          "internalType": "bytes",
          "name": "",
          "type": "bytes"
        },
        {
          "internalType": "uint256",
          "name": "",
          "type": "uint256"
        },
        {
          "internalType": "uint256",
          "name": "",
          "type": "uint256"
        },
        {
          "internalType": "uint256",
          "name": "",
          "type": "uint256"
        },
        {
          "internalType": "uint256",
          "name": "",
          "type": "uint256"
        },
        {
          "internalType": "bytes",
          "name": "",
          "type": "bytes"
        },
        {
          "internalType": "uint256",
          "name": "",
          "type": "uint256"
        }
      ],
      "name": "acceptRelayedCall",
      "outputs": [
        {
          "internalType": "uint256",
          "name": "",
          "type": "uint256"
        },
        {
          "internalType": "bytes",
          "name": "",
          "type": "bytes"
        }
      ],
      "stateMutability": "pure",
      "type": "function"
    },
    {
      "inputs": [],
      "name": "getHubAddr",
      "outputs": [
        {
          "internalType": "address",
          "name": "",
          "type": "address"
        }
      ],
      "stateMutability": "view",
      "type": "function"
    },
    {
      "inputs": [
        {
          "internalType": "uint256",
          "name": "integerValue",
          "type": "uint256"
        },
        {
          "internalType": "string",
          "name": "stringValue",
          "type": "string"
        }
      ],
      "name": "msgData",
      "outputs": [],
      "stateMutability": "nonpayable",
      "type": "function"
    },
    {
      "inputs": [],
      "name": "msgSender",
      "outputs": [],
      "stateMutability": "nonpayable",
      "type": "function"
    },
    {
      "inputs": [
        {
          "internalType": "bytes",
          "name": "context",
          "type": "bytes"
        },
        {
          "internalType": "bool",
          "name": "success",
          "type": "bool"
        },
        {
          "internalType": "uint256",
          "name": "actualCharge",
          "type": "uint256"
        },
        {
          "internalType": "bytes32",
          "name": "preRetVal",
          "type": "bytes32"
        }
      ],
      "name": "postRelayedCall",
      "outputs": [],
      "stateMutability": "nonpayable",
      "type": "function"
    },
    {
      "inputs": [
        {
          "internalType": "bytes",
          "name": "context",
          "type": "bytes"
        }
      ],
      "name": "preRelayedCall",
      "outputs": [
        {
          "internalType": "bytes32",
          "name": "",
          "type": "bytes32"
        }
      ],
      "stateMutability": "nonpayable",
      "type": "function"
    },
    {
      "inputs": [],
      "name": "relayHubVersion",
      "outputs": [
        {
          "internalType": "string",
          "name": "",
          "type": "string"
        }
      ],
      "stateMutability": "view",
      "type": "function"
    },
    {
      "inputs": [
        {
          "internalType": "address",
          "name": "newRelayHub",
          "type": "address"
        }
      ],
      "name": "upgradeRelayHub",
      "outputs": [],
      "stateMutability": "nonpayable",
      "type": "function"
    },
    {
      "inputs": [
        {
          "internalType": "uint256",
          "name": "amount",
          "type": "uint256"
        },
        {
          "internalType": "address payable",
          "name": "payee",
          "type": "address"
        }
      ],
      "name": "withdrawDeposits",
      "outputs": [],
      "stateMutability": "nonpayable",
      "type": "function"
    }
  ],
  "bytecode": "0x608060405273d216153c06e857cd7f72665e0af1d7d82172f4946000806101000a81548173ffffffffffffffffffffffffffffffffffffffff021916908373ffffffffffffffffffffffffffffffffffffffff16021790555034801561006457600080fd5b5061119c806100746000396000f3fe608060405234801561001057600080fd5b50600436106100935760003560e01c80639e30a590116100665780639e30a59014610133578063ad61ccd51461014f578063c2db1abe1461016d578063d737d0c714610189578063e06e0e221461019357610093565b8063376bf2621461009857806374e861d6146100b457806380274db7146100d257806383947ea014610102575b600080fd5b6100b260048036038101906100ad9190610aaa565b6101af565b005b6100bc6101f6565b6040516100c99190610c42565b60405180910390f35b6100ec60048036038101906100e791906109b2565b61021f565b6040516100f99190610c5d565b60405180910390f35b61011c600480360381019061011791906108b2565b6102a6565b60405161012a929190610d6a565b60405180910390f35b61014d60048036038101906101489190610889565b6102d0565b005b6101576102dc565b6040516101649190610cbf565b60405180910390f35b61018760048036038101906101829190610a6e565b610319565b005b610191610327565b005b6101ad60048036038101906101a891906109f3565b610367565b005b7faf235354a0a47c91ee171961326335cb2d1a8e55b8a89859b0e61eb049e50ea06101d86103ee565b84846040516101ea9493929190610c78565b60405180910390a15050565b60008060009054906101000a900473ffffffffffffffffffffffffffffffffffffffff16905090565b60006102296101f6565b73ffffffffffffffffffffffffffffffffffffffff163373ffffffffffffffffffffffffffffffffffffffff1614610296576040517f08c379a000000000000000000000000000000000000000000000000000000000815260040161028d90610d21565b60405180910390fd5b61029f82610401565b9050919050565b60006060600060405180602001604052806000815250915091509b509b9950505050505050505050565b6102d981610408565b50565b60606040518060400160405280600581526020017f312e302e30000000000000000000000000000000000000000000000000000000815250905090565b61032382826105ab565b5050565b7fd6558c3ed910d959271054471fd1c326679d9fece99c5091b00ed89627cf2bfc610350610622565b60405161035d9190610c42565b60405180910390a1565b61036f6101f6565b73ffffffffffffffffffffffffffffffffffffffff163373ffffffffffffffffffffffffffffffffffffffff16146103dc576040517f08c379a00000000000000000000000000000000000000000000000000000000081526004016103d390610d21565b60405180910390fd5b6103e884848484610631565b50505050565b3660006103f9610637565b915091509091565b6000919050565b60008060009054906101000a900473ffffffffffffffffffffffffffffffffffffffff169050600073ffffffffffffffffffffffffffffffffffffffff168273ffffffffffffffffffffffffffffffffffffffff16141561049e576040517f08c379a000000000000000000000000000000000000000000000000000000000815260040161049590610ce1565b60405180910390fd5b8073ffffffffffffffffffffffffffffffffffffffff168273ffffffffffffffffffffffffffffffffffffffff16141561050d576040517f08c379a000000000000000000000000000000000000000000000000000000000815260040161050490610d01565b60405180910390fd5b8173ffffffffffffffffffffffffffffffffffffffff168173ffffffffffffffffffffffffffffffffffffffff167fb9f84b8e65164b14439ae3620df0a4d8786d896996c0282b683f9d8c08f046e860405160405180910390a3816000806101000a81548173ffffffffffffffffffffffffffffffffffffffff021916908373ffffffffffffffffffffffffffffffffffffffff1602179055505050565b6105b36101f6565b73ffffffffffffffffffffffffffffffffffffffff1662f714ce83836040518363ffffffff1660e01b81526004016105ec929190610d41565b600060405180830381600087803b15801561060657600080fd5b505af115801561061a573d6000803e3d6000fd5b505050505050565b600061062c6106ae565b905090565b50505050565b3660006106426101f6565b73ffffffffffffffffffffffffffffffffffffffff163373ffffffffffffffffffffffffffffffffffffffff1614156106a2576000366000906014600036905061068c9190610e8c565b9261069993929190610e59565b915091506106aa565b600036915091505b9091565b60006106b86101f6565b73ffffffffffffffffffffffffffffffffffffffff163373ffffffffffffffffffffffffffffffffffffffff1614156106fa57601436033560601c9050610702565b339050610703565b5b90565b600061071961071484610dbf565b610d9a565b90508281526020810184848401111561073157600080fd5b61073c848285610f24565b509392505050565b600061075761075284610df0565b610d9a565b90508281526020810184848401111561076f57600080fd5b61077a848285610f24565b509392505050565b600081359050610791816110f3565b92915050565b6000813590506107a68161110a565b92915050565b6000813590506107bb81611121565b92915050565b6000813590506107d081611138565b92915050565b60008083601f8401126107e857600080fd5b8235905067ffffffffffffffff81111561080157600080fd5b60208301915083600182028301111561081957600080fd5b9250929050565b600082601f83011261083157600080fd5b8135610841848260208601610706565b91505092915050565b600082601f83011261085b57600080fd5b813561086b848260208601610744565b91505092915050565b6000813590506108838161114f565b92915050565b60006020828403121561089b57600080fd5b60006108a984828501610782565b91505092915050565b60008060008060008060008060008060006101208c8e0312156108d457600080fd5b60006108e28e828f01610782565b9b505060206108f38e828f01610782565b9a505060408c013567ffffffffffffffff81111561091057600080fd5b61091c8e828f016107d6565b9950995050606061092f8e828f01610874565b97505060806109408e828f01610874565b96505060a06109518e828f01610874565b95505060c06109628e828f01610874565b94505060e08c013567ffffffffffffffff81111561097f57600080fd5b61098b8e828f016107d6565b935093505061010061099f8e828f01610874565b9150509295989b509295989b9093969950565b6000602082840312156109c457600080fd5b600082013567ffffffffffffffff8111156109de57600080fd5b6109ea84828501610820565b91505092915050565b60008060008060808587031215610a0957600080fd5b600085013567ffffffffffffffff811115610a2357600080fd5b610a2f87828801610820565b9450506020610a40878288016107ac565b9350506040610a5187828801610874565b9250506060610a62878288016107c1565b91505092959194509250565b60008060408385031215610a8157600080fd5b6000610a8f85828601610874565b9250506020610aa085828601610797565b9150509250929050565b60008060408385031215610abd57600080fd5b6000610acb85828601610874565b925050602083013567ffffffffffffffff811115610ae857600080fd5b610af48582860161084a565b9150509250929050565b610b0781610ed2565b82525050565b610b1681610ec0565b82525050565b610b2581610ef0565b82525050565b6000610b378385610e37565b9350610b44838584610f24565b610b4d83610ff5565b840190509392505050565b6000610b6382610e21565b610b6d8185610e37565b9350610b7d818560208601610f33565b610b8681610ff5565b840191505092915050565b6000610b9c82610e2c565b610ba68185610e48565b9350610bb6818560208601610f33565b610bbf81610ff5565b840191505092915050565b6000610bd7602e83610e48565b9150610be282611006565b604082019050919050565b6000610bfa602d83610e48565b9150610c0582611055565b604082019050919050565b6000610c1d602483610e48565b9150610c28826110a4565b604082019050919050565b610c3c81610f1a565b82525050565b6000602082019050610c576000830184610b0d565b92915050565b6000602082019050610c726000830184610b1c565b92915050565b60006060820190508181036000830152610c93818688610b2b565b9050610ca26020830185610c33565b8181036040830152610cb48184610b91565b905095945050505050565b60006020820190508181036000830152610cd98184610b91565b905092915050565b60006020820190508181036000830152610cfa81610bca565b9050919050565b60006020820190508181036000830152610d1a81610bed565b9050919050565b60006020820190508181036000830152610d3a81610c10565b9050919050565b6000604082019050610d566000830185610c33565b610d636020830184610afe565b9392505050565b6000604082019050610d7f6000830185610c33565b8181036020830152610d918184610b58565b90509392505050565b6000610da4610db5565b9050610db08282610f66565b919050565b6000604051905090565b600067ffffffffffffffff821115610dda57610dd9610fc6565b5b610de382610ff5565b9050602081019050919050565b600067ffffffffffffffff821115610e0b57610e0a610fc6565b5b610e1482610ff5565b9050602081019050919050565b600081519050919050565b600081519050919050565b600082825260208201905092915050565b600082825260208201905092915050565b60008085851115610e6957600080fd5b83861115610e7657600080fd5b6001850283019150848603905094509492505050565b6000610e9782610f1a565b9150610ea283610f1a565b925082821015610eb557610eb4610f97565b5b828203905092915050565b6000610ecb82610efa565b9050919050565b6000610edd82610efa565b9050919050565b60008115159050919050565b6000819050919050565b600073ffffffffffffffffffffffffffffffffffffffff82169050919050565b6000819050919050565b82818337600083830152505050565b60005b83811015610f51578082015181840152602081019050610f36565b83811115610f60576000848401525b50505050565b610f6f82610ff5565b810181811067ffffffffffffffff82111715610f8e57610f8d610fc6565b5b80604052505050565b7f4e487b7100000000000000000000000000000000000000000000000000000000600052601160045260246000fd5b7f4e487b7100000000000000000000000000000000000000000000000000000000600052604160045260246000fd5b6000601f19601f8301169050919050565b7f47534e526563697069656e743a206e65772052656c617948756220697320746860008201527f65207a65726f2061646472657373000000000000000000000000000000000000602082015250565b7f47534e526563697069656e743a206e65772052656c617948756220697320746860008201527f652063757272656e74206f6e6500000000000000000000000000000000000000602082015250565b7f47534e526563697069656e743a2063616c6c6572206973206e6f742052656c6160008201527f7948756200000000000000000000000000000000000000000000000000000000602082015250565b6110fc81610ec0565b811461110757600080fd5b50565b61111381610ed2565b811461111e57600080fd5b50565b61112a81610ee4565b811461113557600080fd5b50565b61114181610ef0565b811461114c57600080fd5b50565b61115881610f1a565b811461116357600080fd5b5056fea264697066735822122071f8adeb615d5e0df10dc2b4c0fb9e8f2b89ddfbb38c88924fcb7543d8f8dc6b64736f6c63430008040033",
  "linkReferences": {},
  "deployedLinkReferences": {}
}