{
  "_format": "hh-sol-artifact-1",
  "contractName": "ERC20SnapshotMock",
  "sourceName": "contracts/src/OpenZeppelin/mocks/ERC20SnapshotMock.sol",
  "abi": [
    {
      "inputs": [
        {
          "internalType": "string",
          "name": "name",
          "type": "string"
        },
        {
          "internalType": "string",
          "name": "symbol",
          "type": "string"
        },
        {
          "internalType": "address",
          "name": "initialAccount",
          "type": "address"
        },
        {
          "internalType": "uint256",
          "name": "initialBalance",
          "type": "uint256"
        }
      ],
      "stateMutability": "nonpayable",
      "type": "constructor"
    },
    {
      "anonymous": false,
      "inputs": [
        {
          "indexed": true,
          "internalType": "address",
          "name": "owner",
          "type": "address"
        },
        {
          "indexed": true,
          "internalType": "address",
          "name": "spender",
          "type": "address"
        },
        {
          "indexed": false,
          "internalType": "uint256",
          "name": "value",
          "type": "uint256"
        }
      ],
      "name": "Approval",
      "type": "event"
    },
    {
      "anonymous": false,
      "inputs": [
        {
          "indexed": false,
          "internalType": "uint256",
          "name": "id",
          "type": "uint256"
        }
      ],
      "name": "Snapshot",
      "type": "event"
    },
    {
      "anonymous": false,
      "inputs": [
        {
          "indexed": true,
          "internalType": "address",
          "name": "from",
          "type": "address"
        },
        {
          "indexed": true,
          "internalType": "address",
          "name": "to",
          "type": "address"
        },
        {
          "indexed": false,
          "internalType": "uint256",
          "name": "value",
          "type": "uint256"
        }
      ],
      "name": "Transfer",
      "type": "event"
    },
    {
      "inputs": [
        {
          "internalType": "address",
          "name": "owner",
          "type": "address"
        },
        {
          "internalType": "address",
          "name": "spender",
          "type": "address"
        }
      ],
      "name": "allowance",
      "outputs": [
        {
          "internalType": "uint256",
          "name": "",
          "type": "uint256"
        }
      ],
      "stateMutability": "view",
      "type": "function"
    },
    {
      "inputs": [
        {
          "internalType": "address",
          "name": "spender",
          "type": "address"
        },
        {
          "internalType": "uint256",
          "name": "amount",
          "type": "uint256"
        }
      ],
      "name": "approve",
      "outputs": [
        {
          "internalType": "bool",
          "name": "",
          "type": "bool"
        }
      ],
      "stateMutability": "nonpayable",
      "type": "function"
    },
    {
      "inputs": [
        {
          "internalType": "address",
          "name": "account",
          "type": "address"
        }
      ],
      "name": "balanceOf",
      "outputs": [
        {
          "internalType": "uint256",
          "name": "",
          "type": "uint256"
        }
      ],
      "stateMutability": "view",
      "type": "function"
    },
    {
      "inputs": [
        {
          "internalType": "address",
          "name": "account",
          "type": "address"
        },
        {
          "internalType": "uint256",
          "name": "snapshotId",
          "type": "uint256"
        }
      ],
      "name": "balanceOfAt",
      "outputs": [
        {
          "internalType": "uint256",
          "name": "",
          "type": "uint256"
        }
      ],
      "stateMutability": "view",
      "type": "function"
    },
    {
      "inputs": [
        {
          "internalType": "address",
          "name": "account",
          "type": "address"
        },
        {
          "internalType": "uint256",
          "name": "amount",
          "type": "uint256"
        }
      ],
      "name": "burn",
      "outputs": [],
      "stateMutability": "nonpayable",
      "type": "function"
    },
    {
      "inputs": [],
      "name": "decimals",
      "outputs": [
        {
          "internalType": "uint8",
          "name": "",
          "type": "uint8"
        }
      ],
      "stateMutability": "view",
      "type": "function"
    },
    {
      "inputs": [
        {
          "internalType": "address",
          "name": "spender",
          "type": "address"
        },
        {
          "internalType": "uint256",
          "name": "subtractedValue",
          "type": "uint256"
        }
      ],
      "name": "decreaseAllowance",
      "outputs": [
        {
          "internalType": "bool",
          "name": "",
          "type": "bool"
        }
      ],
      "stateMutability": "nonpayable",
      "type": "function"
    },
    {
      "inputs": [
        {
          "internalType": "address",
          "name": "spender",
          "type": "address"
        },
        {
          "internalType": "uint256",
          "name": "addedValue",
          "type": "uint256"
        }
      ],
      "name": "increaseAllowance",
      "outputs": [
        {
          "internalType": "bool",
          "name": "",
          "type": "bool"
        }
      ],
      "stateMutability": "nonpayable",
      "type": "function"
    },
    {
      "inputs": [
        {
          "internalType": "address",
          "name": "account",
          "type": "address"
        },
        {
          "internalType": "uint256",
          "name": "amount",
          "type": "uint256"
        }
      ],
      "name": "mint",
      "outputs": [],
      "stateMutability": "nonpayable",
      "type": "function"
    },
    {
      "inputs": [],
      "name": "name",
      "outputs": [
        {
          "internalType": "string",
          "name": "",
          "type": "string"
        }
      ],
      "stateMutability": "view",
      "type": "function"
    },
    {
      "inputs": [],
      "name": "snapshot",
      "outputs": [],
      "stateMutability": "nonpayable",
      "type": "function"
    },
    {
      "inputs": [],
      "name": "symbol",
      "outputs": [
        {
          "internalType": "string",
          "name": "",
          "type": "string"
        }
      ],
      "stateMutability": "view",
      "type": "function"
    },
    {
      "inputs": [],
      "name": "totalSupply",
      "outputs": [
        {
          "internalType": "uint256",
          "name": "",
          "type": "uint256"
        }
      ],
      "stateMutability": "view",
      "type": "function"
    },
    {
      "inputs": [
        {
          "internalType": "uint256",
          "name": "snapshotId",
          "type": "uint256"
        }
      ],
      "name": "totalSupplyAt",
      "outputs": [
        {
          "internalType": "uint256",
          "name": "",
          "type": "uint256"
        }
      ],
      "stateMutability": "view",
      "type": "function"
    },
    {
      "inputs": [
        {
          "internalType": "address",
          "name": "recipient",
          "type": "address"
        },
        {
          "internalType": "uint256",
          "name": "amount",
          "type": "uint256"
        }
      ],
      "name": "transfer",
      "outputs": [
        {
          "internalType": "bool",
          "name": "",
          "type": "bool"
        }
      ],
      "stateMutability": "nonpayable",
      "type": "function"
    },
    {
      "inputs": [
        {
          "internalType": "address",
          "name": "sender",
          "type": "address"
        },
        {
          "internalType": "address",
          "name": "recipient",
          "type": "address"
        },
        {
          "internalType": "uint256",
          "name": "amount",
          "type": "uint256"
        }
      ],
      "name": "transferFrom",
      "outputs": [
        {
          "internalType": "bool",
          "name": "",
          "type": "bool"
        }
      ],
      "stateMutability": "nonpayable",
      "type": "function"
    }
  ],
  "bytecode": "0x60806040523480156200001157600080fd5b5060405162002b4f38038062002b4f833981810160405281019062000037919062000630565b8383816003908051906020019062000051929190620004e0565b5080600490805190602001906200006a929190620004e0565b5050506200007f82826200008960201b60201c565b5050505062000a28565b600073ffffffffffffffffffffffffffffffffffffffff168273ffffffffffffffffffffffffffffffffffffffff161415620000fc576040517f08c379a0000000000000000000000000000000000000000000000000000000008152600401620000f39062000706565b60405180910390fd5b6200011060008383620001ee60201b60201c565b8060026000828254620001249190620007b5565b92505081905550806000808473ffffffffffffffffffffffffffffffffffffffff1673ffffffffffffffffffffffffffffffffffffffff16815260200190815260200160002060008282546200017b9190620007b5565b925050819055508173ffffffffffffffffffffffffffffffffffffffff16600073ffffffffffffffffffffffffffffffffffffffff167fddf252ad1be2c89b69c2b068fc378daa952ba7f163c4a11628f55a4df523b3ef83604051620001e2919062000728565b60405180910390a35050565b62000206838383620002e960201b6200091a1760201c565b600073ffffffffffffffffffffffffffffffffffffffff168373ffffffffffffffffffffffffffffffffffffffff16141562000263576200024d82620002ee60201b60201c565b6200025d6200035160201b60201c565b620002e4565b600073ffffffffffffffffffffffffffffffffffffffff168273ffffffffffffffffffffffffffffffffffffffff161415620002c057620002aa83620002ee60201b60201c565b620002ba6200035160201b60201c565b620002e3565b620002d183620002ee60201b60201c565b620002e282620002ee60201b60201c565b5b5b505050565b505050565b6200034e600560008373ffffffffffffffffffffffffffffffffffffffff1673ffffffffffffffffffffffffffffffffffffffff16815260200190815260200160002062000342836200037560201b60201c565b620003bd60201b60201c565b50565b620003736006620003676200045060201b60201c565b620003bd60201b60201c565b565b60008060008373ffffffffffffffffffffffffffffffffffffffff1673ffffffffffffffffffffffffffffffffffffffff168152602001908152602001600020549050919050565b6000620003d660086200045a60201b6200091f1760201c565b905080620003ed846000016200046860201b60201c565b10156200044b5782600001819080600181540180825580915050600190039060005260206000200160009091909190915055826001018290806001815401808255809150506001900390600052602060002001600090919091909150555b505050565b6000600254905090565b600081600001549050919050565b60008082805490501415620004815760009050620004db565b816001838054905062000495919062000812565b81548110620004cd577f4e487b7100000000000000000000000000000000000000000000000000000000600052603260045260246000fd5b906000526020600020015490505b919050565b828054620004ee90620008c1565b90600052602060002090601f0160209004810192826200051257600085556200055e565b82601f106200052d57805160ff19168380011785556200055e565b828001600101855582156200055e579182015b828111156200055d57825182559160200191906001019062000540565b5b5090506200056d919062000571565b5090565b5b808211156200058c57600081600090555060010162000572565b5090565b6000620005a7620005a1846200076e565b62000745565b905082815260208101848484011115620005c057600080fd5b620005cd8482856200088b565b509392505050565b600081519050620005e681620009f4565b92915050565b600082601f830112620005fe57600080fd5b81516200061084826020860162000590565b91505092915050565b6000815190506200062a8162000a0e565b92915050565b600080600080608085870312156200064757600080fd5b600085015167ffffffffffffffff8111156200066257600080fd5b6200067087828801620005ec565b945050602085015167ffffffffffffffff8111156200068e57600080fd5b6200069c87828801620005ec565b9350506040620006af87828801620005d5565b9250506060620006c28782880162000619565b91505092959194509250565b6000620006dd601f83620007a4565b9150620006ea82620009cb565b602082019050919050565b620007008162000881565b82525050565b600060208201905081810360008301526200072181620006ce565b9050919050565b60006020820190506200073f6000830184620006f5565b92915050565b60006200075162000764565b90506200075f8282620008f7565b919050565b6000604051905090565b600067ffffffffffffffff8211156200078c576200078b6200098b565b5b6200079782620009ba565b9050602081019050919050565b600082825260208201905092915050565b6000620007c28262000881565b9150620007cf8362000881565b9250827fffffffffffffffffffffffffffffffffffffffffffffffffffffffffffffffff038211156200080757620008066200092d565b5b828201905092915050565b60006200081f8262000881565b91506200082c8362000881565b9250828210156200084257620008416200092d565b5b828203905092915050565b60006200085a8262000861565b9050919050565b600073ffffffffffffffffffffffffffffffffffffffff82169050919050565b6000819050919050565b60005b83811015620008ab5780820151818401526020810190506200088e565b83811115620008bb576000848401525b50505050565b60006002820490506001821680620008da57607f821691505b60208210811415620008f157620008f06200095c565b5b50919050565b6200090282620009ba565b810181811067ffffffffffffffff821117156200092457620009236200098b565b5b80604052505050565b7f4e487b7100000000000000000000000000000000000000000000000000000000600052601160045260246000fd5b7f4e487b7100000000000000000000000000000000000000000000000000000000600052602260045260246000fd5b7f4e487b7100000000000000000000000000000000000000000000000000000000600052604160045260246000fd5b6000601f19601f8301169050919050565b7f45524332303a206d696e7420746f20746865207a65726f206164647265737300600082015250565b620009ff816200084d565b811462000a0b57600080fd5b50565b62000a198162000881565b811462000a2557600080fd5b50565b6121178062000a386000396000f3fe608060405234801561001057600080fd5b50600436106101005760003560e01c806370a08231116100975780639dc29fac116100665780639dc29fac146102c3578063a457c2d7146102df578063a9059cbb1461030f578063dd62ed3e1461033f57610100565b806370a082311461023b57806395d89b411461026b5780639711715a14610289578063981b24d01461029357610100565b8063313ce567116100d3578063313ce567146101a157806339509351146101bf57806340c10f19146101ef5780634ee2cd7e1461020b57610100565b806306fdde0314610105578063095ea7b31461012357806318160ddd1461015357806323b872dd14610171575b600080fd5b61010d61036f565b60405161011a9190611939565b60405180910390f35b61013d600480360381019061013891906116af565b610401565b60405161014a919061191e565b60405180910390f35b61015b61041f565b6040516101689190611adb565b60405180910390f35b61018b60048036038101906101869190611660565b610429565b604051610198919061191e565b60405180910390f35b6101a961052a565b6040516101b69190611af6565b60405180910390f35b6101d960048036038101906101d491906116af565b610533565b6040516101e6919061191e565b60405180910390f35b610209600480360381019061020491906116af565b6105df565b005b610225600480360381019061022091906116af565b6105ed565b6040516102329190611adb565b60405180910390f35b610255600480360381019061025091906115fb565b61065d565b6040516102629190611adb565b60405180910390f35b6102736106a5565b6040516102809190611939565b60405180910390f35b610291610737565b005b6102ad60048036038101906102a891906116eb565b610742565b6040516102ba9190611adb565b60405180910390f35b6102dd60048036038101906102d891906116af565b610773565b005b6102f960048036038101906102f491906116af565b610781565b604051610306919061191e565b60405180910390f35b610329600480360381019061032491906116af565b610875565b604051610336919061191e565b60405180910390f35b61035960048036038101906103549190611624565b610893565b6040516103669190611adb565b60405180910390f35b60606003805461037e90611c70565b80601f01602080910402602001604051908101604052809291908181526020018280546103aa90611c70565b80156103f75780601f106103cc576101008083540402835291602001916103f7565b820191906000526020600020905b8154815290600101906020018083116103da57829003601f168201915b5050505050905090565b600061041561040e61092d565b8484610935565b6001905092915050565b6000600254905090565b6000610436848484610b00565b6000600160008673ffffffffffffffffffffffffffffffffffffffff1673ffffffffffffffffffffffffffffffffffffffff168152602001908152602001600020600061048161092d565b73ffffffffffffffffffffffffffffffffffffffff1673ffffffffffffffffffffffffffffffffffffffff16815260200190815260200160002054905082811015610501576040517f08c379a00000000000000000000000000000000000000000000000000000000081526004016104f8906119fb565b60405180910390fd5b61051e8561050d61092d565b85846105199190611bb4565b610935565b60019150509392505050565b60006012905090565b60006105d561054061092d565b84846001600061054e61092d565b73ffffffffffffffffffffffffffffffffffffffff1673ffffffffffffffffffffffffffffffffffffffff16815260200190815260200160002060008873ffffffffffffffffffffffffffffffffffffffff1673ffffffffffffffffffffffffffffffffffffffff168152602001908152602001600020546105d09190611b2d565b610935565b6001905092915050565b6105e98282610d7f565b5050565b600080600061063a84600560008873ffffffffffffffffffffffffffffffffffffffff1673ffffffffffffffffffffffffffffffffffffffff168152602001908152602001600020610ed3565b91509150816106515761064c8561065d565b610653565b805b9250505092915050565b60008060008373ffffffffffffffffffffffffffffffffffffffff1673ffffffffffffffffffffffffffffffffffffffff168152602001908152602001600020549050919050565b6060600480546106b490611c70565b80601f01602080910402602001604051908101604052809291908181526020018280546106e090611c70565b801561072d5780601f106107025761010080835404028352916020019161072d565b820191906000526020600020905b81548152906001019060200180831161071057829003601f168201915b5050505050905090565b61073f610ff1565b50565b6000806000610752846006610ed3565b91509150816107685761076361041f565b61076a565b805b92505050919050565b61077d8282611049565b5050565b6000806001600061079061092d565b73ffffffffffffffffffffffffffffffffffffffff1673ffffffffffffffffffffffffffffffffffffffff16815260200190815260200160002060008573ffffffffffffffffffffffffffffffffffffffff1673ffffffffffffffffffffffffffffffffffffffff1681526020019081526020016000205490508281101561084d576040517f08c379a000000000000000000000000000000000000000000000000000000000815260040161084490611a9b565b60405180910390fd5b61086a61085861092d565b8585846108659190611bb4565b610935565b600191505092915050565b600061088961088261092d565b8484610b00565b6001905092915050565b6000600160008473ffffffffffffffffffffffffffffffffffffffff1673ffffffffffffffffffffffffffffffffffffffff16815260200190815260200160002060008373ffffffffffffffffffffffffffffffffffffffff1673ffffffffffffffffffffffffffffffffffffffff16815260200190815260200160002054905092915050565b505050565b600081600001549050919050565b600033905090565b600073ffffffffffffffffffffffffffffffffffffffff168373ffffffffffffffffffffffffffffffffffffffff1614156109a5576040517f08c379a000000000000000000000000000000000000000000000000000000000815260040161099c90611a5b565b60405180910390fd5b600073ffffffffffffffffffffffffffffffffffffffff168273ffffffffffffffffffffffffffffffffffffffff161415610a15576040517f08c379a0000000000000000000000000000000000000000000000000000000008152600401610a0c906119bb565b60405180910390fd5b80600160008573ffffffffffffffffffffffffffffffffffffffff1673ffffffffffffffffffffffffffffffffffffffff16815260200190815260200160002060008473ffffffffffffffffffffffffffffffffffffffff1673ffffffffffffffffffffffffffffffffffffffff168152602001908152602001600020819055508173ffffffffffffffffffffffffffffffffffffffff168373ffffffffffffffffffffffffffffffffffffffff167f8c5be1e5ebec7d5bd14f71427d1e84f3dd0314c0f7b2291e5b200ac8c7c3b92583604051610af39190611adb565b60405180910390a3505050565b600073ffffffffffffffffffffffffffffffffffffffff168373ffffffffffffffffffffffffffffffffffffffff161415610b70576040517f08c379a0000000000000000000000000000000000000000000000000000000008152600401610b6790611a3b565b60405180910390fd5b600073ffffffffffffffffffffffffffffffffffffffff168273ffffffffffffffffffffffffffffffffffffffff161415610be0576040517f08c379a0000000000000000000000000000000000000000000000000000000008152600401610bd79061197b565b60405180910390fd5b610beb83838361121d565b60008060008573ffffffffffffffffffffffffffffffffffffffff1673ffffffffffffffffffffffffffffffffffffffff16815260200190815260200160002054905081811015610c71576040517f08c379a0000000000000000000000000000000000000000000000000000000008152600401610c68906119db565b60405180910390fd5b8181610c7d9190611bb4565b6000808673ffffffffffffffffffffffffffffffffffffffff1673ffffffffffffffffffffffffffffffffffffffff16815260200190815260200160002081905550816000808573ffffffffffffffffffffffffffffffffffffffff1673ffffffffffffffffffffffffffffffffffffffff1681526020019081526020016000206000828254610d0d9190611b2d565b925050819055508273ffffffffffffffffffffffffffffffffffffffff168473ffffffffffffffffffffffffffffffffffffffff167fddf252ad1be2c89b69c2b068fc378daa952ba7f163c4a11628f55a4df523b3ef84604051610d719190611adb565b60405180910390a350505050565b600073ffffffffffffffffffffffffffffffffffffffff168273ffffffffffffffffffffffffffffffffffffffff161415610def576040517f08c379a0000000000000000000000000000000000000000000000000000000008152600401610de690611abb565b60405180910390fd5b610dfb6000838361121d565b8060026000828254610e0d9190611b2d565b92505081905550806000808473ffffffffffffffffffffffffffffffffffffffff1673ffffffffffffffffffffffffffffffffffffffff1681526020019081526020016000206000828254610e629190611b2d565b925050819055508173ffffffffffffffffffffffffffffffffffffffff16600073ffffffffffffffffffffffffffffffffffffffff167fddf252ad1be2c89b69c2b068fc378daa952ba7f163c4a11628f55a4df523b3ef83604051610ec79190611adb565b60405180910390a35050565b60008060008411610f19576040517f08c379a0000000000000000000000000000000000000000000000000000000008152600401610f1090611a7b565b60405180910390fd5b610f23600861091f565b841115610f65576040517f08c379a0000000000000000000000000000000000000000000000000000000008152600401610f5c9061195b565b60405180910390fd5b6000610f7d85856000016112d790919063ffffffff16565b90508360000180549050811415610f9b576000809250925050610fea565b6001846001018281548110610fd9577f4e487b7100000000000000000000000000000000000000000000000000000000600052603260045260246000fd5b906000526020600020015492509250505b9250929050565b6000610ffd60086113fd565b6000611009600861091f565b90507f8030e83b04d87bef53480e26263266d6ca66863aa8506aca6f2559d18aa1cb678160405161103a9190611adb565b60405180910390a18091505090565b600073ffffffffffffffffffffffffffffffffffffffff168273ffffffffffffffffffffffffffffffffffffffff1614156110b9576040517f08c379a00000000000000000000000000000000000000000000000000000000081526004016110b090611a1b565b60405180910390fd5b6110c58260008361121d565b60008060008473ffffffffffffffffffffffffffffffffffffffff1673ffffffffffffffffffffffffffffffffffffffff1681526020019081526020016000205490508181101561114b576040517f08c379a00000000000000000000000000000000000000000000000000000000081526004016111429061199b565b60405180910390fd5b81816111579190611bb4565b6000808573ffffffffffffffffffffffffffffffffffffffff1673ffffffffffffffffffffffffffffffffffffffff1681526020019081526020016000208190555081600260008282546111ab9190611bb4565b92505081905550600073ffffffffffffffffffffffffffffffffffffffff168373ffffffffffffffffffffffffffffffffffffffff167fddf252ad1be2c89b69c2b068fc378daa952ba7f163c4a11628f55a4df523b3ef846040516112109190611adb565b60405180910390a3505050565b61122883838361091a565b600073ffffffffffffffffffffffffffffffffffffffff168373ffffffffffffffffffffffffffffffffffffffff1614156112735761126682611413565b61126e611466565b6112d2565b600073ffffffffffffffffffffffffffffffffffffffff168273ffffffffffffffffffffffffffffffffffffffff1614156112be576112b183611413565b6112b9611466565b6112d1565b6112c783611413565b6112d082611413565b5b5b505050565b600080838054905014156112ee57600090506113f7565b600080848054905090505b8082101561137857600061130d838361147a565b905084868281548110611349577f4e487b7100000000000000000000000000000000000000000000000000000000600052603260045260246000fd5b9060005260206000200154111561136257809150611372565b60018161136f9190611b2d565b92505b506112f9565b6000821180156113d6575083856001846113929190611bb4565b815481106113c9577f4e487b7100000000000000000000000000000000000000000000000000000000600052603260045260246000fd5b9060005260206000200154145b156113f1576001826113e89190611bb4565b925050506113f7565b81925050505b92915050565b6001816000016000828254019250508190555050565b611463600560008373ffffffffffffffffffffffffffffffffffffffff1673ffffffffffffffffffffffffffffffffffffffff16815260200190815260200160002061145e8361065d565b6114e1565b50565b611478600661147361041f565b6114e1565b565b60006002808361148a9190611ca2565b6002856114979190611ca2565b6114a19190611b2d565b6114ab9190611b83565b6002836114b89190611b83565b6002856114c59190611b83565b6114cf9190611b2d565b6114d99190611b2d565b905092915050565b60006114ed600861091f565b9050806114fc8460000161155e565b10156115595782600001819080600181540180825580915050600190039060005260206000200160009091909190915055826001018290806001815401808255809150506001900390600052602060002001600090919091909150555b505050565b6000808280549050141561157557600090506115cc565b81600183805490506115879190611bb4565b815481106115be577f4e487b7100000000000000000000000000000000000000000000000000000000600052603260045260246000fd5b906000526020600020015490505b919050565b6000813590506115e0816120b3565b92915050565b6000813590506115f5816120ca565b92915050565b60006020828403121561160d57600080fd5b600061161b848285016115d1565b91505092915050565b6000806040838503121561163757600080fd5b6000611645858286016115d1565b9250506020611656858286016115d1565b9150509250929050565b60008060006060848603121561167557600080fd5b6000611683868287016115d1565b9350506020611694868287016115d1565b92505060406116a5868287016115e6565b9150509250925092565b600080604083850312156116c257600080fd5b60006116d0858286016115d1565b92505060206116e1858286016115e6565b9150509250929050565b6000602082840312156116fd57600080fd5b600061170b848285016115e6565b91505092915050565b61171d81611bfa565b82525050565b600061172e82611b11565b6117388185611b1c565b9350611748818560208601611c3d565b61175181611d60565b840191505092915050565b6000611769601d83611b1c565b915061177482611d71565b602082019050919050565b600061178c602383611b1c565b915061179782611d9a565b604082019050919050565b60006117af602283611b1c565b91506117ba82611de9565b604082019050919050565b60006117d2602283611b1c565b91506117dd82611e38565b604082019050919050565b60006117f5602683611b1c565b915061180082611e87565b604082019050919050565b6000611818602883611b1c565b915061182382611ed6565b604082019050919050565b600061183b602183611b1c565b915061184682611f25565b604082019050919050565b600061185e602583611b1c565b915061186982611f74565b604082019050919050565b6000611881602483611b1c565b915061188c82611fc3565b604082019050919050565b60006118a4601683611b1c565b91506118af82612012565b602082019050919050565b60006118c7602583611b1c565b91506118d28261203b565b604082019050919050565b60006118ea601f83611b1c565b91506118f58261208a565b602082019050919050565b61190981611c26565b82525050565b61191881611c30565b82525050565b60006020820190506119336000830184611714565b92915050565b600060208201905081810360008301526119538184611723565b905092915050565b600060208201905081810360008301526119748161175c565b9050919050565b600060208201905081810360008301526119948161177f565b9050919050565b600060208201905081810360008301526119b4816117a2565b9050919050565b600060208201905081810360008301526119d4816117c5565b9050919050565b600060208201905081810360008301526119f4816117e8565b9050919050565b60006020820190508181036000830152611a148161180b565b9050919050565b60006020820190508181036000830152611a348161182e565b9050919050565b60006020820190508181036000830152611a5481611851565b9050919050565b60006020820190508181036000830152611a7481611874565b9050919050565b60006020820190508181036000830152611a9481611897565b9050919050565b60006020820190508181036000830152611ab4816118ba565b9050919050565b60006020820190508181036000830152611ad4816118dd565b9050919050565b6000602082019050611af06000830184611900565b92915050565b6000602082019050611b0b600083018461190f565b92915050565b600081519050919050565b600082825260208201905092915050565b6000611b3882611c26565b9150611b4383611c26565b9250827fffffffffffffffffffffffffffffffffffffffffffffffffffffffffffffffff03821115611b7857611b77611cd3565b5b828201905092915050565b6000611b8e82611c26565b9150611b9983611c26565b925082611ba957611ba8611d02565b5b828204905092915050565b6000611bbf82611c26565b9150611bca83611c26565b925082821015611bdd57611bdc611cd3565b5b828203905092915050565b6000611bf382611c06565b9050919050565b60008115159050919050565b600073ffffffffffffffffffffffffffffffffffffffff82169050919050565b6000819050919050565b600060ff82169050919050565b60005b83811015611c5b578082015181840152602081019050611c40565b83811115611c6a576000848401525b50505050565b60006002820490506001821680611c8857607f821691505b60208210811415611c9c57611c9b611d31565b5b50919050565b6000611cad82611c26565b9150611cb883611c26565b925082611cc857611cc7611d02565b5b828206905092915050565b7f4e487b7100000000000000000000000000000000000000000000000000000000600052601160045260246000fd5b7f4e487b7100000000000000000000000000000000000000000000000000000000600052601260045260246000fd5b7f4e487b7100000000000000000000000000000000000000000000000000000000600052602260045260246000fd5b6000601f19601f8301169050919050565b7f4552433230536e617073686f743a206e6f6e6578697374656e74206964000000600082015250565b7f45524332303a207472616e7366657220746f20746865207a65726f206164647260008201527f6573730000000000000000000000000000000000000000000000000000000000602082015250565b7f45524332303a206275726e20616d6f756e7420657863656564732062616c616e60008201527f6365000000000000000000000000000000000000000000000000000000000000602082015250565b7f45524332303a20617070726f766520746f20746865207a65726f20616464726560008201527f7373000000000000000000000000000000000000000000000000000000000000602082015250565b7f45524332303a207472616e7366657220616d6f756e742065786365656473206260008201527f616c616e63650000000000000000000000000000000000000000000000000000602082015250565b7f45524332303a207472616e7366657220616d6f756e742065786365656473206160008201527f6c6c6f77616e6365000000000000000000000000000000000000000000000000602082015250565b7f45524332303a206275726e2066726f6d20746865207a65726f2061646472657360008201527f7300000000000000000000000000000000000000000000000000000000000000602082015250565b7f45524332303a207472616e736665722066726f6d20746865207a65726f20616460008201527f6472657373000000000000000000000000000000000000000000000000000000602082015250565b7f45524332303a20617070726f76652066726f6d20746865207a65726f2061646460008201527f7265737300000000000000000000000000000000000000000000000000000000602082015250565b7f4552433230536e617073686f743a206964206973203000000000000000000000600082015250565b7f45524332303a2064656372656173656420616c6c6f77616e63652062656c6f7760008201527f207a65726f000000000000000000000000000000000000000000000000000000602082015250565b7f45524332303a206d696e7420746f20746865207a65726f206164647265737300600082015250565b6120bc81611be8565b81146120c757600080fd5b50565b6120d381611c26565b81146120de57600080fd5b5056fea26469706673582212207bba87b6b3e4aee29f94c308fcfd2e2e69d704ae88fefe4a9adf1f3f2f678cbb64736f6c63430008040033",
  "linkReferences": {},
  "deployedLinkReferences": {}
}