{
  "_format": "hh-sol-artifact-1",
  "contractName": "SampleHuman",
  "sourceName": "contracts/src/OpenZeppelin/mocks/MultipleInheritanceInitializableMocks.sol",
  "abi": [
    {
      "inputs": [],
      "name": "initialize",
      "outputs": [],
      "stateMutability": "nonpayable",
      "type": "function"
    },
    {
      "inputs": [],
      "name": "isHuman",
      "outputs": [
        {
          "internalType": "bool",
          "name": "",
          "type": "bool"
        }
      ],
      "stateMutability": "view",
      "type": "function"
    }
  ],
  "bytecode": "0x608060405234801561001057600080fd5b506102ac806100206000396000f3fe608060405234801561001057600080fd5b50600436106100365760003560e01c80634a6c9db61461003b5780638129fc1c14610059575b600080fd5b610043610063565b60405161005091906101cf565b60405180910390f35b610061610076565b005b600060029054906101000a900460ff1681565b600060019054906101000a900460ff16806100955750610094610179565b5b806100ab575060008054906101000a900460ff16155b6100ea576040517f08c379a00000000000000000000000000000000000000000000000000000000081526004016100e1906101ea565b60405180910390fd5b60008060019054906101000a900460ff16159050801561013a576001600060016101000a81548160ff02191690831515021790555060016000806101000a81548160ff0219169083151502179055505b6001600060026101000a81548160ff02191690831515021790555080156101765760008060016101000a81548160ff0219169083151502179055505b50565b60006101843061018a565b15905090565b600080823b905060008111915050919050565b6101a68161021b565b82525050565b60006101b9602e8361020a565b91506101c482610227565b604082019050919050565b60006020820190506101e4600083018461019d565b92915050565b60006020820190508181036000830152610203816101ac565b9050919050565b600082825260208201905092915050565b60008115159050919050565b7f496e697469616c697a61626c653a20636f6e747261637420697320616c72656160008201527f647920696e697469616c697a656400000000000000000000000000000000000060208201525056fea2646970667358221220977d4cc2d0ed4957aa3c29bcb949d6349124ce465701922b7677e9c20e9820cd64736f6c63430008040033",
  "linkReferences": {},
  "deployedLinkReferences": {}
}