{
  "_format": "hh-sol-artifact-1",
  "contractName": "SampleFather",
  "sourceName": "contracts/src/OpenZeppelin/mocks/MultipleInheritanceInitializableMocks.sol",
  "abi": [
    {
      "inputs": [],
      "name": "father",
      "outputs": [
        {
          "internalType": "uint256",
          "name": "",
          "type": "uint256"
        }
      ],
      "stateMutability": "view",
      "type": "function"
    },
    {
      "inputs": [],
      "name": "gramps",
      "outputs": [
        {
          "internalType": "string",
          "name": "",
          "type": "string"
        }
      ],
      "stateMutability": "view",
      "type": "function"
    },
    {
      "inputs": [],
      "name": "initialize",
      "outputs": [],
      "stateMutability": "nonpayable",
      "type": "function"
    },
    {
      "inputs": [
        {
          "internalType": "string",
          "name": "_gramps",
          "type": "string"
        },
        {
          "internalType": "uint256",
          "name": "_father",
          "type": "uint256"
        }
      ],
      "name": "initialize",
      "outputs": [],
      "stateMutability": "nonpayable",
      "type": "function"
    },
    {
      "inputs": [
        {
          "internalType": "string",
          "name": "value",
          "type": "string"
        }
      ],
      "name": "initialize",
      "outputs": [],
      "stateMutability": "nonpayable",
      "type": "function"
    },
    {
      "inputs": [],
      "name": "isHuman",
      "outputs": [
        {
          "internalType": "bool",
          "name": "",
          "type": "bool"
        }
      ],
      "stateMutability": "view",
      "type": "function"
    }
  ],
  "bytecode": "0x608060405234801561001057600080fd5b506109b2806100206000396000f3fe608060405234801561001057600080fd5b50600436106100625760003560e01c80631c8aca3b146100675780634a6c9db6146100855780638129fc1c146100a35780638beaf7d7146100ad578063f62d1888146100c9578063fa39851f146100e5575b600080fd5b61006f610103565b60405161007c919061075f565b60405180910390f35b61008d610109565b60405161009a9190610702565b60405180910390f35b6100ab61011c565b005b6100c760048036038101906100c29190610634565b61021f565b005b6100e360048036038101906100de91906105f3565b610319565b005b6100ed610421565b6040516100fa919061071d565b60405180910390f35b60025481565b600060029054906101000a900460ff1681565b600060019054906101000a900460ff168061013b575061013a6104af565b5b80610151575060008054906101000a900460ff16155b610190576040517f08c379a00000000000000000000000000000000000000000000000000000000081526004016101879061073f565b60405180910390fd5b60008060019054906101000a900460ff1615905080156101e0576001600060016101000a81548160ff02191690831515021790555060016000806101000a81548160ff0219169083151502179055505b6001600060026101000a81548160ff021916908315150217905550801561021c5760008060016101000a81548160ff0219169083151502179055505b50565b600060019054906101000a900460ff168061023e575061023d6104af565b5b80610254575060008054906101000a900460ff16155b610293576040517f08c379a000000000000000000000000000000000000000000000000000000000815260040161028a9061073f565b60405180910390fd5b60008060019054906101000a900460ff1615905080156102e3576001600060016101000a81548160ff02191690831515021790555060016000806101000a81548160ff0219169083151502179055505b6102ec83610319565b8160028190555080156103145760008060016101000a81548160ff0219169083151502179055505b505050565b600060019054906101000a900460ff168061033857506103376104af565b5b8061034e575060008054906101000a900460ff16155b61038d576040517f08c379a00000000000000000000000000000000000000000000000000000000081526004016103849061073f565b60405180910390fd5b60008060019054906101000a900460ff1615905080156103dd576001600060016101000a81548160ff02191690831515021790555060016000806101000a81548160ff0219169083151502179055505b6103e561011c565b81600190805190602001906103fb9291906104d3565b50801561041d5760008060016101000a81548160ff0219169083151502179055505b5050565b6001805461042e90610844565b80601f016020809104026020016040519081016040528092919081815260200182805461045a90610844565b80156104a75780601f1061047c576101008083540402835291602001916104a7565b820191906000526020600020905b81548152906001019060200180831161048a57829003601f168201915b505050505081565b60006104ba306104c0565b15905090565b600080823b905060008111915050919050565b8280546104df90610844565b90600052602060002090601f0160209004810192826105015760008555610548565b82601f1061051a57805160ff1916838001178555610548565b82800160010185558215610548579182015b8281111561054757825182559160200191906001019061052c565b5b5090506105559190610559565b5090565b5b8082111561057257600081600090555060010161055a565b5090565b60006105896105848461079f565b61077a565b9050828152602081018484840111156105a157600080fd5b6105ac848285610802565b509392505050565b600082601f8301126105c557600080fd5b81356105d5848260208601610576565b91505092915050565b6000813590506105ed81610965565b92915050565b60006020828403121561060557600080fd5b600082013567ffffffffffffffff81111561061f57600080fd5b61062b848285016105b4565b91505092915050565b6000806040838503121561064757600080fd5b600083013567ffffffffffffffff81111561066157600080fd5b61066d858286016105b4565b925050602061067e858286016105de565b9150509250929050565b610691816107ec565b82525050565b60006106a2826107d0565b6106ac81856107db565b93506106bc818560208601610811565b6106c581610905565b840191505092915050565b60006106dd602e836107db565b91506106e882610916565b604082019050919050565b6106fc816107f8565b82525050565b60006020820190506107176000830184610688565b92915050565b600060208201905081810360008301526107378184610697565b905092915050565b60006020820190508181036000830152610758816106d0565b9050919050565b600060208201905061077460008301846106f3565b92915050565b6000610784610795565b90506107908282610876565b919050565b6000604051905090565b600067ffffffffffffffff8211156107ba576107b96108d6565b5b6107c382610905565b9050602081019050919050565b600081519050919050565b600082825260208201905092915050565b60008115159050919050565b6000819050919050565b82818337600083830152505050565b60005b8381101561082f578082015181840152602081019050610814565b8381111561083e576000848401525b50505050565b6000600282049050600182168061085c57607f821691505b602082108114156108705761086f6108a7565b5b50919050565b61087f82610905565b810181811067ffffffffffffffff8211171561089e5761089d6108d6565b5b80604052505050565b7f4e487b7100000000000000000000000000000000000000000000000000000000600052602260045260246000fd5b7f4e487b7100000000000000000000000000000000000000000000000000000000600052604160045260246000fd5b6000601f19601f8301169050919050565b7f496e697469616c697a61626c653a20636f6e747261637420697320616c72656160008201527f647920696e697469616c697a6564000000000000000000000000000000000000602082015250565b61096e816107f8565b811461097957600080fd5b5056fea26469706673582212204c8fe9c80acfeb4101155d2b8b6e4172aae48acec789a3ff4d842902b5f43c5f64736f6c63430008040033",
  "linkReferences": {},
  "deployedLinkReferences": {}
}