{
  "_format": "hh-sol-artifact-1",
  "contractName": "SampleMother",
  "sourceName": "contracts/src/OpenZeppelin/mocks/MultipleInheritanceInitializableMocks.sol",
  "abi": [
    {
      "inputs": [],
      "name": "initialize",
      "outputs": [],
      "stateMutability": "nonpayable",
      "type": "function"
    },
    {
      "inputs": [
        {
          "internalType": "uint256",
          "name": "value",
          "type": "uint256"
        }
      ],
      "name": "initialize",
      "outputs": [],
      "stateMutability": "nonpayable",
      "type": "function"
    },
    {
      "inputs": [],
      "name": "isHuman",
      "outputs": [
        {
          "internalType": "bool",
          "name": "",
          "type": "bool"
        }
      ],
      "stateMutability": "view",
      "type": "function"
    },
    {
      "inputs": [],
      "name": "mother",
      "outputs": [
        {
          "internalType": "uint256",
          "name": "",
          "type": "uint256"
        }
      ],
      "stateMutability": "view",
      "type": "function"
    }
  ],
  "bytecode": "0x608060405234801561001057600080fd5b50610483806100206000396000f3fe608060405234801561001057600080fd5b506004361061004c5760003560e01c80634a6c9db6146100515780638129fc1c1461006f578063ed7dfee314610079578063fe4b84df14610097575b600080fd5b6100596100b3565b604051610066919061036a565b60405180910390f35b6100776100c6565b005b6100816101c9565b60405161008e91906103a5565b60405180910390f35b6100b160048036038101906100ac9190610300565b6101cf565b005b600060029054906101000a900460ff1681565b600060019054906101000a900460ff16806100e557506100e46102c7565b5b806100fb575060008054906101000a900460ff16155b61013a576040517f08c379a000000000000000000000000000000000000000000000000000000000815260040161013190610385565b60405180910390fd5b60008060019054906101000a900460ff16159050801561018a576001600060016101000a81548160ff02191690831515021790555060016000806101000a81548160ff0219169083151502179055505b6001600060026101000a81548160ff02191690831515021790555080156101c65760008060016101000a81548160ff0219169083151502179055505b50565b60015481565b600060019054906101000a900460ff16806101ee57506101ed6102c7565b5b80610204575060008054906101000a900460ff16155b610243576040517f08c379a000000000000000000000000000000000000000000000000000000000815260040161023a90610385565b60405180910390fd5b60008060019054906101000a900460ff161590508015610293576001600060016101000a81548160ff02191690831515021790555060016000806101000a81548160ff0219169083151502179055505b61029b6100c6565b8160018190555080156102c35760008060016101000a81548160ff0219169083151502179055505b5050565b60006102d2306102d8565b15905090565b600080823b905060008111915050919050565b6000813590506102fa81610436565b92915050565b60006020828403121561031257600080fd5b6000610320848285016102eb565b91505092915050565b610332816103d1565b82525050565b6000610345602e836103c0565b9150610350826103e7565b604082019050919050565b610364816103dd565b82525050565b600060208201905061037f6000830184610329565b92915050565b6000602082019050818103600083015261039e81610338565b9050919050565b60006020820190506103ba600083018461035b565b92915050565b600082825260208201905092915050565b60008115159050919050565b6000819050919050565b7f496e697469616c697a61626c653a20636f6e747261637420697320616c72656160008201527f647920696e697469616c697a6564000000000000000000000000000000000000602082015250565b61043f816103dd565b811461044a57600080fd5b5056fea2646970667358221220e8b869ce272d1e16df1f173f0a31e2a367a92bad61c08e6419ec3dad44dbd8cf64736f6c63430008040033",
  "linkReferences": {},
  "deployedLinkReferences": {}
}