{
  "_format": "hh-sol-artifact-1",
  "contractName": "IndexERC721",
  "sourceName": "contracts/src/IndexERC721.sol",
  "abi": [
    {
      "inputs": [],
      "stateMutability": "nonpayable",
      "type": "constructor"
    },
    {
      "anonymous": false,
      "inputs": [
        {
          "indexed": true,
          "internalType": "address",
          "name": "owner",
          "type": "address"
        },
        {
          "indexed": true,
          "internalType": "address",
          "name": "approved",
          "type": "address"
        },
        {
          "indexed": true,
          "internalType": "uint256",
          "name": "tokenId",
          "type": "uint256"
        }
      ],
      "name": "Approval",
      "type": "event"
    },
    {
      "anonymous": false,
      "inputs": [
        {
          "indexed": true,
          "internalType": "address",
          "name": "owner",
          "type": "address"
        },
        {
          "indexed": true,
          "internalType": "address",
          "name": "operator",
          "type": "address"
        },
        {
          "indexed": false,
          "internalType": "bool",
          "name": "approved",
          "type": "bool"
        }
      ],
      "name": "ApprovalForAll",
      "type": "event"
    },
    {
      "anonymous": false,
      "inputs": [
        {
          "indexed": true,
          "internalType": "address",
          "name": "token",
          "type": "address"
        },
        {
          "indexed": false,
          "internalType": "uint256",
          "name": "tokenId",
          "type": "uint256"
        },
        {
          "indexed": true,
          "internalType": "address",
          "name": "from",
          "type": "address"
        }
      ],
      "name": "Deposit",
      "type": "event"
    },
    {
      "anonymous": false,
      "inputs": [
        {
          "indexed": true,
          "internalType": "address",
          "name": "from",
          "type": "address"
        },
        {
          "indexed": true,
          "internalType": "address",
          "name": "to",
          "type": "address"
        },
        {
          "indexed": true,
          "internalType": "uint256",
          "name": "tokenId",
          "type": "uint256"
        }
      ],
      "name": "Transfer",
      "type": "event"
    },
    {
      "anonymous": false,
      "inputs": [
        {
          "indexed": true,
          "internalType": "address",
          "name": "token",
          "type": "address"
        },
        {
          "indexed": false,
          "internalType": "uint256",
          "name": "tokenId",
          "type": "uint256"
        },
        {
          "indexed": true,
          "internalType": "address",
          "name": "to",
          "type": "address"
        }
      ],
      "name": "Withdraw",
      "type": "event"
    },
    {
      "anonymous": false,
      "inputs": [
        {
          "indexed": true,
          "internalType": "address",
          "name": "token",
          "type": "address"
        },
        {
          "indexed": true,
          "internalType": "address",
          "name": "who",
          "type": "address"
        }
      ],
      "name": "WithdrawERC20",
      "type": "event"
    },
    {
      "anonymous": false,
      "inputs": [
        {
          "indexed": true,
          "internalType": "address",
          "name": "who",
          "type": "address"
        }
      ],
      "name": "WithdrawETH",
      "type": "event"
    },
    {
      "inputs": [
        {
          "internalType": "address",
          "name": "to",
          "type": "address"
        },
        {
          "internalType": "uint256",
          "name": "tokenId",
          "type": "uint256"
        }
      ],
      "name": "approve",
      "outputs": [],
      "stateMutability": "nonpayable",
      "type": "function"
    },
    {
      "inputs": [
        {
          "internalType": "address",
          "name": "owner",
          "type": "address"
        }
      ],
      "name": "balanceOf",
      "outputs": [
        {
          "internalType": "uint256",
          "name": "",
          "type": "uint256"
        }
      ],
      "stateMutability": "view",
      "type": "function"
    },
    {
      "inputs": [],
      "name": "baseURI",
      "outputs": [
        {
          "internalType": "string",
          "name": "",
          "type": "string"
        }
      ],
      "stateMutability": "view",
      "type": "function"
    },
    {
      "inputs": [
        {
          "internalType": "address",
          "name": "_token",
          "type": "address"
        },
        {
          "internalType": "uint256",
          "name": "_tokenId",
          "type": "uint256"
        }
      ],
      "name": "depositERC721",
      "outputs": [],
      "stateMutability": "nonpayable",
      "type": "function"
    },
    {
      "inputs": [
        {
          "internalType": "uint256",
          "name": "tokenId",
          "type": "uint256"
        }
      ],
      "name": "getApproved",
      "outputs": [
        {
          "internalType": "address",
          "name": "",
          "type": "address"
        }
      ],
      "stateMutability": "view",
      "type": "function"
    },
    {
      "inputs": [
        {
          "internalType": "address",
          "name": "owner",
          "type": "address"
        },
        {
          "internalType": "address",
          "name": "operator",
          "type": "address"
        }
      ],
      "name": "isApprovedForAll",
      "outputs": [
        {
          "internalType": "bool",
          "name": "",
          "type": "bool"
        }
      ],
      "stateMutability": "view",
      "type": "function"
    },
    {
      "inputs": [],
      "name": "name",
      "outputs": [
        {
          "internalType": "string",
          "name": "",
          "type": "string"
        }
      ],
      "stateMutability": "view",
      "type": "function"
    },
    {
      "inputs": [
        {
          "internalType": "address",
          "name": "",
          "type": "address"
        },
        {
          "internalType": "address",
          "name": "",
          "type": "address"
        },
        {
          "internalType": "uint256",
          "name": "",
          "type": "uint256"
        },
        {
          "internalType": "bytes",
          "name": "",
          "type": "bytes"
        }
      ],
      "name": "onERC721Received",
      "outputs": [
        {
          "internalType": "bytes4",
          "name": "",
          "type": "bytes4"
        }
      ],
      "stateMutability": "nonpayable",
      "type": "function"
    },
    {
      "inputs": [
        {
          "internalType": "uint256",
          "name": "tokenId",
          "type": "uint256"
        }
      ],
      "name": "ownerOf",
      "outputs": [
        {
          "internalType": "address",
          "name": "",
          "type": "address"
        }
      ],
      "stateMutability": "view",
      "type": "function"
    },
    {
      "inputs": [
        {
          "internalType": "address",
          "name": "from",
          "type": "address"
        },
        {
          "internalType": "address",
          "name": "to",
          "type": "address"
        },
        {
          "internalType": "uint256",
          "name": "tokenId",
          "type": "uint256"
        }
      ],
      "name": "safeTransferFrom",
      "outputs": [],
      "stateMutability": "nonpayable",
      "type": "function"
    },
    {
      "inputs": [
        {
          "internalType": "address",
          "name": "from",
          "type": "address"
        },
        {
          "internalType": "address",
          "name": "to",
          "type": "address"
        },
        {
          "internalType": "uint256",
          "name": "tokenId",
          "type": "uint256"
        },
        {
          "internalType": "bytes",
          "name": "_data",
          "type": "bytes"
        }
      ],
      "name": "safeTransferFrom",
      "outputs": [],
      "stateMutability": "nonpayable",
      "type": "function"
    },
    {
      "inputs": [
        {
          "internalType": "address",
          "name": "operator",
          "type": "address"
        },
        {
          "internalType": "bool",
          "name": "approved",
          "type": "bool"
        }
      ],
      "name": "setApprovalForAll",
      "outputs": [],
      "stateMutability": "nonpayable",
      "type": "function"
    },
    {
      "inputs": [
        {
          "internalType": "bytes4",
          "name": "interfaceId",
          "type": "bytes4"
        }
      ],
      "name": "supportsInterface",
      "outputs": [
        {
          "internalType": "bool",
          "name": "",
          "type": "bool"
        }
      ],
      "stateMutability": "view",
      "type": "function"
    },
    {
      "inputs": [],
      "name": "symbol",
      "outputs": [
        {
          "internalType": "string",
          "name": "",
          "type": "string"
        }
      ],
      "stateMutability": "view",
      "type": "function"
    },
    {
      "inputs": [
        {
          "internalType": "uint256",
          "name": "index",
          "type": "uint256"
        }
      ],
      "name": "tokenByIndex",
      "outputs": [
        {
          "internalType": "uint256",
          "name": "",
          "type": "uint256"
        }
      ],
      "stateMutability": "view",
      "type": "function"
    },
    {
      "inputs": [
        {
          "internalType": "address",
          "name": "owner",
          "type": "address"
        },
        {
          "internalType": "uint256",
          "name": "index",
          "type": "uint256"
        }
      ],
      "name": "tokenOfOwnerByIndex",
      "outputs": [
        {
          "internalType": "uint256",
          "name": "",
          "type": "uint256"
        }
      ],
      "stateMutability": "view",
      "type": "function"
    },
    {
      "inputs": [
        {
          "internalType": "uint256",
          "name": "tokenId",
          "type": "uint256"
        }
      ],
      "name": "tokenURI",
      "outputs": [
        {
          "internalType": "string",
          "name": "",
          "type": "string"
        }
      ],
      "stateMutability": "view",
      "type": "function"
    },
    {
      "inputs": [],
      "name": "totalSupply",
      "outputs": [
        {
          "internalType": "uint256",
          "name": "",
          "type": "uint256"
        }
      ],
      "stateMutability": "view",
      "type": "function"
    },
    {
      "inputs": [
        {
          "internalType": "address",
          "name": "from",
          "type": "address"
        },
        {
          "internalType": "address",
          "name": "to",
          "type": "address"
        },
        {
          "internalType": "uint256",
          "name": "tokenId",
          "type": "uint256"
        }
      ],
      "name": "transferFrom",
      "outputs": [],
      "stateMutability": "nonpayable",
      "type": "function"
    },
    {
      "inputs": [
        {
          "internalType": "address",
          "name": "_token",
          "type": "address"
        }
      ],
      "name": "withdrawERC20",
      "outputs": [],
      "stateMutability": "nonpayable",
      "type": "function"
    },
    {
      "inputs": [
        {
          "internalType": "address",
          "name": "_token",
          "type": "address"
        },
        {
          "internalType": "uint256",
          "name": "_tokenId",
          "type": "uint256"
        }
      ],
      "name": "withdrawERC721",
      "outputs": [],
      "stateMutability": "nonpayable",
      "type": "function"
    },
    {
      "inputs": [],
      "name": "withdrawETH",
      "outputs": [],
      "stateMutability": "nonpayable",
      "type": "function"
    },
    {
      "stateMutability": "payable",
      "type": "receive"
    }
  ],
  "bytecode": "0x60806040523480156200001157600080fd5b506040518060400160405280600a81526020017f4e4654204261736b6574000000000000000000000000000000000000000000008152506040518060400160405280600481526020017f4e46544200000000000000000000000000000000000000000000000000000000815250620000af7f01ffc9a7000000000000000000000000000000000000000000000000000000006200018f60201b60201c565b8160069080519060200190620000c79291906200069a565b508060079080519060200190620000e09291906200069a565b50620001127f80ac58cd000000000000000000000000000000000000000000000000000000006200018f60201b60201c565b620001437f5b5e139f000000000000000000000000000000000000000000000000000000006200018f60201b60201c565b620001747f780e9d63000000000000000000000000000000000000000000000000000000006200018f60201b60201c565b5050620001893360006200026760201b60201c565b6200098a565b63ffffffff60e01b817bffffffffffffffffffffffffffffffffffffffffffffffffffffffff19161415620001fb576040517f08c379a0000000000000000000000000000000000000000000000000000000008152600401620001f290620007bf565b60405180910390fd5b6001600080837bffffffffffffffffffffffffffffffffffffffffffffffffffffffff19167bffffffffffffffffffffffffffffffffffffffffffffffffffffffff1916815260200190815260200160002060006101000a81548160ff02191690831515021790555050565b600073ffffffffffffffffffffffffffffffffffffffff168273ffffffffffffffffffffffffffffffffffffffff161415620002da576040517f08c379a0000000000000000000000000000000000000000000000000000000008152600401620002d19062000803565b60405180910390fd5b620002eb816200041960201b60201c565b156200032e576040517f08c379a00000000000000000000000000000000000000000000000000000000081526004016200032590620007e1565b60405180910390fd5b62000342600083836200043d60201b60201c565b6200039a81600160008573ffffffffffffffffffffffffffffffffffffffff1673ffffffffffffffffffffffffffffffffffffffff1681526020019081526020016000206200044260201b6200142e1790919060201c565b50620003b8818360026200046460201b62001448179092919060201c565b50808273ffffffffffffffffffffffffffffffffffffffff16600073ffffffffffffffffffffffffffffffffffffffff167fddf252ad1be2c89b69c2b068fc378daa952ba7f163c4a11628f55a4df523b3ef60405160405180910390a45050565b600062000436826002620004a160201b6200147d1790919060201c565b9050919050565b505050565b60006200045c836000018360001b620004c360201b60201c565b905092915050565b600062000498846000018460001b8473ffffffffffffffffffffffffffffffffffffffff1660001b6200053d60201b60201c565b90509392505050565b6000620004bb836000018360001b6200065460201b60201c565b905092915050565b6000620004d783836200067760201b60201c565b6200053257826000018290806001815401808255809150506001900390600052602060002001600090919091909150558260000180549050836001016000848152602001908152602001600020819055506001905062000537565b600090505b92915050565b6000808460010160008581526020019081526020016000205490506000811415620005e6578460000160405180604001604052808681526020018581525090806001815401808255809150506001900390600052602060002090600202016000909190919091506000820151816000015560208201518160010155505084600001805490508560010160008681526020019081526020016000208190555060019150506200064d565b8285600001600183620005fa919062000836565b8154811062000632577f4e487b7100000000000000000000000000000000000000000000000000000000600052603260045260246000fd5b90600052602060002090600202016001018190555060009150505b9392505050565b600080836001016000848152602001908152602001600020541415905092915050565b600080836001016000848152602001908152602001600020541415905092915050565b828054620006a8906200087b565b90600052602060002090601f016020900481019282620006cc576000855562000718565b82601f10620006e757805160ff191683800117855562000718565b8280016001018555821562000718579182015b8281111562000717578251825591602001919060010190620006fa565b5b5090506200072791906200072b565b5090565b5b80821115620007465760008160009055506001016200072c565b5090565b600062000759601c8362000825565b915062000766826200090f565b602082019050919050565b600062000780601c8362000825565b91506200078d8262000938565b602082019050919050565b6000620007a760208362000825565b9150620007b48262000961565b602082019050919050565b60006020820190508181036000830152620007da816200074a565b9050919050565b60006020820190508181036000830152620007fc8162000771565b9050919050565b600060208201905081810360008301526200081e8162000798565b9050919050565b600082825260208201905092915050565b6000620008438262000871565b9150620008508362000871565b925082821015620008665762000865620008b1565b5b828203905092915050565b6000819050919050565b600060028204905060018216806200089457607f821691505b60208210811415620008ab57620008aa620008e0565b5b50919050565b7f4e487b7100000000000000000000000000000000000000000000000000000000600052601160045260246000fd5b7f4e487b7100000000000000000000000000000000000000000000000000000000600052602260045260246000fd5b7f4552433136353a20696e76616c696420696e7465726661636520696400000000600082015250565b7f4552433732313a20746f6b656e20616c7265616479206d696e74656400000000600082015250565b7f4552433732313a206d696e7420746f20746865207a65726f2061646472657373600082015250565b613487806200099a6000396000f3fe6080604052600436106101395760003560e01c80636c0360eb116100ab578063c87b56dd1161006f578063c87b56dd14610469578063d29a4bf6146104a6578063e086e5ec146104cf578063e985e9c5146104e6578063f3e414f814610523578063f4f3b2001461054c57610140565b80636c0360eb1461038457806370a08231146103af57806395d89b41146103ec578063a22cb46514610417578063b88d4fde1461044057610140565b806318160ddd116100fd57806318160ddd1461025057806323b872dd1461027b5780632f745c59146102a457806342842e0e146102e15780634f6ccce71461030a5780636352211e1461034757610140565b806301ffc9a71461014557806306fdde0314610182578063081812fc146101ad578063095ea7b3146101ea578063150b7a021461021357610140565b3661014057005b600080fd5b34801561015157600080fd5b5061016c6004803603810190610167919061251b565b610575565b6040516101799190612996565b60405180910390f35b34801561018e57600080fd5b506101976105dc565b6040516101a491906129cc565b60405180910390f35b3480156101b957600080fd5b506101d460048036038101906101cf919061256d565b61066e565b6040516101e191906128cf565b60405180910390f35b3480156101f657600080fd5b50610211600480360381019061020c91906124b6565b6106f3565b005b34801561021f57600080fd5b5061023a600480360381019061023591906123ff565b61080b565b60405161024791906129b1565b60405180910390f35b34801561025c57600080fd5b5061026561081f565b6040516102729190612bce565b60405180910390f35b34801561028757600080fd5b506102a2600480360381019061029d91906123b0565b610830565b005b3480156102b057600080fd5b506102cb60048036038101906102c691906124b6565b610890565b6040516102d89190612bce565b60405180910390f35b3480156102ed57600080fd5b50610308600480360381019061030391906123b0565b6108eb565b005b34801561031657600080fd5b50610331600480360381019061032c919061256d565b61090b565b60405161033e9190612bce565b60405180910390f35b34801561035357600080fd5b5061036e6004803603810190610369919061256d565b61092e565b60405161037b91906128cf565b60405180910390f35b34801561039057600080fd5b50610399610965565b6040516103a691906129cc565b60405180910390f35b3480156103bb57600080fd5b506103d660048036038101906103d1919061234b565b6109f7565b6040516103e39190612bce565b60405180910390f35b3480156103f857600080fd5b50610401610ab6565b60405161040e91906129cc565b60405180910390f35b34801561042357600080fd5b5061043e6004803603810190610439919061247a565b610b48565b005b34801561044c57600080fd5b50610467600480360381019061046291906123ff565b610cc9565b005b34801561047557600080fd5b50610490600480360381019061048b919061256d565b610d2b565b60405161049d91906129cc565b60405180910390f35b3480156104b257600080fd5b506104cd60048036038101906104c891906124b6565b610e9e565b005b3480156104db57600080fd5b506104e4610fe5565b005b3480156104f257600080fd5b5061050d60048036038101906105089190612374565b6110bb565b60405161051a9190612996565b60405180910390f35b34801561052f57600080fd5b5061054a600480360381019061054591906124b6565b61114f565b005b34801561055857600080fd5b50610573600480360381019061056e919061234b565b611271565b005b6000806000837bffffffffffffffffffffffffffffffffffffffffffffffffffffffff19167bffffffffffffffffffffffffffffffffffffffffffffffffffffffff1916815260200190815260200160002060009054906101000a900460ff169050919050565b6060600680546105eb90612df3565b80601f016020809104026020016040519081016040528092919081815260200182805461061790612df3565b80156106645780601f1061063957610100808354040283529160200191610664565b820191906000526020600020905b81548152906001019060200180831161064757829003601f168201915b5050505050905090565b600061067982611497565b6106b8576040517f08c379a00000000000000000000000000000000000000000000000000000000081526004016106af90612b0e565b60405180910390fd5b6004600083815260200190815260200160002060009054906101000a900473ffffffffffffffffffffffffffffffffffffffff169050919050565b60006106fe8261092e565b90508073ffffffffffffffffffffffffffffffffffffffff168373ffffffffffffffffffffffffffffffffffffffff16141561076f576040517f08c379a000000000000000000000000000000000000000000000000000000000815260040161076690612b6e565b60405180910390fd5b8073ffffffffffffffffffffffffffffffffffffffff1661078e6114b4565b73ffffffffffffffffffffffffffffffffffffffff1614806107bd57506107bc816107b76114b4565b6110bb565b5b6107fc576040517f08c379a00000000000000000000000000000000000000000000000000000000081526004016107f390612a8e565b60405180910390fd5b61080683836114bc565b505050565b600063150b7a0260e01b9050949350505050565b600061082b6002611575565b905090565b61084161083b6114b4565b8261158a565b610880576040517f08c379a000000000000000000000000000000000000000000000000000000000815260040161087790612b8e565b60405180910390fd5b61088b838383611668565b505050565b60006108e382600160008673ffffffffffffffffffffffffffffffffffffffff1673ffffffffffffffffffffffffffffffffffffffff16815260200190815260200160002061187f90919063ffffffff16565b905092915050565b61090683838360405180602001604052806000815250610cc9565b505050565b60008061092283600261189990919063ffffffff16565b50905080915050919050565b600061095e826040518060600160405280602981526020016134296029913960026118c59092919063ffffffff16565b9050919050565b60606009805461097490612df3565b80601f01602080910402602001604051908101604052809291908181526020018280546109a090612df3565b80156109ed5780601f106109c2576101008083540402835291602001916109ed565b820191906000526020600020905b8154815290600101906020018083116109d057829003601f168201915b5050505050905090565b60008073ffffffffffffffffffffffffffffffffffffffff168273ffffffffffffffffffffffffffffffffffffffff161415610a68576040517f08c379a0000000000000000000000000000000000000000000000000000000008152600401610a5f90612aae565b60405180910390fd5b610aaf600160008473ffffffffffffffffffffffffffffffffffffffff1673ffffffffffffffffffffffffffffffffffffffff1681526020019081526020016000206118e4565b9050919050565b606060078054610ac590612df3565b80601f0160208091040260200160405190810160405280929190818152602001828054610af190612df3565b8015610b3e5780601f10610b1357610100808354040283529160200191610b3e565b820191906000526020600020905b815481529060010190602001808311610b2157829003601f168201915b5050505050905090565b610b506114b4565b73ffffffffffffffffffffffffffffffffffffffff168273ffffffffffffffffffffffffffffffffffffffff161415610bbe576040517f08c379a0000000000000000000000000000000000000000000000000000000008152600401610bb590612a4e565b60405180910390fd5b8060056000610bcb6114b4565b73ffffffffffffffffffffffffffffffffffffffff1673ffffffffffffffffffffffffffffffffffffffff16815260200190815260200160002060008473ffffffffffffffffffffffffffffffffffffffff1673ffffffffffffffffffffffffffffffffffffffff16815260200190815260200160002060006101000a81548160ff0219169083151502179055508173ffffffffffffffffffffffffffffffffffffffff16610c786114b4565b73ffffffffffffffffffffffffffffffffffffffff167f17307eab39ab6107e8899845ad3d59bd9653f200f220920489ca2b5937696c3183604051610cbd9190612996565b60405180910390a35050565b610cda610cd46114b4565b8361158a565b610d19576040517f08c379a0000000000000000000000000000000000000000000000000000000008152600401610d1090612b8e565b60405180910390fd5b610d25848484846118f9565b50505050565b6060610d3682611497565b610d75576040517f08c379a0000000000000000000000000000000000000000000000000000000008152600401610d6c90612b4e565b60405180910390fd5b6000600860008481526020019081526020016000208054610d9590612df3565b80601f0160208091040260200160405190810160405280929190818152602001828054610dc190612df3565b8015610e0e5780601f10610de357610100808354040283529160200191610e0e565b820191906000526020600020905b815481529060010190602001808311610df157829003601f168201915b505050505090506000610e1f610965565b9050600081511415610e35578192505050610e99565b600082511115610e6a578082604051602001610e529291906128ab565b60405160208183030381529060405292505050610e99565b80610e7485611955565b604051602001610e859291906128ab565b604051602081830303815290604052925050505b919050565b3073ffffffffffffffffffffffffffffffffffffffff168273ffffffffffffffffffffffffffffffffffffffff161415610f0d576040517f08c379a0000000000000000000000000000000000000000000000000000000008152600401610f0490612ace565b60405180910390fd5b8173ffffffffffffffffffffffffffffffffffffffff166342842e0e3330846040518463ffffffff1660e01b8152600401610f4a939291906128ea565b600060405180830381600087803b158015610f6457600080fd5b505af1158015610f78573d6000803e3d6000fd5b505050503373ffffffffffffffffffffffffffffffffffffffff168273ffffffffffffffffffffffffffffffffffffffff167fe31c7b8d08ee7db0afa68782e1028ef92305caeea8626633ad44d413e30f6b2f83604051610fd99190612bce565b60405180910390a35050565b610ff033600061158a565b61102f576040517f08c379a000000000000000000000000000000000000000000000000000000000815260040161102690612bae565b60405180910390fd5b3373ffffffffffffffffffffffffffffffffffffffff166108fc479081150290604051600060405180830381858888f19350505050158015611075573d6000803e3d6000fd5b503373ffffffffffffffffffffffffffffffffffffffff167ff6c62f95390a4a6ee24f778d79a6ce6e34dd01136e291fb3b7ff0fc1919540a260405160405180910390a2565b6000600560008473ffffffffffffffffffffffffffffffffffffffff1673ffffffffffffffffffffffffffffffffffffffff16815260200190815260200160002060008373ffffffffffffffffffffffffffffffffffffffff1673ffffffffffffffffffffffffffffffffffffffff16815260200190815260200160002060009054906101000a900460ff16905092915050565b61115a33600061158a565b611199576040517f08c379a000000000000000000000000000000000000000000000000000000000815260040161119090612bae565b60405180910390fd5b8173ffffffffffffffffffffffffffffffffffffffff166342842e0e3033846040518463ffffffff1660e01b81526004016111d6939291906128ea565b600060405180830381600087803b1580156111f057600080fd5b505af1158015611204573d6000803e3d6000fd5b505050503373ffffffffffffffffffffffffffffffffffffffff168273ffffffffffffffffffffffffffffffffffffffff167f56c54ba9bd38d8fd62012e42c7ee564519b09763c426d331b3661b537ead19b2836040516112659190612bce565b60405180910390a35050565b61127c33600061158a565b6112bb576040517f08c379a00000000000000000000000000000000000000000000000000000000081526004016112b290612bae565b60405180910390fd5b8073ffffffffffffffffffffffffffffffffffffffff1663a9059cbb338373ffffffffffffffffffffffffffffffffffffffff166370a08231306040518263ffffffff1660e01b815260040161131191906128cf565b60206040518083038186803b15801561132957600080fd5b505afa15801561133d573d6000803e3d6000fd5b505050506040513d601f19601f820116820180604052508101906113619190612596565b6040518363ffffffff1660e01b815260040161137e92919061296d565b602060405180830381600087803b15801561139857600080fd5b505af11580156113ac573d6000803e3d6000fd5b505050506040513d601f19601f820116820180604052508101906113d091906124f2565b503373ffffffffffffffffffffffffffffffffffffffff168173ffffffffffffffffffffffffffffffffffffffff167fa44616ec07d22ce15ebd7a567b7c16dd91a89f056f5e14f8ef7a6aa40a89b9b260405160405180910390a350565b6000611440836000018360001b611b02565b905092915050565b6000611474846000018460001b8473ffffffffffffffffffffffffffffffffffffffff1660001b611b72565b90509392505050565b600061148f836000018360001b611c84565b905092915050565b60006114ad82600261147d90919063ffffffff16565b9050919050565b600033905090565b816004600083815260200190815260200160002060006101000a81548173ffffffffffffffffffffffffffffffffffffffff021916908373ffffffffffffffffffffffffffffffffffffffff160217905550808273ffffffffffffffffffffffffffffffffffffffff1661152f8361092e565b73ffffffffffffffffffffffffffffffffffffffff167f8c5be1e5ebec7d5bd14f71427d1e84f3dd0314c0f7b2291e5b200ac8c7c3b92560405160405180910390a45050565b600061158382600001611ca7565b9050919050565b600061159582611497565b6115d4576040517f08c379a00000000000000000000000000000000000000000000000000000000081526004016115cb90612a6e565b60405180910390fd5b60006115df8361092e565b90508073ffffffffffffffffffffffffffffffffffffffff168473ffffffffffffffffffffffffffffffffffffffff16148061164e57508373ffffffffffffffffffffffffffffffffffffffff166116368461066e565b73ffffffffffffffffffffffffffffffffffffffff16145b8061165f575061165e81856110bb565b5b91505092915050565b8273ffffffffffffffffffffffffffffffffffffffff166116888261092e565b73ffffffffffffffffffffffffffffffffffffffff16146116de576040517f08c379a00000000000000000000000000000000000000000000000000000000081526004016116d590612b2e565b60405180910390fd5b600073ffffffffffffffffffffffffffffffffffffffff168273ffffffffffffffffffffffffffffffffffffffff16141561174e576040517f08c379a000000000000000000000000000000000000000000000000000000000815260040161174590612a2e565b60405180910390fd5b611759838383611cb8565b6117646000826114bc565b6117b581600160008673ffffffffffffffffffffffffffffffffffffffff1673ffffffffffffffffffffffffffffffffffffffff168152602001908152602001600020611cbd90919063ffffffff16565b5061180781600160008573ffffffffffffffffffffffffffffffffffffffff1673ffffffffffffffffffffffffffffffffffffffff16815260200190815260200160002061142e90919063ffffffff16565b5061181e818360026114489092919063ffffffff16565b50808273ffffffffffffffffffffffffffffffffffffffff168473ffffffffffffffffffffffffffffffffffffffff167fddf252ad1be2c89b69c2b068fc378daa952ba7f163c4a11628f55a4df523b3ef60405160405180910390a4505050565b600061188e8360000183611cd7565b60001c905092915050565b6000806000806118ac8660000186611d71565b915091508160001c8160001c9350935050509250929050565b60006118d8846000018460001b84611e21565b60001c90509392505050565b60006118f282600001611ee8565b9050919050565b611904848484611668565b61191084848484611ef9565b61194f576040517f08c379a000000000000000000000000000000000000000000000000000000000815260040161194690612a0e565b60405180910390fd5b50505050565b6060600082141561199d576040518060400160405280600181526020017f30000000000000000000000000000000000000000000000000000000000000008152509050611afd565b600082905060005b600082146119cf5780806119b890612e56565b915050600a826119c89190612cd8565b91506119a5565b60008167ffffffffffffffff811115611a11577f4e487b7100000000000000000000000000000000000000000000000000000000600052604160045260246000fd5b6040519080825280601f01601f191660200182016040528015611a435781602001600182028036833780820191505090505b5090505b60008514611af657600182611a5c9190612d09565b9150600a85611a6b9190612e9f565b6030611a779190612c82565b60f81b818381518110611ab3577f4e487b7100000000000000000000000000000000000000000000000000000000600052603260045260246000fd5b60200101907effffffffffffffffffffffffffffffffffffffffffffffffffffffffffffff1916908160001a905350600a85611aef9190612cd8565b9450611a47565b8093505050505b919050565b6000611b0e8383612090565b611b67578260000182908060018154018082558091505060019003906000526020600020016000909190919091505582600001805490508360010160008481526020019081526020016000208190555060019050611b6c565b600090505b92915050565b6000808460010160008581526020019081526020016000205490506000811415611c1957846000016040518060400160405280868152602001858152509080600181540180825580915050600190039060005260206000209060020201600090919091909150600082015181600001556020820151816001015550508460000180549050856001016000868152602001908152602001600020819055506001915050611c7d565b8285600001600183611c2b9190612d09565b81548110611c62577f4e487b7100000000000000000000000000000000000000000000000000000000600052603260045260246000fd5b90600052602060002090600202016001018190555060009150505b9392505050565b600080836001016000848152602001908152602001600020541415905092915050565b600081600001805490509050919050565b505050565b6000611ccf836000018360001b6120b3565b905092915050565b600081836000018054905011611d22576040517f08c379a0000000000000000000000000000000000000000000000000000000008152600401611d19906129ee565b60405180910390fd5b826000018281548110611d5e577f4e487b7100000000000000000000000000000000000000000000000000000000600052603260045260246000fd5b9060005260206000200154905092915050565b60008082846000018054905011611dbd576040517f08c379a0000000000000000000000000000000000000000000000000000000008152600401611db490612aee565b60405180910390fd5b6000846000018481548110611dfb577f4e487b7100000000000000000000000000000000000000000000000000000000600052603260045260246000fd5b906000526020600020906002020190508060000154816001015492509250509250929050565b60008084600101600085815260200190815260200160002054905060008114158390611e83576040517f08c379a0000000000000000000000000000000000000000000000000000000008152600401611e7a91906129cc565b60405180910390fd5b5084600001600182611e959190612d09565b81548110611ecc577f4e487b7100000000000000000000000000000000000000000000000000000000600052603260045260246000fd5b9060005260206000209060020201600101549150509392505050565b600081600001805490509050919050565b6000611f1a8473ffffffffffffffffffffffffffffffffffffffff1661223d565b15612083578373ffffffffffffffffffffffffffffffffffffffff1663150b7a02611f436114b4565b8786866040518563ffffffff1660e01b8152600401611f659493929190612921565b602060405180830381600087803b158015611f7f57600080fd5b505af1925050508015611fb057506040513d601f19601f82011682018060405250810190611fad9190612544565b60015b612033573d8060008114611fe0576040519150601f19603f3d011682016040523d82523d6000602084013e611fe5565b606091505b5060008151141561202b576040517f08c379a000000000000000000000000000000000000000000000000000000000815260040161202290612a0e565b60405180910390fd5b805181602001fd5b63150b7a0260e01b7bffffffffffffffffffffffffffffffffffffffffffffffffffffffff1916817bffffffffffffffffffffffffffffffffffffffffffffffffffffffff191614915050612088565b600190505b949350505050565b600080836001016000848152602001908152602001600020541415905092915050565b600080836001016000848152602001908152602001600020549050600081146122315760006001826120e59190612d09565b90506000600186600001805490506120fd9190612d09565b9050600086600001828154811061213d577f4e487b7100000000000000000000000000000000000000000000000000000000600052603260045260246000fd5b9060005260206000200154905080876000018481548110612187577f4e487b7100000000000000000000000000000000000000000000000000000000600052603260045260246000fd5b90600052602060002001819055506001836121a29190612c82565b87600101600083815260200190815260200160002081905550866000018054806121f5577f4e487b7100000000000000000000000000000000000000000000000000000000600052603160045260246000fd5b60019003818190600052602060002001600090559055866001016000878152602001908152602001600020600090556001945050505050612237565b60009150505b92915050565b600080823b905060008111915050919050565b600061226361225e84612c0e565b612be9565b90508281526020810184848401111561227b57600080fd5b612286848285612db1565b509392505050565b60008135905061229d816133cc565b92915050565b6000813590506122b2816133e3565b92915050565b6000815190506122c7816133e3565b92915050565b6000813590506122dc816133fa565b92915050565b6000815190506122f1816133fa565b92915050565b600082601f83011261230857600080fd5b8135612318848260208601612250565b91505092915050565b60008135905061233081613411565b92915050565b60008151905061234581613411565b92915050565b60006020828403121561235d57600080fd5b600061236b8482850161228e565b91505092915050565b6000806040838503121561238757600080fd5b60006123958582860161228e565b92505060206123a68582860161228e565b9150509250929050565b6000806000606084860312156123c557600080fd5b60006123d38682870161228e565b93505060206123e48682870161228e565b92505060406123f586828701612321565b9150509250925092565b6000806000806080858703121561241557600080fd5b60006124238782880161228e565b94505060206124348782880161228e565b935050604061244587828801612321565b925050606085013567ffffffffffffffff81111561246257600080fd5b61246e878288016122f7565b91505092959194509250565b6000806040838503121561248d57600080fd5b600061249b8582860161228e565b92505060206124ac858286016122a3565b9150509250929050565b600080604083850312156124c957600080fd5b60006124d78582860161228e565b92505060206124e885828601612321565b9150509250929050565b60006020828403121561250457600080fd5b6000612512848285016122b8565b91505092915050565b60006020828403121561252d57600080fd5b600061253b848285016122cd565b91505092915050565b60006020828403121561255657600080fd5b6000612564848285016122e2565b91505092915050565b60006020828403121561257f57600080fd5b600061258d84828501612321565b91505092915050565b6000602082840312156125a857600080fd5b60006125b684828501612336565b91505092915050565b6125c881612d3d565b82525050565b6125d781612d4f565b82525050565b6125e681612d5b565b82525050565b60006125f782612c3f565b6126018185612c55565b9350612611818560208601612dc0565b61261a81612f8c565b840191505092915050565b600061263082612c4a565b61263a8185612c66565b935061264a818560208601612dc0565b61265381612f8c565b840191505092915050565b600061266982612c4a565b6126738185612c77565b9350612683818560208601612dc0565b80840191505092915050565b600061269c602283612c66565b91506126a782612f9d565b604082019050919050565b60006126bf603283612c66565b91506126ca82612fec565b604082019050919050565b60006126e2602483612c66565b91506126ed8261303b565b604082019050919050565b6000612705601983612c66565b91506127108261308a565b602082019050919050565b6000612728602c83612c66565b9150612733826130b3565b604082019050919050565b600061274b603883612c66565b915061275682613102565b604082019050919050565b600061276e602a83612c66565b915061277982613151565b604082019050919050565b6000612791601283612c66565b915061279c826131a0565b602082019050919050565b60006127b4602283612c66565b91506127bf826131c9565b604082019050919050565b60006127d7602c83612c66565b91506127e282613218565b604082019050919050565b60006127fa602983612c66565b915061280582613267565b604082019050919050565b600061281d602f83612c66565b9150612828826132b6565b604082019050919050565b6000612840602183612c66565b915061284b82613305565b604082019050919050565b6000612863603183612c66565b915061286e82613354565b604082019050919050565b6000612886601483612c66565b9150612891826133a3565b602082019050919050565b6128a581612da7565b82525050565b60006128b7828561265e565b91506128c3828461265e565b91508190509392505050565b60006020820190506128e460008301846125bf565b92915050565b60006060820190506128ff60008301866125bf565b61290c60208301856125bf565b612919604083018461289c565b949350505050565b600060808201905061293660008301876125bf565b61294360208301866125bf565b612950604083018561289c565b818103606083015261296281846125ec565b905095945050505050565b600060408201905061298260008301856125bf565b61298f602083018461289c565b9392505050565b60006020820190506129ab60008301846125ce565b92915050565b60006020820190506129c660008301846125dd565b92915050565b600060208201905081810360008301526129e68184612625565b905092915050565b60006020820190508181036000830152612a078161268f565b9050919050565b60006020820190508181036000830152612a27816126b2565b9050919050565b60006020820190508181036000830152612a47816126d5565b9050919050565b60006020820190508181036000830152612a67816126f8565b9050919050565b60006020820190508181036000830152612a878161271b565b9050919050565b60006020820190508181036000830152612aa78161273e565b9050919050565b60006020820190508181036000830152612ac781612761565b9050919050565b60006020820190508181036000830152612ae781612784565b9050919050565b60006020820190508181036000830152612b07816127a7565b9050919050565b60006020820190508181036000830152612b27816127ca565b9050919050565b60006020820190508181036000830152612b47816127ed565b9050919050565b60006020820190508181036000830152612b6781612810565b9050919050565b60006020820190508181036000830152612b8781612833565b9050919050565b60006020820190508181036000830152612ba781612856565b9050919050565b60006020820190508181036000830152612bc781612879565b9050919050565b6000602082019050612be3600083018461289c565b92915050565b6000612bf3612c04565b9050612bff8282612e25565b919050565b6000604051905090565b600067ffffffffffffffff821115612c2957612c28612f5d565b5b612c3282612f8c565b9050602081019050919050565b600081519050919050565b600081519050919050565b600082825260208201905092915050565b600082825260208201905092915050565b600081905092915050565b6000612c8d82612da7565b9150612c9883612da7565b9250827fffffffffffffffffffffffffffffffffffffffffffffffffffffffffffffffff03821115612ccd57612ccc612ed0565b5b828201905092915050565b6000612ce382612da7565b9150612cee83612da7565b925082612cfe57612cfd612eff565b5b828204905092915050565b6000612d1482612da7565b9150612d1f83612da7565b925082821015612d3257612d31612ed0565b5b828203905092915050565b6000612d4882612d87565b9050919050565b60008115159050919050565b60007fffffffff0000000000000000000000000000000000000000000000000000000082169050919050565b600073ffffffffffffffffffffffffffffffffffffffff82169050919050565b6000819050919050565b82818337600083830152505050565b60005b83811015612dde578082015181840152602081019050612dc3565b83811115612ded576000848401525b50505050565b60006002820490506001821680612e0b57607f821691505b60208210811415612e1f57612e1e612f2e565b5b50919050565b612e2e82612f8c565b810181811067ffffffffffffffff82111715612e4d57612e4c612f5d565b5b80604052505050565b6000612e6182612da7565b91507fffffffffffffffffffffffffffffffffffffffffffffffffffffffffffffffff821415612e9457612e93612ed0565b5b600182019050919050565b6000612eaa82612da7565b9150612eb583612da7565b925082612ec557612ec4612eff565b5b828206905092915050565b7f4e487b7100000000000000000000000000000000000000000000000000000000600052601160045260246000fd5b7f4e487b7100000000000000000000000000000000000000000000000000000000600052601260045260246000fd5b7f4e487b7100000000000000000000000000000000000000000000000000000000600052602260045260246000fd5b7f4e487b7100000000000000000000000000000000000000000000000000000000600052604160045260246000fd5b6000601f19601f8301169050919050565b7f456e756d657261626c655365743a20696e646578206f7574206f6620626f756e60008201527f6473000000000000000000000000000000000000000000000000000000000000602082015250565b7f4552433732313a207472616e7366657220746f206e6f6e20455243373231526560008201527f63656976657220696d706c656d656e7465720000000000000000000000000000602082015250565b7f4552433732313a207472616e7366657220746f20746865207a65726f2061646460008201527f7265737300000000000000000000000000000000000000000000000000000000602082015250565b7f4552433732313a20617070726f766520746f2063616c6c657200000000000000600082015250565b7f4552433732313a206f70657261746f7220717565727920666f72206e6f6e657860008201527f697374656e7420746f6b656e0000000000000000000000000000000000000000602082015250565b7f4552433732313a20617070726f76652063616c6c6572206973206e6f74206f7760008201527f6e6572206e6f7220617070726f76656420666f7220616c6c0000000000000000602082015250565b7f4552433732313a2062616c616e636520717565727920666f7220746865207a6560008201527f726f206164647265737300000000000000000000000000000000000000000000602082015250565b7f63616e2774206465706f7369742073656c660000000000000000000000000000600082015250565b7f456e756d657261626c654d61703a20696e646578206f7574206f6620626f756e60008201527f6473000000000000000000000000000000000000000000000000000000000000602082015250565b7f4552433732313a20617070726f76656420717565727920666f72206e6f6e657860008201527f697374656e7420746f6b656e0000000000000000000000000000000000000000602082015250565b7f4552433732313a207472616e73666572206f6620746f6b656e2074686174206960008201527f73206e6f74206f776e0000000000000000000000000000000000000000000000602082015250565b7f4552433732314d657461646174613a2055524920717565727920666f72206e6f60008201527f6e6578697374656e7420746f6b656e0000000000000000000000000000000000602082015250565b7f4552433732313a20617070726f76616c20746f2063757272656e74206f776e6560008201527f7200000000000000000000000000000000000000000000000000000000000000602082015250565b7f4552433732313a207472616e736665722063616c6c6572206973206e6f74206f60008201527f776e6572206e6f7220617070726f766564000000000000000000000000000000602082015250565b7f77697468647261773a6e6f7420616c6c6f776564000000000000000000000000600082015250565b6133d581612d3d565b81146133e057600080fd5b50565b6133ec81612d4f565b81146133f757600080fd5b50565b61340381612d5b565b811461340e57600080fd5b50565b61341a81612da7565b811461342557600080fd5b5056fe4552433732313a206f776e657220717565727920666f72206e6f6e6578697374656e7420746f6b656ea26469706673582212207252589dddaf3fff01c424ce096121c4fd39969737bf492a92119f53a564c62764736f6c63430008040033",
  "linkReferences": {},
  "deployedLinkReferences": {}
}