{
  "_format": "hh-sol-artifact-1",
  "contractName": "GSNRecipientERC20FeeMock",
  "sourceName": "contracts/src/OpenZeppelin/mocks/GSNRecipientERC20FeeMock.sol",
  "abi": [
    {
      "inputs": [
        {
          "internalType": "string",
          "name": "name",
          "type": "string"
        },
        {
          "internalType": "string",
          "name": "symbol",
          "type": "string"
        }
      ],
      "stateMutability": "nonpayable",
      "type": "constructor"
    },
    {
      "anonymous": false,
      "inputs": [
        {
          "indexed": false,
          "internalType": "uint256",
          "name": "senderBalance",
          "type": "uint256"
        }
      ],
      "name": "MockFunctionCalled",
      "type": "event"
    },
    {
      "anonymous": false,
      "inputs": [
        {
          "indexed": true,
          "internalType": "address",
          "name": "oldRelayHub",
          "type": "address"
        },
        {
          "indexed": true,
          "internalType": "address",
          "name": "newRelayHub",
          "type": "address"
        }
      ],
      "name": "RelayHubChanged",
      "type": "event"
    },
    {
      "inputs": [
        {
          "internalType": "address",
          "name": "",
          "type": "address"
        },
        {
          "internalType": "address",
          "name": "from",
          "type": "address"
        },
        {
          "internalType": "bytes",
          "name": "",
          "type": "bytes"
        },
        {
          "internalType": "uint256",
          "name": "transactionFee",
          "type": "uint256"
        },
        {
          "internalType": "uint256",
          "name": "gasPrice",
          "type": "uint256"
        },
        {
          "internalType": "uint256",
          "name": "",
          "type": "uint256"
        },
        {
          "internalType": "uint256",
          "name": "",
          "type": "uint256"
        },
        {
          "internalType": "bytes",
          "name": "",
          "type": "bytes"
        },
        {
          "internalType": "uint256",
          "name": "maxPossibleCharge",
          "type": "uint256"
        }
      ],
      "name": "acceptRelayedCall",
      "outputs": [
        {
          "internalType": "uint256",
          "name": "",
          "type": "uint256"
        },
        {
          "internalType": "bytes",
          "name": "",
          "type": "bytes"
        }
      ],
      "stateMutability": "view",
      "type": "function"
    },
    {
      "inputs": [],
      "name": "getHubAddr",
      "outputs": [
        {
          "internalType": "address",
          "name": "",
          "type": "address"
        }
      ],
      "stateMutability": "view",
      "type": "function"
    },
    {
      "inputs": [
        {
          "internalType": "address",
          "name": "account",
          "type": "address"
        },
        {
          "internalType": "uint256",
          "name": "amount",
          "type": "uint256"
        }
      ],
      "name": "mint",
      "outputs": [],
      "stateMutability": "nonpayable",
      "type": "function"
    },
    {
      "inputs": [],
      "name": "mockFunction",
      "outputs": [],
      "stateMutability": "nonpayable",
      "type": "function"
    },
    {
      "inputs": [
        {
          "internalType": "bytes",
          "name": "context",
          "type": "bytes"
        },
        {
          "internalType": "bool",
          "name": "success",
          "type": "bool"
        },
        {
          "internalType": "uint256",
          "name": "actualCharge",
          "type": "uint256"
        },
        {
          "internalType": "bytes32",
          "name": "preRetVal",
          "type": "bytes32"
        }
      ],
      "name": "postRelayedCall",
      "outputs": [],
      "stateMutability": "nonpayable",
      "type": "function"
    },
    {
      "inputs": [
        {
          "internalType": "bytes",
          "name": "context",
          "type": "bytes"
        }
      ],
      "name": "preRelayedCall",
      "outputs": [
        {
          "internalType": "bytes32",
          "name": "",
          "type": "bytes32"
        }
      ],
      "stateMutability": "nonpayable",
      "type": "function"
    },
    {
      "inputs": [],
      "name": "relayHubVersion",
      "outputs": [
        {
          "internalType": "string",
          "name": "",
          "type": "string"
        }
      ],
      "stateMutability": "view",
      "type": "function"
    },
    {
      "inputs": [],
      "name": "token",
      "outputs": [
        {
          "internalType": "contract __unstable__ERC20Owned",
          "name": "",
          "type": "address"
        }
      ],
      "stateMutability": "view",
      "type": "function"
    }
  ],
  "bytecode": "0x608060405273d216153c06e857cd7f72665e0af1d7d82172f4946000806101000a81548173ffffffffffffffffffffffffffffffffffffffff021916908373ffffffffffffffffffffffffffffffffffffffff1602179055503480156200006557600080fd5b5060405162003b5438038062003b5483398181016040528101906200008b919062000192565b818181816040516200009d9062000112565b620000aa92919062000246565b604051809103906000f080158015620000c7573d6000803e3d6000fd5b50600160006101000a81548173ffffffffffffffffffffffffffffffffffffffff021916908373ffffffffffffffffffffffffffffffffffffffff16021790555050505050620003a8565b6120778062001add83390190565b6000620001376200013184620002aa565b62000281565b9050828152602081018484840111156200015057600080fd5b6200015d848285620002fc565b509392505050565b600082601f8301126200017757600080fd5b81516200018984826020860162000120565b91505092915050565b60008060408385031215620001a657600080fd5b600083015167ffffffffffffffff811115620001c157600080fd5b620001cf8582860162000165565b925050602083015167ffffffffffffffff811115620001ed57600080fd5b620001fb8582860162000165565b9150509250929050565b60006200021282620002e0565b6200021e8185620002eb565b935062000230818560208601620002fc565b6200023b8162000397565b840191505092915050565b6000604082019050818103600083015262000262818562000205565b9050818103602083015262000278818462000205565b90509392505050565b60006200028d620002a0565b90506200029b828262000332565b919050565b6000604051905090565b600067ffffffffffffffff821115620002c857620002c762000368565b5b620002d38262000397565b9050602081019050919050565b600081519050919050565b600082825260208201905092915050565b60005b838110156200031c578082015181840152602081019050620002ff565b838111156200032c576000848401525b50505050565b6200033d8262000397565b810181811067ffffffffffffffff821117156200035f576200035e62000368565b5b80604052505050565b7f4e487b7100000000000000000000000000000000000000000000000000000000600052604160045260246000fd5b6000601f19601f8301169050919050565b61172580620003b86000396000f3fe608060405234801561001057600080fd5b50600436106100885760003560e01c806383947ea01161005b57806383947ea014610101578063ad61ccd514610132578063e06e0e2214610150578063fc0c546a1461016c57610088565b80633e6fec041461008d57806340c10f191461009757806374e861d6146100b357806380274db7146100d1575b600080fd5b61009561018a565b005b6100b160048036038101906100ac9190610d70565b610259565b005b6100bb610267565b6040516100c8919061103c565b60405180910390f35b6100eb60048036038101906100e69190610dd5565b610290565b6040516100f891906110fc565b60405180910390f35b61011b60048036038101906101169190610c7a565b610317565b6040516101299291906111ef565b60405180910390f35b61013a61043d565b6040516101479190611132565b60405180910390f35b61016a60048036038101906101659190610e16565b61047a565b005b610174610501565b6040516101819190611117565b60405180910390f35b7fde4813f7525e49908b98ef6c9c80c5bc8c7d0842981a49420eb45ef36a60e0c06101b3610501565b73ffffffffffffffffffffffffffffffffffffffff166370a082316101d661052b565b6040518263ffffffff1660e01b81526004016101f2919061103c565b60206040518083038186803b15801561020a57600080fd5b505afa15801561021e573d6000803e3d6000fd5b505050506040513d601f19601f820116820180604052508101906102429190610e91565b60405161024f91906111d4565b60405180910390a1565b6102638282610583565b5050565b60008060009054906101000a900473ffffffffffffffffffffffffffffffffffffffff16905090565b600061029a610267565b73ffffffffffffffffffffffffffffffffffffffff163373ffffffffffffffffffffffffffffffffffffffff1614610307576040517f08c379a00000000000000000000000000000000000000000000000000000000081526004016102fe90611174565b60405180910390fd5b610310826105fb565b9050919050565b6000606082610324610501565b73ffffffffffffffffffffffffffffffffffffffff166370a082318c6040518263ffffffff1660e01b815260040161035c919061103c565b60206040518083038186803b15801561037457600080fd5b505afa158015610388573d6000803e3d6000fd5b505050506040513d601f19601f820116820180604052508101906103ac9190610e91565b10156103fc576103f36000808111156103ee577f4e487b7100000000000000000000000000000000000000000000000000000000600052602160045260246000fd5b610659565b9150915061042f565b61042a8a848a8a60405160200161041694939291906110b7565b604051602081830303815290604052610683565b915091505b995099975050505050505050565b60606040518060400160405280600581526020017f312e302e30000000000000000000000000000000000000000000000000000000815250905090565b610482610267565b73ffffffffffffffffffffffffffffffffffffffff163373ffffffffffffffffffffffffffffffffffffffff16146104ef576040517f08c379a00000000000000000000000000000000000000000000000000000000081526004016104e690611174565b60405180910390fd5b6104fb84848484610693565b50505050565b6000600160009054906101000a900473ffffffffffffffffffffffffffffffffffffffff16905090565b6000610535610267565b73ffffffffffffffffffffffffffffffffffffffff163373ffffffffffffffffffffffffffffffffffffffff16141561057757601436033560601c905061057f565b339050610580565b5b90565b61058b610501565b73ffffffffffffffffffffffffffffffffffffffff166340c10f1983836040518363ffffffff1660e01b81526004016105c592919061108e565b600060405180830381600087803b1580156105df57600080fd5b505af11580156105f3573d6000803e3d6000fd5b505050505050565b6000806000838060200190518101906106149190610bdb565b9150915061064c823083610626610501565b73ffffffffffffffffffffffffffffffffffffffff1661072a909392919063ffffffff16565b6000801b92505050919050565b6000606082600b61066a91906112b8565b6040518060200160405280600081525091509150915091565b6000606060008391509150915091565b600080600080878060200190518101906106ad9190610c17565b935093509350935060006106d2612710620186a06106cb9190611399565b83856107b3565b905080876106e09190611399565b965061071f8588866106f29190611399565b6106fa610501565b73ffffffffffffffffffffffffffffffffffffffff166107ed9092919063ffffffff16565b505050505050505050565b6107ad846323b872dd60e01b85858560405160240161074b93929190611057565b604051602081830303815290604052907bffffffffffffffffffffffffffffffffffffffffffffffffffffffff19166020820180517bffffffffffffffffffffffffffffffffffffffffffffffffffffffff8381831617835250505050610873565b50505050565b600060648260646107c491906112b8565b84866107d0919061133f565b6107da919061133f565b6107e4919061130e565b90509392505050565b61086e8363a9059cbb60e01b848460405160240161080c92919061108e565b604051602081830303815290604052907bffffffffffffffffffffffffffffffffffffffffffffffffffffffff19166020820180517bffffffffffffffffffffffffffffffffffffffffffffffffffffffff8381831617835250505050610873565b505050565b60006108d5826040518060400160405280602081526020017f5361666545524332303a206c6f772d6c6576656c2063616c6c206661696c65648152508573ffffffffffffffffffffffffffffffffffffffff1661093a9092919063ffffffff16565b905060008151111561093557808060200190518101906108f59190610dac565b610934576040517f08c379a000000000000000000000000000000000000000000000000000000000815260040161092b906111b4565b60405180910390fd5b5b505050565b60606109498484600085610952565b90509392505050565b606082471015610997576040517f08c379a000000000000000000000000000000000000000000000000000000000815260040161098e90611154565b60405180910390fd5b6109a085610a66565b6109df576040517f08c379a00000000000000000000000000000000000000000000000000000000081526004016109d690611194565b60405180910390fd5b6000808673ffffffffffffffffffffffffffffffffffffffff168587604051610a089190611025565b60006040518083038185875af1925050503d8060008114610a45576040519150601f19603f3d011682016040523d82523d6000602084013e610a4a565b606091505b5091509150610a5a828286610a79565b92505050949350505050565b600080823b905060008111915050919050565b60608315610a8957829050610ad9565b600083511115610a9c5782518084602001fd5b816040517f08c379a0000000000000000000000000000000000000000000000000000000008152600401610ad09190611132565b60405180910390fd5b9392505050565b6000610af3610aee84611244565b61121f565b905082815260208101848484011115610b0b57600080fd5b610b16848285611455565b509392505050565b600081359050610b2d8161167c565b92915050565b600081519050610b4281611693565b92915050565b600081359050610b57816116aa565b92915050565b600081519050610b6c816116aa565b92915050565b600081359050610b81816116c1565b92915050565b600082601f830112610b9857600080fd5b8135610ba8848260208601610ae0565b91505092915050565b600081359050610bc0816116d8565b92915050565b600081519050610bd5816116d8565b92915050565b60008060408385031215610bee57600080fd5b6000610bfc85828601610b33565b9250506020610c0d85828601610bc6565b9150509250929050565b60008060008060808587031215610c2d57600080fd5b6000610c3b87828801610b33565b9450506020610c4c87828801610bc6565b9350506040610c5d87828801610bc6565b9250506060610c6e87828801610bc6565b91505092959194509250565b60008060008060008060008060006101208a8c031215610c9957600080fd5b6000610ca78c828d01610b1e565b9950506020610cb88c828d01610b1e565b98505060408a013567ffffffffffffffff811115610cd557600080fd5b610ce18c828d01610b87565b9750506060610cf28c828d01610bb1565b9650506080610d038c828d01610bb1565b95505060a0610d148c828d01610bb1565b94505060c0610d258c828d01610bb1565b93505060e08a013567ffffffffffffffff811115610d4257600080fd5b610d4e8c828d01610b87565b925050610100610d608c828d01610bb1565b9150509295985092959850929598565b60008060408385031215610d8357600080fd5b6000610d9185828601610b1e565b9250506020610da285828601610bb1565b9150509250929050565b600060208284031215610dbe57600080fd5b6000610dcc84828501610b5d565b91505092915050565b600060208284031215610de757600080fd5b600082013567ffffffffffffffff811115610e0157600080fd5b610e0d84828501610b87565b91505092915050565b60008060008060808587031215610e2c57600080fd5b600085013567ffffffffffffffff811115610e4657600080fd5b610e5287828801610b87565b9450506020610e6387828801610b48565b9350506040610e7487828801610bb1565b9250506060610e8587828801610b72565b91505092959194509250565b600060208284031215610ea357600080fd5b6000610eb184828501610bc6565b91505092915050565b610ec3816113cd565b82525050565b610ed2816113fd565b82525050565b6000610ee382611275565b610eed818561128b565b9350610efd818560208601611464565b610f0681611555565b840191505092915050565b6000610f1c82611275565b610f26818561129c565b9350610f36818560208601611464565b80840191505092915050565b610f4b81611431565b82525050565b6000610f5c82611280565b610f6681856112a7565b9350610f76818560208601611464565b610f7f81611555565b840191505092915050565b6000610f976026836112a7565b9150610fa282611566565b604082019050919050565b6000610fba6024836112a7565b9150610fc5826115b5565b604082019050919050565b6000610fdd601d836112a7565b9150610fe882611604565b602082019050919050565b6000611000602a836112a7565b915061100b8261162d565b604082019050919050565b61101f81611427565b82525050565b60006110318284610f11565b915081905092915050565b60006020820190506110516000830184610eba565b92915050565b600060608201905061106c6000830186610eba565b6110796020830185610eba565b6110866040830184611016565b949350505050565b60006040820190506110a36000830185610eba565b6110b06020830184611016565b9392505050565b60006080820190506110cc6000830187610eba565b6110d96020830186611016565b6110e66040830185611016565b6110f36060830184611016565b95945050505050565b60006020820190506111116000830184610ec9565b92915050565b600060208201905061112c6000830184610f42565b92915050565b6000602082019050818103600083015261114c8184610f51565b905092915050565b6000602082019050818103600083015261116d81610f8a565b9050919050565b6000602082019050818103600083015261118d81610fad565b9050919050565b600060208201905081810360008301526111ad81610fd0565b9050919050565b600060208201905081810360008301526111cd81610ff3565b9050919050565b60006020820190506111e96000830184611016565b92915050565b60006040820190506112046000830185611016565b81810360208301526112168184610ed8565b90509392505050565b600061122961123a565b90506112358282611497565b919050565b6000604051905090565b600067ffffffffffffffff82111561125f5761125e611526565b5b61126882611555565b9050602081019050919050565b600081519050919050565b600081519050919050565b600082825260208201905092915050565b600081905092915050565b600082825260208201905092915050565b60006112c382611427565b91506112ce83611427565b9250827fffffffffffffffffffffffffffffffffffffffffffffffffffffffffffffffff03821115611303576113026114c8565b5b828201905092915050565b600061131982611427565b915061132483611427565b925082611334576113336114f7565b5b828204905092915050565b600061134a82611427565b915061135583611427565b9250817fffffffffffffffffffffffffffffffffffffffffffffffffffffffffffffffff048311821515161561138e5761138d6114c8565b5b828202905092915050565b60006113a482611427565b91506113af83611427565b9250828210156113c2576113c16114c8565b5b828203905092915050565b60006113d882611407565b9050919050565b60006113ea82611407565b9050919050565b60008115159050919050565b6000819050919050565b600073ffffffffffffffffffffffffffffffffffffffff82169050919050565b6000819050919050565b600061143c82611443565b9050919050565b600061144e82611407565b9050919050565b82818337600083830152505050565b60005b83811015611482578082015181840152602081019050611467565b83811115611491576000848401525b50505050565b6114a082611555565b810181811067ffffffffffffffff821117156114bf576114be611526565b5b80604052505050565b7f4e487b7100000000000000000000000000000000000000000000000000000000600052601160045260246000fd5b7f4e487b7100000000000000000000000000000000000000000000000000000000600052601260045260246000fd5b7f4e487b7100000000000000000000000000000000000000000000000000000000600052604160045260246000fd5b6000601f19601f8301169050919050565b7f416464726573733a20696e73756666696369656e742062616c616e636520666f60008201527f722063616c6c0000000000000000000000000000000000000000000000000000602082015250565b7f47534e526563697069656e743a2063616c6c6572206973206e6f742052656c6160008201527f7948756200000000000000000000000000000000000000000000000000000000602082015250565b7f416464726573733a2063616c6c20746f206e6f6e2d636f6e7472616374000000600082015250565b7f5361666545524332303a204552433230206f7065726174696f6e20646964206e60008201527f6f74207375636365656400000000000000000000000000000000000000000000602082015250565b611685816113cd565b811461169057600080fd5b50565b61169c816113df565b81146116a757600080fd5b50565b6116b3816113f1565b81146116be57600080fd5b50565b6116ca816113fd565b81146116d557600080fd5b50565b6116e181611427565b81146116ec57600080fd5b5056fea2646970667358221220d8e51d75b4e52d991795bdd71b39b0bf077e04496ea0b2ec3ecb5be86a396b4d64736f6c6343000804003360806040523480156200001157600080fd5b506040516200207738038062002077833981810160405281019062000037919062000250565b81818160039080519060200190620000519291906200012e565b5080600490805190602001906200006a9291906200012e565b50505060006200007f6200012660201b60201c565b905080600560006101000a81548173ffffffffffffffffffffffffffffffffffffffff021916908373ffffffffffffffffffffffffffffffffffffffff1602179055508073ffffffffffffffffffffffffffffffffffffffff16600073ffffffffffffffffffffffffffffffffffffffff167f8be0079c531659141344cd1fd0a4f28419497f9722a3daafe3b4186f6b6457e060405160405180910390a350505062000433565b600033905090565b8280546200013c9062000358565b90600052602060002090601f016020900481019282620001605760008555620001ac565b82601f106200017b57805160ff1916838001178555620001ac565b82800160010185558215620001ac579182015b82811115620001ab5782518255916020019190600101906200018e565b5b509050620001bb9190620001bf565b5090565b5b80821115620001da576000816000905550600101620001c0565b5090565b6000620001f5620001ef84620002ec565b620002c3565b9050828152602081018484840111156200020e57600080fd5b6200021b84828562000322565b509392505050565b600082601f8301126200023557600080fd5b815162000247848260208601620001de565b91505092915050565b600080604083850312156200026457600080fd5b600083015167ffffffffffffffff8111156200027f57600080fd5b6200028d8582860162000223565b925050602083015167ffffffffffffffff811115620002ab57600080fd5b620002b98582860162000223565b9150509250929050565b6000620002cf620002e2565b9050620002dd82826200038e565b919050565b6000604051905090565b600067ffffffffffffffff8211156200030a5762000309620003f3565b5b620003158262000422565b9050602081019050919050565b60005b838110156200034257808201518184015260208101905062000325565b8381111562000352576000848401525b50505050565b600060028204905060018216806200037157607f821691505b60208210811415620003885762000387620003c4565b5b50919050565b620003998262000422565b810181811067ffffffffffffffff82111715620003bb57620003ba620003f3565b5b80604052505050565b7f4e487b7100000000000000000000000000000000000000000000000000000000600052602260045260246000fd5b7f4e487b7100000000000000000000000000000000000000000000000000000000600052604160045260246000fd5b6000601f19601f8301169050919050565b611c3480620004436000396000f3fe608060405234801561001057600080fd5b50600436106100f55760003560e01c806370a0823111610097578063a457c2d711610066578063a457c2d714610276578063a9059cbb146102a6578063dd62ed3e146102d6578063f2fde38b14610306576100f5565b806370a0823114610200578063715018a6146102305780638da5cb5b1461023a57806395d89b4114610258576100f5565b806323b872dd116100d357806323b872dd14610166578063313ce5671461019657806339509351146101b457806340c10f19146101e4576100f5565b806306fdde03146100fa578063095ea7b31461011857806318160ddd14610148575b600080fd5b610102610322565b60405161010f919061159f565b60405180910390f35b610132600480360381019061012d919061135a565b6103b4565b60405161013f9190611584565b60405180910390f35b6101506103d2565b60405161015d9190611701565b60405180910390f35b610180600480360381019061017b919061130b565b6103dc565b60405161018d9190611584565b60405180910390f35b61019e610442565b6040516101ab919061171c565b60405180910390f35b6101ce60048036038101906101c9919061135a565b61044b565b6040516101db9190611584565b60405180910390f35b6101fe60048036038101906101f9919061135a565b6104f7565b005b61021a600480360381019061021591906112a6565b610581565b6040516102279190611701565b60405180910390f35b6102386105c9565b005b610242610706565b60405161024f9190611569565b60405180910390f35b610260610730565b60405161026d919061159f565b60405180910390f35b610290600480360381019061028b919061135a565b6107c2565b60405161029d9190611584565b60405180910390f35b6102c060048036038101906102bb919061135a565b6108b6565b6040516102cd9190611584565b60405180910390f35b6102f060048036038101906102eb91906112cf565b6108d4565b6040516102fd9190611701565b60405180910390f35b610320600480360381019061031b91906112a6565b61094c565b005b60606003805461033190611865565b80601f016020809104026020016040519081016040528092919081815260200182805461035d90611865565b80156103aa5780601f1061037f576101008083540402835291602001916103aa565b820191906000526020600020905b81548152906001019060200180831161038d57829003601f168201915b5050505050905090565b60006103c86103c1610af8565b8484610b00565b6001905092915050565b6000600254905090565b60006103e6610706565b73ffffffffffffffffffffffffffffffffffffffff168373ffffffffffffffffffffffffffffffffffffffff16141561042d57610424848484610b51565b6001905061043b565b610438848484610dd0565b90505b9392505050565b60006012905090565b60006104ed610458610af8565b848460016000610466610af8565b73ffffffffffffffffffffffffffffffffffffffff1673ffffffffffffffffffffffffffffffffffffffff16815260200190815260200160002060008873ffffffffffffffffffffffffffffffffffffffff1673ffffffffffffffffffffffffffffffffffffffff168152602001908152602001600020546104e89190611753565b610b00565b6001905092915050565b6104ff610af8565b73ffffffffffffffffffffffffffffffffffffffff1661051d610706565b73ffffffffffffffffffffffffffffffffffffffff1614610573576040517f08c379a000000000000000000000000000000000000000000000000000000000815260040161056a90611661565b60405180910390fd5b61057d8282610ed1565b5050565b60008060008373ffffffffffffffffffffffffffffffffffffffff1673ffffffffffffffffffffffffffffffffffffffff168152602001908152602001600020549050919050565b6105d1610af8565b73ffffffffffffffffffffffffffffffffffffffff166105ef610706565b73ffffffffffffffffffffffffffffffffffffffff1614610645576040517f08c379a000000000000000000000000000000000000000000000000000000000815260040161063c90611661565b60405180910390fd5b600073ffffffffffffffffffffffffffffffffffffffff16600560009054906101000a900473ffffffffffffffffffffffffffffffffffffffff1673ffffffffffffffffffffffffffffffffffffffff167f8be0079c531659141344cd1fd0a4f28419497f9722a3daafe3b4186f6b6457e060405160405180910390a36000600560006101000a81548173ffffffffffffffffffffffffffffffffffffffff021916908373ffffffffffffffffffffffffffffffffffffffff160217905550565b6000600560009054906101000a900473ffffffffffffffffffffffffffffffffffffffff16905090565b60606004805461073f90611865565b80601f016020809104026020016040519081016040528092919081815260200182805461076b90611865565b80156107b85780601f1061078d576101008083540402835291602001916107b8565b820191906000526020600020905b81548152906001019060200180831161079b57829003601f168201915b5050505050905090565b600080600160006107d1610af8565b73ffffffffffffffffffffffffffffffffffffffff1673ffffffffffffffffffffffffffffffffffffffff16815260200190815260200160002060008573ffffffffffffffffffffffffffffffffffffffff1673ffffffffffffffffffffffffffffffffffffffff1681526020019081526020016000205490508281101561088e576040517f08c379a0000000000000000000000000000000000000000000000000000000008152600401610885906116c1565b60405180910390fd5b6108ab610899610af8565b8585846108a691906117a9565b610b00565b600191505092915050565b60006108ca6108c3610af8565b8484610b51565b6001905092915050565b60006108de610706565b73ffffffffffffffffffffffffffffffffffffffff168273ffffffffffffffffffffffffffffffffffffffff161415610939577fffffffffffffffffffffffffffffffffffffffffffffffffffffffffffffffff9050610946565b6109438383611025565b90505b92915050565b610954610af8565b73ffffffffffffffffffffffffffffffffffffffff16610972610706565b73ffffffffffffffffffffffffffffffffffffffff16146109c8576040517f08c379a00000000000000000000000000000000000000000000000000000000081526004016109bf90611661565b60405180910390fd5b600073ffffffffffffffffffffffffffffffffffffffff168173ffffffffffffffffffffffffffffffffffffffff161415610a38576040517f08c379a0000000000000000000000000000000000000000000000000000000008152600401610a2f906115e1565b60405180910390fd5b8073ffffffffffffffffffffffffffffffffffffffff16600560009054906101000a900473ffffffffffffffffffffffffffffffffffffffff1673ffffffffffffffffffffffffffffffffffffffff167f8be0079c531659141344cd1fd0a4f28419497f9722a3daafe3b4186f6b6457e060405160405180910390a380600560006101000a81548173ffffffffffffffffffffffffffffffffffffffff021916908373ffffffffffffffffffffffffffffffffffffffff16021790555050565b600033905090565b610b08610706565b73ffffffffffffffffffffffffffffffffffffffff168273ffffffffffffffffffffffffffffffffffffffff161415610b4057610b4c565b610b4b8383836110ac565b5b505050565b600073ffffffffffffffffffffffffffffffffffffffff168373ffffffffffffffffffffffffffffffffffffffff161415610bc1576040517f08c379a0000000000000000000000000000000000000000000000000000000008152600401610bb890611681565b60405180910390fd5b600073ffffffffffffffffffffffffffffffffffffffff168273ffffffffffffffffffffffffffffffffffffffff161415610c31576040517f08c379a0000000000000000000000000000000000000000000000000000000008152600401610c28906115c1565b60405180910390fd5b610c3c838383611277565b60008060008573ffffffffffffffffffffffffffffffffffffffff1673ffffffffffffffffffffffffffffffffffffffff16815260200190815260200160002054905081811015610cc2576040517f08c379a0000000000000000000000000000000000000000000000000000000008152600401610cb990611621565b60405180910390fd5b8181610cce91906117a9565b6000808673ffffffffffffffffffffffffffffffffffffffff1673ffffffffffffffffffffffffffffffffffffffff16815260200190815260200160002081905550816000808573ffffffffffffffffffffffffffffffffffffffff1673ffffffffffffffffffffffffffffffffffffffff1681526020019081526020016000206000828254610d5e9190611753565b925050819055508273ffffffffffffffffffffffffffffffffffffffff168473ffffffffffffffffffffffffffffffffffffffff167fddf252ad1be2c89b69c2b068fc378daa952ba7f163c4a11628f55a4df523b3ef84604051610dc29190611701565b60405180910390a350505050565b6000610ddd848484610b51565b6000600160008673ffffffffffffffffffffffffffffffffffffffff1673ffffffffffffffffffffffffffffffffffffffff1681526020019081526020016000206000610e28610af8565b73ffffffffffffffffffffffffffffffffffffffff1673ffffffffffffffffffffffffffffffffffffffff16815260200190815260200160002054905082811015610ea8576040517f08c379a0000000000000000000000000000000000000000000000000000000008152600401610e9f90611641565b60405180910390fd5b610ec585610eb4610af8565b8584610ec091906117a9565b610b00565b60019150509392505050565b600073ffffffffffffffffffffffffffffffffffffffff168273ffffffffffffffffffffffffffffffffffffffff161415610f41576040517f08c379a0000000000000000000000000000000000000000000000000000000008152600401610f38906116e1565b60405180910390fd5b610f4d60008383611277565b8060026000828254610f5f9190611753565b92505081905550806000808473ffffffffffffffffffffffffffffffffffffffff1673ffffffffffffffffffffffffffffffffffffffff1681526020019081526020016000206000828254610fb49190611753565b925050819055508173ffffffffffffffffffffffffffffffffffffffff16600073ffffffffffffffffffffffffffffffffffffffff167fddf252ad1be2c89b69c2b068fc378daa952ba7f163c4a11628f55a4df523b3ef836040516110199190611701565b60405180910390a35050565b6000600160008473ffffffffffffffffffffffffffffffffffffffff1673ffffffffffffffffffffffffffffffffffffffff16815260200190815260200160002060008373ffffffffffffffffffffffffffffffffffffffff1673ffffffffffffffffffffffffffffffffffffffff16815260200190815260200160002054905092915050565b600073ffffffffffffffffffffffffffffffffffffffff168373ffffffffffffffffffffffffffffffffffffffff16141561111c576040517f08c379a0000000000000000000000000000000000000000000000000000000008152600401611113906116a1565b60405180910390fd5b600073ffffffffffffffffffffffffffffffffffffffff168273ffffffffffffffffffffffffffffffffffffffff16141561118c576040517f08c379a000000000000000000000000000000000000000000000000000000000815260040161118390611601565b60405180910390fd5b80600160008573ffffffffffffffffffffffffffffffffffffffff1673ffffffffffffffffffffffffffffffffffffffff16815260200190815260200160002060008473ffffffffffffffffffffffffffffffffffffffff1673ffffffffffffffffffffffffffffffffffffffff168152602001908152602001600020819055508173ffffffffffffffffffffffffffffffffffffffff168373ffffffffffffffffffffffffffffffffffffffff167f8c5be1e5ebec7d5bd14f71427d1e84f3dd0314c0f7b2291e5b200ac8c7c3b9258360405161126a9190611701565b60405180910390a3505050565b505050565b60008135905061128b81611bd0565b92915050565b6000813590506112a081611be7565b92915050565b6000602082840312156112b857600080fd5b60006112c68482850161127c565b91505092915050565b600080604083850312156112e257600080fd5b60006112f08582860161127c565b92505060206113018582860161127c565b9150509250929050565b60008060006060848603121561132057600080fd5b600061132e8682870161127c565b935050602061133f8682870161127c565b925050604061135086828701611291565b9150509250925092565b6000806040838503121561136d57600080fd5b600061137b8582860161127c565b925050602061138c85828601611291565b9150509250929050565b61139f816117dd565b82525050565b6113ae816117ef565b82525050565b60006113bf82611737565b6113c98185611742565b93506113d9818560208601611832565b6113e2816118f5565b840191505092915050565b60006113fa602383611742565b915061140582611906565b604082019050919050565b600061141d602683611742565b915061142882611955565b604082019050919050565b6000611440602283611742565b915061144b826119a4565b604082019050919050565b6000611463602683611742565b915061146e826119f3565b604082019050919050565b6000611486602883611742565b915061149182611a42565b604082019050919050565b60006114a9602083611742565b91506114b482611a91565b602082019050919050565b60006114cc602583611742565b91506114d782611aba565b604082019050919050565b60006114ef602483611742565b91506114fa82611b09565b604082019050919050565b6000611512602583611742565b915061151d82611b58565b604082019050919050565b6000611535601f83611742565b915061154082611ba7565b602082019050919050565b6115548161181b565b82525050565b61156381611825565b82525050565b600060208201905061157e6000830184611396565b92915050565b600060208201905061159960008301846113a5565b92915050565b600060208201905081810360008301526115b981846113b4565b905092915050565b600060208201905081810360008301526115da816113ed565b9050919050565b600060208201905081810360008301526115fa81611410565b9050919050565b6000602082019050818103600083015261161a81611433565b9050919050565b6000602082019050818103600083015261163a81611456565b9050919050565b6000602082019050818103600083015261165a81611479565b9050919050565b6000602082019050818103600083015261167a8161149c565b9050919050565b6000602082019050818103600083015261169a816114bf565b9050919050565b600060208201905081810360008301526116ba816114e2565b9050919050565b600060208201905081810360008301526116da81611505565b9050919050565b600060208201905081810360008301526116fa81611528565b9050919050565b6000602082019050611716600083018461154b565b92915050565b6000602082019050611731600083018461155a565b92915050565b600081519050919050565b600082825260208201905092915050565b600061175e8261181b565b91506117698361181b565b9250827fffffffffffffffffffffffffffffffffffffffffffffffffffffffffffffffff0382111561179e5761179d611897565b5b828201905092915050565b60006117b48261181b565b91506117bf8361181b565b9250828210156117d2576117d1611897565b5b828203905092915050565b60006117e8826117fb565b9050919050565b60008115159050919050565b600073ffffffffffffffffffffffffffffffffffffffff82169050919050565b6000819050919050565b600060ff82169050919050565b60005b83811015611850578082015181840152602081019050611835565b8381111561185f576000848401525b50505050565b6000600282049050600182168061187d57607f821691505b60208210811415611891576118906118c6565b5b50919050565b7f4e487b7100000000000000000000000000000000000000000000000000000000600052601160045260246000fd5b7f4e487b7100000000000000000000000000000000000000000000000000000000600052602260045260246000fd5b6000601f19601f8301169050919050565b7f45524332303a207472616e7366657220746f20746865207a65726f206164647260008201527f6573730000000000000000000000000000000000000000000000000000000000602082015250565b7f4f776e61626c653a206e6577206f776e657220697320746865207a65726f206160008201527f6464726573730000000000000000000000000000000000000000000000000000602082015250565b7f45524332303a20617070726f766520746f20746865207a65726f20616464726560008201527f7373000000000000000000000000000000000000000000000000000000000000602082015250565b7f45524332303a207472616e7366657220616d6f756e742065786365656473206260008201527f616c616e63650000000000000000000000000000000000000000000000000000602082015250565b7f45524332303a207472616e7366657220616d6f756e742065786365656473206160008201527f6c6c6f77616e6365000000000000000000000000000000000000000000000000602082015250565b7f4f776e61626c653a2063616c6c6572206973206e6f7420746865206f776e6572600082015250565b7f45524332303a207472616e736665722066726f6d20746865207a65726f20616460008201527f6472657373000000000000000000000000000000000000000000000000000000602082015250565b7f45524332303a20617070726f76652066726f6d20746865207a65726f2061646460008201527f7265737300000000000000000000000000000000000000000000000000000000602082015250565b7f45524332303a2064656372656173656420616c6c6f77616e63652062656c6f7760008201527f207a65726f000000000000000000000000000000000000000000000000000000602082015250565b7f45524332303a206d696e7420746f20746865207a65726f206164647265737300600082015250565b611bd9816117dd565b8114611be457600080fd5b50565b611bf08161181b565b8114611bfb57600080fd5b5056fea26469706673582212205caedc5fc280b772fe3b320838a901c35883ea4ddc3f98a8d0a918668974195664736f6c63430008040033",
  "linkReferences": {},
  "deployedLinkReferences": {}
}