{
  "_format": "hh-sol-artifact-1",
  "contractName": "ERC20CappedMockUpgradeable",
  "sourceName": "contracts/src/OpenZeppelin/upgradeable/mocks/ERC20CappedMockUpgradeable.sol",
  "abi": [
    {
      "anonymous": false,
      "inputs": [
        {
          "indexed": true,
          "internalType": "address",
          "name": "owner",
          "type": "address"
        },
        {
          "indexed": true,
          "internalType": "address",
          "name": "spender",
          "type": "address"
        },
        {
          "indexed": false,
          "internalType": "uint256",
          "name": "value",
          "type": "uint256"
        }
      ],
      "name": "Approval",
      "type": "event"
    },
    {
      "anonymous": false,
      "inputs": [
        {
          "indexed": true,
          "internalType": "address",
          "name": "from",
          "type": "address"
        },
        {
          "indexed": true,
          "internalType": "address",
          "name": "to",
          "type": "address"
        },
        {
          "indexed": false,
          "internalType": "uint256",
          "name": "value",
          "type": "uint256"
        }
      ],
      "name": "Transfer",
      "type": "event"
    },
    {
      "inputs": [
        {
          "internalType": "address",
          "name": "owner",
          "type": "address"
        },
        {
          "internalType": "address",
          "name": "spender",
          "type": "address"
        }
      ],
      "name": "allowance",
      "outputs": [
        {
          "internalType": "uint256",
          "name": "",
          "type": "uint256"
        }
      ],
      "stateMutability": "view",
      "type": "function"
    },
    {
      "inputs": [
        {
          "internalType": "address",
          "name": "spender",
          "type": "address"
        },
        {
          "internalType": "uint256",
          "name": "amount",
          "type": "uint256"
        }
      ],
      "name": "approve",
      "outputs": [
        {
          "internalType": "bool",
          "name": "",
          "type": "bool"
        }
      ],
      "stateMutability": "nonpayable",
      "type": "function"
    },
    {
      "inputs": [
        {
          "internalType": "address",
          "name": "account",
          "type": "address"
        }
      ],
      "name": "balanceOf",
      "outputs": [
        {
          "internalType": "uint256",
          "name": "",
          "type": "uint256"
        }
      ],
      "stateMutability": "view",
      "type": "function"
    },
    {
      "inputs": [],
      "name": "cap",
      "outputs": [
        {
          "internalType": "uint256",
          "name": "",
          "type": "uint256"
        }
      ],
      "stateMutability": "view",
      "type": "function"
    },
    {
      "inputs": [],
      "name": "decimals",
      "outputs": [
        {
          "internalType": "uint8",
          "name": "",
          "type": "uint8"
        }
      ],
      "stateMutability": "view",
      "type": "function"
    },
    {
      "inputs": [
        {
          "internalType": "address",
          "name": "spender",
          "type": "address"
        },
        {
          "internalType": "uint256",
          "name": "subtractedValue",
          "type": "uint256"
        }
      ],
      "name": "decreaseAllowance",
      "outputs": [
        {
          "internalType": "bool",
          "name": "",
          "type": "bool"
        }
      ],
      "stateMutability": "nonpayable",
      "type": "function"
    },
    {
      "inputs": [
        {
          "internalType": "address",
          "name": "spender",
          "type": "address"
        },
        {
          "internalType": "uint256",
          "name": "addedValue",
          "type": "uint256"
        }
      ],
      "name": "increaseAllowance",
      "outputs": [
        {
          "internalType": "bool",
          "name": "",
          "type": "bool"
        }
      ],
      "stateMutability": "nonpayable",
      "type": "function"
    },
    {
      "inputs": [
        {
          "internalType": "address",
          "name": "to",
          "type": "address"
        },
        {
          "internalType": "uint256",
          "name": "tokenId",
          "type": "uint256"
        }
      ],
      "name": "mint",
      "outputs": [],
      "stateMutability": "nonpayable",
      "type": "function"
    },
    {
      "inputs": [],
      "name": "name",
      "outputs": [
        {
          "internalType": "string",
          "name": "",
          "type": "string"
        }
      ],
      "stateMutability": "view",
      "type": "function"
    },
    {
      "inputs": [],
      "name": "symbol",
      "outputs": [
        {
          "internalType": "string",
          "name": "",
          "type": "string"
        }
      ],
      "stateMutability": "view",
      "type": "function"
    },
    {
      "inputs": [],
      "name": "totalSupply",
      "outputs": [
        {
          "internalType": "uint256",
          "name": "",
          "type": "uint256"
        }
      ],
      "stateMutability": "view",
      "type": "function"
    },
    {
      "inputs": [
        {
          "internalType": "address",
          "name": "recipient",
          "type": "address"
        },
        {
          "internalType": "uint256",
          "name": "amount",
          "type": "uint256"
        }
      ],
      "name": "transfer",
      "outputs": [
        {
          "internalType": "bool",
          "name": "",
          "type": "bool"
        }
      ],
      "stateMutability": "nonpayable",
      "type": "function"
    },
    {
      "inputs": [
        {
          "internalType": "address",
          "name": "sender",
          "type": "address"
        },
        {
          "internalType": "address",
          "name": "recipient",
          "type": "address"
        },
        {
          "internalType": "uint256",
          "name": "amount",
          "type": "uint256"
        }
      ],
      "name": "transferFrom",
      "outputs": [
        {
          "internalType": "bool",
          "name": "",
          "type": "bool"
        }
      ],
      "stateMutability": "nonpayable",
      "type": "function"
    }
  ],
  "bytecode": "0x608060405234801561001057600080fd5b506116b4806100206000396000f3fe608060405234801561001057600080fd5b50600436106100cf5760003560e01c8063395093511161008c57806395d89b411161006657806395d89b4114610228578063a457c2d714610246578063a9059cbb14610276578063dd62ed3e146102a6576100cf565b806339509351146101ac57806340c10f19146101dc57806370a08231146101f8576100cf565b806306fdde03146100d4578063095ea7b3146100f257806318160ddd1461012257806323b872dd14610140578063313ce56714610170578063355274ea1461018e575b600080fd5b6100dc6102d6565b6040516100e991906110c2565b60405180910390f35b61010c60048036038101906101079190610eca565b610368565b60405161011991906110a7565b60405180910390f35b61012a610386565b6040516101379190611204565b60405180910390f35b61015a60048036038101906101559190610e7b565b610390565b60405161016791906110a7565b60405180910390f35b610178610488565b604051610185919061121f565b60405180910390f35b610196610491565b6040516101a39190611204565b60405180910390f35b6101c660048036038101906101c19190610eca565b61049b565b6040516101d391906110a7565b60405180910390f35b6101f660048036038101906101f19190610eca565b610547565b005b610212600480360381019061020d9190610e16565b610555565b60405161021f9190611204565b60405180910390f35b61023061059e565b60405161023d91906110c2565b60405180910390f35b610260600480360381019061025b9190610eca565b610630565b60405161026d91906110a7565b60405180910390f35b610290600480360381019061028b9190610eca565b61071b565b60405161029d91906110a7565b60405180910390f35b6102c060048036038101906102bb9190610e3f565b610739565b6040516102cd9190611204565b60405180910390f35b6060603680546102e590611334565b80601f016020809104026020016040519081016040528092919081815260200182805461031190611334565b801561035e5780601f106103335761010080835404028352916020019161035e565b820191906000526020600020905b81548152906001019060200180831161034157829003601f168201915b5050505050905090565b600061037c6103756107c0565b84846107c8565b6001905092915050565b6000603554905090565b600061039d848484610993565b6000603460008673ffffffffffffffffffffffffffffffffffffffff1673ffffffffffffffffffffffffffffffffffffffff16815260200190815260200160002060006103e86107c0565b73ffffffffffffffffffffffffffffffffffffffff1673ffffffffffffffffffffffffffffffffffffffff16815260200190815260200160002054905082811015610468576040517f08c379a000000000000000000000000000000000000000000000000000000000815260040161045f90611144565b60405180910390fd5b61047c856104746107c0565b8584036107c8565b60019150509392505050565b60006012905090565b6000606554905090565b600061053d6104a86107c0565b8484603460006104b66107c0565b73ffffffffffffffffffffffffffffffffffffffff1673ffffffffffffffffffffffffffffffffffffffff16815260200190815260200160002060008873ffffffffffffffffffffffffffffffffffffffff1673ffffffffffffffffffffffffffffffffffffffff168152602001908152602001600020546105389190611256565b6107c8565b6001905092915050565b6105518282610c17565b5050565b6000603360008373ffffffffffffffffffffffffffffffffffffffff1673ffffffffffffffffffffffffffffffffffffffff168152602001908152602001600020549050919050565b6060603780546105ad90611334565b80601f01602080910402602001604051908101604052809291908181526020018280546105d990611334565b80156106265780601f106105fb57610100808354040283529160200191610626565b820191906000526020600020905b81548152906001019060200180831161060957829003601f168201915b5050505050905090565b6000806034600061063f6107c0565b73ffffffffffffffffffffffffffffffffffffffff1673ffffffffffffffffffffffffffffffffffffffff16815260200190815260200160002060008573ffffffffffffffffffffffffffffffffffffffff1673ffffffffffffffffffffffffffffffffffffffff168152602001908152602001600020549050828110156106fc576040517f08c379a00000000000000000000000000000000000000000000000000000000081526004016106f3906111c4565b60405180910390fd5b6107106107076107c0565b858584036107c8565b600191505092915050565b600061072f6107286107c0565b8484610993565b6001905092915050565b6000603460008473ffffffffffffffffffffffffffffffffffffffff1673ffffffffffffffffffffffffffffffffffffffff16815260200190815260200160002060008373ffffffffffffffffffffffffffffffffffffffff1673ffffffffffffffffffffffffffffffffffffffff16815260200190815260200160002054905092915050565b600033905090565b600073ffffffffffffffffffffffffffffffffffffffff168373ffffffffffffffffffffffffffffffffffffffff161415610838576040517f08c379a000000000000000000000000000000000000000000000000000000000815260040161082f906111a4565b60405180910390fd5b600073ffffffffffffffffffffffffffffffffffffffff168273ffffffffffffffffffffffffffffffffffffffff1614156108a8576040517f08c379a000000000000000000000000000000000000000000000000000000000815260040161089f90611104565b60405180910390fd5b80603460008573ffffffffffffffffffffffffffffffffffffffff1673ffffffffffffffffffffffffffffffffffffffff16815260200190815260200160002060008473ffffffffffffffffffffffffffffffffffffffff1673ffffffffffffffffffffffffffffffffffffffff168152602001908152602001600020819055508173ffffffffffffffffffffffffffffffffffffffff168373ffffffffffffffffffffffffffffffffffffffff167f8c5be1e5ebec7d5bd14f71427d1e84f3dd0314c0f7b2291e5b200ac8c7c3b925836040516109869190611204565b60405180910390a3505050565b600073ffffffffffffffffffffffffffffffffffffffff168373ffffffffffffffffffffffffffffffffffffffff161415610a03576040517f08c379a00000000000000000000000000000000000000000000000000000000081526004016109fa90611164565b60405180910390fd5b600073ffffffffffffffffffffffffffffffffffffffff168273ffffffffffffffffffffffffffffffffffffffff161415610a73576040517f08c379a0000000000000000000000000000000000000000000000000000000008152600401610a6a906110e4565b60405180910390fd5b610a7e838383610c81565b6000603360008573ffffffffffffffffffffffffffffffffffffffff1673ffffffffffffffffffffffffffffffffffffffff16815260200190815260200160002054905081811015610b05576040517f08c379a0000000000000000000000000000000000000000000000000000000008152600401610afc90611124565b60405180910390fd5b818103603360008673ffffffffffffffffffffffffffffffffffffffff1673ffffffffffffffffffffffffffffffffffffffff1681526020019081526020016000208190555081603360008573ffffffffffffffffffffffffffffffffffffffff1673ffffffffffffffffffffffffffffffffffffffff1681526020019081526020016000206000828254610b9a9190611256565b925050819055508273ffffffffffffffffffffffffffffffffffffffff168473ffffffffffffffffffffffffffffffffffffffff167fddf252ad1be2c89b69c2b068fc378daa952ba7f163c4a11628f55a4df523b3ef84604051610bfe9190611204565b60405180910390a3610c11848484610c86565b50505050565b610c1f610491565b81610c28610386565b610c329190611256565b1115610c73576040517f08c379a0000000000000000000000000000000000000000000000000000000008152600401610c6a90611184565b60405180910390fd5b610c7d8282610c8b565b5050565b505050565b505050565b600073ffffffffffffffffffffffffffffffffffffffff168273ffffffffffffffffffffffffffffffffffffffff161415610cfb576040517f08c379a0000000000000000000000000000000000000000000000000000000008152600401610cf2906111e4565b60405180910390fd5b610d0760008383610c81565b8060356000828254610d199190611256565b9250508190555080603360008473ffffffffffffffffffffffffffffffffffffffff1673ffffffffffffffffffffffffffffffffffffffff1681526020019081526020016000206000828254610d6f9190611256565b925050819055508173ffffffffffffffffffffffffffffffffffffffff16600073ffffffffffffffffffffffffffffffffffffffff167fddf252ad1be2c89b69c2b068fc378daa952ba7f163c4a11628f55a4df523b3ef83604051610dd49190611204565b60405180910390a3610de860008383610c86565b5050565b600081359050610dfb81611650565b92915050565b600081359050610e1081611667565b92915050565b600060208284031215610e2857600080fd5b6000610e3684828501610dec565b91505092915050565b60008060408385031215610e5257600080fd5b6000610e6085828601610dec565b9250506020610e7185828601610dec565b9150509250929050565b600080600060608486031215610e9057600080fd5b6000610e9e86828701610dec565b9350506020610eaf86828701610dec565b9250506040610ec086828701610e01565b9150509250925092565b60008060408385031215610edd57600080fd5b6000610eeb85828601610dec565b9250506020610efc85828601610e01565b9150509250929050565b610f0f816112be565b82525050565b6000610f208261123a565b610f2a8185611245565b9350610f3a818560208601611301565b610f43816113c4565b840191505092915050565b6000610f5b602383611245565b9150610f66826113d5565b604082019050919050565b6000610f7e602283611245565b9150610f8982611424565b604082019050919050565b6000610fa1602683611245565b9150610fac82611473565b604082019050919050565b6000610fc4602883611245565b9150610fcf826114c2565b604082019050919050565b6000610fe7602583611245565b9150610ff282611511565b604082019050919050565b600061100a601983611245565b915061101582611560565b602082019050919050565b600061102d602483611245565b915061103882611589565b604082019050919050565b6000611050602583611245565b915061105b826115d8565b604082019050919050565b6000611073601f83611245565b915061107e82611627565b602082019050919050565b611092816112ea565b82525050565b6110a1816112f4565b82525050565b60006020820190506110bc6000830184610f06565b92915050565b600060208201905081810360008301526110dc8184610f15565b905092915050565b600060208201905081810360008301526110fd81610f4e565b9050919050565b6000602082019050818103600083015261111d81610f71565b9050919050565b6000602082019050818103600083015261113d81610f94565b9050919050565b6000602082019050818103600083015261115d81610fb7565b9050919050565b6000602082019050818103600083015261117d81610fda565b9050919050565b6000602082019050818103600083015261119d81610ffd565b9050919050565b600060208201905081810360008301526111bd81611020565b9050919050565b600060208201905081810360008301526111dd81611043565b9050919050565b600060208201905081810360008301526111fd81611066565b9050919050565b60006020820190506112196000830184611089565b92915050565b60006020820190506112346000830184611098565b92915050565b600081519050919050565b600082825260208201905092915050565b6000611261826112ea565b915061126c836112ea565b9250827fffffffffffffffffffffffffffffffffffffffffffffffffffffffffffffffff038211156112a1576112a0611366565b5b828201905092915050565b60006112b7826112ca565b9050919050565b60008115159050919050565b600073ffffffffffffffffffffffffffffffffffffffff82169050919050565b6000819050919050565b600060ff82169050919050565b60005b8381101561131f578082015181840152602081019050611304565b8381111561132e576000848401525b50505050565b6000600282049050600182168061134c57607f821691505b602082108114156113605761135f611395565b5b50919050565b7f4e487b7100000000000000000000000000000000000000000000000000000000600052601160045260246000fd5b7f4e487b7100000000000000000000000000000000000000000000000000000000600052602260045260246000fd5b6000601f19601f8301169050919050565b7f45524332303a207472616e7366657220746f20746865207a65726f206164647260008201527f6573730000000000000000000000000000000000000000000000000000000000602082015250565b7f45524332303a20617070726f766520746f20746865207a65726f20616464726560008201527f7373000000000000000000000000000000000000000000000000000000000000602082015250565b7f45524332303a207472616e7366657220616d6f756e742065786365656473206260008201527f616c616e63650000000000000000000000000000000000000000000000000000602082015250565b7f45524332303a207472616e7366657220616d6f756e742065786365656473206160008201527f6c6c6f77616e6365000000000000000000000000000000000000000000000000602082015250565b7f45524332303a207472616e736665722066726f6d20746865207a65726f20616460008201527f6472657373000000000000000000000000000000000000000000000000000000602082015250565b7f45524332304361707065643a2063617020657863656564656400000000000000600082015250565b7f45524332303a20617070726f76652066726f6d20746865207a65726f2061646460008201527f7265737300000000000000000000000000000000000000000000000000000000602082015250565b7f45524332303a2064656372656173656420616c6c6f77616e63652062656c6f7760008201527f207a65726f000000000000000000000000000000000000000000000000000000602082015250565b7f45524332303a206d696e7420746f20746865207a65726f206164647265737300600082015250565b611659816112ac565b811461166457600080fd5b50565b611670816112ea565b811461167b57600080fd5b5056fea2646970667358221220493dad1534a45d81bd58bb64d7d9eded93268f6a7303bba4e2f6c3d9c51a7e5864736f6c63430008040033",
  "linkReferences": {},
  "deployedLinkReferences": {}
}