{
  "_format": "hh-sol-artifact-1",
  "contractName": "Implementation3",
  "sourceName": "contracts/src/OpenZeppelin/mocks/RegressionImplementation.sol",
  "abi": [
    {
      "inputs": [
        {
          "internalType": "uint256",
          "name": "_number",
          "type": "uint256"
        }
      ],
      "name": "getValue",
      "outputs": [
        {
          "internalType": "uint256",
          "name": "",
          "type": "uint256"
        }
      ],
      "stateMutability": "view",
      "type": "function"
    },
    {
      "inputs": [],
      "name": "initialize",
      "outputs": [],
      "stateMutability": "nonpayable",
      "type": "function"
    },
    {
      "inputs": [
        {
          "internalType": "uint256",
          "name": "_number",
          "type": "uint256"
        }
      ],
      "name": "setValue",
      "outputs": [],
      "stateMutability": "nonpayable",
      "type": "function"
    }
  ],
  "bytecode": "0x608060405234801561001057600080fd5b506103b0806100206000396000f3fe608060405234801561001057600080fd5b50600436106100415760003560e01c80630ff4c9161461004657806355241077146100765780638129fc1c14610092575b600080fd5b610060600480360381019061005b91906101de565b61009c565b60405161006d9190610259565b60405180910390f35b610090600480360381019061008b91906101de565b6100b3565b005b61009a6100bd565b005b6000816001546100ac9190610285565b9050919050565b8060018190555050565b600060019054906101000a900460ff16806100dc57506100db6101a5565b5b806100f2575060008054906101000a900460ff16155b610131576040517f08c379a000000000000000000000000000000000000000000000000000000000815260040161012890610239565b60405180910390fd5b60008060019054906101000a900460ff161590508015610181576001600060016101000a81548160ff02191690831515021790555060016000806101000a81548160ff0219169083151502179055505b80156101a25760008060016101000a81548160ff0219169083151502179055505b50565b60006101b0306101b6565b15905090565b600080823b905060008111915050919050565b6000813590506101d881610363565b92915050565b6000602082840312156101f057600080fd5b60006101fe848285016101c9565b91505092915050565b6000610214602e83610274565b915061021f82610314565b604082019050919050565b610233816102db565b82525050565b6000602082019050818103600083015261025281610207565b9050919050565b600060208201905061026e600083018461022a565b92915050565b600082825260208201905092915050565b6000610290826102db565b915061029b836102db565b9250827fffffffffffffffffffffffffffffffffffffffffffffffffffffffffffffffff038211156102d0576102cf6102e5565b5b828201905092915050565b6000819050919050565b7f4e487b7100000000000000000000000000000000000000000000000000000000600052601160045260246000fd5b7f496e697469616c697a61626c653a20636f6e747261637420697320616c72656160008201527f647920696e697469616c697a6564000000000000000000000000000000000000602082015250565b61036c816102db565b811461037757600080fd5b5056fea264697066735822122014af0e5d5a217ddd5c2989f7b8a7fcfb26a60686caeba17e687491e4a46839b364736f6c63430008040033",
  "linkReferences": {},
  "deployedLinkReferences": {}
}