{
  "_format": "hh-sol-artifact-1",
  "contractName": "Implementation1",
  "sourceName": "contracts/src/OpenZeppelin/mocks/RegressionImplementation.sol",
  "abi": [
    {
      "inputs": [],
      "name": "initialize",
      "outputs": [],
      "stateMutability": "nonpayable",
      "type": "function"
    },
    {
      "inputs": [
        {
          "internalType": "uint256",
          "name": "_number",
          "type": "uint256"
        }
      ],
      "name": "setValue",
      "outputs": [],
      "stateMutability": "nonpayable",
      "type": "function"
    }
  ],
  "bytecode": "0x608060405234801561001057600080fd5b506102af806100206000396000f3fe608060405234801561001057600080fd5b50600436106100365760003560e01c8063552410771461003b5780638129fc1c14610057575b600080fd5b6100556004803603810190610050919061018c565b610061565b005b61005f61006b565b005b8060018190555050565b600060019054906101000a900460ff168061008a5750610089610153565b5b806100a0575060008054906101000a900460ff16155b6100df576040517f08c379a00000000000000000000000000000000000000000000000000000000081526004016100d6906101d8565b60405180910390fd5b60008060019054906101000a900460ff16159050801561012f576001600060016101000a81548160ff02191690831515021790555060016000806101000a81548160ff0219169083151502179055505b80156101505760008060016101000a81548160ff0219169083151502179055505b50565b600061015e30610164565b15905090565b600080823b905060008111915050919050565b60008135905061018681610262565b92915050565b60006020828403121561019e57600080fd5b60006101ac84828501610177565b91505092915050565b60006101c2602e836101f8565b91506101cd82610213565b604082019050919050565b600060208201905081810360008301526101f1816101b5565b9050919050565b600082825260208201905092915050565b6000819050919050565b7f496e697469616c697a61626c653a20636f6e747261637420697320616c72656160008201527f647920696e697469616c697a6564000000000000000000000000000000000000602082015250565b61026b81610209565b811461027657600080fd5b5056fea26469706673582212201927543531a8c767c12121ddccfe60b2e0ec716d8a1b61ac99b8008f625d16b264736f6c63430008040033",
  "linkReferences": {},
  "deployedLinkReferences": {}
}