{
  "_format": "hh-sol-artifact-1",
  "contractName": "BitMapMockUpgradeable",
  "sourceName": "contracts/src/OpenZeppelin/upgradeable/mocks/BitmapMockUpgradeable.sol",
  "abi": [
    {
      "inputs": [
        {
          "internalType": "uint256",
          "name": "index",
          "type": "uint256"
        }
      ],
      "name": "get",
      "outputs": [
        {
          "internalType": "bool",
          "name": "",
          "type": "bool"
        }
      ],
      "stateMutability": "view",
      "type": "function"
    },
    {
      "inputs": [
        {
          "internalType": "uint256",
          "name": "index",
          "type": "uint256"
        }
      ],
      "name": "set",
      "outputs": [],
      "stateMutability": "nonpayable",
      "type": "function"
    },
    {
      "inputs": [
        {
          "internalType": "uint256",
          "name": "index",
          "type": "uint256"
        },
        {
          "internalType": "bool",
          "name": "value",
          "type": "bool"
        }
      ],
      "name": "setTo",
      "outputs": [],
      "stateMutability": "nonpayable",
      "type": "function"
    },
    {
      "inputs": [
        {
          "internalType": "uint256",
          "name": "index",
          "type": "uint256"
        }
      ],
      "name": "unset",
      "outputs": [],
      "stateMutability": "nonpayable",
      "type": "function"
    }
  ],
  "bytecode": "0x608060405234801561001057600080fd5b50610415806100206000396000f3fe608060405234801561001057600080fd5b506004361061004c5760003560e01c8063088d22551461005157806360fe47b11461006d5780639507d39a14610089578063dcc9d43c146100b9575b600080fd5b61006b6004803603810190610066919061027b565b6100d5565b005b6100876004803603810190610082919061027b565b6100ec565b005b6100a3600480360381019061009e919061027b565b610103565b6040516100b091906102ef565b60405180910390f35b6100d360048036038101906100ce91906102a4565b610120565b005b6100e981600161013a90919063ffffffff16565b50565b61010081600161018c90919063ffffffff16565b50565b60006101198260016101dd90919063ffffffff16565b9050919050565b6101368282600161022c9092919063ffffffff16565b5050565b60006101008261014a919061030a565b905060006101008361015c9190610351565b6001901b905080198460000160008481526020019081526020016000206000828254169250508190555050505050565b60006101008261019c919061030a565b90506000610100836101ae9190610351565b6001901b9050808460000160008481526020019081526020016000206000828254179250508190555050505050565b600080610100836101ee919061030a565b90506000610100846102009190610351565b6001901b9050600081866000016000858152602001908152602001600020541614159250505092915050565b80156102415761023c838361018c565b61024c565b61024b838361013a565b5b505050565b600081359050610260816103b1565b92915050565b600081359050610275816103c8565b92915050565b60006020828403121561028d57600080fd5b600061029b84828501610266565b91505092915050565b600080604083850312156102b757600080fd5b60006102c585828601610266565b92505060206102d685828601610251565b9150509250929050565b6102e98161033b565b82525050565b600060208201905061030460008301846102e0565b92915050565b600061031582610347565b915061032083610347565b9250826103305761032f610382565b5b828204905092915050565b60008115159050919050565b6000819050919050565b600061035c82610347565b915061036783610347565b92508261037757610376610382565b5b828206905092915050565b7f4e487b7100000000000000000000000000000000000000000000000000000000600052601260045260246000fd5b6103ba8161033b565b81146103c557600080fd5b50565b6103d181610347565b81146103dc57600080fd5b5056fea2646970667358221220f34f991a0910ab64679a23c6843d6b89abbb556e4d48e9fcda38fd90bf44670e64736f6c63430008040033",
  "linkReferences": {},
  "deployedLinkReferences": {}
}